:020000040800F2
:1000000000040020D1060008A1080008A10800088B
:10001000A1080008A1080008A1080008A10800081C
:10002000A1080008A1080008A1080008D1080008DC
:10003000A1080008A1080008A1080008A1090008FB
:10004000A1080008A1080008A1080008A1080008EC
:10005000A1080008A1080008A1080008A1080008DC
:10006000A1080008A1080008A108000881290008CB
:10007000B1290008E1290008212A0008612A0008A6
:10008000A12A0008E12A0008A1080008C13A0008D6
:10009000213E0008A1080008A1080008A1080008E6
:1000A000A1080008A1080008A1080008A10800088C
:1000B000A1080008A1080008A1080008F12E000806
:1000C000B1300008A1080008A1080008A108000834
:1000D000A1080008A1080008A1080008A10800085C
:0C00E000A1080008A1080008A108000801
:1000F00000210A2200F086B900220A2300F0D0B8BD
:1001000040F60003C2F2000370B41D6810F8013B12
:10011000EC181A46647804F00304012C11F8014B22
:1001200008BF03F120022E192346767806F0030655
:10013000012E08BF04F12003D21A01D1002BE5D112
:10014000104670BC704700BF0000000000000000B7
:10015000C9B2F0B4002950D010F0030F10D00378CA
:10016000002B79D0994246D0431C05E013F8012BAF
:10017000002A3FD091423ED013F0030F1846F5D12C
:10018000036841EA01270646A3F1013247EA07471F
:1001900022EA030212F0803F1DD187EA0303A3F194
:1001A000013222EA030313F0803F14D1043002E04D
:1001B00012F0803F0FD1064650F8043BA3F1013501
:1001C00087EA030225EA0303A2F1013413F0803F1A
:1001D00024EA0202ECD033783046002B3CD099421E
:1001E00009D0731C01E0914205D0184613F8012B89
:1001F000002AF8D11046F0BC704710F0030F0CD065
:100200000378002BF7D0431C03E013F8012B002ADE
:10021000F1D013F0030F1846F7D102680346A2F19C
:10022000013121EA020212F0803F0AD10430034674
:1002300050F8042BA2F1013121EA020212F0803FB2
:10024000F5D01A781846002AD5D00133184613F88D
:10025000012B002AFAD1CEE71846CCE700000000B7
:10026000F0B40646047874B10F780546064657B1D7
:10027000BC4218BF0A4602D108E09C4206D012F8E0
:10028000013F002BF9D1301AF0BC70476C786E1C1E
:10029000002CF8D03546EBE700000000000000001D
:1002A0002DE9F04F40F60004C2F2000485B01F466D
:1002B0008C4626680B460390029213F8014B3219C4
:1002C0001D4692F801B01BF0080BF6D12D2C73D00F
:1002D0002B2C08BF15F8014BD7F1010338BF0023C1
:1002E000102F14BF1A4643F0010232B1302C73D0E4
:1002F0001BB1302C00F083800A27B946BBF1000FF8
:1003000049460CBF6FF0004A4FF0004ACDF804C0D8
:10031000504600F0B3F950468846494600F080F850
:1003200033190022DDF804C05B78114613F0040F86
:100330001ED0303CA74225DD814294BF002301231B
:1003400053EAD2722ED10A1A534243EB02034445B8
:10035000D4BF002303F00103002B23D109FB01418B
:1003600015F8014B012233195B7813F0040FE0D12B
:1003700013F0030306D0012B14BF57233723E41ACD
:10038000A742D9DCB2F1FF3F1BD00846BBF1000FFA
:1003900010D1029B1BB152B90299C1F800C005B03F
:1003A000BDE8F08F4FF0FF3215F8014BDBE705F1A8
:1003B000FF3CF1E74842ECE715F8014B4FF0010B29
:1003C0008AE70399BBF1000F0CBF6FF000404FF0BC
:1003D000004022230B60DCE72A78A2F1780041423A
:1003E00041EB0001582A14BF0A4641F00102002ADD
:1003F0003FF47EAF10276C78B94602357EE70827B8
:10040000B9467BE730B440F60404C2F200040D465E
:10041000134601462A46206830BC41E70000000030
:100420004A1E08BF7047C0F02481884240F21681FE
:10043000114200F01781B0FA80F3B1FA81F2A2EB19
:100440000303C3F11F0304A202EB03134FF00002E6
:100450009F4600BFAFF30080B0EBC17F00BF42EB0F
:10046000020228BFA0EBC170B0EB817F00BF42EB5E
:10047000020228BFA0EB8170B0EB417F00BF42EBCE
:10048000020228BFA0EB4170B0EB017F00BF42EB3E
:10049000020228BFA0EB0170B0EBC16F00BF42EBBE
:1004A000020228BFA0EBC160B0EB816F00BF42EB3E
:1004B000020228BFA0EB8160B0EB416F00BF42EBAE
:1004C000020228BFA0EB4160B0EB016F00BF42EB1E
:1004D000020228BFA0EB0160B0EBC15F00BF42EB9E
:1004E000020228BFA0EBC150B0EB815F00BF42EB1E
:1004F000020228BFA0EB8150B0EB415F00BF42EB8E
:10050000020228BFA0EB4150B0EB015F00BF42EBFD
:10051000020228BFA0EB0150B0EBC14F00BF42EB7D
:10052000020228BFA0EBC140B0EB814F00BF42EBFD
:10053000020228BFA0EB8140B0EB414F00BF42EB6D
:10054000020228BFA0EB4140B0EB014F00BF42EBDD
:10055000020228BFA0EB0140B0EBC13F00BF42EB5D
:10056000020228BFA0EBC130B0EB813F00BF42EBDD
:10057000020228BFA0EB8130B0EB413F00BF42EB4D
:10058000020228BFA0EB4130B0EB013F00BF42EBBD
:10059000020228BFA0EB0130B0EBC12F00BF42EB3D
:1005A000020228BFA0EBC120B0EB812F00BF42EBBD
:1005B000020228BFA0EB8120B0EB412F00BF42EB2D
:1005C000020228BFA0EB4120B0EB012F00BF42EB9D
:1005D000020228BFA0EB0120B0EBC11F00BF42EB1D
:1005E000020228BFA0EBC110B0EB811F00BF42EB9D
:1005F000020228BFA0EB8110B0EB411F00BF42EB0D
:10060000020228BFA0EB4110B0EB011F00BF42EB7C
:10061000020228BFA0EB0110B0EBC10F00BF42EBFC
:10062000020228BFA0EBC100B0EB810F00BF42EB7C
:10063000020228BFA0EB8100B0EB410F00BF42EBEC
:10064000020228BFA0EB4100B0EB010F00BF42EB5C
:10065000020228BFA0EB0100104670470CBF01202A
:1006600000207047B1FA81F2C2F11F0220FA02F0B5
:10067000704708B14FF0FF3000F012B80029F8D0F1
:100680002DE90340FFF7CCFEBDE8064002FB00F376
:10069000A1EB0301704700BF000000000000000054
:1006A000704700BF000000000000000000000000D4
:1006B000704700BFAFF30080AFF30080AFF300805E
:1006C000FEE700BFAFF30080AFF30080AFF3008020
:1006D00072B6634880F30988022383F31488BFF35A
:1006E0006F8F604A604CA24217D213464FF05531CB
:1006F000D64343F8041BA519A342C5F380050CD2C9
:1007000025B1196002F10803A34206D21A4642F845
:10071000041B5960131DA342F8D3544A824217D2D6
:1007200013464FF05531D54343F8041B4419834217
:10073000C4F380040CD224B1196002F1080383428F
:1007400006D21E4646F8041B5960331D8342F8D377
:1007500003F02EFD464C4749A14222D246480B46A3
:10076000024652F8046BCD4343F8046B04EB050CCE
:10077000A342CCF3800514D23DB1166800F1080203
:100780001E6001F10803A3420BD2104650F8045B2F
:10079000194641F8045B5668021D5E600B1DA342BA
:1007A000F3D3364A3648824217D200211346D44347
:1007B00043F8041B00EB040E8342CEF380040CD2FA
:1007C00024B1196002F10803834206D21A4642F8A6
:1007D000041B5960131D8342F8D32A4D2A4EFFF79C
:1007E00067FFB54219D22C4654F8043BE943771809
:1007F0009847B442C7F380070FD22FB1236805F1A1
:1008000008049847B44208D2254655F8042B90476F
:1008100060682C1D8047B442F6D31C4D1C4E04F07A
:100820001FF9B5421AD22C46EF4354F8043B06EBAD
:10083000070CCCF380079847B4420FD22FB122683F
:1008400005F108049047B44208D2254655F8040B38
:10085000804761682C1D8847B442F6D3FFF730BF4C
:1008600000080020000000200004002000040020F8
:100870001C09002000080020F86A00082009002058
:1008800030180020EC000008EC000008EC00000824
:10089000EC000008AFF30080AFF30080AFF30080FE
:1008A000FEE700BFAFF30080AFF30080AFF300803E
:1008B00072B6FEE7AFF30080AFF30080AFF30080C5
:1008C00000F08EF900F0F4FB00F0AAF900DF00BFA1
:1008D000EFF30983203383F30988002383F311881E
:1008E000704700BFAFF30080AFF30080AFF300802C
:1008F0000A4B002210B59A60094A07201021DA60DD
:1009000000F0C6F80A204FF4007100F0C1F80B2087
:100910008021BDE8104000F0BBB800BF00ED00E052
:100920000000FA05AFF30080AFF30080AFF3008062
:10093000202383F311881648436813F4006316D00C
:10094000EFF30983203B83F30988124A4FF080704C
:100950009169D86171B11068D269816892689142D9
:1009600094BF002201227AB10B499961704783F349
:10097000118870471068D26981689268914234BFCB
:1009800000220122002AEFD1044A9A61704700BF79
:1009900000ED00E0540E0020C1080008CC0800085B
:1009A00010B500F09DF9202383F3118800F058F969
:1009B00000F0CEF800F074F9002383F3118800F002
:1009C000AFF9BDE81040FFF7B3BF00BFAFF3008041
:1009D0002DE9F04FC1F80CD0D0F80CD0BDE8F08F65
:1009E00008B500F01DF9002383F311882846A047BD
:1009F00000F09EFC08BD00BFAFF30080AFF30080A5
:100A0000F0B400F00307FE00FF2313FA06F200F033
:100A10001F04B1400125A5408608094CC03654F892
:100A20002670400927EA020242EA010300F160074A
:100A300044F8263044F8275044F82050F0BC704762
:100A400000E100E0AFF30080AFF30080AFF300807F
:100A500010B400F01F020124944000F00301CA000A
:100A6000FF2313FA02F24109064B2031800843F8B4
:100A70002140C03053F8201021EA020243F8202020
:100A800010BC704700E100E0AFF30080AFF30080DE
:100A900000F0030210B4FF23D40013FA04F2A140C3
:100AA0008008064C063054F8203023EA020242EA5D
:100AB000010344F8203010BC704700BF00ED00E097
:100AC0000248034AC3699A61FEE700BF540E002042
:100AD000D05A0008AFF30080AFF30080AFF300807E
:100AE00030B583B0FFF704FF00F012FA00F0A8F968
:100AF00000F066FF00F0BCFF00F062F940210E48F4
:100B000000F0FEFA0D4D0E490124E86180F8204006
:100B1000C16100F04DF8002383F3118862B6EA69E1
:100B20001D46084BC021936107482246074B00959C
:100B300000F076FB03B030BD20090020540E0020E9
:100B400000040020D85A000870090020C10A0008DB
:100B500070B500F005F9114B9A69002A01DD013AE0
:100B60009A61DA690E4C516A2368481C5062E16848
:100B7000481CA342E0600FD09D68013D9D605DB9B7
:100B800026461968DA681869DD604E602160904772
:100B9000236898680028F4D070BD00BF540E002070
:100BA000440E0020AFF30080AFF30080AFF300806D
:100BB0000548036813B9054A116821B10448054B7B
:100BC0001860FFF775BE7047300A00203C0E002009
:100BD000F05A0008400E0020AFF30080AFF3008011
:100BE000084810B5036853B9074C216821B1074A7A
:100BF000074B1A60FFF75CFE0120206010BD024C1D
:100C0000F5E700BF300A00203C0E0020F85A00082B
:100C1000400E0020AFF30080AFF30080AFF3008000
:100C2000094810B5036833B9084C2168002903DD71
:100C30000020206010BD054C054A064B1A60FFF7E6
:100C400037FE0020206010BD300A00203C0E00203E
:100C5000005B0008400E0020AFF30080AFF300807F
:100C6000084810B50368002B0ADD074C216821B144
:100C7000064A074B1A60FFF71BFE0120206010BDDB
:100C8000014CF5E7300A00203C0E0020085B00080C
:100C9000400E0020AFF30080AFF30080AFF3008080
:100CA0000A4810B50368002B06DD094C21680029AD
:100CB00003DD0020206010BD054C064A064B1A607B
:100CC000FFF7F6FD0020206010BD00BF300A0020B5
:100CD0003C0E0020105B0008400E0020AFF30080A7
:100CE00010B5202383F31188094C2368002B02DB05
:100CF000084802682AB1084B08491960FFF7D8FD77
:100D000023685A1C2260002383F3118810BD00BFA2
:100D1000300A00203C0E0020400E0020185B000826
:100D200010B5202383F31188094C2368002B02DDC2
:100D3000084802682AB1084B08491960FFF7B8FD56
:100D400023685A1E2260002383F3118810BD00BF60
:100D5000300A00203C0E0020400E0020205B0008DE
:100D600006480368002B04DB054A1168002900DDF2
:100D700070470448044B1860FFF79ABD300A002002
:100D80003C0E0020285B0008400E0020AFF30080DE
:100D90000648036823B9064A1168002900DD704738
:100DA0000448054B1860FFF783BD00BF300A0020E0
:100DB0003C0E0020305B0008400E0020AFF30080A6
:100DC000034A4021134643F8081B5360704700BF95
:100DD000340A0020AFF30080AFF30080AFF300804F
:100DE00010B40D4A0D4C0E495368E468C9691C6083
:100DF0005960846A03F110019C6090F8204002F56C
:100E0000816081421C7328BF02F10803516028BF32
:100E1000536010BC704700BF340A0020440E00200D
:100E2000540E0020AFF30080AFF30080AFF30080DA
:100E3000014B1860FFF73CBD400E0020AFF300806F
:100E4000044B4FF0FF3000225B601B609860DA605B
:100E5000704700BF440E0020AFF30080AFF3008066
:100E6000F8B504460D4616461F46FFF779FFCCB18C
:100E7000C6B1BDB10D4927610B68E6609A6895421D
:100E800004D91B68AD1A9A68AA42FAD35A688B42F1
:100E90002360626014605C60A56002D09868451BA6
:100EA0009D60F8BD0248FFF7C3FFE3E7440E002052
:100EB000405B0008AFF30080AFF30080AFF3008029
:100EC00010B50446FFF74CFF84B1E36893B1236883
:100ED0000A4A934203D09968A268881898606068AB
:100EE000002203602368E260586010BD0448FFF7E9
:100EF0009FFFEAE70348FFF79BFFE8E7440E002067
:100F0000505B0008605B0008AFF30080AFF3008027
:100F1000044B002014225B601B6098609A615B6147
:100F20001B617047540E0020AFF30080AFF30080C8
:100F300010B590F8203004468BB10E2B0FD0002254
:100F4000094BA16884F820201B6898688842FBD26E
:100F50005968236061600C605C60204610BD0348E6
:100F6000FFF766FFEBE700BF540E0020805B000830
:100F700090F820300D2B11D8DFE803F01510100782
:100F8000100B101010101010100B816A8B685A1C77
:100F90008A60416803680B60026851604FF0FF325D
:100FA0008262FFF7C5BF7047AFF30080AFF30080E8
:100FB00070B5114C0646FFF7EBFEE569142085F885
:100FC0002060236801211A6883F82010A061546012
:100FD00028462260E361FFF703FFEA69ADF12403CD
:100FE0009A4202D90548FFF723FFE0692946BDE888
:100FF0007040FFF7EDBC00BF540E0020945B00086A
:1010000070B50E4686B00546FFF7C2FEB6F1FF3F4B
:1010100012D00C4C3146E3690B4A01A8FFF720FFC0
:101020002846FFF7C5FF049B13B101A8FFF748FF4F
:10103000E069806A06B070BD2846FFF7B9FF014C31
:10104000F6E700BF540E0020710F0008AFF30080D8
:1010500070B5154D04460E46FFF79AFEE869A26882
:101060008368A6629A4215D9FFF762FF0123142212
:10107000064684F82030AA61EC61FFF7B1FEF06902
:10108000ADF1240188420AD820463146BDE87040BF
:10109000FFF79EBC2046BDE87040FFF749BF0348FC
:1010A000FFF7C6FEF0E700BF540E0020945B000877
:1010B00070B5104C01212368E5691A681420A061FD
:1010C00083F82010546028462260E361FFF730FF68
:1010D0002846FFF785FEEA69ADF124039A4202D95A
:1010E0000548FFF7A5FEE0692946BDE87040FFF717
:1010F0006FBC00BF540E0020945B0008AFF300806B
:10110000F0B40022104C0125022380F8203080F832
:10111000212080F82250656900F1300600F12C0C86
:1011200000F14C07046181604561416460610264C3
:10113000C263426282612861C0F82CC046630663C4
:10114000C761F0BC704700BF540E0020AFF30080B1
:10115000884213D2C34300F8012BCB18884203F016
:1011600001030CD01BB100F8012B884208D00346C4
:1011700003F8012B4270581C8842F8D17047704721
:10118000704700BFAFF30080AFF30080AFF3008083
:10119000F8B504460D4616461F46FFF7E1FD0CB1B3
:1011A000AF2D2BD81848FFF743FE243D6119E160AD
:1011B0006751069D15484D600023154A02270125F9
:1011C000086284F8207084F8225084F82130506935
:1011D00004F1300104F12C0704F14C052261606137
:1011E000A6606664546123640461E3636362A3617F
:1011F000E76261632163E5612046F8BD7F2ED1D8A7
:10120000002FD2D1CEE700BFB05B0008E109000893
:10121000540E0020AFF30080AFF30080AFF30080E6
:10122000F0B504460D461F4683B016464C302346A3
:10123000FF211A4602F8011B5970531C8342F8D152
:101240006019834215D25521DA4303F8011B00EBE4
:10125000020C83420CF001020BD01AB103F8011BFF
:10126000834206D01A4602F8011B5970531C834270
:10127000F8D1202383F31188FFF7B2FC2046089CA5
:101280003B46324629460094FFF782FF0021044680
:10129000FFF7DEFEFFF7C4FC002383F3118820462E
:1012A00003B0F0BDAFF30080AFF30080AFF3008078
:1012B00010B5044610B90948FFF7BAFD202383F39F
:1012C0001188FFF78DFC21460620FFF799FEFFF7F6
:1012D000A7FC002383F3118810BD00BFF05B00085A
:1012E000114B70B5DC69254655F82C3FA062AB4226
:1012F00007D01A681846E262FFF71AFEE36AAB42AB
:10130000F7D194F8210010F0030F04D1636922692A
:101310001A6121694B610E20FFF74AFE0348BDE8C0
:101320007040FFF785BD00BF540E0020005C000830
:1013300010B52023044683F31188FFF751FC2046A3
:10134000BDE81040FFF7CCBFAFF30080AFF30080E3
:1013500070B52023044683F31188FFF741FC94F80D
:101360002250002D21D0013DEDB284F82250FFF72C
:1013700057FC002383F311881DB994F820300E2BFD
:1013800000D070BD94F8210000F00303012B12D0AF
:10139000022BF6D163692169A06C1961226921468B
:1013A0005361BDE8704000F053BC0848FFF740FDB2
:1013B00094F82250D7E76169236920460B612269BE
:1013C0005161BDE8704000F0ABBB00BF645C000839
:1013D0002DE9F04182B00D4616461F4600F058FB3D
:1013E000044618B300F14C084146FF22FFF7B0FE57
:1013F000404661195522FFF7ABFE202383F3118885
:10140000FFF7EEFB2046089C32463B4629460094F7
:10141000FFF7BEFE012380F8213000210446FFF7CC
:1014200017FEFFF7FDFB002383F31188204602B06F
:10143000BDE8F081AFF30080AFF30080AFF3008030
:1014400010B5202383F31188FFF7CAFB06490C6906
:1014500094F82200431C84F82230FFF7E1FB0023BC
:1014600083F31188204610BD540E0020AFF3008096
:1014700038B50546202383F31188FFF7B1FB2C69AB
:101480000D4B9C4216D094F82230FF2B0CD0581CE8
:1014900084F82200FFF7C4FB002383F31188284659
:1014A000FFF756FF204638BD0448FFF7C1FC94F80B
:1014B0002230ECE70024EDE7540E0020A05C000889
:1014C00010B5044620B1002364602460A36010BD01
:1014D0000348FFF7ADFC002364602460A36010BDE7
:1014E000C05C0008AFF30080AFF30080AFF3008072
:1014F0003B4B2DE9F0410546DC69FFF749FC002D27
:101500006AD0A868002836D0A2688168914208D2C3
:1015100090F820308260042B46D0052B31D0002B70
:101520001ED02B461B689D4203D09868A168884254
:10153000F8D25A682360626004205C601460A5627F
:10154000FFF736FDAB68A34202D02648FFF770FCD8
:10155000206CA84213D02448BDE8F041FFF768BCD6
:101560004368026801211A60026880F82010536005
:10157000FFF7DEFCD5E7216CAC60E9602564BDE8CF
:10158000F08141680768866A0F60076833467960B2
:101590001B689E4202D099689142F9D25A68036052
:1015A000426010605860BCE741680768866A0F6057
:1015B0000768334679601B689E4202D09968914261
:1015C000F9D25A680360426010605860B068A2683F
:1015D000836893429CD3A4E70448FFF729FC90E773
:1015E000540E0020E05C0008F45C0008D05C0008A9
:1015F00010B52023044683F31188FFF7F1FA204643
:10160000FFF776FFFFF70CFB002383F3118810BD73
:10161000214A70B52023D56983F31188FFF7E0FADA
:101620002C6C002C33D0A368AB4203D01B48FFF7CF
:10163000FFFB2C6C2368E268A3422A641ED0686C0E
:101640004AB11168914203D08968884238BF084680
:10165000D268002AF5D11A681E6CA86000212260A9
:1016600018465460A360E6601C64FFF7F1FCFFF7C6
:10167000D7FA002383F31188204670BD0020A060B4
:10168000FFF7CEFA002383F31188204670BD04488B
:10169000FFF7CEFB2C6CC6E7540E0020305D00082F
:1016A0001C5D0008AFF30080AFF30080AFF3008053
:1016B00038B504460D46FFF753FBBCB1E26B94F816
:1016C00020301543082BE5630CD0092B00D038BD22
:1016D000A06A0540A842FAD12046FFF729FC002164
:1016E000816238BDA36A1D42F6D138BD0148FFF7BB
:1016F0009FFBE3E79C5D0008AFF30080AFF3008041
:1017000070B505460E46FFF72BFB65B12C68AC4261
:1017100008D0A168606846EA0101FFF7C9FF2468A4
:10172000AC42F6D170BD0248FFF782FBEEE700BF86
:10173000C05D0008AFF30080AFF30080AFF300801E
:1017400010B4034619B94FF0FF3010BC7047064C77
:101750000D20E26993625C68136054605A602260F5
:1017600010BCFFF74DBC00BF540E0020AFF300804B
:1017700010B48A1800244060006084604161816177
:10178000C1600261C36110BC704700BFAFF300804D
:10179000F8B504460D46202383F31188FFF720FA9D
:1017A000E3690BB120469847A6682046294656B9FA
:1017B000FFF7C6FF071EF7DAFFF732FA334683F367
:1017C00011883846F8BDA369013EA66013F8017B75
:1017D0002269A361934224BFE368A361FFF720FA63
:1017E000002383F311883846F8BD00BFAFF30080B3
:1017F0002DE9F0470446904689461D46C769002AF0
:1018000037D0202383F31188FFF7EAF900260FB1C0
:101810002046B847D4F808A020462946BAF1000F60
:101820000BD1FFF78DFF0028F4D0FFF7F9F95346ED
:1018300083F311883046BDE8F087A3690AF1FF31D0
:10184000A16013F8010B09F806002269A361934215
:1018500024BFE368A361FFF7E3F9002383F3118852
:1018600001364645E6D0202383F31188FFF7B8F907
:10187000CDE70248FFF7DCFAC3E700BF005E0008CF
:1018800010B48C1840600060826041618161C16069
:101890000461C36110BC7047AFF30080AFF30080F8
:1018A0002DE9F041202304460D46164683F31188A6
:1018B000FFF796F9A7682046314667B9FFF740FF62
:1018C000B0F10008F6DAFFF7ABF93B4683F3118875
:1018D0004046BDE8F0816369013FA76003F8015B02
:1018E00022696361934224BFE3686361E3690BB1DA
:1018F00020469847FFF794F9002383F31188984610
:101900004046BDE8F08100BFAFF30080AFF3008038
:101910002DE9F047044615460E469946D0F81C803E
:10192000002A40D0202383F31188FFF759F90027BC
:10193000D4F808A020460AF1FF33BAF1000F24D0F2
:10194000A3603178636903F8011B226963619342E4
:1019500024BFE3686361B8F1000F00D0C047FFF710
:101960005FF9002383F311880137013D18D0013658
:10197000202383F31188FFF733F9D4F808A0204619
:101980000AF1FF33BAF1000FDAD120464946FFF7DA
:10199000D7FE0028CCD0FFF743F9534683F31188D4
:1019A0003846BDE8F0870248FFF742FABAE700BFC1
:1019B000145E0008AFF30080AFF30080AFF3008047
:1019C000054B064A064823F00701064B116020F03C
:1019D00007021A60704700BF37180020780E0020F9
:1019E00000500020740E0020AFF30080AFF30080A1
:1019F00010B50446FFF7B4F9074A084913680968A7
:101A0000E01D20F00700C91A884203D8181810609A
:101A1000184610BD002010BD780E0020740E002066
:101A200010B52023044683F31188FFF7D9F8204628
:101A3000FFF7DEFF0446FFF7F3F8002383F3118876
:101A4000204610BDAFF30080AFF30080AFF30080FD
:101A5000024A034910680B68C01A7047740E0020D0
:101A6000780E0020AFF30080AFF30080AFF300806A
:101A7000044B0549002203F1100019609A60DA60F6
:101A8000FFF71EBD800E0020211A0008AFF3008072
:101A9000F8B5204E0731002818BF064606F11000A1
:101AA00021F0070506F10804FFF7A2FD00E01C463F
:101AB0002368F3B15A689542F9D805F108018A42C2
:101AC00014D36FF00707D3F800E0C5EB070C0CEB5D
:101AD00002005F1843F801E0786027605D601C46F3
:101AE00044F8086BFFF794FD2046F8BD1A682260A1
:101AF000F5E7FFF78DFD3468002CF5D005F10800FF
:101B0000A04720B10660456000F10804ECE70446F8
:101B1000EAE700BF800E0020AFF30080AFF3008043
:101B20002DE9F041074600284BD057F8086CA7F183
:101B3000080506F11000FFF75BFD08363446AC429D
:101B400004D86068083023189D4220D3B44204D0E2
:101B5000AC4202D323681C46F1E723680BB19D42D7
:101B6000F9D26A6847F8083C256002F1080357F883
:101B7000080CE91881420ED0636803F1080E04EBEB
:101B80000E0CAC4515D0BDE8F041FFF741BD0F4844
:101B9000FFF74EF9DAE74968EB58521808326A60E5
:101BA00047F8083C636803F1080E04EB0E0CAC45E3
:101BB000E9D16A6857F8080C9B1808336360206005
:101BC000E1E70348FFF734F9AFE700BF505E0008D4
:101BD000405E0008AFF30080AFF30080AFF30080F9
:101BE00038B50E4C0D46002818BF044604F110000D
:101BF000FFF7FEFCA3686BB10022144659681B680E
:101C000052180134002BF9D105B12A60FFF700FD0D
:101C1000204638BD1A461C46F6E700BF800E00205D
:101C200038B504460D46FFF79BF81CB115B115F009
:101C3000070F02D00348FFF7FBF823682B602560ED
:101C400038BD00BF945E0008AFF30080AFF30080A2
:101C500038B505460C46202383F31188FEF7C0FFF4
:101C600028462146FFF7DCFFFEF7DAFF002383F367
:101C7000118838BDAFF30080AFF30080AFF3008070
:101C800010B500F0FDFF00F04BFC064801F038FEF7
:101C900000F00EF800F04CF900F042FDBDE81040F5
:101CA00002F08EBAC0630008AFF30080AFF300808B
:101CB00001F0BEBAAFF30080AFF30080AFF3008055
:101CC00001210023017043600C30FFF7F9BB00BF16
:101CD00038B504460D46D8B1D1B12378581EC2B2EA
:101CE000012A04D9052B02D00B48FFF7A1F82023C5
:101CF00083F31188FEF774FF2046656001F0B0FAA7
:101D000002232370FEF78CFF002383F3118838BD74
:101D10000248FFF78DF8E0E7C05E0008B05E0008FB
:101D200010B50446C8B12378581EC2B2012A04D99E
:101D3000052B02D00B48FFF77BF8202383F3118893
:101D4000FEF74EFF204601F0F3FB01232370FEF760
:101D500067FF002383F3118810BD0348FFF768F87D
:101D6000E1E700BFDC5E0008D05E0008AFF3008052
:101D70002DE9F04784B00446884691461D46DDF8BB
:101D800030A00D9E0E9F08B100292AD11C48FFF7F4
:101D90004FF82378022B02D01A48FFF749F8202386
:101DA00083F31188FEF71CFF00210320A16020703F
:101DB0002B46204641464A46CDF800A001960297A0
:101DC00001F06EFCB0F1FF3F054615D002232370F1
:101DD000FEF726FF002383F31188284604B0BDE8F0
:101DE000F087002BD2D0002AD0D016B1BAF1000F64
:101DF000CCD0002FCDD1C9E705222270E8E700BF83
:101E0000005F0008205F0008AFF30080AFF30080A0
:101E10002DE9F04182B004460F4690461D46089ECB
:101E200008B1002927D11948FFF702F82378022BBF
:101E300002D01748FEF7FCFF202383F31188FEF73A
:101E4000CFFE00210420A16020702B462046394699
:101E50004246009601F094FBB0F1FF3F054611D0D9
:101E600002232370FEF7DCFE002383F3118828464B
:101E700002B0BDE8F081002BD5D0002AD3D0002ECF
:101E8000D4D1D0E705222270ECE700BF405F000804
:101E90005C5F0008AFF30080AFF30080AFF3008019
:101EA000F0B51D4687B004460F461646202383F33F
:101EB0001188FEF795FE0023A36023702B460C9D2E
:101EC000204600950D9D394601950E9D324602959E
:101ED0000F9D0395109D049501F07AFCB0F1FF3F32
:101EE000054609D002212170FEF79AFE002383F3F4
:101EF0001188284607B0F0BD05202070F4E700BF28
:101F000010B590F84210044680F84A1001F018FE0F
:101F100063681B6813B12046012198470320207095
:101F200010BD00BFAFF30080AFF30080AFF30080BF
:101F300001F0D6BDAFF30080AFF30080AFF30080B7
:101F4000002301220270436083608381C381704754
:101F500070B504460D4610B309B3202383F31188EE
:101F6000FEF73EFE2178481EC3B2012B02D90E486F
:101F7000FEF75EFF00262046656026616661A66169
:101F8000E66126626662A662E66201F0B1FD0222A7
:101F90002270FEF745FE334683F3118870BD034877
:101FA000FEF746FFD9E700BFD05F0008C05F00081A
:101FB0002DE9F04104460D461646FEF7D1FE002CF1
:101FC0002AD0002E28D02378042B02D01448FEF704
:101FD0002FFF2F1D54F8270010B11248FEF728FFDD
:101FE000316811F010030FD1726994464CF8043B2C
:101FF0005360CCF80430B069014641F8043B0A1D37
:10200000436042F8043B13602046294644F82760A9
:10201000BDE8F04101F0A4BD0348FEF709FFD2E797
:102020001460000830600008FC5F0008AFF3008017
:1020300070B504460E46FEF793FE9CB1E38953FA51
:1020400006F515F0010501D0012070BD012010FA40
:1020500006F242EA03032046E381314602F038F8F3
:10206000284670BD0148FEF7E3FEE7E784600008FC
:1020700070B504460E46FEF773FE9CB1A38953FA71
:1020800006F515F0010501D0012070BD012010FA00
:1020900006F242EA03032046A381314602F028F803
:1020A000284670BD0148FEF7C3FEE7E79C600008C4
:1020B00010B4002202240470A0F8482080F84A20BE
:1020C00080F84B208281C281026142618261C261DB
:1020D000026242628262C26280F8302010BC01F06B
:1020E000BFBD00BFAFF30080AFF30080AFF300804F
:1020F00000222DE9F041044680F8302000F1400232
:1021000001F0EEFD63689B68002B1FD020469847C6
:10211000E0B1A56B94F84030B4F84600A8423CBF4B
:10212000A063054613F0800F7BD1002D6AD10420F7
:1021300084F83000294620462A462B4601F0B8FF95
:1021400020462946BDE8F04101F0D2BF94F8403066
:1021500013F060061A4612D00021204601F0E8FF75
:102160002046002101F0D4FF6268136813B12046B5
:1021700005219847052384F83030BDE8F08194F8B4
:10218000417003F07F0141EA0727B7F5407F00F077
:10219000A98016DDB7F5C06F00F0CE8060DDB7F521
:1021A000106F00F0B68040F6024C67456BD0B7F573
:1021B000006FD1D1012504F14B006063A563E66394
:1021C000AAE7022F77D059DDB7F5807F62D0B7F547
:1021D000817FC1D194F842000028BDD194F84430E9
:1021E00013F00F0108D013F0800F40F0E08020467C
:1021F00001F0AEFF94F8402000256563A563E56318
:10220000134689E70323002184F830302046626BAF
:102210002B4601F035FF20460021BDE8F04101F0DA
:1022200057BF75B10122002184F830202046626B2F
:102230002B4601F03DFF20460021BDE8F04101F0B2
:1022400057BF022184F83010204629462A462B46E3
:1022500001F016FF20462946BDE8F04101F038BFE5
:1022600040F2023087427CD0B7F5A06F7FF474AFA4
:10227000554D6663E563A66335464DE7002F41D0B3
:10228000012F7FF469AF5149022500226163A563E4
:10229000E26341E794F842E0BEF1010F7FF45CAFE6
:1022A000B4F84810666321F00205A4F84850A6630C
:1022B000E663354630E794F8441011F0800F67D19B
:1022C000204601F00F0101F0EBFC012867D0022845
:1022D0007FF442AF3E4BA0636363E66394F8403003
:1022E000054619E794F8420001287FF435AFB4F8A9
:1022F0004820666342F0020CA4F848C0A663E66377
:10230000354609E7022504F148026263A563E763E5
:1023100002E794F8425084F84B50002D35D1032346
:10232000237060680368002B3FF466AF20460221EB
:10233000984794F840205FE7636820465D6894F80A
:10234000431094F84220B4F84430A84700283FF4E2
:1023500003AF4168056894F840306163A563E663A4
:10236000DAE694F8421000297FF4F6AE94F844308F
:1023700013F00F013FF440AF13F0800F1DD1204642
:1023800001F0C6FE94F8402036E704212170C8E72A
:10239000204601F00F0101F093FC012897D10D4D6B
:1023A000A7636563E66394F840303D46B4E6204693
:1023B00001F0E6FE94F840201EE7204601F0B8FE4A
:1023C00094F8402018E700BF011F0008A05F000834
:1023D000B05F0008F0600008AFF30080AFF300804A
:1023E00090F8303070B5012B044619D0042B10D072
:1023F000002101F09DFE0021204601F089FE616868
:102400000B6813B1204605219847052284F8302037
:1024100070BDC36B03B19847002384F8303070BDA2
:10242000836BB0F846209A4206D90269118AB3FB41
:10243000F1F501FB153575B1002102200A460B4666
:1024400084F83000204601F01BFE20460021BDE844
:10245000704001F03DBE29462A462B4601F028FE79
:1024600020462946BDE8704001F042BEAFF300802F
:1024700090F8303070B5022B044621D0032B11D0D8
:102480000021204601F054FE2046002101F040FECC
:1024900063681B6813B1204605219847052184F81D
:1024A000301070BD002104250A460B4680F83050DC
:1024B00001F0FEFD20460021BDE8704001F018BE8D
:1024C00002699169CB68002BDAD1C36B03B19847DD
:1024D000002084F8300070BDAFF30080AFF30080BF
:1024E00001494B6883607047001000E0AFF3008043
:1024F000084B09495A6883680968D31AC2685B1A8D
:102500009342836004D80269934238BF03617047E5
:10251000C3607047001000E0A00E0020AFF3008001
:1025200010B50B4A86B00B490B4C002301A8019251
:102530004FF0FF3223600393049302910592FFF75B
:10254000CFFF01A802998847039B236006B010BD06
:10255000E1240008F1240008A00E0020AFF3008061
:10256000806BD0F1010038BF00207047AFF30080CE
:102570008069D0F1010038BF00207047AFF30080C0
:1025800070B52023044683F311880026FEF728FB4C
:10259000A568A660FEF744FB334683F311882846FE
:1025A00070BD00BFAFF30080AFF30080AFF30080D9
:1025B0002DE9F0418469D4F8D000D4F84080036854
:1025C000E76B9D89A66B15F0020501D0BDE8F0818F
:1025D000FEF726FB2B4683F31188D4F8D010C7EB07
:1025E0000807BB1B0868E26B012101F0E1FB202317
:1025F00083F31188FEF7F4FAD4F8D00001210068C3
:10260000FFF736FDA268201D42F00806A6602946A5
:102610002646FFF775F8E16B236C56F8300F5A1A0F
:10262000B0426164A263D1D0036823635E60FEF7A9
:102630007FFC8562206BB042F6D1BDE8F08100BF1F
:10264000F8B54469D4F8D0100868C38913F0080FAE
:1026500001D1A56905B1F8BDFEF7E2FA2B4683F377
:102660001188D4F8D060402303213068E26901F07A
:102670005FFB2023064683F31188FEF7B1FAD4F8F6
:10268000D00003210068FFF7D3FCA368201D43F0AE
:102690000407A76029462746FFF732F857F8100FBE
:1026A000E269B842A262A661D5D0016821614F609B
:1026B000FEF73EFC85622069B842F6D1F8BD00BF46
:1026C0001030FFF795B800BFAFF30080AFF3008084
:1026D00010304FF0FF33FFF78BB800BFAFF300802F
:1026E0003030FFF715B900BFAFF30080AFF30080C3
:1026F00030304FF0FF33FFF70BB900BFAFF300806E
:102700001030FFF745B800BFAFF30080AFF3008093
:102710003030FFF7C5B800BFAFF30080AFF30080E3
:10272000704700BFAFF30080AFF30080AFF30080CD
:1027300038B50E4B0546044645F8043B6560002558
:10274000A5600125103004F150014022084B25738B
:10275000FFF70EF804F1300004F190014022054B20
:10276000FFF78EF86462A46438BD00BF40610008C2
:1027700041260008B1250008AFF30080AFF30080C8
:1027800070B504460D46F0B1202383F31188FEF79F
:1027900027FA217B481EC3B2012B02D90C48FEF751
:1027A00047FB2B680222C4F8D0509C602273FEF7CE
:1027B00037FA002383F31188294651F8040BBDE84A
:1027C0007040FFF7C5BB0348FEF732FBDCE700BFF4
:1027D0001061000800610008AFF30080AFF30080D3
:1027E00090F8401001F06003202B01D000207047CA
:1027F00090F84130212B0BD0222B03D0202B07D077
:1028000000207047002242638263C2630120704748
:1028100003490723002241638363C2630120704799
:10282000F8080020AFF30080AFF30080AFF3008022
:10283000F8B5846805460E46202383F31188FEF719
:102840000FFA206CE26BA36B871AFF1A05D1FEF713
:1028500027FA002383F31188F8BDFEF721FA00233D
:1028600083F311883B4628463146E26B01F0A0FA1B
:10287000202383F31188FEF7F3F928463146FFF74A
:10288000F7FBA168201D41F00805A5600021254641
:10289000FEF736FFE36B226C55F8300FD11AA842D1
:1028A0006364A163D3D00026036823635D60FEF7F1
:1028B0003FFB8662206B8542F6D1FEF7F1F90023DB
:1028C00083F31188F8BD00BFAFF30080AFF3008041
:1028D0002DE9F0412023846806460F4683F31188D2
:1028E000FEF7BEF9A56935B1FEF7DAF9002383F3E7
:1028F0001188BDE8F081FEF7D3F92B4683F31188E8
:10290000402330463946E26901F012FA202380461E
:1029100083F31188FEF7A4F930463946FFF788FBA8
:10292000A268201D42F00401A16026462946FEF758
:10293000E7FE56F8100FE369B042A362C4F81880AE
:10294000D2D0036823615E60FEF7F2FA85622069E7
:10295000B042F6D1FEF7A4F9002383F31188BDE855
:10296000F08100BFAFF30080AFF30080AFF30080D1
:10297000704700BFAFF30080AFF30080AFF300807B
:1029800010B5FEF7ADF90848084A03680F2411682E
:10299000546013B1406821409847FEF7C1F9BDE883
:1029A0001040FDF7C5BF00BFA40E0020000002408C
:1029B00010B5FEF795F90848084A8368F0241168B5
:1029C00054601BB1C068C1F303119847FEF7A8F922
:1029D000BDE81040FDF7ACBFA40E0020000002408F
:1029E00010B5FEF77DF90948094A03694FF4706490
:1029F000116854601BB14069C1F303219847FEF789
:102A00008FF9BDE81040FDF793BF00BFA40E002072
:102A100000000240AFF30080AFF30080AFF300800E
:102A200010B5FEF75DF90948094A83694FF470440F
:102A3000116854601BB1C069C1F303319847FEF7B8
:102A40006FF9BDE81040FDF773BF00BFA40E002072
:102A500000000240AFF30080AFF30080AFF30080CE
:102A600010B5FEF73DF90948094A036A4FF470248E
:102A7000116854601BB1406AC1F303419847FEF7E7
:102A80004FF9BDE81040FDF753BF00BFA40E002072
:102A900000000240AFF30080AFF30080AFF300808E
:102AA00010B5FEF71DF90948094A836A4FF470040E
:102AB000116854601BB1C06AC1F303519847FEF717
:102AC0002FF9BDE81040FDF733BF00BFA40E002072
:102AD00000000240AFF30080AFF30080AFF300804E
:102AE00010B5FEF7FDF80948094A036B4FF0706412
:102AF000116854601BB1406BC1F303619847FEF746
:102B00000FF9BDE81040FDF713BF00BFA40E002071
:102B100000000240AFF30080AFF30080AFF300800D
:102B2000124BF0B4D3F800C0DF689E695D6A1C6B7D
:102B3000D86B996C0023CCF800300D4ADFF838C010
:102B40003B601360336093602B601361236093617B
:102B50000360136293621363CCF800300B60054B83
:102B60004FF0FF325A60F0BC704700BFB061000800
:102B7000A40E002000000240DC0E0020AFF3008015
:102B8000F0B5044685B0002833D0667A012505FAF1
:102B900006FC1D4F38681CEA000F26D11B4D4CEA7D
:102BA000000010F07F0F05EBC60C45F83620CCF87E
:102BB0000430386004D0164B5F6947F001065E614F
:102BC000236860681F6827F001051D60267A0F27BB
:102BD00017FA06F6002506601D6042B1A07A0901C9
:102BE000FDF70EFF284605B0F0BD2846FBE710466E
:102BF000F9E70848039102920193FEF719F9019B46
:102C0000029A0399C1E700BFDC0E0020A40E002049
:102C10000010024070610008AFF30080AFF3008045
:102C200038B50446F8B1617A012010FA01F2104D6E
:102C30002B681A4213D0A07AFDF70AFF617A0122AD
:102C400012FA01F3286820EA030212F07F0F2A60CB
:102C500004D1084B596921F00100586138BD06487C
:102C6000FEF7E6F8E7E70548FEF7E2F8DBE700BF26
:102C7000DC0E002000100240906100088061000816
:102C8000224B00224FF0FF3030B421491C6900F57F
:102C90000C3C18611A61DD68D8600CF52070DA60B0
:102CA0001C4C486007208A600860E1681A4841F0BF
:102CB0008071E1600468194944F001040460D86936
:102CC00040F08050D861D86940F00060D861086851
:102CD00040F480700860186A00F44071B1F5407FDC
:102CE00003D04FF4803119621A62084B1A6A12F449
:102CF000004F07D1186A40F440721A62196A41F411
:102D00000040186230BCFFF70BBF00BF001002404C
:102D100010E000E0F0ED00E0001000E00070004086
:102D20001F4B1868194640F001021A600B681C4AD4
:102D300013F0020FFAD01368002003F0F9011160BC
:102D4000114650604868164A10F00C0FFAD110680E
:102D5000114640F4803313600B68114A13F4003FAE
:102D6000FAD05368114643F4E8105060136843F0FA
:102D70008070106008680A4A10F0007FFAD0094895
:102D8000094B1221506019605068114640F002034F
:102D900053604A6802F00C0CBCF1080FF9D170477F
:102DA0000010024000641D0000200240AFF30080CC
:102DB000C26A036B30B40021146848F200051D801C
:102DC00019809980998223680F2123F001032360E1
:102DD000147A836A11FA04F450681A68046014685B
:102DE000586824F0010414601B7A9940016030BCDB
:102DF000704700BFAFF30080AFF30080AFF30080F7
:102E000070B5C46905465CB1FFF7D2FF0020E861E8
:102E10004FF0FF332046A362BDE87040FEF788B84C
:102E200070BD00BFAFF30080AFF30080AFF3008050
:102E300011F0080F38B50546046B01D0FDF738FDD9
:102E4000EB6A1A685968106820F0010010601B7A5C
:102E50000F2010FA03F20A60A18888B240F40073D0
:102E6000A38038BDAFF30080AFF30080AFF30080E4
:102E700011F0080F70B50446056B36D1A66A3268AA
:102E80007168106820F001031360307A0F2212FA83
:102E900000F30B6094F8346006B170BDB5F804E03F
:102EA00020232EF480510804020CAA80B5F800C03B
:102EB0002CF480610804020C2A8029881FFA81FE04
:102EC0004EF4007CA5F800C083F31188FDF7C8FE1E
:102ED000E36923B1E66118469E62FEF729F8FDF723
:102EE000DFFE002383F3118870BDFDF7E1FCC5E729
:102EF0002DE9F041684CFDF7F3FE256B94F8343072
:102F00002A8BAE8AB6B2C3B946EA0242634B22F0BC
:102F10007F429A4274D05CD8581E824203D1B4F8E2
:102F200020C0A5F810C016F00A0F00D02B8BFDF7BB
:102F3000F7FEBDE8F041FDF7FBBC16F00A0F05D027
:102F4000AE8A00232A8BB6B22364236516F0800F65
:102F50000ED0206DA26C216C12F800E0E26C431CD4
:102F60009142A5F810E0236502D34B4B002119656F
:102F700016F0400F0DD0226CB5F810C0A16B531C99
:102F800001F802C0E06B2364834202D3424B00206D
:102F9000186416F0100F0CD0AE8A2988636C1FFAE3
:102FA00081FC4CF0010EB6B2A5F800E00BB13A4836
:102FB000984716F4806FBAD0B5F814E0636D2EF41C
:102FC00080610804020CAA82002BB0D032489847D6
:102FD000ADE7334B9A4232D0991C8A42A3D1A26A00
:102FE00017687F68002F38D02B88B4F820C098B2BB
:102FF0004CF0010140F4A06E2184A5F800E096E7B2
:10300000B5F804C0A26A2CF4007003041268190C0D
:10301000A980106840F001031360A98888B240F4C9
:10302000805EA5F804E05368012B3FF67CAFB5F84D
:1030300000E02EF480621304190C298073E7B5F8C0
:1030400004C0E06A2CF40073190400680A0CAA801A
:10305000036843F00101016065E7B5F804C020236F
:103060002CF400710A04100CA88029881FFA81FE34
:103070004EF400722A8083F31188FDF7F1FDE069B8
:1030800018B18762E761FDF753FFFDF709FE0023E2
:1030900083F3118847E700BFE00E00200200030021
:1030A00082000700AFF30080AFF30080AFF3008031
:1030B0002DE9F0415D4DFDF713FE2C6B202383F3CA
:1030C0001188FDF7CDFDEA6AAB6A1068566807689B
:1030D0000F2127F001070760107A1A6811FA00F033
:1030E00030601668586826F0010616601B7A994011
:1030F0000160FDF7D5FD002383F31188A68A16F43D
:10310000807607D0B4F814C001262CF48072130422
:10311000190CA182B4F814E01EF4007F07D0A28A33
:1031200046F0020622F400731904080CA08295F8F8
:1031300034103E4800293AD1B4F814C01CF4806F12
:1031400041D1A08A10F4006F08D0B4F814E046F022
:1031500008062EF4006211040B0CA382B4F814C00C
:103160001CF4805F07D0A28A46F0100622F480513A
:103170000B04180CA082B4F814E01EF4804F08D0A1
:10318000B4F814C046F020062CF480410B04180C4F
:10319000A082B4F814E00FFA8EF2002A2ADB002E87
:1031A0002ED1FDF7BDFDBDE8F041FDF7C1BBB4F880
:1031B00014C0436D2CF4806211040A0CA282002B0F
:1031C000BFD09847BDE7B4F814E046F004062EF4EB
:1031D00080610A04130CA382B4F804C02CF40070BC
:1031E00001040A0CA280238898B240F4007EA4F85F
:1031F00000E0A6E7A18A46F040064B04580CA082E6
:10320000AE60202383F31188FDF72AFDE86938B109
:10321000064B6FF0010100228162DA61FDF788FE42
:10322000FDF73EFD002383F31188BAE7E00E00208E
:1032300010B5074C2046FEF743FD064B0649A3F1A7
:103240000C020020E0612163A362E26210BD00BFB6
:10325000E00E0020F861000800540040AFF3008049
:1032600002788A23012A2DE9F04104464362056B66
:1032700000F0A1802F464FF09A089C466068E26AF1
:10328000A66A13683168466805F11002C3F8008029
:1032900090F80880C1F800C000208A6048F2000C55
:1032A0004FF41061002E9A60A5F800C02880A98014
:1032B00052DD8B4B9E424FDCB7F804C02CF03F0030
:1032C00001040B0CBB80BA88864990B240F0240CF4
:1032D0008E42A7F804C043DCB8F1010F02D0824847
:1032E000FDF7A6FD8148760090FBF6F106FB01F89C
:1032F0007E4BC8EB0302002A40F0A5807B4A92FB7C
:10330000F6F6B6B2032E40F2948025214FEA065C11
:10331000B6F5805F39844FEA1C5802D37448FDF734
:1033200087FD6268216B1278A7F81C80B1F800C095
:10333000022A1FFA8CF32DD0032A70D0012A03D160
:1033400023F00A0003041B0C0B80288883B243F08F
:1033500001012980BDE8F0816648FDF769FDABE712
:103360006548864224DCA8F10203DAB2012A75D945
:103370006248FDF75DFD48F6FF7862680B20216B1F
:1033800038841278A7F81C80B1F800C0022A1FFA0E
:103390008CF3D1D143F002024FF6F77C02EA0C0322
:1033A0000B80288883B243F001012980BDE8F081B9
:1033B0004FF00008B5E7524EB0427FF45BAF514F7B
:1033C0004FF0000E3B69806A43F40018C7F8108084
:1033D0000A214D4A2346C7F810E0FFF7D1FB002829
:1033E00076D1F06A0A21494A454BFFF7C9FB00280C
:1033F0006AD1444F1F20FB69A02143F40012FA61F7
:10340000FDF7FEFA2020A021FDF7FAFA706A376B6B
:1034100040F4805CC6F824C04CF010082EE743F05E
:103420000A030B80288883B243F001012980BDE89C
:10343000F0813748FDF7FCFC4FEA065825234FEA98
:1034400018583B846DE73348FDF7F2FC274A92FB9E
:10345000F6F6B6B2032E3FF658AFEAE7B8F1020F20
:1034600016D1224A06EB460692FBF6FC06FB0CF848
:103470001E48C8EB000139B91C4890FBF6F631052F
:103480000B0D43F4004878E72348FDF7D1FCF3E740
:10349000B8F1030F20D106EB8606144906EB860629
:1034A00091FBF6FC06FB0CF8104BC8EB03023AB993
:1034B0000E4991FBF6F31A05100D40F440485CE705
:1034C0001648FDF7B5FCF3E71548FDF7B1FC90E7AA
:1034D0001448FDF7ADFC84E748F6FF784DE700BFE0
:1034E00000093D00A086010050620008005125023D
:1034F000E062000838620008801A0600986200083E
:10350000E00E002000100240712E0008312E00084D
:103510008062000868620008B0620008C8620008A3
:103520002462000810620008AFF30080AFF300804F
:10353000037810B5012B04460AD0FFF739FCE06A86
:10354000FFF76EFBA06AFFF76BFB0848844200D0D0
:1035500010BD1F20FDF77CFA2020FDF779FA044901
:10356000CB6923F40012CA61F2E700BFE00E00202D
:1035700000100240AFF30080AFF30080AFF3008093
:103580002DE9F043012B87B006461F468846914639
:103590000E9D046B73D9B5F1FF3F05D001A82946F4
:1035A000394A3346FDF75CFCFDF73AFB002383F311
:1035B0001188B06A4FEA4808026848F00108A6F886
:1035C0002080B360C2F80C90576004E0FDF728FB40
:1035D000002383F31188218B202311F0020F03D1E4
:1035E000278817F400770CD083F31188FDF7F8FAD9
:1035F000B5F1FF3FEAD0049B002BE7D14FF0FF303D
:103600001CE083F31188FDF7EBFAB5F1FF3F18D109
:1036100086F83470A3881D4D9AB242F40071A180DF
:103620002088EB691FFA80FE4EF4A06CA4F800C05D
:103630000220F361FDF7BCFCE869806A07B0BDE8D1
:10364000F083049A002AD9D086F83470A3880F4DED
:1036500099B241F40070A0802288EB691FFA82FEC3
:103660004EF4A06CA4F800C00220F361FDF7A0FCAA
:1036700004990029E0D001A8FDF722FCDCE704480A
:10368000FDF7D6FB87E700BF012E0008540E00208F
:10369000F8620008AFF30080AFF30080AFF3008062
:1036A0002DE9F04F87B0119F0646884691469A460D
:1036B000DDF840B0129D046B27B1012F5DD9BBF13D
:1036C000000F5AD0B5F1FF3F05D001A829463C4A6A
:1036D0003346FDF7C5FBFDF7A3FA002383F31188FA
:1036E000F26AB06A116802684FEA4808A6F82080BA
:1036F000B360C1F80C90C1F804A0C2F80CB05760D8
:1037000004E0FDF78DFA002383F31188B4F818C0A4
:1037100020231CF0020F03D1278817F400770CD068
:1037200083F31188FDF75CFAB5F1FF3FE9D0049B04
:10373000002BE6D14FF0FF301CE083F31188FDF73A
:103740004FFAB5F1FF3F1CD186F83470A3881D4DA8
:1037500099B241F4007CA4F804C02288EB6990B2CD
:1037600040F4807EA4F800E00220F361FDF720FC25
:10377000E869806A07B0BDE8F08F1348FDF758FB91
:10378000A0E704990029D5D086F83470A1880D4DA2
:103790008AB242F40070A0802388E9691FFA83FC92
:1037A0004CF4807EA4F800E00220F161FDF700FCFB
:1037B000049A002ADCD001A8FDF782FBD8E700BFFD
:1037C000012E0008540E00201C630008AFF3008097
:1037D0002DE9F04F464F87B0149DFC69B5F1FF3FCE
:1037E000C4610646884691469A46046B05D001A8F6
:1037F0002946404A3346FDF733FBFDF711FA002313
:1038000083F3118804E0FDF70BFA002383F311889A
:10381000228B202312F0020F03D1208810F4007FA6
:103820000ED083F31188FDF7DBF9B5F1FF3FEAD045
:10383000049B002BE7D14FF0FF3007B0BDE8F08FBD
:1038400083F31188FDF7CCF9B5F1FF3F49D1012091
:1038500086F83400B4F800C0129B2CF480727364B4
:1038600011041098119A139B4FF0000B090C4FEAAA
:103870004808A6F82080B064F2647365C6F808B002
:10388000C6F83890C6F83CA0C6F840B0C6F850B0AC
:103890002180B4F804E008F0FE082EF40060020471
:1038A000130CA380A4F80880B4F804C0FB691FFAC5
:1038B0008CF141F4C060A0802288B5F1FF3F1FFA6F
:1038C00082FE4EF4806CA4F800C0F36107D0049827
:1038D0000028B2D001A8FDF7F3FA5846ADE75846E4
:1038E000ABE704990029B2D14FF0FF30A5E700BF44
:1038F000540E0020012E0008AFF30080AFF30080CB
:10390000154B30B49A69154D42F07D049C610168F5
:10391000134CE960826813496A604368124A2B605D
:10392000C568124BE5604569656005692560846975
:10393000CC60046A4C60C4690C60416AD160C16AA1
:103940005160816A1160026BDA60816B5960426B71
:103950001A6030BC704700BF0010024000080140F0
:10396000000C01400010014000140140001801400B
:10397000032AF0B400F09A80042A08BF41614C4B3E
:1039800011F080079B5C40F088800F2411F4004503
:1039900040F089800F264A002401360139012D01AB
:1039A00012F0800F14BF194344F00F0412F4004FBB
:1039B00014BF1D4346F00F065200240136010901D1
:1039C0002D0112F0800F14BF194344F00F0412F4BC
:1039D000004F14BF1D4346F00F065200240136016C
:1039E00009012D0112F0800F14BF194344F00F0498
:1039F00012F4004F14BF1D4346F00F06520024017D
:103A0000360109012D0112F0800F14BF194344F053
:103A10000F0412F4004F14BF1D4346F00F0652006E
:103A20002401360109012D0112F0800F14BF194342
:103A300044F00F0412F4004F14BF1D4346F00F066C
:103A400052002401360109012D0112F0800F14BF2C
:103A5000194344F00F0412F4004F14BF1D4346F005
:103A60000F0652002401360109012D0112F0800FCA
:103A700014BF194344F00F0412F4004F18BF1D4344
:103A8000436808BF46F00F061E4035434560026894
:103A9000144021430160F0BC7047002411F400453C
:103AA0001F463FF477AF1D46002674E7016166E7C5
:103AB00040630008AFF30080AFF30080AFF30080F5
:103AC00010B5FDF70DF9FDF72BF9BDE81040FCF737
:103AD0002FBF00BFAFF30080AFF30080AFF30080D3
:103AE0000148FEF72DBA00BF380F0020AFF3008069
:103AF000037870B5012B044600D070BD0C4A90428B
:103B000004D02046BDE87040FEF7D2BA094A0A4DFB
:103B1000D669132046F40006D66160212B64FCF7B9
:103B20006FFF1420E021FCF76BFF00232B64E8E714
:103B3000380F002000100240005C0040AFF300800E
:103B400090F84A00024B40F08002DA64704700BFF0
:103B5000005C0040AFF30080AFF30080AFF3008063
:103B60000A1D2DE9F04150F822400546226802F076
:103B70000303013B022B96BF36484FF4007330F825
:103B80001330A06808B143F02003E66866B112F074
:103B9000100F55D0012010FA01F2B5F80E8043F451
:103BA000405342EA0807EF8143EA010C2A4F2CF404
:103BB000F04626F0700047F8210047F6700857F8E5
:103BC000212003EA080C638A8CEA02063E2B47F8A0
:103BD00021602BD95F1E47F01F06701C42116FEA4F
:103BE000C2676FEA57421C4ED5F84C80306DB4F86E
:103BF00010C000F1005707F5405606EBC1000CEB72
:103C0000080647000021B6F5007FB980BA81EE644E
:103C100019D89B19B3F5007FC7F80080EB6402D96F
:103C20000E48FDF705F9BE60BDE8F0815A1E42F06E
:103C300001077E1C06EBD670420202F47C42D2E7FA
:103C400043F40053B0E70548FDF7F2F8638AEE6CE1
:103C5000DFE700BF60630008005C0040906300087D
:103C6000416830B40A4BCD6800241C65A54214BFDE
:103C70004FF41E454FF41C455C6421468024DC64EF
:103C80001D64044B4022C264036130BCFFF768BF6F
:103C9000005C0040A0630008AFF30080AFF3008039
:103CA000054B53F8210010F4405004D0B0F5805F6C
:103CB0000CBF012002207047005C0040AFF3008081
:103CC000054B53F8211001F03003102B9ABF034A23
:103CD000D05C0220704700BF005C004070630008A9
:103CE0000F4B10B41C6D134604F1005000F5405CFE
:103CF0000CEBC1046100886800F1005C0CF54054D5
:103D000061008C465CF8044B888823F8024BBCF8B1
:103D100008105080BCF8042099805A8010BC70476D
:103D2000005C0040AFF30080AFF30080AFF3008091
:103D30001B48F0B4006D00F1005000F5405C0CEB46
:103D4000C1014800816880898005800D834228BFB9
:103D5000034601335B0820D001F1005101F54055C5
:103D600069005C1E51F8045B234622F8025B04F0F4
:103D7000010493B12CB151F8044B013B22F8024BE2
:103D80000BD00D4655F8047B4E68144624F8027B90
:103D9000291D5680A21C023BF3D1F0BC704700BF26
:103DA000005C0040AFF30080AFF30080AFF3008011
:103DB000184870B4046D04F1005000F5405C0CEB41
:103DC000C104591C600049080468838020D004F1B4
:103DD000005C01390CF5405332F8020B5C000B46D5
:103DE00044F8040B01F0010193B129B132F8021B30
:103DF000013B44F8041B0BD0104630F8026B558889
:103E0000214641F8046B821C65600C1D023BF3D116
:103E100070BC7047005C0040AFF30080AFF30080DF
:103E20002DE9F04F81B0FCF75BFF904B5C6C14F414
:103E3000806F40F00C8114F4006F0ED08C488B4AD8
:103E40004368116C1B6841F0080111640BB1032138
:103E50009847864A6FF40060506414F4805F09D07C
:103E6000824A916C11F4004F00F0E4807F4A6FF4B5
:103E70008050506414F4007F08D07D484368DB68AC
:103E800003B1984779486FF40071416414F4004F0E
:103E900000F0A480DFF8D891744DCA4613E00120E9
:103EA00010FA04F1B9F80EE059F828302EEA010CA6
:103EB000A9F80EC0DA686E48214690476C6C14F47D
:103EC000004F00F08B8004F00F0455F8246004F1DB
:103ED000040816F0800F59F828703AD055F82410CD
:103EE00021F4F04C2CF0F00345F824303A6812F03D
:103EF000100F7AD12B6D796903F1005202F5405E03
:103F00000EEBC4004300B3F804C00A688868D1F817
:103F100004E01FFA8CF3D218C018C3EB0E030A603A
:103F200088604B60002B60D0B7F810E05FFA84FB2C
:103F30004F485946734528BF7346FFF739FF55F878
:103F40002B2022F4F04020F0400C8CF0300145F89A
:103F50002B1016F4004FB1D055F8241016F4006F52
:103F600021F4784E2EF0700345F824304BD1386898
:103F700010F0100F93D1BB69E6B25A6831469B68C6
:103F80003B48FFF7D5FEBB6955F826E01A885F6805
:103F9000D968D3F808C02EF4904E2EF0700E013A76
:103FA0003F1809188EF4405EC0EB0C0092B245F841
:103FB00026E05F60D96098601A80002A2AD055F800
:103FC000242022F4904121F0700C8CF4405045F8EC
:103FD00024006C6C14F4004F7FF475AFFCF7A0FE66
:103FE00001B0BDE8F04FFCF7A3BC012212FA04F0C7
:103FF000BAF80CC0BB682CEA0001AAF80C101C48E7
:1040000021469847A5E759F8283019485A682146AB
:10401000904753E7012111FA04F0BAF80EC05AF89C
:1040200028302CEA000EAAF80EE0DC681048314671
:10403000A04743E70E48116C436821F008011B6854
:104040001164002B3FF412AF042198470EE7084D8E
:104050002846FEF72DF86868036813B1284600214A
:10406000984702496FF480624A64E4E6005C0040CD
:10407000380F0020AFF30080AFF30080AFF3008073
:10408000043150F821108869426000228360C260C8
:104090003BB14A8A511EC918B1FBF2FCA0F800C01E
:1040A0007047012303807047AFF30080AFF30080B7
:1040B00070B40D1D50F8254000266569248A6B6098
:1040C000A34228BF23462A60AE6070BCFFF770BED3
:1040D000054B53F8212022F4904C2CF0700080F412
:1040E000405243F821207047005C0040AFF300804D
:1040F000054B53F8212022F4F04C2CF0400080F0C6
:10410000300243F821207047005C0040AFF300808C
:10411000054B53F8212022F4904C2CF0700080F4D1
:10412000805243F821207047005C0040AFF30080CC
:10413000054B53F8212022F4F04C2CF0400080F085
:10414000100243F821207047005C0040AFF300806C
:10415000094B53F8210000F44052B2F5405F09D0FA
:1041600053F8212022F4F04020F0400C8CF400524F
:1041700043F82120704700BF005C0040AFF300808F
:10418000084B53F8210000F03002302A09D053F8D0
:10419000212022F4F04020F0400C8CF0200243F863
:1041A00021207047005C0040AFF30080AFF3008037
:1041B000FEF7B6BDAFF30080AFF30080AFF3008031
:1041C000704700BFAFF30080AFF30080AFF3008013
:1041D000002903DD0449054A00F06ABA044B054989
:1041E000DA6800F065BA00BF006400080C640008DB
:1041F000440E002014640008AFF30080AFF3008089
:1042000010B5002982B0044606DD1949194A02B0EA
:10421000BDE8104000F04CBA1749184A00F048FABF
:1042200020461749174A00F043FA20461649174A14
:1042300000F03EFA20461649164A00F039FA2046A8
:104240001549164A00F034FA20461549154A00F07F
:104250002FFA20461449154A00F02AFA2046144C39
:104260001449154A154B009400F022FA02B010BD13
:10427000006400081C640008246400083864000816
:104280004064000854640008606400087464000816
:104290007C640008906400089C640008B064000816
:1042A000C8640008DC64000804650008186500089C
:1042B000546500082C650008446500085065000836
:1042C0000A6838B5054642B10C462846034900F055
:1042D000EFF954F8082F002AF7D138BD60650008BF
:1042E0002DE9F041054600680C4616469846A8B1EF
:1042F0002F4602E057F8080F68B13146FBF700FF80
:1043000005460028F6D120467E684146069AB04709
:104310002846BDE8F0810120BDE8F0810120BDE81C
:10432000F08100BFAFF30080AFF30080AFF30080F7
:1043300038B504460D46A8B108600D492046FBF784
:104340008FFF241820462021FBF702FF286018B1B8
:10435000002300F8013B28602078002814BF204685
:10436000002038BD0C68002CE7D1204638BD00BFC6
:10437000B0590008AFF30080AFF30080AFF30080C6
:10438000014B1B60704700BF980F0020AFF3008007
:1043900000B583B00090034B0020FDF719F803B07F
:1043A00000BD00BF61440008AFF30080AFF30080A0
:1043B000013A2DE9F843884605460F4601EB02090C
:1043C000296828464B694FF0FF31984704B2002C0A
:1043D00006462CDB042C2DD0082C0FD00D2C30D011
:1043E0001F2CEDDD4F45EBD2296828460C694FF0B4
:1043F000FF32F1B2A04707F8016BE1E74745DFD094
:104400002B6821461E694FF0FF322846B0472868C6
:10441000202103694FF0FF32284698472A68284632
:10442000166921464FF0FF32B047013FC8E701202F
:10443000BDE8F8832846074900F03AF90120BDE8B5
:10444000F8832846044900F033F900203870BDE8AD
:10445000F88300BF64650008A46A0008AFF3008019
:104460002DE9F04365490468CB69654AD0F80480BA
:1044700099B020469A61634900F01AF94FF000099B
:104480002046614900F014F9204602A94022FFF7B6
:104490008FFF064600283BD117A902A8FFF748FF67
:1044A00017A905463046FFF743FF0346002843D0CF
:1044B000304617A91293FFF73BFF034600285ED052
:1044C000304617A91393FFF733FF0346002858D04F
:1044D000304617A91493FFF72BFF0346002852D04C
:1044E000304617A91593FFF723FF00284DD020462B
:1044F000464900F0DDF820464349169600F0D8F80A
:10450000204602A94022FFF753FF06460028C3D0E9
:1045100020463F4900F0CCF8202383F31188FCF7B4
:104520005FFB00213B48FDF7EBF80020FCF7D8FECD
:10453000002019B0BDE8F08306460DF1600C0CEBCD
:10454000860040F8189C002D9AD028463249FBF787
:10455000D7FD38B9002EDFD0204630492E4A00F072
:10456000A7F88DE728462E49FBF7CAFD78B9002E3B
:1045700030D0204629492A4A00F09AF880E70126DF
:10458000DBE70226D9E70326D7E70426D5E712AFF3
:10459000244821462A4633460097FFF7A1FE00280B
:1045A0003FF46EAFB8F1000F0AD03346404612AE6A
:1045B00021462A460096FFF793FE00283FF460AF9D
:1045C000204619492A4600F073F82046174900F0A2
:1045D0006FF855E71649204600F06AF82046114961
:1045E000FFF76EFEB8F1000F03D020464146FFF7FB
:1045F00067FE20460F4900F05BF841E7540E0020AB
:104600006865000870650008886500089C650008FA
:1046100090650008980F0020B46500080064000849
:10462000BC65000800090020DC650008E0650008A2
:10463000C4650008A46A0008AFF30080AFF30080EF
:1046400070B400F10B0600F10A04B1FBF2F502FBB5
:10465000151101F13003392BC8BF01F13703294689
:10466000254604F801390029EFD10446C5EB060CB4
:10467000E2436044121812F0010F29460AD004F8F0
:10468000013B11F8013F05E011F8013F637011F89B
:10469000013F541C224602F8013B8242F4D170BC17
:1046A000704700BFAFF30080AFF30080AFF300802E
:1046B0000EB42DE9F04F84B00DAB53F8044BDFF886
:1046C00090B305460393217859B1013425290DD0C3
:1046D0002A68284613694FF0FF329847217800294D
:1046E000F3D104B0BDE8F04F03B0704723782D2B11
:1046F00000F0868100262E2B06BF14F8013F4FF0F4
:1047000030084FF020080398611C4FF0000A07E0C2
:10471000027804300AEB8A0A11F8013B02EB4A0ADC
:10472000A3F13004E2B2092A0C46F3D92A2BEFD0C8
:104730002E2B039000F050814FF0000C6C2B00F0FA
:1047400045814C2B00F04281A3F14100C1B21929EF
:104750008CBF00210121A3F14407342F00F21981FD
:10476000DFE817F0240117011701170117011701DE
:10477000170117011701170117011C011701170174
:104780001701170117013201170117010C01170159
:104790001701170117011701170117011701170159
:1047A0001701C30024011701170117011701170191
:1047B000170117011701170117011C011701170134
:1047C0001701350017013201170117010C01039B76
:1047D00047F6FF781F681A1D0392002F08BF5F4637
:1047E0003878BCF1000F08BFC446002800F02B81C8
:1047F000781CC14384447A7801EB0C0909F001016B
:10480000431C92B1634510D021B1184613F8012B17
:104810004AB90AE01A4612F8011B184629B159781C
:104820001046531C09B16345F4D1C7EB0009C9EB2D
:104830000A0C4FF020082CEAEC7A002E67D0B9F170
:10484000000F28DD3E462A68F843B94416F8011BDC
:1048500009EB0007136928464FF0FF3298474E4591
:1048600007F0010717D01FB12B6816F8011B0BE0EA
:104870002868374617F8011B03694FF0FF322846B6
:1048800098472B6871787E1C1B6928464FF0FF32D1
:1048900098474E45ECD1BAF1000F3FF414AF2E68A3
:1048A0000AF1FF3C33692846664641464FF0FF3225
:1048B0000CF001079847002E3FF405AF1FB12A689E
:1048C000284613690AE02868414603694FF0FF3221
:1048D000284698472968013E0B69284641464FF013
:1048E000FF329847013EEED1EDE6039900AF0A682A
:1048F0000B1D4FF0200803938DF80020781CC7EBA8
:104900000009C9EB0A0C2CEAEC7A002E97D1CAF107
:10491000000ABAF1000F92D039782D2900F0858075
:1049200029686FEA0A0E0B69284641464FF0FF32AC
:104930000EF0010698471AF1010A80D056B1296895
:1049400028460B694FF0FF32414698471AF1010A99
:104950003FF475AF2868414603694FF0FF3228469F
:10496000984728680AF1010A0369414628464FF032
:10497000FF3298471AF1010AECD160E7102281B1A9
:10498000039B191D039119686846FFF759FE6F468E
:10499000B5E700AF8DF80030781CB0E70822002999
:1049A000EED10398071D01680397EDE700292FD189
:1049B000039B19681A1D002903922FDB68460A22FF
:1049C000FFF73EFE6F469AE70A22D8E72278EAB15F
:1049D000013413460121BEE64FF0000C0C4614F8DA
:1049E000013B0CEB8C07A3F13001CAB2092A214626
:1049F00003D92A2B08D10278043002EB470CEDE7EB
:104A000014F8013F012676E6039097E60121A2E61D
:104A1000039F3968381D00290390CFDA2D2000AF9D
:104A20008DF800004942781CC9E7B8F1300F7FF4D7
:104A300077AF2A68284616694FF0FF32B047013732
:104A400009F1FF396CE738464FF0200857E700BFFF
:104A5000F0650008AFF30080AFF30080AFF3008093
:104A600008B5FDF70DF9FCF73BF800F019FF07203A
:104A700000F04EFF00F0E4F900F0D2FA00F028FB5D
:104A800000F0B6F800F0DCF87D20FCF711FCF9E747
:104A9000022906D0032906D00748012918BF0020A3
:104AA000704706487047032A03D8054800EBC20048
:104AB00070470020704700BFE0690008706600087A
:104AC000A0690008AFF30080AFF30080AFF300806F
:104AD000F0B5002985B0054605DD144905B0BDE8EF
:104AE000F040FFF7E5BD1249FFF7E2FDFCF7A8FC37
:104AF000104E0446A168E368676A009194F82200AA
:104B00000D49421E019294F82000224656F820E0FA
:104B10002846CDF808E00397FFF7CAFD2046FCF7CA
:104B2000A7FC04460028E5D105B0F0BDF0660008FA
:104B3000046700088068000834670008AFF300804D
:104B400030B5002983B0044604DD0E49FFF7B0FDFF
:104B500003B030BD01A90020FDF742F80546FCF77F
:104B600077FF094902462046FFF7A2FD20462A4664
:104B70000649FFF79DFD20460549019AFFF798FD7C
:104B8000E6E700BF54670008646700088467000810
:104B90009C670008AFF30080AFF30080AFF30080A4
:104BA000022938B50C46054618D1202383F3118815
:104BB000FCF756F828460121094AFDF7F9F928467D
:104BC0002146084AFDF7F4F928460321064AFDF775
:104BD000EFF9FCF765F8002383F3118838BD00BFB7
:104BE0000066000880660008E0680008AFF30080F7
:104BF00070B50F4C4FF400750622294620460D4E25
:104C00006561FEF7B5FE4FF4FA70FCF751FB3046D4
:104C1000FDF78EFD30460849FDF7B2FD20462946D6
:104C200006222561FEF7A4FEBDE87040FFF7A8BB91
:104C3000000801409C0F0020C0690008AFF300800D
:104C400010B50E4C206850B190F820C0BCF10E0F8A
:104C500000D010BDFCF77CFB0020206010BD084B8D
:104C6000D3F8D02011680B78042BEDD105484FF410
:104C70004B614022FFF78CFB206010BD70100020BC
:104C80009C0F002000690008AFF30080AFF30080A4
:104C900061482DE9F84F614AC369614C614FDFF803
:104CA0009491DFF89481DFF894A15F4D9A61012619
:104CB0000520FCF7FDFA00226E612280B4F800B0F6
:104CC0001FFA8BF11F290AD800BF2088431C2380BC
:104CD000B4F800E01FFA8EFCBCF11F0FF4D92E616E
:104CE000002302E000BF2288531C2380B4F800B0E8
:104CF0001FFA8BF11F29F5D9022000236861238058
:104D0000B4F800E01FFA8EFCBCF11F0F09D800BFF9
:104D100023885A1C2280B4F800B01FFA8BF11F2997
:104D2000F5D900203860C9F80060A8F800003246C4
:104D300010214FF0040CC5F810C0002302E000BFA2
:104D4000238801332380B4F800B01FFA8BFEBEF134
:104D50001F0FF4D90023D5F808E023802388CEF371
:104D6000C00E9BB2BEF1000F14BF93464FF0000B74
:104D700052001F2B584409D800BF238801332380D9
:104D800023881FFA83FBBBF11F0FF5D9C5F814C0A8
:104D9000002302E000BF23880133238023881FFA09
:104DA00083FBBBF11F0FF5D9013989B20029C2D1AC
:104DB00004232B612180B4F800B038601FFA8BFC0B
:104DC0001020BCF11F0FC9F80020A8F80000AAF8B5
:104DD00000E009D800BF2088411C2180B4F800E021
:104DE0001FFA8EF21F2AF5D902232B61002302E05D
:104DF00000BF2288531C2380B4F800B01FFA8BFC3C
:104E0000BCF11F0FF4D90948FCF7F2FB38680849D8
:104E10000860FCF7FDFB4BE7540E0020F06900082A
:104E2000901000204812002000080140741000205B
:104E30008C1000204C1200209210002088100020BE
:104E400070B5154C82B0082120460222FEF790FD75
:104E500002260123042523611946266106222046E5
:104E60002561FEF785FD204631460622FEF780FDCE
:104E7000294606222046FEF77BFD0848FCF720FB6A
:104E800000244FF4D8714022054B06480094FCF7EB
:104E9000C7F902B070BD00BF0008014074100020C7
:104EA000914C000898100020AFF30080AFF3008011
:104EB00010B50548FCF79CFB0448054C03682360CB
:104EC000FCF7A6FB206810BD741000208C10002099
:104ED00084100020AFF30080AFF30080AFF30080B8
:104EE00044482DE9F84F444AC369DFF82491434E02
:104EF000DFF820A1424CDFF82081424F424D9A61F9
:104F0000CB460120FCF7D4F94048FCF771FBDAF8F6
:104F100000203260FCF77CFBD6F800E0D9F80010E6
:104F20008E45EED020210020696120802388CBF8B7
:104F300000E01FFA83FCBCF11F0F09D800BF2088D6
:104F4000431C2380B4F800C01FFA8CF21F2AF5D945
:104F500040212961002302E000BF23880133238020
:104F6000B4F800C01FFA8CF21F2AF5D91F204FF0A9
:104F7000004220213880C8F8002008464FF0800CFD
:104F80006861002302E000BF238801332380238867
:104F90009BB21F2BF7D912EA0E0F14BFC5F810C031
:104FA000C5F814C0002302E000BF2388013323802A
:104FB00023889BB21F2BF7D92861002302E000BF92
:104FC00023880133238023889BB21F2BF7D9013913
:104FD00089B252080029D3D1C8F800204FF0FF321F
:104FE0003A80BEF1000F02D010232B6189E7102018
:104FF000686186E7540E0020006A000868120020ED
:10500000641200206C1200200008014050120020A1
:10501000701200202814002060120020AFF30080DE
:10502000F0B5164C1023402520278026636183B0FD
:10503000194625610622276120462661FEF798FC65
:10504000204629460622FEF793FC204639460622D2
:10505000FEF78EFC314606222046FEF789FC084802
:10506000FCF72EFA00244FF4D8712A46054B064867
:105070000094FCF7D5F803B0F0BD00BF0008014074
:1050800050120020E14E000878120020AFF300809B
:1050900010B504460448FCF7ABFA044B1C60BDE8AD
:1050A0001040FCF7B5BA00BF5012002028140020B1
:1050B000042000F05DBC00BFAFF30080AFF30080C0
:1050C000022000F055BC00BFAFF30080AFF30080BA
:1050D00030B51F4C83B0022220464FF40041FEF74A
:1050E00047FC1C4D204602224FF48041FEF740FC55
:1050F000204602224FF40051FEF73AFC40211122D3
:105100002846FEF735FC112280212846FEF730FCA8
:105110003220FCF7CDF8FCF7CBFD0F490F48FCF728
:10512000D7FD0F490F4A104B00240C6014601C601F
:105130004C6054605C600D48FCF7C2F94FF4D871C4
:1051400040220B4B0B480094FCF76AF803B030BDCB
:1051500000100140000C0140106A0008E00E002021
:105160002C160020401600201016002000160020EB
:10517000C153000850140020AFF30080AFF300804B
:1051800070B5044605480D46FCF732FA044850F85D
:1051900024302B60BDE87040FCF73ABA00160020BE
:1051A00010160020AFF30080AFF30080AFF3008053
:1051B00070B5044605480D46FCF71AFA2A68044BF8
:1051C00043F82420BDE87040FCF722BA0016002006
:1051D00040160020AFF30080AFF30080AFF30080F3
:1051E000F0B5002483B0E7B2064601A93846FFF7C0
:1051F000C7FF0125304613499FB1022F16D0019AEF
:10520000FFF756FA6BB2022B15DC0134E7B23846D1
:1052100001A90135FFF7B4FFEDB230460949002F6F
:10522000EBD10949019AFFF743FAEEE73046074907
:10523000019AFFF73DFA30460549FFF739FA03B006
:10524000F0BD00BF2C6A0008206A0008286A000828
:10525000306A0008AFF30080AFF30080AFF3008046
:1052600070B5022982B0044616461FDD1068FAF7B1
:105270003FFF02AD45F8040D29460020FFF798FFD7
:105280007068FAF735FF294601900120FFF790FF7B
:10529000B068FAF72DFF294601900220FFF788FF3A
:1052A00020460449FFF704FA02B070BD0249FFF737
:1052B000FFF9F9E7546A00083C6A0008AFF3008080
:1052C000F0B5334C85B03348FCF792F9324D207875
:1052D0002870FCF79DF92B78012B01D005B0F0BDAB
:1052E0002E492F4D0B7896272F60002B1ED12D486D
:1052F00003788BB12E682C4D2C4829782C4A0096C7
:10530000FCF786FD2B4D286000282AD1042000F0F0
:105310000FFB296800292CD11E48FCF769F90022EF
:10532000227005B0BDE8F040FCF772B91E4A4FF09C
:10533000000E11781D48204ACDF800E0CDF804E0B9
:105340000297FCF715FD1B4E306070B9022000F08B
:10535000EFFA3368002BCAD00E48FCF749F9022354
:105360000BE0072000F0D4FAD3E7072000F0D0FAD2
:10537000EFE70848FCF73CF903232370FCF748F9F2
:105380000A480E4905B0BDE8F040FCF7A1BC00BFDB
:1053900064160020001600202C1400204814002061
:1053A0005C1600204114002018090020E00E0020A7
:1053B000301400201C1600204C160020106A000833
:1053C0002DE9F04F8848894AC36989B00A209A615B
:1053D000FBF76EFF864E874F874CDFF834A2DFF86D
:1053E0004882DFF84892854DDFF844B284488368EC
:1053F00081688268C1F3803CC2F34031880040EA92
:105400004C0EC3F3C0324EEA0201C84310F007014C
:105410007C4A14BF4FF0000C4FF0010C82F800C022
:105420000A2360460791C8F8003000F071FA754908
:105430000A780799002A00F092807348FCF7D8F8A0
:10544000FFF736FD714A1060D9F80000FFF720FE23
:10545000FCF7DEF800233B703AE0FCF7C9F8654A38
:10546000654992F900300A686949581C41F82020C2
:10547000FCF7CEF8022000F05BFA97F90010D8F89C
:1054800000C0481C81B20423594A6248CDF800C0CC
:10549000FCF7BEFC0346CBF800300720002B44D1BC
:1054A000042000F045FA5848FCF7A2F85148326849
:1054B00090F9001055484B1C40F82320FCF7A8F841
:1054C0003B785A1C4FFA82FEBEF1010F3A7040DC65
:1054D0004D48FCF78DF897F90000411C59F8212040
:1054E0005AF8213022602B60FCF792F82168286876
:1054F000414A8142C1D03F4BD8F800C093F9000027
:105500004FF0000E411C042389B24248CDF800E060
:10551000CDF804E0CDF808C0FCF72AFC0346CBF830
:1055200000303948002B98D0072000F0F1F93948B5
:10553000FCF7F6FB0520FBF7BBFE36483649FCF7C7
:10554000C7FB3B785A1C4FFA82FEBEF1010F3A703E
:10555000BEDDFFF7B5FE0520FBF7AAFE46E72F4F9D
:10556000DFF8CC903970FFF7A3FC4FF0040A3060ED
:105570001F4F2A49D8F800C009780097284F1F4AC2
:105580000297284F53462348CDF804A00397CDF83F
:1055900010C0FCF785FCCBF80000C0B9002000F07B
:1055A000B7F90520FBF784FEFFF782FC202320607B
:1055B00083F31188FBF714FB22683260FBF730FBA2
:1055C000002383F311882868FFF762FDE9E711489B
:1055D0001149FCF77DFB072000F09AF9D9F800008B
:1055E0000028C5D1DAE700BF540E0020606A000829
:1055F0003C160020651600204C14002044140020A6
:10560000001001403916002000160020101600205E
:105610002C160020E00E0020106A00082916002039
:10562000C1500008B1500008241600204016002088
:1056300060160020AFF30080AFF30080AFF300806E
:1056400010B504460448FBF7D3FF044B1C70BDE8BB
:105650001040FBF7DDBF00BF0016002064160020DD
:1056600010B50548FBF7C4FF0448054C03782370C8
:10567000FBF7CEFF207810BD001600206416002036
:1056800021160020AFF30080AFF30080AFF300805D
:10569000002910B504460ADD1068FAF729FD064B0B
:1056A000064918702046BDE81040FFF701B80449CC
:1056B000BDE81040FEF7FCBF18090020646A00082E
:1056C000746A0008AFF30080AFF30080AFF300808E
:1056D0002DE9F047B1F100080446154624DD1068B5
:1056E000FAF706FD134F144E0023B8F10108387085
:1056F000337013D0DFF84C90581C55F82000FAF79F
:10570000F7FC327897F800C0531CDBB202EB0C01B7
:10571000CAB2434509F802003370EDDB0749204661
:10572000BDE8F047FEF7C4BF0549BDE8F047FEF706
:10573000BFBF00BF2816002020160020886A00087E
:105740003C6A00084C160020AFF30080AFF30080E5
:1057500001292DE9F0410546164614DD1068FAF7D7
:10576000C7FC0B4F0B4C38707068FAF7C1FC207007
:105770000120FFF765FF08493A7823782846BDE8FD
:10578000F041FEF795BF0549BDE8F041FEF790BF37
:105790004814002041140020986A00083C6A000860
:1057A00010B50446FFF75CFF034902462046BDE8FA
:1057B0001040FEF77DBF00BFA86A0008AFF300806D
:1057C00000292DE9F041054620DD1068FAF790FC2C
:1057D000114E124930702846FEF76AFF104C32789D
:1057E0000023237062B10F4FFA5C28460E49FEF782
:1057F0005FFF217830784B1CDBB298422370F3D8DE
:105800000A492846BDE8F041FEF752BF0849BDE805
:10581000F041FEF74DBF00BF40140020B46A0008FD
:1058200038160020301400202C6A0008BC6A0008DA
:10583000C46A0008AFF30080AFF30080AFF30080CC
:10584000124838B5124AC369124D134C9A61134875
:10585000FBF7CEFE2B6813F0010F03D0E26882F451
:105860008041E16013F0020F03D0E16881F4005041
:10587000E06013F0040F03D0E26882F48053E36029
:10588000FBF7C6FE7D20FBF713FDE0E7540E00207A
:10589000E06A000878160020000C0140681600201D
:1058A00070B5144C4FF480434FF400564FF48055BC
:1058B000236182B019462661062220462561FEF743
:1058C00057F8204631460622FEF752F829460622AE
:1058D0002046FEF74DF80848FBF7F2FD00244FF490
:1058E000D8714022054B06480094FBF799FC02B0A2
:1058F00070BD00BF000C0140681600204158000830
:1059000080160020AFF30080AFF30080AFF300807B
:1059100010B504460448FBF76BFE044B1C60BDE861
:105920001040FBF775BE00BF6816002078160020F7
:1059300010F0010F04D00B4BD96881F48042DA607B
:1059400010F0020F04D0074BD96881F40052DA60DE
:1059500010F0040F04D0034BDA6882F48050D86052
:10596000704700BF000C0140AFF30080AFF3008030
:1059700010F0010F04D00B4BD96881F48042DA603B
:1059800010F0020F04D0074BD96881F40052DA609E
:1059900010F0040F04D0034BDA6882F48050D86012
:1059A000704700BF000C0140AFF30080AFF30080F0
:1059B000200039000000000000000000000000008E
:1059C00000202020202020202020282828282820CF
:1059D00020202020202020202020202020202020C7
:1059E000208810101010101010101010101010102F
:1059F000100404040404040404040410101010101F
:105A000010104141414141410101010101010101E8
:105A1000010101010101010101010101101010103A
:105A200010104242424242420202020202020202BA
:105A3000020202020202020202020202101010100E
:105A40002000000000000000000000000000000036
:105A50000000000000000000000000000000000046
:105A60000000000000000000000000000000000036
:105A70000000000000000000000000000000000026
:105A80000000000000000000000000000000000016
:105A90000000000000000000000000000000000006
:105AA00000000000000000000000000000000000F6
:105AB00000000000000000000000000000000000E6
:105AC00000000000000000000000000000000000D6
:105AD00069646C65000000006D61696E0000000083
