:020000040800F2
:100000000004002011010008E1020008E1020008DC
:10001000E1020008E1020008E1020008E102000834
:10002000E1020008E1020008E102000811030008F3
:10003000E1020008E1020008E102000811040008E2
:10004000E1020008E1020008E1020008E102000804
:10005000E1020008E1020008E1020008E1020008F4
:10006000E1020008E1020008E102000811150008A1
:100070004115000871150008B1150008F1150008B8
:100080003116000871160008E1020008111B000873
:10009000211E0008E1020008E1020008E102000858
:1000A000E1020008E1020008E1020008E1020008A4
:1000B000E1020008E1020008B1180008E1020008AE
:1000C000E1020008E1020008E1020008E102000884
:1000D000E1020008E1020008E1020008E102000874
:0C00E000E1020008E1020008E102000853
:1000F000704700BFAFF30080AFF30080AFF3008024
:10010000FEE700BFAFF30080AFF30080AFF30080E5
:1001100072B6634880F30988022383F31488BFF31F
:100120006F8F604A604CA24217D213464FF0553190
:10013000D64343F8041BA519A342C5F380050CD28E
:1001400025B1196002F10803A34206D21A4642F80B
:10015000041B5960131DA342F8D3544A824217D29C
:1001600013464FF05531D54343F8041B44198342DD
:10017000C4F380040CD224B1196002F10803834255
:1001800006D21E4646F8041B5960331D8342F8D33D
:1001900002F00EF8464C4749A14222D246480B468F
:1001A000024652F8046BCD4343F8046B04EB050C94
:1001B000A342CCF3800514D23DB1166800F10802C9
:1001C0001E6001F10803A3420BD2104650F8045BF5
:1001D000194641F8045B5668021D5E600B1DA34280
:1001E000F3D3364A3648824217D200211346D4430D
:1001F00043F8041B00EB040E8342CEF380040CD2C0
:1002000024B1196002F10803834206D21A4642F86B
:10021000041B5960131D8342F8D32A4D2A4EFFF761
:1002200067FFB54219D22C4654F8043BE9437718CE
:100230009847B442C7F380070FD22FB1236805F166
:1002400008049847B44208D2254655F8042B904735
:1002500060682C1D8047B442F6D31C4D1C4E01F043
:10026000B7FFB5421AD22C46EF4354F8043B06EBD5
:10027000070CCCF380079847B4420FD22FB1226805
:1002800005F108049047B44208D2254655F8040BFE
:10029000804761682C1D8847B442F6D3FFF730BF12
:1002A00000080020000000200004002000040020BE
:1002B0000408002000080020B827000808080020D3
:1002C0000C120020EC000008EC000008EC00000814
:1002D000EC000008AFF30080AFF30080AFF30080C4
:1002E000FEE700BFAFF30080AFF30080AFF3008004
:1002F00072B6FEE7AFF30080AFF30080AFF300808B
:1003000000F05EF900F0F4FB00F07AF900DF00BFC6
:1003100000B5EFF30983203383F3098800F030F848
:100320005DF804FBAFF30080AFF30080AFF3008013
:100330000A4B002210B59A60094A07201021DA60A2
:1003400000F096F80A204FF4007100F091F80B20AD
:100350008021BDE8104000F08BB800BF00ED00E048
:100360000000FA05AFF30080AFF30080AFF3008028
:10037000202383F311887047AFF30080AFF3008030
:10038000002383F311887047AFF30080AFF3008040
:1003900000B5FFF7EDFF1748436813F4006F17D05F
:1003A000EFF30983203B83F30988134A4FF08070F1
:1003B0009169D86181B11068D2698168926891426F
:1003C00094BF002201228AB10C4999615DF804FBB7
:1003D000FFF7D6FF5DF804FB1068D2698168926868
:1003E000914234BF00220122002AEDD1044A9A61D1
:1003F0005DF804FB00ED00E03C0D00200103000867
:100400000C030008AFF30080AFF30080AFF300806F
:1004100010B500F055F9FFF7ABFF00F011F900F04F
:1004200087F800F02DF9FFF7ABFF00F069F9BDE8A0
:100430001040FFF7ADBF00BFAFF30080AFF3008007
:100440002DE9F04FC1F80CD0D0F80CD0BDE8F08FFA
:1004500008B500F0D5F8FFF793FF2846A04700F055
:100460005FFC08BDAFF30080AFF30080AFF3008006
:1004700000F0030210B4FF23D40013FA04F2A140E9
:100480008008064C063054F8203023EA020242EA83
:10049000010344F8203010BC704700BF00ED00E0BD
:1004A0000248034AC3699A61FEE700BF3C0D002081
:1004B00020240008AFF30080AFF30080AFF300808A
:1004C00030B583B0FFF734FF00F042FA00F0D8F9FE
:1004D00000F006FD00F044FD00F062F940210E48F6
:1004E00000F02EFB0D4D0E490124E86180F82040FC
:1004F000C16100F04DF8002383F3118862B6EA6908
:100500001D46084BC021936107482246074B0095C2
:1005100000F086FB03B030BD080800203C0D002031
:10052000000400202824000858080020A104000826
:1005300070B500F005F9114B9A69002A01DD013A06
:100540009A61DA690E4C516A2368481C5062E1686E
:10055000481CA342E0600FD09D68013D9D605DB9DD
:1005600026461968DA681869DD604E602160904798
:10057000236898680028F4D070BD00BF3C0D0020AF
:100580002C0D0020AFF30080AFF30080AFF30080AC
:100590000548036813B9054A116821B10448054BA1
:1005A0001860FFF7A5BE704718090020240D002031
:1005B00040240008280D0020AFF30080AFF3008036
:1005C000084810B5036853B9074C216821B1074AA0
:1005D000074B1A60FFF78CFE0120206010BD024C13
:1005E000F5E700BF18090020240D0020482400086A
:1005F000280D0020AFF30080AFF30080AFF3008040
:10060000094810B5036833B9084C2168002903DD97
:100610000020206010BD054C054A064B1A60FFF70C
:1006200067FE0020206010BD18090020240D002066
:1006300050240008280D0020AFF30080AFF30080A5
:10064000084810B50368002B0ADD074C216821B16A
:10065000064A074B1A60FFF74BFE0120206010BDD1
:10066000014CF5E718090020240D0020582400084B
:10067000280D0020AFF30080AFF30080AFF30080BF
:100680000A4810B50368002B06DD094C21680029D3
:1006900003DD0020206010BD054C064A064B1A60A1
:1006A000FFF726FE0020206010BD00BF18090020C3
:1006B000240D002060240008280D0020AFF30080E6
:1006C00010B5FFF755FE094C2368002B02DB0848E4
:1006D00002682AB1074B08491960FFF709FE236831
:1006E0005A1C2260FFF74CFE10BD00BF1809002005
:1006F000240D0020280D002068240008AFF300809E
:1007000010B5FFF735FE094C2368002B02DD0848C1
:1007100002682AB1074B08491960FFF7E9FD236811
:100720005A1E2260FFF72CFE10BD00BF18090020E2
:10073000240D0020280D002070240008AFF3008055
:1007400006480368002B04DB054A1168002900DD18
:1007500070470448044B1860FFF7CABD1809002011
:10076000240D002078240008280D0020AFF300801D
:100770000648036823B9064A1168002900DD70475E
:100780000448054B1860FFF7B3BD00BF18090020EF
:10079000240D002080240008280D0020AFF30080E5
:1007A000034A4021134643F8081B5360704700BFBB
:1007B0001C090020AFF30080AFF30080AFF300808E
:1007C00010B40D4A0D4C0E495368E468C9691C60A9
:1007D0005960846A03F110019C6090F8204002F592
:1007E000816081421C7328BF02F10803516028BF59
:1007F000536010BC704700BF1C0900202C0D002066
:100800003C0D0020AFF30080AFF30080AFF3008019
:10081000014B1860FFF76CBD280D0020AFF300807E
:1008200010B40B4603E09C688268944209D31B68AD
:100830009942F8D14B68016043601860486010BC71
:1008400070471946F6E700BFAFF30080AFF30080B2
:100850000346006802681A6053607047AFF3008077
:1008600042680168116003685A607047AFF3008006
:100870000346006802681A60704700BFAFF300804B
:10088000044B4FF0FF3000225B601B609860DA6021
:10089000704700BF2C0D0020AFF30080AFF3008045
:1008A000F8B504460D4616461F46FFF749FFCCB182
:1008B000C6B1BDB10D4927610B68E6609A689542E3
:1008C00004D91B68AD1A9A68AA42FAD35A688B42B7
:1008D0002360626014605C60A56002D09868451B6C
:1008E0009D60F8BD0248FFF793FFE3E72C0D002061
:1008F00090240008AFF30080AFF30080AFF30080D6
:1009000010B50446FFF71CFF84B1E36893B1236878
:100910000A4A934203D09968A26888189860606870
:10092000002203602368E260586010BD0448FFF7AE
:100930006FFFEAE70348FFF76BFFE8E72C0D0020A5
:10094000A0240008B0240008AFF30080AFF30080BB
:10095000044B002014225B601B6098609A615B610D
:100960001B6170473C0D0020AFF30080AFF30080A7
:1009700010B590F8203004468BB10E2B0FD000221A
:10098000094BA16884F820201B6898688842FBD234
:100990005968236061600C605C60204610BD0348AC
:1009A000FFF736FFEBE700BF3C0D0020D024000826
:1009B00010B590F8203004460D2B0FD8DFE803F077
:1009C000160E0E070E0B0E0E0E0E0E0E0E0B806A7E
:1009D00081684A1C82602046FFF742FF4FF0FF33D8
:1009E0002046A362BDE81040FFF7C2BF10BD00BFA4
:1009F00070B5114C0646FFF7BBFEE569142385F878
:100A000020602046A361FFF723FF0122014680F802
:100A100020202846E161FFF7D3FEEA69ADF1240307
:100A20009A4202D90548FFF7F3FEE0692946BDE87E
:100A30007040FFF705BD00BF3C0D0020E424000816
:100A400070B50E4686B00546FFF792FEB6F1FF3F41
:100A500012D00C4C3146E3690B4A01A8FFF720FF86
:100A60002846FFF7C5FF049B13B101A8FFF748FF15
:100A7000E069806A06B070BD2846FFF7B9FF014CF7
:100A8000F6E700BF3C0D0020B1090008AFF300807D
:100A900070B5154D04460E46FFF76AFEE869A26878
:100AA0008368A6629A4215D9FFF762FF01231422D8
:100AB000064684F82030AA61EC61FFF781FEF069F8
:100AC000ADF1240188420AD820463146BDE8704085
:100AD000FFF7B6BC2046BDE87040FFF749BF0348AA
:100AE000FFF796FEF0E700BF3C0D0020E42400086D
:100AF00070B5104C14232046E569A361FFF7A8FEEA
:100B00000122014680F820202846E161FFF730FFEE
:100B10002846FFF755FEEA69ADF124039A4202D94F
:100B20000548FFF775FEE0692946BDE87040FFF70C
:100B300087BC00BF3C0D0020E4240008AFF3008018
:100B4000F0B40022104C0125022380F8203080F8F8
:100B5000212080F82250656900F1300600F12C0C4C
:100B600000F14C0704618160456141646061026489
:100B7000C263426282612861C0F82CC0466306638A
:100B8000C761F0BC704700BF3C0D0020AFF3008090
:100B9000F8B504460D4616461F46FFF7D1FD0CB1C9
:100BA000AF2D2BD81848FFF733FE243D6119E160C3
:100BB0006751069D15484D600023154A02270125FF
:100BC000086284F8207084F8225084F8213050693B
:100BD00004F1300104F12C0704F14C05226160613D
:100BE000A6606664546123640461E3636362A36185
:100BF000E76261632163E5612046F8BD7F2ED1D8AD
:100C0000002FD2D1CEE700BF002500085104000814
:100C10003C0D0020AFF30080AFF30080AFF3008005
:100C2000F0B504460D461E4683B017464C302346A9
:100C3000FF211A4602F8011B5970531C8342F8D158
:100C40006019834215D25521DA4303F8011B00EBEA
:100C5000020C83420CF001020BD01AB103F8011B05
:100C6000834206D01A4602F8011B5970531C834276
:100C7000F8D1FFF77DFBFFF7A3FC2046089C3A461E
:100C8000334629460094FFF783FF00210446FFF70F
:100C9000FFFEFFF7B5FCFFF773FB204603B0F0BD86
:100CA00010B5044610B90848FFF7B2FDFFF760FB26
:100CB000FFF786FC21460620FFF7C2FEFFF7A0FCE7
:100CC000FFF75EFB10BD00BF40250008AFF30080BA
:100CD000114970B5CD69EB6A05F12C04A342A862F5
:100CE00007D02046FFF7C4FDFFF742FEE86AA042A6
:100CF000F7D195F8212012F0030F04D16B69286910
:100D0000186129694B610E20FFF772FE0348BDE8A8
:100D10007040FFF77DBD00BF3C0D0020502500084E
:100D200010B50446FFF724FBFFF74AFC2046BDE858
:100D30001040FFF7CDBF00BFAFF30080AFF30080DE
:100D400010B5044620B1002364602460A36010BD88
:100D50000348FFF75DFD002364602460A36010BDBD
:100D6000A0250008AFF30080AFF30080AFF3008050
:100D7000294B70B50546DE69FFF7FAFC002D46D019
:100D8000AC68002C2AD0B268A068824207D994F8D7
:100D90002030A260042B2DD0052B24D0ABB13046DF
:100DA0002946FFF73DFD0420B562FFF721FEAB6841
:100DB000B34202D01948FFF72BFD306CA84211D086
:100DC0001748BDE87040FFF723BD012284F82020BA
:100DD0002046FFF745FDFFF7CBFDE0E7316CAE6045
:100DE000E960356470BD2046FFF73AFDA16AFFF760
:100DF00017FDD4E72046FFF733FDA16AFFF710FD8A
:100E0000A46AB268A468A1689142C0D3C7E7054844
:100E1000FFF7FEFCB4E700BF3C0D0020C025000832
:100E2000D4250008B0250008AFF30080AFF30080A0
:100E300010B50446FFF79CFAFFF7C2FB2046FFF708
:100E400097FFFFF7DDFBFFF79BFA10BDAFF30080C4
:100E500038B51F4BDD69FFF78BFAFFF7B1FB2C6C40
:100E6000002C30D0A068A84203D01A48FFF7D0FC6D
:100E70002C6C2268E368A2422B641CD0696C4BB1D5
:100E80001A689A4203D09068814238BF0146DB68F5
:100E9000002BF5D1A9602046FFF7DAFC016CA060B9
:100EA000E16000210464FFF7F3FDFFF7A9FBFFF702
:100EB00067FA204638BD0023A360FFF7A1FBFFF7C8
:100EC0005FFA204638BD0448FFF7A2FC2C6CC9E746
:100ED0003C0D002010260008FC250008AFF3008020
:100EE000054B064A064823F00701064B116020F027
:100EF00007021A60704700BF13120020600D002027
:100F0000005000205C0D0020AFF30080AFF30080A4
:100F100010B50446FFF714FC074A0849136809682E
:100F2000E01D20F00700C91A884203D81818106085
:100F3000184610BD002010BD600D00205C0D002083
:100F400010B50446FFF714FAFFF73AFB2046FFF707
:100F5000DFFF0446FFF754FBFFF712FA204610BDEF
:100F6000044B0549002203F1100019609A60DA6011
:100F7000FFF7E6BE680D0020410F0008AFF30080C8
:100F800010B500F0C5FB00F09BFA074800F0E0FC4C
:100F900000F00EF800F024F800F04AF800F0B0FA83
:100FA000BDE8104001F00CB960270008AFF30080E5
:100FB00000F046BCAFF30080AFF30080AFF30080D9
:100FC00000230122027043608360C36003614361B8
:100FD0001830FFF7B5BE00BFAFF30080AFF300805D
:100FE00000F0A6BCAFF30080AFF30080AFF3008049
:100FF0000121002301704360704700BFAFF3008000
:1010000010B590F84210044680F84A1000F098FDA0
:1010100063681B6813B120460121984703202070A4
:1010200010BD00BFAFF30080AFF30080AFF30080CE
:1010300000F07EBDAFF30080AFF30080AFF300801F
:10104000002301220270436083608381C381704763
:1010500010B4002202240470A0F8482080F84A202E
:1010600080F84B208281C281026142618261C2614B
:10107000026242628262C26280F8302010BC00F0DC
:10108000EFBD00BFAFF30080AFF30080AFF300808F
:1010900000222DE9F041044680F8302000F14002A2
:1010A00000F01EFE63689B68002B1FD02046984707
:1010B000E0B1A56B94F84030B4F84600A8423CBFBC
:1010C000A063054613F0800F7BD1002D6AD1042068
:1010D00084F83000294620462A462B4600F0E8FFD7
:1010E00020462946BDE8F04101F002B894F84030AE
:1010F00013F060061A4612D00021204601F018F8BD
:101100002046002101F004F86268136813B12046FC
:1011100005219847052384F83030BDE8F08194F824
:10112000417003F07F0141EA0727B7F5407F00F0E7
:10113000A98016DDB7F5C06F00F0CE8060DDB7F591
:10114000106F00F0B68040F6024C67456BD0B7F5E3
:10115000006FD1D1012504F14B006063A563E66304
:10116000AAE7022F77D059DDB7F5807F62D0B7F5B7
:10117000817FC1D194F842000028BDD194F8443059
:1011800013F00F0108D013F0800F40F0E0802046EC
:1011900000F0DEFF94F8402000256563A563E56359
:1011A000134689E70323002184F830302046626B20
:1011B0002B4600F065FF20460021BDE8F04100F01D
:1011C00087BF75B10122002184F830202046626B70
:1011D0002B4600F06DFF20460021BDE8F04100F0F5
:1011E00087BF022184F83010204629462A462B4624
:1011F00000F046FF20462946BDE8F04100F068BFF8
:1012000040F2023087427CD0B7F5A06F7FF474AF14
:10121000554D6663E563A66335464DE7002F41D023
:10122000012F7FF469AF5149022500226163A56354
:10123000E26341E794F842E0BEF1010F7FF45CAF56
:10124000B4F84810666321F00205A4F84850A6637C
:10125000E663354630E794F8441011F0800F67D10B
:10126000204601F00F0100F01BFD012867D0022885
:101270007FF442AF3E4BA0636363E66394F8403073
:10128000054619E794F8420001287FF435AFB4F819
:101290004820666342F0020CA4F848C0A663E663E7
:1012A000354609E7022504F148026263A563E76356
:1012B00002E794F8425084F84B50002D35D10323B7
:1012C000237060680368002B3FF466AF204602215C
:1012D000984794F840205FE7636820465D6894F87B
:1012E000431094F84220B4F84430A84700283FF453
:1012F00003AF4168056894F840306163A563E66315
:10130000DAE694F8421000297FF4F6AE94F84430FF
:1013100013F00F013FF440AF13F0800F1DD12046B2
:1013200000F0F6FE94F8402036E704212170C8E76B
:10133000204601F00F0100F0C3FC012897D10D4DAC
:10134000A7636563E66394F840303D46B4E6204603
:1013500000F016FF94F840201EE7204600F0E8FE5B
:1013600094F8402018E700BF01100008502600083C
:101370006026000870260008AFF30080AFF30080FD
:1013800090F8303070B5012B044619D0042B10D0E2
:10139000002100F0CDFE0021204600F0B9FE61687A
:1013A0000B6813B1204605219847052284F83020A8
:1013B00070BDC36B03B19847002384F8303070BD13
:1013C000836BB0F846209A4206D90269118AB3FBB2
:1013D000F1F501FB153575B1002102200A460B46D7
:1013E00084F83000204600F04BFE20460021BDE886
:1013F000704000F06DBE29462A462B4600F058FE8C
:1014000020462946BDE8704000F072BEAFF3008070
:1014100090F8303070B5022B044621D0032B11D048
:101420000021204600F084FE2046002100F070FEDE
:1014300063681B6813B1204605219847052184F88D
:10144000301070BD002104250A460B4680F830504C
:1014500000F02EFE20460021BDE8704000F048BE9E
:1014600002699169CB68002BDAD1C36B03B198474D
:10147000002084F8300070BDAFF30080AFF300802F
:1014800001494B6883607047001000E0AFF30080B3
:10149000084B09495A6883680968D31AC2685B1AFD
:1014A0009342836004D80269934238BF0361704756
:1014B000C3607047001000E0880D0020AFF300808B
:1014C00010B50B4A86B00B490B4C002301A80192C2
:1014D0004FF0FF3223600393049302910592FFF7CC
:1014E000CFFF01A802998847039B236006B010BD77
:1014F0008114000891140008880D0020AFF30080CB
:10150000704700BFAFF30080AFF30080AFF30080FF
:1015100010B5FFF7D5F80848084A03680F2411688A
:10152000546013B1406821409847FFF7E9F8BDE8DF
:101530001040FEF72DBF00BF8C0D002000000240C0
:1015400010B5FFF7BDF80848084A8368F024116811
:1015500054601BB1C068C1F303119847FFF7D0F87E
:10156000BDE81040FEF714BF8C0D002000000240C3
:1015700010B5FFF7A5F80948094A03694FF47064EC
:10158000116854601BB14069C1F303219847FFF70C
:10159000B7F8BDE81040FEF7FBBE00BF8C0D002081
:1015A00000000240AFF30080AFF30080AFF3008093
:1015B00010B5FFF785F80948094A83694FF470446C
:1015C000116854601BB1C069C1F303319847FFF73C
:1015D00097F8BDE81040FEF7DBBE00BF8C0D002081
:1015E00000000240AFF30080AFF30080AFF3008053
:1015F00010B5FFF765F80948094A036A4FF47024EB
:10160000116854601BB1406AC1F303419847FFF76A
:1016100077F8BDE81040FEF7BBBE00BF8C0D002080
:1016200000000240AFF30080AFF30080AFF3008012
:1016300010B5FFF745F80948094A836A4FF470046A
:10164000116854601BB1C06AC1F303519847FFF79A
:1016500057F8BDE81040FEF79BBE00BF8C0D002080
:1016600000000240AFF30080AFF30080AFF30080D2
:1016700010B5FFF725F80948094A036B4FF070646D
:10168000116854601BB1406BC1F303619847FFF7C9
:1016900037F8BDE81040FEF77BBE00BF8C0D002080
:1016A00000000240AFF30080AFF30080AFF3008092
:1016B000124BF0B4D3F800C0DF689E695D6A1C6B02
:1016C000D86B996C0023CCF800300D4ADFF838C095
:1016D0003B601360336093602B6013612360936100
:1016E0000360136293621363CCF800300B60054B08
:1016F0004FF0FF325A60F0BC704700BF80260008F0
:101700008C0D002000000240C40D0020AFF30080CB
:10171000214B00224FF0FF3030B420491C69186182
:101720001A61DD68D8604BF67F30DA601C4C486087
:1017300007208A600860E1681A4841F08071E16022
:101740000468194944F001040460D86940F08050ED
:10175000D861D86940F00060D861086840F48070B2
:101760000860186A00F44071B1F5407F03D04FF46F
:10177000803119621A62084B1A6A12F4004F07D1BD
:10178000186A40F440721A62196A41F40040186203
:1017900030BCFFF78DBF00BF0010024010E000E03A
:1017A000F0ED00E0001000E000700040AFF30080BA
:1017B0001F4B1868194640F001021A600B681C4A5A
:1017C00013F0020FFAD01368002003F0F901116042
:1017D000114650604868164A10F00C0FFAD1106894
:1017E000114640F4803313600B68114A13F4003F34
:1017F000FAD05368114643F488105060136843F0E0
:101800008070106008680A4A10F0007FFAD009481A
:10181000094B1121506019605068114640F00203D5
:1018200053604A6802F00C0CBCF1080FF9D1704704
:10183000001002400064510000200240AFF300801D
:1018400010B5144C2046FFF7BBFB134B13499869A6
:1018500040F400729A61124B0020A162012248609C
:10186000E36242F28A5009238A6020638B608B68AE
:101870000A4A13F0080FFAD105219160906810F020
:101880000403FBD10548044A8360916921F4007385
:10189000936110BDC80D00200010024000240140DB
:1018A00080260008AFF30080AFF30080AFF3008024
:1018B00070B51B4DFEF704FF2B694FF6E0711A8AD5
:1018C0009C891982144014F0020F24D114F0040FE3
:1018D0001CD114F0080F14D114F0100F0CD114F017
:1018E000010F03D06A680E4893689847FEF708FF17
:1018F000BDE87040FEF74CBD696809488A6A9047A8
:10190000EDE76B680648196A8847E5E76A680448A6
:1019100093699847DDE7696828460A699047D5E7E3
:10192000FC0D0020AFF30080AFF30080AFF3008028
:1019300010B5034C2046FFF75BFB024B236110BD43
:10194000FC0D002000080040AFF30080AFF30080E2
:10195000154B30B49A69154D42F07D049C610168C5
:10196000134CE960826813496A604368124A2B602D
:10197000C568124BE5604569656005692560846945
:10198000CC60046A4C60C4690C60416AD160C16A71
:101990005160816A1160026BDA60816B5960426B41
:1019A0001A6030BC704700BF0010024000080140C0
:1019B000000C0140001001400014014000180140DB
:1019C000032AF0B400F09A80042A08BF41614C4B0E
:1019D00011F080079B5C40F088800F2411F40045D3
:1019E00040F089800F264A002401360139012D017B
:1019F00012F0800F14BF194344F00F0412F4004F8B
:101A000014BF1D4346F00F065200240136010901A0
:101A10002D0112F0800F14BF194344F00F0412F48B
:101A2000004F14BF1D4346F00F065200240136013B
:101A300009012D0112F0800F14BF194344F00F0467
:101A400012F4004F14BF1D4346F00F06520024014C
:101A5000360109012D0112F0800F14BF194344F023
:101A60000F0412F4004F14BF1D4346F00F0652003E
:101A70002401360109012D0112F0800F14BF194312
:101A800044F00F0412F4004F14BF1D4346F00F063C
:101A900052002401360109012D0112F0800F14BFFC
:101AA000194344F00F0412F4004F14BF1D4346F0D5
:101AB0000F0652002401360109012D0112F0800F9A
:101AC00014BF194344F00F0412F4004F18BF1D4314
:101AD000436808BF46F00F061E4035434560026864
:101AE000144021430160F0BC7047002411F400450C
:101AF0001F463FF477AF1D46002674E7016166E795
:101B0000E0260008AFF30080AFF30080AFF3008061
:101B100010B5FEF7D5FDFEF7F3FDBDE81040FEF76A
:101B200037BC00BFAFF30080AFF30080AFF300809D
:101B30000148FFF785BA00BF100E0020AFF3008008
:101B400090F84A00024B40F08002DA64704700BF10
:101B5000005C0040AFF30080AFF30080AFF3008083
:101B60000A1D2DE9F04150F822400546226802F096
:101B70000303013B022B96BF36484FF4007330F845
:101B80001330A06808B143F02003E66866B112F094
:101B9000100F55D0012010FA01F2B5F80E8043F471
:101BA000405342EA0807EF8143EA010C2A4F2CF424
:101BB000F04626F0700047F8210047F6700857F805
:101BC000212003EA080C638A8CEA02063E2B47F8C0
:101BD00021602BD95F1E47F01F06701C42116FEA6F
:101BE000C2676FEA57421C4ED5F84C80306DB4F88E
:101BF00010C000F1005707F5405606EBC1000CEB92
:101C0000080647000021B6F5007FB980BA81EE646E
:101C100019D89B19B3F5007FC7F80080EB6402D98F
:101C20000E48FEF7F5FDBE60BDE8F0815A1E42F099
:101C300001077E1C06EBD670420202F47C42D2E71A
:101C400043F40053B0E70548FEF7E2FD638AEE6C0B
:101C5000DFE700BF00270008005C004030270008D5
:101C6000416830B40A4BCD6800241C65A54214BFFE
:101C70004FF41E454FF41C455C6421468024DC640F
:101C80001D64044B4022C264036130BCFFF768BF8F
:101C9000005C004040270008AFF30080AFF30080F5
:101CA000054B53F8210010F4405004D0B0F5805F8C
:101CB0000CBF012002207047005C0040AFF30080A1
:101CC000054B53F8211001F03003102B9ABF034A43
:101CD000D05C0220704700BF005C00401027000865
:101CE0000F4B10B41C6D134604F1005000F5405C1E
:101CF0000CEBC1046100886800F1005C0CF54054F5
:101D000061008C465CF8044B888823F8024BBCF8D1
:101D100008105080BCF8042099805A8010BC70478D
:101D2000005C0040AFF30080AFF30080AFF30080B1
:101D30001B48F0B4006D00F1005000F5405C0CEB66
:101D4000C1014800816880898005800D834228BFD9
:101D5000034601335B0820D001F1005101F54055E5
:101D600069005C1E51F8045B234622F8025B04F014
:101D7000010493B12CB151F8044B013B22F8024B02
:101D80000BD00D4655F8047B4E68144624F8027BB0
:101D9000291D5680A21C023BF3D1F0BC704700BF46
:101DA000005C0040AFF30080AFF30080AFF3008031
:101DB000184870B4046D04F1005000F5405C0CEB61
:101DC000C104591C600049080468838020D004F1D4
:101DD000005C01390CF5405332F8020B5C000B46F5
:101DE00044F8040B01F0010193B129B132F8021B50
:101DF000013B44F8041B0BD0104630F8026B5588A9
:101E0000214641F8046B821C65600C1D023BF3D136
:101E100070BC7047005C0040AFF30080AFF30080FF
:101E20002DE9F04F81B0FEF74BFC904B5C6C14F445
:101E3000806F40F00C8114F4006F0ED08C488B4AF8
:101E40004368116C1B6841F0080111640BB1032158
:101E50009847864A6FF40060506414F4805F09D09C
:101E6000824A916C11F4004F00F0E4807F4A6FF4D5
:101E70008050506414F4007F08D07D484368DB68CC
:101E800003B1984779486FF40071416414F4004F2E
:101E900000F0A480DFF8D891744DCA4613E0012009
:101EA00010FA04F1B9F80EE059F828302EEA010CC6
:101EB000A9F80EC0DA686E48214690476C6C14F49D
:101EC000004F00F08B8004F00F0455F8246004F1FB
:101ED000040816F0800F59F828703AD055F82410ED
:101EE00021F4F04C2CF0F00345F824303A6812F05D
:101EF000100F7AD12B6D796903F1005202F5405E23
:101F00000EEBC4004300B3F804C00A688868D1F837
:101F100004E01FFA8CF3D218C018C3EB0E030A605A
:101F200088604B60002B60D0B7F810E05FFA84FB4C
:101F30004F485946734528BF7346FFF739FF55F898
:101F40002B2022F4F04020F0400C8CF0300145F8BA
:101F50002B1016F4004FB1D055F8241016F4006F72
:101F600021F4784E2EF0700345F824304BD13868B8
:101F700010F0100F93D1BB69E6B25A6831469B68E6
:101F80003B48FFF7D5FEBB6955F826E01A885F6825
:101F9000D968D3F808C02EF4904E2EF0700E013A96
:101FA0003F1809188EF4405EC0EB0C0092B245F861
:101FB00026E05F60D96098601A80002A2AD055F820
:101FC000242022F4904121F0700C8CF4405045F80C
:101FD00024006C6C14F4004F7FF475AFFEF790FB97
:101FE00001B0BDE8F04FFEF7D3B9012212FA04F0B8
:101FF000BAF80CC0BB682CEA0001AAF80C101C4807
:1020000021469847A5E759F8283019485A682146CB
:10201000904753E7012111FA04F0BAF80EC05AF8BC
:1020200028302CEA000EAAF80EE0DC681048314691
:10203000A04743E70E48116C436821F008011B6874
:102040001164002B3FF412AF042198470EE7084DAE
:102050002846FEF7FDFF6868036813B12846002193
:10206000984702496FF480624A64E4E6005C0040ED
:10207000100E0020AFF30080AFF30080AFF30080BC
:10208000043150F821108869426000228360C260E8
:102090003BB14A8A511EC918B1FBF2FCA0F800C03E
:1020A0007047012303807047AFF30080AFF30080D7
:1020B00070B40D1D50F8254000266569248A6B60B8
:1020C000A34228BF23462A60AE6070BCFFF770BEF3
:1020D000054B53F8212022F4904C2CF0700080F432
:1020E000405243F821207047005C0040AFF300806D
:1020F000054B53F8212022F4F04C2CF0400080F0E6
:10210000300243F821207047005C0040AFF30080AC
:10211000054B53F8212022F4904C2CF0700080F4F1
:10212000805243F821207047005C0040AFF30080EC
:10213000054B53F8212022F4F04C2CF0400080F0A5
:10214000100243F821207047005C0040AFF300808C
:10215000094B53F8210000F44052B2F5405F09D01A
:1021600053F8212022F4F04020F0400C8CF400526F
:1021700043F82120704700BF005C0040AFF30080AF
:10218000084B53F8210000F03002302A09D053F8F0
:10219000212022F4F04020F0400C8CF0200243F883
:1021A00021207047005C0040AFF30080AFF3008057
:1021B000FFF7FEBAAFF30080AFF30080AFF300800B
:1021C000704700BFAFF30080AFF30080AFF3008033
:1021D00008B5FEF7D5FEFEF773F900F071F800F0D0
:1021E000E7F84FF47A70FEF75BFDFAE7AFF3008093
:1021F00029482DE9F84F294AC369294FDFF8ACB0C7
:10220000DFF8ACA0DFF8AC90DFF8AC80254C9A6129
:10221000012604254FF47A70FEF742FD02234FF6A3
:10222000FF726661002165614FF0FF3C2561266108
:102230006361656125616561256165612561656130
:10224000256165612561656125616561256165615E
:10225000256165612561656125616561256165614E
:1022600025616561256165612561656125613A606A
:10227000012265610C48CBF800102561AAF8002006
:10228000A9F800C02361FEF7D3FD3968C8F8001033
:10229000FEF7DEFDBEE700BF3C0D0020A0270008D2
:1022A0003810002000080140700E00203C10002073
:1022B000840E0020860E0020800E0020AFF30080E8
:1022C00070B5154C82B0082120460222FFF778FB3A
:1022D0000226012304252361194626610622204691
:1022E0002561FFF76DFB204631460622FFF768FBAC
:1022F000294606222046FFF763FB0848FEF720FD2B
:1023000000244FF4D8714022054B06480094FEF794
:1023100087FC02B070BD00BF00080140700E0020B5
:10232000F1210008880E0020AFF30080AFF3008099
:102330001748184AC3692DE9F041174E174D184F39
:10234000DFF86880174C9A614FF47A70FEF7A8FCAA
:102350001548FEF76DFD2A683260FEF779FD2968A1
:102360000029F1D02022396813468020023A92B227
:102370006361890860612361636160612361002A90
:10238000F4D14FF0FF3C3960A8F800C0DCE700BF93
:102390003C0D0020B027000850100020081200203B
:1023A00000080020000801404010002054100020C8
:1023B000F0B5164C1023402520278026236183B0DA
:1023C000194625610622276120462661FFF7F8FAA3
:1023D000204629460622FFF7F3FA20463946062210
:1023E000FFF7EEFA314606222046FFF7E9FA0848E1
:1023F000FEF7A6FC00244FF4D8712A46054B064888
:102400000094FEF70DFC03B0F0BD00BF00080140D2
:10241000401000203123000858100020AFF3008046
:1024200069646C65000000006D61696E0000000069
:1024300053562331000000005356233200000000A1
:10244000535623330000000053562334000000008D
:102450005356233500000000535623360000000079
:102460005356233700000000535623380000000065
:10247000535623390000000053562331300000002A
:10248000535623313100000000000000000000001E
:1024900022636856545365744922282900000000BD
:1024A00022636856545265736574492228290000D6
:1024B0006368565452657365744928292C2023316A
:1024C000000000000000000000000000000000000C
:1024D000636853636852656164794928292C202315
:1024E00031000000737461636B206F766572666CF7
:1024F0006F770000000000000000000000000000F6
:1025000022636854686443726561746549222829AE
:102510000000000022636854686453657450726957
:102520006F7269747922282900000000636854687A
:1025300064526573756D6528292C202331000000D5
:10254000226368546864536C656570222829000012
:102550006368546864457869745328292C202331B2
:10256000000000002263685468645761697422287F
:102570002900000063685468645761697428292C35
:102580002023310063685468645761697428292CDA
:1025900020233200000000000000000000000000C6
:1025A0002263684D7478496E6974222829000000FE
:1025B0002263684D74784C6F636B532228290000A6
:1025C00063684D74784C6F636B5328292C2023313A
:1025D0000000000063684D74784C6F636B532829CA
:1025E0002C202332000000002263684D747854725E
:1025F000794C6F636B5322282900000063684D7487
:1026000078556E6C6F636B28292C202331000000F5
:1026100063684D7478556E6C6F636B28292C20238A
:102620003200000063684D7478556E6C6F636B53B5
:1026300028292C202331000063684D7478556E6C76
:102640006F636B5328292C20233200000000000008
:10265000000000000000000000000000000000007A
:10266000000000000000000000000000000000006A
:102670000100000000000000000000000000000059
:10268000080002400400024000000B001C00024051
:102690000400024004010C0030000240040002402B
:1026A00008020D0044000240040002400C030E002A
:1026B000580002400400024010040F006C00024069
:1026C0000400024014051000800002400400024093
:1026D00018061100000000000000000000000000CB
:1026E0000402040808000307080808080808080886
:1026F0000B0F0000000000000000000000000000C0
:1027000000040000000600000000000000000000BF
:10271000000202020202020202020202020202029B
:1027200001000000000000000000000000000000A8
:10273000706D5F616C6C6F6328292C202331000061
:102740000000000091100008811300081114000817
:1027500040004000600E0020600E002000000000DD
:10276000FFFFFFFF844B888888888888FFFFFFFF72
:10277000888888888888B8B4FFFFFFFF88888444E9
:1027800088338388FFFFFFFF44888888888888888B
:10279000FFFFFFFF888888888888888800000000FD
:1027A000726561640000000000000000000000008D
:0427B000777200003C
:0427B800000000809D
:04000005080000F0FF
:00000001FF
