:020000040800F2
:1000000000040020D1010008A1020008A10200089C
:10001000A1020008A1020008A1020008A102000834
:10002000A1020008A1020008A1020008F1020008D4
:10003000A1020008A1020008A1020008C1020008F4
:10004000A1020008A1020008A1020008A102000804
:10005000A1020008A1020008A1020008A1020008F4
:10006000A1020008A1020008A1020008312D000829
:10007000812D0008D12D0008212E0008712E0008C6
:10008000C12E0008112F0008A1020008713F0008CE
:10009000813F0008A1020008A1020008A102000897
:1000A000A1020008A1020008A1020008A1020008A4
:1000B000A1020008A1020008A1020008713A00088C
:1000C000913A0008A1020008A1020008A10200085C
:1000D000A1020008A1020008A1020008A102000874
:0C00E000A1020008A1020008A102000813
:1000F000032AC9B270B408D82AB10346121803F80B
:10010000011B9342FBD170BC70478218044601E08A
:1001100004F8011B14F0030FFAD14FF0013303FB75
:1001200001F31FE044F8403C44F83C3C44F8383CC0
:1001300044F8343C44F8303C44F82C3C44F8283C27
:1001400044F8243C44F8203C44F81C3C44F8183C57
:1001500044F8143C44F8103C44F80C3C44F8083C87
:1001600044F8043C161B254640343F2EDADC2C466E
:1001700007E044F8103C44F80C3C44F8083C44F8D0
:10018000043C161B254610340F2EF2DC01E045F826
:10019000043B541B032CFADC01E005F8011B9542DB
:1001A000FBD3B0E7000000000000000000000000EA
:1001B000704700BFAFF30080AFF30080AFF3008063
:1001C000FEE700BFAFF30080AFF30080AFF3008025
:1001D00072B6264C84F309884FF0020484F3148825
:1001E000BFF36F8F224C234D04E04FF05533236053
:1001F00004F10404AC42F8D31F4C1C4D04E04FF052
:100200005533236004F10404AC42F8D304F060FCDD
:100210001A4D1B4C05E02B68236004F1040405F122
:100220000405184B9C42F6D3174C184D04E04FF0D0
:100230000003236004F10404AC42F8D3FFF7B8FFD5
:10024000134C03E02368984704F10404114B9C42CB
:10025000F8D304F055FC104C03E02368984704F1F0
:1002600004040E4B9C42F8D3FFF7AAFF00080020BD
:10027000000000200004002000040020005E0008B0
:10028000000800201008002010080020841600201C
:10029000EC000008EC000008EC000008EC0000088E
:1002A000FEE700BFAFF30080AFF30080AFF3008044
:1002B00072B6FEE7AFF30080AFF30080AFF30080CB
:1002C00008B500F05DFA4FF0200383F3118800F0C9
:1002D00027FA00F095F900F03BFA4FF0000383F3A2
:1002E000118800F075FA00F03BF808BDAFF300800C
:1002F00010B483B0EFF309840194019B03F1200350
:100300000193019B83F309884FF0000383F3118865
:1003100003B010BC704700BFAFF30080AFF30080A4
:1003200008B50D4B4FF000029A600B4B0B4ADA6098
:100330004FF007004FF0100100F0DAF84FF00A001C
:100340004FF4007100F0D4F84FF00B004FF0800133
:1003500000F0CEF808BD00BF00ED00E00000FA0597
:1003600010B483B04FF0200383F311881F4B5B68F8
:1003700003F40063002B32D0EFF309840194019B56
:10038000A3F120030193019B83F30988019B4FF0A4
:100390008072DA61164B9B69002B0BD0144B1B68E3
:1003A0009A68134BDB699B689A4294BF0023012330
:1003B000DBB20AE00E4B1B689A680D4BDB699B6849
:1003C0009A4234BF00230123DBB2002B03D0019BF0
:1003D000084A9A6107E0019B074A9A6103E04FF0DF
:1003E000000383F3118803B010BC704700ED00E0F8
:1003F000400D0020010400080C040008AFF3008049
:1004000000F05EF900F09CFC00F072F900DF00BF24
:1004100003460A462DE9F04FC2F80CD0D3F80CD0B1
:10042000BDE8F08FAFF30080AFF30080AFF3008042
:1004300008B500F05DF94FF0000383F311882846FA
:10044000A04700F0CDFD08BDAFF30080AFF3008002
:1004500010B485B001900091019B03F003034FEAB3
:10046000C30303931E4B019A4FEA92021C49019861
:100470004FEA900000F1C00051F8200003994FF0BE
:10048000FF0404FA01F16FEA010108400399009C9E
:1004900004FA01F140EA010102F1C00243F822101E
:1004A0000F4B019A4FEA5212019901F01F014FF0D0
:1004B000010000FA01F102F1600243F82210084B3A
:1004C000019A4FEA5212019901F01F014FF0010009
:1004D00000FA01F143F8221005B010BC704700BFCC
:1004E00000E100E0AFF30080AFF30080AFF30080E5
:1004F00010B485B001900091019B03F003034FEA13
:10050000C3030393104B019A4FEA92020E490198DC
:100510004FEA900000F1060051F8200003994FF0D7
:10052000FF0404FA01F16FEA010108400399009CFD
:1005300004FA01F140EA010102F1060243F8221037
:1005400005B010BC704700BF00ED00E0AFF30080C5
:1005500082B00190024BDB69024A9A61FEE700BF5C
:10056000400D002060530008AFF30080AFF300801F
:1005700000B583B0FFF7D4FE00F0A2FA00F0D8F97E
:1005800001F066F901F0C4F900F07AF914484FF06F
:10059000400100F01DFC0246124BDA61114BDB6991
:1005A0004FF0010283F820200E4BDB690E4ADA611E
:1005B00000F06EF84FF0000383F3118862B6094B28
:1005C000DB690A4A9A610A4B4FF00002009209481F
:1005D0004FF0C0014FF0010200F0A2FC03B000BDDB
:1005E000D0080020400D00200004002068530008BF
:1005F0005105000810080020AFF30080AFF3008021
:1006000000B583B000F00CF91F4B9B69002B05DD92
:100610001D4B9B6903F1FF321B4B9A611A4BDB693F
:100620005A6A02F101025A62184BDB6803F10102B7
:10063000164BDA60154B1B681A46144B9A4221D0B0
:10064000124B1B689A6802F1FF329A6013E0019B1B
:10065000DB680093019B4FF00002DA60019B1B688E
:100660000A4A5A60019B1A68084B1A60019B1A6972
:10067000009B10469847054B1B680193019B9B68A4
:10068000002BE4D003B000BD400D0020300D002051
:1006900008B5064B1B68002B03D1054B1B68002BCC
:1006A00002D0044800F034F908BD00BF1C09002046
:1006B0002009002080530008AFF30080AFF30080D2
:1006C00008B5084B1B68002B03D1074B1B68002B98
:1006D00002D0064800F01CF9034B4FF001021A60EB
:1006E00008BD00BF1C090020200900208853000815
:1006F00008B5084B1B68002B03D1074B1B68002B68
:1007000002DC064800F004F9034B4FF000021A60C7
:1007100008BD00BF1C0900202009002090530008DC
:1007200008B5084B1B68002B03DD074B1B68002B2B
:1007300002D0064800F0ECF8034B4FF001021A60BB
:1007400008BD00BF1C0900202009002098530008A4
:1007500008B5084B1B68002B03DD074B1B68002BFB
:1007600002DC064800F0D4F8034B4FF000021A6098
:1007700008BD00BF1C09002020090020A05300086C
:1007800008B54FF0200383F311880B4B1B68002B37
:1007900003DB0A4B1B68002B02D0094800F0B8F8B5
:1007A000054B1B6803F10102034B1A604FF0000375
:1007B00083F3118808BD00BF1C0900202009002018
:1007C000A8530008AFF30080AFF30080AFF30080C0
:1007D00008B54FF0200383F311880B4B1B68002BE7
:1007E00003DD0A4B1B68002B02D0094800F090F88B
:1007F000054B1B6803F1FF32034B1A604FF00003F7
:1008000083F3118808BD00BF1C09002020090020C7
:10081000B0530008AFF30080AFF30080AFF3008067
:1008200008B5064B1B68002B03DB054B1B68002B30
:1008300002DC044800F06CF808BD00BF1C09002071
:1008400020090020B8530008AFF30080AFF3008008
:1008500008B5064B1B68002B03D1054B1B68002B0A
:1008600002DC044800F054F808BD00BF1C09002059
:1008700020090020C0530008AFF30080AFF30080D0
:10088000034B4FF040021A60014B024A5A60704716
:10089000240900202C090020AFF30080AFF3008072
:1008A00082B00190124B5B68124AD2681A60104BFA
:1008B0005B68114AD2695A600D4B5B68019A926A73
:1008C0009A600B4B5B68019A92F820201A73084BD0
:1008D0005B6803F11002064B5A60054B5A68074BE0
:1008E0009A4202D3024B064A5A6002B0704700BFD8
:1008F00024090020300D0020400D00202C0D002088
:100900002C090020AFF30080AFF30080AFF300802C
:1009100000B583B00190034B019A1A60FFF7C8FC41
:1009200003B000BD2C0D0020AFF30080AFF30080BA
:10093000074A074B5A60064B5A68054B1A60044B2E
:100940004FF0FF329A60024B4FF00002DA607047BE
:10095000300D0020AFF30080AFF30080AFF30080D4
:1009600000B587B00390029101920093FFF758FF02
:10097000039B002B05D0019B002B02D0029B002B78
:1009800002D11C48FFF7C4FF039B009A1A61039B26
:10099000019ADA60184B1B68059307E0059B9B687A
:1009A000029AD31A0293059B1B680593059B9A68CC
:1009B000029B9A42F2D3039B059A1A60039B1B6821
:1009C0005A68039B5A60039B5B68059A03995160C0
:1009D000059A52681A60039B029A9A60059A064B20
:1009E0009A4205D0059B9A68029BD21A059B9A6091
:1009F00007B000BDD0530008300D0020AFF30080D9
:100A000000B583B00190FFF70BFF019B002B02D1D3
:100A10001348FFF77DFF019BDB68002B02D11148D3
:100A2000FFF776FF019B1A680F4B9A4208D0019B93
:100A30001B68019A12689168019A92688A189A60F4
:100A4000019B5B68019A12681A60019B1B68019AFE
:100A500052685A60019B4FF00002DA6003B000BD9B
:100A6000E0530008F0530008300D0020AFF3008081
:100A700084B00190019B1B680393039B1A68019B40
:100A80001A60019B1B68019A5A60039B184604B0C8
:100A9000704700BFAFF30080AFF30080AFF300807A
:100AA00082B00190019B5B68019A12681A60019BF9
:100AB0001B68019A52685A60019B184602B0704741
:100AC0000B4A0B4B5A600A4B5A68094B1A60084B89
:100AD0004FF000029A60064B4FF014029A61044AEC
:100AE000034B5A61024B5A69014B1A61704700BFB0
:100AF000400D0020AFF30080AFF30080AFF3008023
:100B000000B585B00190019B93F82030002B04D0F4
:100B1000019B93F820300E2B02D11348FFF7F8FE0B
:100B2000019B4FF0000283F82020104B0393039B9E
:100B30001B680393039B9A68019B9B689A42F6D2B9
:100B4000019B039A1A60039B5A68019B5A60019BA0
:100B50005B68039A01995160039A52681A60019B7D
:100B6000184605B000BD00BF10540008400D00201D
:100B700000B585B003468DF80730FFF769FE164BC8
:100B8000DB690393039B9DF8072083F82020124B19
:100B90004FF014029A611048FFF76AFF02460E4BAD
:100BA000DA610D4BDB694FF0010283F820200398D6
:100BB000FFF776FE6B46A3F12402039BDB699A42A2
:100BC00002D20648FFF7A4FE034BDB6918460399DF
:100BD000FFF71EFC05B000BD400D002024540008A6
:100BE00000B585B00190019B0393039B93F82030DF
:100BF0000D2B28D801A252F823F000BF570C000893
:100C0000470C0008470C0008350C0008470C00088A
:100C1000410C0008470C0008470C0008470C00086E
:100C2000470C0008470C0008470C0008470C000858
:100C3000410C0008039B9B6A9A6802F101029A60CA
:100C40000398FFF72DFF039B4FF0FF329A62039842
:100C5000FFF756FF00E000BF05B000BDAFF3008016
:100C600000B589B0034600918DF80730FFF7F0FD1D
:100C7000009BB3F1FF3F14D00F4BDB6903AA104672
:100C800000990E4AFFF76CFE9DF807301846FFF7F3
:100C90006FFF069B002B09D003AB1846FFF7B0FE91
:100CA00004E09DF807301846FFF762FF024BDB694E
:100CB0009B6A184609B000BD400D0020E10B0008FA
:100CC00000B585B001900091FFF7C2FD019B009A2D
:100CD0009A62019B9A68174BDB699B689A4203D81A
:100CE0000198FFF70DFF22E0124BDB691846FFF772
:100CF00007FF03900F4B4FF014029A610D4B019ABE
:100D0000DA61019B4FF0010283F820200398FFF77E
:100D1000C7FD6B46A3F12402039BDB699A4202D212
:100D20000548FFF7F5FD01980399FFF771FB05B042
:100D300000BD00BF400D002024540008AFF3008028
:100D400000B583B0154B4FF014029A61134BDB6969
:100D500001931248FFF78CFE0246104BDA610F4BED
:100D6000DB694FF0010283F820200198FFF7C8FEED
:100D70000198FFF795FD6B46A3F12402019BDB6907
:100D80009A4202D20648FFF7C3FD044BDB691846BE
:100D90000199FFF73DFB03B000BD00BF400D0020EF
:100DA00024540008AFF30080AFF30080AFF300805D
:100DB00084B00190019B1B680393039B1A68019BFD
:100DC0001A60039B184604B0704700BFAFF3008061
:100DD00082B001900091019B009A9A60019B4FF0B4
:100DE000020283F82020019B4FF0000283F82120AB
:100DF000019B009A5A64019B4FF000021A64019B08
:100E00004FF00002DA63019B4FF000025A62019B2F
:100E10004FF0010283F82220019B4FF000029A61FB
:100E2000134A019B1A61124B5A69019B5A61019B3B
:100E30005B690F4A019951610D4A52691A61019B20
:100E400003F12C031A46019BDA62019B03F1300384
:100E50001A46019B5A63019B5A6B019B1A63019BC3
:100E600003F14C02019BDA61019B184602B0704706
:100E7000400D0020AFF30080AFF30080AFF300809F
:100E800084B00390029113468DF8073007E0039B6E
:100E90009DF807201A70039B03F101030393039A43
:100EA000029B9A42F3D304B0704700BFAFF30080B7
:100EB00000B587B00390029101920093039B0593C4
:100EC000FFF7AEFC039B002B08D0029BAF2B05D98C
:100ED000019B7F2B02D8009B002B02D10E48FFF70D
:100EE00017FD039A029BA3F12403D218059BDA6035
:100EF000059BDB68009A1A60059BDB68089A5A60BC
:100F0000059BDB68054A1A6205980199FFF760FFA7
:100F10000346184607B000BD4054000831040008DD
:100F200000B589B00590049103920293059A059B40
:100F300003F14C03104619464FF0FF02FFF7A0FFE4
:100F4000059B03F14C020599049BCB1810461946EA
:100F50004FF05502FFF794FF4FF0200383F3118801
:100F6000FFF7AEFB0A9B009305980499039A029B36
:100F7000FFF79EFF079007984FF00001FFF7A0FED4
:100F8000FFF7B6FB4FF0000383F31188079B184669
:100F900009B000BDAFF30080AFF30080AFF3008075
:100FA00000B583B00190019B002B02D10A48FFF7E6
:100FB000AFFC4FF0200383F31188FFF781FB4FF064
:100FC00006000199FFF74CFEFFF792FB4FF000037C
:100FD00083F3118803B000BD80540008AFF3008094
:100FE00000B583B001904FF0200383F31188FFF721
:100FF00067FB019800F004F803B000BDAFF3008078
:1010000000B585B00190194BDB690393039B019AEE
:101010009A6209E0039B03F12C031846FFF7C8FE10
:1010200003461846FFF76CFD039BDA6A039B03F146
:101030002C039A42EED1039B93F8213003F0030373
:10104000002B09D1039B5B69039A12691A61039B08
:101050001B69039A52695A614FF00E00FFF788FD31
:101060000348FFF755FC05B000BD00BF400D002050
:1010700090540008AFF30080AFF30080AFF300801E
:1010800084B001900091009B0393039B1B68039322
:10109000009B039A9A4205D0039B9A68019B9B6828
:1010A0009A42F2D2019B039A1A60039B5A68019BF1
:1010B0005A60019B5B68039A01995160039A5268D8
:1010C0001A6004B0704700BFAFF30080AFF3008038
:1010D00084B00190019B1B680393039B1A68019BDA
:1010E0001A60019B1B68019A5A60039B184604B062
:1010F000704700BFAFF30080AFF30080AFF3008014
:1011000082B00190019B5B68019A12681A60019B92
:101110001B68019A52685A60019B184602B07047DA
:1011200000B583B00190019B002B02D10848FFF766
:10113000EFFB019B1A46019B5A60019B5A68019B79
:101140001A60019B4FF000029A6003B000BD00BF1F
:10115000E0540008AFF30080AFF30080AFF30080ED
:1011600000B583B001904FF0200383F31188FFF79F
:10117000A7FA019800F00CF8FFF7BAFA4FF0000355
:1011800083F3118803B000BDAFF30080AFF300809C
:1011900000B585B001903C4BDB690293FFF758FB2B
:1011A000019B002B02D13948FFF7B2FB019B9B68E2
:1011B000002B5CD0019B9B68039335E0029B9A68EF
:1011C000039B9A60039B93F82030042B04D0052BDB
:1011D00011D0002B1AD02DE00398FFF791FF0246A3
:1011E000039B9B6A10461946FFF74AFF039B9B6AC5
:1011F0009B68039318E00398FFF782FF0246039B66
:101200009B6A10461946FFF73BFF0CE0039B4FF02B
:10121000010283F820200398FFF772FF0346184667
:10122000FFF76EFC00BF05E0039B9A68029B9B687A
:101230009A42C3D3019B02981946FFF721FF029BF4
:10124000019A9A624FF00400FFF792FC019B9A68A2
:10125000029B9A4202D00E48FFF75AFB029B1A6C7F
:10126000019B9A420DD00B48FFF752FB09E0019B0E
:10127000029A9A60029B1A6C019BDA60029B019AA7
:101280001A6405B000BD00BF400D0020F0540008F6
:101290000055000814550008AFF30080AFF300803C
:1012A00000B587B0334BDB6903934FF0200383F322
:1012B0001188FFF705FA039B1B6C002B02D12E4807
:1012C000FFF726FB039B1B6C9A68039B9A4202D094
:1012D0002A48FFF71DFB039B1B6C0293029BDA68F5
:1012E000039B1A64029B1A68029B9A4233D0039BA9
:1012F0005B6C0493039B1B6C059311E0059B1A68C0
:10130000059B9A4209D0059B1B689A68049B9A42E8
:1013100003D9059B1B689B680493059BDB680593B9
:10132000059B002BEAD1039B049A9A60029B184606
:10133000FFF7CEFE0190029B019A9A60019B1A6C06
:10134000029BDA60019B029A1A6401984FF0000137
:10135000FFF7B6FC03E0029B4FF000029A60FFF734
:10136000C7F94FF0000383F31188029B184607B0BA
:1013700000BD00BF400D00203C550008505500083E
:1013800000B583B001900091FFF74AFA019B002B52
:1013900002D11648FFF7BCFA019BDA6B009B1A4397
:1013A000019BDA63019B93F82030082B07D1019B46
:1013B000DA6B019B9B6A02EA0303002B0DD1019BB0
:1013C00093F82030092B0FD1019BDA6B019B9B6AAC
:1013D0001A40019B9B6A9A4206D10198FFF790FB45
:1013E00003464FF000029A6203B000BDCC550008DE
:1013F00000B585B001900091FFF712FA019B002B18
:1014000002D10D48FFF784FA019B1B6803930DE09E
:10141000039B5A68039B9968009B41EA03031046AB
:101420001946FFF7ADFF039B1B680393019B039ACB
:101430009A42EDD105B000BDE0550008AFF3008041
:1014400082B001900091009A019B1A60009B5A683B
:10145000019B5A60019B5B68009A01995160009A58
:1014600052681A6002B07047AFF30080AFF300809B
:1014700000B583B001900091009B002B02D14FF08A
:10148000FF3310E0094BDB69019A9A62074BDA6976
:10149000019B10461946FFF7D3FF4FF00D0000994E
:1014A000FFF7DEFB0346184603B000BD400D0020E9
:1014B00084B00390029101920093039B1A46039B10
:1014C0005A60039B5A68039B1A60039B4FF000020B
:1014D0009A60039B029A5A61039B5A69039B9A6123
:1014E000039B9A69039BDA60029A019BD218039BC3
:1014F0001A61039B009ADA6104B07047AFF3008071
:1015000000B585B0019000914FF0200383F311885E
:10151000FFF7D6F8019BDB69002B14D0019BDB6938
:101520000198984710E001980099FFF7A1FF0390F8
:10153000039B002B08DAFFF7DBF84FF0000383F37F
:101540001188039B25E000BF019B9B68002BEAD01C
:10155000019B9B6803F1FF32019B9A60019B9B6991
:101560001A788DF80B2003F10102019B9A61019B0F
:101570009A69019B1B699A4203D3019BDA68019B1C
:101580009A61FFF7B5F84FF0000383F311889DF8D7
:101590000B30184605B000BDAFF30080AFF30080FC
:1015A00000B587B00390029101920093039BDB6921
:1015B00004934FF000030593019B002B02D12F48A9
:1015C000FFF7A6F94FF0200383F31188FFF778F8AF
:1015D000049B002B12D0049B039898470FE00398BC
:1015E0000099FFF745FF0346002B08D0FFF780F86E
:1015F0004FF0000383F31188059B3BE000BF039B82
:101600009B68002BEBD0039B9B6803F1FF32039B8D
:101610009A60039B9B691978029A1170029A02F1F1
:101620000102029203F10102039B9A61039B9A69F2
:10163000039B1B699A4203D3039BDA68039B9A615D
:10164000FFF756F84FF0000383F31188059B03F171
:1016500001030593019B03F1FF330193019B002BD1
:1016600001D1059B06E04FF0200383F31188FFF7BB
:1016700027F8ADE7184607B000BD00BF20560008A8
:1016800084B00390029101920093039B1A46039B3E
:101690005A60039B5A68039B1A60039B019A9A60E5
:1016A000039B029A5A61039B5A69039B9A61039BAD
:1016B0009A69039BDA60029A019BD218039B1A6114
:1016C000039B009ADA6104B0704700BFAFF300805B
:1016D00000B587B003900B4601928DF80B304FF0A8
:1016E000200383F31188FEF7EBFF0FE003980199C5
:1016F000FFF7BEFE0590059B002B07DAFEF7F8FF0B
:101700004FF0000383F31188059B2CE0039B9B683B
:10171000002BEBD0039B9B6803F1FF32039B9A6085
:10172000039B5B699DF80B201A7003F10102039B78
:101730005A61039B5A69039B1B699A4203D3039B1B
:10174000DA68039B5A61039BDB69002B03D0039B80
:10175000DB6903989847FEF7CBFF4FF0000383F354
:1017600011884FF00003184607B000BDAFF30080AA
:1017700000B587B00390029101920093039BDB694F
:1017800004934FF000030593019B002B02D12F48D7
:10179000FFF7BEF84FF0200383F31188FEF790FFA8
:1017A0000EE003980099FFF763FE0346002B07D075
:1017B000FEF79EFF4FF0000383F31188059B41E085
:1017C000039B9B68002BECD0039B9B6803F1FF32CB
:1017D000039B9A60039B5B69029A12781A7003F16B
:1017E0000102039B5A61029B03F101030293039BD5
:1017F0005A69039B1B699A4203D3039BDA68039BD4
:101800005A61049B002B02D0049B03989847FEF773
:101810006FFF4FF0000383F31188059B03F1010371
:101820000593019B03F1FF330193019B002B01D131
:10183000059B07E04FF0200383F31188FEF740FF7C
:1018400000BFBDE7184607B000BD00BF3456000812
:10185000074B03F1070323F007031A46054B1A60F1
:10186000054B23F007031A46044B1A60704700BF6C
:1018700084160020600D002000500020640D002020
:1018800000B585B001904FF0200383F31188FEF777
:1018900017FF019800F00CF80390FEF729FF4FF0B6
:1018A000000383F31188039B184605B000BD00BFF9
:1018B00000B585B00190FEF7B3FF019B03F107036C
:1018C00023F0070301930D4B1B681A460C4B1B6852
:1018D000D31A1A46019B9A4202D24FF0000309E044
:1018E000074B1B680393064B1A68019BD218044BE5
:1018F0001A60039B184605B000BD00BF640D0020B0
:10190000600D0020AFF30080AFF30080AFF30080E4
:1019100008B5074B074A1A60054B4FF000029A6062
:10192000034B4FF00002DA600348FFF7F9FB08BDF4
:10193000680D002081180008780D0020AFF30080AA
:1019400008B501F0EDFB00F043FE064802F020FA76
:1019500000F00EF800F0ECFA01F032F803F0C0F8F5
:1019600008BD00BFF05B0008AFF30080AFF300805C
:1019700008B502F09DF808BDAFF30080AFF300801A
:1019800000B583B00190019B4FF001021A70019BDA
:101990004FF000025A60019B03F10C031846FFF759
:1019A000BFFB03B000BD00BFAFF30080AFF300800A
:1019B00000B583B001900091019B002B02D0009BE9
:1019C000002B02D11448FEF7A3FF019B1B78012BCB
:1019D0000AD0019B1B78022B06D0019B1B78052B9C
:1019E00002D00E48FEF794FF4FF0200383F31188D6
:1019F000FEF766FE019B009A5A60019802F078F8A3
:101A0000019B4FF002021A70FEF772FE4FF00003C6
:101A100083F3118803B000BD5056000860560008DB
:101A200000B58BB00790059204930B46ADF81A30C1
:101A3000079B002B15D0BDF81A30002B11D0049B4A
:101A4000002B0ED0059B002B0BD00D9B002B05D03F
:101A50000D9B002B05D00C9B002B02D00E9B002B66
:101A600002D11F48FEF754FF079B1B78022B02D0C0
:101A70001C48FEF74DFF4FF0200383F31188FEF75B
:101A80001FFE079B4FF000029A60079B4FF0030276
:101A90001A70BDF81A300C9A00920D9A01920E9AA3
:101AA000029207981946059A049B02F0C1F8099022
:101AB000099BB3F1FF3F04D1079B4FF005021A7059
:101AC00003E0079B4FF002021A70FEF711FE4FF081
:101AD000000383F31188099B18460BB000BD00BFBB
:101AE000A0560008C0560008AFF30080AFF3008096
:101AF00000B583B00190019B93F84220019B83F8CD
:101B00004A20019802F094FC019B5B681B68002B43
:101B100006D0019B5B681B6801984FF00101984754
:101B2000019B4FF003021A7003B000BDAFF30080B9
:101B300010B584B00190019B93F8403003F07F0210
:101B4000019B93F841304FEA032342EA0303B3F5C4
:101B5000407F63D0B3F5407F12DC022B00F00081A0
:101B6000022B05DC002B28D0012B00F0EB80D8E104
:101B7000B3F5807F32D0B3F5817F00F05681D0E19C
:101B8000B3F5C06F78D0B3F5C06F08DC40F2023215
:101B9000934200F08481B3F5A06F5FD0C1E1B3F54B
:101BA000106F00F0A08040F60242934200F0CA801D
:101BB000B3F5006F00F08780B3E1019B03F14803A8
:101BC0001A46019B5A63019B4FF002029A63019BE4
:101BD0004FF00002DA634FF00103A4E1019B93F898
:101BE0004230012B17D1019BB3F8483023F0020398
:101BF0009AB2019BA3F84820019B4FF000025A6360
:101C0000019B4FF000029A63019B4FF00002DA63E0
:101C10004FF0010387E14FF0000384E1019B93F84B
:101C20004230012B17D1019BB3F8483043F0020337
:101C30009AB2019BA3F84820019B4FF000025A631F
:101C4000019B4FF000029A63019B4FF00002DA63A0
:101C50004FF0010367E14FF0000364E1019B4FF097
:101C600000025A63019B4FF000029A63019B9C4A59
:101C7000DA634FF0010356E1019B5B685C68019BEE
:101C800093F84310019B93F84220019B03F140031A
:101C900003F104031B880198A0470390039B002BCA
:101CA00002D14FF000033EE1039B5A68019B5A6347
:101CB000039B1A68019B9A63019B4FF00002DA6351
:101CC0004FF001032FE1019B03F14B02019B5A638B
:101CD000019B4FF001029A63019B4FF00002DA630F
:101CE0004FF001031FE1019B93F84220019B83F811
:101CF0004B20019B93F84B30002B04D1019B4FF0FC
:101D000003021A7003E0019B4FF004021A70019B5A
:101D10005B681B68002B06D0019B5B681B68019801
:101D20004FF002019847019B4FF000025A63019B5C
:101D30004FF000029A63019B4FF00002DA634FF00C
:101D40000103F0E0019B674A5A63019B4FF00202D6
:101D50009A63019B4FF00002DA634FF00103E2E067
:101D6000019B93F84430DBB25BB2002B2EDA019B6F
:101D700093F8443003F00F03DBB20198194602F0E8
:101D80005FFC0346012B02D0022B0ED01BE0019B0F
:101D9000554A5A63019B4FF002029A63019B4FF030
:101DA0000002DA634FF00103BDE0019B4F4A5A6322
:101DB000019B4FF002029A63019B4FF00002DA632D
:101DC0004FF00103AFE04FF00003ACE0019B93F84C
:101DD000443003F00F03DBB20198194602F010FC07
:101DE0000346012B02D0022B0ED01BE0019B3E4A82
:101DF0005A63019B4FF002029A63019B4FF000026D
:101E0000DA634FF001038EE0019B384A5A63019B6D
:101E10004FF002029A63019B4FF00002DA634FF029
:101E2000010380E04FF000037DE0019B93F8423016
:101E3000002B02D04FF0000375E0019B93F8443073
:101E400003F00F03002B1BDD019B93F84430DBB242
:101E50005BB2002B0ADA019B93F8443003F00F03C6
:101E6000DBB20198194602F00BFE09E0019B93F8E2
:101E7000443003F00F03DBB20198194602F0D8FD9D
:101E8000019B4FF000025A63019B4FF000029A63DE
:101E9000019B4FF00002DA634FF0010343E0019B26
:101EA00093F84230002B02D04FF000033BE0019B3F
:101EB00093F8443003F00F03002B23DD019B93F8CC
:101EC0004430DBB25BB2002B12DA019B93F8443052
:101ED00003F00F03DBB20198194602F089FD11E00F
:101EE000F11A0008F05A0008105B0008005B0008B7
:101EF000019B93F8443003F00F03DBB201981946BD
:101F000002F056FD019B4FF000025A63019B4FF017
:101F100000029A63019B4FF00002DA634FF0010365
:101F200001E04FF00003184604B010BDAFF300808D
:101F300008B502F015FA08BDAFF30080AFF30080DA
:101F400082B00190019B4FF001021A70019B4FF08B
:101F500000025A60019B4FF000029A60019B4FF013
:101F600000029A81019B4FF00002DA8102B07047B3
:101F700000B585B001900091019B002B02D0009B21
:101F8000002B02D11C48FEF7C3FC4FF0200383F363
:101F90001188FEF795FB019B1B78012B06D0019B56
:101FA0001B78022B02D01548FEF7B2FC019B009A69
:101FB0005A604FF0000303930BE0019B039A02F178
:101FC00004024FF0000143F82210039B03F10103C8
:101FD0000393039B072BF0D9019802F0C9F9019BE9
:101FE0004FF002021A70FEF783FB4FF0000383F3F9
:101FF000118805B000BD00BF4057000850570008C9
:1020000000B585B003900B4601928DF80B30FEF7BA
:1020100007FC039B002B02D0019B002B02D11F4821
:10202000FEF776FC039B1B78042B02D01C48FEF7BE
:102030006FFC9DF80B20039B02F1040253F8223041
:10204000002B02D01748FEF763FC019B1B6803F0CE
:102050001003002B11D1019B5B6918464FF0000162
:102060004FF00C02FEF744F8019B9B6918464FF0B5
:1020700000014FF01002FEF73BF89DF80B20039B88
:1020800002F10402019943F822109DF80B300398E5
:10209000194602F0DDF905B000BD00BF7C5700080D
:1020A00094570008B0570008AFF30080AFF30080EA
:1020B00000B583B001900B468DF80330FEF7B0FBFE
:1020C000019B002B02D11648FEF722FC019BDB8905
:1020D0001A469DF8033042FA03F303F00103DBB222
:1020E000002B02D04FF0010317E0019BDB899AB26D
:1020F0009DF803304FF0010101FA03F39BB242EA6D
:1021000003039BB29AB2019BDA819DF803300198D8
:10211000194602F00DFC4FF00003184603B000BD55
:1021200004580008AFF30080AFF30080AFF30080E5
:1021300000B583B001900B468DF80330FEF770FBBD
:10214000019B002B02D11648FEF7E2FB019B9B8905
:102150001A469DF8033042FA03F303F00103DBB2A1
:10216000002B02D04FF0010317E0019B9B899AB22C
:102170009DF803304FF0010101FA03F39BB242EAEC
:1021800003039BB29AB2019B9A819DF80330019898
:10219000194602F0EDFB4FF00003184603B000BDF6
:1021A0001C580008AFF30080AFF30080AFF300804D
:1021B00000B585B00190019B4FF002021A70019B9F
:1021C0004FF00002A3F84820019B4FF0000283F873
:1021D0004A20019B4FF0000283F84B20019B4FF0F7
:1021E00000029A81019B4FF00002DA814FF0000358
:1021F00003930BE0019B039A02F104024FF00001EC
:1022000043F82210039B03F101030393039B072B65
:10221000F0D9019B4FF0000283F83020019802F0C2
:10222000D7F805B000BD00BFAFF30080AFF300806A
:1022300000B585B001900B468DF80330019B4FF03F
:10224000000283F83020019B03F140039DF8032036
:10225000019811461A4602F013FA019B5B689B68CD
:10226000002B07D0019B5B689B6801989847034649
:10227000002B28D1019B93F8403003F06003002B22
:1022800005D10198FFF754FC0346002B1BD10198A0
:102290004FF0000102F0ACFB01984FF0000102F09A
:1022A00087FB019B5B681B68002B06D0019B5B686A
:1022B0001B6801984FF005019847019B4FF00502FC
:1022C00083F830206CE0019B03F1400303F1060327
:1022D0001B880393019B9A6B039B9A4202D9019B33
:1022E000039A9A63019B93F84030DBB25BB2002BF8
:1022F0002BDA019B9B6B002B13D0019B4FF001024B
:1023000083F83020019B5A6B019B9B6B01984FF027
:10231000000102F0CDFA01984FF0000102F028FB15
:102320003EE0019B4FF0020283F8302001984FF00D
:1023300000014FF000024FF0000302F079FA01981B
:102340004FF0000102F0F4FA2AE0019B9B6B002B96
:1023500013D0019B4FF0030283F83020019B5A6B8E
:10236000019B9B6B01984FF0000102F061FA01980C
:102370004FF0000102F0DCFA12E0019B4FF0040282
:1023800083F8302001984FF000014FF000024FF029
:10239000000302F08DFA01984FF0000102F0E8FA14
:1023A00005B000BDAFF30080AFF30080AFF3008055
:1023B00000B585B001900B468DF80330019B93F872
:1023C0003030012B02D0042B3BD048E0019B03F1BD
:1023D000400303F106031B880393019B9A6B039B45
:1023E0009A421AD2019B9B6B019A1269128AB3FB23
:1023F000F2F102FB01F29B1A002B0ED101984FF073
:1024000000014FF000024FF0000302F051FA019872
:102410004FF0000102F0ACFA3CE0019B4FF00202E9
:1024200083F8302001984FF000014FF000024FF088
:10243000000302F0FDF901984FF0000102F078FA74
:1024400028E0019BDB6B002B03D0019BDB6B019829
:102450009847019B4FF0000283F830201AE0019862
:102460004FF0000102F0C4FA01984FF0000102F0B1
:102470009FFA019B5B681B68002B06D0019B5B6881
:102480001B6801984FF005019847019B4FF005022A
:1024900083F8302005B000BDAFF30080AFF30080BB
:1024A00000B583B001900B468DF80330019B93F883
:1024B0003030022B15D0032B28D1019B4FF00402A2
:1024C00083F8302001984FF000014FF000024FF0E8
:1024D000000302F0EDF901984FF0000102F048FA14
:1024E0002FE0019B1B699B69DB68002B0DD1019BD1
:1024F000DB6B002B03D0019BDB6B01989847019BA2
:102500004FF0000283F830201BE000BF01984FF02D
:10251000000102F06DFA01984FF0000102F048FA54
:10252000019B5B681B68002B06D0019B5B681B68E6
:1025300001984FF005019847019B4FF0050283F881
:10254000302003B000BD00BFAFF30080AFF30080C8
:1025500082B00190024B5A68019B9A6002B07047AA
:10256000001000E0AFF30080AFF30080AFF3008015
:1025700084B00190114B5B680393019B9B68039AA5
:10258000D21A0F4B1B68D21A019B9A60019B9A6862
:10259000019BDB689A4204D9019B9A68019BDA602F
:1025A00009E0019B9A68019B1B699A4203D2019B37
:1025B0009A68019B1A6104B0704700BF001000E0E8
:1025C000880D0020AFF30080AFF30080AFF30080F0
:1025D00000B587B00A4B4FF000021A6001AB1846F5
:1025E00000F016F8019B01AA10469847029B01AA29
:1025F00010469847039A024B1A6007B000BD00BF0F
:10260000880D0020AFF30080AFF30080AFF30080AF
:1026100082B00190019B094A1A60019B084A5A60E6
:10262000019B4FF000029A60019B4FF00002DA60BC
:10263000019B4FF0FF321A6102B07047512500082C
:1026400071250008AFF30080AFF30080AFF3008086
:1026500084B00190019B1B680393039B1A68019B44
:102660001A60019B1B68019A5A60039B184604B0CC
:10267000704700BFAFF30080AFF30080AFF300807E
:1026800000B585B0039002910192039B03F13003E2
:1026900018460299019A4FF0FF33FFF769F8034695
:1026A000184605B000BD00BFAFF30080AFF3008057
:1026B00000B585B0039002910192039B03F11003D2
:1026C00018460299019A4FF0FF33FEF769FF03465F
:1026D000184605B000BD00BFAFF30080AFF3008027
:1026E00082B00190019B9B6B002B14BF0023012340
:1026F000184602B0704700BFAFF30080AFF3008010
:1027000082B00190019B9B69002B14BF0023012321
:10271000184602B0704700BFAFF30080AFF30080EF
:1027200000B585B003900B4601928DF80B30039BEA
:1027300003F130029DF80B3010461946019AFEF75E
:10274000C7FF0346184605B000BD00BFAFF30080C9
:1027500000B583B001900091019B03F1100318466E
:102760000099FEF7CDFE0346184603B000BD00BF3A
:1027700000B585B00390029101920093039B03F191
:10278000300318460299019A009BFEF7F1FF0346B9
:10279000184605B000BD00BFAFF30080AFF3008066
:1027A00000B585B00390029101920093039B03F161
:1027B000100318460299019A009BFEF7F1FE0346AA
:1027C000184605B000BD00BFAFF30080AFF3008036
:1027D00000B585B001904FF0200383F31188FDF719
:1027E0006FFF019B9B680393019B4FF000029A606F
:1027F000FDF77EFF4FF0000383F31188039B18461B
:1028000005B000BDAFF30080AFF30080AFF30080F0
:1028100000B585B00190019B5B690393039BD3F8DE
:10282000D0301B68DB8903F00803002B52D1039BD7
:102830009B69002B4ED1FDF75BFF4FF0000383F344
:102840001188039BD3F8D0301A68039BDB691046CC
:102850004FF003011A464FF0400301F051FF029080
:102860004FF0200383F31188FDF72AFF039BD3F871
:10287000D0301B6818464FF00301FFF719FC039B8B
:102880009B6843F00402039B9A60039B03F10403DB
:1028900018464FF00001FEF7ABFD039BDA69039B7E
:1028A0009A62039B029A9A610DE0039B03F1100365
:1028B0001846FFF7CDFE03461846FEF721F90346FA
:1028C0004FF000029A62039B1A69039B03F1100305
:1028D0009A42EAD105B000BDAFF30080AFF30080AB
:1028E00000B585B00190019B9B690393039B1B6C12
:1028F0001A46039BDB6BD31A1A46039B9B6BD31AB6
:102900000293039BD3F8D0301B689B8903F002032A
:10291000002B52D1FDF7ECFE4FF0000383F311883A
:10292000039BD3F8D0301A68039BDB6B10464FF043
:1029300001011A46029B01F033FF4FF0200383F39D
:102940001188FDF7BDFE039BD3F8D0301B681846F5
:102950004FF00101FFF7ECFB039B9B6843F008027B
:10296000039B9A60039B03F1040318464FF0000198
:10297000FEF73EFD039BDA6B039B5A64039B1B6CC3
:102980001A46039BDB6BD31A1A46039B9A630DE02E
:10299000039B03F130031846FFF75AFE034618461F
:1029A000FEF7AEF803464FF000029A62039B1A6BE3
:1029B000039B03F130039A42EAD105B000BD00BF8A
:1029C000704700BFAFF30080AFF30080AFF300802B
:1029D00000B583B00190019B184A1A60019B03F176
:1029E00004031A46019B5A60019B4FF000029A6053
:1029F000019B4FF001021A73019B03F11002019B2E
:102A000003F15003104619464FF040020C4BFEF7FD
:102A10004FFD019B03F13002019B03F1900310462F
:102A200019464FF04002074BFEF72AFE019A019B20
:102A30005A62019A019B9A6403B000BD205B0008B2
:102A400011280008E1280008AFF30080AFF30080F0
:102A500000B583B001900091019B002B02D1184872
:102A6000FDF756FF4FF0200383F31188FDF728FE92
:102A7000019B1B7B012B06D0019B1B7B022B02D0F1
:102A80001048FDF745FF019B009AC3F8D020009B3A
:102A90001B68019A9A60019B4FF002021A73FDF7BE
:102AA00027FE4FF0000383F31188009B1A68009BF8
:102AB00003F1040310461946FFF75AFA03B000BDAC
:102AC0007058000880580008AFF30080AFF3008012
:102AD00082B00190019B93F8403003F06003202BFB
:102AE00037D1019B93F84130212B04D0222B1ED0EB
:102AF000202B0ED02AE0019B184A5A63019B4FF00D
:102B000007029A63019B4FF00002DA634FF0010362
:102B100021E0019B114A5A63019B4FF007029A631F
:102B2000019B4FF00002DA634FF0010313E0019BB9
:102B30004FF000025A63019B4FF000029A63019B21
:102B40004FF00002DA634FF0010304E04FF000039E
:102B500001E04FF00003184602B070470008002063
:102B600000B585B001900B468DF80330019B9B6842
:102B700003934FF0200383F31188FDF7D1FD039BEE
:102B80001B6C1A46039BDB6BD31A1A46039B9B6B89
:102B9000D31A0293029B002B4CD0FDF7D9FD4FF0C6
:102BA000000383F31188039BDB6B9DF803200198DE
:102BB00011461A46029B01F0F3FD4FF0200383F308
:102BC0001188FDF7ADFD9DF8033001981946FFF718
:102BD000AFFA039B9B6843F00802039B9A60039B38
:102BE00003F1040318464FF00001FEF701FC039BBC
:102BF000DA6B039B5A64039B1B6C1A46039BDB6BCB
:102C0000D31A1A46039B9A630DE0039B03F130032A
:102C10001846FFF71DFD03461846FDF771FF0346F2
:102C20004FF000029A62039B1A6B039B03F130037F
:102C30009A42EAD1FDF78CFD4FF0000383F311882F
:102C400005B000BDAFF30080AFF30080AFF30080AC
:102C500000B585B001900B468DF80330019B9B6851
:102C600003934FF0200383F31188FDF759FD039B75
:102C70009B69002B48D1FDF76BFD4FF0000383F3F8
:102C80001188039BDB699DF80320019811461A46C1
:102C90004FF0400301F034FD02904FF0200383F326
:102CA0001188FDF73DFD9DF8033001981946FFF7A7
:102CB000FFF9039B9B6843F00402039B9A60039B0C
:102CC00003F1040318464FF00001FEF791FB039B4C
:102CD000DA69039B9A62039B029A9A610DE0039B57
:102CE00003F110031846FFF7B3FC03461846FDF73F
:102CF00007FF03464FF000029A62039B1A69039B89
:102D000003F110039A42EAD1FDF722FD4FF00003D0
:102D100083F3118805B000BDAFF30080AFF30080EE
:102D200082B001900B468DF8033002B0704700BFAF
:102D300000B583B0FDF724FD0C4B1B6803F00F03B7
:102D400001930A4B4FF00F025A60094B1B68002B8E
:102D500006D0074B1B68064A5268104601999847EF
:102D6000FDF736FDFDF7FCFA03B000BD00000240A0
:102D7000900D0020AFF30080AFF30080AFF3008030
:102D800000B583B0FDF7FCFC0D4B1B684FEA131335
:102D900003F00F0301930A4B4FF0F0025A60094B06
:102DA0009B68002B06D0074B9B68064AD2681046EA
:102DB00001999847FDF70CFDFDF7D2FA03B000BD6D
:102DC00000000240900D0020AFF30080AFF30080C0
:102DD00000B583B0FDF7D4FC0D4B1B684FEA1323FD
:102DE00003F00F0301930A4B4FF470625A60094BD2
:102DF0001B69002B06D0074B1B69064A5269104617
:102E000001999847FDF7E4FCFDF7AAFA03B000BD6D
:102E100000000240900D0020AFF30080AFF300806F
:102E200000B583B0FDF7ACFC0D4B1B684FEA1333C4
:102E300003F00F0301930A4B4FF470425A60094BA1
:102E40009B69002B06D0074B9B69064AD269104646
:102E500001999847FDF7BCFCFDF782FA03B000BD6D
:102E600000000240900D0020AFF30080AFF300801F
:102E700000B583B0FDF784FC0D4B1B684FEA13438C
:102E800003F00F0301930A4B4FF470225A60094B71
:102E90001B6A002B06D0074B1B6A064A526A104673
:102EA00001999847FDF794FCFDF75AFA03B000BD6D
:102EB00000000240900D0020AFF30080AFF30080CF
:102EC00000B583B0FDF75CFC0D4B1B684FEA135354
:102ED00003F00F0301930A4B4FF470025A60094B41
:102EE0009B6A002B06D0074B9B6A064AD26A1046A3
:102EF00001999847FDF76CFCFDF732FA03B000BD6D
:102F000000000240900D0020AFF30080AFF300807E
:102F100000B583B0FDF734FC0D4B1B684FEA13631B
:102F200003F00F0301930A4B4FF070625A60094B94
:102F30001B6B002B06D0074B1B6B064A526B1046CF
:102F400001999847FDF744FCFDF70AFA03B000BD6C
:102F500000000240900D0020AFF30080AFF300802E
:102F600082B0144B4FF000021A604FF0000301933F
:102F700016E01149019A13464FEA43039B184FEAA2
:102F80008303CB181B684FF000021A600B4B019AA9
:102F90004FF0000143F83210019B03F1010301934C
:102FA000019B062BE5DD064B4FF0FF325A6002B065
:102FB000704700BF8C0D0020505B0008900D002072
:102FC00000000240AFF30080AFF30080AFF3008059
:102FD00000B585B00390029101920093039B002BF2
:102FE00002D13148FDF794FC039B5B7A4FF001025C
:102FF00002FA03F31A462D4B1B6802EA0303002B67
:1030000002D04FF001034BE0039B5B7A1A46284B3A
:10301000019943F83210039B5B7A254A4FEAC303B8
:10302000D318009A5A60039B5B7A4FF0010202FAB0
:1030300003F31A461D4B1B681A431C4B1A601B4BAB
:103040001B6803F07F03002B05D01A4B194A526905
:1030500042F001025A61039B1B68039A12681268CE
:1030600022F001021A60039B5B68039A127A4FF008
:103070000F0101FA02F21A60039B1B684FF0000275
:103080001A60019B002B09D0039B9B7A1A46029B76
:103090004FEA031310461946FDF7DAF94FF0000323
:1030A000184605B000BD00BFB05800088C0D0020C8
:1030B000900D002000100240AFF30080AFF30080BD
:1030C000134B134A126842F480721A60114B1B6A48
:1030D00003F44073B3F5407F07D00E4B4FF48032BA
:1030E0001A620C4B4FF000021A620A4B1B6A03F47F
:1030F0000043002B0BD1074B064A126A42F4407280
:103100001A62044B034A126A42F400421A62704780
:103110000070004000100240AFF30080AFF3008069
:1031200008B51E4B1B691D4B4FF0FF321A611B4B3C
:103130004FF000021A61194BDB68184B4FF0FF3259
:10314000DA60164B4FF00002DA60154B154A5A60F0
:10315000134B4FF000029A60114B4FF007021A60B8
:10316000114B114AD26842F08072DA600F4B0F4A5D
:10317000126842F001021A60084B084AD26942F014
:103180008052DA61054B054AD26942F00062DA6189
:10319000FFF796FFFFF7E4FE08BD00BF00100240F6
:1031A00010E000E03F190100F0ED00E0001000E049
:1031B000294B294A126842F001021A6000BF264BCF
:1031C0001B6803F00203002BF9D0234B224A12683C
:1031D00002F0F9021A60204B4FF000025A6000BF63
:1031E0001D4B5B6803F00C03002BF9D11A4B1A4AF4
:1031F000126842F480321A6000BF174B1B6803F458
:103200000033002BF9D0144B134A526842F4E812F1
:103210005A60114B104A126842F080721A6000BF67
:103220000D4B1B6803F00073002BF9D00A4B0B4ABF
:103230005A600B4B4FF012021A60074B064A526855
:1032400042F002025A6000BF034B5B6803F00C03BC
:10325000082BF9D1704700BF0010024000641D0028
:1032600000200240AFF30080AFF30080AFF3008096
:1032700084B00190019B1B6B0393039B4FF40042AE
:103280001A80039B4FF000021A80039B4FF000024C
:103290009A80039B4FF000029A82019BDB6A1B68B5
:1032A000019AD26A1268126822F001021A60019B28
:1032B000DB6A5B68019AD26A127A4FF00F0101FA59
:1032C00002F21A60019B9B6A1B68019A926A12685B
:1032D000126822F001021A60019B9B6A5B68019AE6
:1032E000926A127A4FF00F0101FA02F21A6004B0EA
:1032F000704700BFAFF30080AFF30080AFF30080F2
:1033000000B585B00190019B0393039BDB69002B03
:1033100010D0039BDB6902930398FFF7A9FF039B7F
:103320004FF00002DA61029B4FF0FF329A6202987E
:10333000FDF7E6FB05B000BDAFF30080AFF3008002
:1033400000B587B00190019B1B6B0493019B5B68E8
:103350005B680393019B5B681B7A8DF80B30019BC4
:10336000002B06D0039B002B03DD039A6E4B9A4281
:1033700002DD6E48FDF7CCFA049B9B889BB223F0DC
:103380003F039AB2049B9A80049B9B889BB243F0B4
:1033900024039AB2049B9A804FF00003ADF81630D4
:1033A00040F6FF73ADF81430039A614B9A4236DC55
:1033B0009DF80B30012B02D05E48FDF7A9FA039B64
:1033C0004FEA43025C4B93FBF2F102FB01F29B1AC2
:1033D000002B02D05948FDF79BFA039B4FEA4303A9
:1033E000554A92FBF3F3ADF81430BDF81430032BBB
:1033F00002D85348FDF78CFABDF814304FEA035356
:103400004FEA13539AB2BDF8163042EA03039BB257
:10341000ADF81630049B4FF025021A8475E0039A2C
:10342000484B9A4271DC9DF80B30022B06D09DF878
:103430000B30032B02D04448FDF76AFA9DF80B309D
:10344000022B1AD1039A13464FEA43039A183A4BB8
:1034500093FBF2F102FB01F29B1A002B02D03B48D6
:10346000FDF756FA039A13464FEA43039B18324A74
:1034700092FBF3F3ADF8143029E09DF80B30032BE9
:1034800025D1039A13464FEA83039B184FEA830220
:103490009A18294B93FBF2F102FB01F29B1A002BC5
:1034A00002D02B48FDF734FA039A13464FEA830300
:1034B0009B184FEA83029B181F4A92FBF3F3ADF867
:1034C0001430BDF8163043F48043ADF81630BDF823
:1034D0001430002B02D11F48FDF71AFABDF8143042
:1034E0004FEA03534FEA13539BB26FEA43436FEA29
:1034F00053439AB2BDF8163042EA03039BB2ADF8CB
:103500001630049B4FF00B021A84BDF8142040F6CD
:10351000FF739A4202D91048FDF7FAF9049BBDF8EF
:1035200016209A8307B000BD00093D00F05800083E
:10353000A086010008590008005125022059000802
:1035400038590008801A06005059000868590008C8
:103550008059000898590008B0590008AFF300805E
:1035600086B00190019B1B6B0493019B5B681B78E9
:103570008DF80F30049B1B88ADF816309DF80F3086
:10358000022B0AD0032B15D0012B1AD1BDF816300F
:1035900023F00A03ADF8163013E0BDF8163043F0FF
:1035A0000203ADF81630BDF8163023F00803ADF86D
:1035B000163006E0BDF8163043F00A03ADF81630B9
:1035C00000BF049BBDF816201A8006B0704700BFEC
:1035D00000B587B00190019B1B6B0593059B1B8B6E
:1035E0009BB20493059B9B8A9BB20393049B4FEA77
:1035F0000342039B42EA030323F07F43504A934272
:1036000012D04F4A934203D84E4A934207D08DE0DE
:103610004D4A934231D04D4A934241D086E0019BBE
:103620001A8C059B1A8281E0059B9B889BB223F430
:1036300000739AB2059B9A80019B9B6A1B68019A52
:10364000926A1268126842F001021A60059B9B8818
:103650009BB243F480539AB2059B9A80019B9B6A6C
:103660001B685B68012B60D8059B1B889BB223F409
:1036700080639AB2059B1A8058E0059B9B889BB299
:1036800023F400739AB2059B9A80019BDB6A1B6846
:10369000019AD26A1268126842F001021A6045E08B
:1036A000019B9B6A1B685B68002B0FD0019B1B8CE6
:1036B00043F001039AB2019B1A84059B1B889BB2BD
:1036C00043F4A0639AB2059B1A8036E0059B9B8861
:1036D0009BB223F400739AB2059B9A80059B1B88CA
:1036E0009BB243F400739AB2059B1A804FF02003FB
:1036F00083F31188FDF714F8019BDB69002B0DD0D3
:10370000019BDB690293019B4FF00002DA61029B8F
:103710004FF000029A620298FDF7F2F9FDF718F8EF
:103720004FF0000383F3118800E000BF039B03F018
:103730000A03002B01D0059B1B8B07B000BD00BF07
:10374000020003000100030082000700840007005C
:1037500000B585B001900091019B1B6B0393009B0A
:1037600003F00803002B01D0FCF7A2FD019B9B6A2C
:103770001B68019A926A1268126822F001021A60AC
:10378000019B9B6A5B68019A926A127A4FF00F0163
:1037900001FA02F21A60039B9B889BB223F48053C8
:1037A0009AB2039B9A80039B1B889BB223F480638D
:1037B0009AB2039B1A80039B1B889BB243F400734D
:1037C0009AB2039B1A804FF0200383F31188FCF711
:1037D000A7FF019BDB69002B0DD0019BDB690293E6
:1037E000019B4FF00002DA61029B4FF000029A62E7
:1037F0000298FDF785F9FCF7ABFF4FF0000383F368
:10380000118805B000BD00BFAFF30080AFF30080AA
:1038100000B585B001900091019B1B6B0393009B49
:1038200003F00803002B01D0FCF742FD019BDB6A8B
:103830001B68019AD26A1268126822F001021A60AB
:10384000019BDB6A5B68019AD26A127A4FF00F0122
:1038500001FA02F21A60039B9B889BB243F4007347
:103860009AB2039B9A8005B000BD00BFAFF3008001
:1038700000B587B00190019B1B6B04934FF02003B0
:1038800083F31188FCF74CFF019BDB6A1B68019AEC
:10389000D26A1268126822F001021A60019BDB6A88
:1038A0005B68019AD26A127A4FF00F0101FA02F2B4
:1038B0001A60019B9B6A1B68019A926A12681268DF
:1038C00022F001021A60019B9B6A5B68019A926A6E
:1038D000127A4FF00F0101FA02F21A60FCF738FF7A
:1038E0004FF0000383F311884FF000030593049B0E
:1038F0009B8A9BB203F48073002B0BD0049B9B8AA2
:103900009BB223F480739AB2049B9A82059B43F086
:1039100001030593049B9B8A9BB203F40073002B65
:103920000BD0049B9B8A9BB223F400739AB2049B36
:103930009A82059B43F002030593049B9B8A9BB2EA
:1039400003F48063002B1BD0049B9B8A9BB223F45F
:1039500080639AB2049B9A82049B9B889BB223F457
:1039600000739AB2049B9A80049B1B889BB243F419
:1039700000739AB2049B1A80059B43F004030593DD
:10398000049B9B8A9BB203F40063002B0BD0049B27
:103990009B8A9BB223F400639AB2049B9A82059B94
:1039A00043F008030593049B9B8A9BB203F4805366
:1039B000002B0BD0049B9B8A9BB223F480539AB2BA
:1039C000049B9A82059B43F010030593049B9B8AFA
:1039D0009BB203F48043002B0BD0049B9B8A9BB2C9
:1039E00023F480439AB2049B9A82059B43F0200300
:1039F0000593049B9B8A9BB29BB21BB2002B0DDAF2
:103A0000049B9B8A9BB24FEA43434FEA53439AB2CB
:103A1000049B9A82059B43F040030593059B002B72
:103A200020D0019B059A9A604FF0200383F3118800
:103A3000FCF776FE019BDB69002B0DD0019BDB6957
:103A40000393019B4FF00002DA61039B6FF00102C8
:103A50009A620398FDF754F8FCF77AFE4FF00003E2
:103A600083F3118807B000BDAFF30080AFF300808F
:103A700008B5FCF785FE0448FFF7AAFDFCF7A8FE91
:103A8000FCF76EFC08BD00BFC80D0020AFF300803E
:103A900008B5FCF775FE0448FFF7EAFEFCF798FE50
:103AA000FCF75EFC08BD00BFC80D0020AFF300802E
:103AB00008B50848FDF764FF064B4FF00002DA61D5
:103AC000044B054A1A63034B044A9A62014B044AA9
:103AD000DA6208BDC80D002000540040985B000861
:103AE0008C5B0008AFF30080AFF30080AFF3008081
:103AF00000B585B00190019B1B6B0393019B4FF0B8
:103B00008A025A62019B1B78012B47D1019A3F4BD5
:103B10009A4243D13E4B3E4A126942F400121A6166
:103B20003B4B4FF000021A61019B9A6A394B1046D9
:103B30004FF00A011A46019BFFF74AFA0290029BD6
:103B4000002B02D03448FCF7E3FE019BDA6A334BCA
:103B500010464FF00A011A46019BFFF739FA02900E
:103B6000029B002B02D02E48FCF7D2FE284B284A9D
:103B7000D26942F40012DA614FF01F004FF0A00149
:103B8000FCF766FC4FF020004FF0A001FCF760FC52
:103B9000019B5B6A43F48052019B5A62019BDB6A82
:103BA0001B68019A526A42F010021A60019B9B6ADC
:103BB0001B68019A526A1A60019B9B6A1B68039AF0
:103BC00002F110029A60019BDB6A1B68039A02F102
:103BD00010029A60039B4FF400421A80039B4FF03F
:103BE00000021A80039B4FF410629A800198FFF73D
:103BF000A7FB0198FFF7B4FC039B1B889BB243F023
:103C000001039AB2039B1A8005B000BDC80D0020C5
:103C10000010024051370008C85900081138000848
:103C2000DC590008AFF30080AFF30080AFF30080F1
:103C300000B58BB00390019200930B46ADF80A30AB
:103C4000039B1B6B09930D9B002B08D00D9B012B35
:103C500002D90C9B002B02D14848FCF759FE0E9B61
:103C6000B3F1FF3F06D004AB18460E99444A039BBC
:103C7000FCF776FEFCF73CFD4FF0000383F3118860
:103C8000BDF80A304FEA43039AB2039B1A84039BA0
:103C90004FF000029A60039BDB6A1B68019ADA60AE
:103CA000039BDB6A1B68009A5A60039B9B6A1B6834
:103CB0000C9ADA60039B9B6A1B680D9A5A6015E0A8
:103CC0004FF0200383F31188FCF7FAFC0E9BB3F14D
:103CD000FF3F05D0079B002B02D14FF0FF3349E097
:103CE000FCF706FD4FF0000383F31188099B1B8B43
:103CF0009BB203F00203002BE2D1099B1B889BB20D
:103D000003F40073002BDBD14FF0200383F3118801
:103D1000FCF7D6FC0E9BB3F1FF3F05D0079B002BB1
:103D200002D14FF0FF3325E0099B9B889BB243F4FF
:103D300000739AB2099B9A80099B1B889BB243F43B
:103D400080739AB2099B1A800E4BDA69039BDA6181
:103D50004FF00200FCF70CFF0E9BB3F1FF3F06D0C3
:103D6000079B002B03D004AB1846FCF749FE054B1C
:103D7000DB699B6A18460BB000BD00BF145A0008EF
:103D800001330008400D0020AFF30080AFF3008046
:103D900082B00190214B214A926942F07D029A61E2
:103DA0001F4B019A1268DA601D4B019A92685A60A3
:103DB0001B4B019A52681A601A4B019AD268DA605A
:103DC000184B019A52695A60164B019A12691A608F
:103DD000154B019A9269DA60134B019A126A5A6084
:103DE000114B019AD2691A60104B019A526ADA603B
:103DF0000E4B019AD26A5A600C4B019A926A1A6071
:103E00000B4B019A126BDA60094B019A926B5A6064
:103E1000074B019A526B1A6002B0704700100240C3
:103E200000080140000C0140001001400014014056
:103E300000180140AFF30080AFF30080AFF30080C3
:103E40008AB0039002910192019B032B03D1039B43
:103E5000029A1A6105E0019B042B02D1039B029A8E
:103E60005A612E4A019BD3181B7804934FF000032C
:103E70000693069B0793079B0893089B09934FF0B3
:103E80000003059335E0089B4FEA03130893099B51
:103E90004FEA03130993069B4FEA03130693079B0C
:103EA0004FEA03130793029B03F08003002B04D116
:103EB000089B43F00F03089304E0069A049B42EA30
:103EC00003030693029B03F40043002B04D1099BD8
:103ED00043F00F03099304E0079A049B42EA0303AB
:103EE0000793029B4FEA43030293059B03F10103EF
:103EF0000593059B072BC6D9039B5A68099B1A405B
:103F0000079B1A43039B5A60039B1A68089B1A403D
:103F1000069B1A43039B1A600AB07047B05B000807
:103F200082B00190019B4FF04002DA6402B070470A
:103F300000B585B001900091019BDB6C0393019B60
:103F4000DA6C009BD218019BDA64019BDB6CB3F541
:103F5000007F02D90348FCF7DBFC039B184605B041
:103F600000BD00BF405A0008AFF30080AFF30080EF
:103F700008B5FCF705FCFCF72BFCFCF7F1F908BDD4
:103F800000B589B0824B0593FCF7FAFB814B5B6C63
:103F90000793079B03F48063002B12D00598FEF76C
:103FA00007F9059B5B681B68002B06D0059B5B68C7
:103FB0001B6805984FF000019847764B6FF48062BC
:103FC0005A64079B03F40063002B15D0714B714AB0
:103FD000126C42F008021A64059B5B681B68002B98
:103FE00006D0059B5B681B6805984FF00301984756
:103FF000684B6FF400625A64079B03F48053002BF4
:104000001DD0644B9B6C0493049B03F40043002B72
:1040100011D1604B5F4A126C22F008021A64059BB2
:104020005B681B68002B06D0059B5B681B680598C6
:104030004FF004019847574B6FF480525A64079B26
:1040400003F40073002B00F07781059B5B68DB684D
:10405000002B04D0059B5B68DB68059898474D4BA7
:104060006FF400725A6468E14A4B079A02F00F023B
:104070000392039A53F822300293059B039A02F1AC
:10408000040253F822300193029B03F08003002BBB
:1040900000F0A0803F4A3F4B039953F8213023F4AE
:1040A000F04323F0F003039942F82130019B1B6891
:1040B00003F01003002B1ED0059B9B899AB2039B33
:1040C0004FF0010101FA03F39BB26FEA03039BB2C5
:1040D00002EA03039BB29AB2059B9A81059B039A5D
:1040E00002F1040253F822309B68039AD2B2059879
:1040F000114698476EE0274B1A6D039B4FEAC303A6
:10410000D31803F1005303F540534FEA43039B8850
:104110009BB20693019B5B69019A52691168069AEA
:104120008A181A60019B5B69019A52699168069A24
:104130008A189A60019B5B69019A52695168069AD4
:104140008A1A5A60019B5B695B68002B24D0019B33
:104150005B695A68019B1B8A9A4203D9019B1B8A9F
:10416000069303E0019B5B695B680693039BDAB2ED
:10417000019B5B691B68059811461A46069B00F077
:104180000FFB039BDBB20598194600F0F1FB21E021
:10419000FC0D0020005C0040059B9B899AB2039BAC
:1041A0004FF0010101FA03F39BB26FEA03039BB2E4
:1041B00002EA03039BB29AB2059B9A81059B039A7C
:1041C00002F1040253F822309B68039AD2B2059898
:1041D00011469847029B03F40043002B00F0A8808F
:1041E0005C4A5C4B039953F8213023F4784323F065
:1041F0007003039942F82130029B03F40063002B03
:104200000CD0059B039A02F1040253F822305B683C
:10421000039AD2B205981146984789E0019B1B6822
:1042200003F01003002B1ED0059BDB899AB2039B81
:104230004FF0010101FA03F39BB26FEA03039BB253
:1042400002EA03039BB29AB2059BDA81059B039AAB
:1042500002F1040253F82230DB68039AD2B20598C7
:104260001146984764E0039BD9B2019B9B695A6849
:10427000019B9B699B68059800F042FA0690039B9E
:10428000DBB20598194600F053FB019B9B69019A2C
:1042900092695168069A8A185A60019B9B69019A33
:1042A0009269D168069A8A18DA60019B9B69019A23
:1042B00092699168069A8A1A9A60019B9B69019A91
:1042C0009269128802F1FF3292B21A80019B9B69B7
:1042D0001B88002B0ED01F4A1E4B039953F8213028
:1042E00023F4904323F0700383F44051039B42F87E
:1042F00023101DE0059BDB899AB2039B4FF001015F
:1043000001FA03F39BB26FEA03039BB202EA0303D1
:104310009BB29AB2059BDA81059B039A02F10402D3
:1043200053F82230DB68039AD2B2059811469847B9
:10433000084B5B6C079300E000BF079B03F400434E
:10434000002B7FF491AEFCF743FAFCF709F809B0B3
:1043500000BD00BF005C0040AFF30080AFF3008001
:1043600008B50248FDF7ECFD08BD00BFFC0D0020BC
:1043700000B583B00190019B1B78012B20D1019ADD
:10438000104B9A4219D1104B0F4AD26942F40002E5
:10439000DA610E4B4FF001021A644FF013004FF038
:1043A0006001FCF755F84FF014004FF0E001FCF706
:1043B0004FF8064B4FF000021A640198FDF7F8FE23
:1043C00003B000BDFC0D002000100240005C004066
:1043D00000B585B00190144B4FF000021A65124BE6
:1043E0004FF000025A64104B4FF08002DA644FF431
:1043F0001C430393019B5B68DB68002B03D0039B8A
:1044000043F400730393084B039A1A640198FFF76F
:1044100087FD019B054A1A6101984FF0000100F0E9
:1044200017F805B000BD00BF005C0040D05B00087D
:1044300082B00190044B019A92F84A2062F07F0208
:10444000D2B2DA6402B07047005C0040AFF3008083
:1044500010B586B001900B468DF803309DF803200F
:10446000019B02F1040253F822300493049B1B6861
:1044700003F00303022B08D0032B0BD0012B0ED12A
:104480004FF48063ADF814300DE04FF00003ADF849
:10449000143008E04FF4C063ADF8143003E04FF47B
:1044A0000073ADF81430049B9B68002B05D0BDF859
:1044B000143043F02003ADF81430049BDB68002B6C
:1044C00022D0049B1B6803F01003002B16D0019B25
:1044D000DB899AB29DF803304FF0010101FA03F332
:1044E0009BB242EA03039BB29AB2019BDA81BDF808
:1044F000143043F44053ADF8143005E0BDF81430E7
:1045000043F40053ADF814303C4A9DF80310BDF855
:1045100014009DF8033040EA030323F4F04323F032
:10452000700342F82130354A9DF80310334B9DF853
:10453000030053F82000BDF8144047F6700304EA66
:10454000030380EA030342F82130049B5B8A3E2B7D
:1045500018D9049B5B8A03F1FF3343F01F0303F177
:104560000103002B01DA03F11F034FEA63134FEA43
:1045700083239BB26FEA43436FEA53439BB2ADF888
:10458000163011E0049B5B8A03F1FF3343F0010313
:1045900003F101034FEAD372D3184FEA63039BB2CE
:1045A0004FEA8323ADF81630144B1A6D9DF8033093
:1045B0004FEAC303D31803F1005303F540534FEA06
:1045C00043030393039B4FF000029A80039BBDF8C3
:1045D00016209A81049B1B8A01981946FFF7A8FCB4
:1045E0000246039B1A60049B5B8A01981946FFF7F9
:1045F0009FFC0246039B9A6006B010BD005C004021
:1046000082B001900B468DF803300C4B9DF80320CF
:1046100053F8223003F44053002B03D0B3F5805FEE
:1046200003D005E04FF0000304E04FF0010301E088
:104630004FF00203184602B0704700BF005C004014
:1046400082B001900B468DF803300B4B9DF8032090
:1046500053F8223003F03003002B02D0102B03D08C
:1046600005E04FF0000304E04FF0010301E04FF0DC
:104670000203184602B07047005C0040AFF30080B0
:1046800088B003900B4601928DF80B30184B1A6DD1
:104690009DF80B304FEAC303D31803F1005303F521
:1046A00040534FEA43030593059B9B6803F1005376
:1046B00003F540534FEA430307934FF0000306937B
:1046C00010E0019B079A126892B21A80079B03F1CF
:1046D00004030793019B03F102030193069B03F17B
:1046E00001030693069B032BEBD908B0704700BF6C
:1046F000005C0040AFF30080AFF30080AFF30080B8
:1047000088B00390019200930B468DF80B30224B3A
:104710001A6D9DF80B304FEAC303D31803F1005311
:1047200003F540534FEA43030693069B9B6803F14E
:10473000005303F540534FEA43030793069B9B89BD
:104740009BB24FEA83534FEA93530593009A059B1C
:104750009A4201D9059B0093009B03F101034FEAA4
:104760005303009310E0019B079A126892B21A80DB
:10477000079B03F104030793019B03F102030193D9
:10478000009B03F1FF330093009B002BEBD1059BB3
:10479000184608B0704700BF005C0040AFF30080CF
:1047A00086B00390019200930B468DF80B301C4BA2
:1047B0001A6D9DF80B304FEAC303D31803F1005371
:1047C00003F540534FEA43030493049B1B6803F132
:1047D000005303F540534FEA43030593009B9AB2FD
:1047E000049B9A80009B03F101034FEA530300935B
:1047F00010E0019B1B881A46059B1A60059B03F17C
:1048000004030593019B03F102030193009B03F151
:10481000FF330093009B002BEBD106B0704700BF25
:10482000005C0040AFF30080AFF30080AFF3008086
:1048300086B00390019200930B468DF80B309DF8E3
:104840000B20039B02F1040253F822309B6905936D
:10485000059B019A5A60059B009A9A60059B4FF050
:104860000002DA60059B9B68002B04D1059B4FF08A
:1048700001021A8019E09DF80B20039B02F104024B
:1048800053F822305B8A1A46009BD31803F1FF329B
:104890009DF80B10039B01F1040153F821305B8A52
:1048A000B2FBF3F39AB2059B1A8006B0704700BFC3
:1048B00000B587B00390019200930B468DF80B3042
:1048C0009DF80B20039B02F1040253F822305B6930
:1048D0000593059B019A1A60059B009A5A60059BF7
:1048E0004FF000029A609DF80B20039B02F1040236
:1048F00053F822301B8A1A46009B9A4208D29DF830
:104900000B20039B02F1040253F822301B8A009310
:104910009DF80B3003981946019A009BFFF740FF62
:1049200007B000BDAFF30080AFF30080AFF30080AD
:1049300082B001900B468DF80330094A9DF80310B0
:10494000074B9DF8030053F8203023F4904323F0E5
:10495000700383F4405342F8213002B0704700BF27
:10496000005C0040AFF30080AFF30080AFF3008045
:1049700082B001900B468DF80330094A9DF8031070
:10498000074B9DF8030053F8203023F4F04323F045
:10499000400383F0300342F8213002B0704700BF7B
:1049A000005C0040AFF30080AFF30080AFF3008005
:1049B00082B001900B468DF80330094A9DF8031030
:1049C000074B9DF8030053F8203023F4904323F065
:1049D000700383F4805342F8213002B0704700BF67
:1049E000005C0040AFF30080AFF30080AFF30080C5
:1049F00082B001900B468DF80330094A9DF80310F0
:104A0000074B9DF8030053F8203023F4F04323F0C4
:104A1000400383F0100342F8213002B0704700BF1A
:104A2000005C0040AFF30080AFF30080AFF3008084
:104A300082B001900B468DF803300E4B9DF8032099
:104A400053F8223003F44053B3F5405F0FD0094AC6
:104A50009DF80310074B9DF8030053F8203023F412
:104A6000F04323F0400383F4005342F8213002B0B6
:104A7000704700BF005C0040AFF30080AFF30080E0
:104A800082B001900B468DF803300D4B9DF803204A
:104A900053F8223003F03003302B0FD0084A9DF832
:104AA0000310074B9DF8030053F8203023F4F04324
:104AB00023F0400383F0200342F8213002B0704716
:104AC000005C0040AFF30080AFF30080AFF30080E4
:104AD00008B5FEF76DFB08BDAFF30080AFF30080B3
:104AE000704700BFAFF30080AFF30080AFF30080EA
:104AF000014A014B1A6070475C0E0020AFF3008042
:104B000008B5FCF71DFFFBF733FD00F0D1FB00F00B
:104B10004FF900F025FA00F0EBFA00F081F84FF0C1
:104B2000020000F005FC4FF47A70FCF739FAFAE75E
:104B300082B001908DF803108DF80220ADF800309E
:104B40009DF80330022B05D0032B05D0012B0ED18D
:104B5000094B0EE0094B0CE09DF80230032B06D800
:104B60009DF802304FEAC302054BD31801E04FF025
:104B70000003184602B07047505C0008B05C0008A3
:104B8000505D0008AFF30080AFF30080AFF300800A
:104B900000B583B001900B468DF803309DF80330CB
:104BA000052B2ED801A252F823F000BF034C0008B9
:104BB000034C0008C54B0008034C0008034C0008D8
:104BC000034C00084FF0200383F31188FBF7A8FD86
:104BD00001984FF001010C4AFDF712FA01984FF0CD
:104BE00002010A4AFDF70CFA01984FF00301084A46
:104BF000FDF706FAFBF7ACFD4FF0000383F31188D5
:104C000000E000BF03B000BD705D0008905D0008CB
:104C1000B05D0008AFF30080AFF30080AFF3008019
:104C200008B50748FDF7D4FE05480649FDF710FF13
:104C3000054B4FF400625A61FFF75AFF08BD00BFF1
:104C4000600E0020D05D000800100140AFF300802E
:104C500000B583B00190434B4FF001025A614FF011
:104C60000100FCF79DF93F4B4FF004025A614FF0F1
:104C70000100FCF795F93B4B4FF004021A614FF02D
:104C80000100FCF78DF9374B4FF001021A614FF02C
:104C90000100FCF785F9334B4FF002025A614FF0E7
:104CA0000100FCF77DF9304B4FF000021A602F4BEA
:104CB0004FF001021A602E4B4FF000021A8038E0CC
:104CC000284B4FF004025A614FF00100FCF768F9DD
:104CD000244B4FF004021A614FF00100FCF760F919
:104CE000204B9B684FEAD3039BB203F001039AB2B7
:104CF000204B1A801F4B1B88002B02D01B4B1B68BC
:104D000001E04FF00003184A12689A18164B1A6017
:104D1000164B1B684FEA4302144B1A604FF0010018
:104D2000FCF73EF9124B1B8803F101039AB2104BBA
:104D30001A800F4B1B881BB20F2BC1DD094B4FF0A4
:104D400002021A614FF00100FCF72AF90A48FCF749
:104D500007FA054B1A68019B1A60FCF7A1FA03B029
:104D600000BD00BF00080140F8100020FC1000202A
:104D70000011002002110020340F0020AFF300804A
:104D800000B583B00190064BDB69064A9A614FF08B
:104D90000100FCF705F90448FFF75AFFF7E700BFE9
:104DA000400D0020505A0008440F0020AFF300804F
:104DB00000B583B01B484FF008014FF00202FFF727
:104DC0003FF8184B4FF001021A61164B4FF00202E8
:104DD0001A61144B4FF004021A6112484FF001019E
:104DE0004FF00602FFF72CF80E484FF002014FF08B
:104DF0000602FFF725F80B484FF004014FF00602BA
:104E0000FFF71EF80848FCF78BF94FF000030093FA
:104E100006484FF4D8714FF04002054BFCF780F87C
:104E200003B000BD00080140340F0020480F0020EF
:104E3000814D0008AFF30080AFF30080AFF3008036
:104E400008B53348FCF78CF9324B1A68324B1A60BC
:104E5000FCF726FA304B1A68304B1B689A4254D044
:104E60002D4B1A682D4B1A602D4B4FF020025A61C2
:104E70004FF00100FCF794F8294B4FF040021A6103
:104E80004FF00100FCF78CF8264B4FF000421A60FF
:104E9000254B4FF01F021A8031E0214B4FF02002CA
:104EA0005A614FF00100FCF77BF81C4B1A681D4B50
:104EB0001B6802EA0303002B04D0194B4FF0800259
:104EC0001A6103E0164B4FF080025A614FF0010067
:104ED000FCF766F8124B4FF020021A614FF0010008
:104EE000FCF75EF80F4B1B684FEA53020D4B1A603C
:104EF0000D4B1B8803F1FF339AB20B4B1A800A4B00
:104F00001B881BB2002BC8DA00E000BF08BD00BF41
:104F10000411002018110020D012002014110020CC
:104F200000080140D4120020D8120020AFF3008006
:104F300000B583B00190054BDB69054A9A614FF0DB
:104F40000100FCF72DF8FFF77BFFF8E7400D00208C
:104F5000605A0008AFF30080AFF30080AFF3008029
:104F600000B583B01D4B4FF010021A611B4B4FF080
:104F700040021A61194B4FF020021A61174B4FF093
:104F800080021A6115484FF010014FF00602FEF73B
:104F900057FF12484FF040014FF00602FEF750FF56
:104FA0000E484FF020014FF00602FEF749FF0B4874
:104FB0004FF080014FF00602FEF742FF0848FCF771
:104FC000AFF84FF00003009306484FF4D8714FF04C
:104FD0004002054BFBF7A4FF03B000BD00080140F1
:104FE0000411002020110020314F0008AFF3008091
:104FF00000B589B00590304BDB69304A9A6100E01A
:1050000000BF4FF4FA70FBF7CBFF2D4B9B684FEAC4
:10501000D3339BB203F001039AB2294B9B684FEA4A
:1050200093339BB203F001039BB24FEA43039BB25D
:1050300042EA03039AB2224B9B684FEA53339BB276
:1050400003F001039BB24FEA83039BB242EA0303DE
:10505000ADF81E30BDF81E30184600F069F9194B46
:105060004FF47A721A601848FCF77AF8174B1A78DE
:10507000174B1A70FCF714F9BDF81E30072BBFD17F
:10508000144B4FF000021A60134B1B781A46134B57
:105090000C4909684FF0000000904FF000000190AB
:1050A00002910F4811461A464FF00403FCF7B8FC72
:1050B0000246084B1A60A4E7400D0020705A000811
:1050C00000100140B0140020DC120020080800206D
:1050D000B4140020B8140020090800200C08002097
:1050E000C80D0020AFF30080AFF30080AFF3008065
:1050F00000B585B032484FF400414FF00202FEF790
:105100009FFE2F484FF480414FF00202FEF798FEB9
:105110002B484FF400514FF00202FEF791FE294850
:105120004FF040014FF01102FEF78AFE25484FF084
:1051300080014FF01102FEF783FE4FF06400FBF791
:105140002FFFFCF715FC20482049FCF731FC4FF0FD
:105150000003ADF80E300FE0BDF90E30BDF80E20A3
:10516000D2B202F11002D1B2194AD154BDF80E30B8
:1051700003F10103ADF80E30BDF90E30012BEBDD6C
:10518000144B4FF000021A60134B4FF000021A60EC
:10519000104B4FF000025A600F4B4FF000025A6064
:1051A0000E48FBF7BDFF4FF0000300930C484FF48F
:1051B000D8714FF040020B4BFBF7B2FE05B000BDBB
:1051C00000100140000C0140C80D0020F05D0008F7
:1051D000EC120020F0120020F8120020DC12002057
:1051E00000130020F14F0008AFF30080AFF3008000
:1051F00000B583B00190284BDB69284A9A61284B9F
:105200004FF480425A61264B4FF400525A61244BAE
:105210004FF480525A614FF0FA00FBF7C1FE21486B
:10522000FBF79EFF204B1A68204B1A60FCF738F8FA
:105230001E4B1B6803F00103DBB2002B04D0184B9C
:105240004FF480421A6103E0154B4FF480425A61DB
:10525000164B1B6803F00203002B04D0104B4FF4D5
:1052600000521A6103E00E4B4FF400525A610F4B8B
:105270001B6803F00403002B04D0094B4FF4805249
:105280001A6103E0064B4FF480525A614FF0FA0066
:10529000FBF786FEB3E700BF400D0020E05A000890
:1052A000000C0140BC140020CC140020801600200B
:1052B00000B583B0184B4FF480421A61164B4FF47F
:1052C00000521A61144B4FF480521A6112484FF485
:1052D00080414FF00602FEF7B3FD0F484FF4005136
:1052E0004FF00602FEF7ACFD0B484FF480514FF033
:1052F0000602FEF7A5FD0948FBF712FF4FF0000379
:10530000009307484FF4D8714FF04002054BFBF76C
:1053100007FE03B000BD00BF000C0140BC1400201C
:10532000D0140020F1510008AFF30080AFF30080EB
:1053300000B583B001900548FBF712FF044B019ABA
:105340001A60FBF7ADFF03B000BD00BFBC14002026
:10535000CC140020AFF30080AFF30080AFF30080E7
:1053600069646C65000000006D61696E00000000FA
:105370005356233100000000535623320000000032
:10538000535623330000000053562334000000001E
:10539000535623350000000053562336000000000A
:1053A00053562337000000005356233800000000F6
:1053B00053562339000000005356233130000000BB
:1053C00053562331310000000000000000000000AF
:1053D000226368565453657449222829000000004E
:1053E0002263685654526573657449222829000067
:1053F0006368565452657365744928292C202331FB
:10540000000000000000000000000000000000009C
:10541000636853636852656164794928292C2023A5
:1054200031000000737461636B206F766572666C87
:105430006F77000000000000000000000000000086
:10544000226368546864437265617465492228293F
:1054500000000000226368546864536574507269E8
:105460006F7269747922282900000000636854680B
:1054700064526573756D6528292C20233100000066
:10548000226368546864536C6565702228290000A3
:105490006368546864457869745328292C20233143
:1054A0000000000022636854686457616974222810
:1054B0002900000063685468645761697428292CC6
:1054C0002023310063685468645761697428292C6B
:1054D0002023320000000000000000000000000057
:1054E0002263684D7478496E69742228290000008F
:1054F0002263684D74784C6F636B53222829000037
:1055000063684D74784C6F636B5328292C202331CA
:105510000000000063684D74784C6F636B5328295A
:105520002C202332000000002263684D74785472EE
:10553000794C6F636B5322282900000063684D7417
:1055400078556E6C6F636B28292C20233100000086
:1055500063684D7478556E6C6F636B28292C20231B
:105560003200000063684D7478556E6C6F636B5346
:1055700028292C202331000063684D7478556E6C07
:105580006F636B5328292C20233200000000000099
:1055900022636845767452656769737465724D61FC
:1055A000736B222829000000226368457674556ECB
:1055B00072656769737465722228290022636845E1
:1055C00076745369676E616C2228290022636845EE
:1055D00076745369676E616C4922282900000000C7
:1055E00022636845767442726F6164636173744DBF
:1055F00061736B49222829002263684576744469E7
:10560000737061746368222829000000636845761E
:1056100074446973706174636828292C20233100F5
:1056200022636849515265616454696D656F757490
:10563000222829002263684F5157726974655469A2
:105640006D656F75742228290000000000000000BD
:1056500022693263537461727422282900000000A9
:10566000693263537461727428292C20233100003D
:105670002269326353746F702228290069326353A0
:10568000746F7028292C20233100000022693263B6
:105690004765744572726F727322282900000000FA
:1056A000226932634D61737465725472616E736DF9
:1056B000697454696D656F757422282900000000B3
:1056C0006932634D61737465725472616E736D6992
:1056D0007454696D656F757428292C20233100007E
:1056E000226932634D6173746572526563656976D0
:1056F0006554696D656F7574222829006932634DA0
:1057000061737465725265636569766528292C201A
:105710002331000022693263416371756972654209
:1057200075732228290000002269326352656C6576
:105730006173654275732228290000000000000093
:10574000227573625374617274222829000000006C
:10575000757362537461727428292C202331000000
:105760002275736253746F70222829007573625317
:10577000746F7028292C2023310000002275736279
:10578000496E6974456E64706F696E744922282988
:1057900000000000757362456E61626C65456E6461
:1057A000706F696E744928292C2023310000000095
:1057B000757362456E61626C65456E64706F696E8B
:1057C000744928292C2023320000000022757362BE
:1057D00044697361626C65456E64706F696E747361
:1057E00049222829000000007573624469736162D0
:1057F0006C65456E64706F696E74734928292C203E
:1058000023310000227573625374617274526563B0
:1058100065697665492228290000000022757362B7
:1058200053746172745472616E736D697449222885
:1058300029000000227573625374616C6C526563B9
:105840006569766549222829000000002275736287
:105850005374616C6C5472616E736D697449222863
:10586000290000000000000000000000000000000F
:105870002273647553746172742228290000000039
:10588000736475537461727428292C2023310000CD
:1058900022736453746F7022282900007364755357
:1058A000746F7028292C20233100000000000000B4
:1058B00022646D61416C6C6F6361746522282900FC
:1058C00022646D6152656C65617365222829000050
:1058D000646D6152656C6561736528292C202331E4
:1058E00000000000000000000000000000000000B8
:1058F000226932635F6C6C645F7365745F636C6FA5
:10590000636B2228290000006932635F6C6C645F5E
:105910007365745F636C6F636B28292C20233100DF
:105920006932635F6C6C645F7365745F636C6F6333
:105930006B28292C202332006932635F6C6C645F12
:105940007365745F636C6F636B28292C20233300AD
:105950006932635F6C6C645F7365745F636C6F6303
:105960006B28292C202334006932635F6C6C645FE0
:105970007365745F636C6F636B28292C202335007B
:105980006932635F6C6C645F7365745F636C6F63D3
:105990006B28292C202336006932635F6C6C645FAE
:1059A0007365745F636C6F636B28292C2023370049
:1059B0006932635F6C6C645F7365745F636C6F63A3
:1059C0006B28292C202338006932635F6C6C645F7C
:1059D000737461727428292C202331006932635F4B
:1059E0006C6C645F737461727428292C20233200FC
:1059F000226932635F6C6C645F6D61737465725FA2
:105A0000726563656976655F74696D656F7574222B
:105A100028290000226932635F6C6C645F6D6173DA
:105A20007465725F7472616E736D69745F74696DB1
:105A3000656F757422282900000000000000000036
:105A4000706D5F616C6C6F6328292C20233100001E
:105A500072656164000000000000000000000000AA
:105A6000777200000000000000000000000000004D
:105A700069000000256400006F6B3A73740D0A0022
:105A800065723A332061726773206578706563745C
:105A900065640D0A000000006F6B3A616464720D6A
:105AA0000A0000006572723A61726720657870655D
:105AB000637465640D0A00006F6B3A6D720D0A0025
:105AC0006F6B3A6275660D0A000000006F6B3A2535
:105AD0006400000000000000000000000000000062
