:020000040800F2
:100000000004002011010008E1010008E1010008DE
:10001000E1010008E1010008E1010008E101000838
:10002000E1010008E1010008E101000831020008D7
:10003000E1010008E1010008E101000801020008F7
:10004000E1010008E1010008E1010008E101000808
:10005000E1010008E1010008E1010008E1010008F8
:10006000E1010008E1010008E1010008B11C0008FD
:10007000011D0008511D0008A11D0008F11D000808
:10008000411E0008911E0008E1010008E126000859
:10009000F1260008E1010008E1010008E101000883
:1000A000E1010008E1010008E1010008E1010008A8
:1000B000E1010008E1010008E101000881240008D5
:1000C000A1240008E1010008E1010008E1010008A5
:1000D000E1010008E1010008E1010008E101000878
:0C00E000E1010008E1010008E101000856
:1000F000704700BFAFF30080AFF30080AFF3008024
:10010000FEE700BFAFF30080AFF30080AFF30080E5
:1001100072B6264C84F309884FF0020484F31488E5
:10012000BFF36F8F224C234D04E04FF05533236013
:1001300004F10404AC42F8D31F4C1C4D04E04FF012
:100140005533236004F10404AC42F8D303F048F8BB
:100150001A4D1B4C05E02B68236004F1040405F1E3
:100160000405184B9C42F6D3174C184D04E04FF091
:100170000003236004F10404AC42F8D3FFF7B8FF96
:10018000134C03E02368984704F10404114B9C428C
:10019000F8D303F035F8104C03E02368984704F1D6
:1001A00004040E4B9C42F8D3FFF7AAFF000800207E
:1001B000000000200004002000040020A03B0008F4
:1001C000000800200008002000080020E4130020A0
:1001D000EC000008EC000008EC000008EC0000084F
:1001E000FEE700BFAFF30080AFF30080AFF3008005
:1001F00072B6FEE7AFF30080AFF30080AFF300808C
:1002000008B500F00DFA4FF0200383F3118800F0D9
:10021000D7F900F045F900F0EBF94FF0000383F354
:10022000118800F025FA00F03BF808BDAFF300801C
:1002300010B483B0EFF309840194019B03F1200310
:100240000193019B83F309884FF0000383F3118826
:1002500003B010BC704700BFAFF30080AFF3008065
:1002600008B50D4B4FF000029A600B4B0B4ADA6059
:100270004FF007004FF0100100F08AF84FF00A002D
:100280004FF4007100F084F84FF00B004FF0800144
:1002900000F07EF808BD00BF00ED00E00000FA05A8
:1002A00010B483B04FF0200383F311881F4B5B68B9
:1002B00003F40063002B32D0EFF309840194019B17
:1002C000A3F120030193019B83F30988019B4FF065
:1002D0008072DA61164B9B69002B0BD0144B1B68A4
:1002E0009A68134BDB699B689A4294BF00230123F1
:1002F000DBB20AE00E4B1B689A680D4BDB699B680A
:100300009A4234BF00230123DBB2002B03D0019BB0
:10031000084A9A6107E0019B074A9A6103E04FF09F
:10032000000383F3118803B010BC704700ED00E0B8
:10033000300D0020410300084C030008AFF300809B
:1003400000F00EF900F04CFC00F022F900DF00BFD5
:1003500003460A462DE9F04FC2F80CD0D3F80CD072
:10036000BDE8F08FAFF30080AFF30080AFF3008003
:1003700008B500F00DF94FF0000383F3118828460B
:10038000A04700F07DFD08BDAFF30080AFF3008013
:1003900010B485B001900091019B03F003034FEA74
:1003A000C3030393104B019A4FEA92020E4901983E
:1003B0004FEA900000F1060051F8200003994FF039
:1003C000FF0404FA01F16FEA010108400399009C5F
:1003D00004FA01F140EA010102F1060243F8221099
:1003E00005B010BC704700BF00ED00E0AFF3008027
:1003F00082B00190024BDB69024A9A61FEE700BFBE
:10040000300D002020380008AFF30080AFF30080EB
:1004100000B583B0FFF724FF00F0A2FA00F0D8F98E
:1004200000F0FEFE00F05CFF00F07AF914484FF097
:10043000400100F01DFC0246124BDA61114BDB69F2
:100440004FF0010283F820200E4BDB690E4ADA617F
:1004500000F06EF84FF0000383F3118862B6094B89
:10046000DB690A4A9A610A4B4FF000020092094880
:100470004FF0C0014FF0010200F0A2FC03B000BD3C
:10048000C0080020300D002000040020283800089B
:10049000F103000800080020AFF30080AFF30080F4
:1004A00000B583B000F00CF91F4B9B69002B05DDF4
:1004B0001D4B9B6903F1FF321B4B9A611A4BDB69A1
:1004C0005A6A02F101025A62184BDB6803F1010219
:1004D000164BDA60154B1B681A46144B9A4221D012
:1004E000124B1B689A6802F1FF329A6013E0019B7D
:1004F000DB680093019B4FF00002DA60019B1B68F0
:100500000A4A5A60019B1A68084B1A60019B1A69D3
:10051000009B10469847054B1B680193019B9B6805
:10052000002BE4D003B000BD300D0020200D0020D2
:1005300008B5064B1B68002B03D1054B1B68002B2D
:1005400002D0044800F034F908BD00BF0C090020B7
:100550001009002040380008AFF30080AFF300809E
:1005600008B5084B1B68002B03D1074B1B68002BF9
:1005700002D0064800F01CF9034B4FF001021A604C
:1005800008BD00BF0C0900201009002048380008F1
:1005900008B5084B1B68002B03D1074B1B68002BC9
:1005A00002DC064800F004F9034B4FF000021A6029
:1005B00008BD00BF0C0900201009002050380008B9
:1005C00008B5084B1B68002B03DD074B1B68002B8D
:1005D00002D0064800F0ECF8034B4FF001021A601D
:1005E00008BD00BF0C090020100900205838000881
:1005F00008B5084B1B68002B03DD074B1B68002B5D
:1006000002DC064800F0D4F8034B4FF000021A60F9
:1006100008BD00BF0C090020100900206038000848
:1006200008B54FF0200383F311880B4B1B68002B98
:1006300003DB0A4B1B68002B02D0094800F0B8F816
:10064000054B1B6803F10102034B1A604FF00003D6
:1006500083F3118808BD00BF0C0900201009002099
:1006600068380008AFF30080AFF30080AFF300807C
:1006700008B54FF0200383F311880B4B1B68002B48
:1006800003DD0A4B1B68002B02D0094800F090F8EC
:10069000054B1B6803F1FF32034B1A604FF0000358
:1006A00083F3118808BD00BF0C0900201009002049
:1006B00070380008AFF30080AFF30080AFF3008024
:1006C00008B5064B1B68002B03DB054B1B68002B92
:1006D00002DC044800F06CF808BD00BF0C090020E3
:1006E0001009002078380008AFF30080AFF30080D5
:1006F00008B5064B1B68002B03D1054B1B68002B6C
:1007000002DC044800F054F808BD00BF0C090020CA
:100710001009002080380008AFF30080AFF300809C
:10072000034B4FF040021A60014B024A5A60704777
:10073000140900201C090020AFF30080AFF30080F3
:1007400082B00190124B5B68124AD2681A60104B5B
:100750005B68114AD2695A600D4B5B68019A926AD4
:100760009A600B4B5B68019A92F820201A73084B31
:100770005B6803F11002064B5A60054B5A68074B41
:100780009A4202D3024B064A5A6002B0704700BF39
:1007900014090020200D0020300D00201C0D002029
:1007A0001C090020AFF30080AFF30080AFF300809E
:1007B00000B583B00190034B019A1A60FFF718FD52
:1007C00003B000BD1C0D0020AFF30080AFF300802C
:1007D000074A074B5A60064B5A68054B1A60044B90
:1007E0004FF0FF329A60024B4FF00002DA60704720
:1007F000200D0020AFF30080AFF30080AFF3008046
:1008000000B587B00390029101920093FFF758FF63
:10081000039B002B05D0019B002B02D0029B002BD9
:1008200002D11C48FFF7C4FF039B009A1A61039B87
:10083000019ADA60184B1B68059307E0059B9B68DB
:10084000029AD31A0293059B1B680593059B9A682D
:10085000029B9A42F2D3039B059A1A60039B1B6882
:100860005A68039B5A60039B5B68059A0399516021
:10087000059A52681A60039B029A9A60059A064B81
:100880009A4205D0059B9A68029BD21A059B9A60F2
:1008900007B000BD90380008200D0020AFF30080A5
:1008A00000B583B00190FFF70BFF019B002B02D135
:1008B0001348FFF77DFF019BDB68002B02D1114835
:1008C000FFF776FF019B1A680F4B9A4208D0019BF5
:1008D0001B68019A12689168019A92688A189A6056
:1008E000019B5B68019A12681A60019B1B68019A60
:1008F00052685A60019B4FF00002DA6003B000BDFD
:10090000A0380008B0380008200D0020AFF30080A8
:1009100084B00190019B1B680393039B1A68019BA1
:100920001A60019B1B68019A5A60039B184604B029
:10093000704700BFAFF30080AFF30080AFF30080DB
:1009400082B00190019B5B68019A12681A60019B5A
:100950001B68019A52685A60019B184602B07047A2
:100960000B4A0B4B5A600A4B5A68094B1A60084BEA
:100970004FF000029A60064B4FF014029A61044A4D
:10098000034B5A61024B5A69014B1A61704700BF11
:10099000300D0020AFF30080AFF30080AFF3008094
:1009A00000B585B00190019B93F82030002B04D056
:1009B000019B93F820300E2B02D11348FFF7F8FE6D
:1009C000019B4FF0000283F82020104B0393039B00
:1009D0001B680393039B9A68019B9B689A42F6D21B
:1009E000019B039A1A60039B5A68019B5A60019B02
:1009F0005B68039A01995160039A52681A60019BDF
:100A0000184605B000BD00BFD0380008300D0020EA
:100A100000B585B003468DF80730FFF769FE164B29
:100A2000DB690393039B9DF8072083F82020124B7A
:100A30004FF014029A611048FFF76AFF02460E4B0E
:100A4000DA610D4BDB694FF0010283F82020039837
:100A5000FFF776FE6B46A3F12402039BDB699A4203
:100A600002D20648FFF7A4FE034BDB691846039940
:100A7000FFF76EFC05B000BD300D0020E438000823
:100A800000B585B00190019B0393039B93F8203040
:100A90000D2B28D801A252F823F000BFF70A000856
:100AA000E70A0008E70A0008D50A0008E70A000874
:100AB000E10A0008E70A0008E70A0008E70A000858
:100AC000E70A0008E70A0008E70A0008E70A000842
:100AD000E10A0008039B9B6A9A6802F101029A608E
:100AE0000398FFF72DFF039B4FF0FF329A620398A4
:100AF000FFF756FF00E000BF05B000BDAFF3008078
:100B000000B589B0034600918DF80730FFF7F0FD7E
:100B1000009BB3F1FF3F14D00F4BDB6903AA1046D3
:100B200000990E4AFFF76CFE9DF807301846FFF754
:100B30006FFF069B002B09D003AB1846FFF7B0FEF2
:100B400004E09DF807301846FFF762FF024BDB69AF
:100B50009B6A184609B000BD300D0020810A0008CC
:100B600000B585B001900091FFF7C2FD019B009A8E
:100B70009A62019B9A68174BDB699B689A4203D87B
:100B80000198FFF70DFF22E0124BDB691846FFF7D3
:100B900007FF03900F4B4FF014029A610D4B019A1F
:100BA000DA61019B4FF0010283F820200398FFF7E0
:100BB000C7FD6B46A3F12402039BDB699A4202D274
:100BC0000548FFF7F5FD01980399FFF7C1FB05B054
:100BD00000BD00BF300D0020E4380008AFF30080F6
:100BE00000B583B0154B4FF014029A61134BDB69CB
:100BF00001931248FFF78CFE0246104BDA610F4B4F
:100C0000DB694FF0010283F820200198FFF7C8FE4E
:100C10000198FFF795FD6B46A3F12402019BDB6968
:100C20009A4202D20648FFF7C3FD044BDB6918461F
:100C30000199FFF78DFB03B000BD00BF300D002010
:100C4000E4380008AFF30080AFF30080AFF300801A
:100C500084B00190019B1B680393039B1A68019B5E
:100C60001A60039B184604B0704700BFAFF30080C2
:100C700082B001900091019B009A9A60019B4FF015
:100C8000020283F82020019B4FF0000283F821200C
:100C9000019B009A5A64019B4FF000021A64019B69
:100CA0004FF00002DA63019B4FF000025A62019B91
:100CB0004FF0010283F82220019B4FF000029A615D
:100CC000134A019B1A61124B5A69019B5A61019B9D
:100CD0005B690F4A019951610D4A52691A61019B82
:100CE00003F12C031A46019BDA62019B03F13003E6
:100CF0001A46019B5A63019B5A6B019B1A63019B25
:100D000003F14C02019BDA61019B184602B0704767
:100D1000300D0020AFF30080AFF30080AFF3008010
:100D200084B00390029113468DF8073007E0039BCF
:100D30009DF807201A70039B03F101030393039AA4
:100D4000029B9A42F3D304B0704700BFAFF3008018
:100D500000B587B00390029101920093039B059325
:100D6000FFF7AEFC039B002B08D0029BAF2B05D9ED
:100D7000019B7F2B02D8009B002B02D10E48FFF76E
:100D800017FD039A029BA3F12403D218059BDA6096
:100D9000059BDB68009A1A60059BDB68089A5A601D
:100DA000059BDB68054A1A6205980199FFF760FF09
:100DB0000346184607B000BD00390008710300085B
:100DC00000B589B00590049103920293059A059BA2
:100DD00003F14C03104619464FF0FF02FFF7A0FF46
:100DE000059B03F14C020599049BCB18104619464C
:100DF0004FF05502FFF794FF4FF0200383F3118863
:100E0000FFF7AEFB0A9B009305980499039A029B97
:100E1000FFF79EFF079007984FF00001FFF7A0FE35
:100E2000FFF7B6FB4FF0000383F31188079B1846CA
:100E300009B000BDAFF30080AFF30080AFF30080D6
:100E400000B583B00190019B002B02D10A48FFF747
:100E5000AFFC4FF0200383F31188FFF781FB4FF0C5
:100E600006000199FFF74CFEFFF792FB4FF00003DD
:100E700083F3118803B000BD40390008AFF3008050
:100E800000B583B001904FF0200383F31188FFF782
:100E900067FB019800F004F803B000BDAFF30080D9
:100EA00000B585B00190194BDB690393039B019A50
:100EB0009A6209E0039B03F12C031846FFF7C8FE72
:100EC00003461846FFF76CFD039BDA6A039B03F1A8
:100ED0002C039A42EED1039B93F8213003F00303D5
:100EE000002B09D1039B5B69039A12691A61039B6A
:100EF0001B69039A52695A614FF00E00FFF788FD93
:100F00000348FFF755FC05B000BD00BF300D0020C1
:100F100050390008AFF30080AFF30080AFF30080DA
:100F200084B001900091009B0393039B1B68039383
:100F3000009B039A9A4205D0039B9A68019B9B6889
:100F40009A42F2D2019B039A1A60039B5A68019B52
:100F50005A60019B5B68039A01995160039A526839
:100F60001A6004B0704700BFAFF30080AFF3008099
:100F700084B00190019B1B680393039B1A68019B3B
:100F80001A60019B1B68019A5A60039B184604B0C3
:100F9000704700BFAFF30080AFF30080AFF3008075
:100FA00082B00190019B5B68019A12681A60019BF4
:100FB0001B68019A52685A60019B184602B070473C
:100FC00000B583B00190019B002B02D10848FFF7C8
:100FD000EFFB019B1A46019B5A60019B5A68019BDB
:100FE0001A60019B4FF000029A6003B000BD00BF81
:100FF000A0390008AFF30080AFF30080AFF30080AA
:1010000000B583B001904FF0200383F31188FFF700
:10101000A7FA019800F00CF8FFF7BAFA4FF00003B6
:1010200083F3118803B000BDAFF30080AFF30080FD
:1010300000B585B001903C4BDB690293FFF758FB8C
:10104000019B002B02D13948FFF7B2FB019B9B6843
:10105000002B5CD0019B9B68039335E0029B9A6850
:10106000039B9A60039B93F82030042B04D0052B3C
:1010700011D0002B1AD02DE00398FFF791FF024604
:10108000039B9B6A10461946FFF74AFF039B9B6A26
:101090009B68039318E00398FFF782FF0246039BC7
:1010A0009B6A10461946FFF73BFF0CE0039B4FF08D
:1010B000010283F820200398FFF772FF03461846C9
:1010C000FFF76EFC00BF05E0039B9A68029B9B68DC
:1010D0009A42C3D3019B02981946FFF721FF029B56
:1010E000019A9A624FF00400FFF792FC019B9A6804
:1010F000029B9A4202D00E48FFF75AFB029B1A6CE1
:10110000019B9A420DD00B48FFF752FB09E0019B6F
:10111000029A9A60029B1A6C019BDA60029B019A08
:101120001A6405B000BD00BF300D0020B0390008C2
:10113000C0390008D4390008AFF30080AFF3008055
:1011400000B587B0334BDB6903934FF0200383F383
:101150001188FFF705FA039B1B6C002B02D12E4868
:10116000FFF726FB039B1B6C9A68039B9A4202D0F5
:101170002A48FFF71DFB039B1B6C0293029BDA6856
:10118000039B1A64029B1A68029B9A4233D0039B0A
:101190005B6C0493039B1B6C059311E0059B1A6821
:1011A000059B9A4209D0059B1B689A68049B9A424A
:1011B00003D9059B1B689B680493059BDB6805931B
:1011C000059B002BEAD1039B049A9A60029B184668
:1011D000FFF7CEFE0190029B019A9A60019B1A6C68
:1011E000029BDA60019B029A1A6401984FF0000199
:1011F000FFF7B6FC03E0029B4FF000029A60FFF796
:10120000C7F94FF0000383F31188029B184607B01B
:1012100000BD00BF300D0020FC390008103A000866
:10122000074B03F1070323F007031A46054B1A6027
:10123000054B23F007031A46044B1A60704700BFA2
:10124000E4130020500D002000500020540D002019
:1012500000B585B001904FF0200383F31188FFF7AC
:101260007FF9019800F00CF80390FFF791F94FF027
:10127000000383F31188039B184605B000BD00BF2F
:1012800000B585B00190FFF71BFA019B03F107033E
:1012900023F0070301930D4B1B681A460C4B1B6888
:1012A000D31A1A46019B9A4202D24FF0000309E07A
:1012B000074B1B680393064B1A68019BD218044B1B
:1012C0001A60039B184605B000BD00BF540D0020F6
:1012D000500D0020AFF30080AFF30080AFF300802B
:1012E00008B5074B074A1A60054B4FF000029A6099
:1012F000034B4FF00002DA600348FFF761FE08BDC0
:10130000580D002051120008680D0020AFF3008036
:1013100008B500F04DFE00F083FC064801F0F0F83F
:1013200000F00EF800F04CFA00F0BAFC01F060FF9B
:1013300008BD00BF603B0008AFF30080AFF3008042
:1013400008B501F0BDF808BDAFF30080AFF3008031
:1013500000B583B00190019B4FF001021A70019B10
:101360004FF000025A60019B03F10C031846FFF78F
:1013700027FE03B000BD00BFAFF30080AFF30080D5
:1013800000B583B00190019B93F84220019B83F844
:101390004A20019801F0D4FB019B5B681B68002B7D
:1013A00006D0019B5B681B6801984FF001019847CC
:1013B000019B4FF003021A7003B000BDAFF3008031
:1013C00010B584B00190019B93F8403003F07F0288
:1013D000019B93F841304FEA032342EA0303B3F53C
:1013E000407F63D0B3F5407F12DC022B00F0008118
:1013F000022B05DC002B28D0012B00F0EB80D8E17C
:10140000B3F5807F32D0B3F5817F00F05681D0E113
:10141000B3F5C06F78D0B3F5C06F08DC40F202328C
:10142000934200F08481B3F5A06F5FD0C1E1B3F5C2
:10143000106F00F0A08040F60242934200F0CA8094
:10144000B3F5006F00F08780B3E1019B03F148031F
:101450001A46019B5A63019B4FF002029A63019B5B
:101460004FF00002DA634FF00103A4E1019B93F80F
:101470004230012B17D1019BB3F8483023F002030F
:101480009AB2019BA3F84820019B4FF000025A63D7
:10149000019B4FF000029A63019B4FF00002DA6358
:1014A0004FF0010387E14FF0000384E1019B93F8C3
:1014B0004230012B17D1019BB3F8483043F00203AF
:1014C0009AB2019BA3F84820019B4FF000025A6397
:1014D000019B4FF000029A63019B4FF00002DA6318
:1014E0004FF0010367E14FF0000364E1019B4FF00F
:1014F00000025A63019B4FF000029A63019B9C4AD1
:10150000DA634FF0010356E1019B5B685C68019B65
:1015100093F84310019B93F84220019B03F1400391
:1015200003F104031B880198A0470390039B002B41
:1015300002D14FF000033EE1039B5A68019B5A63BE
:10154000039B1A68019B9A63019B4FF00002DA63C8
:101550004FF001032FE1019B03F14B02019B5A6302
:10156000019B4FF001029A63019B4FF00002DA6386
:101570004FF001031FE1019B93F84220019B83F888
:101580004B20019B93F84B30002B04D1019B4FF073
:1015900003021A7003E0019B4FF004021A70019BD2
:1015A0005B681B68002B06D0019B5B681B68019879
:1015B0004FF002019847019B4FF000025A63019BD4
:1015C0004FF000029A63019B4FF00002DA634FF084
:1015D0000103F0E0019B674A5A63019B4FF002024E
:1015E0009A63019B4FF00002DA634FF00103E2E0DF
:1015F000019B93F84430DBB25BB2002B2EDA019BE7
:1016000093F8443003F00F03DBB20198194601F060
:101610009FFB0346012B02D0022B0ED01BE0019B47
:10162000554A5A63019B4FF002029A63019B4FF0A7
:101630000002DA634FF00103BDE0019B4F4A5A6399
:10164000019B4FF002029A63019B4FF00002DA63A4
:101650004FF00103AFE04FF00003ACE0019B93F8C3
:10166000443003F00F03DBB20198194601F050FB40
:101670000346012B02D0022B0ED01BE0019B3E4AF9
:101680005A63019B4FF002029A63019B4FF00002E4
:10169000DA634FF001038EE0019B384A5A63019BE5
:1016A0004FF002029A63019B4FF00002DA634FF0A1
:1016B000010380E04FF000037DE0019B93F842308E
:1016C000002B02D04FF0000375E0019B93F84430EB
:1016D00003F00F03002B1BDD019B93F84430DBB2BA
:1016E0005BB2002B0ADA019B93F8443003F00F033E
:1016F000DBB20198194601F04BFD09E0019B93F81C
:10170000443003F00F03DBB20198194601F018FDD5
:10171000019B4FF000025A63019B4FF000029A6355
:10172000019B4FF00002DA634FF0010343E0019B9D
:1017300093F84230002B02D04FF000033BE0019BB6
:1017400093F8443003F00F03002B23DD019B93F843
:101750004430DBB25BB2002B12DA019B93F84430C9
:1017600003F00F03DBB20198194601F0C9FC11E048
:1017700081130008903A0008B03A0008A03A000827
:10178000019B93F8443003F00F03DBB20198194634
:1017900001F096FC019B4FF000025A63019B4FF051
:1017A00000029A63019B4FF00002DA634FF00103DD
:1017B00001E04FF00003184604B010BDAFF3008005
:1017C00008B501F085F908BDAFF30080AFF30080E4
:1017D00082B00190019B4FF001021A70019B4FF003
:1017E00000025A60019B4FF000029A60019B4FF08B
:1017F00000029A81019B4FF00002DA8102B070472B
:1018000000B585B00190019B4FF002021A70019B58
:101810004FF00002A3F84820019B4FF0000283F82C
:101820004A20019B4FF0000283F84B20019B4FF0B0
:1018300000029A81019B4FF00002DA814FF0000311
:1018400003930BE0019B039A02F104024FF00001A5
:1018500043F82210039B03F101030393039B072B1F
:10186000F0D9019B4FF0000283F83020019801F07D
:1018700037F905B000BD00BFAFF30080AFF30080C3
:1018800000B585B001900B468DF80330019B4FF0F9
:10189000000283F83020019B03F140039DF80320F0
:1018A000019811461A4601F073FA019B5B689B6828
:1018B000002B07D0019B5B689B6801989847034603
:1018C000002B28D1019B93F8403003F06003002BDC
:1018D00005D10198FFF774FD0346002B1BD1019839
:1018E0004FF0000101F00CFC01984FF0000101F0F5
:1018F000E7FB019B5B681B68002B06D0019B5B68C4
:101900001B6801984FF005019847019B4FF00502B5
:1019100083F830206CE0019B03F1400303F10603E0
:101920001B880393019B9A6B039B9A4202D9019BEC
:10193000039A9A63019B93F84030DBB25BB2002BB1
:101940002BDA019B9B6B002B13D0019B4FF0010204
:1019500083F83020019B5A6B019B9B6B01984FF0E1
:10196000000101F02DFB01984FF0000101F088FB10
:101970003EE0019B4FF0020283F8302001984FF0C7
:1019800000014FF000024FF0000301F0D9FA019876
:101990004FF0000101F054FB2AE0019B9B6B002BF0
:1019A00013D0019B4FF0030283F83020019B5A6B48
:1019B000019B9B6B01984FF0000101F0C1FA019867
:1019C0004FF0000101F03CFB12E0019B4FF00402DC
:1019D00083F8302001984FF000014FF000024FF0E3
:1019E000000301F0EDFA01984FF0000101F048FB0F
:1019F00005B000BDAFF30080AFF30080AFF300800F
:101A000000B585B001900B468DF80330019B93F82B
:101A10003030012B02D0042B3BD048E0019B03F176
:101A2000400303F106031B880393019B9A6B039BFE
:101A30009A421AD2019B9B6B019A1269128AB3FBDC
:101A4000F2F102FB01F29B1A002B0ED101984FF02C
:101A500000014FF000024FF0000301F0B1FA0198CD
:101A60004FF0000101F00CFB3CE0019B4FF0020243
:101A700083F8302001984FF000014FF000024FF042
:101A8000000301F05DFA01984FF0000101F0D8FA6F
:101A900028E0019BDB6B002B03D0019BDB6B0198E3
:101AA0009847019B4FF0000283F830201AE001981C
:101AB0004FF0000101F024FB01984FF0000101F00C
:101AC000FFFA019B5B681B68002B06D0019B5B68DB
:101AD0001B6801984FF005019847019B4FF00502E4
:101AE00083F8302005B000BDAFF30080AFF3008075
:101AF00000B583B001900B468DF80330019B93F83D
:101B00003030022B15D0032B28D1019B4FF004025B
:101B100083F8302001984FF000014FF000024FF0A1
:101B2000000301F04DFA01984FF0000101F0A8FA0E
:101B30002FE0019B1B699B69DB68002B0DD1019B8A
:101B4000DB6B002B03D0019BDB6B01989847019B5B
:101B50004FF0000283F830201BE000BF01984FF0E7
:101B6000000101F0CDFA01984FF0000101F0A8FA50
:101B7000019B5B681B68002B06D0019B5B681B68A0
:101B800001984FF005019847019B4FF0050283F83B
:101B9000302003B000BD00BFAFF30080AFF3008082
:101BA00082B00190024B5A68019B9A6002B0704764
:101BB000001000E0AFF30080AFF30080AFF30080CF
:101BC00084B00190114B5B680393019B9B68039A5F
:101BD000D21A0F4B1B68D21A019B9A60019B9A681C
:101BE000019BDB689A4204D9019B9A68019BDA60E9
:101BF00009E0019B9A68019B1B699A4203D2019BF1
:101C00009A68019B1A6104B0704700BF001000E0A1
:101C1000780D0020AFF30080AFF30080AFF30080B9
:101C200000B587B00A4B4FF000021A6001AB1846AE
:101C300000F016F8019B01AA10469847029B01AAE2
:101C400010469847039A024B1A6007B000BD00BFC8
:101C5000780D0020AFF30080AFF30080AFF3008079
:101C600082B00190019B094A1A60019B084A5A60A0
:101C7000019B4FF000029A60019B4FF00002DA6076
:101C8000019B4FF0FF321A6102B07047A11B0008A0
:101C9000C11B0008AFF30080AFF30080AFF30080FA
:101CA000704700BFAFF30080AFF30080AFF3008058
:101CB00000B583B0FEF7B4FC0C4B1B6803F00F03B8
:101CC00001930A4B4FF00F025A60094B1B68002B1F
:101CD00006D0074B1B68064A526810460199984780
:101CE000FEF7C6FCFEF7DCFA03B000BD00000240C0
:101CF000800D0020AFF30080AFF30080AFF30080D1
:101D000000B583B0FEF78CFC0D4B1B684FEA131334
:101D100003F00F0301930A4B4FF0F0025A60094B96
:101D20009B68002B06D0074B9B68064AD26810467A
:101D300001999847FEF79CFCFEF7B2FA03B000BD8C
:101D400000000240800D0020AFF30080AFF3008060
:101D500000B583B0FEF764FC0D4B1B684FEA1323FC
:101D600003F00F0301930A4B4FF470625A60094B62
:101D70001B69002B06D0074B1B69064A52691046A7
:101D800001999847FEF774FCFEF78AFA03B000BD8C
:101D900000000240800D0020AFF30080AFF3008010
:101DA00000B583B0FEF73CFC0D4B1B684FEA1333C4
:101DB00003F00F0301930A4B4FF470425A60094B32
:101DC0009B69002B06D0074B9B69064AD2691046D7
:101DD00001999847FEF74CFCFEF762FA03B000BD8C
:101DE00000000240800D0020AFF30080AFF30080C0
:101DF00000B583B0FEF714FC0D4B1B684FEA13438C
:101E000003F00F0301930A4B4FF470225A60094B01
:101E10001B6A002B06D0074B1B6A064A526A104603
:101E200001999847FEF724FCFEF73AFA03B000BD8B
:101E300000000240800D0020AFF30080AFF300806F
:101E400000B583B0FEF7ECFB0D4B1B684FEA135354
:101E500003F00F0301930A4B4FF470025A60094BD1
:101E60009B6A002B06D0074B9B6A064AD26A104633
:101E700001999847FEF7FCFBFEF712FA03B000BD8C
:101E800000000240800D0020AFF30080AFF300801F
:101E900000B583B0FEF7C4FB0D4B1B684FEA13631C
:101EA00003F00F0301930A4B4FF070625A60094B25
:101EB0001B6B002B06D0074B1B6B064A526B104660
:101EC00001999847FEF7D4FBFEF7EAF903B000BD8D
:101ED00000000240800D0020AFF30080AFF30080CF
:101EE00082B0144B4FF000021A604FF000030193D0
:101EF00016E01149019A13464FEA43039B184FEA33
:101F00008303CB181B684FF000021A600B4B019A39
:101F10004FF0000143F83210019B03F101030193DC
:101F2000019B062BE5DD064B4FF0FF325A6002B0F5
:101F3000704700BF7C0D0020C03A0008800D0020D3
:101F400000000240AFF30080AFF30080AFF30080E9
:101F5000134B134A126842F480721A60114B1B6AC9
:101F600003F44073B3F5407F07D00E4B4FF480323B
:101F70001A620C4B4FF000021A620A4B1B6A03F400
:101F80000043002B0BD1074B064A126A42F4407201
:101F90001A62044B034A126A42F400421A62704702
:101FA0000070004000100240AFF30080AFF30080EB
:101FB00008B51E4B1B691D4B4FF0FF321A611B4BBE
:101FC0004FF000021A61194BDB68184B4FF0FF32DB
:101FD000DA60164B4FF00002DA60154B154A5A6072
:101FE000134B4FF000029A60114B4FF007021A603A
:101FF000114B114AD26842F08072DA600F4B0F4ADF
:10200000126842F001021A60084B084AD26942F095
:102010008052DA61054B054AD26942F00062DA610A
:10202000FFF796FFFFF75CFF08BD00BF00100240FE
:1020300010E000E03F190100F0ED00E0001000E0CA
:10204000294B294A126842F001021A6000BF264B50
:102050001B6803F00203002BF9D0234B224A1268BD
:1020600002F0F9021A60204B4FF000025A6000BFE4
:102070001D4B5B6803F00C03002BF9D11A4B1A4A75
:10208000126842F480321A6000BF174B1B6803F4D9
:102090000033002BF9D0144B134A526842F4E81273
:1020A0005A60114B104A126842F080721A6000BFE9
:1020B0000D4B1B6803F00073002BF9D00A4B0B4A41
:1020C0005A600B4B4FF012021A60074B064A5268D7
:1020D00042F002025A6000BF034B5B6803F00C033E
:1020E000082BF9D1704700BF0010024000641D00AA
:1020F00000200240AFF30080AFF30080AFF3008018
:1021000000B587B00190019B1B6B0593059B1B8B52
:102110009BB20493059B9B8A9BB20393049B4FEA5B
:102120000342039B42EA030323F07F43504A934256
:1021300012D04F4A934203D84E4A934207D08DE0C3
:102140004D4A934231D04D4A934241D086E0019BA3
:102150001A8C059B1A8281E0059B9B889BB223F415
:1021600000739AB2059B9A80019B9B6A1B68019A37
:10217000926A1268126842F001021A60059B9B88FD
:102180009BB243F480539AB2059B9A80019B9B6A51
:102190001B685B68012B60D8059B1B889BB223F4EE
:1021A00080639AB2059B1A8058E0059B9B889BB27E
:1021B00023F400739AB2059B9A80019BDB6A1B682B
:1021C000019AD26A1268126842F001021A6045E070
:1021D000019B9B6A1B685B68002B0FD0019B1B8CCB
:1021E00043F001039AB2019B1A84059B1B889BB2A2
:1021F00043F4A0639AB2059B1A8036E0059B9B8846
:102200009BB223F400739AB2059B9A80059B1B88AE
:102210009BB243F400739AB2059B1A804FF02003DF
:1022200083F31188FEF7CCF9019BDB69002B0DD0FD
:10223000019BDB690293019B4FF00002DA61029B74
:102240004FF000029A620298FEF7AAFBFEF7D0F95F
:102250004FF0000383F3118800E000BF039B03F0FD
:102260000A03002B01D0059B1B8B07B000BD00BFEC
:102270000200030001000300820007008400070041
:1022800000B587B00190019B1B6B04934FF02003B6
:1022900083F31188FEF794F9019BDB6A1B68019AAE
:1022A000D26A1268126822F001021A60019BDB6A8E
:1022B0005B68019AD26A127A4FF00F0101FA02F2BA
:1022C0001A60019B9B6A1B68019A926A12681268E5
:1022D00022F001021A60019B9B6A5B68019A926A74
:1022E000127A4FF00F0101FA02F21A60FEF780F93C
:1022F0004FF0000383F311884FF000030593049B14
:102300009B8A9BB203F48073002B0BD0049B9B8AA7
:102310009BB223F480739AB2049B9A82059B43F08C
:1023200001030593049B9B8A9BB203F40073002B6B
:102330000BD0049B9B8A9BB223F400739AB2049B3C
:102340009A82059B43F002030593049B9B8A9BB2F0
:1023500003F48063002B1BD0049B9B8A9BB223F465
:1023600080639AB2049B9A82049B9B889BB223F45D
:1023700000739AB2049B9A80049B1B889BB243F41F
:1023800000739AB2049B1A80059B43F004030593E3
:10239000049B9B8A9BB203F40063002B0BD0049B2D
:1023A0009B8A9BB223F400639AB2049B9A82059B9A
:1023B00043F008030593049B9B8A9BB203F480536C
:1023C000002B0BD0049B9B8A9BB223F480539AB2C0
:1023D000049B9A82059B43F010030593049B9B8A00
:1023E0009BB203F48043002B0BD0049B9B8A9BB2CF
:1023F00023F480439AB2049B9A82059B43F0200306
:102400000593049B9B8A9BB29BB21BB2002B0DDAF7
:10241000049B9B8A9BB24FEA43434FEA53439AB2D1
:10242000049B9A82059B43F040030593059B002B78
:1024300020D0019B059A9A604FF0200383F3118806
:10244000FEF7BEF8019BDB69002B0DD0019BDB6919
:102450000393019B4FF00002DA61039B6FF00102CE
:102460009A620398FEF79CFAFEF7C2F84FF0000359
:1024700083F3118807B000BDAFF30080AFF3008095
:1024800008B5FEF7CDF80448FFF73AFEFEF7F0F87E
:10249000FDF706FF08BD00BFB80D0020AFF30080B8
:1024A00008B5FEF7BDF80448FFF7EAFEFEF7E0F8CE
:1024B000FDF7F6FE08BD00BFB80D0020AFF30080A9
:1024C00008B50848FEF744FF064B4FF00002DA61FA
:1024D000044B054A1A63034B044A9A62014B044AAF
:1024E000DA6208BDB80D002000540040083B000827
:1024F000FC3A0008AFF30080AFF30080AFF3008038
:1025000082B00190214B214A926942F07D029A618A
:102510001F4B019A1268DA601D4B019A92685A604B
:102520001B4B019A52681A601A4B019AD268DA6002
:10253000184B019A52695A60164B019A12691A6037
:10254000154B019A9269DA60134B019A126A5A602C
:10255000114B019AD2691A60104B019A526ADA60E3
:102560000E4B019AD26A5A600C4B019A926A1A6019
:102570000B4B019A126BDA60094B019A926B5A600D
:10258000074B019A526B1A6002B07047001002406C
:1025900000080140000C01400010014000140140FF
:1025A00000180140AFF30080AFF30080AFF300806C
:1025B0008AB0039002910192019B032B03D1039BEC
:1025C000029A1A6105E0019B042B02D1039B029A37
:1025D0005A612E4A019BD3181B7804934FF00003D5
:1025E0000693069B0793079B0893089B09934FF05C
:1025F0000003059335E0089B4FEA03130893099BFA
:102600004FEA03130993069B4FEA03130693079BB4
:102610004FEA03130793029B03F08003002B04D1BE
:10262000089B43F00F03089304E0069A049B42EAD8
:1026300003030693029B03F40043002B04D1099B80
:1026400043F00F03099304E0079A049B42EA030353
:102650000793029B4FEA43030293059B03F1010397
:102660000593059B072BC6D9039B5A68099B1A4003
:10267000079B1A43039B5A60039B1A68089B1A40E6
:10268000069B1A43039B1A600AB07047203B000860
:1026900082B00190019B4FF04002DA6402B07047B3
:1026A00000B585B001900091019BDB6C0393019B09
:1026B000DA6C009BD218019BDA64019BDB6CB3F5EA
:1026C000007F02D90348FEF773F8039B184605B054
:1026D00000BD00BF503A0008AFF30080AFF30080A8
:1026E00008B5FDF79DFFFDF7C3FFFDF7D9FD08BD58
:1026F00000B589B0824B0593FDF792FF814B5B6C6F
:102700000793079B03F48063002B12D00598FFF713
:1027100077F8059B5B681B68002B06D0059B5B6800
:102720001B6805984FF000019847764B6FF4806264
:102730005A64079B03F40063002B15D0714B714A58
:10274000126C42F008021A64059B5B681B68002B40
:1027500006D0059B5B681B6805984FF003019847FE
:10276000684B6FF400625A64079B03F48053002B9C
:102770001DD0644B9B6C0493049B03F40043002B1B
:1027800011D1604B5F4A126C22F008021A64059B5B
:102790005B681B68002B06D0059B5B681B6805986F
:1027A0004FF004019847574B6FF480525A64079BCF
:1027B00003F40073002B00F07781059B5B68DB68F6
:1027C000002B04D0059B5B68DB68059898474D4B50
:1027D0006FF400725A6468E14A4B079A02F00F02E4
:1027E0000392039A53F822300293059B039A02F155
:1027F000040253F822300193029B03F08003002B64
:1028000000F0A0803F4A3F4B039953F8213023F456
:10281000F04323F0F003039942F82130019B1B6839
:1028200003F01003002B1ED0059B9B899AB2039BDB
:102830004FF0010101FA03F39BB26FEA03039BB26D
:1028400002EA03039BB29AB2059B9A81059B039A05
:1028500002F1040253F822309B68039AD2B2059821
:10286000114698476EE0274B1A6D039B4FEAC3034E
:10287000D31803F1005303F540534FEA43039B88F9
:102880009BB20693019B5B69019A52691168069A93
:102890008A181A60019B5B69019A52699168069ACD
:1028A0008A189A60019B5B69019A52695168069A7D
:1028B0008A1A5A60019B5B695B68002B24D0019BDC
:1028C0005B695A68019B1B8A9A4203D9019B1B8A48
:1028D000069303E0019B5B695B680693039BDAB296
:1028E000019B5B691B68059811461A46069B00F020
:1028F000DFFA039BDBB20598194600F0C1FB21E02B
:10290000EC0D0020005C0040059B9B899AB2039B64
:102910004FF0010101FA03F39BB26FEA03039BB28C
:1029200002EA03039BB29AB2059B9A81059B039A24
:1029300002F1040253F822309B68039AD2B2059840
:1029400011469847029B03F40043002B00F0A88037
:102950005C4A5C4B039953F8213023F4784323F00D
:102960007003039942F82130029B03F40063002BAB
:102970000CD0059B039A02F1040253F822305B68E5
:10298000039AD2B205981146984789E0019B1B68CB
:1029900003F01003002B1ED0059BDB899AB2039B2A
:1029A0004FF0010101FA03F39BB26FEA03039BB2FC
:1029B00002EA03039BB29AB2059BDA81059B039A54
:1029C00002F1040253F82230DB68039AD2B2059870
:1029D0001146984764E0039BD9B2019B9B695A68F2
:1029E000019B9B699B68059800F012FA0690039B77
:1029F000DBB20598194600F023FB019B9B69019A05
:102A000092695168069A8A185A60019B9B69019ADB
:102A10009269D168069A8A18DA60019B9B69019ACB
:102A200092699168069A8A1A9A60019B9B69019A39
:102A30009269128802F1FF3292B21A80019B9B695F
:102A40001B88002B0ED01F4A1E4B039953F82130D0
:102A500023F4904323F0700383F44051039B42F826
:102A600023101DE0059BDB899AB2039B4FF0010107
:102A700001FA03F39BB26FEA03039BB202EA03037A
:102A80009BB29AB2059BDA81059B039A02F104027C
:102A900053F82230DB68039AD2B205981146984762
:102AA000084B5B6C079300E000BF079B03F40043F7
:102AB000002B7FF491AEFDF7DBFDFDF7F1FB09B0D4
:102AC00000BD00BF005C0040AFF30080AFF30080AA
:102AD00008B50248FEF77CFE08BD00BFEC0D0020E3
:102AE00000B585B00190144B4FF000021A65124BEF
:102AF0004FF000025A64104B4FF08002DA644FF43A
:102B00001C430393019B5B68DB68002B03D0039B92
:102B100043F400730393084B039A1A640198FFF778
:102B2000B7FD019B054A1A6101984FF0000100F0C2
:102B300017F805B000BD00BF005C0040403B000836
:102B400082B00190044B019A92F84A2062F07F0211
:102B5000D2B2DA6402B07047005C0040AFF300808C
:102B600010B586B001900B468DF803309DF8032018
:102B7000019B02F1040253F822300493049B1B686A
:102B800003F00303022B08D0032B0BD0012B0ED133
:102B90004FF48063ADF814300DE04FF00003ADF852
:102BA000143008E04FF4C063ADF8143003E04FF484
:102BB0000073ADF81430049B9B68002B05D0BDF862
:102BC000143043F02003ADF81430049BDB68002B75
:102BD00022D0049B1B6803F01003002B16D0019B2E
:102BE000DB899AB29DF803304FF0010101FA03F33B
:102BF0009BB242EA03039BB29AB2019BDA81BDF811
:102C0000143043F44053ADF8143005E0BDF81430EF
:102C100043F40053ADF814303C4A9DF80310BDF85E
:102C200014009DF8033040EA030323F4F04323F03B
:102C3000700342F82130354A9DF80310334B9DF85C
:102C4000030053F82000BDF8144047F6700304EA6F
:102C5000030380EA030342F82130049B5B8A3E2B86
:102C600018D9049B5B8A03F1FF3343F01F0303F180
:102C70000103002B01DA03F11F034FEA63134FEA4C
:102C800083239BB26FEA43436FEA53439BB2ADF891
:102C9000163011E0049B5B8A03F1FF3343F001031C
:102CA00003F101034FEAD372D3184FEA63039BB2D7
:102CB0004FEA8323ADF81630144B1A6D9DF803309C
:102CC0004FEAC303D31803F1005303F540534FEA0F
:102CD00043030393039B4FF000029A80039BBDF8CC
:102CE00016209A81049B1B8A01981946FFF7D8FC8D
:102CF0000246039B1A60049B5B8A01981946FFF702
:102D0000CFFC0246039B9A6006B010BD005C0040F9
:102D100082B001900B468DF803300C4B9DF80320D8
:102D200053F8223003F44053002B03D0B3F5805FF7
:102D300003D005E04FF0000304E04FF0010301E091
:102D40004FF00203184602B0704700BF005C00401D
:102D500082B001900B468DF803300B4B9DF8032099
:102D600053F8223003F03003002B02D0102B03D095
:102D700005E04FF0000304E04FF0010301E04FF0E5
:102D80000203184602B07047005C0040AFF30080B9
:102D900088B003900B4601928DF80B30184B1A6DDA
:102DA0009DF80B304FEAC303D31803F1005303F52A
:102DB00040534FEA43030593059B9B6803F100537F
:102DC00003F540534FEA430307934FF00003069384
:102DD00010E0019B079A126892B21A80079B03F1D8
:102DE00004030793019B03F102030193069B03F184
:102DF00001030693069B032BEBD908B0704700BF75
:102E0000005C0040AFF30080AFF30080AFF30080C0
:102E100088B00390019200930B468DF80B30224B43
:102E20001A6D9DF80B304FEAC303D31803F100531A
:102E300003F540534FEA43030693069B9B6803F157
:102E4000005303F540534FEA43030793069B9B89C6
:102E50009BB24FEA83534FEA93530593009A059B25
:102E60009A4201D9059B0093009B03F101034FEAAD
:102E70005303009310E0019B079A126892B21A80E4
:102E8000079B03F104030793019B03F102030193E2
:102E9000009B03F1FF330093009B002BEBD1059BBC
:102EA000184608B0704700BF005C0040AFF30080D8
:102EB00086B00390019200930B468DF80B301C4BAB
:102EC0001A6D9DF80B304FEAC303D31803F100537A
:102ED00003F540534FEA43030493049B1B6803F13B
:102EE000005303F540534FEA43030593009B9AB206
:102EF000049B9A80009B03F101034FEA5303009364
:102F000010E0019B1B881A46059B1A60059B03F184
:102F100004030593019B03F102030193009B03F15A
:102F2000FF330093009B002BEBD106B0704700BF2E
:102F3000005C0040AFF30080AFF30080AFF300808F
:102F400086B00390019200930B468DF80B309DF8EC
:102F50000B20039B02F1040253F822309B69059376
:102F6000059B019A5A60059B009A9A60059B4FF059
:102F70000002DA60059B9B68002B04D1059B4FF093
:102F800001021A8019E09DF80B20039B02F1040254
:102F900053F822305B8A1A46009BD31803F1FF32A4
:102FA0009DF80B10039B01F1040153F821305B8A5B
:102FB000B2FBF3F39AB2059B1A8006B0704700BFCC
:102FC00000B587B00390019200930B468DF80B304B
:102FD0009DF80B20039B02F1040253F822305B6939
:102FE0000593059B019A1A60059B009A5A60059B00
:102FF0004FF000029A609DF80B20039B02F104023F
:1030000053F822301B8A1A46009B9A4208D29DF838
:103010000B20039B02F1040253F822301B8A009319
:103020009DF80B3003981946019A009BFFF740FF6B
:1030300007B000BDAFF30080AFF30080AFF30080B6
:1030400082B001900B468DF80330094A9DF80310B9
:10305000074B9DF8030053F8203023F4904323F0EE
:10306000700383F4405342F8213002B0704700BF30
:10307000005C0040AFF30080AFF30080AFF300804E
:1030800082B001900B468DF80330094A9DF8031079
:10309000074B9DF8030053F8203023F4F04323F04E
:1030A000400383F0300342F8213002B0704700BF84
:1030B000005C0040AFF30080AFF30080AFF300800E
:1030C00082B001900B468DF80330094A9DF8031039
:1030D000074B9DF8030053F8203023F4904323F06E
:1030E000700383F4805342F8213002B0704700BF70
:1030F000005C0040AFF30080AFF30080AFF30080CE
:1031000082B001900B468DF80330094A9DF80310F8
:10311000074B9DF8030053F8203023F4F04323F0CD
:10312000400383F0100342F8213002B0704700BF23
:10313000005C0040AFF30080AFF30080AFF300808D
:1031400082B001900B468DF803300E4B9DF80320A2
:1031500053F8223003F44053B3F5405F0FD0094ACF
:103160009DF80310074B9DF8030053F8203023F41B
:10317000F04323F0400383F4005342F8213002B0BF
:10318000704700BF005C0040AFF30080AFF30080E9
:1031900082B001900B468DF803300D4B9DF8032053
:1031A00053F8223003F03003302B0FD0084A9DF83B
:1031B0000310074B9DF8030053F8203023F4F0432D
:1031C00023F0400383F0200342F8213002B070471F
:1031D000005C0040AFF30080AFF30080AFF30080ED
:1031E00008B5FEF72DFF08BDAFF30080AFF30080F8
:1031F000704700BFAFF30080AFF30080AFF30080F3
:1032000008B5FEF785F8FDF703F900F0B1FA00F014
:10321000BFF800F095F94FF0010000F0E9FA00F076
:10322000D7F94FF47A70FDF70BFEFAE7AFF30080A1
:1032300000B583B00190434B4FF001025A614FF04B
:103240000100FDF7FDFD3F4B4FF004025A614FF0C6
:103250000100FDF7F5FD3B4B4FF004021A614FF002
:103260000100FDF7EDFD374B4FF001021A614FF001
:103270000100FDF7E5FD334B4FF002025A614FF0BC
:103280000100FDF7DDFD304B4FF000021A602F4BBF
:103290004FF001021A602E4B4FF000021A8038E006
:1032A000284B4FF004025A614FF00100FDF7C8FDB2
:1032B000244B4FF004021A614FF00100FDF7C0FDEE
:1032C000204B9B684FEAD3039BB203F001039AB2F1
:1032D000204B1A801F4B1B88002B02D01B4B1B68F6
:1032E00001E04FF00003184A12689A18164B1A6052
:1032F000164B1B684FEA4302144B1A604FF0010053
:10330000FDF79EFD124B1B8803F101039AB2104B8F
:103310001A800F4B1B881BB20F2BC1DD094B4FF0DE
:1033200002021A614FF00100FDF78AFD0A48FDF71D
:1033300067FE054B1A68019B1A60FDF701FF03B099
:1033400000BD00BF00080140101000201410002034
:10335000181000201A1000204C0E0020AFF300803F
:1033600000B583B00190064BDB69064A9A614FF0C5
:103370000100FDF765FD0448FFF75AFFF7E700BFBE
:10338000300D0020603A00085C0E0020AFF3008092
:1033900000B583B01B484FF008014FF00202FFF761
:1033A00007F9184B4FF001021A61164B4FF0020259
:1033B0001A61144B4FF004021A6112484FF00101D8
:1033C0004FF00602FFF7F4F80E484FF002014FF0FD
:1033D0000602FFF7EDF80B484FF004014FF006022C
:1033E000FFF7E6F80848FDF7EBFD4FF00003009308
:1033F00006484FF4D8714FF04002054BFDF7E0FC52
:1034000003B000BD000801404C0E0020600E0020FB
:1034100061330008AFF30080AFF30080AFF30080AA
:1034200008B53348FDF7ECFD324B1A68324B1A6091
:10343000FDF786FE304B1A68304B1B689A4254D019
:103440002D4B1A682D4B1A602D4B4FF020025A61FC
:103450004FF00100FDF7F4FC294B4FF040021A61D8
:103460004FF00100FDF7ECFC264B4FF000421A60D4
:10347000254B4FF01F021A8031E0214B4FF0200204
:103480005A614FF00100FDF7DBFC1C4B1A681D4B25
:103490001B6802EA0303002B04D0194B4FF0800293
:1034A0001A6103E0164B4FF080025A614FF00100A1
:1034B000FDF7C6FC124B4FF020021A614FF00100DD
:1034C000FDF7BEFC0F4B1B684FEA53020D4B1A6011
:1034D0000D4B1B8803F1FF339AB20B4B1A800A4B3A
:1034E0001B881BB2002BC8DA00E000BF08BD00BF7C
:1034F0001C10002030100020E81100202C100020AB
:1035000000080140EC110020F0110020AFF3008012
:1035100000B583B00190054BDB69054A9A614FF015
:103520000100FDF78DFCFFF77BFFF8E7300D002071
:10353000703A0008AFF30080AFF30080AFF3008073
:1035400000B583B01D4B4FF010021A611B4B4FF0BA
:1035500040021A61194B4FF020021A61174B4FF0CD
:1035600080021A6115484FF010014FF00602FFF774
:103570001FF812484FF040014FF00602FFF718F80D
:103580000E484FF020014FF00602FFF711F80B48EC
:103590004FF080014FF00602FFF70AF80848FDF7E8
:1035A0000FFD4FF00003009306484FF4D8714FF021
:1035B0004002054BFDF704FC03B000BD00080140CC
:1035C0001C1000203810002011350008AFF30080D7
:1035D00000B583B02F484FF400414FF00202FEF7D0
:1035E000E7FF2C484FF480414FF00202FEF7E0FF66
:1035F00028484FF400514FF00202FEF7D9FF264849
:103600004FF040014FF01102FEF7D2FF22484FF079
:1036100080014FF01102FEF7CBFF4FF4FA70FDF777
:103620000FFCFDF78DFE4FF4FA70FDF709FC4FF427
:10363000FA70FDF705FC4FF00003ADF806300FE01F
:10364000BDF90630BDF80620D2B202F11002D1B2A7
:10365000124AD154BDF8063003F10103ADF806302B
:10366000BDF90630012BEBDD0D4B4FF000021A6067
:103670000C4B4FF000021A60094B4FF000025A60E9
:10368000084B4FF000025A600748FDF799FC03B061
:1036900000BD00BF00100140000C014004120020DA
:1036A0000812002010120020F4110020AFF3008057
:1036B00000B583B00190284BDB69284A9A61284BFA
:1036C0004FF480425A61264B4FF400525A61244B0A
:1036D0004FF480525A614FF0FA00FDF7B1FB2148D8
:1036E000FDF78EFC204B1A68204B1A60FDF728FD71
:1036F0001E4B1B6803F00103DBB2002B04D0184BF8
:103700004FF480421A6103E0154B4FF480425A6136
:10371000164B1B6803F00203002B04D0104B4FF430
:1037200000521A6103E00E4B4FF400525A610F4BE6
:103730001B6803F00403002B04D0094B4FF48052A4
:103740001A6103E0064B4FF480525A614FF0FA00C1
:10375000FDF776FBB3E700BF300D0020803A00088C
:10376000000C01401812002028120020E013002055
:1037700000B583B0184B4FF480421A61164B4FF4DA
:1037800000521A61144B4FF480521A6112484FF4E0
:1037900080414FF00602FEF70BFF0F484FF4005137
:1037A0004FF00602FEF704FF0B484FF480514FF034
:1037B0000602FEF7FDFE0948FDF702FC4FF000038C
:1037C000009307484FF4D8714FF04002054BFDF7C6
:1037D000F7FA03B000BD00BF000C01401812002032
:1037E00030120020B1360008AFF30080AFF3008044
:1037F00000B583B001900548FDF702FC044B019A27
:103800001A60FDF79DFC03B000BD00BF1812002038
:1038100028120020AFF30080AFF30080AFF30080E8
:1038200069646C65000000006D61696E0000000055
:10383000535623310000000053562332000000008D
:103840005356233300000000535623340000000079
:103850005356233500000000535623360000000065
:103860005356233700000000535623380000000051
:103870005356233900000000535623313000000016
:10388000535623313100000000000000000000000A
:1038900022636856545365744922282900000000A9
:1038A00022636856545265736574492228290000C2
:1038B0006368565452657365744928292C20233156
:1038C00000000000000000000000000000000000F8
:1038D000636853636852656164794928292C202301
:1038E00031000000737461636B206F766572666CE3
:1038F0006F770000000000000000000000000000E2
:10390000226368546864437265617465492228299A
:103910000000000022636854686453657450726943
:103920006F72697479222829000000006368546866
:1039300064526573756D6528292C202331000000C1
:10394000226368546864536C6565702228290000FE
:103950006368546864457869745328292C2023319E
:10396000000000002263685468645761697422286B
:103970002900000063685468645761697428292C21
:103980002023310063685468645761697428292CC6
:1039900020233200000000000000000000000000B2
:1039A0002263684D7478496E6974222829000000EA
:1039B0002263684D74784C6F636B53222829000092
:1039C00063684D74784C6F636B5328292C20233126
:1039D0000000000063684D74784C6F636B532829B6
:1039E0002C202332000000002263684D747854724A
:1039F000794C6F636B5322282900000063684D7473
:103A000078556E6C6F636B28292C202331000000E1
:103A100063684D7478556E6C6F636B28292C202376
:103A20003200000063684D7478556E6C6F636B53A1
:103A300028292C202331000063684D7478556E6C62
:103A40006F636B5328292C202332000000000000F4
:103A5000706D5F616C6C6F6328292C20233100002E
:103A600072656164000000000000000000000000BA
:103A7000777200000000000000000000000000005D
:103A80006C64000000000000000000000000000066
:103A90000000000000000000000000000000000026
:103AA0000000000000000000000000000000000016
:103AB0000100000000000000000000000000000005
:103AC000080002400400024000000B001C000240FD
:103AD0000400024004010C003000024004000240D7
:103AE00008020D0044000240040002400C030E00D6
:103AF000580002400400024010040F006C00024015
:103B0000040002401405100080000240040002403E
:103B10001806110000000000000000000000000076
:103B20000402040808000307080808080808080831
:103B30000B0F00000000000000000000000000006B
:103B40000000000081180008011A0008F11A00089E
:103B5000400040003C0E00203C0E00200000000011
:103B6000FFFFFFFF844B888888888888FFFFFFFF5E
:103B7000888888888888B8B4FFFFFFFF88888444D5
:103B800088338388FFFFFFFF448888888888888877
:0C3B9000FFFFFFFF8888888888888888ED
:04000005080000F0FF
:00000001FF
