:020000040800F2
:1000000000040020D1060008A1080008A10800088B
:10001000A1080008A1080008A1080008A10800081C
:10002000A1080008A1080008A1080008D1080008DC
:10003000A1080008A1080008A1080008A1090008FB
:10004000A1080008A1080008A1080008A1080008EC
:10005000A1080008A1080008A1080008A1080008DC
:10006000A1080008A1080008A108000881290008CB
:10007000B1290008E1290008212A0008612A0008A6
:10008000A12A0008E12A0008A1080008D1390008C7
:10009000313D0008A1080008A1080008A1080008D7
:1000A000A1080008A1080008A1080008A10800088C
:1000B000A1080008A1080008A1080008F12E000806
:1000C000C1300008A1080008A1080008A108000824
:1000D000A1080008A1080008A1080008A10800085C
:0C00E000A1080008A1080008A108000801
:1000F00000210A2200F086B900220A2300F0D0B8BD
:1001000040F60003C2F2000370B41D6810F8013B12
:10011000EC181A46647804F00304012C11F8014B22
:1001200008BF03F120022E192346767806F0030655
:10013000012E08BF04F12003D21A01D1002BE5D112
:10014000104670BC704700BF0000000000000000B7
:10015000C9B2F0B4002950D010F0030F10D00378CA
:10016000002B79D0994246D0431C05E013F8012BAF
:10017000002A3FD091423ED013F0030F1846F5D12C
:10018000036841EA01270646A3F1013247EA07471F
:1001900022EA030212F0803F1DD187EA0303A3F194
:1001A000013222EA030313F0803F14D1043002E04D
:1001B00012F0803F0FD1064650F8043BA3F1013501
:1001C00087EA030225EA0303A2F1013413F0803F1A
:1001D00024EA0202ECD033783046002B3CD099421E
:1001E00009D0731C01E0914205D0184613F8012B89
:1001F000002AF8D11046F0BC704710F0030F0CD065
:100200000378002BF7D0431C03E013F8012B002ADE
:10021000F1D013F0030F1846F7D102680346A2F19C
:10022000013121EA020212F0803F0AD10430034674
:1002300050F8042BA2F1013121EA020212F0803FB2
:10024000F5D01A781846002AD5D00133184613F88D
:10025000012B002AFAD1CEE71846CCE700000000B7
:10026000F0B40646047874B10F780546064657B1D7
:10027000BC4218BF0A4602D108E09C4206D012F8E0
:10028000013F002BF9D1301AF0BC70476C786E1C1E
:10029000002CF8D03546EBE700000000000000001D
:1002A0002DE9F04F40F60004C2F2000485B01F466D
:1002B0008C4626680B460390029213F8014B3219C4
:1002C0001D4692F801B01BF0080BF6D12D2C73D00F
:1002D0002B2C08BF15F8014BD7F1010338BF0023C1
:1002E000102F14BF1A4643F0010232B1302C73D0E4
:1002F0001BB1302C00F083800A27B946BBF1000FF8
:1003000049460CBF6FF0004A4FF0004ACDF804C0D8
:10031000504600F0B3F950468846494600F080F850
:1003200033190022DDF804C05B78114613F0040F86
:100330001ED0303CA74225DD814294BF002301231B
:1003400053EAD2722ED10A1A534243EB02034445B8
:10035000D4BF002303F00103002B23D109FB01418B
:1003600015F8014B012233195B7813F0040FE0D12B
:1003700013F0030306D0012B14BF57233723E41ACD
:10038000A742D9DCB2F1FF3F1BD00846BBF1000FFA
:1003900010D1029B1BB152B90299C1F800C005B03F
:1003A000BDE8F08F4FF0FF3215F8014BDBE705F1A8
:1003B000FF3CF1E74842ECE715F8014B4FF0010B29
:1003C0008AE70399BBF1000F0CBF6FF000404FF0BC
:1003D000004022230B60DCE72A78A2F1780041423A
:1003E00041EB0001582A14BF0A4641F00102002ADD
:1003F0003FF47EAF10276C78B94602357EE70827B8
:10040000B9467BE730B440F60404C2F200040D465E
:10041000134601462A46206830BC41E70000000030
:100420004A1E08BF7047C0F02481884240F21681FE
:10043000114200F01781B0FA80F3B1FA81F2A2EB19
:100440000303C3F11F0304A202EB03134FF00002E6
:100450009F4600BFAFF30080B0EBC17F00BF42EB0F
:10046000020228BFA0EBC170B0EB817F00BF42EB5E
:10047000020228BFA0EB8170B0EB417F00BF42EBCE
:10048000020228BFA0EB4170B0EB017F00BF42EB3E
:10049000020228BFA0EB0170B0EBC16F00BF42EBBE
:1004A000020228BFA0EBC160B0EB816F00BF42EB3E
:1004B000020228BFA0EB8160B0EB416F00BF42EBAE
:1004C000020228BFA0EB4160B0EB016F00BF42EB1E
:1004D000020228BFA0EB0160B0EBC15F00BF42EB9E
:1004E000020228BFA0EBC150B0EB815F00BF42EB1E
:1004F000020228BFA0EB8150B0EB415F00BF42EB8E
:10050000020228BFA0EB4150B0EB015F00BF42EBFD
:10051000020228BFA0EB0150B0EBC14F00BF42EB7D
:10052000020228BFA0EBC140B0EB814F00BF42EBFD
:10053000020228BFA0EB8140B0EB414F00BF42EB6D
:10054000020228BFA0EB4140B0EB014F00BF42EBDD
:10055000020228BFA0EB0140B0EBC13F00BF42EB5D
:10056000020228BFA0EBC130B0EB813F00BF42EBDD
:10057000020228BFA0EB8130B0EB413F00BF42EB4D
:10058000020228BFA0EB4130B0EB013F00BF42EBBD
:10059000020228BFA0EB0130B0EBC12F00BF42EB3D
:1005A000020228BFA0EBC120B0EB812F00BF42EBBD
:1005B000020228BFA0EB8120B0EB412F00BF42EB2D
:1005C000020228BFA0EB4120B0EB012F00BF42EB9D
:1005D000020228BFA0EB0120B0EBC11F00BF42EB1D
:1005E000020228BFA0EBC110B0EB811F00BF42EB9D
:1005F000020228BFA0EB8110B0EB411F00BF42EB0D
:10060000020228BFA0EB4110B0EB011F00BF42EB7C
:10061000020228BFA0EB0110B0EBC10F00BF42EBFC
:10062000020228BFA0EBC100B0EB810F00BF42EB7C
:10063000020228BFA0EB8100B0EB410F00BF42EBEC
:10064000020228BFA0EB4100B0EB010F00BF42EB5C
:10065000020228BFA0EB0100104670470CBF01202A
:1006600000207047B1FA81F2C2F11F0220FA02F0B5
:10067000704708B14FF0FF3000F012B80029F8D0F1
:100680002DE90340FFF7CCFEBDE8064002FB00F376
:10069000A1EB0301704700BF000000000000000054
:1006A000704700BF000000000000000000000000D4
:1006B000704700BFAFF30080AFF30080AFF300805E
:1006C000FEE700BFAFF30080AFF30080AFF3008020
:1006D00072B6634880F30988022383F31488BFF35A
:1006E0006F8F604A604CA24217D213464FF05531CB
:1006F000D64343F8041BA519A342C5F380050CD2C9
:1007000025B1196002F10803A34206D21A4642F845
:10071000041B5960131DA342F8D3544A824217D2D6
:1007200013464FF05531D54343F8041B4419834217
:10073000C4F380040CD224B1196002F1080383428F
:1007400006D21E4646F8041B5960331D8342F8D377
:1007500003F0B6FC464C4749A14222D246480B461C
:10076000024652F8046BCD4343F8046B04EB050CCE
:10077000A342CCF3800514D23DB1166800F1080203
:100780001E6001F10803A3420BD2104650F8045B2F
:10079000194641F8045B5668021D5E600B1DA342BA
:1007A000F3D3364A3648824217D200211346D44347
:1007B00043F8041B00EB040E8342CEF380040CD2FA
:1007C00024B1196002F10803834206D21A4642F8A6
:1007D000041B5960131D8342F8D32A4D2A4EFFF79C
:1007E00067FFB54219D22C4654F8043BE943771809
:1007F0009847B442C7F380070FD22FB1236805F1A1
:1008000008049847B44208D2254655F8042B90476F
:1008100060682C1D8047B442F6D31C4D1C4E04F07A
:10082000A7F8B5421AD22C46EF4354F8043B06EB26
:10083000070CCCF380079847B4420FD22FB122683F
:1008400005F108049047B44208D2254655F8040B38
:10085000804761682C1D8847B442F6D3FFF730BF4C
:1008600000080020000000200004002000040020F8
:100870001C0900200008002008660008200900204C
:10088000E0170020EC000008EC000008EC00000875
:10089000EC000008AFF30080AFF30080AFF30080FE
:1008A000FEE700BFAFF30080AFF30080AFF300803E
:1008B00072B6FEE7AFF30080AFF30080AFF30080C5
:1008C00000F08EF900F0F4FB00F0AAF900DF00BFA1
:1008D000EFF30983203383F30988002383F311881E
:1008E000704700BFAFF30080AFF30080AFF300802C
:1008F0000A4B002210B59A60094A07201021DA60DD
:1009000000F0C6F80A204FF4007100F0C1F80B2087
:100910008021BDE8104000F0BBB800BF00ED00E052
:100920000000FA05AFF30080AFF30080AFF3008062
:10093000202383F311881648436813F4006316D00C
:10094000EFF30983203B83F30988124A4FF080704C
:100950009169D86171B11068D269816892689142D9
:1009600094BF002201227AB10B499961704783F349
:10097000118870471068D26981689268914234BFCB
:1009800000220122002AEFD1044A9A61704700BF79
:1009900000ED00E0540E0020C1080008CC0800085B
:1009A00010B500F09DF9202383F3118800F058F969
:1009B00000F0CEF800F074F9002383F3118800F002
:1009C000AFF9BDE81040FFF7B3BF00BFAFF3008041
:1009D0002DE9F04FC1F80CD0D0F80CD0BDE8F08F65
:1009E00008B500F01DF9002383F311882846A047BD
:1009F00000F09EFC08BD00BFAFF30080AFF30080A5
:100A0000F0B400F00307FE00FF2313FA06F200F033
:100A10001F04B1400125A5408608094CC03654F892
:100A20002670400927EA020242EA010300F160074A
:100A300044F8263044F8275044F82050F0BC704762
:100A400000E100E0AFF30080AFF30080AFF300807F
:100A500010B400F01F020124944000F00301CA000A
:100A6000FF2313FA02F24109064B2031800843F8B4
:100A70002140C03053F8201021EA020243F8202020
:100A800010BC704700E100E0AFF30080AFF30080DE
:100A900000F0030210B4FF23D40013FA04F2A140C3
:100AA0008008064C063054F8203023EA020242EA5D
:100AB000010344F8203010BC704700BF00ED00E097
:100AC0000248034AC3699A61FEE700BF540E002042
:100AD000F0550008AFF30080AFF30080AFF3008063
:100AE00030B583B0FFF704FF00F012FA00F0A8F968
:100AF00000F066FF00F0BCFF00F062F940210E48F4
:100B000000F0FEFA0D4D0E490124E86180F8204006
:100B1000C16100F04DF8002383F3118862B6EA69E1
:100B20001D46084BC021936107482246074B00959C
:100B300000F076FB03B030BD20090020540E0020E9
:100B400000040020F855000870090020C10A0008C0
:100B500070B500F005F9114B9A69002A01DD013AE0
:100B60009A61DA690E4C516A2368481C5062E16848
:100B7000481CA342E0600FD09D68013D9D605DB9B7
:100B800026461968DA681869DD604E602160904772
:100B9000236898680028F4D070BD00BF540E002070
:100BA000440E0020AFF30080AFF30080AFF300806D
:100BB0000548036813B9054A116821B10448054B7B
:100BC0001860FFF775BE7047300A00203C0E002009
:100BD00010560008400E0020AFF30080AFF30080F5
:100BE000084810B5036853B9074C216821B1074A7A
:100BF000074B1A60FFF75CFE0120206010BD024C1D
:100C0000F5E700BF300A00203C0E0020185600080F
:100C1000400E0020AFF30080AFF30080AFF3008000
:100C2000094810B5036833B9084C2168002903DD71
:100C30000020206010BD054C054A064B1A60FFF7E6
:100C400037FE0020206010BD300A00203C0E00203E
:100C500020560008400E0020AFF30080AFF3008064
:100C6000084810B50368002B0ADD074C216821B144
:100C7000064A074B1A60FFF71BFE0120206010BDDB
:100C8000014CF5E7300A00203C0E002028560008F1
:100C9000400E0020AFF30080AFF30080AFF3008080
:100CA0000A4810B50368002B06DD094C21680029AD
:100CB00003DD0020206010BD054C064A064B1A607B
:100CC000FFF7F6FD0020206010BD00BF300A0020B5
:100CD0003C0E002030560008400E0020AFF300808C
:100CE00010B5202383F31188094C2368002B02DB05
:100CF000084802682AB1084B08491960FFF7D8FD77
:100D000023685A1C2260002383F3118810BD00BFA2
:100D1000300A00203C0E0020400E0020385600080B
:100D200010B5202383F31188094C2368002B02DDC2
:100D3000084802682AB1084B08491960FFF7B8FD56
:100D400023685A1E2260002383F3118810BD00BF60
:100D5000300A00203C0E0020400E002040560008C3
:100D600006480368002B04DB054A1168002900DDF2
:100D700070470448044B1860FFF79ABD300A002002
:100D80003C0E002048560008400E0020AFF30080C3
:100D90000648036823B9064A1168002900DD704738
:100DA0000448054B1860FFF783BD00BF300A0020E0
:100DB0003C0E002050560008400E0020AFF300808B
:100DC000034A4021134643F8081B5360704700BF95
:100DD000340A0020AFF30080AFF30080AFF300804F
:100DE00010B40D4A0D4C0E495368E468C9691C6083
:100DF0005960846A03F110019C6090F8204002F56C
:100E0000816081421C7328BF02F10803516028BF32
:100E1000536010BC704700BF340A0020440E00200D
:100E2000540E0020AFF30080AFF30080AFF30080DA
:100E3000014B1860FFF73CBD400E0020AFF300806F
:100E4000044B4FF0FF3000225B601B609860DA605B
:100E5000704700BF440E0020AFF30080AFF3008066
:100E6000F8B504460D4616461F46FFF779FFCCB18C
:100E7000C6B1BDB10D4927610B68E6609A6895421D
:100E800004D91B68AD1A9A68AA42FAD35A688B42F1
:100E90002360626014605C60A56002D09868451BA6
:100EA0009D60F8BD0248FFF7C3FFE3E7440E002052
:100EB00060560008AFF30080AFF30080AFF300800E
:100EC00010B50446FFF74CFF84B1E36893B1236883
:100ED0000A4A934203D09968A268881898606068AB
:100EE000002203602368E260586010BD0448FFF7E9
:100EF0009FFFEAE70348FFF79BFFE8E7440E002067
:100F00007056000880560008AFF30080AFF30080F1
:100F1000044B002014225B601B6098609A615B6147
:100F20001B617047540E0020AFF30080AFF30080C8
:100F300010B590F8203004468BB10E2B0FD0002254
:100F4000094BA16884F820201B6898688842FBD26E
:100F50005968236061600C605C60204610BD0348E6
:100F6000FFF766FFEBE700BF540E0020A056000815
:100F700090F820300D2B11D8DFE803F01510100782
:100F8000100B101010101010100B816A8B685A1C77
:100F90008A60416803680B60026851604FF0FF325D
:100FA0008262FFF7C5BF7047AFF30080AFF30080E8
:100FB00070B5114C0646FFF7EBFEE569142085F885
:100FC0002060236801211A6883F82010A061546012
:100FD00028462260E361FFF703FFEA69ADF12403CD
:100FE0009A4202D90548FFF723FFE0692946BDE888
:100FF0007040FFF7EDBC00BF540E0020B45600084F
:1010000070B50E4686B00546FFF7C2FEB6F1FF3F4B
:1010100012D00C4C3146E3690B4A01A8FFF720FFC0
:101020002846FFF7C5FF049B13B101A8FFF748FF4F
:10103000E069806A06B070BD2846FFF7B9FF014C31
:10104000F6E700BF540E0020710F0008AFF30080D8
:1010500070B5154D04460E46FFF79AFEE869A26882
:101060008368A6629A4215D9FFF762FF0123142212
:10107000064684F82030AA61EC61FFF7B1FEF06902
:10108000ADF1240188420AD820463146BDE87040BF
:10109000FFF79EBC2046BDE87040FFF749BF0348FC
:1010A000FFF7C6FEF0E700BF540E0020B45600085C
:1010B00070B5104C01212368E5691A681420A061FD
:1010C00083F82010546028462260E361FFF730FF68
:1010D0002846FFF785FEEA69ADF124039A4202D95A
:1010E0000548FFF7A5FEE0692946BDE87040FFF717
:1010F0006FBC00BF540E0020B4560008AFF3008050
:10110000F0B40022104C0125022380F8203080F832
:10111000212080F82250656900F1300600F12C0C86
:1011200000F14C07046181604561416460610264C3
:10113000C263426282612861C0F82CC046630663C4
:10114000C761F0BC704700BF540E0020AFF30080B1
:10115000884213D2C34300F8012BCB18884203F016
:1011600001030CD01BB100F8012B884208D00346C4
:1011700003F8012B4270581C8842F8D17047704721
:10118000704700BFAFF30080AFF30080AFF3008083
:10119000F8B504460D4616461F46FFF7E1FD0CB1B3
:1011A000AF2D2BD81848FFF743FE243D6119E160AD
:1011B0006751069D15484D600023154A02270125F9
:1011C000086284F8207084F8225084F82130506935
:1011D00004F1300104F12C0704F14C052261606137
:1011E000A6606664546123640461E3636362A3617F
:1011F000E76261632163E5612046F8BD7F2ED1D8A7
:10120000002FD2D1CEE700BFD0560008E109000878
:10121000540E0020AFF30080AFF30080AFF30080E6
:10122000F0B504460D461F4683B016464C302346A3
:10123000FF211A4602F8011B5970531C8342F8D152
:101240006019834215D25521DA4303F8011B00EBE4
:10125000020C83420CF001020BD01AB103F8011BFF
:10126000834206D01A4602F8011B5970531C834270
:10127000F8D1202383F31188FFF7B2FC2046089CA5
:101280003B46324629460094FFF782FF0021044680
:10129000FFF7DEFEFFF7C4FC002383F3118820462E
:1012A00003B0F0BDAFF30080AFF30080AFF3008078
:1012B00010B5044610B90948FFF7BAFD202383F39F
:1012C0001188FFF78DFC21460620FFF799FEFFF7F6
:1012D000A7FC002383F3118810BD00BF105700083E
:1012E000114B70B5DC69254655F82C3FA062AB4226
:1012F00007D01A681846E262FFF71AFEE36AAB42AB
:10130000F7D194F8210010F0030F04D1636922692A
:101310001A6121694B610E20FFF74AFE0348BDE8C0
:101320007040FFF785BD00BF540E00202057000815
:1013300010B52023044683F31188FFF751FC2046A3
:10134000BDE81040FFF7CCBFAFF30080AFF30080E3
:1013500070B52023044683F31188FFF741FC94F80D
:101360002250002D21D0013DEDB284F82250FFF72C
:1013700057FC002383F311881DB994F820300E2BFD
:1013800000D070BD94F8210000F00303012B12D0AF
:10139000022BF6D163692169A06C1961226921468B
:1013A0005361BDE8704000F053BC0848FFF740FDB2
:1013B00094F82250D7E76169236920460B612269BE
:1013C0005161BDE8704000F0ABBB00BF845700081E
:1013D0002DE9F04182B00D4616461F4600F058FB3D
:1013E000044618B300F14C084146FF22FFF7B0FE57
:1013F000404661195522FFF7ABFE202383F3118885
:10140000FFF7EEFB2046089C32463B4629460094F7
:10141000FFF7BEFE012380F8213000210446FFF7CC
:1014200017FEFFF7FDFB002383F31188204602B06F
:10143000BDE8F081AFF30080AFF30080AFF3008030
:1014400010B5202383F31188FFF7CAFB06490C6906
:1014500094F82200431C84F82230FFF7E1FB0023BC
:1014600083F31188204610BD540E0020AFF3008096
:1014700038B50546202383F31188FFF7B1FB2C69AB
:101480000D4B9C4216D094F82230FF2B0CD0581CE8
:1014900084F82200FFF7C4FB002383F31188284659
:1014A000FFF756FF204638BD0448FFF7C1FC94F80B
:1014B0002230ECE70024EDE7540E0020C05700086E
:1014C00010B5044620B1002364602460A36010BD01
:1014D0000348FFF7ADFC002364602460A36010BDE7
:1014E000E0570008AFF30080AFF30080AFF3008057
:1014F0003B4B2DE9F0410546DC69FFF749FC002D27
:101500006AD0A868002836D0A2688168914208D2C3
:1015100090F820308260042B46D0052B31D0002B70
:101520001ED02B461B689D4203D09868A168884254
:10153000F8D25A682360626004205C601460A5627F
:10154000FFF736FDAB68A34202D02648FFF770FCD8
:10155000206CA84213D02448BDE8F041FFF768BCD6
:101560004368026801211A60026880F82010536005
:10157000FFF7DEFCD5E7216CAC60E9602564BDE8CF
:10158000F08141680768866A0F60076833467960B2
:101590001B689E4202D099689142F9D25A68036052
:1015A000426010605860BCE741680768866A0F6057
:1015B0000768334679601B689E4202D09968914261
:1015C000F9D25A680360426010605860B068A2683F
:1015D000836893429CD3A4E70448FFF729FC90E773
:1015E000540E00200058000814580008F057000856
:1015F00010B52023044683F31188FFF7F1FA204643
:10160000FFF776FFFFF70CFB002383F3118810BD73
:10161000214A70B52023D56983F31188FFF7E0FADA
:101620002C6C002C33D0A368AB4203D01B48FFF7CF
:10163000FFFB2C6C2368E268A3422A641ED0686C0E
:101640004AB11168914203D08968884238BF084680
:10165000D268002AF5D11A681E6CA86000212260A9
:1016600018465460A360E6601C64FFF7F1FCFFF7C6
:10167000D7FA002383F31188204670BD0020A060B4
:10168000FFF7CEFA002383F31188204670BD04488B
:10169000FFF7CEFB2C6CC6E7540E00205058000814
:1016A0003C580008AFF30080AFF30080AFF3008038
:1016B00038B504460D46FFF753FBBCB1E26B94F816
:1016C00020301543082BE5630CD0092B00D038BD22
:1016D000A06A0540A842FAD12046FFF729FC002164
:1016E000816238BDA36A1D42F6D138BD0148FFF7BB
:1016F0009FFBE3E7BC580008AFF30080AFF3008026
:1017000070B505460E46FFF72BFB65B12C68AC4261
:1017100008D0A168606846EA0101FFF7C9FF2468A4
:10172000AC42F6D170BD0248FFF782FBEEE700BF86
:10173000E0580008AFF30080AFF30080AFF3008003
:1017400010B4034619B94FF0FF3010BC7047064C77
:101750000D20E26993625C68136054605A602260F5
:1017600010BCFFF74DBC00BF540E0020AFF300804B
:1017700010B48A1800244060006084604161816177
:10178000C1600261C36110BC704700BFAFF300804D
:10179000F8B504460D46202383F31188FFF720FA9D
:1017A000E3690BB120469847A6682046294656B9FA
:1017B000FFF7C6FF071EF7DAFFF732FA334683F367
:1017C00011883846F8BDA369013EA66013F8017B75
:1017D0002269A361934224BFE368A361FFF720FA63
:1017E000002383F311883846F8BD00BFAFF30080B3
:1017F0002DE9F0470446904689461D46C769002AF0
:1018000037D0202383F31188FFF7EAF900260FB1C0
:101810002046B847D4F808A020462946BAF1000F60
:101820000BD1FFF78DFF0028F4D0FFF7F9F95346ED
:1018300083F311883046BDE8F087A3690AF1FF31D0
:10184000A16013F8010B09F806002269A361934215
:1018500024BFE368A361FFF7E3F9002383F3118852
:1018600001364645E6D0202383F31188FFF7B8F907
:10187000CDE70248FFF7DCFAC3E700BF20590008B4
:1018800010B48C1840600060826041618161C16069
:101890000461C36110BC7047AFF30080AFF30080F8
:1018A0002DE9F041202304460D46164683F31188A6
:1018B000FFF796F9A7682046314667B9FFF740FF62
:1018C000B0F10008F6DAFFF7ABF93B4683F3118875
:1018D0004046BDE8F0816369013FA76003F8015B02
:1018E00022696361934224BFE3686361E3690BB1DA
:1018F00020469847FFF794F9002383F31188984610
:101900004046BDE8F08100BFAFF30080AFF3008038
:101910002DE9F047044615460E469946D0F81C803E
:10192000002A40D0202383F31188FFF759F90027BC
:10193000D4F808A020460AF1FF33BAF1000F24D0F2
:10194000A3603178636903F8011B226963619342E4
:1019500024BFE3686361B8F1000F00D0C047FFF710
:101960005FF9002383F311880137013D18D0013658
:10197000202383F31188FFF733F9D4F808A0204619
:101980000AF1FF33BAF1000FDAD120464946FFF7DA
:10199000D7FE0028CCD0FFF743F9534683F31188D4
:1019A0003846BDE8F0870248FFF742FABAE700BFC1
:1019B00034590008AFF30080AFF30080AFF300802C
:1019C000054B064A064823F00701064B116020F03C
:1019D00007021A60704700BFE7170020780E00204A
:1019E00000500020740E0020AFF30080AFF30080A1
:1019F00010B50446FFF7B4F9074A084913680968A7
:101A0000E01D20F00700C91A884203D8181810609A
:101A1000184610BD002010BD780E0020740E002066
:101A200010B52023044683F31188FFF7D9F8204628
:101A3000FFF7DEFF0446FFF7F3F8002383F3118876
:101A4000204610BDAFF30080AFF30080AFF30080FD
:101A5000024A034910680B68C01A7047740E0020D0
:101A6000780E0020AFF30080AFF30080AFF300806A
:101A7000044B0549002203F1100019609A60DA60F6
:101A8000FFF71EBD800E0020211A0008AFF3008072
:101A9000F8B5204E0731002818BF064606F11000A1
:101AA00021F0070506F10804FFF7A2FD00E01C463F
:101AB0002368F3B15A689542F9D805F108018A42C2
:101AC00014D36FF00707D3F800E0C5EB070C0CEB5D
:101AD00002005F1843F801E0786027605D601C46F3
:101AE00044F8086BFFF794FD2046F8BD1A682260A1
:101AF000F5E7FFF78DFD3468002CF5D005F10800FF
:101B0000A04720B10660456000F10804ECE70446F8
:101B1000EAE700BF800E0020AFF30080AFF3008043
:101B20002DE9F041074600284BD057F8086CA7F183
:101B3000080506F11000FFF75BFD08363446AC429D
:101B400004D86068083023189D4220D3B44204D0E2
:101B5000AC4202D323681C46F1E723680BB19D42D7
:101B6000F9D26A6847F8083C256002F1080357F883
:101B7000080CE91881420ED0636803F1080E04EBEB
:101B80000E0CAC4515D0BDE8F041FFF741BD0F4844
:101B9000FFF74EF9DAE74968EB58521808326A60E5
:101BA00047F8083C636803F1080E04EB0E0CAC45E3
:101BB000E9D16A6857F8080C9B1808336360206005
:101BC000E1E70348FFF734F9AFE700BF70590008B9
:101BD00060590008AFF30080AFF30080AFF30080DE
:101BE00038B50E4C0D46002818BF044604F110000D
:101BF000FFF7FEFCA3686BB10022144659681B680E
:101C000052180134002BF9D105B12A60FFF700FD0D
:101C1000204638BD1A461C46F6E700BF800E00205D
:101C200038B504460D46FFF79BF81CB115B115F009
:101C3000070F02D00348FFF7FBF823682B602560ED
:101C400038BD00BFB4590008AFF30080AFF3008087
:101C500038B505460C46202383F31188FEF7C0FFF4
:101C600028462146FFF7DCFFFEF7DAFF002383F367
:101C7000118838BDAFF30080AFF30080AFF3008070
:101C800010B500F0FDFF00F04BFC064801F0C0FD70
:101C900000F00EF800F04CF900F042FDBDE81040F5
:101CA00002F016BAE05E0008AFF30080AFF30080E8
:101CB00001F0B6BAAFF30080AFF30080AFF300805D
:101CC00001210023017043600C30FFF7F9BB00BF16
:101CD00038B504460D46D8B1D1B12378581EC2B2EA
:101CE000012A04D9052B02D00B48FFF7A1F82023C5
:101CF00083F31188FEF774FF2046656001F0A8FAAF
:101D000002232370FEF78CFF002383F3118838BD74
:101D10000248FFF78DF8E0E7E0590008D0590008C5
:101D200010B50446C8B12378581EC2B2012A04D99E
:101D3000052B02D00B48FFF77BF8202383F3118893
:101D4000FEF74EFF204601F0EBFB01232370FEF768
:101D500067FF002383F3118810BD0348FFF768F87D
:101D6000E1E700BFFC590008F0590008AFF300801C
:101D70002DE9F04784B00446884691461D46DDF8BB
:101D800030A00D9E0E9F08B100292AD11C48FFF7F4
:101D90004FF82378022B02D01A48FFF749F8202386
:101DA00083F31188FEF71CFF00210320A16020703F
:101DB0002B46204641464A46CDF800A001960297A0
:101DC00001F066FCB0F1FF3F054615D002232370F9
:101DD000FEF726FF002383F31188284604B0BDE8F0
:101DE000F087002BD2D0002AD0D016B1BAF1000F64
:101DF000CCD0002FCDD1C9E705222270E8E700BF83
:101E0000205A0008405A0008AFF30080AFF300806A
:101E10002DE9F04182B004460F4690461D46089ECB
:101E200008B1002927D11948FFF702F82378022BBF
:101E300002D01748FEF7FCFF202383F31188FEF73A
:101E4000CFFE00210420A16020702B462046394699
:101E50004246009601F08CFBB0F1FF3F054611D0E1
:101E600002232370FEF7DCFE002383F3118828464B
:101E700002B0BDE8F081002BD5D0002AD3D0002ECF
:101E8000D4D1D0E705222270ECE700BF605A0008E9
:101E90007C5A0008AFF30080AFF30080AFF30080FE
:101EA000F0B51D4683B004460F461646202383F343
:101EB0001188FEF795FE0023A36023702B46089D32
:101EC00020460095099D39463246019501F078FC7F
:101ED000B0F1FF3F054609D002212170FEF7A0FEB8
:101EE000002383F31188284603B0F0BD052020703D
:101EF000F4E700BFAFF30080AFF30080AFF30080E2
:101F000010B590F84210044680F84A1001F0A0FD88
:101F100063681B6813B12046012198470320207095
:101F200010BD00BFAFF30080AFF30080AFF30080BF
:101F300001F05EBDAFF30080AFF30080AFF300802F
:101F4000002301220270436083608381C381704754
:101F500070B504460D4610B309B3202383F31188EE
:101F6000FEF73EFE2178481EC3B2012B02D90E486F
:101F7000FEF75EFF00262046656026616661A66169
:101F8000E66126626662A662E66201F039FD02221F
:101F90002270FEF745FE334683F3118870BD034877
:101FA000FEF746FFD9E700BFF05A0008E05A0008E4
:101FB0002DE9F04104460D461646FEF7D1FE002CF1
:101FC0002AD0002E28D02378042B02D01448FEF704
:101FD0002FFF2F1D54F8270010B11248FEF728FFDD
:101FE000316811F010030FD1726994464CF8043B2C
:101FF0005360CCF80430B069014641F8043B0A1D37
:10200000436042F8043B13602046294644F82760A9
:10201000BDE8F04101F02CBD0348FEF709FFD2E70F
:10202000345B0008505B00081C5B0008AFF30080C5
:1020300070B504460E46FEF793FE9CB1E38953FA51
:1020400006F515F0010501D0012070BD012010FA40
:1020500006F242EA03032046E381314601F0C0FF65
:10206000284670BD0148FEF7E3FEE7E7A45B0008E1
:1020700070B504460E46FEF773FE9CB1A38953FA71
:1020800006F515F0010501D0012070BD012010FA00
:1020900006F242EA03032046A381314601F0B0FF75
:1020A000284670BD0148FEF7C3FEE7E7BC5B0008A9
:1020B00010B4002202240470A0F8482080F84A20BE
:1020C00080F84B208281C281026142618261C261DB
:1020D000026242628262C26280F8302010BC01F06B
:1020E00047BD00BFAFF30080AFF30080AFF30080C7
:1020F00000222DE9F041044680F8302000F1400232
:1021000001F076FD63689B68002B1FD0204698473E
:10211000E0B1A56B94F84030B4F84600A8423CBF4B
:10212000A063054613F0800F7BD1002D6AD10420F7
:1021300084F83000294620462A462B4601F040FF0D
:1021400020462946BDE8F04101F05ABF94F84030DE
:1021500013F060061A4612D00021204601F070FFED
:102160002046002101F05CFF6268136813B120462D
:1021700005219847052384F83030BDE8F08194F8B4
:10218000417003F07F0141EA0727B7F5407F00F077
:10219000A98016DDB7F5C06F00F0CE8060DDB7F521
:1021A000106F00F0B68040F6024C67456BD0B7F573
:1021B000006FD1D1012504F14B006063A563E66394
:1021C000AAE7022F77D059DDB7F5807F62D0B7F547
:1021D000817FC1D194F842000028BDD194F84430E9
:1021E00013F00F0108D013F0800F40F0E08020467C
:1021F00001F036FF94F8402000256563A563E56390
:10220000134689E70323002184F830302046626BAF
:102210002B4601F0BDFE20460021BDE8F04101F053
:10222000DFBE75B10122002184F830202046626BA8
:102230002B4601F0C5FE20460021BDE8F04101F02B
:10224000DFBE022184F83010204629462A462B465C
:1022500001F09EFE20462946BDE8F04101F0C0BED7
:1022600040F2023087427CD0B7F5A06F7FF474AFA4
:10227000554D6663E563A66335464DE7002F41D0B3
:10228000012F7FF469AF5149022500226163A563E4
:10229000E26341E794F842E0BEF1010F7FF45CAFE6
:1022A000B4F84810666321F00205A4F84850A6630C
:1022B000E663354630E794F8441011F0800F67D19B
:1022C000204601F00F0101F073FC012867D00228BD
:1022D0007FF442AF3E4BA0636363E66394F8403003
:1022E000054619E794F8420001287FF435AFB4F8A9
:1022F0004820666342F0020CA4F848C0A663E66377
:10230000354609E7022504F148026263A563E763E5
:1023100002E794F8425084F84B50002D35D1032346
:10232000237060680368002B3FF466AF20460221EB
:10233000984794F840205FE7636820465D6894F80A
:10234000431094F84220B4F84430A84700283FF4E2
:1023500003AF4168056894F840306163A563E663A4
:10236000DAE694F8421000297FF4F6AE94F844308F
:1023700013F00F013FF440AF13F0800F1DD1204642
:1023800001F04EFE94F8402036E704212170C8E7A2
:10239000204601F00F0101F01BFC012897D10D4DE3
:1023A000A7636563E66394F840303D46B4E6204693
:1023B00001F06EFE94F840201EE7204601F040FE3A
:1023C00094F8402018E700BF011F0008C05A000819
:1023D000D05A0008105C0008AFF30080AFF3008013
:1023E00090F8303070B5012B044619D0042B10D072
:1023F000002101F025FE0021204601F011FE616858
:102400000B6813B1204605219847052284F8302037
:1024100070BDC36B03B19847002384F8303070BDA2
:10242000836BB0F846209A4206D90269118AB3FB41
:10243000F1F501FB153575B1002102200A460B4666
:1024400084F83000204601F0A3FD20460021BDE8BD
:10245000704001F0C5BD29462A462B4601F0B0FD6B
:1024600020462946BDE8704001F0CABDAFF30080A8
:1024700090F8303070B5022B044621D0032B11D0D8
:102480000021204601F0DCFD2046002101F0C8FDBE
:1024900063681B6813B1204605219847052184F81D
:1024A000301070BD002104250A460B4680F83050DC
:1024B00001F086FD20460021BDE8704001F0A0BD7E
:1024C00002699169CB68002BDAD1C36B03B19847DD
:1024D000002084F8300070BDAFF30080AFF30080BF
:1024E00001494B6883607047001000E0AFF3008043
:1024F000084B09495A6883680968D31AC2685B1A8D
:102500009342836004D80269934238BF03617047E5
:10251000C3607047001000E0A00E0020AFF3008001
:1025200010B50B4A86B00B490B4C002301A8019251
:102530004FF0FF3223600393049302910592FFF75B
:10254000CFFF01A802998847039B236006B010BD06
:10255000E1240008F1240008A00E0020AFF3008061
:10256000806BD0F1010038BF00207047AFF30080CE
:102570008069D0F1010038BF00207047AFF30080C0
:1025800070B52023044683F311880026FEF728FB4C
:10259000A568A660FEF744FB334683F311882846FE
:1025A00070BD00BFAFF30080AFF30080AFF30080D9
:1025B0002DE9F0418469D4F8D000D4F84080036854
:1025C000E76B9D89A66B15F0020501D0BDE8F0818F
:1025D000FEF726FB2B4683F31188D4F8D010C7EB07
:1025E0000807BB1B0868E26B012101F069FB20238F
:1025F00083F31188FEF7F4FAD4F8D00001210068C3
:10260000FFF736FDA268201D42F00806A6602946A5
:102610002646FFF775F8E16B236C56F8300F5A1A0F
:10262000B0426164A263D1D0036823635E60FEF7A9
:102630007FFC8562206BB042F6D1BDE8F08100BF1F
:10264000F8B54469D4F8D0100868C38913F0080FAE
:1026500001D1A56905B1F8BDFEF7E2FA2B4683F377
:102660001188D4F8D060402303213068E26901F07A
:10267000E7FA2023064683F31188FEF7B1FAD4F86F
:10268000D00003210068FFF7D3FCA368201D43F0AE
:102690000407A76029462746FFF732F857F8100FBE
:1026A000E269B842A262A661D5D0016821614F609B
:1026B000FEF73EFC85622069B842F6D1F8BD00BF46
:1026C0001030FFF795B800BFAFF30080AFF3008084
:1026D00010304FF0FF33FFF78BB800BFAFF300802F
:1026E0003030FFF715B900BFAFF30080AFF30080C3
:1026F00030304FF0FF33FFF70BB900BFAFF300806E
:102700001030FFF745B800BFAFF30080AFF3008093
:102710003030FFF7C5B800BFAFF30080AFF30080E3
:10272000704700BFAFF30080AFF30080AFF30080CD
:1027300038B50E4B0546044645F8043B6560002558
:10274000A5600125103004F150014022084B25738B
:10275000FFF70EF804F1300004F190014022054B20
:10276000FFF78EF86462A46438BD00BF605C0008A7
:1027700041260008B1250008AFF30080AFF30080C8
:1027800070B504460D46F0B1202383F31188FEF79F
:1027900027FA217B481EC3B2012B02D90C48FEF751
:1027A00047FB2B680222C4F8D0509C602273FEF7CE
:1027B00037FA002383F31188294651F8040BBDE84A
:1027C0007040FFF7C5BB0348FEF732FBDCE700BFF4
:1027D000305C0008205C0008AFF30080AFF300809D
:1027E00090F8401001F06003202B01D000207047CA
:1027F00090F84130212B0BD0222B03D0202B07D077
:1028000000207047002242638263C2630120704748
:1028100003490723002241638363C2630120704799
:10282000F8080020AFF30080AFF30080AFF3008022
:10283000F8B5846805460E46202383F31188FEF719
:102840000FFA206CE26BA36B871AFF1A05D1FEF713
:1028500027FA002383F31188F8BDFEF721FA00233D
:1028600083F311883B4628463146E26B01F028FA93
:10287000202383F31188FEF7F3F928463146FFF74A
:10288000F7FBA168201D41F00805A5600021254641
:10289000FEF736FFE36B226C55F8300FD11AA842D1
:1028A0006364A163D3D00026036823635D60FEF7F1
:1028B0003FFB8662206B8542F6D1FEF7F1F90023DB
:1028C00083F31188F8BD00BFAFF30080AFF3008041
:1028D0002DE9F0412023846806460F4683F31188D2
:1028E000FEF7BEF9A56935B1FEF7DAF9002383F3E7
:1028F0001188BDE8F081FEF7D3F92B4683F31188E8
:10290000402330463946E26901F09AF92023804697
:1029100083F31188FEF7A4F930463946FFF788FBA8
:10292000A268201D42F00401A16026462946FEF758
:10293000E7FE56F8100FE369B042A362C4F81880AE
:10294000D2D0036823615E60FEF7F2FA85622069E7
:10295000B042F6D1FEF7A4F9002383F31188BDE855
:10296000F08100BFAFF30080AFF30080AFF30080D1
:10297000704700BFAFF30080AFF30080AFF300807B
:1029800010B5FEF7ADF90848084A03680F2411682E
:10299000546013B1406821409847FEF7C1F9BDE883
:1029A0001040FDF7C5BF00BFA40E0020000002408C
:1029B00010B5FEF795F90848084A8368F0241168B5
:1029C00054601BB1C068C1F303119847FEF7A8F922
:1029D000BDE81040FDF7ACBFA40E0020000002408F
:1029E00010B5FEF77DF90948094A03694FF4706490
:1029F000116854601BB14069C1F303219847FEF789
:102A00008FF9BDE81040FDF793BF00BFA40E002072
:102A100000000240AFF30080AFF30080AFF300800E
:102A200010B5FEF75DF90948094A83694FF470440F
:102A3000116854601BB1C069C1F303319847FEF7B8
:102A40006FF9BDE81040FDF773BF00BFA40E002072
:102A500000000240AFF30080AFF30080AFF30080CE
:102A600010B5FEF73DF90948094A036A4FF470248E
:102A7000116854601BB1406AC1F303419847FEF7E7
:102A80004FF9BDE81040FDF753BF00BFA40E002072
:102A900000000240AFF30080AFF30080AFF300808E
:102AA00010B5FEF71DF90948094A836A4FF470040E
:102AB000116854601BB1C06AC1F303519847FEF717
:102AC0002FF9BDE81040FDF733BF00BFA40E002072
:102AD00000000240AFF30080AFF30080AFF300804E
:102AE00010B5FEF7FDF80948094A036B4FF0706412
:102AF000116854601BB1406BC1F303619847FEF746
:102B00000FF9BDE81040FDF713BF00BFA40E002071
:102B100000000240AFF30080AFF30080AFF300800D
:102B2000124BF0B4D3F800C0DF689E695D6A1C6B7D
:102B3000D86B996C0023CCF800300D4ADFF838C010
:102B40003B601360336093602B601361236093617B
:102B50000360136293621363CCF800300B60054B83
:102B60004FF0FF325A60F0BC704700BFD05C0008E5
:102B7000A40E002000000240DC0E0020AFF3008015
:102B8000F0B5044685B0002833D0667A012505FAF1
:102B900006FC1D4F38681CEA000F26D11B4D4CEA7D
:102BA000000010F07F0F05EBC60C45F83620CCF87E
:102BB0000430386004D0164B5F6947F001065E614F
:102BC000236860681F6827F001051D60267A0F27BB
:102BD00017FA06F6002506601D6042B1A07A0901C9
:102BE000FDF70EFF284605B0F0BD2846FBE710466E
:102BF000F9E70848039102920193FEF719F9019B46
:102C0000029A0399C1E700BFDC0E0020A40E002049
:102C100000100240905C0008AFF30080AFF300802A
:102C200038B50446F8B1617A012010FA01F2104D6E
:102C30002B681A4213D0A07AFDF70AFF617A0122AD
:102C400012FA01F3286820EA030212F07F0F2A60CB
:102C500004D1084B596921F00100586138BD06487C
:102C6000FEF7E6F8E7E70548FEF7E2F8DBE700BF26
:102C7000DC0E002000100240B05C0008A05C0008E0
:102C8000224B00224FF0FF3030B421491C6900F57F
:102C90008C3C18611A61DD68D8600CF5A070DA60B0
:102CA0001C4C486007208A600860E1681A4841F0BF
:102CB0008071E1600468194944F001040460D86936
:102CC00040F08050D861D86940F00060D861086851
:102CD00040F480700860186A00F44071B1F5407FDC
:102CE00003D04FF4803119621A62084B1A6A12F449
:102CF000004F07D1186A40F440721A62196A41F411
:102D00000040186230BCFFF70BBF00BF001002404C
:102D100010E000E0F0ED00E0001000E00070004086
:102D20001F4B1868194640F001021A600B681C4AD4
:102D300013F0020FFAD01368002003F0F9011160BC
:102D4000114650604868164A10F00C0FFAD110680E
:102D5000114640F4803313600B68114A13F4003FAE
:102D6000FAD05368114643F4E8105060136843F0FA
:102D70008070106008680A4A10F0007FFAD0094895
:102D8000094B1221506019605068114640F002034F
:102D900053604A6802F00C0CBCF1080FF9D170477F
:102DA0000010024000641D0000200240AFF30080CC
:102DB000C26A036B30B40021146848F200051D801C
:102DC00019809980998223680F2123F001032360E1
:102DD000147A836A11FA04F450681A68046014685B
:102DE000586824F0010414601B7A9940016030BCDB
:102DF000704700BFAFF30080AFF30080AFF30080F7
:102E000070B5C46905465CB1FFF7D2FF0020E861E8
:102E10004FF0FF332046A362BDE87040FEF788B84C
:102E200070BD00BFAFF30080AFF30080AFF3008050
:102E300011F0080F38B50546046B01D0FDF738FDD9
:102E4000EB6A1A685968106820F0010010601B7A5C
:102E50000F2010FA03F20A60A18888B240F40073D0
:102E6000A38038BDAFF30080AFF30080AFF30080E4
:102E700011F0080F70B50546046B31D1AA6A202302
:102E8000116850680E6826F001060E60127A0F2154
:102E900011FA02F20260B4F804E02EF48051080442
:102EA000020CA280B4F800C02CF480610804020C6B
:102EB0002280218888B240F40072228083F3118836
:102EC000FDF7CEFEEB692BB10022EA6118469A624B
:102ED000FEF72EF8FDF7E4FE002383F3118870BDA2
:102EE000FDF7E6FCCAE700BFAFF30080AFF3008058
:102EF0002DE9F0416D4C6E4DFDF7F2FEA76895F897
:102F000000C017F4804F4FF480424CF0010129704B
:102F100014BF626122612C6B664A208BA68A644FC3
:102F2000B6B246EA004323F07F43934270D056D8AE
:102F3000501E83420CD15D4BB5F820E098684FF4E9
:102F4000005110F4005F14BF59611961A4F810E03A
:102F500016F00A0F29D0554B95F800C098684FF429
:102F6000805210F4805F4CF0040E85F800E014BF2E
:102F70005A611A6195F834104D4BA9B19F6ADA6A0B
:102F80003968186CD3F838E0DF6B12685B6CC1F8F5
:102F90000CE04F60D06053600B6843F001000860A4
:102FA000136843F001011160238B16F0100F10D04D
:102FB000A18895F800E01FFA81FC4CF40072A28011
:102FC00020884EF0080183B243F4806C2970A4F885
:102FD00000C0FDF7A5FEBDE8F041FDF7A9BC364AEB
:102FE000934234D002329342B2D1BB6A1968D1F80D
:102FF0000480B8F1000F38D02188B7F820C088B21B
:103000004CF0010240F4A06E3A84A4F800E0E0E73E
:10301000B4F804C0B96A2CF4007210040968030CF7
:10302000A3800A6842F001000860A3881FFA83FEAB
:103030004EF4805CA4F804C04A68012A88D8B4F829
:1030400000E02EF480610804030C238080E7B4F8CC
:1030500004C0FA6A2CF4007003041268190CA180F1
:10306000106840F00103136072E7B4F804C0202335
:103070002CF400700204110CA180208882B242F46A
:10308000007EA4F800E083F31188FDF7E9FDF869FC
:1030900028B1C0F82880C7F81C80FDF749FFFDF76C
:1030A000FFFD002383F3118852E700BF000C0140AD
:1030B000E00E00200200030082000700AFF3008052
:1030C0002DE9F041554DFDF70BFE2C6B202383F3CA
:1030D0001188FDF7C5FDEA6AAB6A10685668076893
:1030E0000F2127F001070760107A1A6811FA00F023
:1030F00030601668586826F0010616601A7A91400A
:103100000160FDF7CDFD002383F31188A38A13F43A
:10311000807307D0B4F814C001232CF4807002042B
:10312000110CA182B4F814E01EF4007F08D0B4F8AA
:1031300014C043F002032CF400700204110CA182AD
:10314000B4F814E01EF4806F14D0B4F814E043F027
:1031500004032EF480600204110CA182B4F804C0B0
:103160002CF400700204110CA180208882B242F479
:1031700000712180B4F814C01CF4006F08D0B4F8BA
:1031800014E043F008032EF400600204110CA18245
:10319000B4F814C01CF4805F08D0B4F814E043F015
:1031A00010032EF480500204110CA182B4F814C054
:1031B0001CF4804F08D0B4F814E043F020032EF440
:1031C00080400204110CA182A18A0FFA81FCBCF19B
:1031D000000F06DB5BB9FDF7A3FDBDE8F041FDF78D
:1031E000A7BBA18A43F040034804420CA282AB6013
:1031F000202383F31188FDF733FDE86938B1074BCD
:103200006FF0010100228162DA61FDF791FEFDF7A6
:1032100047FD002383F31188DDE700BFE00E0020A7
:1032200010B5074C2046FEF74BFD064B0649A3F1AF
:103230000C020020E0612163A362E26210BD00BFC6
:10324000E00E0020185D000800540040AFF300803D
:1032500002788A23012A2DE9F04104464362056B76
:1032600000F0A1802F464FF09A089C466068E26A01
:10327000A66A13683168466805F11002C3F8008039
:1032800090F80880C1F800C000208A6048F2000C65
:103290004FF41061002E9A60A5F800C02880A98024
:1032A00052DD8B4B9E424FDCB7F804C02CF03F0040
:1032B00001040B0CBB80BA88864990B240F0240C04
:1032C0008E42A7F804C043DCB8F1010F02D0824857
:1032D000FDF7AEFD8148760090FBF6F106FB01F8A4
:1032E0007E4BC8EB0302002A40F0A5807B4A92FB8C
:1032F000F6F6B6B2032E40F2948025214FEA065C22
:10330000B6F5805F39844FEA1C5802D37448FDF744
:103310008FFD6268216B1278A7F81C80B1F800C09D
:10332000022A1FFA8CF32DD0032A70D0012A03D170
:1033300023F00A0003041B0C0B80288883B243F09F
:1033400001012980BDE8F0816648FDF771FDABE71A
:103350006548864224DCA8F10203DAB2012A75D955
:103360006248FDF765FD48F6FF7862680B20216B27
:1033700038841278A7F81C80B1F800C0022A1FFA1E
:103380008CF3D1D143F002024FF6F77C02EA0C0332
:103390000B80288883B243F001012980BDE8F081C9
:1033A0004FF00008B5E7524EB0427FF45BAF514F8B
:1033B0004FF0000E3B69806A43F40018C7F8108094
:1033C0000A214D4A2346C7F810E0FFF7D9FB002831
:1033D00076D1F06A0A21494A454BFFF7D1FB002814
:1033E0006AD1444F1F20FB69A02143F40012FA6107
:1033F000FDF706FB2020A021FDF702FB706A376B6A
:1034000040F4805CC6F824C04CF010082EE743F06E
:103410000A030B80288883B243F001012980BDE8AC
:10342000F0813748FDF704FD4FEA065825234FEA9F
:1034300018583B846DE73348FDF7FAFC274A92FBA6
:10344000F6F6B6B2032E3FF658AFEAE7B8F1020F30
:1034500016D1224A06EB460692FBF6FC06FB0CF858
:103460001E48C8EB000139B91C4890FBF6F631053F
:103470000B0D43F4004878E72348FDF7D9FCF3E748
:10348000B8F1030F20D106EB8606144906EB860639
:1034900091FBF6FC06FB0CF8104BC8EB03023AB9A3
:1034A0000E4991FBF6F31A05100D40F440485CE715
:1034B0001648FDF7BDFCF3E71548FDF7B9FC90E7AA
:1034C0001448FDF7B5FC84E748F6FF784DE700BFE8
:1034D00000093D00A0860100705D00080051250232
:1034E000005E0008585D0008801A0600B85D0008FC
:1034F000E00E002000100240712E0008312E00085E
:10350000A05D0008885D0008D05D0008E85D000847
:10351000445D0008305D0008AFF30080AFF3008029
:10352000037810B5012B04460AD0FFF741FCE06A8E
:10353000FFF776FBA06AFFF773FB0848844200D0D0
:1035400010BD1F20FDF784FA2020FDF781FA044901
:10355000CB6923F40012CA61F2E700BFE00E00203D
:1035600000100240AFF30080AFF30080AFF30080A3
:103570002DE9F043012B87B006461F468846914649
:103580000E9D046B73D9B5F1FF3F05D001A8294604
:10359000394A3346FDF764FCFDF742FB002383F311
:1035A0001188B06A4FEA4808026848F00108A6F896
:1035B0002080B360C2F80C90576004E0FDF730FB48
:1035C000002383F31188218B202311F0020F03D1F4
:1035D000278817F400770CD083F31188FDF700FBE0
:1035E000B5F1FF3FEAD0049B002BE7D14FF0FF304D
:1035F0001CE083F31188FDF7F3FAB5F1FF3F18D112
:1036000086F83470A3881D4D9AB242F40071A180EF
:103610002088EB691FFA80FE4EF4A06CA4F800C06D
:103620000220F361FDF7C4FCE869806A07B0BDE8D9
:10363000F083049A002AD9D086F83470A3880F4DFD
:1036400099B241F40070A0802288EB691FFA82FED3
:103650004EF4A06CA4F800C00220F361FDF7A8FCB2
:1036600004990029E0D001A8FDF72AFCDCE7044812
:10367000FDF7DEFB87E700BF012E0008540E002097
:10368000185E0008AFF30080AFF30080AFF3008056
:103690002DE9F04F87B0119F0646884691469A461D
:1036A000DDF840B0129D046B27B1012F5DD9BBF14D
:1036B000000F5AD0B5F1FF3F05D001A829463C4A7A
:1036C0003346FDF7CDFBFDF7ABFA002383F31188FA
:1036D000F26AB06A116802684FEA4808A6F82080CA
:1036E000B360C1F80C90C1F804A0C2F80CB05760E8
:1036F00004E0FDF795FA002383F31188B4F818C0AD
:1037000020231CF0020F03D1278817F400770CD078
:1037100083F31188FDF764FAB5F1FF3FE9D0049B0C
:10372000002BE6D14FF0FF301CE083F31188FDF74A
:1037300057FAB5F1FF3F1CD186F83470A3881D4DB0
:1037400099B241F4007CA4F804C02288EB6990B2DD
:1037500040F4807EA4F800E00220F361FDF728FC2D
:10376000E869806A07B0BDE8F08F1348FDF760FB99
:10377000A0E704990029D5D086F83470A1880D4DB2
:103780008AB242F40070A0802388E9691FFA83FCA2
:103790004CF4807EA4F800E00220F161FDF708FC03
:1037A000049A002ADCD001A8FDF78AFBD8E700BF05
:1037B000012E0008540E00203C5E0008AFF300808C
:1037C000F0B4046B012580F834502788490027F4B1
:1037D000A0668263C3633504049B059A002601F04A
:1037E000FE072D0C018403644264866025802781D6
:1037F000A18830468BB243F4206CA4F804C0228820
:1038000091B241F480632380F0BC7047AFF3008035
:10381000154B30B49A69154D42F07D049C610168E6
:10382000134CE960826813496A604368124A2B604E
:10383000C568124BE5604569656005692560846966
:10384000CC60046A4C60C4690C60416AD160C16A92
:103850005160816A1160026BDA60816B5960426B62
:103860001A6030BC704700BF0010024000080140E1
:10387000000C0140001001400014014000180140FC
:10388000032AF0B400F09A80042A08BF41614C4B2F
:1038900011F080079B5C40F088800F2411F40045F4
:1038A00040F089800F264A002401360139012D019C
:1038B00012F0800F14BF194344F00F0412F4004FAC
:1038C00014BF1D4346F00F065200240136010901C2
:1038D0002D0112F0800F14BF194344F00F0412F4AD
:1038E000004F14BF1D4346F00F065200240136015D
:1038F00009012D0112F0800F14BF194344F00F0489
:1039000012F4004F14BF1D4346F00F06520024016D
:10391000360109012D0112F0800F14BF194344F044
:103920000F0412F4004F14BF1D4346F00F0652005F
:103930002401360109012D0112F0800F14BF194333
:1039400044F00F0412F4004F14BF1D4346F00F065D
:1039500052002401360109012D0112F0800F14BF1D
:10396000194344F00F0412F4004F14BF1D4346F0F6
:103970000F0652002401360109012D0112F0800FBB
:1039800014BF194344F00F0412F4004F18BF1D4335
:10399000436808BF46F00F061E4035434560026885
:1039A000144021430160F0BC7047002411F400452D
:1039B0001F463FF477AF1D46002674E7016166E7B6
:1039C000605E0008AFF30080AFF30080AFF30080CB
:1039D00010B5FDF785F9FDF7A3F9BDE81040FCF738
:1039E000A7BF00BFAFF30080AFF30080AFF300804C
:1039F0000148FEF7A5BA00BF280F0020AFF30080F2
:103A0000037870B5012B044600D070BD0C4A90427B
:103A100004D02046BDE87040FEF74ABB094A0A4D73
:103A2000D669132046F40006D66160212B64FCF7AA
:103A3000E7FF1420E021FCF7E3FF00232B64E8E715
:103A4000280F002000100240005C0040AFF300800F
:103A500090F84A00024B40F08002DA64704700BFE1
:103A6000005C0040AFF30080AFF30080AFF3008054
:103A70000A1D2DE9F04150F822400546226802F067
:103A80000303013B022B96BF36484FF4007330F816
:103A90001330A06808B143F02003E66866B112F065
:103AA000100F55D0012010FA01F2B5F80E8043F442
:103AB000405342EA0807EF8143EA010C2A4F2CF4F5
:103AC000F04626F0700047F8210047F6700857F8D6
:103AD000212003EA080C638A8CEA02063E2B47F891
:103AE00021602BD95F1E47F01F06701C42116FEA40
:103AF000C2676FEA57421C4ED5F84C80306DB4F85F
:103B000010C000F1005707F5405606EBC1000CEB62
:103B1000080647000021B6F5007FB980BA81EE643F
:103B200019D89B19B3F5007FC7F80080EB6402D960
:103B30000E48FDF77DF9BE60BDE8F0815A1E42F0E7
:103B400001077E1C06EBD670420202F47C42D2E7EB
:103B500043F40053B0E70548FDF76AF9638AEE6C59
:103B6000DFE700BF805E0008005C0040B05E000838
:103B7000416830B40A4BCD6800241C65A54214BFCF
:103B80004FF41E454FF41C455C6421468024DC64E0
:103B90001D64044B4022C264036130BCFFF768BF60
:103BA000005C0040C05E0008AFF30080AFF300800F
:103BB000054B53F8210010F4405004D0B0F5805F5D
:103BC0000CBF012002207047005C0040AFF3008072
:103BD000054B53F8211001F03003102B9ABF034A14
:103BE000D05C0220704700BF005C0040905E00087F
:103BF0000F4B10B41C6D134604F1005000F5405CEF
:103C00000CEBC1046100886800F1005C0CF54054C5
:103C100061008C465CF8044B888823F8024BBCF8A2
:103C200008105080BCF8042099805A8010BC70475E
:103C3000005C0040AFF30080AFF30080AFF3008082
:103C40001B48F0B4006D00F1005000F5405C0CEB37
:103C5000C1014800816880898005800D834228BFAA
:103C6000034601335B0820D001F1005101F54055B6
:103C700069005C1E51F8045B234622F8025B04F0E5
:103C8000010493B12CB151F8044B013B22F8024BD3
:103C90000BD00D4655F8047B4E68144624F8027B81
:103CA000291D5680A21C023BF3D1F0BC704700BF17
:103CB000005C0040AFF30080AFF30080AFF3008002
:103CC000184870B4046D04F1005000F5405C0CEB32
:103CD000C104591C600049080468838020D004F1A5
:103CE000005C01390CF5405332F8020B5C000B46C6
:103CF00044F8040B01F0010193B129B132F8021B21
:103D0000013B44F8041B0BD0104630F8026B558879
:103D1000214641F8046B821C65600C1D023BF3D107
:103D200070BC7047005C0040AFF30080AFF30080D0
:103D30002DE9F04F81B0FCF7D3FF904B5C6C14F48D
:103D4000806F40F00C8114F4006F0ED08C488B4AC9
:103D50004368116C1B6841F0080111640BB1032129
:103D60009847864A6FF40060506414F4805F09D06D
:103D7000824A916C11F4004F00F0E4807F4A6FF4A6
:103D80008050506414F4007F08D07D484368DB689D
:103D900003B1984779486FF40071416414F4004FFF
:103DA00000F0A480DFF8D891744DCA4613E00120DA
:103DB00010FA04F1B9F80EE059F828302EEA010C97
:103DC000A9F80EC0DA686E48214690476C6C14F46E
:103DD000004F00F08B8004F00F0455F8246004F1CC
:103DE000040816F0800F59F828703AD055F82410BE
:103DF00021F4F04C2CF0F00345F824303A6812F02E
:103E0000100F7AD12B6D796903F1005202F5405EF3
:103E10000EEBC4004300B3F804C00A688868D1F808
:103E200004E01FFA8CF3D218C018C3EB0E030A602B
:103E300088604B60002B60D0B7F810E05FFA84FB1D
:103E40004F485946734528BF7346FFF739FF55F869
:103E50002B2022F4F04020F0400C8CF0300145F88B
:103E60002B1016F4004FB1D055F8241016F4006F43
:103E700021F4784E2EF0700345F824304BD1386889
:103E800010F0100F93D1BB69E6B25A6831469B68B7
:103E90003B48FFF7D5FEBB6955F826E01A885F68F6
:103EA000D968D3F808C02EF4904E2EF0700E013A67
:103EB0003F1809188EF4405EC0EB0C0092B245F832
:103EC00026E05F60D96098601A80002A2AD055F8F1
:103ED000242022F4904121F0700C8CF4405045F8DD
:103EE00024006C6C14F4004F7FF475AFFCF718FFDE
:103EF00001B0BDE8F04FFCF71BBD012212FA04F03F
:103F0000BAF80CC0BB682CEA0001AAF80C101C48D7
:103F100021469847A5E759F8283019485A6821469C
:103F2000904753E7012111FA04F0BAF80EC05AF88D
:103F300028302CEA000EAAF80EE0DC681048314662
:103F4000A04743E70E48116C436821F008011B6845
:103F50001164002B3FF412AF042198470EE7084D7F
:103F60002846FEF7A5F86868036813B128460021C3
:103F7000984702496FF480624A64E4E6005C0040BE
:103F8000280F0020AFF30080AFF30080AFF3008074
:103F9000043150F821108869426000228360C260B9
:103FA0003BB14A8A511EC918B1FBF2FCA0F800C00F
:103FB0007047012303807047AFF30080AFF30080A8
:103FC00070B40D1D50F8254000266569248A6B6089
:103FD000A34228BF23462A60AE6070BCFFF770BEC4
:103FE000054B53F8212022F4904C2CF0700080F403
:103FF000405243F821207047005C0040AFF300803E
:10400000054B53F8212022F4F04C2CF0400080F0B6
:10401000300243F821207047005C0040AFF300807D
:10402000054B53F8212022F4904C2CF0700080F4C2
:10403000805243F821207047005C0040AFF30080BD
:10404000054B53F8212022F4F04C2CF0400080F076
:10405000100243F821207047005C0040AFF300805D
:10406000094B53F8210000F44052B2F5405F09D0EB
:1040700053F8212022F4F04020F0400C8CF4005240
:1040800043F82120704700BF005C0040AFF3008080
:10409000084B53F8210000F03002302A09D053F8C1
:1040A000212022F4F04020F0400C8CF0200243F854
:1040B00021207047005C0040AFF30080AFF3008028
:1040C000FEF72EBEAFF30080AFF30080AFF30080A9
:1040D000704700BFAFF30080AFF30080AFF3008004
:1040E000002903DD0449054A00F06ABA044B05497A
:1040F000DA6800F065BA00BF205F00082C5F000896
:10410000440E0020345F0008AFF30080AFF300805E
:1041100010B5002982B0044606DD1949194A02B0DB
:10412000BDE8104000F04CBA1749184A00F048FAB0
:1041300020461749174A00F043FA20461649174A05
:1041400000F03EFA20461649164A00F039FA204699
:104150001549164A00F034FA20461549154A00F070
:104160002FFA20461449154A00F02AFA2046144C2A
:104170001449154A154B009400F022FA02B010BD04
:10418000205F00083C5F0008445F0008585F00089B
:10419000605F0008745F0008805F0008945F00089B
:1041A0009C5F0008B05F0008BC5F0008D05F00089B
:1041B000E85F0008FC5F0008246000083860000821
:1041C000746000084C6000086460000870600008BB
:1041D0000A6838B5054642B10C462846034900F046
:1041E000EFF954F8082F002AF7D138BD8060000895
:1041F0002DE9F041054600680C4616469846A8B1E0
:104200002F4602E057F8080F68B13146FBF778FFF8
:1042100005460028F6D120467E684146069AB047FA
:104220002846BDE8F0810120BDE8F0810120BDE80D
:10423000F08100BFAFF30080AFF30080AFF30080E8
:1042400038B504460D46A8B108600D492046FCF774
:1042500007F8241820462021FBF77AFF286018B1C0
:10426000002300F8013B28602078002814BF204676
:10427000002038BD0C68002CE7D1204638BD00BFB7
:10428000D0540008AFF30080AFF30080AFF300809C
:10429000014B1B60704700BF880F0020AFF3008008
:1042A00000B583B00090034B0020FDF791F803B0F8
:1042B00000BD00BF71430008AFF30080AFF3008082
:1042C000013A2DE9F843884605460F4601EB0209FD
:1042D000296828464B694FF0FF31984704B2002CFB
:1042E00006462CDB042C2DD0082C0FD00D2C30D002
:1042F0001F2CEDDD4F45EBD2296828460C694FF0A5
:10430000FF32F1B2A04707F8016BE1E74745DFD084
:104310002B6821461E694FF0FF322846B0472868B7
:10432000202103694FF0FF32284698472A68284623
:10433000166921464FF0FF32B047013FC8E7012020
:10434000BDE8F8832846074900F03AF90120BDE8A6
:10435000F8832846044900F033F900203870BDE89E
:10436000F88300BF84600008AC650008AFF30080EC
:104370002DE9F04365490468CB69654AD0F80480AB
:1043800099B020469A61634900F01AF94FF000098C
:104390002046614900F014F9204602A94022FFF7A7
:1043A0008FFF064600283BD117A902A8FFF748FF58
:1043B00017A905463046FFF743FF0346002843D0C0
:1043C000304617A91293FFF73BFF034600285ED043
:1043D000304617A91393FFF733FF0346002858D040
:1043E000304617A91493FFF72BFF0346002852D03D
:1043F000304617A91593FFF723FF00284DD020461C
:10440000464900F0DDF820464349169600F0D8F8FA
:10441000204602A94022FFF753FF06460028C3D0DA
:1044200020463F4900F0CCF8202383F31188FCF7A5
:10443000D7FB00213B48FDF763F90020FCF750FF54
:10444000002019B0BDE8F08306460DF1600C0CEBBE
:10445000860040F8189C002D9AD028463249FBF778
:104460004FFE38B9002EDFD0204630492E4A00F0EA
:10447000A7F88DE728462E49FBF742FE78B9002EB3
:1044800030D0204629492A4A00F09AF880E70126D0
:10449000DBE70226D9E70326D7E70426D5E712AFE4
:1044A000244821462A4633460097FFF7A1FE0028FC
:1044B0003FF46EAFB8F1000F0AD03346404612AE5B
:1044C00021462A460096FFF793FE00283FF460AF8E
:1044D000204619492A4600F073F82046174900F093
:1044E0006FF855E71649204600F06AF82046114952
:1044F000FFF76EFEB8F1000F03D020464146FFF7EC
:1045000067FE20460F4900F05BF841E7540E00209B
:104510008860000890600008A8600008BC6000087F
:10452000B0600008880F0020D4600008205F0008F9
:10453000DC60000800090020FC6000080061000841
:10454000E4600008AC650008AFF30080AFF30080C2
:1045500070B400F10B0600F10A04B1FBF2F502FBA6
:10456000151101F13003392BC8BF01F1370329467A
:10457000254604F801390029EFD10446C5EB060CA5
:10458000E2436044121812F0010F29460AD004F8E1
:10459000013B11F8013F05E011F8013F637011F88C
:1045A000013F541C224602F8013B8242F4D170BC08
:1045B000704700BFAFF30080AFF30080AFF300801F
:1045C0000EB42DE9F04F84B00DAB53F8044BDFF877
:1045D00090B305460393217859B1013425290DD0B4
:1045E0002A68284613694FF0FF329847217800293E
:1045F000F3D104B0BDE8F04F03B0704723782D2B02
:1046000000F0868100262E2B06BF14F8013F4FF0E4
:1046100030084FF020080398611C4FF0000A07E0B3
:10462000027804300AEB8A0A11F8013B02EB4A0ACD
:10463000A3F13004E2B2092A0C46F3D92A2BEFD0B9
:104640002E2B039000F050814FF0000C6C2B00F0EB
:1046500045814C2B00F04281A3F14100C1B21929E0
:104660008CBF00210121A3F14407342F00F21981EE
:10467000DFE817F0240117011701170117011701CF
:10468000170117011701170117011C011701170165
:104690001701170117013201170117010C0117014A
:1046A000170117011701170117011701170117014A
:1046B0001701C30024011701170117011701170182
:1046C000170117011701170117011C011701170125
:1046D0001701350017013201170117010C01039B67
:1046E00047F6FF781F681A1D0392002F08BF5F4628
:1046F0003878BCF1000F08BFC446002800F02B81B9
:10470000781CC14384447A7801EB0C0909F001015B
:10471000431C92B1634510D021B1184613F8012B08
:104720004AB90AE01A4612F8011B184629B159780D
:104730001046531C09B16345F4D1C7EB0009C9EB1E
:104740000A0C4FF020082CEAEC7A002E67D0B9F161
:10475000000F28DD3E462A68F843B94416F8011BCD
:1047600009EB0007136928464FF0FF3298474E4582
:1047700007F0010717D01FB12B6816F8011B0BE0DB
:104780002868374617F8011B03694FF0FF322846A7
:1047900098472B6871787E1C1B6928464FF0FF32C2
:1047A00098474E45ECD1BAF1000F3FF414AF2E6894
:1047B0000AF1FF3C33692846664641464FF0FF3216
:1047C0000CF001079847002E3FF405AF1FB12A688F
:1047D000284613690AE02868414603694FF0FF3212
:1047E000284698472968013E0B69284641464FF004
:1047F000FF329847013EEED1EDE6039900AF0A681B
:104800000B1D4FF0200803938DF80020781CC7EB98
:104810000009C9EB0A0C2CEAEC7A002E97D1CAF1F8
:10482000000ABAF1000F92D039782D2900F0858066
:1048300029686FEA0A0E0B69284641464FF0FF329D
:104840000EF0010698471AF1010A80D056B1296886
:1048500028460B694FF0FF32414698471AF1010A8A
:104860003FF475AF2868414603694FF0FF32284690
:10487000984728680AF1010A0369414628464FF023
:10488000FF3298471AF1010AECD160E7102281B19A
:10489000039B191D039119686846FFF759FE6F467F
:1048A000B5E700AF8DF80030781CB0E7082200298A
:1048B000EED10398071D01680397EDE700292FD17A
:1048C000039B19681A1D002903922FDB68460A22F0
:1048D000FFF73EFE6F469AE70A22D8E72278EAB150
:1048E000013413460121BEE64FF0000C0C4614F8CB
:1048F000013B0CEB8C07A3F13001CAB2092A214617
:1049000003D92A2B08D10278043002EB470CEDE7DB
:1049100014F8013F012676E6039097E60121A2E60E
:10492000039F3968381D00290390CFDA2D2000AF8E
:104930008DF800004942781CC9E7B8F1300F7FF4C8
:1049400077AF2A68284616694FF0FF32B047013723
:1049500009F1FF396CE738464FF0200857E700BFF0
:1049600010610008AFF30080AFF30080AFF3008068
:1049700008B5FDF785F9FCF7B3F800F061FD00F02C
:1049800097F900F05DFA00F09BFB00F0C1F80220FF
:1049900000F08EFD00F0D4F84FF47A70FCF788FC3C
:1049A000F8E700BFAFF30080AFF30080AFF3008003
:1049B000022906D0032906D00748012918BF002084
:1049C000704706487047032A03D8054800EBC20029
:1049D00070470020704700BF20650008A0610008F4
:1049E000E0640008AFF30080AFF30080AFF3008015
:1049F000F0B5002985B0054605DD144905B0BDE8D0
:104A0000F040FFF7DDBD1249FFF7DAFDFCF718FDB6
:104A1000104E0446A168E368676A009194F822008A
:104A20000D49421E019294F82000224656F820E0DB
:104A30002846CDF808E00397FFF7C2FD2046FCF7B3
:104A400017FD04460028E5D105B0F0BD206200083E
:104A5000346200082064000864620008AFF300803C
:104A600030B5002983B0044604DD0E49FFF7A8FDE8
:104A700003B030BD01A90020FDF7B2F80546FCF7F0
:104A8000E7FF094902462046FFF79AFD20462A46DD
:104A90000649FFF795FD20460549019AFFF790FD6D
:104AA000E6E700BF8462000894620008B462000870
:104AB000CC620008AFF30080AFF30080AFF300805A
:104AC000022938B50C46054618D1202383F31188F6
:104AD000FCF7C6F828460121094AFDF769FA28467D
:104AE0002146084AFDF764FA28460321064AFDF7E5
:104AF0005FFAFCF7D5F8002383F3118838BD00BFB7
:104B000020610008B0610008F0630008AFF3008086
:104B100010B5084C2046FDF70BFE20460649FDF770
:104B20002FFE064B4FF400721A61BDE81040FFF7EC
:104B3000AFBB00BF8C0F00200065000800080140DB
:104B400010B50E4C206850B190F820C0BCF10E0F8B
:104B500000D010BDFCF7FCFB0020206010BD084B0E
:104B6000D3F8D02011680B78042BEDD105484FF411
:104B70004B614022FFF794FB206010BD60100020C5
:104B80008C0F002010640008AFF30080AFF30080AA
:104B90003C482DE9F84F3C4AC3693C4C3C4E3D4DE6
:104BA0003D4FDFF800A19A61A346012081464FF0F6
:104BB0000408FCF77DFB4846C4F81480FCF778FB3A
:104BC0004846C4F81490FCF773FB4846C4F81080BC
:104BD000FCF76EFB4846C4F81480FCF769FB4846B6
:104BE000C4F81090FCF764FB4846C4F81080FCF74A
:104BF0005FFB4846C4F81480FCF75AFB0222484683
:104C00006261FCF755FB0021C5F8009031603980E6
:104C1000C1460120C4F81090FCF74AFBA368C3F317
:104C2000C002AAF8002002B12A6831682868521828
:104C30004300012032602B60FCF73AFB0120C4F8EE
:104C40001480FCF735FB3988481C0FFA80FCBCF156
:104C50000F0F3880DDDD0422CBF810200120FCF797
:104C600027FB02210120CBF81010FCF721FB0B4899
:104C7000FCF7BEFC06480A4A03681360FCF7C8FC50
:104C800093E700BF540E0020306500080008014083
:104C90007C1000208010002078100020641000207C
:104CA0007410002038120020AFF30080AFF30080B2
:104CB00070B5154C82B0082120460222FEF7E0FDB7
:104CC0000226012304252361194626610622204677
:104CD0002561FEF7D5FD204631460622FEF7D0FDC0
:104CE000294606222046FEF7CBFD0848FCF7E8FBE4
:104CF00000244FF4D8714022054B06480094FCF77D
:104D00008FFA02B070BD00BF00080140641000209F
:104D1000914B000888100020AFF30080AFF30080B3
:104D200010B50548FCF764FC0448054C0368236093
:104D3000FCF76EFC206810BD641000207410002089
:104D400084100020AFF30080AFF30080AFF3008049
:104D50002F482DE9F84F2F4AC3692F4E2F4C304F63
:104D6000DFF8C8A02F4DDFF8C8809A610120FCF75A
:104D70009FFA2D48FCF73CFCDAF800203A60FCF77B
:104D800047FC3B6831688B42F0D0234A4FF0200942
:104D900013600120C4F81490FCF78AFA4021012026
:104DA0002161FCF785FA4FF000401F232860A8F826
:104DB00000304FF0800B202161610120FCF778FA70
:104DC00033682868184214BFC4F810B0C4F814B08F
:104DD0000120FCF76DFA0120C4F81090FCF768FA86
:104DE000B8F800202968531E1FFA83FC48081CF4F9
:104DF000004F2860A8F800C0DDD032681AB9074813
:104E000010234361B2E7054910220A61AEE700BFF3
:104E1000540E002040650008581200200008014090
:104E200010140020541200203C1200204C120020CC
:104E300050120020AFF30080AFF30080AFF300808A
:104E4000F0B5164C1023402520278026636183B0DF
:104E5000194625610622276120462661FEF710FDCE
:104E6000204629460622FEF70BFD2046394606223B
:104E7000FEF706FD314606222046FEF701FD0848F2
:104E8000FCF71EFB00244FF4D8712A46054B064858
:104E90000094FCF7C5F903B0F0BD00BF0008014065
:104EA0003C120020514D000860120020AFF300803A
:104EB00010B504460448FCF79BFB044B1C60BDE89E
:104EC0001040FCF7A5BB00BF3C1200204C12002094
:104ED0002DE9F04F6648674CC369674ADFF8C48123
:104EE000664FDFF8CC91664D85B09A61A346654860
:104EF000836882688668C2F38030C6F340318A00D6
:104F000042EA400CC3F3C03E4CEA0E066FEA060AC2
:104F100064211AF0070A396029D05B490AF10F0CA5
:104F200081F800C0FFF7FCFE584B594A1E7810600C
:104F30001EB9584A1668B04212D053484FF0040EBA
:104F4000544E01784E4A734653480096CDF804E01B
:104F5000FCF7A6FF4E4A4D481168002331600370EC
:104F60000120FCF7A5F92868FFF7A2FFBFE74B482F
:104F7000FCF73EFBFFF7D4FE494B1860D8F8000061
:104F8000FFF796FFFCF744FB84F800A031E04348AC
:104F9000FCF72EFB9BF90030326842485E1C40F85B
:104FA0002620FCF735FB94F90010DFF8E8A010315B
:104FB000D7F800E089B2524604233748CDF800E024
:104FC000FCF726FF00283DD13448FCF711FB9BF984
:104FD0000030DAF80000324E5A1C46F82200FCF786
:104FE00017FB2078411C4FFA81FABAF1000F2170AB
:104FF0003ADC2A48FCF7FCFA94F900305E1C59F8B8
:10500000262058F82600284E28603260FCF700FB66
:105010003168D5F800A00423514532464FF0000E08
:105020001D48C0D09BF90010D7F800C0103189B2DC
:10503000CDF800E0CDF804E0CDF808C0FCF798FE0C
:105040000028A4D01448FCF76BFE6420FCF730F96C
:1050500011481649FCF73CFE2078411C4FFA81FAB2
:10506000BAF1000F2170C4DD0120FCF721F93EE701
:10507000540E0020F8150020606500082814002058
:105080001416002000100140001600201A0900200C
:10509000241400203C140020E00E002014140020F2
:1050A0000C16002004160020FC1500205065000896
:1050B000F0150020AFF30080AFF30080AFF3008065
:1050C00030B51E4C83B0022220464FF40041FEF75B
:1050D000D7FB1B4D204602224FF48041FEF7D0FB48
:1050E000204602224FF40051FEF7CAFB4021112254
:1050F0002846FEF7C5FB112280212846FEF7C0FB9B
:105100006420FCF7D5F8FCF7D3FD0E490E48FCF7F8
:10511000DFFD0E4A0E490F4B002414600C601C602A
:105120000D48FCF7CDF94FF4D87140220B4B0C48D9
:105130000094FCF775F803B030BD00BF00100140CB
:10514000000C014050650008E00E0020041600200D
:10515000F01500200C16002014140020D14E000879
:1051600040140020AFF30080AFF30080AFF3008065
:1051700070B5044605480D46FCF73AFA044850F865
:1051800024302B60BDE87040FCF742BA14140020B4
:105190000C160020AFF30080AFF30080AFF3008067
:1051A00070B5044605480D46FCF722FA2A68044B00
:1051B00043F82420BDE87040FCF72ABA14140020FC
:1051C00004160020AFF30080AFF30080AFF300803F
:1051D00010B582B0044601A90020FFF7C9FF019A6B
:1051E00020460949FFF7ECF901A90120FFF7C0FFAC
:1051F00020460649019AFFF7E3F920460449FFF7E4
:10520000DFF902B010BD00BF646500086C650008DE
:1052100070650008AFF30080AFF30080AFF300804B
:1052200030B5012983B0154613DD1068FAF760FF29
:1052300002AC44F8040D21460020FFF7B1FF686876
:10524000FAF756FF214601900120FFF7A9FF03B0AE
:1052500030BD0249FFF7B4F9F9E700BF78650008EF
:10526000002910B504460ADD1068FAF741FF064B25
:10527000064918702046BDE81040FFF7A1B904495F
:10528000BDE81040FFF79CB919090020906500089F
:105290009C650008AFF30080AFF30080AFF300809F
:1052A00000290ADD1268074B1178B1F1300218BFEE
:1052B00001221A700449FFF783B9024B00211970CB
:1052C000F8E700BF18090020B0650008AFF30080C0
:1052D0000E4B00292DE9F0470C4619700546904603
:1052E0000EDD0027DFF82C903E4658F82600FAF72E
:1052F000FFFE0136F6B2B44209F807003746F4DC87
:1053000003492846BDE8F047FFF75AB9F9150020D0
:10531000B86500082C140020AFF30080AFF30080C4
:1053200070B5184B84B01E780446AEB9164D1749B7
:10533000174A09780423284600960196FCF7B0FD29
:105340004FF4FA60FBF7B4FF12492A78204604B004
:10535000BDE87040FFF734B90C48002501780C4ACD
:105360000095019504234FF47A7507480295FCF7E0
:10537000FFFC09490246204604B0BDE87040FFF733
:105380001FB900BF18090020E00E002019090020F5
:105390002C140020D4650008C4650008AFF3008019
:1053A00000292DE9F04106462FDD1068FAF7A0FE2E
:1053B000C0B220B3164F0138C5B23C4630467F1903
:1053C00014492278FFF7FCF8BC4205F0010516D01D
:1053D0003DB114F8012F30460E49FFF7F1F8BC42F9
:1053E0000DD06278651C30460A49FFF7E9F80234AF
:1053F000304608496A78FFF7E3F8BC42F1D1064924
:105400003046BDE8F041FFF7DBB8BDE8F08100BFF2
:105410002C140020E0650008E4650008AFF300806C
:10542000054808B5054AC3699A61FA20FBF740FFB1
:10543000FA20FBF73DFFF8E7540E0020F065000866
:1054400070B5144C4FF480434FF400564FF4805520
:10545000236182B019462661062220462561FEF7A7
:105460000FFA204631460622FEF70AFA294606229E
:105470002046FEF705FA0848FCF722F800244FF40E
:10548000D8714022054B06480094FBF7C9FE02B0D4
:1054900070BD00BF000C0140181600202154000808
:1054A00030160020AFF30080AFF30080AFF3008030
:1054B00010B504460448FCF79BF8044B1C60BDE89B
:1054C0001040FCF7A5B800BF1816002028160020D1
:1054D0002000390000000000000000000000000073
:1054E00000202020202020202020282828282820B4
:1054F00020202020202020202020202020202020AC
:105500002088101010101010101010101010101013
:105510001004040404040404040404101010101003
:1055200010104141414141410101010101010101CD
:10553000010101010101010101010101101010101F
:10554000101042424242424202020202020202029F
:1055500002020202020202020202020210101010F3
:10556000200000000000000000000000000000001B
:10557000000000000000000000000000000000002B
:10558000000000000000000000000000000000001B
:10559000000000000000000000000000000000000B
:1055A00000000000000000000000000000000000FB
:1055B00000000000000000000000000000000000EB
:1055C00000000000000000000000000000000000DB
:1055D00000000000000000000000000000000000CB
:1055E00000000000000000000000000000000000BB
:1055F00069646C65000000006D61696E0000000068
:10560000535623310000000053562332000000009F
:10561000535623330000000053562334000000008B
:105620005356233500000000535623360000000077
:105630005356233700000000535623380000000063
:105640005356233900000000535623313000000028
:10565000535623313100000000000000000000001C
:1056600022636856545365744922282900000000BB
:1056700022636856545265736574492228290000D4
:105680006368565452657365744928292C20233168
:10569000000000000000000000000000000000000A
:1056A000636853636852656164794928292C202313
:1056B00031000000737461636B206F766572666CF5
:1056C0006F770000000000000000000000000000F4
:1056D00022636854686443726561746549222829AD
:1056E0000000000022636854686453657450726956
:1056F0006F72697479222829000000006368546879
:1057000064526573756D6528292C202331000000D3
:10571000226368546864536C656570222829000010
:105720006368546864457869745328292C202331B0
:10573000000000002263685468645761697422287D
:105740002900000063685468645761697428292C33
:105750002023310063685468645761697428292CD8
:1057600020233200000000000000000000000000C4
:10577000636854686441646452656628292C202358
:1057800031000000636854686452656C656173653C
:1057900028292C2023310000226368546864437256
:1057A0006561746546726F6D4D656D6F7279506F8E
:1057B0006F6C22282900000000000000000000009B
:1057C00063685265674E65787454687265616428D1
:1057D000292C202331000000000000000000000000
:1057E0002263684D7478496E69742228290000008C
:1057F0002263684D74784C6F636B53222829000034
:1058000063684D74784C6F636B5328292C202331C7
:105810000000000063684D74784C6F636B53282957
:105820002C202332000000002263684D74785472EB
:10583000794C6F636B5322282900000063684D7414
:1058400078556E6C6F636B28292C20233100000083
:1058500063684D7478556E6C6F636B28292C202318
:105860003200000063684D7478556E6C6F636B5343
:1058700028292C202331000063684D7478556E6C04
:105880006F636B5328292C20233200000000000096
:1058900022636845767452656769737465724D61F9
:1058A000736B222829000000226368457674556EC8
:1058B00072656769737465722228290022636845DE
:1058C00076745369676E616C4922282900000000D4
:1058D0002263684576745369676E616C22282900DB
:1058E00022636845767442726F6164636173744DBC
:1058F00061736B49222829002263684576744469E4
:10590000737061746368222829000000636845761B
:1059100074446973706174636828292C20233100F2
:1059200022636849515265616454696D656F75748D
:10593000222829002263684F51577269746554699F
:105940006D656F75742228290000000000000000BA
:1059500022636848656170496E69742228290000D5
:1059600022636848656170467265652228290000D7
:105970006368486561704672656528292C2023316B
:105980000000000000000000000000000000000017
:10599000226368506F6F6C496E6974222829000079
:1059A000226368506F6F6C416C6C6F6349222829C9
:1059B00000000000226368506F6F6C467265654995
:1059C0002228290000000000000000000000000064
:1059D0002269326353746172742228290000000026
:1059E000693263537461727428292C2023310000BA
:1059F0002269326353746F7022282900693263531D
:105A0000746F7028292C2023310000002269326332
:105A10004765744572726F72732228290000000076
:105A2000226932634D61737465725472616E736D75
:105A3000697454696D656F7574222829000000002F
:105A40006932634D61737465725472616E736D690E
:105A50007454696D656F757428292C2023310000FA
:105A6000226932634D61737465725265636569764C
:105A70006554696D656F7574222829006932634D1C
:105A800061737465725265636569766528292C2097
:105A90002331000022693263416371756972654286
:105AA00075732228290000002269326352656C65F3
:105AB0006173654275732228290000000000000010
:105AC00000000000000000000000000000000000D6
:105AD00000000000000000000000000000000000C6
