:020000040800F2
:1000000000040020B10200088104000881040008F7
:1000100081040008810400088104000881040008AC
:10002000810400088104000881040008B10400086C
:10003000810400088104000881040008810500088B
:10004000810400088104000881040008810400087C
:10005000810400088104000881040008810400086C
:10006000810400088104000881040008E11F0008E1
:10007000112000084120000881200008C12000084C
:10008000012100084121000881040008912800088E
:10009000F12B000881040008810400088104000895
:1000A000810400088104000881040008810400081C
:1000B000810400088104000831260008812300081B
:1000C000A1240008810400088104000881040008BC
:1000D00081040008810400088104000881040008EC
:0C00E0008104000881040008810400086D
:1000F00040F60003C2F2000370B41D6810F8013B23
:10010000EC181A46647804F00304012C11F8014B32
:1001100008BF03F120022E192346767806F0030665
:10012000012E08BF04F12003D21A01D1002BE5D122
:10013000104670BC704700BF0000000000000000C7
:10014000C9B2F0B4002950D010F0030F10D00378DA
:10015000002B79D0994246D0431C05E013F8012BBF
:10016000002A3FD091423ED013F0030F1846F5D13C
:10017000036841EA01270646A3F1013247EA07472F
:1001800022EA030212F0803F1DD187EA0303A3F1A4
:10019000013222EA030313F0803F14D1043002E05D
:1001A00012F0803F0FD1064650F8043BA3F1013511
:1001B00087EA030225EA0303A2F1013413F0803F2A
:1001C00024EA0202ECD033783046002B3CD099422E
:1001D00009D0731C01E0914205D0184613F8012B99
:1001E000002AF8D11046F0BC704710F0030F0CD075
:1001F0000378002BF7D0431C03E013F8012B002AEF
:10020000F1D013F0030F1846F7D102680346A2F1AC
:10021000013121EA020212F0803F0AD10430034684
:1002200050F8042BA2F1013121EA020212F0803FC2
:10023000F5D01A781846002AD5D00133184613F89D
:10024000012B002AFAD1CEE71846CCE700000000C7
:10025000F0B40646047874B10F780546064657B1E7
:10026000BC4218BF0A4602D108E09C4206D012F8F0
:10027000013F002BF9D1301AF0BC70476C786E1C2E
:10028000002CF8D03546EBE700000000000000002D
:10029000704700BFAFF30080AFF30080AFF3008082
:1002A000FEE700BFAFF30080AFF30080AFF3008044
:1002B00072B6634880F30988022383F31488BFF37E
:1002C0006F8F604A604CA24217D213464FF05531EF
:1002D000D64343F8041BA519A342C5F380050CD2ED
:1002E00025B1196002F10803A34206D21A4642F86A
:1002F000041B5960131DA342F8D3544A824217D2FB
:1003000013464FF05531D54343F8041B441983423B
:10031000C4F380040CD224B1196002F108038342B3
:1003200006D21E4646F8041B5960331D8342F8D39B
:1003300002F026FE464C4749A14222D246480B46CF
:10034000024652F8046BCD4343F8046B04EB050CF2
:10035000A342CCF3800514D23DB1166800F1080227
:100360001E6001F10803A3420BD2104650F8045B53
:10037000194641F8045B5668021D5E600B1DA342DE
:10038000F3D3364A3648824217D200211346D4436B
:1003900043F8041B00EB040E8342CEF380040CD21E
:1003A00024B1196002F10803834206D21A4642F8CA
:1003B000041B5960131D8342F8D32A4D2A4EFFF7C0
:1003C00067FFB54219D22C4654F8043BE94377182D
:1003D0009847B442C7F380070FD22FB1236805F1C5
:1003E00008049847B44208D2254655F8042B904794
:1003F00060682C1D8047B442F6D31C4D1C4E03F0A0
:1004000017FAB5421AD22C46EF4354F8043B06EBD8
:10041000070CCCF380079847B4420FD22FB1226863
:1004200005F108049047B44208D2254655F8040B5C
:10043000804761682C1D8847B442F6D3FFF730BF70
:10044000000800200000002000040020000400201C
:100450002408002000080020184600082808002072
:100460001C1E0020EC000008EC000008EC00000856
:10047000EC000008AFF30080AFF30080AFF3008022
:10048000FEE700BFAFF30080AFF30080AFF3008062
:1004900072B6FEE7AFF30080AFF30080AFF30080E9
:1004A00000F06EF900F0D4FB00F08AF900DF00BF25
:1004B000EFF30983203383F30988002383F3118842
:1004C000704700BFAFF30080AFF30080AFF3008050
:1004D0000A4B002210B59A60094A07201021DA6001
:1004E00000F0A6F80A204FF4007100F0A1F80B20EC
:1004F0008021BDE8104000F09BB800BF00ED00E097
:100500000000FA05AFF30080AFF30080AFF3008086
:10051000202383F311881648436813F4006316D030
:10052000EFF30983203B83F30988124A4FF0807070
:100530009169D86171B11068D269816892689142FD
:1005400094BF002201227AB10B499961704783F36D
:10055000118870471068D26981689268914234BFEF
:1005600000220122002AEFD1044A9A61704700BF9D
:1005700000ED00E05C0D0020A1040008AC040008C0
:1005800010B500F07DF9202383F3118800F038F9CD
:1005900000F0AEF800F054F9002383F3118800F066
:1005A0008FF9BDE81040FFF7B3BF00BFAFF3008085
:1005B0002DE9F04FC1F80CD0D0F80CD0BDE8F08F89
:1005C00008B500F0FDF8002383F311882846A04702
:1005D00000F05EFC08BD00BFAFF30080AFF3008009
:1005E000F0B400F00307FE00FF2313FA06F200F058
:1005F0001F04B1400125A5408608094CC03654F8B7
:100600002670400927EA020242EA010300F160076E
:1006100044F8263044F8275044F82050F0BC704786
:1006200000E100E0AFF30080AFF30080AFF30080A3
:1006300000F0030210B4FF23D40013FA04F2A14027
:100640008008064C063054F8203023EA020242EAC1
:10065000010344F8203010BC704700BF00ED00E0FB
:100660000248034AC3699A61FEE700BF5C0D00209F
:10067000E03B0008AFF30080AFF30080AFF30080F1
:1006800030B583B0FFF724FF00F012FA00F0A8F9AC
:1006900000F08EFE00F0E4FE00F062F940210E480A
:1006A00000F0FEFA0D4D0E490124E86180F820406B
:1006B000C16100F04DF8002383F3118862B6EA6946
:1006C0001D46084BC021936107482246074B009501
:1006D00000F056FB03B030BD280800205C0D002060
:1006E00000040020E83B00087808002061060008AC
:1006F00070B500F005F9114B9A69002A01DD013A45
:100700009A61DA690E4C516A2368481C5062E168AC
:10071000481CA342E0600FD09D68013D9D605DB91B
:1007200026461968DA681869DD604E6021609047D6
:10073000236898680028F4D070BD00BF5C0D0020CD
:100740004C0D0020AFF30080AFF30080AFF30080CA
:100750000548036813B9054A116821B10448054BDF
:100760001860FFF795BE704738090020440D00203F
:10077000003C0008480D0020AFF30080AFF300807C
:10078000084810B5036853B9074C216821B1074ADE
:10079000074B1A60FFF77CFE0120206010BD024C61
:1007A000F5E700BF38090020440D0020083C000890
:1007B000480D0020AFF30080AFF30080AFF300805E
:1007C000094810B5036833B9084C2168002903DDD6
:1007D0000020206010BD054C054A064B1A60FFF74B
:1007E00057FE0020206010BD38090020440D002075
:1007F000103C0008480D0020AFF30080AFF30080EC
:10080000084810B50368002B0ADD074C216821B1A8
:10081000064A074B1A60FFF73BFE0120206010BD1F
:10082000014CF5E738090020440D0020183C000871
:10083000480D0020AFF30080AFF30080AFF30080DD
:100840000A4810B50368002B06DD094C2168002911
:1008500003DD0020206010BD054C064A064B1A60DF
:10086000FFF716FE0020206010BD00BF38090020F1
:10087000440D0020203C0008480D0020AFF300800C
:1008800010B5202383F31188094C2368002B02DB69
:10089000084802682AB1084B08491960FFF7F8FDBB
:1008A00023685A1C2260002383F3118810BD00BF07
:1008B00038090020440D0020480D0020283C000885
:1008C00010B5202383F31188094C2368002B02DD27
:1008D000084802682AB1084B08491960FFF7D8FD9B
:1008E00023685A1E2260002383F3118810BD00BFC5
:1008F00038090020440D0020480D0020303C00083D
:1009000006480368002B04DB054A1168002900DD56
:1009100070470448044B1860FFF7BABD380900203F
:10092000440D0020383C0008480D0020AFF3008043
:100930000648036823B9064A1168002900DD70479C
:100940000448054B1860FFF7A3BD00BF380900201D
:10095000440D0020403C0008480D0020AFF300800B
:10096000034A4021134643F8081B5360704700BFF9
:100970003C090020AFF30080AFF30080AFF30080AC
:1009800010B40D4A0D4C0E495368E468C9691C60E7
:100990005960846A03F110019C6090F8204002F5D0
:1009A000816081421C7328BF02F10803516028BF97
:1009B000536010BC704700BF3C0900204C0D002064
:1009C0005C0D0020AFF30080AFF30080AFF3008038
:1009D000014B1860FFF75CBD480D0020AFF30080AD
:1009E000044B4FF0FF3000225B601B609860DA60C0
:1009F000704700BF4C0D0020AFF30080AFF30080C4
:100A0000F8B504460D4616461F46FFF779FFCCB1F0
:100A1000C6B1BDB10D4927610B68E6609A68954281
:100A200004D91B68AD1A9A68AA42FAD35A688B4255
:100A30002360626014605C60A56002D09868451B0A
:100A40009D60F8BD0248FFF7C3FFE3E74C0D0020AF
:100A5000503C0008AFF30080AFF30080AFF300809C
:100A600010B50446FFF74CFF84B1E36893B12368E7
:100A70000A4A934203D09968A2688818986060680F
:100A8000002203602368E260586010BD0448FFF74D
:100A90009FFFEAE70348FFF79BFFE8E74C0D0020C4
:100AA000603C0008703C0008AFF30080AFF30080AA
:100AB000044B002014225B601B6098609A615B61AC
:100AC0001B6170475C0D0020AFF30080AFF3008026
:100AD00010B590F8203004468BB10E2B0FD00022B9
:100AE000094BA16884F820201B6898688842FBD2D3
:100AF0005968236061600C605C60204610BD03484B
:100B0000FFF766FFEBE700BF5C0D0020903C00089C
:100B100090F820300D2B11D8DFE803F015101007E6
:100B2000100B101010101010100B816A8B685A1CDB
:100B30008A60416803680B60026851604FF0FF32C1
:100B40008262FFF7C5BF7047AFF30080AFF300804C
:100B500070B5114C0646FFF7EBFEE569142085F8E9
:100B60002060236801211A6883F82010A061546076
:100B700028462260E361FFF703FFEA69ADF1240331
:100B80009A4202D90548FFF723FFE0692946BDE8EC
:100B90007040FFF70DBD00BF5C0D0020A43C0008B5
:100BA00070B50E4686B00546FFF7C2FEB6F1FF3FB0
:100BB00012D00C4C3146E3690B4A01A8FFF720FF25
:100BC0002846FFF7C5FF049B13B101A8FFF748FFB4
:100BD000E069806A06B070BD2846FFF7B9FF014C96
:100BE000F6E700BF5C0D0020110B0008AFF300809A
:100BF00070B5154D04460E46FFF79AFEE869A268E7
:100C00008368A6629A4215D9FFF762FF0123142276
:100C1000064684F82030AA61EC61FFF7B1FEF06966
:100C2000ADF1240188420AD820463146BDE8704023
:100C3000FFF7BEBC2046BDE87040FFF749BF034840
:100C4000FFF7C6FEF0E700BF5C0D0020A43C0008E3
:100C500070B5104C01212368E5691A681420A06161
:100C600083F82010546028462260E361FFF730FFCC
:100C70002846FFF785FEEA69ADF124039A4202D9BE
:100C80000548FFF7A5FEE0692946BDE87040FFF77B
:100C90008FBC00BF5C0D0020A43C0008AFF30080B7
:100CA000F0B40022104C0125022380F8203080F897
:100CB000212080F82250656900F1300600F12C0CEB
:100CC00000F14C0704618160456141646061026428
:100CD000C263426282612861C0F82CC04663066329
:100CE000C761F0BC704700BF5C0D0020AFF300800F
:100CF000F8B504460D4616461F46FFF701FE0CB137
:100D0000AF2D2BD81848FFF763FE243D6119E16031
:100D10006751069D15484D600023154A022701259D
:100D2000086284F8207084F8225084F821305069D9
:100D300004F1300104F12C0704F14C0522616061DB
:100D4000A6606664546123640461E3636362A36123
:100D5000E76261632163E5612046F8BD7F2ED1D84B
:100D6000002FD2D1CEE700BFC03C0008C10500086B
:100D70005C0D0020AFF30080AFF30080AFF3008084
:100D8000F0B504460D461F4683B016464C30234648
:100D9000FF211A4602F8011B5970531C8342F8D1F7
:100DA0006019834215D25521DA4303F8011B00EB89
:100DB000020C83420CF001020BD01AB103F8011BA4
:100DC000834206D01A4602F8011B5970531C834215
:100DD000F8D1202383F31188FFF7D2FC2046089C2A
:100DE0003B46324629460094FFF782FF0021044625
:100DF000FFF7FEFEFFF7E4FC002383F31188204693
:100E000003B0F0BDAFF30080AFF30080AFF300801C
:100E100010B5044610B90948FFF7DAFD202383F323
:100E20001188FFF7ADFC21460620FFF7B9FEFFF75A
:100E3000C7FC002383F3118810BD00BF003D0008EC
:100E4000114B70B5DC69254655F82C3FA062AB42CA
:100E500007D01A681846E262FFF73AFEE36AAB422F
:100E6000F7D194F8210010F0030F04D163692269CF
:100E70001A6121694B610E20FFF76AFE0348BDE845
:100E80007040FFF7A5BD00BF5C0D0020103D0008BD
:100E900010B52023044683F31188FFF771FC204628
:100EA000BDE81040FFF7CCBFAFF30080AFF3008088
:100EB00010B5044620B1002364602460A36010BD17
:100EC0000348FFF785FD002364602460A36010BD24
:100ED000603D0008AFF30080AFF30080AFF3008007
:100EE0003B4B2DE9F0410546DC69FFF721FD002D64
:100EF0006AD0A868002836D0A2688168914208D2DA
:100F000090F820308260042B46D0052B31D0002B86
:100F10001ED02B461B689D4203D09868A16888426A
:100F2000F8D25A682360626004205C601460A56295
:100F3000FFF70EFEAB68A34202D02648FFF748FD3C
:100F4000206CA84213D02448BDE8F041FFF740BD13
:100F50004368026801211A60026880F8201053601B
:100F6000FFF7B6FDD5E7216CAC60E9602564BDE80C
:100F7000F08141680768866A0F60076833467960C8
:100F80001B689E4202D099689142F9D25A68036068
:100F9000426010605860BCE741680768866A0F606D
:100FA0000768334679601B689E4202D09968914277
:100FB000F9D25A680360426010605860B068A26855
:100FC000836893429CD3A4E70448FFF701FD90E7B0
:100FD0005C0D0020803D0008943D0008703D000835
:100FE00010B52023044683F31188FFF7C9FB204680
:100FF000FFF776FFFFF7E4FB002383F3118810BDB2
:10100000214A70B52023D56983F31188FFF7B8FB17
:101010002C6C002C33D0A368AB4203D01B48FFF7E5
:10102000D7FC2C6C2368E268A3422A641ED0686C4B
:101030004AB11168914203D08968884238BF084696
:10104000D268002AF5D11A681E6CA86000212260BF
:1010500018465460A360E6601C64FFF7C9FDFFF703
:10106000AFFB002383F31188204670BD0020A060F1
:10107000FFF7A6FB002383F31188204670BD0448C8
:10108000FFF7A6FC2C6CC6E75C0D0020D03D0008E5
:10109000BC3D0008AFF30080AFF30080AFF30080E9
:1010A00038B504460D46FFF72BFCBCB1E26B94F853
:1010B00020301543082BE5630CD0092B00D038BD38
:1010C000A06A0540A842FAD12046FFF701FD0021A1
:1010D000816238BDA36A1D42F6D138BD0148FFF7D1
:1010E00077FCE3E73C3E0008AFF30080AFF30080FD
:1010F00070B505460E46FFF703FC65B12C68AC429F
:1011000008D0A168606846EA0101FFF7C9FF2468BA
:10111000AC42F6D170BD0248FFF75AFCEEE700BFC3
:10112000603E0008AFF30080AFF30080AFF30080B3
:1011300010B4034619B94FF0FF3010BC7047064C8D
:101140000D20E26993625C68136054605A6022600B
:1011500010BCFFF725BD00BF5C0D0020AFF3008081
:1011600010B48A180024406000608460416181618D
:10117000C1600261C36110BC704700BFAFF3008063
:10118000F8B504460D46202383F31188FFF7F8FADB
:10119000E3690BB120469847A6682046294656B910
:1011A000FFF7C6FF071EF7DAFFF70AFB334683F3A4
:1011B00011883846F8BDA369013EA66013F8017B8B
:1011C0002269A361934224BFE368A361FFF7F8FAA1
:1011D000002383F311883846F8BD00BFAFF30080C9
:1011E0002DE9F0470446904689461D46C769002A06
:1011F00037D0202383F31188FFF7C2FA00260FB1FE
:101200002046B847D4F808A020462946BAF1000F76
:101210000BD1FFF78DFF0028F4D0FFF7D1FA53462A
:1012200083F311883046BDE8F087A3690AF1FF31E6
:10123000A16013F8010B09F806002269A36193422B
:1012400024BFE368A361FFF7BBFA002383F311888F
:1012500001364645E6D0202383F31188FFF790FA44
:10126000CDE70248FFF7B4FBC3E700BFA03E00088C
:1012700010B48C1840600060826041618161C1607F
:101280000461C36110BC7047AFF30080AFF300800E
:101290002DE9F041202304460D46164683F31188BC
:1012A000FFF76EFAA7682046314667B9FFF740FF9F
:1012B000B0F10008F6DAFFF783FA3B4683F31188B2
:1012C0004046BDE8F0816369013FA76003F8015B18
:1012D00022696361934224BFE3686361E3690BB1F0
:1012E00020469847FFF76CFA002383F3118898464D
:1012F0004046BDE8F08100BFAFF30080AFF300804F
:101300002DE9F047044615460E469946D0F81C8054
:10131000002A40D0202383F31188FFF731FA0027F9
:10132000D4F808A020460AF1FF33BAF1000F24D008
:10133000A3603178636903F8011B226963619342FA
:1013400024BFE3686361B8F1000F00D0C047FFF726
:1013500037FA002383F311880137013D18D0013695
:10136000202383F31188FFF70BFAD4F808A0204656
:101370000AF1FF33BAF1000FDAD120464946FFF7F0
:10138000D7FE0028CCD0FFF71BFA534683F3118811
:101390003846BDE8F0870248FFF71AFBBAE700BFFE
:1013A000B43E0008AFF30080AFF30080AFF30080DD
:1013B000054B064A064823F00701064B116020F052
:1013C00007021A60704700BF231E0020800D002016
:1013D000005000207C0D0020AFF30080AFF30080B0
:1013E00010B50446FFF78CFA074A084913680968E4
:1013F000E01D20F00700C91A884203D818181060B1
:10140000184610BD002010BD800D00207C0D00206E
:1014100010B52023044683F31188FFF7B1F9204665
:10142000FFF7DEFF0446FFF7CBF9002383F31188B3
:10143000204610BDAFF30080AFF30080AFF3008013
:10144000024A034910680B68C01A70477C0D0020DF
:10145000800D0020AFF30080AFF30080AFF3008079
:10146000044B0549002203F1100019609A60DA600C
:10147000FFF71EBD880D002011140008AFF3008097
:1014800038B50E4C0D46002818BF044604F1100074
:10149000FFF7A6FDA3686BB10022144659681B68CC
:1014A00052180134002BF9D105B12A60FFF7A8FDCD
:1014B000204638BD1A461C46F6E700BF880D0020BE
:1014C00010B500F08DFE00F05BFB084801F000F95C
:1014D00000F00EF800F024F800F032F800F058F8B0
:1014E00000F04EFCBDE8104001F052BD8041000804
:1014F00000F00EBFAFF30080AFF30080AFF30080C9
:1015000000230122027043608360C3600361436172
:101510001830FFF7CDBC00BFAFF30080AFF3008001
:1015200001F06EB8AFF30080AFF30080AFF300803E
:1015300001210023017043600C30FFF7B9BC00BFEC
:1015400001F0B6B8AFF30080AFF30080AFF30080D6
:101550000121002301704360704700BFAFF300809A
:1015600010B590F84210044680F84A1001F0D0F906
:1015700063681B6813B1204601219847032020703F
:1015800010BD00BFAFF30080AFF30080AFF3008069
:1015900001F08EB9AFF30080AFF30080AFF30080AD
:1015A000002301220270436083608381C3817047FE
:1015B00070B504460D4610B309B3202383F3118898
:1015C000FFF7DEF82178481EC3B2012B02D90E487E
:1015D000FFF7FEF900262046656026616661A66178
:1015E000E66126626662A662E66201F069F902229D
:1015F0002270FFF7E5F8334683F3118870BD034886
:10160000FFF7E6F9D9E700BF003F0008F03E000809
:101610002DE9F04104460D461646FFF771F9002CFE
:101620002AD0002E28D02378042B02D01448FFF7AC
:10163000CFF92F1D54F8270010B11248FFF7C8F951
:10164000316811F010030FD1726994464CF8043BD5
:101650005360CCF80430B069014641F8043B0A1DE0
:10166000436042F8043B13602046294644F8276053
:10167000BDE8F04101F05CB90348FFF7A9F9D2E7F2
:10168000443F0008603F00082C3F0008AFF3008093
:1016900070B504460E46FFF733F99CB1E38953FA5F
:1016A00006F515F0010501D0012070BD012010FAEA
:1016B00006F242EA03032046E381314601F0F0FBE3
:1016C000284670BD0148FFF783F9E7E7B43F0008FB
:1016D00070B504460E46FFF713F99CB1A38953FA7F
:1016E00006F515F0010501D0012070BD012010FAAA
:1016F00006F242EA03032046A381314601F0E0FBF3
:10170000284670BD0148FFF763F9E7E7CC3F0008C2
:1017100010B4002202240470A0F8482080F84A2067
:1017200080F84B208281C281026142618261C26184
:10173000026242628262C26280F8302010BC01F014
:1017400077B900BFAFF30080AFF30080AFF3008044
:1017500000222DE9F041044680F8302000F14002DB
:1017600001F0A6F963689B68002B1FD020469847BC
:10177000E0B1A56B94F84030B4F84600A8423CBFF5
:10178000A063054613F0800F7BD1002D6AD10420A1
:1017900084F83000294620462A462B4601F070FB8B
:1017A00020462946BDE8F04101F08ABB94F840305C
:1017B00013F060061A4612D00021204601F0A0FB6B
:1017C0002046002101F08CFB6268136813B12046AB
:1017D00005219847052384F83030BDE8F08194F85E
:1017E000417003F07F0141EA0727B7F5407F00F021
:1017F000A98016DDB7F5C06F00F0CE8060DDB7F5CB
:10180000106F00F0B68040F6024C67456BD0B7F51C
:10181000006FD1D1012504F14B006063A563E6633D
:10182000AAE7022F77D059DDB7F5807F62D0B7F5F0
:10183000817FC1D194F842000028BDD194F8443092
:1018400013F00F0108D013F0800F40F0E080204625
:1018500001F066FB94F8402000256563A563E5630D
:10186000134689E70323002184F830302046626B59
:101870002B4601F0EDFA20460021BDE8F04101F0D1
:101880000FBB75B10122002184F830202046626B25
:101890002B4601F0F5FA20460021BDE8F04101F0A9
:1018A0000FBB022184F83010204629462A462B46D9
:1018B00001F0CEFA20462946BDE8F04101F0F0BA29
:1018C00040F2023087427CD0B7F5A06F7FF474AF4E
:1018D000554D6663E563A66335464DE7002F41D05D
:1018E000012F7FF469AF5149022500226163A5638E
:1018F000E26341E794F842E0BEF1010F7FF45CAF90
:10190000B4F84810666321F00205A4F84850A663B5
:10191000E663354630E794F8441011F0800F67D144
:10192000204601F00F0101F0A3F8012867D002283A
:101930007FF442AF3E4BA0636363E66394F84030AC
:10194000054619E794F8420001287FF435AFB4F852
:101950004820666342F0020CA4F848C0A663E66320
:10196000354609E7022504F148026263A563E7638F
:1019700002E794F8425084F84B50002D35D10323F0
:10198000237060680368002B3FF466AF2046022195
:10199000984794F840205FE7636820465D6894F8B4
:1019A000431094F84220B4F84430A84700283FF48C
:1019B00003AF4168056894F840306163A563E6634E
:1019C000DAE694F8421000297FF4F6AE94F8443039
:1019D00013F00F013FF440AF13F0800F1DD12046EC
:1019E00001F07EFA94F8402036E704212170C8E720
:1019F000204601F00F0101F04BF8012897D10D4D61
:101A0000A7636563E66394F840303D46B4E620463C
:101A100001F09EFA94F840201EE7204601F070FA8B
:101A200094F8402018E700BF61150008D03E000878
:101A3000E03E000820400008AFF30080AFF30080D4
:101A400090F8303070B5012B044619D0042B10D01B
:101A5000002101F055FA0021204601F041FA6168A9
:101A60000B6813B1204605219847052284F83020E1
:101A700070BDC36B03B19847002384F8303070BD4C
:101A8000836BB0F846209A4206D90269118AB3FBEB
:101A9000F1F501FB153575B1002102200A460B4610
:101AA00084F83000204601F0D3F920460021BDE83B
:101AB000704001F0F5B929462A462B4601F0E0F9BD
:101AC00020462946BDE8704001F0FAB9AFF3008026
:101AD00090F8303070B5022B044621D0032B11D082
:101AE0000021204601F00CFA2046002101F0F8F90F
:101AF00063681B6813B1204605219847052184F8C7
:101B0000301070BD002104250A460B4680F8305085
:101B100001F0B6F920460021BDE8704001F0D0B9CF
:101B200002699169CB68002BDAD1C36B03B1984786
:101B3000002084F8300070BDAFF30080AFF3008068
:101B400001494B6883607047001000E0AFF30080EC
:101B5000084B09495A6883680968D31AC2685B1A36
:101B60009342836004D80269934238BF036170478F
:101B7000C3607047001000E0A80D0020AFF30080A4
:101B800010B50B4A86B00B490B4C002301A80192FB
:101B90004FF0FF3223600393049302910592FFF705
:101BA000CFFF01A802998847039B236006B010BDB0
:101BB000411B0008511B0008A80D0020AFF3008056
:101BC000806BD0F1010038BF00207047AFF3008078
:101BD0008069D0F1010038BF00207047AFF300806A
:101BE00070B52023044683F311880026FEF7C8FD54
:101BF000A568A660FEF7E4FD334683F31188284606
:101C000070BD00BFAFF30080AFF30080AFF3008082
:101C10002DE9F0418469D4F8D000D4F840800368FD
:101C2000E76B9D89A66B15F0020501D0BDE8F08138
:101C3000FEF7C6FD2B4683F31188D4F8D010C7EB0E
:101C40000807BB1B0868E26B012100F099FF202305
:101C500083F31188FEF794FDD4F8D00001210068C9
:101C6000FFF736FDA268201D42F00806A66029464F
:101C70002646FFF73DFAE16B236C56F8300F5A1AEF
:101C8000B0426164A263D1D0036823635E60FEF753
:101C90001FFF8562206BB042F6D1BDE8F08100BF26
:101CA000F8B54469D4F8D0100868C38913F0080F58
:101CB00001D1A56905B1F8BDFEF782FD2B4683F37E
:101CC0001188D4F8D060402303213068E26900F025
:101CD00017FF2023064683F31188FEF751FDD4F841
:101CE000D00003210068FFF7D3FCA368201D43F058
:101CF0000407A76029462746FFF7FAF957F8100F9F
:101D0000E269B842A262A661D5D0016821614F6044
:101D1000FEF7DEFE85622069B842F6D1F8BD00BF4D
:101D20001030FFF75DBA00BFAFF30080AFF3008063
:101D300010304FF0FF33FFF753BA00BFAFF300800E
:101D40003030FFF7DDBA00BFAFF30080AFF30080A3
:101D500030304FF0FF33FFF7D3BA00BFAFF300804E
:101D60001030FFF70DBA00BFAFF30080AFF3008073
:101D70003030FFF78DBA00BFAFF30080AFF30080C3
:101D8000704700BFAFF30080AFF30080AFF3008077
:101D900038B50E4B0546044645F8043B6560002502
:101DA000A5600125103004F150014022084B257335
:101DB000FFF7D6F904F1300004F190014022054B01
:101DC000FFF756FA6462A46438BD00BF7040000893
:101DD000A11C0008111C0008AFF30080AFF30080C5
:101DE00070B504460D46F0B1202383F31188FEF749
:101DF000C7FC217B481EC3B2012B02D90C48FEF759
:101E0000E7FD2B680222C4F8D0509C602273FEF7D5
:101E1000D7FC002383F31188294651F8040BBDE851
:101E20007040FFF7C5BB0348FEF7D2FDDCE700BFFB
:101E30004040000830400008AFF30080AFF300805E
:101E400090F8401001F06003202B01D00020704773
:101E500090F84130212B0BD0222B03D0202B07D020
:101E600000207047002242638263C26301207047F2
:101E700003490723002241638363C2630120704743
:101E800004080020AFF30080AFF30080AFF30080C0
:101E9000F8B5846805460E46202383F31188FEF7C3
:101EA000AFFC206CE26BA36B871AFF1A05D1FEF71B
:101EB000C7FC002383F31188F8BDFEF7C1FC0023A3
:101EC00083F311883B4628463146E26B00F058FE0A
:101ED000202383F31188FEF793FC28463146FFF751
:101EE000F7FBA168201D41F00805A56000212546EB
:101EF000FFF7FEF8E36B226C55F8300FD11AA842B9
:101F00006364A163D3D00026036823635D60FEF79A
:101F1000DFFD8662206B8542F6D1FEF791FC00233F
:101F200083F31188F8BD00BFAFF30080AFF30080EA
:101F30002DE9F0412023846806460F4683F311887B
:101F4000FEF75EFCA56935B1FEF77AFC002383F34A
:101F50001188BDE8F081FEF773FC2B4683F31188EE
:101F6000402330463946E26900F0CAFD202380460E
:101F700083F31188FEF744FC30463946FFF788FBAF
:101F8000A268201D42F00401A16026462946FFF701
:101F9000AFF856F8100FE369B042A362C4F8188096
:101FA000D2D0036823615E60FEF792FD85622069EE
:101FB000B042F6D1FEF744FC002383F31188BDE85C
:101FC000F08100BFAFF30080AFF30080AFF300807B
:101FD000704700BFAFF30080AFF30080AFF3008025
:101FE00010B5FEF74DFC0848084A03680F24116835
:101FF000546013B1406821409847FEF761FCBDE88A
:102000001040FEF785BA00BFAC0D00200000024072
:1020100010B5FEF735FC0848084A8368F0241168BB
:1020200054601BB1C068C1F303119847FEF748FC28
:10203000BDE81040FEF76CBAAC0D00200000024075
:1020400010B5FEF71DFC0948094A03694FF4706496
:10205000116854601BB14069C1F303219847FEF732
:102060002FFCBDE81040FEF753BA00BFAC0D0020B6
:1020700000000240AFF30080AFF30080AFF30080B8
:1020800010B5FEF7FDFB0948094A83694FF4704417
:10209000116854601BB1C069C1F303319847FEF762
:1020A0000FFCBDE81040FEF733BA00BFAC0D0020B6
:1020B00000000240AFF30080AFF30080AFF3008078
:1020C00010B5FEF7DDFB0948094A036A4FF4702496
:1020D000116854601BB1406AC1F303419847FEF791
:1020E000EFFBBDE81040FEF713BA00BFAC0D0020B7
:1020F00000000240AFF30080AFF30080AFF3008038
:1021000010B5FEF7BDFB0948094A836A4FF4700415
:10211000116854601BB1C06AC1F303519847FEF7C0
:10212000CFFBBDE81040FEF7F3B900BFAC0D0020B7
:1021300000000240AFF30080AFF30080AFF30080F7
:1021400010B5FEF79DFB0948094A036B4FF0706418
:10215000116854601BB1406BC1F303619847FEF7EF
:10216000AFFBBDE81040FEF7D3B900BFAC0D0020B7
:1021700000000240AFF30080AFF30080AFF30080B7
:10218000124BF0B4D3F800C0DF689E695D6A1C6B27
:10219000D86B996C0023CCF800300D4ADFF838C0BA
:1021A0003B601360336093602B6013612360936125
:1021B0000360136293621363CCF800300B60054B2D
:1021C0004FF0FF325A60F0BC704700BFA0400008DB
:1021D000AC0D002000000240E40D0020AFF30080B1
:1021E000224B00224FF0FF3030B421491C6900F52A
:1021F0008C3C18611A61DD68D8600CF5A070DA605B
:102200001C4C486007208A600860E1681A4841F069
:102210008071E1600468194944F001040460D869E0
:1022200040F08050D861D86940F00060D8610868FB
:1022300040F480700860186A00F44071B1F5407F86
:1022400003D04FF4803119621A62084B1A6A12F4F3
:10225000004F07D1186A40F440721A62196A41F4BB
:102260000040186230BCFFF78BBF00BF0010024077
:1022700010E000E0F0ED00E0001000E00070004031
:102280001F4B1868194640F001021A600B681C4A7F
:1022900013F0020FFAD01368002003F0F901116067
:1022A000114650604868164A10F00C0FFAD11068B9
:1022B000114640F4803313600B68114A13F4003F59
:1022C000FAD05368114643F4E8105060136843F0A5
:1022D0008070106008680A4A10F0007FFAD0094840
:1022E000094B1221506019605068114640F00203FA
:1022F00053604A6802F00C0CBCF1080FF9D170472A
:102300000010024000641D0000200240AFF3008076
:1023100010B5144C2046FFF7F3F8134B1349986996
:1023200040F400729A61124B0020A16201224860C1
:10233000E36242F28A5009238A6020638B608B68D3
:102340000A4A13F0080FFAD105219160906810F045
:102350000403FBD10548044A8360916921F40073AA
:10236000936110BDE80D00200010024000240140E0
:10237000A0400008AFF30080AFF30080AFF300800F
:102380002DE9F041404DFEF77BFA2C6B3F4A208B44
:10239000A68AB6B246EA004323F07F43934235D083
:1023A0000ED8013A934201D12B8C238216F00A0FEA
:1023B00018BF238BFEF784FABDE8F041FEF7A8B8FA
:1023C000334A934214D0911C8B42EFD1AB6A1F6801
:1023D0007F68002F39D0B4F800C02A8C1FFA8CF027
:1023E00042F0010140F4A06E2984A4F800E0E1E786
:1023F000B4F804C0E86A2CF40072110400680B0CF5
:10240000A380026842F001030360CFE7B4F804C080
:10241000A86A2CF40072110400680B0CA3800168F8
:1024200041F001020260A3881FFA83FE4EF4805C33
:10243000A4F804C04368012BB8D8B4F800E02EF427
:1024400080610B041B0C2380B0E7B4F804C0202388
:102450002CF4007001040A0CA280208881B241F49F
:10246000007EA4F800E083F31188FEF7C9F9E8695B
:1024700018B18762EF61FEF72BFBFEF7E1F900234D
:1024800083F3118892E700BF1C0E002002000300B6
:1024900082000700AFF30080AFF30080AFF300804D
:1024A0002DE9F041554DFEF7EBF92C6B202383F31A
:1024B0001188FEF7A5F9EA6AAB6A106856680768E2
:1024C0000F2127F001070760107A1A6811FA00F04F
:1024D00030601668586826F0010616601A7A914036
:1024E0000160FEF7ADF9002383F31188A38A13F48A
:1024F000807307D0B4F814C001232CF48070020458
:10250000110CA182B4F814E01EF4007F08D0B4F8D6
:1025100014C043F002032CF400700204110CA182D9
:10252000B4F814E01EF4806F14D0B4F814E043F053
:1025300004032EF480600204110CA182B4F804C0DC
:102540002CF400700204110CA180208882B242F4A5
:1025500000712180B4F814C01CF4006F08D0B4F8E6
:1025600014E043F008032EF400600204110CA18271
:10257000B4F814C01CF4805F08D0B4F814E043F041
:1025800010032EF480500204110CA182B4F814C080
:102590001CF4804F08D0B4F814E043F020032EF46C
:1025A00080400204110CA182A18A0FFA81FCBCF1C7
:1025B000000F06DB5BB9FEF783F9BDE8F041FDF7DC
:1025C000A7BFA18A43F040034804420CA282AB603B
:1025D000202383F31188FEF713F9E86938B1074B1C
:1025E0006FF0010100228162DA61FEF771FAFEF7F5
:1025F00027F9002383F31188DDE700BF1C0E0020BC
:1026000010B5074C2046FEF793FF064B0649A3F191
:102610000C020020E0612163A362E26210BD00BFF2
:102620001C0E0020E840000800540040AFF300807A
:1026300070B51B4DFEF724F92B694FF6E0711A8A2D
:102640009C891982144014F0020F24D114F0040F55
:102650001CD114F0080F14D114F0100F0CD114F089
:10266000010F03D06A680E4893689847FEF728F96F
:10267000BDE87040FDF74CBF696809488A6A904719
:10268000EDE76B680648196A8847E5E76A68044819
:1026900093699847DDE7696828460A699047D5E756
:1026A000500E0020AFF30080AFF30080AFF3008046
:1026B00010B5034C2046FEF74BFF024B236110BDC3
:1026C000500E002000080040AFF30080AFF3008000
:1026D000154B30B49A69154D42F07D049C61016838
:1026E000134CE960826813496A604368124A2B60A0
:1026F000C568124BE56045696560056925608469B8
:10270000CC60046A4C60C4690C60416AD160C16AE3
:102710005160816A1160026BDA60816B5960426BB3
:102720001A6030BC704700BF001002400008014032
:10273000000C01400010014000140140001801404D
:10274000032AF0B400F09A80042A08BF41614C4B80
:1027500011F080079B5C40F088800F2411F4004545
:1027600040F089800F264A002401360139012D01ED
:1027700012F0800F14BF194344F00F0412F4004FFD
:1027800014BF1D4346F00F06520024013601090113
:102790002D0112F0800F14BF194344F00F0412F4FE
:1027A000004F14BF1D4346F00F06520024013601AE
:1027B00009012D0112F0800F14BF194344F00F04DA
:1027C00012F4004F14BF1D4346F00F0652002401BF
:1027D000360109012D0112F0800F14BF194344F096
:1027E0000F0412F4004F14BF1D4346F00F065200B1
:1027F0002401360109012D0112F0800F14BF194385
:1028000044F00F0412F4004F14BF1D4346F00F06AE
:1028100052002401360109012D0112F0800F14BF6E
:10282000194344F00F0412F4004F14BF1D4346F047
:102830000F0652002401360109012D0112F0800F0C
:1028400014BF194344F00F0412F4004F18BF1D4386
:10285000436808BF46F00F061E40354345600268D6
:10286000144021430160F0BC7047002411F400457E
:102870001F463FF477AF1D46002674E7016166E707
:1028800000410008AFF30080AFF30080AFF3008099
:1028900010B5FDF7F5FFFEF713F8BDE81040FDF7A2
:1028A00037BE00BFAFF30080AFF30080AFF300800E
:1028B0000148FEF775BE00BF640E0020AFF3008034
:1028C000037870B5012B044600D070BD0C4A9042CD
:1028D00004D02046BDE87040FEF71ABF094A0A4DF1
:1028E000D669132046F40006D66160212B64FDF7FB
:1028F00077FE1420E021FDF773FE00232B64E8E748
:10290000640E002000100240005C0040AFF3008025
:1029100090F84A00024B40F08002DA64704700BF32
:10292000005C0040AFF30080AFF30080AFF30080A5
:102930000A1D2DE9F04150F822400546226802F0B8
:102940000303013B022B96BF36484FF4007330F867
:102950001330A06808B143F02003E66866B112F0B6
:10296000100F55D0012010FA01F2B5F80E8043F493
:10297000405342EA0807EF8143EA010C2A4F2CF446
:10298000F04626F0700047F8210047F6700857F827
:10299000212003EA080C638A8CEA02063E2B47F8E2
:1029A00021602BD95F1E47F01F06701C42116FEA91
:1029B000C2676FEA57421C4ED5F84C80306DB4F8B0
:1029C00010C000F1005707F5405606EBC1000CEBB4
:1029D000080647000021B6F5007FB980BA81EE6491
:1029E00019D89B19B3F5007FC7F80080EB6402D9B2
:1029F0000E48FDF7EDFFBE60BDE8F0815A1E42F0C3
:102A000001077E1C06EBD670420202F47C42D2E73C
:102A100043F40053B0E70548FDF7DAFF638AEE6C34
:102A2000DFE700BF20410008005C00405041000883
:102A3000416830B40A4BCD6800241C65A54214BF20
:102A40004FF41E454FF41C455C6421468024DC6431
:102A50001D64044B4022C264036130BCFFF768BFB1
:102A6000005C004060410008AFF30080AFF30080DD
:102A7000054B53F8210010F4405004D0B0F5805FAE
:102A80000CBF012002207047005C0040AFF30080C3
:102A9000054B53F8211001F03003102B9ABF034A65
:102AA000D05C0220704700BF005C0040304100084D
:102AB0000F4B10B41C6D134604F1005000F5405C40
:102AC0000CEBC1046100886800F1005C0CF5405417
:102AD00061008C465CF8044B888823F8024BBCF8F4
:102AE00008105080BCF8042099805A8010BC7047B0
:102AF000005C0040AFF30080AFF30080AFF30080D4
:102B00001B48F0B4006D00F1005000F5405C0CEB88
:102B1000C1014800816880898005800D834228BFFB
:102B2000034601335B0820D001F1005101F5405507
:102B300069005C1E51F8045B234622F8025B04F036
:102B4000010493B12CB151F8044B013B22F8024B24
:102B50000BD00D4655F8047B4E68144624F8027BD2
:102B6000291D5680A21C023BF3D1F0BC704700BF68
:102B7000005C0040AFF30080AFF30080AFF3008053
:102B8000184870B4046D04F1005000F5405C0CEB83
:102B9000C104591C600049080468838020D004F1F6
:102BA000005C01390CF5405332F8020B5C000B4617
:102BB00044F8040B01F0010193B129B132F8021B72
:102BC000013B44F8041B0BD0104630F8026B5588CB
:102BD000214641F8046B821C65600C1D023BF3D159
:102BE00070BC7047005C0040AFF30080AFF3008022
:102BF0002DE9F04F81B0FDF743FE904B5C6C14F46F
:102C0000806F40F00C8114F4006F0ED08C488B4A1A
:102C10004368116C1B6841F0080111640BB103217A
:102C20009847864A6FF40060506414F4805F09D0BE
:102C3000824A916C11F4004F00F0E4807F4A6FF4F7
:102C40008050506414F4007F08D07D484368DB68EE
:102C500003B1984779486FF40071416414F4004F50
:102C600000F0A480DFF8D891744DCA4613E001202B
:102C700010FA04F1B9F80EE059F828302EEA010CE8
:102C8000A9F80EC0DA686E48214690476C6C14F4BF
:102C9000004F00F08B8004F00F0455F8246004F11D
:102CA000040816F0800F59F828703AD055F824100F
:102CB00021F4F04C2CF0F00345F824303A6812F07F
:102CC000100F7AD12B6D796903F1005202F5405E45
:102CD0000EEBC4004300B3F804C00A688868D1F85A
:102CE00004E01FFA8CF3D218C018C3EB0E030A607D
:102CF00088604B60002B60D0B7F810E05FFA84FB6F
:102D00004F485946734528BF7346FFF739FF55F8BA
:102D10002B2022F4F04020F0400C8CF0300145F8DC
:102D20002B1016F4004FB1D055F8241016F4006F94
:102D300021F4784E2EF0700345F824304BD13868DA
:102D400010F0100F93D1BB69E6B25A6831469B6808
:102D50003B48FFF7D5FEBB6955F826E01A885F6847
:102D6000D968D3F808C02EF4904E2EF0700E013AB8
:102D70003F1809188EF4405EC0EB0C0092B245F883
:102D800026E05F60D96098601A80002A2AD055F842
:102D9000242022F4904121F0700C8CF4405045F82E
:102DA00024006C6C14F4004F7FF475AFFDF788FDC0
:102DB00001B0BDE8F04FFDF7ABBB012212FA04F001
:102DC000BAF80CC0BB682CEA0001AAF80C101C4829
:102DD00021469847A5E759F8283019485A682146EE
:102DE000904753E7012111FA04F0BAF80EC05AF8DF
:102DF00028302CEA000EAAF80EE0DC6810483146B4
:102E0000A04743E70E48116C436821F008011B6896
:102E10001164002B3FF412AF042198470EE7084DD0
:102E20002846FEF775FC6868036813B12846002140
:102E3000984702496FF480624A64E4E6005C00400F
:102E4000640E0020AFF30080AFF30080AFF300808A
:102E5000043150F821108869426000228360C2600A
:102E60003BB14A8A511EC918B1FBF2FCA0F800C060
:102E70007047012303807047AFF30080AFF30080F9
:102E800070B40D1D50F8254000266569248A6B60DA
:102E9000A34228BF23462A60AE6070BCFFF770BE15
:102EA000054B53F8212022F4904C2CF0700080F454
:102EB000405243F821207047005C0040AFF300808F
:102EC000054B53F8212022F4F04C2CF0400080F008
:102ED000300243F821207047005C0040AFF30080CF
:102EE000054B53F8212022F4904C2CF0700080F414
:102EF000805243F821207047005C0040AFF300800F
:102F0000054B53F8212022F4F04C2CF0400080F0C7
:102F1000100243F821207047005C0040AFF30080AE
:102F2000094B53F8210000F44052B2F5405F09D03C
:102F300053F8212022F4F04020F0400C8CF4005291
:102F400043F82120704700BF005C0040AFF30080D1
:102F5000084B53F8210000F03002302A09D053F812
:102F6000212022F4F04020F0400C8CF0200243F8A5
:102F700021207047005C0040AFF30080AFF3008079
:102F8000FFF77EB9AFF30080AFF30080AFF30080AE
:102F9000704700BFAFF30080AFF30080AFF3008055
:102FA000002903DD0449054A00F06ABA044B0549CB
:102FB000DA6800F065BA00BFC0410008CC410008E3
:102FC0004C0D0020D4410008AFF30080AFF3008027
:102FD00010B5002982B0044606DD1949194A02B02D
:102FE000BDE8104000F04CBA1749184A00F048FA02
:102FF00020461749174A00F043FA20461649174A57
:1030000000F03EFA20461649164A00F039FA2046EA
:103010001549164A00F034FA20461549154A00F0C1
:103020002FFA20461449154A00F02AFA2046144C7B
:103030001449154A154B009400F022FA02B010BD55
:10304000C0410008DC410008E4410008F8410008E4
:1030500000420008144200082042000834420008E0
:103060003C420008504200085C42000870420008E0
:10307000884200089C420008C4420008D842000868
:1030800014430008EC420008044300081043000801
:103090000A6838B5054642B10C462846034900F097
:1030A000EFF954F8082F002AF7D138BD2043000863
:1030B0002DE9F041054600680C4616469846A8B131
:1030C0002F4602E057F8080F68B13146FDF710F8B7
:1030D00005460028F6D120467E684146069AB0474C
:1030E0002846BDE8F0810120BDE8F0810120BDE85F
:1030F000F08100BFAFF30080AFF30080AFF300803A
:1031000038B504460D46A8B108600D492046FDF7C4
:103110009FF8241820462021FDF712F8286018B1E6
:10312000002300F8013B28602078002814BF2046C7
:10313000002038BD0C68002CE7D1204638BD00BF08
:10314000C03A0008AFF30080AFF30080AFF3008017
:10315000014B1B60704700BFC40E0020AFF300801E
:1031600000B583B00090084611461A46024BFDF7A1
:1031700007FE03B000BD00BF31320008AFF300808E
:10318000013A2DE9F843884605460F4601EB02094E
:10319000296828464B694FF0FF31984704B2002C4C
:1031A00006462CDB042C2DD0082C0FD00D2C30D053
:1031B0001F2CEDDD4F45EBD2296828460C694FF0F6
:1031C000FF32F1B2A04707F8016BE1E74745DFD0D6
:1031D0002B6821461E694FF0FF322846B047286809
:1031E000202103694FF0FF32284698472A68284675
:1031F000166921464FF0FF32B047013FC8E7012072
:10320000BDE8F8832846074900F03AF90120BDE8F7
:10321000F8832846044900F033F900203870BDE8EF
:10322000F88300BF24430008D4420008AFF30080B5
:103230002DE9F04365490468CB69654AD0F80480FC
:1032400099B020469A61634900F01AF94FF00009DD
:103250002046614900F014F9204602A94022FFF7F8
:103260008FFF064600283BD117A902A8FFF748FFA9
:1032700017A905463046FFF743FF0346002843D011
:10328000304617A91293FFF73BFF034600285ED094
:10329000304617A91393FFF733FF0346002858D091
:1032A000304617A91493FFF72BFF0346002852D08E
:1032B000304617A91593FFF723FF00284DD020466D
:1032C000464900F0DDF820464349169600F0D8F84C
:1032D000204602A94022FFF753FF06460028C3D02C
:1032E00020463F4900F0CCF8202383F31188FDF7F6
:1032F00047FA00213B48FDF7FBFE0020FDF7A0FD4B
:10330000002019B0BDE8F08306460DF1600C0CEB0F
:10331000860040F8189C002D9AD028463249FCF7C8
:10332000E7FE38B9002EDFD0204630492E4A00F0A3
:10333000A7F88DE728462E49FCF7DAFE78B9002E6B
:1033400030D0204629492A4A00F09AF880E7012621
:10335000DBE70226D9E70326D7E70426D5E712AF35
:10336000244821462A4633460097FFF7A1FE00284D
:103370003FF46EAFB8F1000F0AD03346404612AEAC
:1033800021462A460096FFF793FE00283FF460AFDF
:10339000204619492A4600F073F82046174900F0E4
:1033A0006FF855E71649204600F06AF820461149A3
:1033B000FFF76EFEB8F1000F03D020464146FFF73D
:1033C00067FE20460F4900F05BF841E75C0D0020E6
:1033D0002843000830430008484300085C430008C5
:1033E00050430008C40E002074430008C041000888
:1033F0007C4300080C0800209C430008A043000800
:1034000084430008D4420008AFF30080AFF300808B
:1034100070B400F10B0600F10A04B1FBF2F502FBF7
:10342000151101F13003392BC8BF01F137032946CB
:10343000254604F801390029EFD10446C5EB060CF6
:10344000E2436044121812F0010F29460AD004F832
:10345000013B11F8013F05E011F8013F637011F8DD
:10346000013F541C224602F8013B8242F4D170BC59
:10347000704700BFAFF30080AFF30080AFF3008070
:103480000EB42DE9F04F84B00DAB53F8044BDFF8C8
:1034900090B305460393217859B1013425290DD005
:1034A0002A68284613694FF0FF329847217800298F
:1034B000F3D104B0BDE8F04F03B0704723782D2B53
:1034C00000F0868100262E2B06BF14F8013F4FF036
:1034D00030084FF020080398611C4FF0000A07E005
:1034E000027804300AEB8A0A11F8013B02EB4A0A1F
:1034F000A3F13004E2B2092A0C46F3D92A2BEFD00B
:103500002E2B039000F050814FF0000C6C2B00F03C
:1035100045814C2B00F04281A3F14100C1B2192931
:103520008CBF00210121A3F14407342F00F219813F
:10353000DFE817F024011701170117011701170120
:10354000170117011701170117011C0117011701B6
:103550001701170117013201170117010C0117019B
:10356000170117011701170117011701170117019B
:103570001701C300240117011701170117011701D3
:10358000170117011701170117011C011701170176
:103590001701350017013201170117010C01039BB8
:1035A00047F6FF781F681A1D0392002F08BF5F4679
:1035B0003878BCF1000F08BFC446002800F02B810A
:1035C000781CC14384447A7801EB0C0909F00101AD
:1035D000431C92B1634510D021B1184613F8012B5A
:1035E0004AB90AE01A4612F8011B184629B159785F
:1035F0001046531C09B16345F4D1C7EB0009C9EB70
:103600000A0C4FF020082CEAEC7A002E67D0B9F1B2
:10361000000F28DD3E462A68F843B94416F8011B1E
:1036200009EB0007136928464FF0FF3298474E45D3
:1036300007F0010717D01FB12B6816F8011B0BE02C
:103640002868374617F8011B03694FF0FF322846F8
:1036500098472B6871787E1C1B6928464FF0FF3213
:1036600098474E45ECD1BAF1000F3FF414AF2E68E5
:103670000AF1FF3C33692846664641464FF0FF3267
:103680000CF001079847002E3FF405AF1FB12A68E0
:10369000284613690AE02868414603694FF0FF3263
:1036A000284698472968013E0B69284641464FF055
:1036B000FF329847013EEED1EDE6039900AF0A686C
:1036C0000B1D4FF0200803938DF80020781CC7EBEA
:1036D0000009C9EB0A0C2CEAEC7A002E97D1CAF14A
:1036E000000ABAF1000F92D039782D2900F08580B8
:1036F00029686FEA0A0E0B69284641464FF0FF32EF
:103700000EF0010698471AF1010A80D056B12968D7
:1037100028460B694FF0FF32414698471AF1010ADB
:103720003FF475AF2868414603694FF0FF322846E1
:10373000984728680AF1010A0369414628464FF074
:10374000FF3298471AF1010AECD160E7102281B1EB
:10375000039B191D039119686846FFF759FE6F46D0
:10376000B5E700AF8DF80030781CB0E708220029DB
:10377000EED10398071D01680397EDE700292FD1CB
:10378000039B19681A1D002903922FDB68460A2241
:10379000FFF73EFE6F469AE70A22D8E72278EAB1A1
:1037A000013413460121BEE64FF0000C0C4614F81C
:1037B000013B0CEB8C07A3F13001CAB2092A214668
:1037C00003D92A2B08D10278043002EB470CEDE72D
:1037D00014F8013F012676E6039097E60121A2E660
:1037E000039F3968381D00290390CFDA2D2000AFE0
:1037F0008DF800004942781CC9E7B8F1300F7FF41A
:1038000077AF2A68284616694FF0FF32B047013774
:1038100009F1FF396CE738464FF0200857E700BF41
:10382000B0430008AFF30080AFF30080AFF3008037
:1038300008B5FDF745FEFCF723FF00F089F800F01E
:10384000F7F8012000F02CF94FF47A70FDF7E0FA58
:10385000FAE700BFAFF30080AFF30080AFF3008062
:10386000022906D0032906D00748012918BF0020E5
:10387000704706487047032A03D8054800EBC2008A
:1038800070470020704700BF00460008E043000872
:10389000C0450008AFF30080AFF30080AFF30080B5
:1038A00030B5002983B0044604DD0E49FFF7E8FD7A
:1038B00003B030BD01A90020FDF7E2FD0546FDF78C
:1038C000BFFD094902462046FFF7DAFD20462A4699
:1038D0000649FFF7D5FD20460549019AFFF7D0FDBF
:1038E000E6E700BF204400082C4400084C440008D0
:1038F00064440008AFF30080AFF30080AFF30080B2
:10390000022938B50C46054618D1202383F31188C7
:10391000FCF776FF28460121094AFDF779FE284683
:103920002146084AFDF774FE28460321064AFDF7A2
:103930006FFEFCF785FF002383F3118838BD00BFBD
:10394000C0430008F0430008B0440008AFF3008013
:1039500010B50C4C2046FEF71BFA0B492046FEF72B
:103960003FFA0A484FF400624261FFF7F1FB40233F
:10397000074808494FF44B62FFF7F2FB064B18600B
:1039800010BD00BF781B0020E0450008001001407A
:10399000D0440008C80E00204C1C0020AFF300806B
:1039A0001B481C4AC3692DE9F0414FF480461A4D6B
:1039B000DFF87080194C9A6137464FF400534FF48A
:1039C00080516761FA2063616161FDF721FA144853
:1039D000FDF706FBD8F800002860FDF711FB2B6807
:1039E0004FF4005213F0010F14BF2661666113F00B
:1039F000020F14BF226162614FF4805113F0040F73
:103A000014BF21616161FA20FDF702FAD5E700BF1A
:103A10005C0D002010460008181E0020000C01401C
:103A2000501C0020601C0020AFF30080AFF300802A
:103A300070B5144C4FF480434FF400564FF480554A
:103A4000236182B019462661062220462561FEF7D1
:103A500077FE204631460622FEF772FE29460622F0
:103A60002046FEF76DFE0848FDF722FA00244FF4C9
:103A7000D8714022054B06480094FDF781F902B049
:103A800070BD00BF000C0140501C0020A13900088F
:103A9000681C0020AFF30080AFF30080AFF300801C
:103AA00010B504460448FDF79BFA044B1C60BDE8C2
:103AB0001040FDF7A5BA00BF501C0020601C00207C
:103AC000200039000000000000000000000000009D
:103AD00000202020202020202020282828282820DE
:103AE00020202020202020202020202020202020D6
:103AF000208810101010101010101010101010103E
:103B0000100404040404040404040410101010102D
:103B100010104141414141410101010101010101F7
:103B20000101010101010101010101011010101049
:103B300010104242424242420202020202020202C9
:103B4000020202020202020202020202101010101D
:103B50002000000000000000000000000000000045
:103B60000000000000000000000000000000000055
:103B70000000000000000000000000000000000045
:103B80000000000000000000000000000000000035
:103B90000000000000000000000000000000000025
:103BA0000000000000000000000000000000000015
:103BB0000000000000000000000000000000000005
:103BC00000000000000000000000000000000000F5
:103BD00000000000000000000000000000000000E5
:103BE00069646C65000000006D61696E0000000092
:103BF00053562331000000005356233200000000CA
:103C000053562333000000005356233400000000B5
:103C100053562335000000005356233600000000A1
:103C2000535623370000000053562338000000008D
:103C30005356233900000000535623313000000052
:103C40005356233131000000000000000000000046
:103C500022636856545365744922282900000000E5
:103C600022636856545265736574492228290000FE
:103C70006368565452657365744928292C20233192
:103C80000000000000000000000000000000000034
:103C9000636853636852656164794928292C20233D
:103CA00031000000737461636B206F766572666C1F
:103CB0006F7700000000000000000000000000001E
:103CC00022636854686443726561746549222829D7
:103CD0000000000022636854686453657450726980
:103CE0006F726974792228290000000063685468A3
:103CF00064526573756D6528292C202331000000FE
:103D0000226368546864536C65657022282900003A
:103D10006368546864457869745328292C202331DA
:103D200000000000226368546864576169742228A7
:103D30002900000063685468645761697428292C5D
:103D40002023310063685468645761697428292C02
:103D500020233200000000000000000000000000EE
:103D60002263684D7478496E697422282900000026
:103D70002263684D74784C6F636B532228290000CE
:103D800063684D74784C6F636B5328292C20233162
:103D90000000000063684D74784C6F636B532829F2
:103DA0002C202332000000002263684D7478547286
:103DB000794C6F636B5322282900000063684D74AF
:103DC00078556E6C6F636B28292C2023310000001E
:103DD00063684D7478556E6C6F636B28292C2023B3
:103DE0003200000063684D7478556E6C6F636B53DE
:103DF00028292C202331000063684D7478556E6C9F
:103E00006F636B5328292C20233200000000000030
:103E100022636845767452656769737465724D6193
:103E2000736B222829000000226368457674556E62
:103E30007265676973746572222829002263684578
:103E400076745369676E616C49222829000000006E
:103E50002263684576745369676E616C2228290075
:103E600022636845767442726F6164636173744D56
:103E700061736B492228290022636845767444697E
:103E800073706174636822282900000063684576B6
:103E900074446973706174636828292C202331008D
:103EA00022636849515265616454696D656F757428
:103EB000222829002263684F51577269746554693A
:103EC0006D656F7574222829000000000000000055
:103ED00000000000000000000000000000000000E2
:103EE00000000000000000000000000000000000D2
:103EF00022757362537461727422282900000000D5
:103F0000757362537461727428292C202331000068
:103F10002275736253746F7022282900757362537F
:103F2000746F7028292C20233100000022757362E1
:103F3000496E6974456E64706F696E7449222829F0
:103F400000000000757362456E61626C65456E64C9
:103F5000706F696E744928292C20233100000000FD
:103F6000757362456E61626C65456E64706F696EF3
:103F7000744928292C202332000000002275736226
:103F800044697361626C65456E64706F696E7473C9
:103F90004922282900000000757362446973616238
:103FA0006C65456E64706F696E74734928292C20A6
:103FB0002331000022757362537461727452656319
:103FC0006569766549222829000000002275736220
:103FD00053746172745472616E736D6974492228EE
:103FE00029000000227573625374616C6C52656322
:103FF00065697665492228290000000022757362F0
:104000005374616C6C5472616E736D6974492228CB
:104010002900000000000000000000000000000077
:10402000010000000000000000000000000000008F
:104030002273647553746172742228290000000091
:10404000736475537461727428292C202331000025
:1040500022736453746F70222829000073647553AF
:10406000746F7028292C202331000000000000000C
:10407000511D0008311D0008C11B0008D11B00089C
:10408000711D0008611D0008411D0008211D000868
:10409000E11B00080000000000000000000000001C
:1040A000080002400400024000000B001C00024017
:1040B0000400024004010C003000024004000240F1
:1040C00008020D0044000240040002400C030E00F0
:1040D000580002400400024010040F006C0002402F
:1040E0000400024014051000800002400400024059
:1040F0001806110000000000000000000000000091
:10410000040204080800030708080808080808084B
:104110000B0F000000000000000000000000000085
:104120000004000000060000000000000000000085
:104130000002020202020202020202020202020261
:10414000010000000000000000000000000000006E
:10415000706D5F616C6C6F6328292C202331000027
:104160000000000051170008411A0008D11A000889
:1041700040004000B40E0020B40E002000000000FB
:10418000FFFFFFFF844B888888888888FFFFFFFF38
:10419000888888888888B8B4FFFFFFFF88888444AF
:1041A00088338388FFFFFFFF448888888888888851
:1041B000FFFFFFFF888888888888888800000000C3
:1041C00055736167653A2025730D0A00737973741E
:1041D000696D6500256C750D0A000000696E666FDB
:1041E000000000004B65726E656C3A202020202094
:1041F000202025730D0A0000322E342E33000000DB
:10420000436F6D70696C65723A2020202020257301
:104210000D0A000047434320342E352E32000000A3
:104220004172636869746563747572653A202573B9
:104230000D0A000041524D76372D4D00436F7265D7
:104240002056617269616E743A2025730D0A000070
:10425000436F727465782D4D33000000506F727497
:1042600020496E666F3A2020202025730D0A000039
:10427000416476616E636564206B65726E656C2067
:104280006D6F646500000000506C6174666F726D44
:104290003A202020202025730D0A000053544D336E
:1042A00032463120506572666F726D616E636520B3
:1042B0004C696E65204D656469756D2044656E734B
:1042C00069747900426F6172643A202020202020B6
:1042D000202025730D0A00004F6C696D657820530E
:1042E000544D33322D503130330000004275696C2B
:1042F000642074696D653A20202025732573257329
:104300000D0A00004E6F76203138203230313200F5
:10431000202D200032313A34323A30310000000092
:10432000257320005E4400007368656C6C0000001B
:104330000D0A43686962694F532F525420536865D0
:104340006C6C0D0A0000000063683E200000000055
:104350000D0A6C6F676F757400000000746F6F203A
:104360006D616E7920617267756D656E74730D0A8B
:1043700000000000657869740000000068656C70DA
:1043800000000000436F6D6D616E64733A206865D4
:104390006C702065786974200000000025730000AF
:1043A000203F0D0A00000000000000000000000097
:1043B000286E756C6C2900000000000000000000F1
:1043C0001200000000000000911E00080000000024
:1043D000400000000000000000000000000000009D
:1043E00043000000E044000800000000000000005E
:1043F0001300000000000000D11F000800000000B2
:10440000100000000000000000000000000000009C
:1044100084440008A13800080000000000000000EB
:1044200055736167653A206D656D0A00636F72654B
:104430002066726565206D656D6F7279203A202562
:10444000752062797465730A000000006865617008
:1044500020667261676D656E74732020203A202596
:10446000750A000068656170206672656520746F6A
:1044700074616C20203A2025752062797465730A76
:10448000000000006D656D000000000000000000ED
:104490001201100102000040830440570002010293
:1044A0000301000000000000000000000000000008
:1044B000120000000000000000000000311F000892
:1044C00000004000000000000000000000000000AC
:1044D000781B0020104400080000000000000000CD
:1044E00009024300020100C0320904000001020277
:1044F000010005240010010524010001042402022A
:104500000524060001070582030800FF09040100D5
:10451000020A0000000705030240000007058102AF
:10452000400000000000000000000000000000004B
:104530000403090400000000000000000000000067
:104540002603530054004D006900630072006F00A1
:1045500065006C0065006300740072006F006E00FF
:10456000690063007300000000000000000000000C
:104570003803430068006900620069004F0053007F
:104580002F00520054002000560069007200740091
:10459000750061006C00200043004F004D002000BA
:1045A00050006F0072007400000000000000000066
:1045B0000803320034003300000000000000000057
:1045C00004000000304500082600000040450008B7
:1045D000380000007045000808000000B0450008E1
:1045E000640E00200139000861380008411E0008EF
:1045F00000000000000000000000000000000000BB
:1046000012000000904400080000000000000000BC
:044610006C640000D6
:10461800D03A00080096000000000800DC410008BD
:10462800D12F0008CC410008A12F0008000000008D
:04463800000000007E
:04000005080000F0FF
:00000001FF
