:020000040800F2
:1000000000040020D1060008A1080008A10800088B
:10001000A1080008A1080008A1080008A10800081C
:10002000A1080008A1080008A1080008D1080008DC
:10003000A1080008A1080008A1080008A1090008FB
:10004000A1080008A1080008A1080008A1080008EC
:10005000A1080008A1080008A1080008A1080008DC
:10006000A1080008A1080008A1080008F12800085C
:10007000212900085129000891290008D1290008E8
:10008000112A0008512A0008A10800086139000857
:10009000C13C0008A1080008A1080008A108000848
:1000A000A1080008A1080008A1080008A10800088C
:1000B000A1080008A1080008A1080008012E0008F6
:1000C000C12F0008A1080008A1080008A108000825
:1000D000A1080008A1080008A1080008A10800085C
:0C00E000A1080008A1080008A108000801
:1000F00000210A2200F086B900220A2300F0D0B8BD
:1001000040F60003C2F2000370B41D6810F8013B12
:10011000EC181A46647804F00304012C11F8014B22
:1001200008BF03F120022E192346767806F0030655
:10013000012E08BF04F12003D21A01D1002BE5D112
:10014000104670BC704700BF0000000000000000B7
:10015000C9B2F0B4002950D010F0030F10D00378CA
:10016000002B79D0994246D0431C05E013F8012BAF
:10017000002A3FD091423ED013F0030F1846F5D12C
:10018000036841EA01270646A3F1013247EA07471F
:1001900022EA030212F0803F1DD187EA0303A3F194
:1001A000013222EA030313F0803F14D1043002E04D
:1001B00012F0803F0FD1064650F8043BA3F1013501
:1001C00087EA030225EA0303A2F1013413F0803F1A
:1001D00024EA0202ECD033783046002B3CD099421E
:1001E00009D0731C01E0914205D0184613F8012B89
:1001F000002AF8D11046F0BC704710F0030F0CD065
:100200000378002BF7D0431C03E013F8012B002ADE
:10021000F1D013F0030F1846F7D102680346A2F19C
:10022000013121EA020212F0803F0AD10430034674
:1002300050F8042BA2F1013121EA020212F0803FB2
:10024000F5D01A781846002AD5D00133184613F88D
:10025000012B002AFAD1CEE71846CCE700000000B7
:10026000F0B40646047874B10F780546064657B1D7
:10027000BC4218BF0A4602D108E09C4206D012F8E0
:10028000013F002BF9D1301AF0BC70476C786E1C1E
:10029000002CF8D03546EBE700000000000000001D
:1002A0002DE9F04F40F60004C2F2000485B01F466D
:1002B0008C4626680B460390029213F8014B3219C4
:1002C0001D4692F801B01BF0080BF6D12D2C73D00F
:1002D0002B2C08BF15F8014BD7F1010338BF0023C1
:1002E000102F14BF1A4643F0010232B1302C73D0E4
:1002F0001BB1302C00F083800A27B946BBF1000FF8
:1003000049460CBF6FF0004A4FF0004ACDF804C0D8
:10031000504600F0B3F950468846494600F080F850
:1003200033190022DDF804C05B78114613F0040F86
:100330001ED0303CA74225DD814294BF002301231B
:1003400053EAD2722ED10A1A534243EB02034445B8
:10035000D4BF002303F00103002B23D109FB01418B
:1003600015F8014B012233195B7813F0040FE0D12B
:1003700013F0030306D0012B14BF57233723E41ACD
:10038000A742D9DCB2F1FF3F1BD00846BBF1000FFA
:1003900010D1029B1BB152B90299C1F800C005B03F
:1003A000BDE8F08F4FF0FF3215F8014BDBE705F1A8
:1003B000FF3CF1E74842ECE715F8014B4FF0010B29
:1003C0008AE70399BBF1000F0CBF6FF000404FF0BC
:1003D000004022230B60DCE72A78A2F1780041423A
:1003E00041EB0001582A14BF0A4641F00102002ADD
:1003F0003FF47EAF10276C78B94602357EE70827B8
:10040000B9467BE730B440F60404C2F200040D465E
:10041000134601462A46206830BC41E70000000030
:100420004A1E08BF7047C0F02481884240F21681FE
:10043000114200F01781B0FA80F3B1FA81F2A2EB19
:100440000303C3F11F0304A202EB03134FF00002E6
:100450009F4600BFAFF30080B0EBC17F00BF42EB0F
:10046000020228BFA0EBC170B0EB817F00BF42EB5E
:10047000020228BFA0EB8170B0EB417F00BF42EBCE
:10048000020228BFA0EB4170B0EB017F00BF42EB3E
:10049000020228BFA0EB0170B0EBC16F00BF42EBBE
:1004A000020228BFA0EBC160B0EB816F00BF42EB3E
:1004B000020228BFA0EB8160B0EB416F00BF42EBAE
:1004C000020228BFA0EB4160B0EB016F00BF42EB1E
:1004D000020228BFA0EB0160B0EBC15F00BF42EB9E
:1004E000020228BFA0EBC150B0EB815F00BF42EB1E
:1004F000020228BFA0EB8150B0EB415F00BF42EB8E
:10050000020228BFA0EB4150B0EB015F00BF42EBFD
:10051000020228BFA0EB0150B0EBC14F00BF42EB7D
:10052000020228BFA0EBC140B0EB814F00BF42EBFD
:10053000020228BFA0EB8140B0EB414F00BF42EB6D
:10054000020228BFA0EB4140B0EB014F00BF42EBDD
:10055000020228BFA0EB0140B0EBC13F00BF42EB5D
:10056000020228BFA0EBC130B0EB813F00BF42EBDD
:10057000020228BFA0EB8130B0EB413F00BF42EB4D
:10058000020228BFA0EB4130B0EB013F00BF42EBBD
:10059000020228BFA0EB0130B0EBC12F00BF42EB3D
:1005A000020228BFA0EBC120B0EB812F00BF42EBBD
:1005B000020228BFA0EB8120B0EB412F00BF42EB2D
:1005C000020228BFA0EB4120B0EB012F00BF42EB9D
:1005D000020228BFA0EB0120B0EBC11F00BF42EB1D
:1005E000020228BFA0EBC110B0EB811F00BF42EB9D
:1005F000020228BFA0EB8110B0EB411F00BF42EB0D
:10060000020228BFA0EB4110B0EB011F00BF42EB7C
:10061000020228BFA0EB0110B0EBC10F00BF42EBFC
:10062000020228BFA0EBC100B0EB810F00BF42EB7C
:10063000020228BFA0EB8100B0EB410F00BF42EBEC
:10064000020228BFA0EB4100B0EB010F00BF42EB5C
:10065000020228BFA0EB0100104670470CBF01202A
:1006600000207047B1FA81F2C2F11F0220FA02F0B5
:10067000704708B14FF0FF3000F012B80029F8D0F1
:100680002DE90340FFF7CCFEBDE8064002FB00F376
:10069000A1EB0301704700BF000000000000000054
:1006A000704700BF000000000000000000000000D4
:1006B000704700BFAFF30080AFF30080AFF300805E
:1006C000FEE700BFAFF30080AFF30080AFF3008020
:1006D00072B6634880F30988022383F31488BFF35A
:1006E0006F8F604A604CA24217D213464FF05531CB
:1006F000D64343F8041BA519A342C5F380050CD2C9
:1007000025B1196002F10803A34206D21A4642F845
:10071000041B5960131DA342F8D3544A824217D2D6
:1007200013464FF05531D54343F8041B4419834217
:10073000C4F380040CD224B1196002F1080383428F
:1007400006D21E4646F8041B5960331D8342F8D377
:1007500003F07EFC464C4749A14222D246480B4654
:10076000024652F8046BCD4343F8046B04EB050CCE
:10077000A342CCF3800514D23DB1166800F1080203
:100780001E6001F10803A3420BD2104650F8045B2F
:10079000194641F8045B5668021D5E600B1DA342BA
:1007A000F3D3364A3648824217D200211346D44347
:1007B00043F8041B00EB040E8342CEF380040CD2FA
:1007C00024B1196002F10803834206D21A4642F8A6
:1007D000041B5960131D8342F8D32A4D2A4EFFF79C
:1007E00067FFB54219D22C4654F8043BE943771809
:1007F0009847B442C7F380070FD22FB1236805F1A1
:1008000008049847B44208D2254655F8042B90476F
:1008100060682C1D8047B442F6D31C4D1C4E04F07A
:100820006FF8B5421AD22C46EF4354F8043B06EB5E
:10083000070CCCF380079847B4420FD22FB122683F
:1008400005F108049047B44208D2254655F8040B38
:10085000804761682C1D8847B442F6D3FFF730BF4C
:1008600000080020000000200004002000040020F8
:100870001C090020000800208869000820090020C9
:1008800038180020EC000008EC000008EC0000081C
:10089000EC000008AFF30080AFF30080AFF30080FE
:1008A000FEE700BFAFF30080AFF30080AFF300803E
:1008B00072B6FEE7AFF30080AFF30080AFF30080C5
:1008C00000F06EF900F0D4FB00F08AF900DF00BF01
:1008D000EFF30983203383F30988002383F311881E
:1008E000704700BFAFF30080AFF30080AFF300802C
:1008F0000A4B002210B59A60094A07201021DA60DD
:1009000000F0A6F80A204FF4007100F0A1F80B20C7
:100910008021BDE8104000F09BB800BF00ED00E072
:100920000000FA05AFF30080AFF30080AFF3008062
:10093000202383F311881648436813F4006316D00C
:10094000EFF30983203B83F30988124A4FF080704C
:100950009169D86171B11068D269816892689142D9
:1009600094BF002201227AB10B499961704783F349
:10097000118870471068D26981689268914234BFCB
:1009800000220122002AEFD1044A9A61704700BF79
:1009900000ED00E0540E0020C1080008CC0800085B
:1009A00010B500F07DF9202383F3118800F038F9A9
:1009B00000F0AEF800F054F9002383F3118800F042
:1009C0008FF9BDE81040FFF7B3BF00BFAFF3008061
:1009D0002DE9F04FC1F80CD0D0F80CD0BDE8F08F65
:1009E00008B500F0FDF8002383F311882846A047DE
:1009F00000F07EFC08BD00BFAFF30080AFF30080C5
:100A0000F0B400F00307FE00FF2313FA06F200F033
:100A10001F04B1400125A5408608094CC03654F892
:100A20002670400927EA020242EA010300F160074A
:100A300044F8263044F8275044F82050F0BC704762
:100A400000E100E0AFF30080AFF30080AFF300807F
:100A500000F0030210B4FF23D40013FA04F2A14003
:100A60008008064C063054F8203023EA020242EA9D
:100A7000010344F8203010BC704700BF00ED00E0D7
:100A80000248034AC3699A61FEE700BF540E002082
:100A900050590008AFF30080AFF30080AFF300803F
:100AA00030B583B0FFF724FF00F012FA00F0A8F988
:100AB00000F066FF00F0BCFF00F062F940210E4834
:100AC00000F0FEFA0D4D0E490124E86180F8204047
:100AD000C16100F04DF8002383F3118862B6EA6922
:100AE0001D46084BC021936107482246074B0095DD
:100AF00000F076FB03B030BD20090020540E00202A
:100B0000000400205859000870090020810A0008DC
:100B100070B500F005F9114B9A69002A01DD013A20
:100B20009A61DA690E4C516A2368481C5062E16888
:100B3000481CA342E0600FD09D68013D9D605DB9F7
:100B400026461968DA681869DD604E6021609047B2
:100B5000236898680028F4D070BD00BF540E0020B0
:100B6000440E0020AFF30080AFF30080AFF30080AD
:100B70000548036813B9054A116821B10448054BBB
:100B80001860FFF795BE7047300A00203C0E002029
:100B900070590008400E0020AFF30080AFF30080D2
:100BA000084810B5036853B9074C216821B1074ABA
:100BB000074B1A60FFF77CFE0120206010BD024C3D
:100BC000F5E700BF300A00203C0E002078590008ED
:100BD000400E0020AFF30080AFF30080AFF3008041
:100BE000094810B5036833B9084C2168002903DDB2
:100BF0000020206010BD054C054A064B1A60FFF727
:100C000057FE0020206010BD300A00203C0E00205E
:100C100080590008400E0020AFF30080AFF3008041
:100C2000084810B50368002B0ADD074C216821B184
:100C3000064A074B1A60FFF73BFE0120206010BDFB
:100C4000014CF5E7300A00203C0E002088590008CE
:100C5000400E0020AFF30080AFF30080AFF30080C0
:100C60000A4810B50368002B06DD094C21680029ED
:100C700003DD0020206010BD054C064A064B1A60BB
:100C8000FFF716FE0020206010BD00BF300A0020D4
:100C90003C0E002090590008400E0020AFF3008069
:100CA00010B5202383F31188094C2368002B02DB45
:100CB000084802682AB1084B08491960FFF7F8FD97
:100CC00023685A1C2260002383F3118810BD00BFE3
:100CD000300A00203C0E0020400E002098590008E9
:100CE00010B5202383F31188094C2368002B02DD03
:100CF000084802682AB1084B08491960FFF7D8FD77
:100D000023685A1E2260002383F3118810BD00BFA0
:100D1000300A00203C0E0020400E0020A0590008A0
:100D200006480368002B04DB054A1168002900DD32
:100D300070470448044B1860FFF7BABD300A002022
:100D40003C0E0020A8590008400E0020AFF30080A0
:100D50000648036823B9064A1168002900DD704778
:100D60000448054B1860FFF7A3BD00BF300A002000
:100D70003C0E0020B0590008400E0020AFF3008068
:100D8000034A4021134643F8081B5360704700BFD5
:100D9000340A0020AFF30080AFF30080AFF300808F
:100DA00010B40D4A0D4C0E495368E468C9691C60C3
:100DB0005960846A03F110019C6090F8204002F5AC
:100DC000816081421C7328BF02F10803516028BF73
:100DD000536010BC704700BF340A0020440E00204E
:100DE000540E0020AFF30080AFF30080AFF300801B
:100DF000014B1860FFF75CBD400E0020AFF3008090
:100E0000044B4FF0FF3000225B601B609860DA609B
:100E1000704700BF440E0020AFF30080AFF30080A6
:100E2000F8B504460D4616461F46FFF779FFCCB1CC
:100E3000C6B1BDB10D4927610B68E6609A6895425D
:100E400004D91B68AD1A9A68AA42FAD35A688B4231
:100E50002360626014605C60A56002D09868451BE6
:100E60009D60F8BD0248FFF7C3FFE3E7440E002092
:100E7000C0590008AFF30080AFF30080AFF30080EB
:100E800010B50446FFF74CFF84B1E36893B12368C3
:100E90000A4A934203D09968A268881898606068EB
:100EA000002203602368E260586010BD0448FFF729
:100EB0009FFFEAE70348FFF79BFFE8E7440E0020A7
:100EC000D0590008E0590008AFF30080AFF300806C
:100ED000044B002014225B601B6098609A615B6188
:100EE0001B617047540E0020AFF30080AFF3008009
:100EF00010B590F8203004468BB10E2B0FD0002295
:100F0000094BA16884F820201B6898688842FBD2AE
:100F10005968236061600C605C60204610BD034826
:100F2000FFF766FFEBE700BF540E0020005A0008F1
:100F300090F820300D2B11D8DFE803F015101007C2
:100F4000100B101010101010100B816A8B685A1CB7
:100F50008A60416803680B60026851604FF0FF329D
:100F60008262FFF7C5BF7047AFF30080AFF3008028
:100F700070B5114C0646FFF7EBFEE569142085F8C5
:100F80002060236801211A6883F82010A061546052
:100F900028462260E361FFF703FFEA69ADF124030D
:100FA0009A4202D90548FFF723FFE0692946BDE8C8
:100FB0007040FFF70DBD00BF540E0020145A00080A
:100FC00070B50E4686B00546FFF7C2FEB6F1FF3F8C
:100FD00012D00C4C3146E3690B4A01A8FFF720FF01
:100FE0002846FFF7C5FF049B13B101A8FFF748FF90
:100FF000E069806A06B070BD2846FFF7B9FF014C72
:10100000F6E700BF540E0020310F0008AFF3008058
:1010100070B5154D04460E46FFF79AFEE869A268C2
:101020008368A6629A4215D9FFF762FF0123142252
:10103000064684F82030AA61EC61FFF7B1FEF06942
:10104000ADF1240188420AD820463146BDE87040FF
:10105000FFF7BEBC2046BDE87040FFF749BF03481C
:10106000FFF7C6FEF0E700BF540E0020145A000838
:1010700070B5104C01212368E5691A681420A0613D
:1010800083F82010546028462260E361FFF730FFA8
:101090002846FFF785FEEA69ADF124039A4202D99A
:1010A0000548FFF7A5FEE0692946BDE87040FFF757
:1010B0008FBC00BF540E0020145A0008AFF300800C
:1010C000F0B40022104C0125022380F8203080F873
:1010D000212080F82250656900F1300600F12C0CC7
:1010E00000F14C0704618160456141646061026404
:1010F000C263426282612861C0F82CC04663066305
:10110000C761F0BC704700BF540E0020AFF30080F1
:10111000884213D2C34300F8012BCB18884203F056
:1011200001030CD01BB100F8012B884208D0034604
:1011300003F8012B4270581C8842F8D17047704761
:10114000704700BFAFF30080AFF30080AFF30080C3
:10115000F8B504460D4616461F46FFF7E1FD0CB1F3
:10116000AF2D2BD81848FFF743FE243D6119E160ED
:101170006751069D15484D600023154A0227012539
:10118000086284F8207084F8225084F82130506975
:1011900004F1300104F12C0704F14C052261606177
:1011A000A6606664546123640461E3636362A361BF
:1011B000E76261632163E5612046F8BD7F2ED1D8E7
:1011C000002FD2D1CEE700BF305A0008E109000855
:1011D000540E0020AFF30080AFF30080AFF3008027
:1011E000F0B504460D461F4683B016464C302346E4
:1011F000FF211A4602F8011B5970531C8342F8D193
:101200006019834215D25521DA4303F8011B00EB24
:10121000020C83420CF001020BD01AB103F8011B3F
:10122000834206D01A4602F8011B5970531C8342B0
:10123000F8D1202383F31188FFF7B2FC2046089CE5
:101240003B46324629460094FFF782FF00210446C0
:10125000FFF7DEFEFFF7C4FC002383F3118820466E
:1012600003B0F0BDAFF30080AFF30080AFF30080B8
:1012700010B5044610B90948FFF7BAFD202383F3DF
:101280001188FFF78DFC21460620FFF799FEFFF736
:10129000A7FC002383F3118810BD00BF705A00081B
:1012A000114B70B5DC69254655F82C3FA062AB4266
:1012B00007D01A681846E262FFF71AFEE36AAB42EB
:1012C000F7D194F8210010F0030F04D1636922696B
:1012D0001A6121694B610E20FFF74AFE0348BDE801
:1012E0007040FFF785BD00BF540E0020805A0008F3
:1012F00010B52023044683F31188FFF751FC2046E4
:10130000BDE81040FFF7CCBFAFF30080AFF3008023
:1013100070B52023044683F31188FFF741FC94F84D
:101320002250002D21D0013DEDB284F82250FFF76C
:1013300057FC002383F311881DB994F820300E2B3D
:1013400000D070BD94F8210000F00303012B12D0EF
:10135000022BF6D163692169A06C196122692146CB
:101360005361BDE8704000F053BC0848FFF740FDF2
:1013700094F82250D7E76169236920460B612269FE
:101380005161BDE8704000F0ABBB00BFE45A0008FB
:101390002DE9F04182B00D4616461F4600F058FB7D
:1013A000044618B300F14C084146FF22FFF7B0FE97
:1013B000404661195522FFF7ABFE202383F31188C5
:1013C000FFF7EEFB2046089C32463B462946009438
:1013D000FFF7BEFE012380F8213000210446FFF70D
:1013E00017FEFFF7FDFB002383F31188204602B0B0
:1013F000BDE8F081AFF30080AFF30080AFF3008071
:1014000010B5202383F31188FFF7CAFB06490C6946
:1014100094F82200431C84F82230FFF7E1FB0023FC
:1014200083F31188204610BD540E0020AFF30080D6
:1014300038B50546202383F31188FFF7B1FB2C69EB
:101440000D4B9C4216D094F82230FF2B0CD0581C28
:1014500084F82200FFF7C4FB002383F31188284699
:10146000FFF756FF204638BD0448FFF7C1FC94F84B
:101470002230ECE70024EDE7540E0020205B00084A
:1014800010B5044620B1002364602460A36010BD41
:101490000348FFF7ADFC002364602460A36010BD27
:1014A000405B0008AFF30080AFF30080AFF3008033
:1014B0003B4B2DE9F0410546DC69FFF749FC002D67
:1014C0006AD0A868002836D0A2688168914208D204
:1014D00090F820308260042B46D0052B31D0002BB1
:1014E0001ED02B461B689D4203D09868A168884295
:1014F000F8D25A682360626004205C601460A562C0
:10150000FFF736FDAB68A34202D02648FFF770FC18
:10151000206CA84213D02448BDE8F041FFF768BC16
:101520004368026801211A60026880F82010536045
:10153000FFF7DEFCD5E7216CAC60E9602564BDE80F
:10154000F08141680768866A0F60076833467960F2
:101550001B689E4202D099689142F9D25A68036092
:10156000426010605860BCE741680768866A0F6097
:101570000768334679601B689E4202D099689142A1
:10158000F9D25A680360426010605860B068A2687F
:10159000836893429CD3A4E70448FFF729FC90E7B3
:1015A000540E0020605B0008745B0008505B00086C
:1015B00010B52023044683F31188FFF7F1FA204683
:1015C000FFF776FFFFF70CFB002383F3118810BDB4
:1015D000214A70B52023D56983F31188FFF7E0FA1B
:1015E0002C6C002C33D0A368AB4203D01B48FFF710
:1015F000FFFB2C6C2368E268A3422A641ED0686C4F
:101600004AB11168914203D08968884238BF0846C0
:10161000D268002AF5D11A681E6CA86000212260E9
:1016200018465460A360E6601C64FFF7F1FCFFF706
:10163000D7FA002383F31188204670BD0020A060F4
:10164000FFF7CEFA002383F31188204670BD0448CB
:10165000FFF7CEFB2C6CC6E7540E0020B05B0008F1
:101660009C5B0008AFF30080AFF30080AFF3008015
:1016700038B504460D46FFF753FBBCB1E26B94F856
:1016800020301543082BE5630CD0092B00D038BD62
:10169000A06A0540A842FAD12046FFF729FC0021A4
:1016A000816238BDA36A1D42F6D138BD0148FFF7FB
:1016B0009FFBE3E71C5C0008AFF30080AFF3008002
:1016C00070B505460E46FFF72BFB65B12C68AC42A2
:1016D00008D0A168606846EA0101FFF7C9FF2468E5
:1016E000AC42F6D170BD0248FFF782FBEEE700BFC7
:1016F000405C0008AFF30080AFF30080AFF30080E0
:1017000010B4034619B94FF0FF3010BC7047064CB7
:101710000D20E26993625C68136054605A60226035
:1017200010BCFFF74DBC00BF540E0020AFF300808B
:1017300010B48A18002440600060846041618161B7
:10174000C1600261C36110BC704700BFAFF300808D
:10175000F8B504460D46202383F31188FFF720FADD
:10176000E3690BB120469847A6682046294656B93A
:10177000FFF7C6FF071EF7DAFFF732FA334683F3A7
:1017800011883846F8BDA369013EA66013F8017BB5
:101790002269A361934224BFE368A361FFF720FAA3
:1017A000002383F311883846F8BD00BFAFF30080F3
:1017B0002DE9F0470446904689461D46C769002A30
:1017C00037D0202383F31188FFF7EAF900260FB101
:1017D0002046B847D4F808A020462946BAF1000FA1
:1017E0000BD1FFF78DFF0028F4D0FFF7F9F953462E
:1017F00083F311883046BDE8F087A3690AF1FF3111
:10180000A16013F8010B09F806002269A361934255
:1018100024BFE368A361FFF7E3F9002383F3118892
:1018200001364645E6D0202383F31188FFF7B8F947
:10183000CDE70248FFF7DCFAC3E700BF805C000891
:1018400010B48C1840600060826041618161C160A9
:101850000461C36110BC7047AFF30080AFF3008038
:101860002DE9F041202304460D46164683F31188E6
:10187000FFF796F9A7682046314667B9FFF740FFA2
:10188000B0F10008F6DAFFF7ABF93B4683F31188B5
:101890004046BDE8F0816369013FA76003F8015B42
:1018A00022696361934224BFE3686361E3690BB11A
:1018B00020469847FFF794F9002383F31188984650
:1018C0004046BDE8F08100BFAFF30080AFF3008079
:1018D0002DE9F047044615460E469946D0F81C807F
:1018E000002A40D0202383F31188FFF759F90027FD
:1018F000D4F808A020460AF1FF33BAF1000F24D033
:10190000A3603178636903F8011B22696361934224
:1019100024BFE3686361B8F1000F00D0C047FFF750
:101920005FF9002383F311880137013D18D0013698
:10193000202383F31188FFF733F9D4F808A0204659
:101940000AF1FF33BAF1000FDAD120464946FFF71A
:10195000D7FE0028CCD0FFF743F9534683F3118814
:101960003846BDE8F0870248FFF742FABAE700BF01
:10197000945C0008AFF30080AFF30080AFF3008009
:10198000054B064A064823F00701064B116020F07C
:1019900007021A60704700BF3F180020780E002031
:1019A00000500020740E0020AFF30080AFF30080E1
:1019B00010B50446FFF7B4F9074A084913680968E7
:1019C000E01D20F00700C91A884203D818181060DB
:1019D000184610BD002010BD780E0020740E0020A7
:1019E00010B52023044683F31188FFF7D9F8204669
:1019F000FFF7DEFF0446FFF7F3F8002383F31188B7
:101A0000204610BDAFF30080AFF30080AFF300803D
:101A1000024A034910680B68C01A7047740E002010
:101A2000780E0020AFF30080AFF30080AFF30080AA
:101A3000044B0549002203F1100019609A60DA6036
:101A4000FFF71EBD800E0020E1190008AFF30080F3
:101A5000F8B5204E0731002818BF064606F11000E1
:101A600021F0070506F10804FFF7A2FD00E01C467F
:101A70002368F3B15A689542F9D805F108018A4202
:101A800014D36FF00707D3F800E0C5EB070C0CEB9D
:101A900002005F1843F801E0786027605D601C4633
:101AA00044F8086BFFF794FD2046F8BD1A682260E1
:101AB000F5E7FFF78DFD3468002CF5D005F108003F
:101AC000A04720B10660456000F10804ECE7044639
:101AD000EAE700BF800E0020AFF30080AFF3008084
:101AE0002DE9F041074600284BD057F8086CA7F1C4
:101AF000080506F11000FFF75BFD08363446AC42DE
:101B000004D86068083023189D4220D3B44204D022
:101B1000AC4202D323681C46F1E723680BB19D4217
:101B2000F9D26A6847F8083C256002F1080357F8C3
:101B3000080CE91881420ED0636803F1080E04EB2B
:101B40000E0CAC4515D0BDE8F041FFF741BD0F4884
:101B5000FFF74EF9DAE74968EB58521808326A6025
:101B600047F8083C636803F1080E04EB0E0CAC4523
:101B7000E9D16A6857F8080C9B1808336360206045
:101B8000E1E70348FFF734F9AFE700BFD05C000896
:101B9000C05C0008AFF30080AFF30080AFF30080BB
:101BA00038B50E4C0D46002818BF044604F110004D
:101BB000FFF7FEFCA3686BB10022144659681B684E
:101BC00052180134002BF9D105B12A60FFF700FD4E
:101BD000204638BD1A461C46F6E700BF800E00209E
:101BE00038B504460D46FFF79BF81CB115B115F04A
:101BF000070F02D00348FFF7FBF823682B6025602E
:101C000038BD00BF145D0008AFF30080AFF3008063
:101C100038B505460C46202383F31188FEF7C0FF34
:101C200028462146FFF7DCFFFEF7DAFF002383F3A7
:101C3000118838BDAFF30080AFF30080AFF30080B0
:101C400010B500F0A5FF00F023FC064801F0A8FD48
:101C500000F00EF800F024F900F01AFDBDE8104085
:101C600002F0FEB940620008AFF30080AFF30080DD
:101C700001F056BAAFF30080AFF30080AFF30080FD
:101C800001210023017043600C30FFF7F9BB00BF56
:101C900038B504460D46D8B1D1B12378581EC2B22A
:101CA000012A04D9052B02D00B48FFF7A1F8202305
:101CB00083F31188FEF774FF2046656001F048FA4F
:101CC00002232370FEF78CFF002383F3118838BDB5
:101CD0000248FFF78DF8E0E7405D0008305D00083E
:101CE0002DE9F04784B00446884691461D46DDF84C
:101CF00030A00D9E0E9F08B100292AD11C48FFF785
:101D000077F82378022B02D01A48FFF771F82023C6
:101D100083F31188FEF744FF00210320A1602070A7
:101D20002B46204641464A46CDF800A00196029730
:101D300001F006FCB0F1FF3F054615D002232370E9
:101D4000FEF74EFF002383F31188284604B0BDE858
:101D5000F087002BD2D0002AD0D016B1BAF1000FF4
:101D6000CCD0002FCDD1C9E705222270E8E700BF13
:101D7000805D0008A05D0008AFF30080AFF3008035
:101D80002DE9F04182B004460F4690461D46089E5C
:101D900008B1002927D11948FFF72AF82378022B28
:101DA00002D01748FFF724F8202383F31188FEF7A9
:101DB000F7FE00210420A16020702B462046394602
:101DC0004246009601F02CFBB0F1FF3F054611D0D2
:101DD00002232370FEF704FF002383F311882846B3
:101DE00002B0BDE8F081002BD5D0002AD3D0002E60
:101DF000D4D1D0E705222270ECE700BFC05D000817
:101E0000DC5D0008AFF30080AFF30080AFF300802B
:101E1000F0B51D4687B004460F461646202383F3CF
:101E20001188FEF7BDFE0023A36023702B460C9D96
:101E3000204600950D9D394601950E9D324602952E
:101E40000F9D0395109D049501F012FCB0F1FF3F2A
:101E5000054609D002212170FEF7C2FE002383F35C
:101E60001188284607B0F0BD05202070F4E700BFB8
:101E700010B590F84210044680F84A1001F0B0FD09
:101E800063681B6813B12046012198470320207026
:101E900010BD00BFAFF30080AFF30080AFF3008050
:101EA00001F06EBDAFF30080AFF30080AFF30080B0
:101EB000002301220270436083608381C3817047E5
:101EC00070B504460D4610B309B3202383F311887F
:101ED000FEF766FE2178481EC3B2012B02D90E48D8
:101EE000FEF786FF00262046656026616661A661D2
:101EF000E66126626662A662E66201F049FD0222A0
:101F00002270FEF76DFE334683F3118870BD0348DF
:101F1000FEF76EFFD9E700BF505E0008405E000884
:101F20002DE9F04104460D461646FEF7F9FE002C59
:101F30002AD0002E28D02378042B02D01448FEF794
:101F400057FF2F1D54F8270010B11248FEF750FF1D
:101F5000316811F010030FD1726994464CF8043BBC
:101F60005360CCF80430B069014641F8043B0A1DC7
:101F7000436042F8043B13602046294644F827603A
:101F8000BDE8F04101F03CBD0348FEF731FFD2E768
:101F9000945E0008B05E00087C5E0008AFF300802D
:101FA00070B504460E46FEF7BBFE9CB1E38953FABA
:101FB00006F515F0010501D0012070BD012010FAD1
:101FC00006F242EA03032046E381314601F0D0FFE6
:101FD000284670BD0148FEF70BFFE7E7045F0008E5
:101FE00070B504460E46FEF79BFE9CB1A38953FADA
:101FF00006F515F0010501D0012070BD012010FA91
:1020000006F242EA03032046A381314601F0C0FFF5
:10201000284670BD0148FEF7EBFEE7E71C5F0008AD
:1020200010B4002202240470A0F8482080F84A204E
:1020300080F84B208281C281026142618261C2616B
:10204000026242628262C26280F8302010BC01F0FB
:1020500057BD00BFAFF30080AFF30080AFF3008047
:1020600000222DE9F041044680F8302000F14002C2
:1020700001F086FD63689B68002B1FD020469847BF
:10208000E0B1A56B94F84030B4F84600A8423CBFDC
:10209000A063054613F0800F7BD1002D6AD1042088
:1020A00084F83000294620462A462B4601F050FF8E
:1020B00020462946BDE8F04101F06ABF94F840305F
:1020C00013F060061A4612D00021204601F080FF6E
:1020D0002046002101F06CFF6268136813B12046AE
:1020E00005219847052384F83030BDE8F08194F845
:1020F000417003F07F0141EA0727B7F5407F00F008
:10210000A98016DDB7F5C06F00F0CE8060DDB7F5B1
:10211000106F00F0B68040F6024C67456BD0B7F503
:10212000006FD1D1012504F14B006063A563E66324
:10213000AAE7022F77D059DDB7F5807F62D0B7F5D7
:10214000817FC1D194F842000028BDD194F8443079
:1021500013F00F0108D013F0800F40F0E08020460C
:1021600001F046FF94F8402000256563A563E56310
:10217000134689E70323002184F830302046626B40
:102180002B4601F0CDFE20460021BDE8F04101F0D4
:10219000EFBE75B10122002184F830202046626B29
:1021A0002B4601F0D5FE20460021BDE8F04101F0AC
:1021B000EFBE022184F83010204629462A462B46DD
:1021C00001F0AEFE20462946BDE8F04101F0D0BE48
:1021D00040F2023087427CD0B7F5A06F7FF474AF35
:1021E000554D6663E563A66335464DE7002F41D044
:1021F000012F7FF469AF5149022500226163A56375
:10220000E26341E794F842E0BEF1010F7FF45CAF76
:10221000B4F84810666321F00205A4F84850A6639C
:10222000E663354630E794F8441011F0800F67D12B
:10223000204601F00F0101F083FC012867D002283D
:102240007FF442AF3E4BA0636363E66394F8403093
:10225000054619E794F8420001287FF435AFB4F839
:102260004820666342F0020CA4F848C0A663E66307
:10227000354609E7022504F148026263A563E76376
:1022800002E794F8425084F84B50002D35D10323D7
:10229000237060680368002B3FF466AF204602217C
:1022A000984794F840205FE7636820465D6894F89B
:1022B000431094F84220B4F84430A84700283FF473
:1022C00003AF4168056894F840306163A563E66335
:1022D000DAE694F8421000297FF4F6AE94F8443020
:1022E00013F00F013FF440AF13F0800F1DD12046D3
:1022F00001F05EFE94F8402036E704212170C8E723
:10230000204601F00F0101F02BFC012897D10D4D63
:10231000A7636563E66394F840303D46B4E6204623
:1023200001F07EFE94F840201EE7204601F050FEAA
:1023300094F8402018E700BF711E0008205E0008D6
:10234000305E0008705F0008AFF30080AFF30080DC
:1023500090F8303070B5012B044619D0042B10D002
:10236000002101F035FE0021204601F021FE6168C8
:102370000B6813B1204605219847052284F83020C8
:1023800070BDC36B03B19847002384F8303070BD33
:10239000836BB0F846209A4206D90269118AB3FBD2
:1023A000F1F501FB153575B1002102200A460B46F7
:1023B00084F83000204601F0B3FD20460021BDE83E
:1023C000704001F0D5BD29462A462B4601F0C0FDDC
:1023D00020462946BDE8704001F0DABDAFF3008029
:1023E00090F8303070B5022B044621D0032B11D069
:1023F0000021204601F0ECFD2046002101F0D8FD2F
:1024000063681B6813B1204605219847052184F8AD
:10241000301070BD002104250A460B4680F830506C
:1024200001F096FD20460021BDE8704001F0B0BDEE
:1024300002699169CB68002BDAD1C36B03B198476D
:10244000002084F8300070BDAFF30080AFF300804F
:1024500001494B6883607047001000E0AFF30080D3
:10246000084B09495A6883680968D31AC2685B1A1D
:102470009342836004D80269934238BF0361704776
:10248000C3607047001000E0A00E0020AFF3008092
:1024900010B50B4A86B00B490B4C002301A80192E2
:1024A0004FF0FF3223600393049302910592FFF7EC
:1024B000CFFF01A802998847039B236006B010BD97
:1024C0005124000861240008A00E0020AFF3008012
:1024D000806BD0F1010038BF00207047AFF300805F
:1024E0008069D0F1010038BF00207047AFF3008051
:1024F00070B52023044683F311880026FEF750FBB5
:10250000A568A660FEF76CFB334683F31188284666
:1025100070BD00BFAFF30080AFF30080AFF3008069
:102520002DE9F0418469D4F8D000D4F840800368E4
:10253000E76B9D89A66B15F0020501D0BDE8F0811F
:10254000FEF74EFB2B4683F31188D4F8D010C7EB6F
:102550000807BB1B0868E26B012101F079FB20230F
:1025600083F31188FEF71CFBD4F8D000012100682A
:10257000FFF736FDA268201D42F00806A660294636
:102580002646FFF79DF8E16B236C56F8300F5A1A78
:10259000B0426164A263D1D0036823635E60FEF73A
:1025A000A7FC8562206BB042F6D1BDE8F08100BF88
:1025B000F8B54469D4F8D0100868C38913F0080F3F
:1025C00001D1A56905B1F8BDFEF70AFB2B4683F3DF
:1025D0001188D4F8D060402303213068E26901F00B
:1025E000F7FA2023064683F31188FEF7D9FAD4F8C8
:1025F000D00003210068FFF7D3FCA368201D43F03F
:102600000407A76029462746FFF75AF857F8100F26
:10261000E269B842A262A661D5D0016821614F602B
:10262000FEF766FC85622069B842F6D1F8BD00BFAE
:102630001030FFF7BDB800BFAFF30080AFF30080EC
:1026400010304FF0FF33FFF7B3B800BFAFF3008097
:102650003030FFF73DB900BFAFF30080AFF300802B
:1026600030304FF0FF33FFF733B900BFAFF30080D6
:102670001030FFF76DB800BFAFF30080AFF30080FC
:102680003030FFF7EDB800BFAFF30080AFF300804C
:10269000704700BFAFF30080AFF30080AFF300805E
:1026A00038B50E4B0546044645F8043B65600025E9
:1026B000A5600125103004F150014022084B25731C
:1026C000FFF736F804F1300004F190014022054B89
:1026D000FFF7B6F86462A46438BD00BFC05F0008AD
:1026E000B125000821250008AFF30080AFF300807A
:1026F00070B504460D46F0B1202383F31188FEF730
:102700004FFA217B481EC3B2012B02D90C48FEF7B9
:102710006FFB2B680222C4F8D0509C602273FEF736
:102720005FFA002383F31188294651F8040BBDE8B2
:102730007040FFF7C5BB0348FEF75AFBDCE700BF5C
:10274000905F0008805F0008AFF30080AFF3008067
:1027500090F8401001F06003202B01D0002070475A
:1027600090F84130212B0BD0222B03D0202B07D007
:1027700000207047002242638263C26301207047D9
:1027800003490723002241638363C263012070472A
:10279000F8080020AFF30080AFF30080AFF30080B3
:1027A000F8B5846805460E46202383F31188FEF7AA
:1027B00037FA206CE26BA36B871AFF1A05D1FEF77C
:1027C0004FFA002383F31188F8BDFEF749FA00237E
:1027D00083F311883B4628463146E26B01F038FA14
:1027E000202383F31188FEF71BFA28463146FFF7B2
:1027F000F7FBA168201D41F00805A56000212546D2
:10280000FEF75EFFE36B226C55F8300FD11AA84239
:102810006364A163D3D00026036823635D60FEF781
:1028200067FB8662206B8542F6D1FEF719FA00231A
:1028300083F31188F8BD00BFAFF30080AFF30080D1
:102840002DE9F0412023846806460F4683F3118862
:10285000FEF7E6F9A56935B1FEF702FA002383F326
:102860001188BDE8F081FEF7FBF92B4683F3118850
:10287000402330463946E26901F0AAF92023804618
:1028800083F31188FEF7CCF930463946FFF788FB11
:10289000A268201D42F00401A16026462946FEF7E9
:1028A0000FFF56F8100FE369B042A362C4F8188016
:1028B000D2D0036823615E60FEF71AFB856220694F
:1028C000B042F6D1FEF7CCF9002383F31188BDE8BE
:1028D000F08100BFAFF30080AFF30080AFF3008062
:1028E000704700BFAFF30080AFF30080AFF300800C
:1028F00010B5FEF7D5F90848084A03680F24116897
:10290000546013B1406821409847FEF7E9F9BDE8EB
:102910001040FEF70DB800BFA40E002000000240DA
:1029200010B5FEF7BDF90848084A8368F02411681D
:1029300054601BB1C068C1F303119847FEF7D0F98A
:10294000BDE81040FDF7F4BFA40E002000000240D7
:1029500010B5FEF7A5F90948094A03694FF47064F8
:10296000116854601BB14069C1F303219847FEF719
:10297000B7F9BDE81040FDF7DBBF00BFA40E002093
:1029800000000240AFF30080AFF30080AFF300809F
:1029900010B5FEF785F90948094A83694FF4704478
:1029A000116854601BB1C069C1F303319847FEF749
:1029B00097F9BDE81040FDF7BBBF00BFA40E002093
:1029C00000000240AFF30080AFF30080AFF300805F
:1029D00010B5FEF765F90948094A036A4FF47024F7
:1029E000116854601BB1406AC1F303419847FEF778
:1029F00077F9BDE81040FDF79BBF00BFA40E002093
:102A000000000240AFF30080AFF30080AFF300801E
:102A100010B5FEF745F90948094A836A4FF4700476
:102A2000116854601BB1C06AC1F303519847FEF7A7
:102A300057F9BDE81040FDF77BBF00BFA40E002092
:102A400000000240AFF30080AFF30080AFF30080DE
:102A500010B5FEF725F90948094A036B4FF0706479
:102A6000116854601BB1406BC1F303619847FEF7D6
:102A700037F9BDE81040FDF75BBF00BFA40E002092
:102A800000000240AFF30080AFF30080AFF300809E
:102A9000124BF0B4D3F800C0DF689E695D6A1C6B0E
:102AA000D86B996C0023CCF800300D4ADFF838C0A1
:102AB0003B601360336093602B601361236093610C
:102AC0000360136293621363CCF800300B60054B14
:102AD0004FF0FF325A60F0BC704700BF3060000812
:102AE000A40E002000000240DC0E0020AFF30080A6
:102AF000F0B5044685B0002833D0667A012505FA82
:102B000006FC1D4F38681CEA000F26D11B4D4CEA0D
:102B1000000010F07F0F05EBC60C45F83620CCF80E
:102B20000430386004D0164B5F6947F001065E61DF
:102B3000236860681F6827F001051D60267A0F274B
:102B400017FA06F6002506601D6042B1A07A090159
:102B5000FDF756FF284605B0F0BD2846FBE71046B6
:102B6000F9E70848039102920193FEF741F9019BAE
:102B7000029A0399C1E700BFDC0E0020A40E0020DA
:102B800000100240F05F0008AFF30080AFF3008058
:102B9000224B00224FF0FF3030B421491C6900F570
:102BA0000C3C18611A61DD68D8600CF52070DA60A1
:102BB0001C4C486007208A600860E1681A4841F0B0
:102BC0008071E1600468194944F001040460D86927
:102BD00040F08050D861D86940F00060D861086842
:102BE00040F480700860186A00F44071B1F5407FCD
:102BF00003D04FF4803119621A62084B1A6A12F43A
:102C0000004F07D1186A40F440721A62196A41F401
:102C10000040186230BCFFF73BBF00BF001002400D
:102C200010E000E0F0ED00E0001000E00070004077
:102C30001F4B1868194640F001021A600B681C4AC5
:102C400013F0020FFAD01368002003F0F9011160AD
:102C5000114650604868164A10F00C0FFAD11068FF
:102C6000114640F4803313600B68114A13F4003F9F
:102C7000FAD05368114643F4E8105060136843F0EB
:102C80008070106008680A4A10F0007FFAD0094886
:102C9000094B1221506019605068114640F0020340
:102CA00053604A6802F00C0CBCF1080FF9D1704770
:102CB0000010024000641D0000200240AFF30080BD
:102CC000C26A036B30B40021146848F200051D800D
:102CD00019809980998223680F2123F001032360D2
:102CE000147A836A11FA04F450681A68046014684C
:102CF000586824F0010414601B7A9940016030BCCC
:102D0000704700BFAFF30080AFF30080AFF30080E7
:102D100070B5C46905465CB1FFF7D2FF0020E861D9
:102D20004FF0FF332046A362BDE87040FEF7E0B8E5
:102D300070BD00BFAFF30080AFF30080AFF3008041
:102D400011F0080F38B50546046B01D0FDF7B0FD52
:102D5000EB6A1A685968106820F0010010601B7A4D
:102D60000F2010FA03F20A60A18888B240F40073C1
:102D7000A38038BDAFF30080AFF30080AFF30080D5
:102D800011F0080F70B50446056B36D1A66A32689B
:102D90007168106820F001031360307A0F2212FA74
:102DA00000F30B6094F8346006B170BDB5F804E030
:102DB00020232EF480510804020CAA80B5F800C02C
:102DC0002CF480610804020C2A8029881FFA81FEF5
:102DD0004EF4007CA5F800C083F31188FDF720FFB6
:102DE000E36923B1E66118469E62FEF781F8FDF7BC
:102DF00037FF002383F3118870BDFDF759FDC5E748
:102E00002DE9F041684CFDF74BFF256B94F8343009
:102E10002A8BAE8AB6B2C3B946EA0242634B22F0AD
:102E20007F429A4274D05CD8581E824203D1B4F8D3
:102E300020C0A5F810C016F00A0F00D02B8BFDF7AC
:102E40004FFFBDE8F041FDF773BD16F00A0F05D046
:102E5000AE8A00232A8BB6B22364236516F0800F56
:102E60000ED0206DA26C216C12F800E0E26C431CC5
:102E70009142A5F810E0236502D34B4B0021196560
:102E800016F0400F0DD0226CB5F810C0A16B531C8A
:102E900001F802C0E06B2364834202D3424B00205E
:102EA000186416F0100F0CD0AE8A2988636C1FFAD4
:102EB00081FC4CF0010EB6B2A5F800E00BB13A4827
:102EC000984716F4806FBAD0B5F814E0636D2EF40D
:102ED00080610804020CAA82002BB0D032489847C7
:102EE000ADE7334B9A4232D0991C8A42A3D1A26AF1
:102EF00017687F68002F38D02B88B4F820C098B2AC
:102F00004CF0010140F4A06E2184A5F800E096E7A2
:102F1000B5F804C0A26A2CF4007003041268190CFE
:102F2000A980106840F001031360A98888B240F4BA
:102F3000805EA5F804E05368012B3FF67CAFB5F83E
:102F400000E02EF480621304190C298073E7B5F8B1
:102F500004C0E06A2CF40073190400680A0CAA800B
:102F6000036843F00101016065E7B5F804C0202360
:102F70002CF400710A04100CA88029881FFA81FE25
:102F80004EF400722A8083F31188FDF749FEE06950
:102F900018B18762E761FDF7ABFFFDF761FE002323
:102FA00083F3118847E700BFE00E00200200030012
:102FB00082000700AFF30080AFF30080AFF3008022
:102FC0002DE9F041554DFDF76BFE2C6B202383F36B
:102FD0001188FDF725FEEA6AAB6A10685668076833
:102FE0000F2127F001070760107A1A6811FA00F024
:102FF00030601668586826F0010616601A7A91400B
:103000000160FDF72DFE002383F31188A38A13F4DA
:10301000807307D0B4F814C001232CF4807002042C
:10302000110CA182B4F814E01EF4007F08D0B4F8AB
:1030300014C043F002032CF400700204110CA182AE
:10304000B4F814E01EF4806F14D0B4F814E043F028
:1030500004032EF480600204110CA182B4F804C0B1
:103060002CF400700204110CA180208882B242F47A
:1030700000712180B4F814C01CF4006F08D0B4F8BB
:1030800014E043F008032EF400600204110CA18246
:10309000B4F814C01CF4805F08D0B4F814E043F016
:1030A00010032EF480500204110CA182B4F814C055
:1030B0001CF4804F08D0B4F814E043F020032EF441
:1030C00080400204110CA182A18A0FFA81FCBCF19C
:1030D000000F06DB5BB9FDF703FEBDE8F041FDF72D
:1030E00027BCA18A43F040034804420CA282AB6093
:1030F000202383F31188FDF793FDE86938B1074B6E
:103100006FF0010100228162DA61FDF7F1FEFDF747
:10311000A7FD002383F31188DDE700BFE00E002048
:1031200010B5074C2046FEF7ABFD064B0649A3F150
:103130000C020020E0612163A362E26210BD00BFC7
:10314000E00E00207860000800540040AFF30080DB
:1031500002788A23012A2DE9F04104464362056B77
:1031600000F0A1802F464FF09A089C466068E26A02
:10317000A66A13683168466805F11002C3F800803A
:1031800090F80880C1F800C000208A6048F2000C66
:103190004FF41061002E9A60A5F800C02880A98025
:1031A00052DD8B4B9E424FDCB7F804C02CF03F0041
:1031B00001040B0CBB80BA88864990B240F0240C05
:1031C0008E42A7F804C043DCB8F1010F02D0824858
:1031D000FDF70EFE8148760090FBF6F106FB01F844
:1031E0007E4BC8EB0302002A40F0A5807B4A92FB8D
:1031F000F6F6B6B2032E40F2948025214FEA065C23
:10320000B6F5805F39844FEA1C5802D37448FDF745
:10321000EFFD6268216B1278A7F81C80B1F800C03E
:10322000022A1FFA8CF32DD0032A70D0012A03D171
:1032300023F00A0003041B0C0B80288883B243F0A0
:1032400001012980BDE8F0816648FDF7D1FDABE7BB
:103250006548864224DCA8F10203DAB2012A75D956
:103260006248FDF7C5FD48F6FF7862680B20216BC8
:1032700038841278A7F81C80B1F800C0022A1FFA1F
:103280008CF3D1D143F002024FF6F77C02EA0C0333
:103290000B80288883B243F001012980BDE8F081CA
:1032A0004FF00008B5E7524EB0427FF45BAF514F8C
:1032B0004FF0000E3B69806A43F40018C7F8108095
:1032C0000A214D4A2346C7F810E0FFF711FC0028F9
:1032D00076D1F06A0A21494A454BFFF709FC0028DC
:1032E0006AD1444F1F20FB69A02143F40012FA6108
:1032F000FDF786FB2020A021FDF782FB706A376B6B
:1033000040F4805CC6F824C04CF010082EE743F06F
:103310000A030B80288883B243F001012980BDE8AD
:10332000F0813748FDF764FD4FEA065825234FEA40
:1033300018583B846DE73348FDF75AFD274A92FB46
:10334000F6F6B6B2032E3FF658AFEAE7B8F1020F31
:1033500016D1224A06EB460692FBF6FC06FB0CF859
:103360001E48C8EB000139B91C4890FBF6F6310540
:103370000B0D43F4004878E72348FDF739FDF3E7E8
:10338000B8F1030F20D106EB8606144906EB86063A
:1033900091FBF6FC06FB0CF8104BC8EB03023AB9A4
:1033A0000E4991FBF6F31A05100D40F440485CE716
:1033B0001648FDF71DFDF3E71548FDF719FD90E7E9
:1033C0001448FDF715FD84E748F6FF784DE700BF88
:1033D00000093D00A0860100D060000800512502D0
:1033E00060610008B8600008801A060018610008D3
:1033F000E00E002000100240812D0008412D000841
:1034000000610008E86000083061000848610008B9
:10341000A460000890600008AFF30080AFF3008064
:103420002DE9F043012B87B006461F46884691469A
:103430000E9D046B73D9B5F1FF3F05D001A8294655
:10344000394A3346FDF7ECFCFDF7CAFB002383F352
:103450001188B06A4FEA4808026848F00108A6F8E7
:103460002080B360C2F80C90576004E0FDF7B8FB11
:10347000002383F31188218B202311F0020F03D145
:10348000278817F400770CD083F31188FDF788FBA9
:10349000B5F1FF3FEAD0049B002BE7D14FF0FF309E
:1034A0001CE083F31188FDF77BFBB5F1FF3F18D1DA
:1034B00086F83470A3881D4D9AB242F40071A18041
:1034C0002088EB691FFA80FE4EF4A06CA4F800C0BF
:1034D0000220F361FDF74CFDE869806A07B0BDE8A2
:1034E000F083049A002AD9D086F83470A3880F4D4F
:1034F00099B241F40070A0802288EB691FFA82FE25
:103500004EF4A06CA4F800C00220F361FDF730FD7A
:1035100004990029E0D001A8FDF7B2FCDCE70448DB
:10352000FDF766FC87E700BF112D0008540E002050
:1035300078610008AFF30080AFF30080AFF3008044
:103540002DE9F04F87B0119F0646884691469A466E
:10355000DDF840B0129D046B27B1012F5DD9BBF19E
:10356000000F5AD0B5F1FF3F05D001A829463C4ACB
:103570003346FDF755FCFDF733FB002383F3118839
:10358000F26AB06A116802684FEA4808A6F820801B
:10359000B360C1F80C90C1F804A0C2F80CB0576039
:1035A00004E0FDF71DFB002383F31188B4F818C075
:1035B00020231CF0020F03D1278817F400770CD0CA
:1035C00083F31188FDF7ECFAB5F1FF3FE9D0049BD6
:1035D000002BE6D14FF0FF301CE083F31188FDF79C
:1035E000DFFAB5F1FF3F1CD186F83470A3881D4D7A
:1035F00099B241F4007CA4F804C02288EB6990B22F
:1036000040F4807EA4F800E00220F361FDF7B0FCF6
:10361000E869806A07B0BDE8F08F1348FDF7E8FB62
:10362000A0E704990029D5D086F83470A1880D4D03
:103630008AB242F40070A0802388E9691FFA83FCF3
:103640004CF4807EA4F800E00220F161FDF790FCCC
:10365000049A002ADCD001A8FDF712FCD8E700BFCD
:10366000112D0008540E00209C610008AFF300806B
:103670002DE9F04F464F87B0149DFC69B5F1FF3F2F
:10368000C4610646884691469A46046B05D001A857
:103690002946404A3346FDF7C3FBFDF7A1FA002354
:1036A00083F3118804E0FDF79BFA002383F311886C
:1036B000228B202312F0020F03D1208810F4007F08
:1036C0000ED083F31188FDF76BFAB5F1FF3FEAD016
:1036D000049B002BE7D14FF0FF3007B0BDE8F08F1F
:1036E00083F31188FDF75CFAB5F1FF3F49D1012062
:1036F00086F83400B4F800C0129B2CF48072736416
:1037000011041098119A139B4FF0000B090C4FEA0B
:103710004808A6F82080B064F2647365C6F808B063
:10372000C6F83890C6F83CA0C6F840B0C6F850B00D
:103730002180B4F804E008F0FE082EF400600204D2
:10374000130CA380A4F80880B4F804C0FB691FFA26
:103750008CF141F40070A0802288B5F1FF3F1FFA80
:1037600082FE4EF4806CA4F800C0F36107D0049888
:103770000028B2D001A8FDF783FB5846ADE75846B4
:10378000ABE704990029B2D14FF0FF30A5E700BFA5
:10379000540E0020112D0008AFF30080AFF300801D
:1037A000154B30B49A69154D42F07D049C61016857
:1037B000134CE960826813496A604368124A2B60BF
:1037C000C568124BE56045696560056925608469D7
:1037D000CC60046A4C60C4690C60416AD160C16A03
:1037E0005160816A1160026BDA60816B5960426BD3
:1037F0001A6030BC704700BF001002400008014052
:10380000000C01400010014000140140001801406C
:10381000032AF0B400F09A80042A08BF41614C4B9F
:1038200011F080079B5C40F088800F2411F4004564
:1038300040F089800F264A002401360139012D010C
:1038400012F0800F14BF194344F00F0412F4004F1C
:1038500014BF1D4346F00F06520024013601090132
:103860002D0112F0800F14BF194344F00F0412F41D
:10387000004F14BF1D4346F00F06520024013601CD
:1038800009012D0112F0800F14BF194344F00F04F9
:1038900012F4004F14BF1D4346F00F0652002401DE
:1038A000360109012D0112F0800F14BF194344F0B5
:1038B0000F0412F4004F14BF1D4346F00F065200D0
:1038C0002401360109012D0112F0800F14BF1943A4
:1038D00044F00F0412F4004F14BF1D4346F00F06CE
:1038E00052002401360109012D0112F0800F14BF8E
:1038F000194344F00F0412F4004F14BF1D4346F067
:103900000F0652002401360109012D0112F0800F2B
:1039100014BF194344F00F0412F4004F18BF1D43A5
:10392000436808BF46F00F061E40354345600268F5
:10393000144021430160F0BC7047002411F400459D
:103940001F463FF477AF1D46002674E7016166E726
:10395000C0610008AFF30080AFF30080AFF30080D8
:1039600010B5FDF79DF9FDF7BBF9BDE81040FCF778
:10397000DFBF00BFAFF30080AFF30080AFF3008084
:103980000148FEF795BA00BF380F0020AFF3008062
:10399000037870B5012B044600D070BD0C4A9042EC
:1039A00004D02046BDE87040FEF73ABB094A0A4DF4
:1039B000D669132046F40006D66160212B64FDF71A
:1039C0001FF81420E021FDF71BF800232B64E8E723
:1039D000380F002000100240005C0040AFF3008070
:1039E00090F84A00024B40F08002DA64704700BF52
:1039F000005C0040AFF30080AFF30080AFF30080C5
:103A00000A1D2DE9F04150F822400546226802F0D7
:103A10000303013B022B96BF36484FF4007330F886
:103A20001330A06808B143F02003E66866B112F0D5
:103A3000100F55D0012010FA01F2B5F80E8043F4B2
:103A4000405342EA0807EF8143EA010C2A4F2CF465
:103A5000F04626F0700047F8210047F6700857F846
:103A6000212003EA080C638A8CEA02063E2B47F801
:103A700021602BD95F1E47F01F06701C42116FEAB0
:103A8000C2676FEA57421C4ED5F84C80306DB4F8CF
:103A900010C000F1005707F5405606EBC1000CEBD3
:103AA000080647000021B6F5007FB980BA81EE64B0
:103AB00019D89B19B3F5007FC7F80080EB6402D9D1
:103AC0000E48FDF795F9BE60BDE8F0815A1E42F040
:103AD00001077E1C06EBD670420202F47C42D2E75C
:103AE00043F40053B0E70548FDF782F9638AEE6CB2
:103AF000DFE700BFE0610008005C004010620008E2
:103B0000416830B40A4BCD6800241C65A54214BF3F
:103B10004FF41E454FF41C455C6421468024DC6450
:103B20001D64044B4022C264036130BCFFF768BFD0
:103B3000005C004020620008AFF30080AFF300801B
:103B4000054B53F8210010F4405004D0B0F5805FCD
:103B50000CBF012002207047005C0040AFF30080E2
:103B6000054B53F8211001F03003102B9ABF034A84
:103B7000D05C0220704700BF005C0040F06100088C
:103B80000F4B10B41C6D134604F1005000F5405C5F
:103B90000CEBC1046100886800F1005C0CF5405436
:103BA00061008C465CF8044B888823F8024BBCF813
:103BB00008105080BCF8042099805A8010BC7047CF
:103BC000005C0040AFF30080AFF30080AFF30080F3
:103BD0001B48F0B4006D00F1005000F5405C0CEBA8
:103BE000C1014800816880898005800D834228BF1B
:103BF000034601335B0820D001F1005101F5405527
:103C000069005C1E51F8045B234622F8025B04F055
:103C1000010493B12CB151F8044B013B22F8024B43
:103C20000BD00D4655F8047B4E68144624F8027BF1
:103C3000291D5680A21C023BF3D1F0BC704700BF87
:103C4000005C0040AFF30080AFF30080AFF3008072
:103C5000184870B4046D04F1005000F5405C0CEBA2
:103C6000C104591C600049080468838020D004F115
:103C7000005C01390CF5405332F8020B5C000B4636
:103C800044F8040B01F0010193B129B132F8021B91
:103C9000013B44F8041B0BD0104630F8026B5588EA
:103CA000214641F8046B821C65600C1D023BF3D178
:103CB00070BC7047005C0040AFF30080AFF3008041
:103CC0002DE9F04F81B0FCF7EBFF904B5C6C14F4E6
:103CD000806F40F00C8114F4006F0ED08C488B4A3A
:103CE0004368116C1B6841F0080111640BB103219A
:103CF0009847864A6FF40060506414F4805F09D0DE
:103D0000824A916C11F4004F00F0E4807F4A6FF416
:103D10008050506414F4007F08D07D484368DB680D
:103D200003B1984779486FF40071416414F4004F6F
:103D300000F0A480DFF8D891744DCA4613E001204A
:103D400010FA04F1B9F80EE059F828302EEA010C07
:103D5000A9F80EC0DA686E48214690476C6C14F4DE
:103D6000004F00F08B8004F00F0455F8246004F13C
:103D7000040816F0800F59F828703AD055F824102E
:103D800021F4F04C2CF0F00345F824303A6812F09E
:103D9000100F7AD12B6D796903F1005202F5405E64
:103DA0000EEBC4004300B3F804C00A688868D1F879
:103DB00004E01FFA8CF3D218C018C3EB0E030A609C
:103DC00088604B60002B60D0B7F810E05FFA84FB8E
:103DD0004F485946734528BF7346FFF739FF55F8DA
:103DE0002B2022F4F04020F0400C8CF0300145F8FC
:103DF0002B1016F4004FB1D055F8241016F4006FB4
:103E000021F4784E2EF0700345F824304BD13868F9
:103E100010F0100F93D1BB69E6B25A6831469B6827
:103E20003B48FFF7D5FEBB6955F826E01A885F6866
:103E3000D968D3F808C02EF4904E2EF0700E013AD7
:103E40003F1809188EF4405EC0EB0C0092B245F8A2
:103E500026E05F60D96098601A80002A2AD055F861
:103E6000242022F4904121F0700C8CF4405045F84D
:103E700024006C6C14F4004F7FF475AFFCF730FF36
:103E800001B0BDE8F04FFCF753BD012212FA04F077
:103E9000BAF80CC0BB682CEA0001AAF80C101C4848
:103EA00021469847A5E759F8283019485A6821460D
:103EB000904753E7012111FA04F0BAF80EC05AF8FE
:103EC00028302CEA000EAAF80EE0DC6810483146D3
:103ED000A04743E70E48116C436821F008011B68B6
:103EE0001164002B3FF412AF042198470EE7084DF0
:103EF0002846FEF795F86868036813B12846002144
:103F0000984702496FF480624A64E4E6005C00402E
:103F1000380F0020AFF30080AFF30080AFF30080D4
:103F2000043150F821108869426000228360C26029
:103F30003BB14A8A511EC918B1FBF2FCA0F800C07F
:103F40007047012303807047AFF30080AFF3008018
:103F500070B40D1D50F8254000266569248A6B60F9
:103F6000A34228BF23462A60AE6070BCFFF770BE34
:103F7000054B53F8212022F4904C2CF0700080F473
:103F8000405243F821207047005C0040AFF30080AE
:103F9000054B53F8212022F4F04C2CF0400080F027
:103FA000300243F821207047005C0040AFF30080EE
:103FB000054B53F8212022F4904C2CF0700080F433
:103FC000805243F821207047005C0040AFF300802E
:103FD000054B53F8212022F4F04C2CF0400080F0E7
:103FE000100243F821207047005C0040AFF30080CE
:103FF000094B53F8210000F44052B2F5405F09D05C
:1040000053F8212022F4F04020F0400C8CF40052B0
:1040100043F82120704700BF005C0040AFF30080F0
:10402000084B53F8210000F03002302A09D053F831
:10403000212022F4F04020F0400C8CF0200243F8C4
:1040400021207047005C0040AFF30080AFF3008098
:10405000FEF7EEBDAFF30080AFF30080AFF300805A
:10406000704700BFAFF30080AFF30080AFF3008074
:10407000002903DD0449054A00F06ABA044B0549EA
:10408000DA6800F065BA00BF806200088C62000840
:10409000440E002094620008AFF30080AFF300806C
:1040A00010B5002982B0044606DD1949194A02B04C
:1040B000BDE8104000F04CBA1749184A00F048FA21
:1040C00020461749174A00F043FA20461649174A76
:1040D00000F03EFA20461649164A00F039FA20460A
:1040E0001549164A00F034FA20461549154A00F0E1
:1040F0002FFA20461449154A00F02AFA2046144C9B
:104100001449154A154B009400F022FA02B010BD74
:10411000806200089C620008A4620008B86200087F
:10412000C0620008D4620008E0620008F46200087F
:10413000FC620008106300081C630008306300087C
:10414000486300085C630008846300089863000803
:10415000D4630008AC630008C4630008D06300089F
:104160000A6838B5054642B10C462846034900F0B6
:10417000EFF954F8082F002AF7D138BDE0630008A2
:104180002DE9F041054600680C4616469846A8B150
:104190002F4602E057F8080F68B13146FBF7B0FF31
:1041A00005460028F6D120467E684146069AB0476B
:1041B0002846BDE8F0810120BDE8F0810120BDE87E
:1041C000F08100BFAFF30080AFF30080AFF3008059
:1041D00038B504460D46A8B108600D492046FCF7E5
:1041E0003FF8241820462021FBF7B2FF286018B1C1
:1041F000002300F8013B28602078002814BF2046E7
:10420000002038BD0C68002CE7D1204638BD00BF27
:1042100030580008AFF30080AFF30080AFF30080A8
:10422000014B1B60704700BF980F0020AFF3008068
:1042300000B583B00090034B0020FDF7A9F803B050
:1042400000BD00BF01430008AFF30080AFF3008062
:10425000013A2DE9F843884605460F4601EB02096D
:10426000296828464B694FF0FF31984704B2002C6B
:1042700006462CDB042C2DD0082C0FD00D2C30D072
:104280001F2CEDDD4F45EBD2296828460C694FF015
:10429000FF32F1B2A04707F8016BE1E74745DFD0F5
:1042A0002B6821461E694FF0FF322846B047286828
:1042B000202103694FF0FF32284698472A68284694
:1042C000166921464FF0FF32B047013FC8E7012091
:1042D000BDE8F8832846074900F03AF90120BDE817
:1042E000F8832846044900F033F900203870BDE80F
:1042F000F88300BFE4630008F0680008AFF30080B3
:104300002DE9F04365490468CB69654AD0F804801B
:1043100099B020469A61634900F01AF94FF00009FC
:104320002046614900F014F9204602A94022FFF717
:104330008FFF064600283BD117A902A8FFF748FFC8
:1043400017A905463046FFF743FF0346002843D030
:10435000304617A91293FFF73BFF034600285ED0B3
:10436000304617A91393FFF733FF0346002858D0B0
:10437000304617A91493FFF72BFF0346002852D0AD
:10438000304617A91593FFF723FF00284DD020468C
:10439000464900F0DDF820464349169600F0D8F86B
:1043A000204602A94022FFF753FF06460028C3D04B
:1043B00020463F4900F0CCF8202383F31188FCF716
:1043C000EFFB00213B48FDF77BF90020FCF768FF7D
:1043D000002019B0BDE8F08306460DF1600C0CEB2F
:1043E000860040F8189C002D9AD028463249FBF7E9
:1043F00087FE38B9002EDFD0204630492E4A00F023
:10440000A7F88DE728462E49FBF77AFE78B9002EEB
:1044100030D0204629492A4A00F09AF880E7012640
:10442000DBE70226D9E70326D7E70426D5E712AF54
:10443000244821462A4633460097FFF7A1FE00286C
:104440003FF46EAFB8F1000F0AD03346404612AECB
:1044500021462A460096FFF793FE00283FF460AFFE
:10446000204619492A4600F073F82046174900F003
:104470006FF855E71649204600F06AF820461149C2
:10448000FFF76EFEB8F1000F03D020464146FFF75C
:1044900067FE20460F4900F05BF841E7540E00200C
:1044A000E8630008F0630008086400081C64000862
:1044B00010640008980F002034640008806200082F
:1044C0003C640008000900205C6400086064000887
:1044D00044640008F0680008AFF30080AFF3008088
:1044E00070B400F10B0600F10A04B1FBF2F502FB17
:1044F000151101F13003392BC8BF01F137032946EB
:10450000254604F801390029EFD10446C5EB060C15
:10451000E2436044121812F0010F29460AD004F851
:10452000013B11F8013F05E011F8013F637011F8FC
:10453000013F541C224602F8013B8242F4D170BC78
:10454000704700BFAFF30080AFF30080AFF300808F
:104550000EB42DE9F04F84B00DAB53F8044BDFF8E7
:1045600090B305460393217859B1013425290DD024
:104570002A68284613694FF0FF32984721780029AE
:10458000F3D104B0BDE8F04F03B0704723782D2B72
:1045900000F0868100262E2B06BF14F8013F4FF055
:1045A00030084FF020080398611C4FF0000A07E024
:1045B000027804300AEB8A0A11F8013B02EB4A0A3E
:1045C000A3F13004E2B2092A0C46F3D92A2BEFD02A
:1045D0002E2B039000F050814FF0000C6C2B00F05C
:1045E00045814C2B00F04281A3F14100C1B2192951
:1045F0008CBF00210121A3F14407342F00F219815F
:10460000DFE817F02401170117011701170117013F
:10461000170117011701170117011C0117011701D5
:104620001701170117013201170117010C011701BA
:1046300017011701170117011701170117011701BA
:104640001701C300240117011701170117011701F2
:10465000170117011701170117011C011701170195
:104660001701350017013201170117010C01039BD7
:1046700047F6FF781F681A1D0392002F08BF5F4698
:104680003878BCF1000F08BFC446002800F02B8129
:10469000781CC14384447A7801EB0C0909F00101CC
:1046A000431C92B1634510D021B1184613F8012B79
:1046B0004AB90AE01A4612F8011B184629B159787E
:1046C0001046531C09B16345F4D1C7EB0009C9EB8F
:1046D0000A0C4FF020082CEAEC7A002E67D0B9F1D2
:1046E000000F28DD3E462A68F843B94416F8011B3E
:1046F00009EB0007136928464FF0FF3298474E45F3
:1047000007F0010717D01FB12B6816F8011B0BE04B
:104710002868374617F8011B03694FF0FF32284617
:1047200098472B6871787E1C1B6928464FF0FF3232
:1047300098474E45ECD1BAF1000F3FF414AF2E6804
:104740000AF1FF3C33692846664641464FF0FF3286
:104750000CF001079847002E3FF405AF1FB12A68FF
:10476000284613690AE02868414603694FF0FF3282
:10477000284698472968013E0B69284641464FF074
:10478000FF329847013EEED1EDE6039900AF0A688B
:104790000B1D4FF0200803938DF80020781CC7EB09
:1047A0000009C9EB0A0C2CEAEC7A002E97D1CAF169
:1047B000000ABAF1000F92D039782D2900F08580D7
:1047C00029686FEA0A0E0B69284641464FF0FF320E
:1047D0000EF0010698471AF1010A80D056B12968F7
:1047E00028460B694FF0FF32414698471AF1010AFB
:1047F0003FF475AF2868414603694FF0FF32284601
:10480000984728680AF1010A0369414628464FF093
:10481000FF3298471AF1010AECD160E7102281B10A
:10482000039B191D039119686846FFF759FE6F46EF
:10483000B5E700AF8DF80030781CB0E708220029FA
:10484000EED10398071D01680397EDE700292FD1EA
:10485000039B19681A1D002903922FDB68460A2260
:10486000FFF73EFE6F469AE70A22D8E72278EAB1C0
:10487000013413460121BEE64FF0000C0C4614F83B
:10488000013B0CEB8C07A3F13001CAB2092A214687
:1048900003D92A2B08D10278043002EB470CEDE74C
:1048A00014F8013F012676E6039097E60121A2E67F
:1048B000039F3968381D00290390CFDA2D2000AFFF
:1048C0008DF800004942781CC9E7B8F1300F7FF439
:1048D00077AF2A68284616694FF0FF32B047013794
:1048E00009F1FF396CE738464FF0200857E700BF61
:1048F00070640008AFF30080AFF30080AFF3008076
:1049000010B582B0FDF79CF902ACFCF7C9F84E2057
:10491000062324F8040D8DF8063000F019FF214617
:104920000C4800F01DFF0B4800F03AFF00F0C8FEF5
:1049300000F0CEF900F094FA00F0DAFA00F0C0F8D6
:10494000022000F0F5FE00F023F94FF4FA70FCF7B6
:104950008FFCF8E730180020AFF30080AFF3008041
:10496000022906D0032906D00748012918BF0020D4
:10497000704706487047032A03D8054800EBC20079
:1049800070470020704700BF60680008F0640008AE
:1049900020680008AFF30080AFF30080AFF3008021
:1049A000F0B5002985B0054605DD144905B0BDE820
:1049B000F040FFF7CDBD1249FFF7CAFDFCF720FD1F
:1049C000104E0446A168E368676A009194F82200DB
:1049D0000D49421E019294F82000224656F820E02C
:1049E0002846CDF808E00397FFF7B2FD2046FCF714
:1049F0001FFD04460028E5D105B0F0BD7065000834
:104A00008465000800670008B4650008AFF3008003
:104A100030B5002983B0044604DD0E49FFF798FD48
:104A200003B030BD01A90020FDF7BAF80546FCF738
:104A3000EFFF094902462046FFF78AFD20462A4635
:104A40000649FFF785FD20460549019AFFF780FDDD
:104A5000E6E700BFD4650008E465000804660008C6
:104A60001C660008AFF30080AFF30080AFF3008056
:104A7000022938B50C46054618D1202383F3118846
:104A8000FCF7CEF828460121094AFDF749FA2846E5
:104A90002146084AFDF744FA28460321064AFDF755
:104AA0003FFAFCF7DDF8002383F3118838BD00BF1F
:104AB000806400080065000860670008AFF30080AC
:104AC0002DE9F0412B4D4FF40076062231462A4C59
:104AD00028466E61FEF79CFE3220FCF7C9FB20469B
:104AE00000F05EFE3220FCF7C3FB204600F058FECB
:104AF0003220FCF7BDFB204600F052FE3220FCF7CE
:104B0000B7FB204600F04CFE3220FCF7B1FB2046FC
:104B100000F046FE3220FCF7ABFB204600F040FEE2
:104B20003220FCF7A5FB204600F03AFE3220FCF7CD
:104B30009FFB204600F034FE3220FCF799FB204614
:104B400000F02EFE0D4F3220FCF792FB204600F0C5
:104B500027FE3846FDF7A4FD38460949FDF7C8FD94
:104B60002846314606222E61FEF752FEBDE8F0418E
:104B7000FFF756BB00080140301800209C0F0020B2
:104B800040680008AFF30080AFF30080AFF300800F
:104B900010B50E4C206850B190F820C0BCF10E0F3B
:104BA00000D010BDFCF7B4FB0020206010BD084B06
:104BB000D3F8D02011680B78042BEDD105484FF4C1
:104BC0004B614022FFF734FB206010BD70100020C5
:104BD0009C0F002080670008AFF30080AFF30080D7
:104BE00030482DE9F84F304AC369304C304E314DD2
:104BF000314FDFF8D0A09A61A3464FF0010905209C
:104C0000FCF736FB4846C4F81490FCF731FB4846E5
:104C1000C4F81090FCF72CFB022248466261FCF7B6
:104C200027FB4FF004080021C5F80090316039805F
:104C3000C1460120C4F81090FCF71AFBA368C3F327
:104C4000C002AAF8002002B12A6831682868521808
:104C50004300012032602B60FCF70AFB0120C4F8FE
:104C60001480FCF705FB3988481C0FFA80FCBCF166
:104C70000F0F3880DDDD0422CBF810200120FCF777
:104C8000F7FA02210120CBF81010FCF7F1FA0B48DB
:104C9000FCF78EFC06480A4A03681360FCF798FC90
:104CA000ABE700BF540E0020706800080008014008
:104CB00090100020941000208C1000207410002010
:104CC0008810002084100020AFF30080AFF3008034
:104CD00070B5154C82B0082120460222FEF798FDDF
:104CE0000226012304252361194626610622204657
:104CF0002561FEF78DFD204631460622FEF788FD30
:104D0000294606222046FEF783FD0848FCF7B8FB3B
:104D100000244FF4D8714022054B06480094FCF75C
:104D20005FFA02B070BD00BF00080140741000209F
:104D3000E14B000898100020AFF30080AFF3008033
:104D400010B50548FCF734FC0448054C03682360A3
:104D5000FCF73EFC206810BD741000208810002075
:104D600048120020AFF30080AFF30080AFF3008063
:104D70002F482DE9F84F2F4AC3692F4E2F4C304F43
:104D8000DFF8C8A02F4DDFF8C8809A610120FCF73A
:104D90006FFA2D48FCF70CFCDAF800203A60FCF7BB
:104DA00017FC3B6831688B42F0D0234A4FF0200952
:104DB00013600120C4F81490FCF75AFA4021012036
:104DC0002161FCF755FA4FF000401F232860A8F836
:104DD00000304FF0800B202161610120FCF748FA80
:104DE00033682868184214BFC4F810B0C4F814B06F
:104DF0000120FCF73DFA0120C4F81090FCF738FAC6
:104E0000B8F800202968531E1FFA83FC48081CF4D8
:104E1000004F2860A8F800C0DDD032681AB90748F2
:104E200010234361B2E7054910220A61AEE700BFD3
:104E3000540E00208068000868120020000801401D
:104E40005C120020641200204C120020201400206C
:104E500060120020AFF30080AFF30080AFF300805A
:104E6000F0B5164C1023402520278026636183B0BF
:104E7000194625610622276120462661FEF7C8FCF7
:104E8000204629460622FEF7C3FC20463946062264
:104E9000FEF7BEFC314606222046FEF7B9FC084864
:104EA000FCF7EEFA00244FF4D8712A46054B064869
:104EB0000094FCF795F903B0F0BD00BF0008014075
:104EC0004C120020714D000870120020AFF30080DA
:104ED00010B504460448FCF76BFB044B1C60BDE8AE
:104EE0001040FCF775BB00BF4C12002020140020BE
:104EF00030B51F4C83B0022220464FF40041FEF72C
:104F000087FC1C4D204602224FF48041FEF780FCB6
:104F1000204602224FF40051FEF77AFC4021112274
:104F20002846FEF775FC112280212846FEF770FC0A
:104F30003220FCF79DF9FCF79BFE0F490F48FCF768
:104F4000A7FE0F490F4A104B00240C6014601C6030
:104F50004C6054605C600D48FCF792FA4FF4D871D5
:104F600040220B4B0B480094FCF73AF903B030BDDC
:104F700000100140000C014090680008E00E002085
:104F8000181600202C160020F8150020E815002027
:104F9000E151000838140020AFF30080AFF3008027
:104FA00070B5044605480D46FCF702FB044850F86E
:104FB00024302B60BDE87040FCF70ABBE8150020E8
:104FC000F8150020AFF30080AFF30080AFF300804E
:104FD00070B5044605480D46FCF7EAFA2A68044B0A
:104FE00043F82420BDE87040FCF7F2BAE815002031
:104FF0002C160020AFF30080AFF30080AFF30080E9
:10500000F0B5002483B0E7B2064601A93846FFF7A1
:10501000C7FF0125304613499FB1022F16D0019AD0
:10502000FFF796FA6BB2022B15DC0134E7B2384673
:1050300001A90135FFF7B4FFEDB230460949002F51
:10504000EBD10949019AFFF783FAEEE730460749A9
:10505000019AFFF77DFA30460549FFF779FA03B068
:10506000F0BD00BFAC680008A0680008A868000890
:10507000B0680008AFF30080AFF30080AFF30080AA
:1050800030B5022983B015461BDD1068FBF730F8F8
:1050900002AC44F8040D21460020FFF799FF686830
:1050A000FBF726F8214601900120FFF791FFA86841
:1050B000FBF71EF8214601900220FFF789FF03B09D
:1050C00030BD0249FFF744FAF9E700BFB8680008AD
:1050D000F0B5344C85B03448FCF76AFA334D237888
:1050E0002B70FCF775FA2D78012D01D005B0F0BDBD
:1050F0002F48304E03784FF0960EC6F800E0002B94
:105100001ED12D4B1B788BB12C4D366829782C483D
:105110002C4A0096FCF734FE2B4D286000282BD13A
:10512000012000F005FB286800282DD11E48FCF75F
:105130003FFA0022227005B0BDE8F040FCF748BA03
:105140001E4A4FF0000C11781D48204ACDF800C0CF
:10515000CDF804C0CDF808E0FCF7C2FD1A4F386066
:1051600070B9284600F0E4FA39680029C9D00E4821
:10517000FCF71EFA02230BE0032000F0D9FAD2E775
:10518000022000F0D5FAEFE70748FCF711FA0323F5
:105190002370FCF71DFA0A480D4905B0BDE8F04040
:1051A000FCF776BD04160020E81500202914002025
:1051B0002C1400206016002028140020180900205C
:1051C000E00E00204816002010160020381600209F
:1051D00090680008AFF30080AFF30080AFF3008069
:1051E0002DE9F04F844E854FB468B568B268680BFE
:1051F000D10AE30B00F0020801F0040948EA0906AD
:1052000003F0010546EA0504FA69DFF82482E34366
:105210007B48322113F0070389B09061C8F8001071
:1052200040F0E380774F784B7849794CDFF8FCA168
:10523000DFF80092774D0691BB4607937648FCF75E
:10524000B7F9FFF77DFD754A1060D9F80000FFF748
:105250003FFEFCF7BDF9002038701FE09BF90010FD
:10526000D8F800E010310423002689B26C4800967B
:105270000196CDF808E0FCF733FD069B1860002886
:1052800000F08F8066486749FCF702FD3A78511CB0
:105290004FFA81FCBCF1010F397030DC5E48FCF73D
:1052A00087F997F90060721C59F822005AF8221009
:1052B00020602960FCF78CF926682B68544A9E42CE
:1052C000CCD19BF90000D8F80060103081B24E4A72
:1052D000042353480096FCF753FD069A03465149B0
:1052E0004D481360002B6AD04D48FCF7D1FC3A784A
:1052F000511C4FFA81FCBCF1010F3970CEDD3E4EDE
:10530000FFF7E6FE1920FBF7B3FFB368B168B26898
:10531000C1F38036C2F34030820042EA4601C3F353
:10532000C03C41EA0C00C343322613F00703C8F81F
:10533000006083D0079E3C4F0F333B70FFF700FDAA
:10534000DFF8C89030604FF0040A4FF0000BD8F837
:1053500000E0397853462F4A31480096CDF804A032
:10536000CDF808B0CDF80CB0CDF810E0FCF750FD4A
:10537000069B186080BB0A20FBF77AFFFFF7E0FC72
:105380002023206083F31188FBF70AFC276837602D
:10539000FBF726FC002383F311882868FFF798FDAC
:1053A000E9E71D48FCF704F919499BF900600A6810
:1053B0001E48731C40F82320FCF70AF962E7FCF74B
:1053C000F7F807989BF9006002681449731C41F8CC
:1053D0002320FCF7FDF859E711481249FCF758FC67
:1053E000D9F800000028B2D1C5E7084F064E084C96
:1053F000084D06979FE700BF00100140540E0020A3
:10540000D06800082B1400205C1600203014002007
:105410000816002024140020E8150020F8150020AC
:10542000E00E0020906800082816002018160020C2
:10543000241600202C160020AFF30080AFF300806C
:1054400010B504460448FCF7B3F8044B1C70BDE8E3
:105450001040FCF7BDB800BFE8150020041600207E
:1054600010B50548FCF7A4F80448054C03782370F0
:10547000FCF7AEF8207810BDE815002004160020D7
:1054800058160020AFF30080AFF30080AFF3008028
:10549000002910B504460ADD1068FAF729FE064B0C
:1054A000064918702046BDE81040FFF751B804497E
:1054B000BDE81040FFF74CB818090020D468000878
:1054C000E0680008AFF30080AFF30080AFF3008026
:1054D0002DE9F047B1F100080446154624DD1068B7
:1054E000FAF706FE134F144E0023B8F10108387086
:1054F000337013D0DFF84C90581C55F82000FAF7A1
:10550000F7FD327897F800C0531CDBB202EB0C01B8
:10551000CAB2434509F802003370EDDB0749204663
:10552000BDE8F047FFF714B80549BDE8F047FFF7BD
:105530000FB800BF5916002014160020F4680008A8
:10554000FC68000838160020AFF30080AFF300803D
:1055500001292DE9F0410546164614DD1068FAF7D9
:10556000C7FD0B4F0B4C38707068FAF7C1FD207007
:105570000120FFF765FF08493A7823782846BDE8FF
:10558000F041FEF7E5BF0549BDE8F041FEF7E0BF99
:105590002C1400202814002008690008186900084D
:1055A00010B50446FFF75CFF034902462046BDE8FC
:1055B0001040FEF7CDBF00BF30690008AFF3008098
:1055C00000292DE9F041054620DD1068FAF790FD2D
:1055D0000F4E104930702846FEF7BAFF0E4C327855
:1055E0000023237062B10D4FFA5C28460C49FEF788
:1055F000AFFF217830784B1CDBB298422370F3D890
:1056000008492846BDE8F041FEF7A2BFBDE8F08199
:105610000C1600203C6900082A14002048160020BF
:10562000AC68000840690008AFF30080AFF3008069
:105630001C481D4AC3692DE9F0411C4FDFF87C80EE
:105640001B4C9A614FF480464FF40055194800F006
:10565000A7F84FF4805166617D2065616161FBF7B9
:1056600007FE1548FBF7A4FFD8F800303B60FBF7B6
:10567000AFFF104800F094F83A684FF4805112F0F0
:10568000010F14BF2661666112F0020F14BF25617D
:10569000656112F0040F14BF216161617D20FBF789
:1056A000E7FDD3E7540E002050690008781600206B
:1056B000000C0140301800206416002074160020F1
:1056C00070B5144C4FF480434FF400564FF480559E
:1056D000236182B019462661062220462561FEF725
:1056E00097F8204631460622FEF792F82946062210
:1056F0002046FEF78DF80848FBF7C2FE00244FF461
:10570000D8714022054B06480094FBF769FD02B0B2
:1057100070BD00BF000C0140641600203156000827
:1057200080160020AFF30080AFF30080AFF300805D
:1057300010B504460448FBF73BFF044B1C60BDE872
:105740001040FBF745BF00BF641600207416002010
:1057500000F03EB8AFF30080AFF30080AFF30080FD
:1057600038B504460D4688B181B1202383F31188F2
:10577000FBF716FA2046294600F03AF80223237078
:10578000FBF72EFA002383F3118838BD0148FBF79D
:105790002FFBEAE760690008AFF30080AFF30080F9
:1057A00010B5044668B1202383F31188FBF7F8F99C
:1057B000204600F035F8FBF713FA002383F3118835
:1057C00010BD0248FBF714FBEDE700BF706900084D
:1057D000024B034A012018705A60704730180020AD
:1057E00000300040AFF30080AFF30080AFF30080E3
:1057F000436845F255501860B1F800C040F6FF729A
:105800008978944538BF624659604AF6AA209A6062
:105810004CF6CC4218601A60704700BFAFF30080AE
:1058200043684AF6AA221A60704700BFAFF30080AF
:10583000200039000000000000000000000000000F
:105840000020202020202020202028282828282050
:105850002020202020202020202020202020202048
:1058600020881010101010101010101010101010B0
:1058700010040404040404040404041010101010A0
:10588000101041414141414101010101010101016A
:1058900001010101010101010101010110101010BC
:1058A000101042424242424202020202020202023C
:1058B0000202020202020202020202021010101090
:1058C00020000000000000000000000000000000B8
:1058D00000000000000000000000000000000000C8
:1058E00000000000000000000000000000000000B8
:1058F00000000000000000000000000000000000A8
:105900000000000000000000000000000000000097
:105910000000000000000000000000000000000087
:105920000000000000000000000000000000000077
:105930000000000000000000000000000000000067
:105940000000000000000000000000000000000057
:1059500069646C65000000006D61696E0000000004
:10596000535623310000000053562332000000003C
:105970005356233300000000535623340000000028
:105980005356233500000000535623360000000014
:105990005356233700000000535623380000000000
:1059A00053562339000000005356233130000000C5
:1059B00053562331310000000000000000000000B9
:1059C0002263685654536574492228290000000058
:1059D0002263685654526573657449222829000071
:1059E0006368565452657365744928292C20233105
:1059F00000000000000000000000000000000000A7
:105A0000636853636852656164794928292C2023AF
:105A100031000000737461636B206F766572666C91
:105A20006F77000000000000000000000000000090
:105A30002263685468644372656174654922282949
:105A400000000000226368546864536574507269F2
:105A50006F72697479222829000000006368546815
:105A600064526573756D6528292C20233100000070
:105A7000226368546864536C6565702228290000AD
:105A80006368546864457869745328292C2023314D
:105A9000000000002263685468645761697422281A
:105AA0002900000063685468645761697428292CD0
:105AB0002023310063685468645761697428292C75
:105AC0002023320000000000000000000000000061
:105AD000636854686441646452656628292C2023F5
