:020000040800F2
:1000000000040020E1060008B1070008B10700085D
:10001000B1070008B1070008B1070008B1070008E0
:10002000B1070008B1070008B1070008010800087F
:10003000B1070008B1070008B1070008D1070008A0
:10004000B1070008B1070008B1070008B1070008B0
:10005000B1070008B1070008B1070008B1070008A0
:10006000B1070008B1070008B1070008813900088E
:10007000D1390008213A0008713A0008C13A000855
:10008000113B0008613B0008B1070008D14F000890
:10009000E14F0008B1070008B1070008B1070008E8
:1000A000B1070008B1070008B1070008B107000850
:1000B000B1070008B1070008B1070008814800082F
:1000C000A1480008B1070008B1070008B1070008FF
:1000D000B1070008B1070008B1070008B107000820
:0C00E000B1070008B1070008B1070008D4
:1000F00000210A2200F08EB900220A2300F0D8B8AD
:10010000032AC9B270B408D82AB10346121803F8FA
:10011000011B9342FBD170BC70478218044601E07A
:1001200004F8011B14F0030FFAD14FF0013303FB65
:1001300001F31FE044F8403C44F83C3C44F8383CB0
:1001400044F8343C44F8303C44F82C3C44F8283C17
:1001500044F8243C44F8203C44F81C3C44F8183C47
:1001600044F8143C44F8103C44F80C3C44F8083C77
:1001700044F8043C161B254640343F2EDADC2C465E
:1001800007E044F8103C44F80C3C44F8083C44F8C0
:10019000043C161B254610340F2EF2DC01E045F816
:1001A000043B541B032CFADC01E005F8011B9542CB
:1001B000FBD3B0E7000000000000000000000000DA
:1001C00040F60003C2F2000370B41D6810F8013B52
:1001D000EC181A46647804F00304012C11F8014B62
:1001E00008BF03F120022E192346767806F0030695
:1001F000012E08BF04F12003D21A01D1002BE5D152
:10020000104670BC704700BF0000000000000000F6
:10021000F0B40478002C20D00F78064630468FB119
:10022000A7421CD04B1C01E0944211D01D4613F88C
:10023000012B002AF8D17478701C44B10646304670
:10024000002FEDD174780D46701C002CF6D12A7861
:10025000002A08BF0020F0BC70472046FBE73A4662
:10026000F6E700BF000000000000000000000000F2
:10027000F0B40646047874B10F780546064657B1C7
:10028000BC4218BF0A4602D108E09C4206D012F8D0
:10029000013F002BF9D1301AF0BC70476C786E1C0E
:1002A000002CF8D03546EBE700000000000000000D
:1002B0002DE9F04F40F60004C2F2000485B01F465D
:1002C0008C4626680B460390029213F8014B3219B4
:1002D0001D4692F801B01BF0080BF6D12D2C73D0FF
:1002E0002B2C08BF15F8014BD7F1010338BF0023B1
:1002F000102F14BF1A4643F0010232B1302C73D0D4
:100300001BB1302C00F083800A27B946BBF1000FE7
:1003100049460CBF6FF0004A4FF0004ACDF804C0C8
:10032000504600F0B3F950468846494600F080F840
:1003300033190022DDF804C05B78114613F0040F76
:100340001ED0303CA74225DD814294BF002301230B
:1003500053EAD2722ED10A1A534243EB02034445A8
:10036000D4BF002303F00103002B23D109FB01417B
:1003700015F8014B012233195B7813F0040FE0D11B
:1003800013F0030306D0012B14BF57233723E41ABD
:10039000A742D9DCB2F1FF3F1BD00846BBF1000FEA
:1003A00010D1029B1BB152B90299C1F800C005B02F
:1003B000BDE8F08F4FF0FF3215F8014BDBE705F198
:1003C000FF3CF1E74842ECE715F8014B4FF0010B19
:1003D0008AE70399BBF1000F0CBF6FF000404FF0AC
:1003E000004022230B60DCE72A78A2F1780041422A
:1003F00041EB0001582A14BF0A4641F00102002ACD
:100400003FF47EAF10276C78B94602357EE70827A7
:10041000B9467BE730B440F60404C2F200040D464E
:10042000134601462A46206830BC41E70000000020
:100430004A1E08BF7047C0F02481884240F21681EE
:10044000114200F01781B0FA80F3B1FA81F2A2EB09
:100450000303C3F11F0304A202EB03134FF00002D6
:100460009F4600BFAFF30080B0EBC17F00BF42EBFF
:10047000020228BFA0EBC170B0EB817F00BF42EB4E
:10048000020228BFA0EB8170B0EB417F00BF42EBBE
:10049000020228BFA0EB4170B0EB017F00BF42EB2E
:1004A000020228BFA0EB0170B0EBC16F00BF42EBAE
:1004B000020228BFA0EBC160B0EB816F00BF42EB2E
:1004C000020228BFA0EB8160B0EB416F00BF42EB9E
:1004D000020228BFA0EB4160B0EB016F00BF42EB0E
:1004E000020228BFA0EB0160B0EBC15F00BF42EB8E
:1004F000020228BFA0EBC150B0EB815F00BF42EB0E
:10050000020228BFA0EB8150B0EB415F00BF42EB7D
:10051000020228BFA0EB4150B0EB015F00BF42EBED
:10052000020228BFA0EB0150B0EBC14F00BF42EB6D
:10053000020228BFA0EBC140B0EB814F00BF42EBED
:10054000020228BFA0EB8140B0EB414F00BF42EB5D
:10055000020228BFA0EB4140B0EB014F00BF42EBCD
:10056000020228BFA0EB0140B0EBC13F00BF42EB4D
:10057000020228BFA0EBC130B0EB813F00BF42EBCD
:10058000020228BFA0EB8130B0EB413F00BF42EB3D
:10059000020228BFA0EB4130B0EB013F00BF42EBAD
:1005A000020228BFA0EB0130B0EBC12F00BF42EB2D
:1005B000020228BFA0EBC120B0EB812F00BF42EBAD
:1005C000020228BFA0EB8120B0EB412F00BF42EB1D
:1005D000020228BFA0EB4120B0EB012F00BF42EB8D
:1005E000020228BFA0EB0120B0EBC11F00BF42EB0D
:1005F000020228BFA0EBC110B0EB811F00BF42EB8D
:10060000020228BFA0EB8110B0EB411F00BF42EBFC
:10061000020228BFA0EB4110B0EB011F00BF42EB6C
:10062000020228BFA0EB0110B0EBC10F00BF42EBEC
:10063000020228BFA0EBC100B0EB810F00BF42EB6C
:10064000020228BFA0EB8100B0EB410F00BF42EBDC
:10065000020228BFA0EB4100B0EB010F00BF42EB4C
:10066000020228BFA0EB0100104670470CBF01201A
:1006700000207047B1FA81F2C2F11F0220FA02F0A5
:10068000704708B14FF0FF3000F012B80029F8D0E1
:100690002DE90340FFF7CCFEBDE8064002FB00F366
:1006A000A1EB0301704700BF000000000000000044
:1006B000704700BF000000000000000000000000C4
:1006C000704700BFAFF30080AFF30080AFF300804E
:1006D000FEE700BFAFF30080AFF30080AFF3008010
:1006E00072B6264C84F309884FF0020484F3148810
:1006F000BFF36F8F224C234D04E04FF0553323603E
:1007000004F10404AC42F8D31F4C1C4D04E04FF03C
:100710005533236004F10404AC42F8D305F008FA21
:100720001A4D1B4C05E02B68236004F1040405F10D
:100730000405184B9C42F6D3174C184D04E04FF0BB
:100740000003236004F10404AC42F8D3FFF7B8FFC0
:10075000134C03E02368984704F10404114B9C42B6
:10076000F8D305F055FF104C03E02368984704F1D7
:1007700004040E4B9C42F8D3FFF7AAFF00080020A8
:10078000000000200004002000040020088600086B
:1007900000080020580900205809002018180020DF
:1007A000EC000008EC000008EC000008EC00000879
:1007B000FEE700BFAFF30080AFF30080AFF300802F
:1007C00072B6FEE7AFF30080AFF30080AFF30080B6
:1007D00008B500F095FA4FF0200383F3118800F07C
:1007E0005FFA00F0CDF900F073FA4FF0000383F3E5
:1007F000118800F0ADFA00F03BF808BDAFF30080BF
:1008000010B483B0EFF309840194019B03F120033A
:100810000193019B83F309884FF0000383F3118850
:1008200003B010BC704700BFAFF30080AFF300808F
:1008300008B50D4B4FF000029A600B4B0B4ADA6083
:100840004FF007004FF0100100F012F94FF00A00CE
:100850004FF4007100F00CF94FF00B004FF08001E5
:1008600000F006F908BD00BF00ED00E00000FA0549
:1008700010B483B04FF0200383F311881F4B5B68E3
:1008800003F40063002B32D0EFF309840194019B41
:10089000A3F120030193019B83F30988019B4FF08F
:1008A0008072DA61164B9B69002B0BD0144B1B68CE
:1008B0009A68134BDB699B689A4294BF002301231B
:1008C000DBB20AE00E4B1B689A680D4BDB699B6834
:1008D0009A4234BF00230123DBB2002B03D0019BDB
:1008E000084A9A6107E0019B074A9A6103E04FF0CA
:1008F000000383F3118803B010BC704700ED00E0E3
:10090000880E0020110900081C090008AFF30080C0
:1009100000F096F900F0D4FC00F0AAF900DF00BF67
:1009200003460A462DE9F04FC2F80CD0D3F80CD09C
:10093000BDE8F08FAFF30080AFF30080AFF300802D
:1009400008B500F095F94FF0000383F311882846AD
:10095000A04700F005FE08BDAFF30080AFF30080B4
:1009600010B485B001900091019B03F003034FEA9E
:10097000C30303931E4B019A4FEA92021C4901984C
:100980004FEA900000F1C00051F8200003994FF0A9
:10099000FF0404FA01F16FEA010108400399009C89
:1009A00004FA01F140EA010102F1C00243F8221009
:1009B0000F4B019A4FEA5212019901F01F014FF0BB
:1009C000010000FA01F102F1600243F82210084B25
:1009D000019A4FEA5212019901F01F014FF00100F4
:1009E00000FA01F143F8221005B010BC704700BFB7
:1009F00000E100E0AFF30080AFF30080AFF30080D0
:100A000010B485B00190019B03F003034FEAC303C8
:100A10000393154B019A4FEA5212019901F01F01FD
:100A20004FF0010000FA01F102F1200243F8221018
:100A30000D4B019A4FEA92020B4901984FEA900040
:100A400000F1C00051F8200003994FF0FF0404FAB0
:100A500001F16FEA010100EA010102F1C00243F86D
:100A6000221005B010BC704700E100E0AFF3008039
:100A700010B485B001900091019B03F003034FEA8D
:100A8000C3030393104B019A4FEA92020E49019857
:100A90004FEA900000F1060051F8200003994FF052
:100AA000FF0404FA01F16FEA010108400399009C78
:100AB00004FA01F140EA010102F1060243F82210B2
:100AC00005B010BC704700BF00ED00E0AFF3008040
:100AD00082B00190024BDB69024A9A61FEE700BFD7
:100AE000880E002030750008AFF30080AFF300805F
:100AF00000B583B0FFF79CFE00F0A2FA00F0D8F931
:100B000001F06EFA01F0DCFA00F07AF914484FF0C7
:100B1000400100F01DFC0246124BDA61114BDB690B
:100B20004FF0010283F820200E4BDB690E4ADA6198
:100B300000F06EF84FF0000383F3118862B6094BA2
:100B4000DB690A4A9A610A4B4FF000020092094899
:100B50004FF0C0014FF0010200F0A2FC03B000BD55
:100B6000180A0020880E00200004002038750008B4
:100B7000D10A000858090020AFF30080AFF30080CD
:100B800000B583B000F00CF91F4B9B69002B05DD0D
:100B90001D4B9B6903F1FF321B4B9A611A4BDB69BA
:100BA0005A6A02F101025A62184BDB6803F1010232
:100BB000164BDA60154B1B681A46144B9A4221D02B
:100BC000124B1B689A6802F1FF329A6013E0019B96
:100BD000DB680093019B4FF00002DA60019B1B6809
:100BE0000A4A5A60019B1A68084B1A60019B1A69ED
:100BF000009B10469847054B1B680193019B9B681F
:100C0000002BE4D003B000BD880E0020780E002039
:100C100008B5064B1B68002B03D1054B1B68002B46
:100C200002D0044800F034F908BD00BF640A002077
:100C3000680A002050750008AFF30080AFF3008011
:100C400008B5084B1B68002B03D1074B1B68002B12
:100C500002D0064800F01CF9034B4FF001021A6065
:100C600008BD00BF640A0020680A0020587500080B
:100C700008B5084B1B68002B03D1074B1B68002BE2
:100C800002DC064800F004F9034B4FF000021A6042
:100C900008BD00BF640A0020680A002060750008D3
:100CA00008B5084B1B68002B03DD074B1B68002BA6
:100CB00002D0064800F0ECF8034B4FF001021A6036
:100CC00008BD00BF640A0020680A0020687500089B
:100CD00008B5084B1B68002B03DD074B1B68002B76
:100CE00002DC064800F0D4F8034B4FF000021A6013
:100CF00008BD00BF640A0020680A00207075000863
:100D000008B54FF0200383F311880B4B1B68002BB1
:100D100003DB0A4B1B68002B02D0094800F0B8F82F
:100D2000054B1B6803F10102034B1A604FF00003EF
:100D300083F3118808BD00BF640A0020680A002000
:100D400078750008AFF30080AFF30080AFF3008048
:100D500008B54FF0200383F311880B4B1B68002B61
:100D600003DD0A4B1B68002B02D0094800F090F805
:100D7000054B1B6803F1FF32034B1A604FF0000371
:100D800083F3118808BD00BF640A0020680A0020B0
:100D900080750008AFF30080AFF30080AFF30080F0
:100DA00008B5064B1B68002B03DB054B1B68002BAB
:100DB00002DC044800F06CF808BD00BF640A0020A3
:100DC000680A002088750008AFF30080AFF3008048
:100DD00008B5064B1B68002B03D1054B1B68002B85
:100DE00002DC044800F054F808BD00BF640A00208B
:100DF000680A002090750008AFF30080AFF3008010
:100E0000034B4FF040021A60014B024A5A60704790
:100E10006C0A0020740A0020AFF30080AFF300805A
:100E200082B00190124B5B68124AD2681A60104B74
:100E30005B68114AD2695A600D4B5B68019A926AED
:100E40009A600B4B5B68019A92F820201A73084B4A
:100E50005B6803F11002064B5A60054B5A68074B5A
:100E60009A4202D3024B064A5A6002B0704700BF52
:100E70006C0A0020780E0020880E0020740E0020DE
:100E8000740A0020AFF30080AFF30080AFF300805E
:100E900000B583B00190034B019A1A60FFF790FCF4
:100EA00003B000BD740E0020AFF30080AFF30080EC
:100EB000074A074B5A60064B5A68054B1A60044BA9
:100EC0004FF0FF329A60024B4FF00002DA60704739
:100ED000780E0020AFF30080AFF30080AFF3008006
:100EE00000B587B00390029101920093FFF758FF7D
:100EF000039B002B05D0019B002B02D0029B002BF3
:100F000002D11C48FFF7C4FF039B009A1A61039BA0
:100F1000019ADA60184B1B68059307E0059B9B68F4
:100F2000029AD31A0293059B1B680593059B9A6846
:100F3000029B9A42F2D3039B059A1A60039B1B689B
:100F40005A68039B5A60039B5B68059A039951603A
:100F5000059A52681A60039B029A9A60059A064B9A
:100F60009A4205D0059B9A68029BD21A059B9A600B
:100F700007B000BDA0750008780E0020AFF3008018
:100F800000B583B00190FFF70BFF019B002B02D14E
:100F90001348FFF77DFF019BDB68002B02D111484E
:100FA000FFF776FF019B1A680F4B9A4208D0019B0E
:100FB0001B68019A12689168019A92688A189A606F
:100FC000019B5B68019A12681A60019B1B68019A79
:100FD00052685A60019B4FF00002DA6003B000BD16
:100FE000B0750008C0750008780E0020AFF30080CF
:100FF00084B00190019B1B680393039B1A68019BBB
:101000001A60019B1B68019A5A60039B184604B042
:10101000704700BFAFF30080AFF30080AFF30080F4
:1010200082B00190019B5B68019A12681A60019B73
:101030001B68019A52685A60019B184602B07047BB
:101040000B4A0B4B5A600A4B5A68094B1A60084B03
:101050004FF000029A60064B4FF014029A61044A66
:10106000034B5A61024B5A69014B1A61704700BF2A
:10107000880E0020AFF30080AFF30080AFF3008054
:1010800000B585B00190019B93F82030002B04D06F
:10109000019B93F820300E2B02D11348FFF7F8FE86
:1010A000019B4FF0000283F82020104B0393039B19
:1010B0001B680393039B9A68019B9B689A42F6D234
:1010C000019B039A1A60039B5A68019B5A60019B1B
:1010D0005B68039A01995160039A52681A60019BF8
:1010E000184605B000BD00BFE0750008880E00205E
:1010F00000B585B003468DF80730FFF769FE164B43
:10110000DB690393039B9DF8072083F82020124B93
:101110004FF014029A611048FFF76AFF02460E4B27
:10112000DA610D4BDB694FF0010283F82020039850
:10113000FFF776FE6B46A3F12402039BDB699A421C
:1011400002D20648FFF7A4FE034BDB691846039959
:10115000FFF7E6FB05B000BD880E0020F47500081F
:1011600000B585B00190019B0393039B93F8203059
:101170000D2B28D801A252F823F000BFD711000888
:10118000C7110008C7110008B5110008C7110008F1
:10119000C1110008C7110008C7110008C7110008D5
:1011A000C7110008C7110008C7110008C7110008BF
:1011B000C1110008039B9B6A9A6802F101029A60C0
:1011C0000398FFF72DFF039B4FF0FF329A620398BD
:1011D000FFF756FF00E000BF05B000BDAFF3008091
:1011E00000B589B0034600918DF80730FFF7F0FD98
:1011F000009BB3F1FF3F14D00F4BDB6903AA1046ED
:1012000000990E4AFFF76CFE9DF807301846FFF76D
:101210006FFF069B002B09D003AB1846FFF7B0FE0B
:1012200004E09DF807301846FFF762FF024BDB69C8
:101230009B6A184609B000BD880E002061110008A5
:1012400000B585B001900091FFF7C2FD019B009AA7
:101250009A62019B9A68174BDB699B689A4203D894
:101260000198FFF70DFF22E0124BDB691846FFF7EC
:1012700007FF03900F4B4FF014029A610D4B019A38
:10128000DA61019B4FF0010283F820200398FFF7F9
:10129000C7FD6B46A3F12402039BDB699A4202D28D
:1012A0000548FFF7F5FD01980399FFF739FB05B0F5
:1012B00000BD00BF880E0020F4750008AFF3008069
:1012C00000B583B0154B4FF014029A61134BDB69E4
:1012D00001931248FFF78CFE0246104BDA610F4B68
:1012E000DB694FF0010283F820200198FFF7C8FE68
:1012F0000198FFF795FD6B46A3F12402019BDB6982
:101300009A4202D20648FFF7C3FD044BDB69184638
:101310000199FFF705FB03B000BD00BF880E002058
:10132000F4750008AFF30080AFF30080AFF30080E6
:1013300084B00190019B1B680393039B1A68019B77
:101340001A60039B184604B0704700BFAFF30080DB
:1013500082B001900091019B009A9A60019B4FF02E
:10136000020283F82020019B4FF0000283F8212025
:10137000019B009A5A64019B4FF000021A64019B82
:101380004FF00002DA63019B4FF000025A62019BAA
:101390004FF0010283F82220019B4FF000029A6176
:1013A000134A019B1A61124B5A69019B5A61019BB6
:1013B0005B690F4A019951610D4A52691A61019B9B
:1013C00003F12C031A46019BDA62019B03F13003FF
:1013D0001A46019B5A63019B5A6B019B1A63019B3E
:1013E00003F14C02019BDA61019B184602B0704781
:1013F000880E0020AFF30080AFF30080AFF30080D1
:1014000084B00390029113468DF8073007E0039BE8
:101410009DF807201A70039B03F101030393039ABD
:10142000029B9A42F3D304B0704700BFAFF3008031
:1014300000B587B00390029101920093039B05933E
:10144000FFF7AEFC039B002B08D0029BAF2B05D906
:10145000019B7F2B02D8009B002B02D10E48FFF787
:1014600017FD039A029BA3F12403D218059BDA60AF
:10147000059BDB68009A1A60059BDB68089A5A6036
:10148000059BDB68054A1A6205980199FFF760FF22
:101490000346184607B000BD107600084109000851
:1014A00000B589B00590049103920293059A059BBB
:1014B00003F14C03104619464FF0FF02FFF7A0FF5F
:1014C000059B03F14C020599049BCB181046194665
:1014D0004FF05502FFF794FF4FF0200383F311887C
:1014E000FFF7AEFB0A9B009305980499039A029BB1
:1014F000FFF79EFF079007984FF00001FFF7A0FE4F
:10150000FFF7B6FB4FF0000383F31188079B1846E3
:1015100009B000BDAFF30080AFF30080AFF30080EF
:1015200000B583B00190019B002B02D10A48FFF760
:10153000AFFC4FF0200383F31188FFF781FB4FF0DE
:1015400006000199FFF74CFEFFF792FB4FF00003F6
:1015500083F3118803B000BD50760008AFF300801C
:1015600000B583B001904FF0200383F31188FFF79B
:1015700067FB019800F004F803B000BDAFF30080F2
:1015800000B585B00190194BDB690393039B019A69
:101590009A6209E0039B03F12C031846FFF7C8FE8B
:1015A00003461846FFF76CFD039BDA6A039B03F1C1
:1015B0002C039A42EED1039B93F8213003F00303EE
:1015C000002B09D1039B5B69039A12691A61039B83
:1015D0001B69039A52695A614FF00E00FFF788FDAC
:1015E0000348FFF755FC05B000BD00BF880E002082
:1015F00060760008AFF30080AFF30080AFF30080A7
:1016000000B585B001904FF0200383F31188FFF7F8
:1016100017FB019B93F82230002B02D12548FFF7DE
:1016200037FC019B93F8223003F1FF33DAB2019BC0
:1016300083F82220019B93F822308DF80F30FFF7BA
:1016400017FB4FF0000383F311889DF80F30002B38
:101650002DD1019B93F820300E2B28D1019B93F8BC
:10166000213003F00303012B02D0022B0ED01EE029
:10167000019B5B69019A12691A61019B1B69019ABE
:1016800052695A61019800F0B3FD10E0019B5B695B
:10169000019A12691A61019B1B69019A52695A6188
:1016A000019B9B6C1846019900F08AFE00BF05B0B3
:1016B00000BD00BFC4760008AFF30080AFF3008028
:1016C00000B589B00590049103920293059804999E
:1016D00000F00EFD0790079B002B02D14FF0000396
:1016E00035E0079A079B03F14C03104619464FF06B
:1016F000FF02FFF785FE079B03F14C020799049B4D
:10170000CB18104619464FF05502FFF779FE4FF0FF
:10171000200383F31188FFF793FA0A9B009307983D
:101720000499039A029BFFF783FE0690069B4FF0F5
:10173000010283F8212006984FF00001FFF780FD99
:10174000FFF796FA4FF0000383F31188069B1846C3
:1017500009B000BDAFF30080AFF30080AFF30080AD
:1017600000B583B04FF0200383F31188FFF768FAC8
:101770000A4B1B690193019B93F8223003F101038B
:10178000DAB2019B83F82220FFF772FA4FF00003D0
:1017900083F31188019B184603B000BD880E00201A
:1017A00000B585B001904FF0200383F31188FFF757
:1017B00047FA019B1B690393124B039A9A4203D188
:1017C0004FF00003039310E0039B93F82230FF2BAC
:1017D00002D10D48FFF75CFB039B93F8223003F125
:1017E0000103DAB2039B83F82220FFF741FA4FF09E
:1017F000000383F311880198FFF702FF039B18464B
:1018000005B000BD880E002000770008AFF300800F
:1018100084B001900091009B0393039B1B6803938A
:10182000009B039A9A4205D0039B9A68019B9B6890
:101830009A42F2D2019B039A1A60039B5A68019B59
:101840005A60019B5B68039A01995160039A526840
:101850001A6004B0704700BFAFF30080AFF30080A0
:1018600084B00190019B1B680393039B1A68019B42
:101870001A60019B1B68019A5A60039B184604B0CA
:10188000704700BFAFF30080AFF30080AFF300807C
:1018900082B00190019B5B68019A12681A60019BFB
:1018A0001B68019A52685A60019B184602B0704743
:1018B00000B583B00190019B002B02D10848FFF7CF
:1018C000E7FA019B1A46019B5A60019B5A68019BEB
:1018D0001A60019B4FF000029A6003B000BD00BF88
:1018E00020770008AFF30080AFF30080AFF30080F3
:1018F00000B583B001904FF0200383F31188FFF708
:101900009FF9019800F00CF8FFF7B2F94FF00003CF
:1019100083F3118803B000BDAFF30080AFF3008004
:1019200000B585B001903C4BDB690293FFF750FA9C
:10193000019B002B02D13948FFF7AAFA019B9B6853
:10194000002B5CD0019B9B68039335E0029B9A6857
:10195000039B9A60039B93F82030042B04D0052B43
:1019600011D0002B1AD02DE00398FFF791FF02460B
:10197000039B9B6A10461946FFF74AFF039B9B6A2D
:101980009B68039318E00398FFF782FF0246039BCE
:101990009B6A10461946FFF73BFF0CE0039B4FF094
:1019A000010283F820200398FFF772FF03461846D0
:1019B000FFF766FB00BF05E0039B9A68029B9B68EC
:1019C0009A42C3D3019B02981946FFF721FF029B5D
:1019D000019A9A624FF00400FFF78AFB019B9A6814
:1019E000029B9A4202D00E48FFF752FA029B1A6CF1
:1019F000019B9A420DD00B48FFF74AFA09E0019B80
:101A0000029A9A60029B1A6C019BDA60029B019A0F
:101A10001A6405B000BD00BF880E002030770008B2
:101A20004077000854770008AFF30080AFF30080E0
:101A300000B587B0334BDB6903934FF0200383F38A
:101A40001188FFF7FDF8039B1B6C002B02D12E4879
:101A5000FFF71EFA039B1B6C9A68039B9A4202D005
:101A60002A48FFF715FA039B1B6C0293029BDA6866
:101A7000039B1A64029B1A68029B9A4233D0039B11
:101A80005B6C0493039B1B6C059311E0059B1A6828
:101A9000059B9A4209D0059B1B689A68049B9A4251
:101AA00003D9059B1B689B680493059BDB68059322
:101AB000059B002BEAD1039B049A9A60029B18466F
:101AC000FFF7CEFE0190029B019A9A60019B1A6C6F
:101AD000029BDA60019B029A1A6401984FF00001A0
:101AE000FFF7AEFB03E0029B4FF000029A60FFF7A6
:101AF000BFF84FF0000383F31188029B184607B02C
:101B000000BD00BF880E00207C7700089077000899
:101B100000B583B001900091FFF742F9019B002BC3
:101B200002D11648FFF7B4F9019BDA6B009B1A4308
:101B3000019BDA63019B93F82030082B07D1019BAE
:101B4000DA6B019B9B6A02EA0303002B0DD1019B18
:101B500093F82030092B0FD1019BDA6B019B9B6A14
:101B60001A40019B9B6A9A4206D10198FFF788FAB6
:101B700003464FF000029A6203B000BD0C780008E3
:101B800000B585B001900091FFF70AF9019B002B89
:101B900002D10D48FFF77CF9019B1B6803930DE010
:101BA000039B5A68039B9968009B41EA0303104614
:101BB0001946FFF7ADFF039B1B680393019B039A34
:101BC0009A42EDD105B000BD20780008AFF3008047
:101BD00082B001900091009A019B1A60009B5A68A4
:101BE000019B5A60019B5B68009A01995160009AC1
:101BF00052681A6002B07047AFF30080AFF3008004
:101C000000B583B001900091009B002B02D14FF0F2
:101C1000FF3310E0094BDB69019A9A62074BDA69DE
:101C2000019B10461946FFF7D3FF4FF00D000099B6
:101C3000FFF7D6FA0346184603B000BD880E002011
:101C400084B00390029101920093039B1A46039B78
:101C50005A60039B5A68039B1A60039B4FF0000273
:101C60009A60039B029A5A61039B5A69039B9A618B
:101C7000039B9A69039BDA60029A019BD218039B2B
:101C80001A61039B009ADA6104B07047AFF30080D9
:101C900000B585B0019000914FF0200383F31188C7
:101CA000FEF7CEFF019BDB69002B14D0019BDB69A3
:101CB0000198984710E001980099FFF7A1FF039061
:101CC000039B002B08DAFEF7D3FF4FF0000383F3EA
:101CD0001188039B25E000BF019B9B68002BEAD085
:101CE000019B9B6803F1FF32019B9A60019B9B69FA
:101CF0001A788DF80B2003F10102019B9A61019B78
:101D00009A69019B1B699A4203D3019BDA68019B84
:101D10009A61FEF7ADFF4FF0000383F311889DF841
:101D20000B30184605B000BDAFF30080AFF3008064
:101D300000B587B00390029101920093039BDB6989
:101D400004934FF000030593019B002B02D12F4811
:101D5000FFF79EF84FF0200383F31188FEF770FF22
:101D6000049B002B12D0049B039898470FE0039824
:101D70000099FFF745FF0346002B08D0FEF778FFD8
:101D80004FF0000383F31188059B3BE000BF039BEA
:101D90009B68002BEBD0039B9B6803F1FF32039BF6
:101DA0009A60039B9B691978029A1170029A02F15A
:101DB0000102029203F10102039B9A61039B9A695B
:101DC000039B1B699A4203D3039BDA68039B9A61C6
:101DD000FEF74EFF4FF0000383F31188059B03F1DC
:101DE00001030593019B03F1FF330193019B002B3A
:101DF00001D1059B06E04FF0200383F31188FEF725
:101E00001FFFADE7184607B000BD00BF60780008AF
:101E100084B00390029101920093039B1A46039BA6
:101E20005A60039B5A68039B1A60039B019A9A604D
:101E3000039B029A5A61039B5A69039B9A61039B15
:101E40009A69039BDA60029A019BD218039B1A617C
:101E5000039B009ADA6104B0704700BFAFF30080C3
:101E600000B587B003900B4601928DF80B304FF010
:101E7000200383F31188FEF7E3FE0FE00398019936
:101E8000FFF7BEFE0590059B002B07DAFEF7F0FE7C
:101E90004FF0000383F31188059B2CE0039B9B68A4
:101EA000002BEBD0039B9B6803F1FF32039B9A60EE
:101EB000039B5B699DF80B201A7003F10102039BE1
:101EC0005A61039B5A69039B1B699A4203D3039B84
:101ED000DA68039B5A61039BDB69002B03D0039BE9
:101EE000DB6903989847FEF7C3FE4FF0000383F3C6
:101EF00011884FF00003184607B000BDAFF3008013
:101F000000B587B00390029101920093039BDB69B7
:101F100004934FF000030593019B002B02D12F483F
:101F2000FEF7B6FF4FF0200383F31188FEF788FE1B
:101F30000EE003980099FFF763FE0346002B07D0DD
:101F4000FEF796FE4FF0000383F31188059B41E0F6
:101F5000039B9B68002BECD0039B9B6803F1FF3233
:101F6000039B9A60039B5B69029A12781A7003F1D3
:101F70000102039B5A61029B03F101030293039B3D
:101F80005A69039B1B699A4203D3039BDA68039B3C
:101F90005A61049B002B02D0049B03989847FEF7DC
:101FA00067FE4FF0000383F31188059B03F10103E3
:101FB0000593019B03F1FF330193019B002B01D19A
:101FC000059B07E04FF0200383F31188FEF738FEEE
:101FD00000BFBDE7184607B000BD00BF7478000819
:101FE000074B03F1070323F007031A46054B1A605A
:101FF000054B23F007031A46044B1A60704700BFD5
:1020000018180020A80E002000500020AC0E002060
:1020100000B585B001904FF0200383F31188FEF7DF
:102020000FFE019800F00CF80390FEF721FE4FF030
:10203000000383F31188039B184605B000BD00BF61
:1020400000B585B00190FEF7ABFE019B03F10703DD
:1020500023F0070301930D4B1B681A460C4B1B68BA
:10206000D31A1A46019B9A4202D24FF0000309E0AC
:10207000074B1B680393064B1A68019BD218044B4D
:102080001A60039B184605B000BD00BFAC0E0020CF
:10209000A80E0020AFF30080AFF30080AFF3008004
:1020A000034B1B681A46034B1B68D31A184670472C
:1020B000AC0E0020A80E0020AFF30080AFF300802C
:1020C00008B5074B074A1A60054B4FF000029A60AB
:1020D000034B4FF00002DA600348FFF7E9FB08BD4D
:1020E000B00E002011200008C00E0020AFF30080C9
:1020F00000B587B001900091019B002B01D1384BB6
:102100000193009B03F1070323F007030093019B56
:1021100003F108030593019B03F110031846FFF731
:10212000E7FB36E0059B1B680493049B5A68009B01
:102130009A422CD3049B5A68009B03F108039A42ED
:1021400004D2049B1A68059B1A6017E0009B03F1F8
:102150000803049AD3180393049B1A68039B1A601C
:10216000049B5A68009BD31AA3F10802039B5A6090
:10217000059B039A1A60049B009A5A60049B019A7B
:102180001A60FFF755FC049B03F1080325E0049B4C
:102190000593059B1B68002BC4D1FFF749FC019BED
:1021A0001B68002B17D0019B1B68009A02F10802E4
:1021B0001046984703460493049B002B0BD0049BC6
:1021C000019A1A60049B009A5A60049B03F1080369
:1021D0000493049B01E04FF00003184607B000BDD4
:1021E000B00E0020AFF30080AFF30080AFF30080AB
:1021F00000B587B00190019B002B02D13A48FEF751
:1022000047FE019BA3F108030493049B1B680393FF
:10221000039B03F108030593039B03F11003184686
:10222000FFF766FB049A059B9A420BD3059B5B68FC
:1022300003F10803059AD218049B9A4202D92B484D
:10224000FEF726FE039B03F10802059B9A4203D08A
:10225000049A059B9A4242D9059B1B68002B04D027
:10226000059B1A68049B9A4239D9059B1A68049BFE
:102270001A60059B049A1A60049B5B6803F10803CB
:10228000049AD218049B1B689A420ED1049B5A6888
:10229000049B1B685B68D31803F10802049B5A6017
:1022A000049B1B681A68049B1A60059B5B6803F11A
:1022B0000803059AD218049B9A420CD1059B5A68D0
:1022C000049B5B68D31803F10802059B5A60049BCA
:1022D0001A68059B1A60FFF7ABFB07B000BD059BB2
:1022E0001B6805939EE700BFA0780008B07800083F
:1022F00000B587B001900091019B002B01D1184BD4
:102300000193019B03F110031846FFF7F1FA4FF018
:10231000000303934FF000030493019B03F10803B0
:1023200005930CE0059B1B685B68039AD318039325
:10233000049B03F101030493059B1B680593059B14
:102340001B68002BEED1009B002B02D0009B039A50
:102350001A60FFF76DFB049B184607B000BD00BF75
:10236000B00E0020AFF30080AFF30080AFF3008029
:1023700000B585B001900091009B0393FEF710FD1E
:10238000019B002B07D0009B002B04D0009B03F087
:102390000703002B02D00648FEF77AFD019B1A685E
:1023A000039B1A60019B039A1A6005B000BD00BF31
:1023B000F4780008AFF30080AFF30080AFF3008043
:1023C00000B583B0019000914FF0200383F3118892
:1023D000FEF736FC01980099FFF7CAFFFEF748FCAC
:1023E0004FF0000383F3118803B000BDAFF300800A
:1023F00008B501F005FD00F013FF064802F0F8FCF7
:1024000000F00EF800F0BCFB01F002F903F098FBBD
:1024100008BD00BF90830008AFF30080AFF30080D9
:1024200008B502F04DFA08BDAFF30080AFF30080AD
:1024300000B583B00190019B4FF001021A70019B1F
:102440004FF000025A60019B03F10C031846FFF79E
:102450002FFA03B000BD00BFAFF30080AFF30080E0
:1024600000B583B001900091019B002B02D0009B2E
:10247000002B02D11448FEF70BFD019B1B78012BAA
:102480000AD0019B1B78022B06D0019B1B78052BE1
:1024900002D00E48FEF7FCFC4FF0200383F31188B6
:1024A000FEF7CEFB019B009A5A60019802F028FAD1
:1024B000019B4FF002021A70FEF7DAFB4FF00003A7
:1024C00083F3118803B000BD10790008207900085B
:1024D00000B583B00190019B002B02D11348FEF799
:1024E000D7FC019B1B78012B0AD0019B1B78022B88
:1024F00006D0019B1B78052B02D00D48FEF7C8FCC7
:102500004FF0200383F31188FEF79AFB019802F045
:1025100097FA019B4FF001021A70FEF7A9FB4FF0EA
:10252000000383F3118803B000BD00BF30790008B9
:102530003C790008AFF30080AFF30080AFF3008078
:1025400000B58BB00790059204930B46ADF81A3096
:10255000079B002B15D0BDF81A30002B11D0049B1F
:10256000002B0ED0059B002B0BD00D9B002B05D014
:102570000D9B002B05D00C9B002B02D00E9B002B3B
:1025800002D11F48FEF784FC079B1B78022B02D068
:102590001C48FEF77DFC4FF0200383F31188FEF703
:1025A0004FFB079B4FF000029A60079B4FF003021E
:1025B0001A70BDF81A300C9A00920D9A01920E9A78
:1025C000029207981946059A049B02F011FB0990A4
:1025D000099BB3F1FF3F04D1079B4FF005021A702E
:1025E00003E0079B4FF002021A70FEF741FB4FF029
:1025F000000383F31188099B18460BB000BD00BF90
:102600006079000880790008AFF30080AFF30080A4
:1026100000B589B00590039202930B46ADF81230D5
:10262000059B002B0CD0BDF81230002B08D0029B6C
:10263000002B05D0039B002B02D00A9B002B02D15C
:102640001C48FEF725FC059B1B78022B02D01A487C
:10265000FEF71EFC4FF0200383F31188FEF7F0FA1B
:10266000059B4FF000029A60059B4FF004021A7020
:10267000BDF812300A9A009205981946039A029BF7
:1026800002F00EFA0790079BB3F1FF3F04D1059BC0
:102690004FF005021A7003E0059B4FF002021A701A
:1026A000FEF7E6FA4FF0000383F31188079B184604
:1026B00009B000BDA0790008BC790008AFF3008024
:1026C00000B589B00590039202930B46ADF8123025
:1026D0004FF0200383F31188FEF7B2FA059B4FF009
:1026E00000029A60059B4FF000021A70BDF812308C
:1026F0000A9A00920B9A019205981946039A029B36
:1027000002F026FB0790079BB3F1FF3F04D1059B26
:102710004FF005021A7003E0059B4FF002021A7099
:10272000FEF7A6FA4FF0000383F31188079B1846C3
:1027300009B000BDAFF30080AFF30080AFF30080BD
:1027400000B583B00190019B93F84220019B83F870
:102750004A20019802F09CFE019B5B681B68002BDD
:1027600006D0019B5B681B6801984FF001019847F8
:10277000019B4FF003021A7003B000BDAFF300805D
:1027800010B584B00190019B93F8403003F07F02B4
:10279000019B93F841304FEA032342EA0303B3F568
:1027A000407F63D0B3F5407F12DC022B00F0008144
:1027B000022B05DC002B28D0012B00F0EB80D8E1A8
:1027C000B3F5807F32D0B3F5817F00F05681D0E140
:1027D000B3F5C06F78D0B3F5C06F08DC40F20232B9
:1027E000934200F08481B3F5A06F5FD0C1E1B3F5EF
:1027F000106F00F0A08040F60242934200F0CA80C1
:10280000B3F5006F00F08780B3E1019B03F148034B
:102810001A46019B5A63019B4FF002029A63019B87
:102820004FF00002DA634FF00103A4E1019B93F83B
:102830004230012B17D1019BB3F8483023F002033B
:102840009AB2019BA3F84820019B4FF000025A6303
:10285000019B4FF000029A63019B4FF00002DA6384
:102860004FF0010387E14FF0000384E1019B93F8EF
:102870004230012B17D1019BB3F8483043F00203DB
:102880009AB2019BA3F84820019B4FF000025A63C3
:10289000019B4FF000029A63019B4FF00002DA6344
:1028A0004FF0010367E14FF0000364E1019B4FF03B
:1028B00000025A63019B4FF000029A63019B9C4AFD
:1028C000DA634FF0010356E1019B5B685C68019B92
:1028D00093F84310019B93F84220019B03F14003BE
:1028E00003F104031B880198A0470390039B002B6E
:1028F00002D14FF000033EE1039B5A68019B5A63EB
:10290000039B1A68019B9A63019B4FF00002DA63F4
:102910004FF001032FE1019B03F14B02019B5A632E
:10292000019B4FF001029A63019B4FF00002DA63B2
:102930004FF001031FE1019B93F84220019B83F8B4
:102940004B20019B93F84B30002B04D1019B4FF09F
:1029500003021A7003E0019B4FF004021A70019BFE
:102960005B681B68002B06D0019B5B681B680198A5
:102970004FF002019847019B4FF000025A63019B00
:102980004FF000029A63019B4FF00002DA634FF0B0
:102990000103F0E0019B674A5A63019B4FF002027A
:1029A0009A63019B4FF00002DA634FF00103E2E00B
:1029B000019B93F84430DBB25BB2002B2EDA019B13
:1029C00093F8443003F00F03DBB20198194602F08C
:1029D00067FE0346012B02D0022B0ED01BE0019BA9
:1029E000554A5A63019B4FF002029A63019B4FF0D4
:1029F0000002DA634FF00103BDE0019B4F4A5A63C6
:102A0000019B4FF002029A63019B4FF00002DA63D0
:102A10004FF00103AFE04FF00003ACE0019B93F8EF
:102A2000443003F00F03DBB20198194602F018FEA0
:102A30000346012B02D0022B0ED01BE0019B3E4A25
:102A40005A63019B4FF002029A63019B4FF0000210
:102A5000DA634FF001038EE0019B384A5A63019B11
:102A60004FF002029A63019B4FF00002DA634FF0CD
:102A7000010380E04FF000037DE0019B93F84230BA
:102A8000002B02D04FF0000375E0019B93F8443017
:102A900003F00F03002B1BDD019B93F84430DBB2E6
:102AA0005BB2002B0ADA019B93F8443003F00F036A
:102AB000DBB20198194603F013F809E0019B93F883
:102AC000443003F00F03DBB20198194602F0E0FF37
:102AD000019B4FF000025A63019B4FF000029A6382
:102AE000019B4FF00002DA634FF0010343E0019BCA
:102AF00093F84230002B02D04FF000033BE0019BE3
:102B000093F8443003F00F03002B23DD019B93F86F
:102B10004430DBB25BB2002B12DA019B93F84430F5
:102B200003F00F03DBB20198194602F091FF11E0A8
:102B30004127000890820008B0820008A0820008A7
:102B4000019B93F8443003F00F03DBB20198194660
:102B500002F05EFF019B4FF000025A63019B4FF0B1
:102B600000029A63019B4FF00002DA634FF0010309
:102B700001E04FF00003184604B010BDAFF3008031
:102B800008B502F01DFC08BDAFF30080AFF3008074
:102B900082B00190019B4FF001021A70019B4FF02F
:102BA00000025A60019B4FF000029A60019B4FF0B7
:102BB00000029A81019B4FF00002DA8102B0704757
:102BC00000B585B001900091019B002B02D0009BC5
:102BD000002B02D11C48FEF75BF94FF0200383F372
:102BE0001188FEF72DF8019B1B78012B06D0019B65
:102BF0001B78022B02D01548FEF74AF9019B009A78
:102C00005A604FF0000303930BE0019B039A02F11B
:102C100004024FF0000143F82210039B03F101036B
:102C20000393039B072BF0D9019802F0D1FB019B82
:102C30004FF002021A70FEF71BF84FF0000383F307
:102C4000118805B000BD00BF007A0008107A0008A6
:102C500000B585B003900B4601928DF80B30FEF75E
:102C60009FF8039B002B02D0019B002B02D11F4831
:102C7000FEF70EF9039B1B78042B02D01C48FEF7CD
:102C800007F99DF80B20039B02F1040253F8223050
:102C9000002B02D01748FEF7FBF8019B1B6803F0DE
:102CA0001003002B11D1019B5B6918464FF0000106
:102CB0004FF00C02FDF724FA019B9B6918464FF078
:102CC00000014FF01002FDF71BFA9DF80B20039B4B
:102CD00002F10402019943F822109DF80B30039889
:102CE000194602F0E5FB05B000BD00BF3C7A0008C4
:102CF000547A0008707A0008AFF30080AFF30080C8
:102D000000B583B001900B468DF80330FEF748F80C
:102D1000019B002B02D11648FEF7BAF8019BDB8914
:102D20001A469DF8033042FA03F303F00103DBB2C5
:102D3000002B02D04FF0010317E0019BDB899AB210
:102D40009DF803304FF0010101FA03F39BB242EA10
:102D500003039BB29AB2019BDA819DF8033001987C
:102D6000194602F015FE4FF00003184603B000BDEF
:102D7000C47A0008AFF30080AFF30080AFF30080A7
:102D800000B583B001900B468DF80330FEF708F8CC
:102D9000019B002B02D11648FEF77AF8019B9B8914
:102DA0001A469DF8033042FA03F303F00103DBB245
:102DB000002B02D04FF0010317E0019B9B899AB2D0
:102DC0009DF803304FF0010101FA03F39BB242EA90
:102DD00003039BB29AB2019B9A819DF8033001983C
:102DE000194602F0F5FD4FF00003184603B000BD90
:102DF000DC7A0008AFF30080AFF30080AFF300800F
:102E000000B585B00190019B4FF002021A70019B42
:102E10004FF00002A3F84820019B4FF0000283F816
:102E20004A20019B4FF0000283F84B20019B4FF09A
:102E300000029A81019B4FF00002DA814FF00003FB
:102E400003930BE0019B039A02F104024FF000018F
:102E500043F82210039B03F101030393039B072B09
:102E6000F0D9019B4FF0000283F83020019802F066
:102E7000DFFA05B000BD00BFAFF30080AFF3008004
:102E800000B585B001900B468DF80330019B4FF0E3
:102E9000000283F83020019B03F140039DF80320DA
:102EA000019811461A4602F01BFC019B5B689B6867
:102EB000002B07D0019B5B689B68019898470346ED
:102EC000002B28D1019B93F8403003F06003002BC6
:102ED00005D10198FFF754FC0346002B1BD1019844
:102EE0004FF0000102F0B4FD01984FF0000102F034
:102EF0008FFD019B5B681B68002B06D0019B5B6804
:102F00001B6801984FF005019847019B4FF005029F
:102F100083F830206CE0019B03F1400303F10603CA
:102F20001B880393019B9A6B039B9A4202D9019BD6
:102F3000039A9A63019B93F84030DBB25BB2002B9B
:102F40002BDA019B9B6B002B13D0019B4FF00102EE
:102F500083F83020019B5A6B019B9B6B01984FF0CB
:102F6000000102F0D5FC01984FF0000102F030FDA5
:102F70003EE0019B4FF0020283F8302001984FF0B1
:102F800000014FF000024FF0000302F081FC0198B5
:102F90004FF0000102F0FCFC2AE0019B9B6B002B30
:102FA00013D0019B4FF0030283F83020019B5A6B32
:102FB000019B9B6B01984FF0000102F069FC0198A6
:102FC0004FF0000102F0E4FC12E0019B4FF004021C
:102FD00083F8302001984FF000014FF000024FF0CD
:102FE000000302F095FC01984FF0000102F0F0FCA4
:102FF00005B000BDAFF30080AFF30080AFF30080F9
:1030000000B585B001900B468DF80330019B93F815
:103010003030012B02D0042B3BD048E0019B03F160
:10302000400303F106031B880393019B9A6B039BE8
:103030009A421AD2019B9B6B019A1269128AB3FBC6
:10304000F2F102FB01F29B1A002B0ED101984FF016
:1030500000014FF000024FF0000302F059FC01980C
:103060004FF0000102F0B4FC3CE0019B4FF0020283
:1030700083F8302001984FF000014FF000024FF02C
:10308000000302F005FC01984FF0000102F080FC03
:1030900028E0019BDB6B002B03D0019BDB6B0198CD
:1030A0009847019B4FF0000283F830201AE0019806
:1030B0004FF0000102F0CCFC01984FF0000102F04B
:1030C000A7FC019B5B681B68002B06D0019B5B681B
:1030D0001B6801984FF005019847019B4FF00502CE
:1030E00083F8302005B000BDAFF30080AFF300805F
:1030F00000B583B001900B468DF80330019B93F827
:103100003030022B15D0032B28D1019B4FF0040245
:1031100083F8302001984FF000014FF000024FF08B
:10312000000302F0F5FB01984FF0000102F050FCA3
:103130002FE0019B1B699B69DB68002B0DD1019B74
:10314000DB6B002B03D0019BDB6B01989847019B45
:103150004FF0000283F830201BE000BF01984FF0D1
:10316000000102F075FC01984FF0000102F050FCE4
:10317000019B5B681B68002B06D0019B5B681B688A
:1031800001984FF005019847019B4FF0050283F825
:10319000302003B000BD00BFAFF30080AFF300806C
:1031A00082B00190024B5A68019B9A6002B070474E
:1031B000001000E0AFF30080AFF30080AFF30080B9
:1031C00084B00190114B5B680393019B9B68039A49
:1031D000D21A0F4B1B68D21A019B9A60019B9A6806
:1031E000019BDB689A4204D9019B9A68019BDA60D3
:1031F00009E0019B9A68019B1B699A4203D2019BDB
:103200009A68019B1A6104B0704700BF001000E08B
:10321000D00E0020AFF30080AFF30080AFF300804A
:1032200000B587B00A4B4FF000021A6001AB184698
:1032300000F016F8019B01AA10469847029B01AACC
:1032400010469847039A024B1A6007B000BD00BFB2
:10325000D00E0020AFF30080AFF30080AFF300800A
:1032600082B00190019B094A1A60019B084A5A608A
:10327000019B4FF000029A60019B4FF00002DA6060
:10328000019B4FF0FF321A6102B07047A131000874
:10329000C1310008AFF30080AFF30080AFF30080CE
:1032A00084B00190019B1B680393039B1A68019BE8
:1032B0001A60019B1B68019A5A60039B184604B070
:1032C000704700BFAFF30080AFF30080AFF3008022
:1032D00000B585B0039002910192039B03F1300386
:1032E00018460299019A4FF0FF33FEF709FE034694
:1032F000184605B000BD00BFAFF30080AFF30080FB
:1033000000B585B0039002910192039B03F1100375
:1033100018460299019A4FF0FF33FEF709FD034664
:10332000184605B000BD00BFAFF30080AFF30080CA
:1033300082B00190019B9B6B002B14BF00230123E3
:10334000184602B0704700BFAFF30080AFF30080B3
:1033500082B00190019B9B69002B14BF00230123C5
:10336000184602B0704700BFAFF30080AFF3008093
:1033700000B585B003900B4601928DF80B30039B8E
:1033800003F130029DF80B3010461946019AFEF702
:1033900067FD0346184605B000BD00BFAFF30080CF
:1033A00000B583B001900091019B03F11003184612
:1033B0000099FEF76DFC0346184603B000BD00BF40
:1033C00000B585B00390029101920093039B03F135
:1033D000300318460299019A009BFEF791FD0346BF
:1033E000184605B000BD00BFAFF30080AFF300800A
:1033F00000B585B00390029101920093039B03F105
:10340000100318460299019A009BFEF791FC0346AF
:10341000184605B000BD00BFAFF30080AFF30080D9
:1034200000B585B001904FF0200383F31188FDF7BC
:1034300007FC019B9B680393019B4FF000029A607D
:10344000FDF716FC4FF0000383F31188039B184629
:1034500005B000BDAFF30080AFF30080AFF3008094
:1034600000B585B00190019B5B690393039BD3F882
:10347000D0301B68DB8903F00803002B52D1039B7B
:103480009B69002B4ED1FDF7F3FB4FF0000383F354
:103490001188039BD3F8D0301A68039BDB69104670
:1034A0004FF003011A464FF0400302F059F9029021
:1034B0004FF0200383F31188FDF7C2FB039BD3F881
:1034C000D0301B6818464FF00301FFF719FC039B2F
:1034D0009B6843F00402039B9A60039B03F104037F
:1034E00018464FF00001FEF74BFB039BDA69039B84
:1034F0009A62039B029A9A610DE0039B03F1100309
:103500001846FFF7CDFE03461846FDF7B9FD034602
:103510004FF000029A62039B1A69039B03F11003A8
:103520009A42EAD105B000BDAFF30080AFF300804E
:1035300000B585B00190019B9B690393039B1B6CB5
:103540001A46039BDB6BD31A1A46039B9B6BD31A59
:103550000293039BD3F8D0301B689B8903F00203CE
:10356000002B52D1FDF784FB4FF0000383F3118849
:10357000039BD3F8D0301A68039BDB6B10464FF0E7
:1035800001011A46029B02F03BF94FF0200383F33E
:103590001188FDF755FB039BD3F8D0301B68184604
:1035A0004FF00101FFF7ECFB039B9B6843F008021F
:1035B000039B9A60039B03F1040318464FF000013C
:1035C000FEF7DEFA039BDA6B039B5A64039B1B6CCA
:1035D0001A46039BDB6BD31A1A46039B9A630DE0D2
:1035E000039B03F130031846FFF75AFE03461846C3
:1035F000FDF746FD03464FF000029A62039B1A6BEB
:10360000039B03F130039A42EAD105B000BD00BF2D
:10361000704700BFAFF30080AFF30080AFF30080CE
:1036200000B583B00190019B184A1A60019B03F119
:1036300004031A46019B5A60019B4FF000029A60F6
:10364000019B4FF001021A73019B03F11002019BD1
:1036500003F15003104619464FF040020C4BFEF7A1
:10366000EFFA019B03F13002019B03F19003104636
:1036700019464FF04002074BFEF7CAFB019A019B27
:103680005A62019A019B9A6403B000BDC08200088F
:103690006134000831350008AFF30080AFF30080DB
:1036A00000B583B001900091019B002B02D1184816
:1036B000FDF7EEFB4FF0200383F31188FDF7C0FA0E
:1036C000019B1B7B012B06D0019B1B7B022B02D095
:1036D0001048FDF7DDFB019B009AC3F8D020009B4A
:1036E0001B68019A9A60019B4FF002021A73FDF762
:1036F000BFFA4FF0000383F31188009B1A68009B08
:1037000003F1040310461946FFF75AFA03B000BD4F
:10371000307B0008407B0008AFF30080AFF30080EF
:1037200082B00190019B93F8403003F06003202B9E
:1037300037D1019B93F84130212B04D0222B1ED08E
:10374000202B0ED02AE0019B184A5A63019B4FF0B0
:1037500007029A63019B4FF00002DA634FF0010306
:1037600021E0019B114A5A63019B4FF007029A63C3
:10377000019B4FF00002DA634FF0010313E0019B5D
:103780004FF000025A63019B4FF000029A63019BC5
:103790004FF00002DA634FF0010304E04FF0000342
:1037A00001E04FF00003184602B07047F80800200F
:1037B00000B585B001900B468DF80330019B9B68E6
:1037C00003934FF0200383F31188FDF769FA039BFD
:1037D0001B6C1A46039BDB6BD31A1A46039B9B6B2D
:1037E000D31A0293029B002B4CD0FDF771FA4FF0D5
:1037F000000383F31188039BDB6B9DF80320019882
:1038000011461A46029B01F0FBFF4FF0200383F3A1
:103810001188FDF745FA9DF8033001981946FFF726
:10382000AFFA039B9B6843F00802039B9A60039BDB
:1038300003F1040318464FF00001FEF7A1F9039BC2
:10384000DA6B039B5A64039B1B6C1A46039BDB6B6E
:10385000D31A1A46039B9A630DE0039B03F13003CE
:103860001846FFF71DFD03461846FDF709FC034601
:103870004FF000029A62039B1A6B039B03F1300323
:103880009A42EAD1FDF724FA4FF0000383F311883E
:1038900005B000BDAFF30080AFF30080AFF3008050
:1038A00000B585B001900B468DF80330019B9B68F5
:1038B00003934FF0200383F31188FDF7F1F9039B85
:1038C0009B69002B48D1FDF703FA4FF0000383F307
:1038D0001188039BDB699DF80320019811461A4665
:1038E0004FF0400301F03CFF02904FF0200383F3C0
:1038F0001188FDF7D5F99DF8033001981946FFF7B7
:10390000FFF9039B9B6843F00402039B9A60039BAF
:1039100003F1040318464FF00001FEF731F9039B51
:10392000DA69039B9A62039B029A9A610DE0039BFA
:1039300003F110031846FFF7B3FC03461846FDF7E2
:103940009FFB03464FF000029A62039B1A69039B98
:1039500003F110039A42EAD1FDF7BAF94FF00003E0
:1039600083F3118805B000BDAFF30080AFF3008092
:1039700082B001900B468DF8033002B0704700BF53
:1039800000B583B0FDF7BCF90C4B1B6803F00F03C7
:1039900001930A4B4FF00F025A60094B1B68002B32
:1039A00006D0074B1B68064A526810460199984793
:1039B000FDF7CEF9FCF75CFF03B000BD000002404C
:1039C000D80E0020AFF30080AFF30080AFF300808B
:1039D00000B583B0FDF794F90D4B1B684FEA131344
:1039E00003F00F0301930A4B4FF0F0025A60094BAA
:1039F0009B68002B06D0074B9B68064AD26810468E
:103A000001999847FDF7A4F9FCF732FF03B000BD18
:103A100000000240D80E0020AFF30080AFF300801A
:103A200000B583B0FDF76CF90D4B1B684FEA13230B
:103A300003F00F0301930A4B4FF470625A60094B75
:103A40001B69002B06D0074B1B69064A52691046BA
:103A500001999847FDF77CF9FCF70AFF03B000BD18
:103A600000000240D80E0020AFF30080AFF30080CA
:103A700000B583B0FDF744F90D4B1B684FEA1333D3
:103A800003F00F0301930A4B4FF470425A60094B45
:103A90009B69002B06D0074B9B69064AD2691046EA
:103AA00001999847FDF754F9FCF7E2FE03B000BD19
:103AB00000000240D80E0020AFF30080AFF300807A
:103AC00000B583B0FDF71CF90D4B1B684FEA13439B
:103AD00003F00F0301930A4B4FF470225A60094B15
:103AE0001B6A002B06D0074B1B6A064A526A104617
:103AF00001999847FDF72CF9FCF7BAFE03B000BD19
:103B000000000240D80E0020AFF30080AFF3008029
:103B100000B583B0FDF7F4F80D4B1B684FEA135363
:103B200003F00F0301930A4B4FF470025A60094BE4
:103B30009B6A002B06D0074B9B6A064AD26A104646
:103B400001999847FDF704F9FCF792FE03B000BD18
:103B500000000240D80E0020AFF30080AFF30080D9
:103B600000B583B0FDF7CCF80D4B1B684FEA13632B
:103B700003F00F0301930A4B4FF070625A60094B38
:103B80001B6B002B06D0074B1B6B064A526B104673
:103B900001999847FDF7DCF8FCF76AFE03B000BD19
:103BA00000000240D80E0020AFF30080AFF3008089
:103BB00082B0144B4FF000021A604FF000030193E3
:103BC00016E01149019A13464FEA43039B184FEA46
:103BD0008303CB181B684FF000021A600B4B019A4D
:103BE0004FF0000143F83210019B03F101030193F0
:103BF000019B062BE5DD064B4FF0FF325A6002B009
:103C0000704700BFD40E0020F0820008D80E0020BC
:103C100000000240AFF30080AFF30080AFF30080FC
:103C200000B585B00390029101920093039B002B95
:103C300002D13148FDF72CF9039B5B7A4FF001026A
:103C400002FA03F31A462D4B1B6802EA0303002B0A
:103C500002D04FF001034BE0039B5B7A1A46284BDE
:103C6000019943F83210039B5B7A254A4FEAC3035C
:103C7000D318009A5A60039B5B7A4FF0010202FA54
:103C800003F31A461D4B1B681A431C4B1A601B4B4F
:103C90001B6803F07F03002B05D01A4B194A5269A9
:103CA00042F001025A61039B1B68039A1268126872
:103CB00022F001021A60039B5B68039A127A4FF0AC
:103CC0000F0101FA02F21A60039B1B684FF0000219
:103CD0001A60019B002B09D0039B9B7A1A46029B1A
:103CE0004FEA031310461946FCF73AFE4FF0000363
:103CF000184605B000BD00BF707B0008D40E002040
:103D0000D80E002000100240AFF30080AFF3008017
:103D100000B583B00190019B002B02D11948FDF73B
:103D2000B7F8019B5B7A4FF0010202FA03F31A46DF
:103D3000154B1B6802EA0303002B02D11348FDF761
:103D4000A7F8019B9B7A1846FCF75AFE019B5B7A09
:103D50004FF0010202FA03F36FEA03031A460A4B1B
:103D60001B681A40084B1A60074B1B6803F07F035F
:103D7000002B05D1064B064A526922F001025A6116
:103D800003B000BD807B0008D40E0020907B0008AB
:103D900000100240AFF30080AFF30080AFF300806B
:103DA000134B134A126842F480721A60114B1B6A5B
:103DB00003F44073B3F5407F07D00E4B4FF48032CD
:103DC0001A620C4B4FF000021A620A4B1B6A03F492
:103DD0000043002B0BD1074B064A126A42F4407293
:103DE0001A62044B034A126A42F400421A62704794
:103DF0000070004000100240AFF30080AFF300807D
:103E000008B51E4B1B691D4B4FF0FF321A611B4B4F
:103E10004FF000021A61194BDB68184B4FF0FF326C
:103E2000DA60164B4FF00002DA60154B154A5A6003
:103E3000134B4FF000029A60114B4FF007021A60CB
:103E4000114B114AD26842F08072DA600F4B0F4A70
:103E5000126842F001021A60084B084AD26942F027
:103E60008052DA61054B054AD26942F00062DA619C
:103E7000FFF796FFFFF79CFE08BD00BF0010024051
:103E800010E000E03F190100F0ED00E0001000E05C
:103E9000294B294A126842F001021A6000BF264BE2
:103EA0001B6803F00203002BF9D0234B224A12684F
:103EB00002F0F9021A60204B4FF000025A6000BF76
:103EC0001D4B5B6803F00C03002BF9D11A4B1A4A07
:103ED000126842F480321A6000BF174B1B6803F46B
:103EE0000033002BF9D0144B134A526842F4E81205
:103EF0005A60114B104A126842F080721A6000BF7B
:103F00000D4B1B6803F00073002BF9D00A4B0B4AD2
:103F10005A600B4B4FF012021A60074B064A526868
:103F200042F002025A6000BF034B5B6803F00C03CF
:103F3000082BF9D1704700BF0010024000641D003B
:103F400000200240AFF30080AFF30080AFF30080A9
:103F500084B00190019B1B6B0393039B4FF40042C1
:103F60001A80039B4FF000021A80039B4FF000025F
:103F70009A80039B4FF000029A82019BDB6A1B68C8
:103F8000019AD26A1268126822F001021A60019B3B
:103F9000DB6A5B68019AD26A127A4FF00F0101FA6C
:103FA00002F21A60019B9B6A1B68019A926A12686E
:103FB000126822F001021A60019B9B6A5B68019AF9
:103FC000926A127A4FF00F0101FA02F21A6004B0FD
:103FD000704700BFAFF30080AFF30080AFF3008005
:103FE00000B585B00190019B0393039BDB69002B17
:103FF00010D0039BDB6902930398FFF7A9FF039B93
:104000004FF00002DA61029B4FF0FF329A62029891
:10401000FDF736F805B000BDAFF30080AFF30080C8
:1040200000B587B00190019B1B6B0493019B5B68FB
:104030005B680393019B5B681B7A8DF80B30019BD7
:10404000002B06D0039B002B03DD039A6E4B9A4294
:1040500002DD6E48FCF71CFF049B9B889BB223F09B
:104060003F039AB2049B9A80049B9B889BB243F0C7
:1040700024039AB2049B9A804FF00003ADF81630E7
:1040800040F6FF73ADF81430039A614B9A4236DC68
:104090009DF80B30012B02D05E48FCF7F9FE039B24
:1040A0004FEA43025C4B93FBF2F102FB01F29B1AD5
:1040B000002B02D05948FCF7EBFE039B4FEA430369
:1040C000554A92FBF3F3ADF81430BDF81430032BCE
:1040D00002D85348FCF7DCFEBDF814304FEA035316
:1040E0004FEA13539AB2BDF8163042EA03039BB26B
:1040F000ADF81630049B4FF025021A8475E0039A40
:10410000484B9A4271DC9DF80B30022B06D09DF88B
:104110000B30032B02D04448FCF7BAFE9DF80B305D
:10412000022B1AD1039A13464FEA43039A183A4BCB
:1041300093FBF2F102FB01F29B1A002B02D03B48E9
:10414000FCF7A6FE039A13464FEA43039B18324A34
:1041500092FBF3F3ADF8143029E09DF80B30032BFC
:1041600025D1039A13464FEA83039B184FEA830233
:104170009A18294B93FBF2F102FB01F29B1A002BD8
:1041800002D02B48FCF784FE039A13464FEA8303C0
:104190009B184FEA83029B181F4A92FBF3F3ADF87A
:1041A0001430BDF8163043F48043ADF81630BDF836
:1041B0001430002B02D11F48FCF76AFEBDF8143002
:1041C0004FEA03534FEA13539BB26FEA43436FEA3C
:1041D00053439AB2BDF8163042EA03039BB2ADF8DE
:1041E0001630049B4FF00B021A84BDF8142040F6E1
:1041F000FF739A4202D91048FCF74AFE049BBDF8AF
:1042000016209A8307B000BD00093D00B07B00086E
:10421000A0860100C87B000800512502E07B000851
:10422000F87B0008801A0600107C0008287C000833
:10423000407C0008587C0008707C0008AFF30080C8
:1042400086B00190019B1B6B0493019B5B681B78FC
:104250008DF80F30049B1B88ADF816309DF80F3099
:10426000022B0AD0032B15D0012B1AD1BDF8163022
:1042700023F00A03ADF8163013E0BDF8163043F012
:104280000203ADF81630BDF8163023F00803ADF880
:10429000163006E0BDF8163043F00A03ADF81630CC
:1042A00000BF049BBDF816201A8006B0704700BFFF
:1042B00000B587B00190019B1B7843F00103DAB28F
:1042C000019B1A70744B9B684FEA933303F0010310
:1042D000DBB2002B04D0704B4FF480425A6103E0F4
:1042E0006D4B4FF480421A61019B1B6B0593059B3C
:1042F0001B8B9BB20493059B9B8A9BB20393049BED
:104300004FEA0342039B42EA030323F07F43634ADD
:10431000934224D0614A934203D8614A934207D022
:104320009FE0604A934243D05F4A934253D098E063
:10433000594B9B684FEA533303F00103DBB2002B68
:1043400004D0554B4FF400525A6103E0524B4FF4E6
:1043500000521A61019B1A8C059B1A8281E0059B11
:104360009B889BB223F400739AB2059B9A80019BB1
:104370009B6A1B68019A926A1268126842F00102F5
:104380001A60059B9B889BB243F480539AB2059BAD
:104390009A80019B9B6A1B685B68012B60D8059B18
:1043A0001B889BB223F480639AB2059B1A8058E065
:1043B000059B9B889BB223F400739AB2059B9A805D
:1043C000019BDB6A1B68019AD26A1268126842F08C
:1043D00001021A6045E0019B9B6A1B685B68002B29
:1043E0000FD0019B1B8C43F001039AB2019B1A84EE
:1043F000059B1B889BB243F4A0639AB2059B1A806D
:10440000A9E0059B9B889BB223F400739AB2059B9D
:104410009A80059B1B889BB243F400739AB2059B5C
:104420001A804FF0200383F31188FCF739FC019BBD
:10443000DB69002B0DD0019BDB690293019B4FF0E0
:104440000002DA61029B4FF000029A620298FCF7C8
:1044500017FEFCF73DFC4FF0000383F3118800E0EA
:1044600000BF039B03F00A03002B56D0019B1B786F
:1044700043F00403DAB2019B1A70074B9B684FEAC2
:10448000133303F00103DBB2002B0FD0024B4FF4C8
:1044900080525A610EE000BF000C01400200030090
:1044A0000100030082000700840007002B4B4FF43B
:1044B00080521A61019B93F83430002B2BD0019B62
:1044C0009B6A1B68019A926BDA60019B9B6A1B686E
:1044D000019AD26B5A60019BDB6A1B68019A126CCD
:1044E000DA60019BDB6A1B68019A526C5A60019B7F
:1044F0009B6A1B68019A926A1268126842F0010274
:104500001A60019BDB6A1B68019AD26A1268126802
:1045100042F001021A60059B1B8B039B03F0100302
:10452000002B18D0059B1B8B019B1B7843F00803C5
:10453000DAB2019B1A70059B9B889BB243F400730F
:104540009AB2059B9A80059B1B889BB243F48063BB
:104550009AB2059B1A8007B000BD00BF000C014055
:1045600000B585B001900091019B1B6B0393009BEC
:1045700003F00803002B01D0FCF722F9019B9B6A92
:104580001B68019A926A1268126822F001021A608E
:10459000019B9B6A5B68019A926A127A4FF00F0145
:1045A00001FA02F21A60039B9B889BB223F48053AA
:1045B0009AB2039B9A80039B1B889BB223F480636F
:1045C0009AB2039B1A80039B1B889BB243F400732F
:1045D0009AB2039B1A804FF0200383F31188FCF7F3
:1045E0005FFB019BDB69002B0DD0019BDB69029314
:1045F000019B4FF00002DA61029B4FF000029A62C9
:104600000298FCF73DFDFCF763FB4FF0000383F3DA
:10461000118805B000BD00BFAFF30080AFF300808C
:1046200000B585B001900091019B1B6B0393009B2B
:1046300003F00803002B01D0FCF7C2F8019BDB6AF2
:104640001B68019AD26A1268126822F001021A608D
:10465000019BDB6A5B68019AD26A127A4FF00F0104
:1046600001FA02F21A60039B9B889BB243F4007329
:104670009AB2039B9A8005B000BD00BFAFF30080E3
:1046800000B587B00190019B1B6B04934FF0200392
:1046900083F31188FCF704FB019BDB6A1B68019A1A
:1046A000D26A1268126822F001021A60019BDB6A6A
:1046B0005B68019AD26A127A4FF00F0101FA02F296
:1046C0001A60019B9B6A1B68019A926A12681268C1
:1046D00022F001021A60019B9B6A5B68019A926A50
:1046E000127A4FF00F0101FA02F21A60FCF7F0FAA9
:1046F0004FF0000383F311884FF000030593049BF0
:104700009B8A9BB203F48073002B0BD0049B9B8A83
:104710009BB223F480739AB2049B9A82059B43F068
:1047200001030593049B9B8A9BB203F40073002B47
:104730000BD0049B9B8A9BB223F400739AB2049B18
:104740009A82059B43F002030593049B9B8A9BB2CC
:1047500003F48063002B1BD0049B9B8A9BB223F441
:1047600080639AB2049B9A82049B9B889BB223F439
:1047700000739AB2049B9A80049B1B889BB243F4FB
:1047800000739AB2049B1A80059B43F004030593BF
:10479000049B9B8A9BB203F40063002B0BD0049B09
:1047A0009B8A9BB223F400639AB2049B9A82059B76
:1047B00043F008030593049B9B8A9BB203F4805348
:1047C000002B0BD0049B9B8A9BB223F480539AB29C
:1047D000049B9A82059B43F010030593049B9B8ADC
:1047E0009BB203F48043002B0BD0049B9B8A9BB2AB
:1047F00023F480439AB2049B9A82059B43F02003E2
:104800000593049B9B8A9BB29BB21BB2002B0DDAD3
:10481000049B9B8A9BB24FEA43434FEA53439AB2AD
:10482000049B9A82059B43F040030593059B002B54
:1048300020D0019B059A9A604FF0200383F31188E2
:10484000FCF72EFA019BDB69002B0DD0019BDB6985
:104850000393019B4FF00002DA61039B6FF00102AA
:104860009A620398FCF70CFCFCF732FA4FF0000355
:1048700083F3118807B000BDAFF30080AFF3008071
:1048800008B5FCF73DFA0448FFF712FDFCF760FAA3
:10489000FBF7EEFF08BD00BF100F0020AFF3008054
:1048A00008B5FCF72DFA0448FFF7EAFEFCF750FACA
:1048B000FBF7DEFF08BD00BF100F0020AFF3008044
:1048C00008B50848FDF7B4FD064B4FF00002DA6169
:1048D000044B054A1A63034B044A9A62014B044A8B
:1048E000DA6208BD100F0020005400403883000831
:1048F0002C830008AFF30080AFF30080AFF300809B
:1049000000B585B00190019B1B6B0393019B4FF099
:104910008A025A62019B1B78012B47D1019A3F4BB7
:104920009A4243D13E4B3E4A126942F400121A6148
:104930003B4B4FF000021A61019B9A6A394B1046BB
:104940004FF00A011A46019BFFF76AF90290029B99
:10495000002B02D03448FCF79BFA019BDA6A334BF8
:1049600010464FF00A011A46019BFFF759F90290D1
:10497000029B002B02D02E48FCF78AFA284B284ACB
:10498000D26942F40012DA614FF01F004FF0A0012B
:10499000FBF7E6FF4FF020004FF0A001FBF7E0FF30
:1049A000019B5B6A43F48052019B5A62019BDB6A64
:1049B0001B68019A526A42F010021A60019B9B6ABE
:1049C0001B68019A526A1A60019B9B6A1B68039AD2
:1049D00002F110029A60019BDB6A1B68039A02F1E4
:1049E00010029A60039B4FF400421A80039B4FF021
:1049F00000021A80039B4FF410629A800198FFF71F
:104A00000FFB0198FFF71CFC039B1B889BB243F034
:104A100001039AB2039B1A8005B000BD100F00205D
:104A20000010024061450008887C0008214600080B
:104A30009C7C0008AFF30080AFF30080AFF30080F0
:104A400000B583B00190019B1B78012B1ED001980B
:104A5000FFF77EFA019BDB6A1846FFF759F9019BC5
:104A60009B6A1846FFF754F9019A094B9A420DD1F7
:104A70004FF01F00FBF7C4FF4FF02000FBF7C0FF13
:104A8000044B044AD26922F40012DA6103B000BD7B
:104A9000100F002000100240AFF30080AFF3008041
:104AA00000B58BB00390019200930B46ADF80A302D
:104AB000039B1B6B0993009B012B02D84748FCF713
:104AC000E7F90C9BB3F1FF3F06D004AB18460C99F5
:104AD000434A039BFCF704FAFCF7CAF84FF00003C3
:104AE00083F31188BDF80A304FEA43039BB243F0C9
:104AF00001039BB29AB2039B1A84039B4FF00002FE
:104B00009A60039B9B6A1B68019ADA60039B9B6A0D
:104B10001B68009A5A6015E04FF0200383F3118858
:104B2000FCF78EF80C9BB3F1FF3F05D0079B002BE1
:104B300002D14FF0FF334EE0FCF79AF84FF000033C
:104B400083F31188099B1B8B9BB203F00203002B9C
:104B5000E2D1099B1B889BB203F40073002BDBD1CD
:104B60004FF0200383F31188FCF76AF80C9BB3F134
:104B7000FF3F05D0079B002B02D14FF0FF332AE007
:104B8000039B4FF0000283F83420099B9B889BB263
:104B900043F400739AB2099B9A80099B1B889BB2CD
:104BA00043F4A0639AB2099B1A800E4BDA69039B07
:104BB000DA614FF00200FCF79BFA0C9BB3F1FF3F68
:104BC00006D0079B002B03D004AB1846FCF7D8F99E
:104BD000044BDB699B6A18460BB000BDB07C000833
:104BE000E13F0008880E0020AFF30080AFF30080A3
:104BF00000B58BB00390019200930B46ADF80A30DC
:104C0000039B1B6B09930D9B002B08D00D9B012B65
:104C100002D90C9B002B02D14A48FCF739F90E9BB4
:104C2000B3F1FF3F06D004AB18460E99464A039BEA
:104C3000FCF756F9FCF71CF84FF0000383F31188DA
:104C4000BDF80A304FEA43039AB2039B1A84039BD0
:104C50004FF000029A60039BDB6A1B68019ADA60DE
:104C6000039BDB6A1B68009A5A60039B9B6A1B6864
:104C70000C9ADA60039B9B6A1B680D9A5A6015E0D8
:104C80004FF0200383F31188FBF7DAFF0E9BB3F19B
:104C9000FF3F05D0079B002B02D14FF0FF334EE0C2
:104CA000FBF7E6FF4FF0000383F31188099B1B8B92
:104CB0009BB203F00203002BE2D1099B1B889BB23D
:104CC00003F40073002BDBD14FF0200383F3118832
:104CD000FBF7B6FF0E9BB3F1FF3F05D0079B002B00
:104CE00002D14FF0FF332AE0039B4FF0000283F81C
:104CF0003420099B9B889BB243F400739AB2099BB2
:104D00009A80099B1B889BB243F480739AB2099BDB
:104D10001A800E4BDA69039BDA614FF00200FCF750
:104D2000E7F90E9BB3F1FF3F06D0079B002B03D0A2
:104D300004AB1846FCF724F9044BDB699B6A184660
:104D40000BB000BDD47C0008E13F0008880E0020B5
:104D500086B00390019200930B46ADF80A30039B96
:104D60001B6B0593BDF80A304FEA43039AB2039BCD
:104D70001A84039B4FF000029A60039B019A9A6386
:104D8000039B009ADA63039B069A1A64039B079AB3
:104D90005A64039B4FF0010283F83420059B1B8863
:104DA0009BB223F4A0639AB2059B1A80BDF80A3027
:104DB0004FEA43039BB203F0FF039AB2059B1A81AB
:104DC000059B9B889BB243F420639AB2059B9A8013
:104DD000059B1B889BB243F480639AB2059B1A80A3
:104DE0004FF00003184606B0704700BFAFF30080D5
:104DF00082B00190214B214A926942F07D029A6172
:104E00001F4B019A1268DA601D4B019A92685A6032
:104E10001B4B019A52681A601A4B019AD268DA60E9
:104E2000184B019A52695A60164B019A12691A601E
:104E3000154B019A9269DA60134B019A126A5A6013
:104E4000114B019AD2691A60104B019A526ADA60CA
:104E50000E4B019AD26A5A600C4B019A926A1A6000
:104E60000B4B019A126BDA60094B019A926B5A60F4
:104E7000074B019A526B1A6002B070470010024053
:104E800000080140000C01400010014000140140E6
:104E900000180140AFF30080AFF30080AFF3008053
:104EA0008AB0039002910192019B032B03D1039BD3
:104EB000029A1A6105E0019B042B02D1039B029A1E
:104EC0005A612E4A019BD3181B7804934FF00003BC
:104ED0000693069B0793079B0893089B09934FF043
:104EE0000003059335E0089B4FEA03130893099BE1
:104EF0004FEA03130993069B4FEA03130693079B9C
:104F00004FEA03130793029B03F08003002B04D1A5
:104F1000089B43F00F03089304E0069A049B42EABF
:104F200003030693029B03F40043002B04D1099B67
:104F300043F00F03099304E0079A049B42EA03033A
:104F40000793029B4FEA43030293059B03F101037E
:104F50000593059B072BC6D9039B5A68099B1A40EA
:104F6000079B1A43039B5A60039B1A68089B1A40CD
:104F7000069B1A43039B1A600AB0704750830008CF
:104F800082B00190019B4FF04002DA6402B070479A
:104F900000B585B001900091019BDB6C0393019BF0
:104FA000DA6C009BD218019BDA64019BDB6CB3F5D1
:104FB000007F02D90348FBF76BFF039B184605B03F
:104FC00000BD00BF007D0008AFF30080AFF300809C
:104FD00008B5FBF795FEFBF7BBFEFBF749FC08BDE8
:104FE00000B589B0824B0593FBF78AFE814B5B6C61
:104FF0000793079B03F48063002B12D00598FDF7FD
:10500000FFFE059B5B681B68002B06D0059B5B6859
:105010001B6805984FF000019847764B6FF480624B
:105020005A64079B03F40063002B15D0714B714A3F
:10503000126C42F008021A64059B5B681B68002B27
:1050400006D0059B5B681B6805984FF003019847E5
:10505000684B6FF400625A64079B03F48053002B83
:105060001DD0644B9B6C0493049B03F40043002B02
:1050700011D1604B5F4A126C22F008021A64059B42
:105080005B681B68002B06D0059B5B681B68059856
:105090004FF004019847574B6FF480525A64079BB6
:1050A00003F40073002B00F07781059B5B68DB68DD
:1050B000002B04D0059B5B68DB68059898474D4B37
:1050C0006FF400725A6468E14A4B079A02F00F02CB
:1050D0000392039A53F822300293059B039A02F13C
:1050E000040253F822300193029B03F08003002B4B
:1050F00000F0A0803F4A3F4B039953F8213023F43E
:10510000F04323F0F003039942F82130019B1B6820
:1051100003F01003002B1ED0059B9B899AB2039BC2
:105120004FF0010101FA03F39BB26FEA03039BB254
:1051300002EA03039BB29AB2059B9A81059B039AEC
:1051400002F1040253F822309B68039AD2B2059808
:10515000114698476EE0274B1A6D039B4FEAC30335
:10516000D31803F1005303F540534FEA43039B88E0
:105170009BB20693019B5B69019A52691168069A7A
:105180008A181A60019B5B69019A52699168069AB4
:105190008A189A60019B5B69019A52695168069A64
:1051A0008A1A5A60019B5B695B68002B24D0019BC3
:1051B0005B695A68019B1B8A9A4203D9019B1B8A2F
:1051C000069303E0019B5B695B680693039BDAB27D
:1051D000019B5B691B68059811461A46069B00F007
:1051E0000FFB039BDBB20598194600F0F1FB21E0B1
:1051F000580F0020005C0040059B9B899AB2039BDE
:105200004FF0010101FA03F39BB26FEA03039BB273
:1052100002EA03039BB29AB2059B9A81059B039A0B
:1052200002F1040253F822309B68039AD2B2059827
:1052300011469847029B03F40043002B00F0A8801E
:105240005C4A5C4B039953F8213023F4784323F0F4
:105250007003039942F82130029B03F40063002B92
:105260000CD0059B039A02F1040253F822305B68CC
:10527000039AD2B205981146984789E0019B1B68B2
:1052800003F01003002B1ED0059BDB899AB2039B11
:105290004FF0010101FA03F39BB26FEA03039BB2E3
:1052A00002EA03039BB29AB2059BDA81059B039A3B
:1052B00002F1040253F82230DB68039AD2B2059857
:1052C0001146984764E0039BD9B2019B9B695A68D9
:1052D000019B9B699B68059800F042FA0690039B2E
:1052E000DBB20598194600F053FB019B9B69019ABC
:1052F00092695168069A8A185A60019B9B69019AC3
:105300009269D168069A8A18DA60019B9B69019AB2
:1053100092699168069A8A1A9A60019B9B69019A20
:105320009269128802F1FF3292B21A80019B9B6946
:105330001B88002B0ED01F4A1E4B039953F82130B7
:1053400023F4904323F0700383F44051039B42F80D
:1053500023101DE0059BDB899AB2039B4FF00101EE
:1053600001FA03F39BB26FEA03039BB202EA030361
:105370009BB29AB2059BDA81059B039A02F1040263
:1053800053F82230DB68039AD2B205981146984749
:10539000084B5B6C079300E000BF079B03F40043DE
:1053A000002B7FF491AEFBF7D3FCFBF761FA09B059
:1053B00000BD00BF005C0040AFF30080AFF3008091
:1053C00008B50248FDF7E4FB08BD00BF580F0020F8
:1053D00000B583B00190019B1B78012B20D1019A6D
:1053E000104B9A4219D1104B0F4AD26942F4000275
:1053F000DA610E4B4FF001021A644FF013004FF0C8
:105400006001FBF7ADFA4FF014004FF0E001FBF73D
:10541000A7FA064B4FF000021A640198FDF7F0FC62
:1054200003B000BD580F002000100240005C004097
:1054300000B585B00190144B4FF000021A65124B75
:105440004FF000025A64104B4FF08002DA644FF4C0
:105450001C430393019B5B68DB68002B03D0039B19
:1054600043F400730393084B039A1A640198FFF7FF
:1054700087FD019B054A1A6101984FF0000100F079
:1054800017F805B000BD00BF005C00407083000845
:1054900082B00190044B019A92F84A2062F07F0298
:1054A000D2B2DA6402B07047005C0040AFF3008013
:1054B00010B586B001900B468DF803309DF803209F
:1054C000019B02F1040253F822300493049B1B68F1
:1054D00003F00303022B08D0032B0BD0012B0ED1BA
:1054E0004FF48063ADF814300DE04FF00003ADF8D9
:1054F000143008E04FF4C063ADF8143003E04FF40B
:105500000073ADF81430049B9B68002B05D0BDF8E8
:10551000143043F02003ADF81430049BDB68002BFB
:1055200022D0049B1B6803F01003002B16D0019BB4
:10553000DB899AB29DF803304FF0010101FA03F3C1
:105540009BB242EA03039BB29AB2019BDA81BDF897
:10555000143043F44053ADF8143005E0BDF8143076
:1055600043F40053ADF814303C4A9DF80310BDF8E5
:1055700014009DF8033040EA030323F4F04323F0C2
:10558000700342F82130354A9DF80310334B9DF8E3
:10559000030053F82000BDF8144047F6700304EAF6
:1055A000030380EA030342F82130049B5B8A3E2B0D
:1055B00018D9049B5B8A03F1FF3343F01F0303F107
:1055C0000103002B01DA03F11F034FEA63134FEAD3
:1055D00083239BB26FEA43436FEA53439BB2ADF818
:1055E000163011E0049B5B8A03F1FF3343F00103A3
:1055F00003F101034FEAD372D3184FEA63039BB25E
:105600004FEA8323ADF81630144B1A6D9DF8033022
:105610004FEAC303D31803F1005303F540534FEA95
:1056200043030393039B4FF000029A80039BBDF852
:1056300016209A81049B1B8A01981946FFF7A8FC43
:105640000246039B1A60049B5B8A01981946FFF788
:105650009FFC0246039B9A6006B010BD005C0040B0
:1056600082B001900B468DF803300C4B9DF803205F
:1056700053F8223003F44053002B03D0B3F5805F7E
:1056800003D005E04FF0000304E04FF0010301E018
:105690004FF00203184602B0704700BF005C0040A4
:1056A00082B001900B468DF803300B4B9DF8032020
:1056B00053F8223003F03003002B02D0102B03D01C
:1056C00005E04FF0000304E04FF0010301E04FF06C
:1056D0000203184602B07047005C0040AFF3008040
:1056E00088B003900B4601928DF80B30184B1A6D61
:1056F0009DF80B304FEAC303D31803F1005303F5B1
:1057000040534FEA43030593059B9B6803F1005305
:1057100003F540534FEA430307934FF0000306930A
:1057200010E0019B079A126892B21A80079B03F15E
:1057300004030793019B03F102030193069B03F10A
:1057400001030693069B032BEBD908B0704700BFFB
:10575000005C0040AFF30080AFF30080AFF3008047
:1057600088B00390019200930B468DF80B30224BCA
:105770001A6D9DF80B304FEAC303D31803F10053A1
:1057800003F540534FEA43030693069B9B6803F1DE
:10579000005303F540534FEA43030793069B9B894D
:1057A0009BB24FEA83534FEA93530593009A059BAC
:1057B0009A4201D9059B0093009B03F101034FEA34
:1057C0005303009310E0019B079A126892B21A806B
:1057D000079B03F104030793019B03F10203019369
:1057E000009B03F1FF330093009B002BEBD1059B43
:1057F000184608B0704700BF005C0040AFF300805F
:1058000086B00390019200930B468DF80B301C4B31
:105810001A6D9DF80B304FEAC303D31803F1005300
:1058200003F540534FEA43030493049B1B6803F1C1
:10583000005303F540534FEA43030593009B9AB28C
:10584000049B9A80009B03F101034FEA53030093EA
:1058500010E0019B1B881A46059B1A60059B03F10B
:1058600004030593019B03F102030193009B03F1E1
:10587000FF330093009B002BEBD106B0704700BFB5
:10588000005C0040AFF30080AFF30080AFF3008016
:1058900086B00390019200930B468DF80B309DF873
:1058A0000B20039B02F1040253F822309B690593FD
:1058B000059B019A5A60059B009A9A60059B4FF0E0
:1058C0000002DA60059B9B68002B04D1059B4FF01A
:1058D00001021A8019E09DF80B20039B02F10402DB
:1058E00053F822305B8A1A46009BD31803F1FF322B
:1058F0009DF80B10039B01F1040153F821305B8AE2
:10590000B2FBF3F39AB2059B1A8006B0704700BF52
:1059100000B587B00390019200930B468DF80B30D1
:105920009DF80B20039B02F1040253F822305B69BF
:105930000593059B019A1A60059B009A5A60059B86
:105940004FF000029A609DF80B20039B02F10402C5
:1059500053F822301B8A1A46009B9A4208D29DF8BF
:105960000B20039B02F1040253F822301B8A0093A0
:105970009DF80B3003981946019A009BFFF740FFF2
:1059800007B000BDAFF30080AFF30080AFF300803D
:1059900082B001900B468DF80330094A9DF8031040
:1059A000074B9DF8030053F8203023F4904323F075
:1059B000700383F4405342F8213002B0704700BFB7
:1059C000005C0040AFF30080AFF30080AFF30080D5
:1059D00082B001900B468DF80330094A9DF8031000
:1059E000074B9DF8030053F8203023F4F04323F0D5
:1059F000400383F0300342F8213002B0704700BF0B
:105A0000005C0040AFF30080AFF30080AFF3008094
:105A100082B001900B468DF80330094A9DF80310BF
:105A2000074B9DF8030053F8203023F4904323F0F4
:105A3000700383F4805342F8213002B0704700BFF6
:105A4000005C0040AFF30080AFF30080AFF3008054
:105A500082B001900B468DF80330094A9DF803107F
:105A6000074B9DF8030053F8203023F4F04323F054
:105A7000400383F0100342F8213002B0704700BFAA
:105A8000005C0040AFF30080AFF30080AFF3008014
:105A900082B001900B468DF803300E4B9DF8032029
:105AA00053F8223003F44053B3F5405F0FD0094A56
:105AB0009DF80310074B9DF8030053F8203023F4A2
:105AC000F04323F0400383F4005342F8213002B046
:105AD000704700BF005C0040AFF30080AFF3008070
