:020000040800F2
:100000000004002011010008E1020008E1020008DC
:10001000E1020008E1020008E1020008E102000834
:10002000E1020008E1020008E102000811030008F3
:10003000E1020008E1020008E1020008E103000813
:10004000E1020008611F0008E1020008E102000867
:10005000E1020008E1020008611D0008911D00088E
:10006000C11D0008F11D0008211E0008911900089B
:10007000C1190008F1190008311A0008711A0008A6
:10008000B11A0008F11A0008E1020008E1020008B4
:10009000E1020008E1020008E1020008511E000828
:1000A000E1020008E1020008E1020008E1020008A4
:1000B000E1020008E1020008E102000881220008D4
:1000C00081240008E1020008E1020008E1020008C2
:1000D000E1020008E1020008212A0008E10200080C
:0C00E000D11E0008E1020008911F00087A
:1000F000704700BFAFF30080AFF30080AFF3008024
:10010000FEE700BFAFF30080AFF30080AFF30080E5
:1001100072B6634880F30988022383F31488BFF31F
:100120006F8F604A604CA24217D213464FF0553190
:10013000D64343F8041BA519A342C5F380050CD28E
:1001400025B1196002F10803A34206D21A4642F80B
:10015000041B5960131DA342F8D3544A824217D29C
:1001600013464FF05531D54343F8041B44198342DD
:10017000C4F380040CD224B1196002F10803834255
:1001800006D21E4646F8041B5960331D8342F8D33D
:1001900002F036FE464C4749A14222D246480B4661
:1001A000024652F8046BCD4343F8046B04EB050C94
:1001B000A342CCF3800514D23DB1166800F10802C9
:1001C0001E6001F10803A3420BD2104650F8045BF5
:1001D000194641F8045B5668021D5E600B1DA34280
:1001E000F3D3364A3648824217D200211346D4430D
:1001F00043F8041B00EB040E8342CEF380040CD2C0
:1002000024B1196002F10803834206D21A4642F86B
:10021000041B5960131D8342F8D32A4D2A4EFFF761
:1002200067FFB54219D22C4654F8043BE9437718CE
:100230009847B442C7F380070FD22FB1236805F166
:1002400008049847B44208D2254655F8042B904735
:1002500060682C1D8047B442F6D31C4D1C4E02F042
:10026000DFFDB5421AD22C46EF4354F8043B06EBAF
:10027000070CCCF380079847B4420FD22FB1226805
:1002800005F108049047B44208D2254655F8040BFE
:10029000804761682C1D8847B442F6D3FFF730BF12
:1002A00000080020000000200004002000040020BE
:1002B0000C08002000080020404100081008002021
:1002C000641B0020EC000008EC000008EC000008B3
:1002D000EC000008AFF30080AFF30080AFF30080C4
:1002E000FEE700BFAFF30080AFF30080AFF3008004
:1002F00072B6FEE7AFF30080AFF30080AFF300808B
:1003000000F06EF900F0D4FB00F08AF900DF00BFC6
:10031000EFF30983203383F30988002383F31188E3
:10032000704700BFAFF30080AFF30080AFF30080F1
:100330000A4B002210B59A60094A07201021DA60A2
:1003400000F0A6F80A204FF4007100F0A1F80B208D
:100350008021BDE8104000F09BB800BF00ED00E038
:100360000000FA05AFF30080AFF30080AFF3008028
:10037000202383F311881648436813F4006316D0D2
:10038000EFF30983203B83F30988124A4FF0807012
:100390009169D86171B11068D2698168926891429F
:1003A00094BF002201227AB10B499961704783F30F
:1003B000118870471068D26981689268914234BF91
:1003C00000220122002AEFD1044A9A61704700BF3F
:1003D00000ED00E0440D0020010300080C030008BC
:1003E00010B500F07DF9202383F3118800F038F96F
:1003F00000F0AEF800F054F9002383F3118800F008
:100400008FF9BDE81040FFF7B3BF00BFAFF3008026
:100410002DE9F04FC1F80CD0D0F80CD0BDE8F08F2A
:1004200008B500F0FDF8002383F311882846A047A3
:1004300000F076FC08BD00BFAFF30080AFF3008092
:10044000F0B400F00307FE00FF2313FA06F200F0F9
:100450001F04B1400125A5408608094CC03654F858
:100460002670400927EA020242EA010300F1600710
:1004700044F8263044F8275044F82050F0BC704728
:1004800000E100E0AFF30080AFF30080AFF3008045
:1004900000F0030210B4FF23D40013FA04F2A140C9
:1004A0008008064C063054F8203023EA020242EA63
:1004B000010344F8203010BC704700BF00ED00E09D
:1004C0000248034AC3699A61FEE700BF440D002059
:1004D00010370008AFF30080AFF30080AFF3008067
:1004E00030B583B0FFF724FF00F012FA00F0A8F94E
:1004F00001F026F801F06CF800F062F940210E4896
:1005000000F016FB0D4D0E490124E86180F82040F3
:10051000C16100F04DF8002383F3118862B6EA69E7
:100520001D46084BC021936107482246074B0095A2
:1005300000F06EFB03B030BD10080020440D002019
:10054000000400201837000860080020C1040008DB
:1005500070B500F005F9114B9A69002A01DD013AE6
:100560009A61DA690E4C516A2368481C5062E1684E
:10057000481CA342E0600FD09D68013D9D605DB9BD
:1005800026461968DA681869DD604E602160904778
:10059000236898680028F4D070BD00BF440D002087
:1005A000340D0020AFF30080AFF30080AFF3008084
:1005B0000548036813B9054A116821B10448054B81
:1005C0001860FFF795BE7047200900202C0D002011
:1005D00030370008300D0020AFF30080AFF300800B
:1005E000084810B5036853B9074C216821B1074A80
:1005F000074B1A60FFF77CFE0120206010BD024C03
:10060000F5E700BF200900202C0D00203837000836
:10061000300D0020AFF30080AFF30080AFF3008017
:10062000094810B5036833B9084C2168002903DD77
:100630000020206010BD054C054A064B1A60FFF7EC
:1006400057FE0020206010BD200900202C0D002046
:1006500040370008300D0020AFF30080AFF300807A
:10066000084810B50368002B0ADD074C216821B14A
:10067000064A074B1A60FFF73BFE0120206010BDC1
:10068000014CF5E7200900202C0D00204837000818
:10069000300D0020AFF30080AFF30080AFF3008097
:1006A0000A4810B50368002B06DD094C21680029B3
:1006B00003DD0020206010BD054C064A064B1A6081
:1006C000FFF716FE0020206010BD00BF20090020AB
:1006D0002C0D002050370008300D0020AFF30080B3
:1006E00010B5202383F31188094C2368002B02DB0B
:1006F000084802682AB1084B08491960FFF7F8FD5D
:1007000023685A1C2260002383F3118810BD00BFA8
:10071000200900202C0D0020300D00205837000843
:1007200010B5202383F31188094C2368002B02DDC8
:10073000084802682AB1084B08491960FFF7D8FD3C
:1007400023685A1E2260002383F3118810BD00BF66
:10075000200900202C0D0020300D002060370008FB
:1007600006480368002B04DB054A1168002900DDF8
:1007700070470448044B1860FFF7BABD20090020F9
:100780002C0D002068370008300D0020AFF30080EA
:100790000648036823B9064A1168002900DD70473E
:1007A0000448054B1860FFF7A3BD00BF20090020D7
:1007B0002C0D002070370008300D0020AFF30080B2
:1007C000034A4021134643F8081B5360704700BF9B
:1007D00024090020AFF30080AFF30080AFF3008066
:1007E00010B40D4A0D4C0E495368E468C9691C6089
:1007F0005960846A03F110019C6090F8204002F572
:10080000816081421C7328BF02F10803516028BF38
:10081000536010BC704700BF24090020340D002035
:10082000440D0020AFF30080AFF30080AFF30080F1
:10083000014B1860FFF75CBD300D0020AFF3008066
:10084000044B4FF0FF3000225B601B609860DA6061
:10085000704700BF340D0020AFF30080AFF300807D
:10086000F8B504460D4616461F46FFF779FFCCB192
:10087000C6B1BDB10D4927610B68E6609A68954223
:1008800004D91B68AD1A9A68AA42FAD35A688B42F7
:100890002360626014605C60A56002D09868451BAC
:1008A0009D60F8BD0248FFF7C3FFE3E7340D002069
:1008B00080370008AFF30080AFF30080AFF3008013
:1008C00010B50446FFF74CFF84B1E36893B1236889
:1008D0000A4A934203D09968A268881898606068B1
:1008E000002203602368E260586010BD0448FFF7EF
:1008F0009FFFEAE70348FFF79BFFE8E7340D00207E
:1009000090370008A0370008AFF30080AFF30080F5
:10091000044B002014225B601B6098609A615B614D
:100920001B617047440D0020AFF30080AFF30080DF
:1009300010B590F8203004468BB10E2B0FD000225A
:10094000094BA16884F820201B6898688842FBD274
:100950005968236061600C605C60204610BD0348EC
:10096000FFF766FFEBE700BF440D0020C03700082B
:1009700090F820300D2B11D8DFE803F01510100788
:10098000100B101010101010100B816A8B685A1C7D
:100990008A60416803680B60026851604FF0FF3263
:1009A0008262FFF7C5BF7047AFF30080AFF30080EE
:1009B00070B5114C0646FFF7EBFEE569142085F88B
:1009C0002060236801211A6883F82010A061546018
:1009D00028462260E361FFF703FFEA69ADF12403D3
:1009E0009A4202D90548FFF723FFE0692946BDE88E
:1009F0007040FFF70DBD00BF440D0020D437000844
:100A000070B50E4686B00546FFF7C2FEB6F1FF3F51
:100A100012D00C4C3146E3690B4A01A8FFF720FFC6
:100A20002846FFF7C5FF049B13B101A8FFF748FF55
:100A3000E069806A06B070BD2846FFF7B9FF014C37
:100A4000F6E700BF440D002071090008AFF30080F5
:100A500070B5154D04460E46FFF79AFEE869A26888
:100A60008368A6629A4215D9FFF762FF0123142218
:100A7000064684F82030AA61EC61FFF7B1FEF06908
:100A8000ADF1240188420AD820463146BDE87040C5
:100A9000FFF7BEBC2046BDE87040FFF749BF0348E2
:100AA000FFF7C6FEF0E700BF440D0020D437000872
:100AB00070B5104C01212368E5691A681420A06103
:100AC00083F82010546028462260E361FFF730FF6E
:100AD0002846FFF785FEEA69ADF124039A4202D960
:100AE0000548FFF7A5FEE0692946BDE87040FFF71D
:100AF0008FBC00BF440D0020D4370008AFF3008046
:100B000010B5FFF745FE064AD069116883688A6808
:100B10009A4200D810BDBDE81040FFF7C9BF00BF22
:100B2000440D0020AFF30080AFF30080AFF30080EE
:100B3000F0B40022104C0125022380F8203080F808
:100B4000212080F82250656900F1300600F12C0C5C
:100B500000F14C0704618160456141646061026499
:100B6000C263426282612861C0F82CC0466306639A
:100B7000C761F0BC704700BF440D0020AFF3008098
:100B8000F8B504460D4616461F46FFF7E9FD0CB1C1
:100B9000AF2D2BD81848FFF74BFE243D6119E160BB
:100BA0006751069D15484D600023154A022701250F
:100BB000086284F8207084F8225084F8213050694B
:100BC00004F1300104F12C0704F14C05226160614D
:100BD000A6606664546123640461E3636362A36195
:100BE000E76261632163E5612046F8BD7F2ED1D8BD
:100BF000002FD2D1CEE700BFF03700082104000853
:100C0000440D0020AFF30080AFF30080AFF300800D
:100C1000F0B504460D461F4683B016464C302346B9
:100C2000FF211A4602F8011B5970531C8342F8D168
:100C30006019834215D25521DA4303F8011B00EBFA
:100C4000020C83420CF001020BD01AB103F8011B15
:100C5000834206D01A4602F8011B5970531C834286
:100C6000F8D1202383F31188FFF7BAFC2046089CB3
:100C70003B46324629460094FFF782FF0021044696
:100C8000FFF7E6FEFFF7CCFC002383F31188204634
:100C900003B0F0BDAFF30080AFF30080AFF300808E
:100CA00010B5044610B90948FFF7C2FD202383F3AD
:100CB0001188FFF795FC21460620FFF7A1FEFFF7FC
:100CC000AFFC002383F3118810BD00BF303800084B
:100CD000114B70B5DC69254655F82C3FA062AB423C
:100CE00007D01A681846E262FFF722FEE36AAB42B9
:100CF000F7D194F8210010F0030F04D16369226941
:100D00001A6121694B610E20FFF752FE0348BDE8CE
:100D10007040FFF78DBD00BF440D00204038000833
:100D200010B52023044683F31188FFF759FC2046B1
:100D3000BDE81040FFF7CCBFAFF30080AFF30080F9
:100D400038B504460D4628B1002903DB64602460F1
:100D5000A56038BD0348FFF76BFD64602460A560A3
:100D600038BD00BF90380008AFF30080AFF30080BB
:100D700070B504460D46FFF70BFD002C25D0A36887
:100D8000002B0CDB2268A24203D01448FFF750FD71
:100D9000A368591E0029A16008DB002070BD2068EF
:100DA000A042F2D0591E0029A160F6DA8DB10C499B
:100DB0000320CB6929469C6262681C605A606360AC
:100DC0001360BDE87040FFF71BBE0648FFF730FD1B
:100DD000D5E7A3604FF0FF3070BD00BF00390008B9
:100DE000440D0020E8380008AFF30080AFF3008026
:100DF00010B50446FFF7B4FC002C20D0A368002BEC
:100E00000BDB2268A24203D00F48FFF711FDA36855
:100E10000133002BA36007DD10BD2068A042F3D092
:100E20000133002BA360F7DC236800211A68184601
:100E3000226054609962BDE81040FFF779BD034815
:100E4000FFF7F6FCDAE700BF503900083C3900082C
:100E500010B5044620B1002364602460A36010BD77
:100E60000348FFF7E5FC002364602460A36010BD25
:100E7000E0390008AFF30080AFF30080AFF30080EB
:100E80003B4B2DE9F0410546DC69FFF781FC002D65
:100E90006AD0A868002836D0A2688168914208D23A
:100EA00090F820308260042B46D0052B31D0002BE7
:100EB0001ED02B461B689D4203D09868A1688842CB
:100EC000F8D25A682360626004205C601460A562F6
:100ED000FFF76EFDAB68A34202D02648FFF7A8FCDF
:100EE000206CA84213D02448BDE8F041FFF7A0BC15
:100EF0004368026801211A60026880F8201053607C
:100F0000FFF716FDD5E7216CAC60E9602564BDE80C
:100F1000F08141680768866A0F6007683346796028
:100F20001B689E4202D099689142F9D25A680360C8
:100F3000426010605860BCE741680768866A0F60CD
:100F40000768334679601B689E4202D099689142D7
:100F5000F9D25A680360426010605860B068A268B5
:100F6000836893429CD3A4E70448FFF761FC90E7B1
:100F7000440D0020003A0008143A0008F039000837
:100F800010B52023044683F31188FFF729FB204680
:100F9000FFF776FFFFF744FB002383F3118810BDB2
:100FA000214A70B52023D56983F31188FFF718FB18
:100FB0002C6C002C33D0A368AB4203D01B48FFF746
:100FC00037FC2C6C2368E268A3422A641ED0686C4C
:100FD0004AB11168914203D08968884238BF0846F7
:100FE000D268002AF5D11A681E6CA8600021226020
:100FF00018465460A360E6601C64FFF729FDFFF704
:101000000FFB002383F31188204670BD0020A060F1
:10101000FFF706FB002383F31188204670BD0448C8
:10102000FFF706FC2C6CC6E7440D0020503A000880
:101030003C3A0008AFF30080AFF30080AFF30080CC
:1010400038B504460D46FFF78BFBBCB1E26B94F854
:1010500020301543082BE5630CD0092B00D038BD98
:10106000A06A0540A842FAD12046FFF761FC0021A2
:10107000816238BDA36A1D42F6D138BD0148FFF731
:10108000D7FBE3E7BC3A0008AFF30080AFF3008082
:1010900070B505460E46FFF763FB65B12C68AC42A0
:1010A00008D0A168606846EA0101FFF7C9FF24681B
:1010B000AC42F6D170BD0248FFF7BAFBEEE700BFC5
:1010C000E03A0008AFF30080AFF30080AFF3008098
:1010D00070B504460D461646A0B199B1002A11DD3F
:1010E00005EB860304F11C003146E560A560256030
:1010F0006360FFF725FE04F110000021BDE8704099
:10110000FFF71EBE0148FFF793FBE9E7203B00080D
:1011100070B504460D461646FFF73AFBC4B131469A
:1011200004F11C00FFF724FE064678B9A368626844
:1011300043F8045B9342A36028BF236804F11000C6
:1011400028BFA360FFF754FEFFF7DAFC304670BDFE
:101150000148FFF76DFBE2E7403B0008AFF300807A
:1011600070B5202306460D46144683F31188FFF719
:1011700037FA224629463046FFF7CAFF0446FFF7F2
:101180004FFA002383F31188204670BDAFF300802F
:1011900070B504460D461646FFF7FAFACCB1C5B154
:1011A000314604F11000FFF7E3FD064678B9E36825
:1011B000626853F8041B04F11C0093422960E36049
:1011C00024BF2368E360FFF713FEFFF799FC304666
:1011D00070BD0248FFF72CFBE2E700BF883B000828
:1011E00070B5202306460D46144683F31188FFF799
:1011F000F7F9224629463046FFF7CAFF0446FFF7B3
:101200000FFA002383F31188204670BDAFF30080EE
:1012100010B4034619B94FF0FF3010BC7047064CAC
:101220000D20E26993625C68136054605A6022602A
:1012300010BCFFF7E5BB00BF440D0020AFF30080FA
:1012400010B48A18002440600060846041618161AC
:10125000C1600261C36110BC704700BFAFF3008082
:1012600038B504460D46FFF77BFA6369A2699342DD
:1012700019D0A268511CA16003F8015B2069636169
:10128000834228BFE368206828BF6361A04208D07A
:10129000026822605460FFF74BFB0023836218460C
:1012A00038BD002038BDA268002AE3D06FF00300EB
:1012B00038BD00BFAFF30080AFF30080AFF3008014
:1012C000F8B504460D46202383F31188FFF788F90B
:1012D000E3690BB120469847A6682046294656B9CF
:1012E000FFF796FF071EF7DAFFF79AF9334683F305
:1012F00011883846F8BDA369013EA66013F8017B4A
:101300002269A361934224BFE368A361FFF788F9D0
:10131000002383F311883846F8BD00BFAFF3008087
:101320002DE9F0470446904689461D46C769002AC4
:1013300037D0202383F31188FFF752F900260FB12D
:101340002046B847D4F808A020462946BAF1000F35
:101350000BD1FFF75DFF0028F4D0FFF761F953468A
:1013600083F311883046BDE8F087A3690AF1FF31A5
:10137000A16013F8010B09F806002269A3619342EA
:1013800024BFE368A361FFF74BF9002383F31188BF
:1013900001364645E6D0202383F31188FFF720F974
:1013A000CDE70248FFF744FAC3E700BFB03B0008AF
:1013B00010B48C1840600060826041618161C1603E
:1013C0000461C36110BC7047AFF30080AFF30080CD
:1013D0002DE9F041202304460D46164683F311887B
:1013E000FFF7FEF8A7682046314667B9FFF710FF00
:1013F000B0F10008F6DAFFF713F93B4683F31188E2
:101400004046BDE8F0816369013FA76003F8015BD6
:1014100022696361934224BFE3686361E3690BB1AE
:1014200020469847FFF7FCF8002383F3118898467D
:101430004046BDE8F08100BFAFF30080AFF300800D
:1014400038B50446FFF78CF9A36962699A4217D050
:10145000A268511CA16013F8015B2069A36183425B
:1014600028BFE368206828BFA361A04206D00268B5
:1014700022605460FFF75CFA00238362284638BD7F
:10148000A268002AE5D06FF0020038BDAFF30080FB
:101490002DE9F047044615460E469946D0F81C80C3
:1014A000002A40D0202383F31188FFF799F8002702
:1014B000D4F808A020460AF1FF33BAF1000F24D077
:1014C000A3603178636903F8011B22696361934269
:1014D00024BFE3686361B8F1000F00D0C047FFF795
:1014E0009FF8002383F311880137013D18D001369E
:1014F000202383F31188FFF773F8D4F808A020465F
:101500000AF1FF33BAF1000FDAD120464946FFF75E
:101510007FFE0028CCD0FFF783F8534683F3118871
:101520003846BDE8F0870248FFF782F9BAE700BF06
:10153000C43B0008AFF30080AFF30080AFF300803E
:10154000054B064A064823F00701064B116020F0C0
:1015500007021A60704700BF6B1B0020680D002057
:1015600000500020640D0020AFF30080AFF3008036
:1015700010B50446FFF7F4F8074A084913680968EC
:10158000E01D20F00700C91A884203D8181810601F
:10159000184610BD002010BD680D0020640D00200D
:1015A00010B52023044683F31188FFF719F820466D
:1015B000FFF7DEFF0446FFF733F8002383F31188BB
:1015C000204610BDAFF30080AFF30080AFF3008082
:1015D000044B0549002203F1100019609A60DA609B
:1015E000FFF736BC700D0020A1150008AFF3008096
:1015F00010B500F01DFB00F0ABF9064801F020FB30
:1016000000F00EF800F044F800F002F9BDE81040D8
:1016100001F0FEBB00400008AFF30080AFF3008094
:1016200000F0CEBCAFF30080AFF30080AFF30080DA
:101630000121002301704360704700BFAFF30080B9
:1016400038B504460D46C8B1C1B1202383F31188D3
:10165000FEF7C6FF2178481EC3B2012B02D9094804
:10166000FFF7E6F82046656000F0B2FC0222227027
:10167000FEF7D6FF002383F3118838BD0248FFF739
:10168000D7F8E2E7F03B0008E03B0008AFF300804A
:1016900000F0A6BFAFF30080AFF30080AFF300808F
:1016A00001210023017043600C30FFF7D1BB00BF64
:1016B00038B504460D46D8B1D1B12378581EC2B210
:1016C000012A04D9052B02D00B48FFF7B1F82023DB
:1016D00083F31188FEF784FF2046656000F098FFD1
:1016E00002232370FEF79CFF002383F3118838BD8B
:1016F0000248FFF79DF8E0E7903C0008803C0008B6
:10170000F0B51D4685B004460F461646202383F3E8
:101710001188FEF765FF0023A36023702B460A9D06
:10172000204600950B9D394601950C9D3246029549
:1017300001F0D6F8B0F1FF3F054609D00221217033
:10174000FEF76EFF002383F31188284605B0F0BD35
:1017500005202070F4E700BFAFF30080AFF30080F6
:10176000806BD0F1010038BF00207047AFF30080DC
:101770008069D0F1010038BF00207047AFF30080CE
:1017800070B52023044683F311880026FEF728FF56
:10179000A568A660FEF744FF334683F31188284608
:1017A00070BD00BFAFF30080AFF30080AFF30080E7
:1017B0001030FFF7B5BD00BFAFF30080AFF300807E
:1017C00010304FF0FF33FFF7ABBD00BFAFF3008029
:1017D0003030FFF75DBE00BFAFF30080AFF3008095
:1017E00030304FF0FF33FFF753BE00BFAFF3008040
:1017F0001030FFF765BD00BFAFF30080AFF300808E
:101800003030FFF7E5BD00BFAFF30080AFF30080DD
:1018100001F0C6B9AFF30080AFF30080AFF30080F2
:101820000B460E4970B50646044646F8041B666032
:101830000026A66001261546103004F15001102242
:101840002673FFF7FDFC04F1300004F16001102263
:101850002B46BDE87040FFF7ABBD00BFD03D000890
:1018600038B504460D46C0B1202383F31188FEF736
:10187000B7FE217B481EC3B2012B02D90948FEF7EF
:10188000D7FF2046294601F09BF902222273FEF77A
:10189000C7FE002383F3118838BD0348FEF7C8FF55
:1018A000E2E700BF7C3D0008703D0008AFF3008018
:1018B00070B504460D46FEF753FF002C21D0A169F8
:1018C00039B104F110002946FFF7CAFC00280EDBED
:1018D00070BDA268201D42F00403A360FFF7D8FB8F
:1018E00004F110002946FFF7BBFC0028F0DAA368DA
:1018F000201D43F08001A1600021BDE87040FFF78A
:10190000C7BB0248FEF794FFD9E700BFA83D000817
:1019100001494B6883607047001000E0AFF300801E
:10192000084B09495A6883680968D31AC2685B1A68
:101930009342836004D80269934238BF03617047C1
:10194000C3607047001000E0900D0020AFF30080EE
:1019500010B50B4A86B00B490B4C002301A801922D
:101960004FF0FF3223600393049302910592FFF737
:10197000CFFF01A802998847039B236006B010BDE2
:101980001119000821190008900D0020AFF3008004
:1019900010B5FEF7A5FE0848084A03680F24116831
:1019A000546013B1406821409847FEF7B9FEBDE886
:1019B0001040FEF7DDBC00BF940D00200000024087
:1019C00010B5FEF78DFE0848084A8368F0241168B8
:1019D00054601BB1C068C1F303119847FEF7A0FE25
:1019E000BDE81040FEF7C4BC940D0020000002408A
:1019F00010B5FEF775FE0948094A03694FF4706493
:101A0000116854601BB14069C1F303219847FEF788
:101A100087FEBDE81040FEF7ABBC00BF940D002070
:101A200000000240AFF30080AFF30080AFF300800E
:101A300010B5FEF755FE0948094A83694FF4704412
:101A4000116854601BB1C069C1F303319847FEF7B8
:101A500067FEBDE81040FEF78BBC00BF940D002070
:101A600000000240AFF30080AFF30080AFF30080CE
:101A700010B5FEF735FE0948094A036A4FF4702491
:101A8000116854601BB1406AC1F303419847FEF7E7
:101A900047FEBDE81040FEF76BBC00BF940D002070
:101AA00000000240AFF30080AFF30080AFF300808E
:101AB00010B5FEF715FE0948094A836A4FF4700411
:101AC000116854601BB1C06AC1F303519847FEF717
:101AD00027FEBDE81040FEF74BBC00BF940D002070
:101AE00000000240AFF30080AFF30080AFF300804E
:101AF00010B5FEF7F5FD0948094A036B4FF0706415
:101B0000116854601BB1406BC1F303619847FEF745
:101B100007FEBDE81040FEF72BBC00BF940D00206F
:101B200000000240AFF30080AFF30080AFF300800D
:101B3000124BF0B4D3F800C0DF689E695D6A1C6B7D
:101B4000D86B996C0023CCF800300D4ADFF838C010
:101B50003B601360336093602B601361236093617B
:101B60000360136293621363CCF800300B60054B83
:101B70004FF0FF325A60F0BC704700BF403E000893
:101B8000940D002000000240CC0D0020AFF3008037
:101B9000F0B5044685B0002833D0667A012505FAF1
:101BA00006FC1D4F38681CEA000F26D11B4D4CEA7D
:101BB000000010F07F0F05EBC60C45F83620CCF87E
:101BC0000430386004D0164B5F6947F001065E614F
:101BD000236860681F6827F001051D60267A0F27BB
:101BE00017FA06F6002506601D6042B1A07A0901C9
:101BF000FEF726FC284605B0F0BD2846FBE7104658
:101C0000F9E70848039102920193FEF711FE019B48
:101C1000029A0399C1E700BFCC0D0020940D00206B
:101C200000100240003E0008AFF30080AFF30080D8
:101C3000224B00224FF0FF3030B421491C6900F5DF
:101C40000C3C18611A61DD68D8600CF52070DA6010
:101C50001C4C486007208A600860E1681A4841F01F
:101C60008071E1600468194944F001040460D86996
:101C700040F08050D861D86940F00060D8610868B1
:101C800040F480700860186A00F44071B1F5407F3C
:101C900003D04FF4803119621A62084B1A6A12F4A9
:101CA000004F07D1186A40F440721A62196A41F471
:101CB0000040186230BCFFF73BBF00BF001002407D
:101CC00010E000E0F0ED00E0001000E000700040E7
:101CD0001F4B1868194640F001021A600B681C4A35
:101CE00013F0020FFAD01368002003F0F90111601D
:101CF000114650604868164A10F00C0FFAD110686F
:101D0000114640F4803313600B68114A13F4003F0E
:101D1000FAD05368114643F4E8105060136843F05A
:101D20008070106008680A4A10F0007FFAD00948F5
:101D3000094B1221506019605068114640F00203AF
:101D400053604A6802F00C0CBCF1080FF9D17047DF
:101D50000010024000641D0000200240AFF300802C
:101D600010B5FEF7BDFC0748074A4368012400216F
:101D700054615B689847FEF7D3FCBDE81040FEF75E
:101D8000F7BA00BFD00D002000040140AFF300807F
:101D900010B5FEF7A5FC0748074A43680224012155
:101DA0005461DB689847FEF7BBFCBDE81040FEF7C6
:101DB000DFBA00BFD00D002000040140AFF3008067
:101DC00010B5FEF78DFC0748074A4368042402213A
:101DD00054615B699847FEF7A3FCBDE81040FEF72D
:101DE000C7BA00BFD00D002000040140AFF300804F
:101DF00010B5FEF775FC0748074A4368082403211D
:101E00005461DB699847FEF78BFCBDE81040FEF794
:101E1000AFBA00BFD00D002000040140AFF3008036
:101E200010B5FEF75DFC0748074A436810240421FB
:101E300054615B6A9847FEF773FCBDE81040FEF7FB
:101E400097BA00BFD00D002000040140AFF300801E
:101E500010B5FEF745FC1B4A536903F4787413F080
:101E6000200F546128D114F0400F1FD114F0800FBF
:101E700016D114F4807F0DD114F4007F04D01248E1
:101E800009214268D36C9847FEF74AFCBDE8104030
:101E9000FEF76EBA0C4808214268536C9847EBE78E
:101EA000094807214268D36B9847E2E706480621B4
:101EB0004268536B9847D9E7034805214268D36AC3
:101EC0009847D0E700040140D00D0020AFF3008018
:101ED00010B5FEF705FC204A536903F47C4413F463
:101EE000806F546131D114F4006F28D114F4805FF5
:101EF0001FD114F4005F16D114F4804F0DD114F4E7
:101F0000004F04D015480F214268D36F9847FEF761
:101F100007FCBDE81040FEF72BBA10480E214268BE
:101F2000536F9847EBE70D480D214268D36E9847F1
:101F3000E2E70A480C214268536E9847D9E7074800
:101F40000B214268D36D9847D0E704480A214268C4
:101F5000536D9847C7E700BF00040140D00D002033
:101F600010B5FEF7BDFB0848084A43684FF48034BB
:101F700010215461D3F884309847FEF7D1FBBDE8B7
:101F80001040FEF7F5B900BFD00D0020000401405D
:101F900010B5FEF7A5FB0848084A43684FF48024B3
:101FA00012215461D3F894309847FEF7B9FBBDE88D
:101FB0001040FEF7DDB900BFD00D00200004014045
:101FC0000148FFF735BB00BFD00D0020AFF3008004
:101FD0002DE9F04105780446012D7DD06268002688
:101FE0001368012413F0040F3746B44635460CD06D
:101FF0005168002918BF254608BFA44613F0010FF9
:1020000000D0012713F0020F64D10123082132E030
:1020100004FA03F845EA080510F0010F1CBF04FAA2
:1020200003F847EA080710F0020F02D014FA03F091
:10203000064308315058013310F0040F17D002EB5B
:102040000108D8F80480B8F1000F3ED004FA03F874
:1020500045EA080510F0010F03D004FA03F847EA37
:10206000080710F0020F02D014FA03F00643013300
:102070000831132B0FD0505810F0040FD9D002EBB9
:102080000108D8F80480B8F1000FC1D104FA03F8B0
:102090004CEA080CC0E7B2F89E10B2F89880B2F88B
:1020A0009A40B2F89C00214A214BC2F80880D460C3
:1020B000106151611F4A002119619F60DE605A6101
:1020C000C3F804C01D60BDE8F08104FA03F84CEACF
:1020D000080CBFE7012698E706206021FEF7B0F95B
:1020E00007206021FEF7ACF908206021FEF7A8F96F
:1020F00009206021FEF7A4F90A206021FEF7A0F96B
:1021000017206021FEF79CF960212820FEF798F93E
:1021100028466021FEF794F929206021FEF790F906
:102120002A206021FEF78CF958E700BF000001402B
:1021300000040140FFFF0700AFF30080AFF3008011
:10214000C26A036B30B40021146848F200051D8098
:1021500019809980998223680F2123F0010323605D
:10216000147A836A11FA04F450681A6804601468D7
:10217000586824F0010414601B7A9940016030BC57
:10218000704700BFAFF30080AFF30080AFF3008073
:1021900070B5C46905465CB1FFF7D2FF0020E86165
:1021A0004FF0FF332046A362BDE87040FEF7C0BB8E
:1021B00070BD00BFAFF30080AFF30080AFF30080CD
:1021C00011F0080F38B50546046B01D0FEF790F802
:1021D000EB6A1A685968106820F0010010601B7AD9
:1021E0000F2010FA03F20A60A18888B240F400734D
:1021F000A38038BDAFF30080AFF30080AFF3008061
:1022000011F0080F70B50446056B36D1A66A326826
:102210007168106820F001031360307A0F2212FAFF
:1022200000F30B6094F8346006B170BDB5F804E0BB
:1022300020232EF480510804020CAA80B5F800C0B7
:102240002CF480610804020C2A8029881FFA81FE80
:102250004EF4007CA5F800C083F31188FEF700FA65
:10226000E36923B1E66118469E62FEF761FBFEF763
:1022700017FA002383F3118870BDFEF739F8C5E71C
:102280002DE9F041784CFEF72BFA256B94F83430A9
:102290002A8BAE8AB6B2CBB946EA0242734B22F021
:1022A0007F429A4200F095805CD8581E824203D14A
:1022B000B4F820C0A5F810C016F00A0F00D02B8B80
:1022C000FEF72EFABDE8F041FEF752B816F00A0FFD
:1022D00005D0AE8A00232A8BB6B22364E36416F0DD
:1022E000800F0ED0E06C626C216C12F800E0A26CE2
:1022F000431C9142A5F810E0E36402D35A4B00213D
:10230000D96416F0400F0DD0226CB5F810C0A16B47
:10231000531C01F802C0E06B2364834202D3524B8A
:102320000020186416F0100F33D116F4806FC7D058
:10233000B5F814E020232EF480621104080CA88262
:1023400083F31188FEF78CF9E06928B14649002330
:102350008362CB61FEF7ECFAFEF7A2F9002383F368
:102360001188ADE7424B9A4252D0991C8A42A3D1C0
:10237000A26A17687F68002F58D02B88B4F820C055
:1023800098B24CF0010140F4A06E2184A5F800E061
:1023900096E7AE8A2988B6B21FFA81FC4CF0010E8E
:1023A000A5F800E0202383F31188FEF759F9E069CE
:1023B00028B12D4A00238362D361FEF7B9FAFEF7F4
:1023C0006FF9002383F3118816F4806F3FF478AF20
:1023D000AEE7B5F804C0A26A2CF4007003041268DA
:1023E000190CA980106840F001031360A98888B215
:1023F00040F4805EA5F804E05368012B3FF65CAF23
:10240000B5F800E02EF480621304190C298053E71C
:10241000B5F804C0E06A2CF40073190400680A0CD3
:10242000AA80036843F00101016045E7B5F804C0E4
:1024300020232CF400710A04100CA88029881FFAAC
:1024400081FE4EF400722A8083F31188FEF708F9AA
:10245000E06918B18762E761FEF76AFAFEF720F9D2
:10246000002383F3118827E7D80D00200200030022
:1024700082000700AFF30080AFF30080AFF300806D
:102480002DE9F041554DFEF72BF92C6B202383F3FA
:102490001188FEF7E5F8EA6AAB6A106856680768C3
:1024A0000F2127F001070760107A1A6811FA00F06F
:1024B00030601668586826F0010616601A7A914056
:1024C0000160FEF7EDF8002383F31188A38A13F46B
:1024D000807307D0B4F814C001232CF48070020478
:1024E000110CA182B4F814E01EF4007F08D0B4F8F7
:1024F00014C043F002032CF400700204110CA182FA
:10250000B4F814E01EF4806F14D0B4F814E043F073
:1025100004032EF480600204110CA182B4F804C0FC
:102520002CF400700204110CA180208882B242F4C5
:1025300000712180B4F814C01CF4006F08D0B4F806
:1025400014E043F008032EF400600204110CA18291
:10255000B4F814C01CF4805F08D0B4F814E043F061
:1025600010032EF480500204110CA182B4F814C0A0
:102570001CF4804F08D0B4F814E043F020032EF48C
:1025800080400204110CA182A18A0FFA81FCBCF1E7
:10259000000F06DB5BB9FEF7C3F8BDE8F041FDF7BD
:1025A000E7BEA18A43F040034804420CA282AB601C
:1025B000202383F31188FEF753F8E86938B1074BFD
:1025C0006FF0010100228162DA61FEF7B1F9FEF7D6
:1025D00067F8002383F31188DDE700BFD80D0020E2
:1025E00010B5074C2046FFF75BF8064B0649A3F1F0
:1025F0000C020020E0612163A362E26210BD00BF13
:10260000D80D0020883E000800540040AFF3008041
:1026100002788A23012A2DE9F04104464362056BC2
:1026200000F0A1802F464FF09A089C466068E26A4D
:10263000A66A13683168466805F11002C3F8008085
:1026400090F80880C1F800C000208A6048F2000CB1
:102650004FF41061002E9A60A5F800C02880A98070
:1026600052DD8B4B9E424FDCB7F804C02CF03F008C
:1026700001040B0CBB80BA88864990B240F0240C50
:102680008E42A7F804C043DCB8F1010F02D08248A3
:10269000FEF7CEF88148760090FBF6F106FB01F8D4
:1026A0007E4BC8EB0302002A40F0A5807B4A92FBD8
:1026B000F6F6B6B2032E40F2948025214FEA065C6E
:1026C000B6F5805F39844FEA1C5802D37448FEF790
:1026D000AFF86268216B1278A7F81C80B1F800C0CF
:1026E000022A1FFA8CF32DD0032A70D0012A03D1BD
:1026F00023F00A0003041B0C0B80288883B243F0EC
:1027000001012980BDE8F0816648FEF791F8ABE74A
:102710006548864224DCA8F10203DAB2012A75D9A1
:102720006248FEF785F848F6FF7862680B20216B57
:1027300038841278A7F81C80B1F800C0022A1FFA6A
:102740008CF3D1D143F002024FF6F77C02EA0C037E
:102750000B80288883B243F001012980BDE8F08115
:102760004FF00008B5E7524EB0427FF45BAF514FD7
:102770004FF0000E3B69806A43F40018C7F81080E0
:102780000A214D4A2346C7F810E0FFF701FA002856
:1027900076D1F06A0A21494A454BFFF7F9F900283A
:1027A0006AD1444F1F20FB69A02143F40012FA6153
:1027B000FDF746FE2020A021FDF742FE706A376B30
:1027C00040F4805CC6F824C04CF010082EE743F0BB
:1027D0000A030B80288883B243F001012980BDE8F9
:1027E000F0813748FEF724F84FEA065825234FEAD0
:1027F00018583B846DE73348FEF71AF8274A92FBD6
:10280000F6F6B6B2032E3FF658AFEAE7B8F1020F7C
:1028100016D1224A06EB460692FBF6FC06FB0CF8A4
:102820001E48C8EB000139B91C4890FBF6F631058B
:102830000B0D43F4004878E72348FDF7F9FFF3E771
:10284000B8F1030F20D106EB8606144906EB860685
:1028500091FBF6FC06FB0CF8104BC8EB03023AB9EF
:102860000E4991FBF6F31A05100D40F440485CE761
:102870001648FDF7DDFFF3E71548FDF7D9FF90E7B0
:102880001448FDF7D5FF84E748F6FF784DE700BF11
:1028900000093D00A0860100E03E0008005125022D
:1028A000703F0008C83E0008801A0600283F000854
:1028B000D80D00200010024001220008C1210008AC
:1028C000103F0008F83E0008403F0008583F00084D
:1028D000B43E0008A03E0008AFF30080AFF30080D4
:1028E0002DE9F047424F86B0109DFC69B5F1FF3FDE
:1028F000C4610646884691469A46046B05D001A8F5
:1029000029463C4A3346FDF7ABFFFDF789FE00231D
:1029100083F3118804E0FDF783FE002383F311881D
:10292000228B202312F0020F03D1208810F4007FA5
:102930000CD083F31188FDF753FEB5F1FF3FEAD0C9
:10294000049B002BE7D14FF0FF3048E083F3118860
:10295000FDF746FEB5F1FF3F44D1012286F8342051
:10296000B4F800C00E982CF480710B040F9900226B
:102970001B0C4FEA4808A6F82080B26032647064ED
:10298000B164F264C6F83890C6F83CA02380B4F86D
:1029900004E008F0FE082EF400600204130CA3808B
:1029A000A4F80880B4F804C0FB691FFA8CF141F464
:1029B0000070A080228802201FFA82FE4EF4806CF4
:1029C000A4F800C0F361FDF7F3FFB5F1FF3F04D0B9
:1029D000049810B101A8FDF773FFFB69986A06B06F
:1029E000BDE8F08704990029B7D14FF0FF30F6E732
:1029F000440D002091210008AFF30080AFF3008068
:102A0000034B998988B240F080029A81704700BFD9
:102A100000440040AFF30080AFF30080AFF30080CC
:102A20002DE9F0475A4EFDF75BFE356FAF892C88D4
:102A3000BFB2A4B214F00F0FB5F8048025D014F083
:102A4000080918BF4FF0800914F0010F18BF49F0B2
:102A5000200914F0020F18BF49F0400914F0040FC8
:102A600018BF49F48079202383F31188FDF7F8FD1E
:102A7000B168484849EA01030021B360FEF708FB4A
:102A8000FDF70EFE002383F3118814F4807F3FD1FD
:102A900014F0200F2CD117F0800F02D014F0800F0B
:102AA00050D114F0400F1DD0202383F31188FDF77F
:102AB000D7FDB268374842F010030021B360FEF73B
:102AC000E7FAFDF7EDFD002383F311884FF6BF70A1
:102AD00007EA0001A981B5F800C02CF040021304F8
:102AE000180C2880FDF71CFEBDE8F047FDF740BC40
:102AF000202383F31188FDF7B3FD25485FFA88F1A1
:102B0000FEF7D6FEFDF7CCFD002383F31188C2E764
:102B1000202383F31188FDF7A3FDB1681D4841F41C
:102B200000720021B260FEF7B3FAFDF7B9FD002391
:102B300083F31188B5F800C02CF480731A04100CCC
:102B40002880A5E7202383F31188DFF84480FDF770
:102B500087FD08F13000FEF773FC002806DBA88033
:102B6000FDF79EFD002383F311889AE7D8F808103B
:102B700008F1040041F00802C8F808200021FEF71F
:102B800087FA27F0C00343F04000A881E8E700BFC0
:102B9000280E00202C0E0020AFF30080AFF3008041
:102BA00010B5044C00212046034AFEF739FE034BC2
:102BB000236710BD280E0020012A000800440040B1
:102BC00038B5037B174C0546002918BF0C46012B6E
:102BD0001AD02068144A2B6FB2FBF0F11981A28839
:102BE000B4F806C0218942F4045040F02C024CF0A5
:102BF00040009A8141F0010C18820020A3F814C013
:102C000018801A889B8838BD08498842E1D1084B52
:102C10002620DA69C02142F40032DA61FDF710FCA7
:102C2000D7E700BFD03F000800512502280E002042
:102C300000100240AFF30080AFF30080AFF30080DC
:102C4000154B30B49A69154D42F07D049C610168C2
:102C5000134CE960826813496A604368124A2B602A
:102C6000C568124BE5604569656005692560846942
:102C7000CC60046A4C60C4690C60416AD160C16A6E
:102C80005160816A1160026BDA60816B5960426B3E
:102C90001A6030BC704700BF0010024000080140BD
:102CA000000C0140001001400014014000180140D8
:102CB000032AF0B400F09A80042A08BF41614C4B0B
:102CC00011F080079B5C40F088800F2411F40045D0
:102CD00040F089800F264A002401360139012D0178
:102CE00012F0800F14BF194344F00F0412F4004F88
:102CF00014BF1D4346F00F0652002401360109019E
:102D00002D0112F0800F14BF194344F00F0412F488
:102D1000004F14BF1D4346F00F0652002401360138
:102D200009012D0112F0800F14BF194344F00F0464
:102D300012F4004F14BF1D4346F00F065200240149
:102D4000360109012D0112F0800F14BF194344F020
:102D50000F0412F4004F14BF1D4346F00F0652003B
:102D60002401360109012D0112F0800F14BF19430F
:102D700044F00F0412F4004F14BF1D4346F00F0639
:102D800052002401360109012D0112F0800F14BFF9
:102D9000194344F00F0412F4004F14BF1D4346F0D2
:102DA0000F0652002401360109012D0112F0800F97
:102DB00014BF194344F00F0412F4004F18BF1D4311
:102DC000436808BF46F00F061E4035434560026861
:102DD000144021430160F0BC7047002411F4004509
:102DE0001F463FF477AF1D46002674E7016166E792
:102DF000E03F0008AFF30080AFF30080AFF3008046
:102E0000FEF766BFAFF30080AFF30080AFF3008042
:102E1000704700BFAFF30080AFF30080AFF30080D6
:102E200008B5FEF7E5FBFDF75BFB00F0D9F90320E1
:102E300000F006FA00F094FB00F00AFC00F010FA33
:102E400000F0D6FA00F02CF900F062F84FF4FA70B6
:102E5000FDF726FFFAE700BFAFF30080AFF3008075
:102E60002DE9F04F2049214DC869214E214A7D238B
:102E7000DFF89090204F214C85B082613360AA46E4
:102E800005F1040B4FF00D080020A368A368A368A8
:102E900000F00EFCCAF80000012000F009FCCBF89D
:102EA000000000F085FB164A106000F0B9FAD6F871
:102EB00000C0434628734FF0000E124A40210E48CE
:102EC00089F800E00095CDF80480CDF808C0FEF741
:102ED00017FCBB680B4813B900F002F9D4E70648A9
:102EE0000949FEF7E5FBCFE7440D002068110020FB
:102EF000AC0E002040400008D80D0020000C01401E
:102F0000701100206011002050400008AFF30080D5
:102F100070B5224B224D0024224E82B01C705C7092
:102F20009C70DC701C715C719C71DC711C725C7239
:102F30009C72DC721C73022228464FF4805134705C
:102F40007470B470F47034717471FFF7B1FE284678
:102F500002224FF40051FFF7ABFE284602224FF445
:102F60008041FFF7A5FE284640211122FFF7A0FE71
:102F7000112228468021FFF79BFE0B490B48FEF7E4
:102F800097FB0B48FDF764FF4FF42C714022094B6F
:102F900009480094FDF73CFE02B070BD68110020A6
:102FA000000C01406011002050400008D80D0020A6
:102FB0009C0E0020612E0008B00E0020AFF30080B0
:102FC0002C482D4AC3692DE9F0412C4D2C4C2D4E37
:102FD0002D4F9A612D48FDF7D3FF2B4900222C4835
:102FE000FEF7FEF82860FDF7DBFF296801200029C5
:102FF0003DD13A6802EB420106EB410316F811207D
:1030000093F8018093F802C093F803E01879597996
:10301000531E84F8018084F802C084F803E0207114
:1030200022706171052BD5D8DFE803F01C17110B56
:103030000703607800F004F9CCE7164800F000FAC6
:10304000C8E70120D4F8011000F00AFBC2E7002015
:10305000D4F8011000F004FBBCE70120617800F017
:1030600037F9B7E70020617800F032F9B2E7FDF7F1
:1030700017FEAFE7440D00206040000888110020D3
:103080004016002048160020A816002078110020C5
:103090006C16002041160020AFF30080AFF30080D3
:1030A00010B50A4882B0FDF7D3FE05220848094949
:1030B000FEF70EF800244FF496614022064B0748B5
:1030C0000094FDF7A5FD02B010BD00BF78110020EF
:1030D0006C16002094160020C12F000890110020CB
:1030E00070B5184D04461848FDF74AFF297894F842
:1030F00000C001EB4103154A5E0002F806C060788B
:1031000002EB060C8CF80100A37800228CF8023048
:10311000E6780F488CF8036026798CF804606479AF
:103120008CF80540FEF71CF828780A4A013082FB2B
:103130000013590801EB8102831A2B70BDE870401F
:10314000FDF72EBF681600207811002048160020D9
:103150006C16002067666666AFF30080AFF30080F0
:103160001648174AC3692DE9F0414FF40066154D22
:10317000DFF85C80144C9A6137464FF480617D2003
:1031800067616161FDF78CFD1048FDF7F9FED8F825
:1031900000302B60FDF704FF2A684FF4806112F0C5
:1031A000010F14BF2661666112F0020F14BF216186
:1031B00061617D20FDF774FDDFE700BF440D002055
:1031C0007040000870180020000C0140AC16002070
:1031D000BC160020AFF30080AFF30080AFF3008097
:1031E00030B5104C4FF400634FF48065236183B019
:1031F0001946062220462561FFF75AFD2946062278
:103200002046FFF755FD0848FDF722FE00244FF445
:10321000D8714022054B06480094FDF7F9FC03B035
:1032200030BD00BF000C0140AC1600206131000829
:10323000C0160020AFF30080AFF30080AFF3008032
:1032400010B504460448FDF79BFE044B1C60BDE826
:103250001040FDF7A5BE00BFAC160020BC16002034
:1032600038B5164D164C012106222846FFF720FDE1
:10327000284602210622FFF71BFD4FF4804106225B
:103280002046FFF715FD20464FF400410622FFF7C8
:103290000FFD20464FF400510622FFF709FD0123E0
:1032A0006B6102224FF480414FF400404FF4005311
:1032B0006A6121612061236138BD00BF00080140BF
:1032C00000100140AFF30080AFF30080AFF3008047
:1032D0000128F0B452D94FF400572B4B2B4E002548
:1032E00077611D801C880D01A0B22949FF280D803F
:1032F00008D81988481C18801A881FFA82FCBCF16B
:10330000FF0FF6D9DFF894C00F2122488CF8001087
:103310000124022655FA01F212F0010F046114BFD4
:1033200006614661002201E01A8801321A801A887B
:1033300092B2FF2AF8D94461002201E01A880132D2
:103340001A801A8892B2FF2AF8D90139E2D20022F3
:103350001A8018888CF800101FFA80FCBCF1FF0F4F
:1033600008D81A88501C1880B3F800C01FFA8CF1D6
:10337000FF29F6D9054B1F61F0BC7047064A0127AB
:1033800032F810309F40A8E7741800200010014068
:1033900076180020000801408040000878180020BE
:1033A0002DE9F0410E4F0F4E0F4DDFF840804FF0EA
:1033B000FA0E4FF40044314605227346C5F800E08A
:1033C0003846C8F81040FEF763F82B68A7F12000D4
:1033D00031460522C8F81440BDE8F041FDF7A0BF12
:1033E000580E0020801800207C180020000C01409E
:1033F00010B5084C4FF4004120460622FFF758FC58
:10340000054806494FF400436361BDE81040FEF7EC
:1034100027BA00BF000C0140280E00200008002041
:1034200008B5202383F31188FDF7DAF8FDF7F8F8E3
:10343000002383F31188012008BD00BFAFF3008093
:103440000178074B197042785A7090F802C083F8DF
:1034500002C0C178D97002791A71FFF7A1BF00BF0D
:1034600080180020AFF30080AFF30080AFF300803E
:1034700030482DE9F84F304AC369DFF8D0902F4C1F
:10348000DFF8CCB0DFF8CCA02D4E9A61402740F297
:10349000FF354FF00108002277612280B4F800C0A8
:1034A000C9F800201FFA8CF1A94207D82188481CCE
:1034B000208023881FFA83FEAE45F7D90C23D9F864
:1034C0000020ABF800300C233761002101E0208898
:1034D000411C2180B4F800E01FFA8EFCAC45F6D9FF
:1034E000B168776111F0800F1CBF08FA03F1521820
:1034F000002101E02088411C2180B4F800E01FFA7F
:103500008EFCAC45F6D9013BDED24021C9F8002043
:10351000ABF800300B483161CAF80020FDF730FDF0
:10352000DAF80030084A1360FDF73AFD1920FDF77C
:10353000B7FBB0E7440D002090400008521B00206C
:1035400000080140881800204C1B0020481B002068
:10355000501B0020541B0020AFF30080AFF300800D
:1035600030B50E4C83B04021204606224025FFF79F
:103570009FFB8021022220462561FFF799FB084826
:10358000FDF766FC00244FF42C712A46054B0648D3
:103590000094FDF73DFB03B030BD00BF00080140C3
:1035A000881800207134000898180020AFF30080BC
:1035B00010B50448FDF7E4FC034B1C68FDF7F0FC74
:1035C000204610BD881800204C1B0020AFF300805F
:1035D0000A488268836812F0010FC3F3400305D0E4
:1035E00033B107490B68581E08607047002BF8D0AC
:1035F000034B1A68511C1960704700BF000C014052
:10360000581B0020AFF30080AFF30080AFF30080C1
:103610000A488268836812F4807FC3F3402305D090
:1036200033B107490B68581E08607047002BF8D06B
:10363000034B1A68511C1960704700BF000C014011
:103640005C1B0020AFF30080AFF30080AFF300807D
:1036500001480249FDF7F4BFD00D0020A04000084A
:1036600038B504460D4660B1202383F31188FCF77A
:10367000B7FF0A480560FCF7D3FF002383F31188E6
:1036800038BD202383F31188FCF7AAFF044B1D608B
:10369000FCF7C6FF234683F3118838BD5C1B00206E
:1036A000581B0020AFF30080AFF30080AFF3008021
:1036B00038B5054678B1202383F31188FCF790FFD5
:1036C0000D4A0E4C11682160FCF7AAFF002383F31A
:1036D0001188206838BD202383F31188FCF780FF10
:1036E0000748064C03682360FCF79AFF2B4683F3D8
:1036F0001188206838BD00BF5C1B0020601B0020C3
:10370000581B0020AFF30080AFF30080AFF30080C0
:1037100069646C65000000006D61696E0000000066
:10372000535623310000000053562332000000009E
:10373000535623330000000053562334000000008A
:103740005356233500000000535623360000000076
:103750005356233700000000535623380000000062
:103760005356233900000000535623313000000027
:10377000535623313100000000000000000000001B
:1037800022636856545365744922282900000000BA
:1037900022636856545265736574492228290000D3
:1037A0006368565452657365744928292C20233167
:1037B0000000000000000000000000000000000009
:1037C000636853636852656164794928292C202312
:1037D00031000000737461636B206F766572666CF4
:1037E0006F770000000000000000000000000000F3
:1037F00022636854686443726561746549222829AC
:103800000000000022636854686453657450726954
:103810006F72697479222829000000006368546877
:1038200064526573756D6528292C202331000000D2
:10383000226368546864536C65657022282900000F
:103840006368546864457869745328292C202331AF
:10385000000000002263685468645761697422287C
:103860002900000063685468645761697428292C32
:103870002023310063685468645761697428292CD7
:1038800020233200000000000000000000000000C3
:1038900022636853656D496E69742228290000000F
:1038A00022636853656D5265736574492228290047
:1038B000636853656D52657365744928292C20230C
:1038C0003100000022636853656D576169745322AB
:1038D00028290000636853656D576169745328296E
:1038E0002C2023310000000022636853656D57616E
:1038F000697454696D656F7574532228290000003E
:10390000636853656D5761697454696D656F75744B
:103910005328292C2023310022636853656D536995
:10392000676E616C22282900636853656D5369676F
:103930006E616C28292C202331000000226368531B
:10394000656D5369676E616C49222829000000008B
:10395000636853656D5369676E616C4928292C2033
:103960002331000022636853656D416464436F75C1
:103970006E7465724922282900000000636853654F
:103980006D416464436F756E7465724928292C20FB
:103990002331000022636853656D5369676E616C63
:1039A0005761697422282900636853656D536967FC
:1039B0006E616C5761697428292C20233100000046
:1039C000636853656D5369676E616C5761697428EC
:1039D000292C20233200000000000000000000001D
:1039E0002263684D7478496E6974222829000000AA
:1039F0002263684D74784C6F636B53222829000052
:103A000063684D74784C6F636B5328292C202331E5
:103A10000000000063684D74784C6F636B53282975
:103A20002C202332000000002263684D7478547209
:103A3000794C6F636B5322282900000063684D7432
:103A400078556E6C6F636B28292C202331000000A1
:103A500063684D7478556E6C6F636B28292C202336
:103A60003200000063684D7478556E6C6F636B5361
:103A700028292C202331000063684D7478556E6C22
:103A80006F636B5328292C202332000000000000B4
:103A900022636845767452656769737465724D6117
:103AA000736B222829000000226368457674556EE6
:103AB00072656769737465722228290022636845FC
:103AC00076745369676E616C4922282900000000F2
:103AD0002263684576745369676E616C22282900F9
:103AE00022636845767442726F6164636173744DDA
:103AF00061736B4922282900226368457674446902
:103B00007370617463682228290000006368457639
:103B100074446973706174636828292C2023310010
:103B20002263684D42496E69742228290000000012
:103B30002263684D42526573657422282900000093
:103B40002263684D42506F7374532228290000008D
:103B50002263684D42506F73744922282900000087
:103B60002263684D42506F737441686561645322EB
:103B7000282900002263684D42506F7374416865C4
:103B800061644922282900002263684D4246657419
:103B900063685322282900002263684D42466574F9
:103BA000636849222829000000000000000000008E
:103BB00022636849515265616454696D656F75741B
:103BC000222829002263684F51577269746554692D
:103BD0006D656F7574222829000000000000000048
:103BE00022657874537461727422282900000000E1
:103BF000657874537461727428292C202331000075
:103C00002265787453746F70222829006578745384
:103C1000746F7028292C20233100000022657874ED
:103C20004368616E6E656C456E61626C6522282921
:103C3000000000006578744368616E6E656C456EC7
:103C400061626C6528292C2023310000226578747C
:103C50004368616E6E656C44697361626C652228AD
:103C6000290000006578744368616E6E656C446974
:103C70007361626C6528292C20233100000000004C
:103C80002269326353746172742228290000000093
:103C9000693263537461727428292C202331000027
:103CA0002269326353746F7022282900693263538A
:103CB000746F7028292C20233100000022693263A0
:103CC0004765744572726F727322282900000000E4
:103CD000226932634D61737465725472616E736DE3
:103CE000697454696D656F7574222829000000009D
:103CF0006932634D61737465725472616E736D697C
:103D00007454696D656F757428292C202331000067
:103D1000226932634D6173746572526563656976B9
:103D20006554696D656F7574222829006932634D89
:103D300061737465725265636569766528292C2004
:103D400023310000226932634163717569726542F3
:103D500075732228290000002269326352656C6560
:103D6000617365427573222829000000000000007D
:103D7000227364537461727422282900736453742B
:103D800061727428292C20233100000022736453AF
:103D9000746F702228290000736453746F7028298F
:103DA0002C20233100000000227364496E636F6D84
:103DB000696E674461746149222829002273645244
:103DC0006571756573744461746149222829000026
:103DD000E1170008C11700086117000871170008F3
:103DE00001180008F1170008D1170008B1170008E2
:103DF0008117000800000000000000000000000023
:103E000022646D61416C6C6F6361746522282900C6
:103E100022646D6152656C6561736522282900001A
:103E2000646D6152656C6561736528292C202331AE
:103E30000000000000000000000000000000000082
:103E4000080002400400024000000B001C00024079
:103E50000400024004010C00300002400400024053
:103E600008020D0044000240040002400C030E0052
:103E7000580002400400024010040F006C00024091
:103E800004000240140510008000024004000240BB
:103E900018061100000000000000000000000000F3
:103EA0006932635F6C6C645F737461727428292C6F
:103EB000202331006932635F6C6C645F73746172DC
:103EC0007428292C20233200226932635F6C6C64D1
:103ED0005F7365745F636C6F636B22282900000059
:103EE0006932635F6C6C645F7365745F636C6F638E
:103EF0006B28292C202331006932635F6C6C645F6E
:103F00007365745F636C6F636B28292C2023320008
:103F10006932635F6C6C645F7365745F636C6F635D
:103F20006B28292C202333006932635F6C6C645F3B
:103F30007365745F636C6F636B28292C20233400D6
:103F40006932635F6C6C645F7365745F636C6F632D
:103F50006B28292C202335006932635F6C6C645F09
:103F60007365745F636C6F636B28292C20233600A4
:103F70006932635F6C6C645F7365745F636C6F63FD
:103F80006B28292C20233800226932635F6C6C6413
:103F90005F6D61737465725F726563656976655F95
:103FA00074696D656F757422282900002269326377
:103FB0005F6C6C645F6D61737465725F7472616E67
:103FC000736D69745F74696D656F7574222829005B
:103FD000009600000000004000000000000000000B
:103FE000040204080800030708080808080808086D
:103FF0000B0F0000000000000000000000000000A7
:10400000FFFFFFFF844B888888888888FFFFFFFFB9
:10401000888888888888B8B4FFFFFFFF8888844430
:1040200088338388FFFFFFFF4488888888888888D2
:10403000FFFFFFFF88888888888888880000000044
:104040006900000000000000000000000000000007
:1040500001000000A0860100010000000000000037
:1040600065000000000000000000000000000000EB
:104070006C64000000000000000000000000000070
:104080000E000F0000000000000000000000000013
:10409000656100000000000000000000000000005A
:1040A00007000000D135000807000000D1350008E6
:1040B0000000000000000000000000000000000000
:1040C00000000000000000000000000000000000F0
:1040D00000000000000000000000000000000000E0
:1040E0000700000011360008070000001136000824
:1040F00000000000000000000000000000000000C0
:1041000000000000000000000000000000000000AF
:10411000000000000000000000000000000000009F
:10412000000000000000000000000000000000008F
:10413000000000000000000011000000110000005D
:0C414000802500000000000000000000CE
:04000005080000F0FF
:00000001FF
