:020000040800F2
:100000000004002011010008E1020008E1020008DC
:10001000E1020008E1020008E1020008E102000834
:10002000E1020008E1020008E102000811030008F3
:10003000E1020008E1020008E1020008E103000813
:10004000E1020008E1190008E1020008E1020008ED
:10005000E1020008E1020008E11700081118000899
:100060004118000871180008A118000811140008B0
:100070004114000871140008B1140008F1140008BC
:100080003115000871150008E1020008E1020008BE
:10009000E1020008E1020008E1020008D1180008AE
:1000A000E1020008E1020008E1020008E1020008A4
:1000B000E1020008E1020008E1020008011D000859
:1000C000111F0008E1020008E1020008E102000837
:1000D000E1020008E102000891240008E1020008A2
:0C00E00051190008E1020008111A000884
:1000F000704700BFAFF30080AFF30080AFF3008024
:10010000FEE700BFAFF30080AFF30080AFF30080E5
:1001100072B6634880F30988022383F31488BFF31F
:100120006F8F604A604CA24217D213464FF0553190
:10013000D64343F8041BA519A342C5F380050CD28E
:1001400025B1196002F10803A34206D21A4642F80B
:10015000041B5960131DA342F8D3544A824217D29C
:1001600013464FF05531D54343F8041B44198342DD
:10017000C4F380040CD224B1196002F10803834255
:1001800006D21E4646F8041B5960331D8342F8D33D
:1001900002F0CEFA464C4749A14222D246480B46CD
:1001A000024652F8046BCD4343F8046B04EB050C94
:1001B000A342CCF3800514D23DB1166800F10802C9
:1001C0001E6001F10803A3420BD2104650F8045BF5
:1001D000194641F8045B5668021D5E600B1DA34280
:1001E000F3D3364A3648824217D200211346D4430D
:1001F00043F8041B00EB040E8342CEF380040CD2C0
:1002000024B1196002F10803834206D21A4642F86B
:10021000041B5960131D8342F8D32A4D2A4EFFF761
:1002200067FFB54219D22C4654F8043BE9437718CE
:100230009847B442C7F380070FD22FB1236805F166
:1002400008049847B44208D2254655F8042B904735
:1002500060682C1D8047B442F6D31C4D1C4E02F042
:1002600077FAB5421AD22C46EF4354F8043B06EB1A
:10027000070CCCF380079847B4420FD22FB1226805
:1002800005F108049047B44208D2254655F8040BFE
:10029000804761682C1D8847B442F6D3FFF730BF12
:1002A00000080020000000200004002000040020BE
:1002B0000008002000080020503F0008000800202F
:1002C000F8150020EC000008EC000008EC00000825
:1002D000EC000008AFF30080AFF30080AFF30080C4
:1002E000FEE700BFAFF30080AFF30080AFF3008004
:1002F00072B6FEE7AFF30080AFF30080AFF300808B
:1003000000F06EF900F0D4FB00F08AF900DF00BFC6
:10031000EFF30983203383F30988002383F31188E3
:10032000704700BFAFF30080AFF30080AFF30080F1
:100330000A4B002210B59A60094A07201021DA60A2
:1003400000F0A6F80A204FF4007100F0A1F80B208D
:100350008021BDE8104000F09BB800BF00ED00E038
:100360000000FA05AFF30080AFF30080AFF3008028
:10037000202383F311881648436813F4006316D0D2
:10038000EFF30983203B83F30988124A4FF0807012
:100390009169D86171B11068D2698168926891429F
:1003A00094BF002201227AB10B499961704783F30F
:1003B000118870471068D26981689268914234BF91
:1003C00000220122002AEFD1044A9A61704700BF3F
:1003D00000ED00E0340D0020010300080C030008CC
:1003E00010B500F07DF9202383F3118800F038F96F
:1003F00000F0AEF800F054F9002383F3118800F008
:100400008FF9BDE81040FFF7B3BF00BFAFF3008026
:100410002DE9F04FC1F80CD0D0F80CD0BDE8F08F2A
:1004200008B500F0FDF8002383F311882846A047A3
:1004300000F076FC08BD00BFAFF30080AFF3008092
:10044000F0B400F00307FE00FF2313FA06F200F0F9
:100450001F04B1400125A5408608094CC03654F858
:100460002670400927EA020242EA010300F1600710
:1004700044F8263044F8275044F82050F0BC704728
:1004800000E100E0AFF30080AFF30080AFF3008045
:1004900000F0030210B4FF23D40013FA04F2A140C9
:1004A0008008064C063054F8203023EA020242EA63
:1004B000010344F8203010BC704700BF00ED00E09D
:1004C0000248034AC3699A61FEE700BF340D002069
:1004D000E0340008AFF30080AFF30080AFF300809A
:1004E00030B583B0FFF724FF00F012FA00F0A8F94E
:1004F00000F006FE00F04CFE00F062F940210E48CC
:1005000000F016FB0D4D0E490124E86180F82040F3
:10051000C16100F04DF8002383F3118862B6EA69E7
:100520001D46084BC021936107482246074B0095A2
:1005300000F06EFB03B030BD00080020340D002039
:1005400000040020E834000850080020C10400081E
:1005500070B500F005F9114B9A69002A01DD013AE6
:100560009A61DA690E4C516A2368481C5062E1684E
:10057000481CA342E0600FD09D68013D9D605DB9BD
:1005800026461968DA681869DD604E602160904778
:10059000236898680028F4D070BD00BF340D002097
:1005A000240D0020AFF30080AFF30080AFF3008094
:1005B0000548036813B9054A116821B10448054B81
:1005C0001860FFF795BE7047100900201C0D002031
:1005D00000350008200D0020AFF30080AFF300804D
:1005E000084810B5036853B9074C216821B1074A80
:1005F000074B1A60FFF77CFE0120206010BD024C03
:10060000F5E700BF100900201C0D00200835000888
:10061000200D0020AFF30080AFF30080AFF3008027
:10062000094810B5036833B9084C2168002903DD77
:100630000020206010BD054C054A064B1A60FFF7EC
:1006400057FE0020206010BD100900201C0D002066
:1006500010350008200D0020AFF30080AFF30080BC
:10066000084810B50368002B0ADD074C216821B14A
:10067000064A074B1A60FFF73BFE0120206010BDC1
:10068000014CF5E7100900201C0D0020183500086A
:10069000200D0020AFF30080AFF30080AFF30080A7
:1006A0000A4810B50368002B06DD094C21680029B3
:1006B00003DD0020206010BD054C064A064B1A6081
:1006C000FFF716FE0020206010BD00BF10090020BB
:1006D0001C0D002020350008200D0020AFF3008005
:1006E00010B5202383F31188094C2368002B02DB0B
:1006F000084802682AB1084B08491960FFF7F8FD5D
:1007000023685A1C2260002383F3118810BD00BFA8
:10071000100900201C0D0020200D002028350008A5
:1007200010B5202383F31188094C2368002B02DDC8
:10073000084802682AB1084B08491960FFF7D8FD3C
:1007400023685A1E2260002383F3118810BD00BF66
:10075000100900201C0D0020200D0020303500085D
:1007600006480368002B04DB054A1168002900DDF8
:1007700070470448044B1860FFF7BABD1009002009
:100780001C0D002038350008200D0020AFF300803C
:100790000648036823B9064A1168002900DD70473E
:1007A0000448054B1860FFF7A3BD00BF10090020E7
:1007B0001C0D002040350008200D0020AFF3008004
:1007C000034A4021134643F8081B5360704700BF9B
:1007D00014090020AFF30080AFF30080AFF3008076
:1007E00010B40D4A0D4C0E495368E468C9691C6089
:1007F0005960846A03F110019C6090F8204002F572
:10080000816081421C7328BF02F10803516028BF38
:10081000536010BC704700BF14090020240D002055
:10082000340D0020AFF30080AFF30080AFF3008001
:10083000014B1860FFF75CBD200D0020AFF3008076
:10084000044B4FF0FF3000225B601B609860DA6061
:10085000704700BF240D0020AFF30080AFF300808D
:10086000F8B504460D4616461F46FFF779FFCCB192
:10087000C6B1BDB10D4927610B68E6609A68954223
:1008800004D91B68AD1A9A68AA42FAD35A688B42F7
:100890002360626014605C60A56002D09868451BAC
:1008A0009D60F8BD0248FFF7C3FFE3E7240D002079
:1008B00050350008AFF30080AFF30080AFF3008045
:1008C00010B50446FFF74CFF84B1E36893B1236889
:1008D0000A4A934203D09968A268881898606068B1
:1008E000002203602368E260586010BD0448FFF7EF
:1008F0009FFFEAE70348FFF79BFFE8E7240D00208E
:100900006035000870350008AFF30080AFF3008059
:10091000044B002014225B601B6098609A615B614D
:100920001B617047340D0020AFF30080AFF30080EF
:1009300010B590F8203004468BB10E2B0FD000225A
:10094000094BA16884F820201B6898688842FBD274
:100950005968236061600C605C60204610BD0348EC
:10096000FFF766FFEBE700BF340D0020903500086D
:1009700090F820300D2B11D8DFE803F01510100788
:10098000100B101010101010100B816A8B685A1C7D
:100990008A60416803680B60026851604FF0FF3263
:1009A0008262FFF7C5BF7047AFF30080AFF30080EE
:1009B00070B5114C0646FFF7EBFEE569142085F88B
:1009C0002060236801211A6883F82010A061546018
:1009D00028462260E361FFF703FFEA69ADF12403D3
:1009E0009A4202D90548FFF723FFE0692946BDE88E
:1009F0007040FFF70DBD00BF340D0020A435000886
:100A000070B50E4686B00546FFF7C2FEB6F1FF3F51
:100A100012D00C4C3146E3690B4A01A8FFF720FFC6
:100A20002846FFF7C5FF049B13B101A8FFF748FF55
:100A3000E069806A06B070BD2846FFF7B9FF014C37
:100A4000F6E700BF340D002071090008AFF3008005
:100A500070B5154D04460E46FFF79AFEE869A26888
:100A60008368A6629A4215D9FFF762FF0123142218
:100A7000064684F82030AA61EC61FFF7B1FEF06908
:100A8000ADF1240188420AD820463146BDE87040C5
:100A9000FFF7BEBC2046BDE87040FFF749BF0348E2
:100AA000FFF7C6FEF0E700BF340D0020A4350008B4
:100AB00070B5104C01212368E5691A681420A06103
:100AC00083F82010546028462260E361FFF730FF6E
:100AD0002846FFF785FEEA69ADF124039A4202D960
:100AE0000548FFF7A5FEE0692946BDE87040FFF71D
:100AF0008FBC00BF340D0020A4350008AFF3008088
:100B000010B5FFF745FE064AD069116883688A6808
:100B10009A4200D810BDBDE81040FFF7C9BF00BF22
:100B2000340D0020AFF30080AFF30080AFF30080FE
:100B3000F0B40022104C0125022380F8203080F808
:100B4000212080F82250656900F1300600F12C0C5C
:100B500000F14C0704618160456141646061026499
:100B6000C263426282612861C0F82CC0466306639A
:100B7000C761F0BC704700BF340D0020AFF30080A8
:100B8000F8B504460D4616461F46FFF7E9FD0CB1C1
:100B9000AF2D2BD81848FFF74BFE243D6119E160BB
:100BA0006751069D15484D600023154A022701250F
:100BB000086284F8207084F8225084F8213050694B
:100BC00004F1300104F12C0704F14C05226160614D
:100BD000A6606664546123640461E3636362A36195
:100BE000E76261632163E5612046F8BD7F2ED1D8BD
:100BF000002FD2D1CEE700BFC03500082104000885
:100C0000340D0020AFF30080AFF30080AFF300801D
:100C1000F0B504460D461F4683B016464C302346B9
:100C2000FF211A4602F8011B5970531C8342F8D168
:100C30006019834215D25521DA4303F8011B00EBFA
:100C4000020C83420CF001020BD01AB103F8011B15
:100C5000834206D01A4602F8011B5970531C834286
:100C6000F8D1202383F31188FFF7BAFC2046089CB3
:100C70003B46324629460094FFF782FF0021044696
:100C8000FFF7E6FEFFF7CCFC002383F31188204634
:100C900003B0F0BDAFF30080AFF30080AFF300808E
:100CA00010B5044610B90948FFF7C2FD202383F3AD
:100CB0001188FFF795FC21460620FFF7A1FEFFF7FC
:100CC000AFFC002383F3118810BD00BF003600087D
:100CD000114B70B5DC69254655F82C3FA062AB423C
:100CE00007D01A681846E262FFF722FEE36AAB42B9
:100CF000F7D194F8210010F0030F04D16369226941
:100D00001A6121694B610E20FFF752FE0348BDE8CE
:100D10007040FFF78DBD00BF340D00201036000875
:100D200010B52023044683F31188FFF759FC2046B1
:100D3000BDE81040FFF7CCBFAFF30080AFF30080F9
:100D400038B504460D4628B1002903DB64602460F1
:100D5000A56038BD0348FFF76BFD64602460A560A3
:100D600038BD00BF60360008AFF30080AFF30080ED
:100D700070B504460D46FFF70BFD002C25D0A36887
:100D8000002B0CDB2268A24203D01448FFF750FD71
:100D9000A368591E0029A16008DB002070BD2068EF
:100DA000A042F2D0591E0029A160F6DA8DB10C499B
:100DB0000320CB6929469C6262681C605A606360AC
:100DC0001360BDE87040FFF71BBE0648FFF730FD1B
:100DD000D5E7A3604FF0FF3070BD00BFD0360008EC
:100DE000340D0020B8360008AFF30080AFF3008068
:100DF00010B50446FFF7B4FC002C20D0A368002BEC
:100E00000BDB2268A24203D00F48FFF711FDA36855
:100E10000133002BA36007DD10BD2068A042F3D092
:100E20000133002BA360F7DC236800211A68184601
:100E3000226054609962BDE81040FFF779BD034815
:100E4000FFF7F6FCDAE700BF203700080C37000890
:100E500010B5044620B1002364602460A36010BD77
:100E60000348FFF7E5FC002364602460A36010BD25
:100E7000B0370008AFF30080AFF30080AFF300801D
:100E80003B4B2DE9F0410546DC69FFF781FC002D65
:100E90006AD0A868002836D0A2688168914208D23A
:100EA00090F820308260042B46D0052B31D0002BE7
:100EB0001ED02B461B689D4203D09868A1688842CB
:100EC000F8D25A682360626004205C601460A562F6
:100ED000FFF76EFDAB68A34202D02648FFF7A8FCDF
:100EE000206CA84213D02448BDE8F041FFF7A0BC15
:100EF0004368026801211A60026880F8201053607C
:100F0000FFF716FDD5E7216CAC60E9602564BDE80C
:100F1000F08141680768866A0F6007683346796028
:100F20001B689E4202D099689142F9D25A680360C8
:100F3000426010605860BCE741680768866A0F60CD
:100F40000768334679601B689E4202D099689142D7
:100F5000F9D25A680360426010605860B068A268B5
:100F6000836893429CD3A4E70448FFF761FC90E7B1
:100F7000340D0020D0370008E4370008C0370008DF
:100F800010B52023044683F31188FFF729FB204680
:100F9000FFF776FFFFF744FB002383F3118810BDB2
:100FA000214A70B52023D56983F31188FFF718FB18
:100FB0002C6C002C33D0A368AB4203D01B48FFF746
:100FC00037FC2C6C2368E268A3422A641ED0686C4C
:100FD0004AB11168914203D08968884238BF0846F7
:100FE000D268002AF5D11A681E6CA8600021226020
:100FF00018465460A360E6601C64FFF729FDFFF704
:101000000FFB002383F31188204670BD0020A060F1
:10101000FFF706FB002383F31188204670BD0448C8
:10102000FFF706FC2C6CC6E7340D002020380008C2
:101030000C380008AFF30080AFF30080AFF30080FE
:1010400070B504460D461646A0B199B1002A11DDCF
:1010500005EB860304F11C003146E560A5602560C0
:101060006360FFF76DFE04F110000021BDE87040E1
:10107000FFF766BE0148FFF7DBFBE9E760380008D1
:1010800070B504460D461646FFF782FBCCB1C5B1DC
:10109000314604F11000FFF76BFE064678B9E368AD
:1010A000626853F8041B04F11C0093422960E3605A
:1010B00024BF2368E360FFF79BFEFFF721FD304666
:1010C00070BD0248FFF7B4FBE2E700BFC838000874
:1010D00070B5202306460D46144683F31188FFF7AA
:1010E0007FFA224629463046FFF7CAFF0446FFF73B
:1010F00097FA002383F31188204670BDAFF3008078
:10110000054B064A064823F00701064B116020F004
:1011100007021A60704700BFFF150020580D00201D
:1011200000500020540D0020AFF30080AFF300808A
:1011300010B50446FFF714FB074A0849136809680D
:10114000E01D20F00700C91A884203D81818106063
:10115000184610BD002010BD580D0020540D002071
:1011600010B52023044683F31188FFF739FA20468F
:10117000FFF7DEFF0446FFF753FA002383F31188DD
:10118000204610BDAFF30080AFF30080AFF30080C6
:10119000044B0549002203F1100019609A60DA60DF
:1011A000FFF756BE600D002061110008AFF300800C
:1011B00010B500F07DFA00F00BF9064801F0D8F9FF
:1011C00000F00EF800F044F800F0AAF8BDE8104076
:1011D00001F0B6BA103E0008AFF30080AFF3008014
:1011E00000F02EBCAFF30080AFF30080AFF30080BF
:1011F0000121002301704360704700BFAFF30080FE
:1012000038B504460D46C8B1C1B1202383F3118817
:10121000FFF7E6F92178481EC3B2012B02D909482D
:10122000FFF706FB2046656000F012FC02222270E8
:10123000FFF7F6F9002383F3118838BD0248FFF762
:10124000F7FAE2E700390008F0380008AFF3008051
:1012500000F00EBFAFF30080AFF30080AFF300806B
:1012600001210023017043600C30FFF7F1BD00BF86
:1012700038B504460D46D8B1D1B12378581EC2B254
:10128000012A04D9052B02D00B48FFF7D1FA2023FD
:1012900083F31188FFF7A4F92046656000F000FF92
:1012A00002232370FFF7BCF9002383F3118838BDB4
:1012B0000248FFF7BDFAE0E7A039000890390008BE
:1012C000F0B51D4685B004460F461646202383F32D
:1012D0001188FFF785F90023A36023702B460A9D30
:1012E000204600950B9D394601950C9D324602958E
:1012F00001F03EF8B0F1FF3F054609D00221217010
:10130000FFF78EF9002383F31188284605B0F0BD5E
:1013100005202070F4E700BFAFF30080AFF300803A
:1013200001F0FEB8AFF30080AFF30080AFF30080B0
:10133000002301220270437083704360704700BF36
:1013400070B504460D46164600B1D1B90E48FFF7F8
:101350006FFA202383F31188FFF742F92388022BC9
:1013600002D00A48FFF764FA20462946324601F0C7
:10137000EFF801206070FFF753F9002383F3118821
:1013800070BD002AE5D1E1E7C03A0008D43A000870
:1013900001494B6883607047001000E0AFF30080A4
:1013A000084B09495A6883680968D31AC2685B1AEE
:1013B0009342836004D80269934238BF0361704747
:1013C000C3607047001000E0800D0020AFF3008084
:1013D00010B50B4A86B00B490B4C002301A80192B3
:1013E0004FF0FF3223600393049302910592FFF7BD
:1013F000CFFF01A802998847039B236006B010BD68
:1014000091130008A1130008800D0020AFF30080A5
:1014100010B5FFF765F90848084A03680F241168FA
:10142000546013B1406821409847FFF779F9BDE84F
:101430001040FEF79DBF00BF840D00200000024059
:1014400010B5FFF74DF90848084A8368F024116881
:1014500054601BB1C068C1F303119847FFF760F9EE
:10146000BDE81040FEF784BF840D0020000002405C
:1014700010B5FFF735F90948094A03694FF470645C
:10148000116854601BB14069C1F303219847FFF70D
:1014900047F9BDE81040FEF76BBF00BF840D002088
:1014A00000000240AFF30080AFF30080AFF3008094
:1014B00010B5FFF715F90948094A83694FF47044DC
:1014C000116854601BB1C069C1F303319847FFF73D
:1014D00027F9BDE81040FEF74BBF00BF840D002088
:1014E00000000240AFF30080AFF30080AFF3008054
:1014F00010B5FFF7F5F80948094A036A4FF470245C
:10150000116854601BB1406AC1F303419847FFF76B
:1015100007F9BDE81040FEF72BBF00BF840D002087
:1015200000000240AFF30080AFF30080AFF3008013
:1015300010B5FFF7D5F80948094A836A4FF47004DB
:10154000116854601BB1C06AC1F303519847FFF79B
:10155000E7F8BDE81040FEF70BBF00BF840D002088
:1015600000000240AFF30080AFF30080AFF30080D3
:1015700010B5FFF7B5F80948094A036B4FF07064DE
:10158000116854601BB1406BC1F303619847FFF7CA
:10159000C7F8BDE81040FEF7EBBE00BF840D002089
:1015A00000000240AFF30080AFF30080AFF3008093
:1015B000124BF0B4D3F800C0DF689E695D6A1C6B03
:1015C000D86B996C0023CCF800300D4ADFF838C096
:1015D0003B601360336093602B6013612360936101
:1015E0000360136293621363CCF800300B60054B09
:1015F0004FF0FF325A60F0BC704700BF603C0008FB
:10160000840D002000000240BC0D0020AFF30080DC
:10161000F0B5044685B0002833D0667A012505FA76
:1016200006FC1D4F38681CEA000F26D11B4D4CEA02
:10163000000010F07F0F05EBC60C45F83620CCF803
:101640000430386004D0164B5F6947F001065E61D4
:10165000236860681F6827F001051D60267A0F2740
:1016600017FA06F6002506601D6042B1A07A09014E
:10167000FEF7E6FE284605B0F0BD2846FBE710461B
:10168000F9E70848039102920193FFF7D1F8019B13
:10169000029A0399C1E700BFBC0D0020840D002011
:1016A00000100240203C0008AFF30080AFF3008040
:1016B000224B00224FF0FF3030B421491C6900F565
:1016C0000C3C18611A61DD68D8600CF52070DA6096
:1016D0001C4C486007208A600860E1681A4841F0A5
:1016E0008071E1600468194944F001040460D8691C
:1016F00040F08050D861D86940F00060D861086837
:1017000040F480700860186A00F44071B1F5407FC1
:1017100003D04FF4803119621A62084B1A6A12F42E
:10172000004F07D1186A40F440721A62196A41F4F6
:101730000040186230BCFFF73BBF00BF0010024002
:1017400010E000E0F0ED00E0001000E0007000406C
:101750001F4B1868194640F001021A600B681C4ABA
:1017600013F0020FFAD01368002003F0F9011160A2
:10177000114650604868164A10F00C0FFAD11068F4
:10178000114640F4803313600B68114A13F4003F94
:10179000FAD05368114643F4E8105060136843F0E0
:1017A0008070106008680A4A10F0007FFAD009487B
:1017B000094B1221506019605068114640F0020335
:1017C00053604A6802F00C0CBCF1080FF9D1704765
:1017D0000010024000641D0000200240AFF30080B2
:1017E00010B5FEF77DFF0748074A43680124002132
:1017F00054615B689847FEF793FFBDE81040FEF721
:10180000B7BD00BFC00D002000040140AFF3008051
:1018100010B5FEF765FF0748074A43680224012117
:101820005461DB689847FEF77BFFBDE81040FEF788
:101830009FBD00BFC00D002000040140AFF3008039
:1018400010B5FEF74DFF0748074A436804240221FC
:1018500054615B699847FEF763FFBDE81040FEF7EF
:1018600087BD00BFC00D002000040140AFF3008021
:1018700010B5FEF735FF0748074A436808240321DF
:101880005461DB699847FEF74BFFBDE81040FEF757
:101890006FBD00BFC00D002000040140AFF3008009
:1018A00010B5FEF71DFF0748074A436810240421BE
:1018B00054615B6A9847FEF733FFBDE81040FEF7BE
:1018C00057BD00BFC00D002000040140AFF30080F1
:1018D00010B5FEF705FF1B4A536903F4787413F043
:1018E000200F546128D114F0400F1FD114F0800F45
:1018F00016D114F4807F0DD114F4007F04D0124867
:1019000009214268D36C9847FEF70AFFBDE81040F2
:10191000FEF72EBD0C4808214268536C9847EBE750
:10192000094807214268D36B9847E2E70648062139
:101930004268536B9847D9E7034805214268D36A48
:101940009847D0E700040140C00D0020AFF30080AD
:1019500010B5FEF7C5FE204A536903F47C4413F426
:10196000806F546131D114F4006F28D114F4805F7A
:101970001FD114F4005F16D114F4804F0DD114F46C
:10198000004F04D015480F214268D36F9847FEF7E7
:10199000C7FEBDE81040FEF7EBBC10480E214268C0
:1019A000536F9847EBE70D480D214268D36E984777
:1019B000E2E70A480C214268536E9847D9E7074886
:1019C0000B214268D36D9847D0E704480A2142684A
:1019D000536D9847C7E700BF00040140C00D0020C9
:1019E00010B5FEF77DFE0848084A43684FF480347E
:1019F00010215461D3F884309847FEF791FEBDE87A
:101A00001040FEF7B5BC00BFC00D0020000401402F
:101A100010B5FEF765FE0848084A43684FF4802475
:101A200012215461D3F894309847FEF779FEBDE84F
:101A30001040FEF79DBC00BFC00D00200004014017
:101A40000148FFF7D5BB00BFC00D0020AFF30080F9
:101A50002DE9F04105780446012D7DD0626800260D
:101A60001368012413F0040F3746B44635460CD0F2
:101A70005168002918BF254608BFA44613F0010F7E
:101A800000D0012713F0020F64D10123082132E0B6
:101A900004FA03F845EA080510F0010F1CBF04FA28
:101AA00003F847EA080710F0020F02D014FA03F017
:101AB000064308315058013310F0040F17D002EBE1
:101AC0000108D8F80480B8F1000F3ED004FA03F8FA
:101AD00045EA080510F0010F03D004FA03F847EABD
:101AE000080710F0020F02D014FA03F00643013386
:101AF0000831132B0FD0505810F0040FD9D002EB3F
:101B00000108D8F80480B8F1000FC1D104FA03F835
:101B10004CEA080CC0E7B2F89E10B2F89880B2F810
:101B20009A40B2F89C00214A214BC2F80880D46048
:101B3000106151611F4A002119619F60DE605A6186
:101B4000C3F804C01D60BDE8F08104FA03F84CEA54
:101B5000080CBFE7012698E706206021FEF770FC1D
:101B600007206021FEF76CFC08206021FEF768FC6E
:101B700009206021FEF764FC0A206021FEF760FC6A
:101B800017206021FEF75CFC60212820FEF758FC3E
:101B900028466021FEF754FC29206021FEF750FC06
:101BA0002A206021FEF74CFC58E700BF00000140EE
:101BB00000040140FFFF0700AFF30080AFF3008097
:101BC000C26A036B30B40021146848F200051D801E
:101BD00019809980998223680F2123F001032360E3
:101BE000147A836A11FA04F450681A68046014685D
:101BF000586824F0010414601B7A9940016030BCDD
:101C0000704700BFAFF30080AFF30080AFF30080F8
:101C100070B5C46905465CB1FFF7D2FF0020E861EA
:101C20004FF0FF332046A362BDE87040FEF780BE50
:101C300070BD00BFAFF30080AFF30080AFF3008052
:101C400011F0080F38B50546046B01D0FEF750FBC4
:101C5000EB6A1A685968106820F0010010601B7A5E
:101C60000F2010FA03F20A60A18888B240F40073D2
:101C7000A38038BDAFF30080AFF30080AFF30080E6
:101C800011F0080F70B50446056B36D1A66A3268AC
:101C90007168106820F001031360307A0F2212FA85
:101CA00000F30B6094F8346006B170BDB5F804E041
:101CB00020232EF480510804020CAA80B5F800C03D
:101CC0002CF480610804020C2A8029881FFA81FE06
:101CD0004EF4007CA5F800C083F31188FEF7C0FC29
:101CE000E36923B1E66118469E62FEF721FEFEF726
:101CF000D7FC002383F3118870BDFEF7F9FAC5E71E
:101D00002DE9F0417B4CFEF7EBFC256B94F8343069
:101D10002A8BAE8AB6B2CBB946EA0242764B22F0A3
:101D20007F429A4200F09A8061D8581E824203D1C5
:101D3000B4F820C0A5F810C016F00A0F00D02B8B05
:101D4000FEF7EEFCBDE8F041FEF712BB16F00A0FFD
:101D500005D0AE8A00232A8BB6B22364E36416F062
:101D6000800F0ED0E06C626C216C12F800E0A26C67
:101D7000431C9142A5F810E0E36402D35D4B0021BF
:101D8000D96416F0400F12D0226CB5F810C0A16BC8
:101D9000531C01F802C0E06B2364834202D3554B0D
:101DA000002018645548C26882F48061C16016F052
:101DB000100F33D116F4806FC2D0B5F814E0202391
:101DC0002EF480621104080CA88283F31188FEF7B8
:101DD00047FCE06928B1474900238362CB61FEF7E5
:101DE000A7FDFEF75DFC002383F31188A8E7444BB1
:101DF0009A4252D0991C8A429ED1A26A17687F6883
:101E0000002F58D02B88B4F820C098B24CF00101B4
:101E100040F4A06E2184A5F800E091E7AE8A2B88FB
:101E2000B6B21FFA83FC4CF0010EA5F800E02023A7
:101E300083F31188FEF714FCE06928B12D490022D4
:101E40008262CA61FEF774FDFEF72AFC002383F369
:101E5000118816F4806F3FF473AFAEE7B5F804C095
:101E6000A26A2CF4007003041268190CA98010688F
:101E700040F001031360A98888B240F4805EA5F8A1
:101E800004E05368012B3FF657AFB5F800E02EF49D
:101E900080621304190C29804EE7B5F804C0E06A8B
:101EA0002CF40073190400680A0CAA80036843F03C
:101EB0000101016040E7B5F804C020232CF4007153
:101EC0000A04100CA88029881FFA81FE4EF40072C3
:101ED0002A8083F31188FEF7C3FBE06918B187629B
:101EE000E761FEF725FDFEF7DBFB002383F3118896
:101EF00022E700BFC80D002002000300000C0140D3
:101F000082000700AFF30080AFF30080AFF30080E2
:101F10002DE9F041554DFEF7E3FB2C6B202383F3B5
:101F20001188FEF79DFBEA6AAB6A1068566807687D
:101F30000F2127F001070760107A1A6811FA00F0E4
:101F400030601668586826F0010616601A7A9140CB
:101F50000160FEF7A5FB002383F31188A38A13F425
:101F6000807307D0B4F814C001232CF480700204ED
:101F7000110CA182B4F814E01EF4007F08D0B4F86C
:101F800014C043F002032CF400700204110CA1826F
:101F9000B4F814E01EF4806F14D0B4F814E043F0E9
:101FA00004032EF480600204110CA182B4F804C072
:101FB0002CF400700204110CA180208882B242F43B
:101FC00000712180B4F814C01CF4006F08D0B4F87C
:101FD00014E043F008032EF400600204110CA18207
:101FE000B4F814C01CF4805F08D0B4F814E043F0D7
:101FF00010032EF480500204110CA182B4F814C016
:102000001CF4804F08D0B4F814E043F020032EF401
:1020100080400204110CA182A18A0FFA81FCBCF15C
:10202000000F06DB5BB9FEF77BFBBDE8F041FEF776
:102030009FB9A18A43F040034804420CA282AB60DE
:10204000202383F31188FEF70BFBE86938B1074BB7
:102050006FF0010100228162DA61FEF769FCFEF790
:102060001FFB002383F31188DDE700BFC80D0020AC
:1020700010B5074C2046FFF7F3F8064B0649A3F1CD
:102080000C020020E0612163A362E26210BD00BF88
:10209000C80D0020A83C000800540040AFF30080A9
:1020A00002788A23012A2DE9F04104464362056B38
:1020B00000F0A1802F464FF09A089C466068E26AC3
:1020C000A66A13683168466805F11002C3F80080FB
:1020D00090F80880C1F800C000208A6048F2000C27
:1020E0004FF41061002E9A60A5F800C02880A980E6
:1020F00052DD8B4B9E424FDCB7F804C02CF03F0002
:1021000001040B0CBB80BA88864990B240F0240CC5
:102110008E42A7F804C043DCB8F1010F02D0824818
:10212000FEF786FB8148760090FBF6F106FB01F88E
:102130007E4BC8EB0302002A40F0A5807B4A92FB4D
:10214000F6F6B6B2032E40F2948025214FEA065CE3
:10215000B6F5805F39844FEA1C5802D37448FEF705
:1021600067FB6268216B1278A7F81C80B1F800C089
:10217000022A1FFA8CF32DD0032A70D0012A03D132
:1021800023F00A0003041B0C0B80288883B243F061
:1021900001012980BDE8F0816648FEF749FBABE705
:1021A0006548864224DCA8F10203DAB2012A75D917
:1021B0006248FEF73DFB48F6FF7862680B20216B12
:1021C00038841278A7F81C80B1F800C0022A1FFAE0
:1021D0008CF3D1D143F002024FF6F77C02EA0C03F4
:1021E0000B80288883B243F001012980BDE8F0818B
:1021F0004FF00008B5E7524EB0427FF45BAF514F4D
:102200004FF0000E3B69806A43F40018C7F8108055
:102210000A214D4A2346C7F810E0FFF7F9F90028D4
:1022200076D1F06A0A21494A454BFFF7F1F90028B7
:102230006AD1444F1F20FB69A02143F40012FA61C8
:10224000FEF7FEF82020A021FEF7FAF8706A376B3F
:1022500040F4805CC6F824C04CF010082EE743F030
:102260000A030B80288883B243F001012980BDE86E
:10227000F0813748FEF7DCFA4FEA065825234FEA8B
:1022800018583B846DE73348FEF7D2FA274A92FB91
:10229000F6F6B6B2032E3FF658AFEAE7B8F1020FF2
:1022A00016D1224A06EB460692FBF6FC06FB0CF81A
:1022B0001E48C8EB000139B91C4890FBF6F6310501
:1022C0000B0D43F4004878E72348FEF7B1FAF3E733
:1022D000B8F1030F20D106EB8606144906EB8606FB
:1022E00091FBF6FC06FB0CF8104BC8EB03023AB965
:1022F0000E4991FBF6F31A05100D40F440485CE7D7
:102300001648FEF795FAF3E71548FEF791FA90E7BD
:102310001448FEF78DFA84E748F6FF784DE700BFD2
:1023200000093D00A0860100003D00080051250283
:10233000903D0008E83C0008801A0600483D00086F
:10234000C80D002000100240811C0008411C00083C
:10235000303D0008183D0008603D0008783D000849
:10236000D43C0008C03C0008AFF30080AFF300800D
:102370002DE9F047424F86B0109DFC69B5F1FF3F53
:10238000C4610646884691469A46046B05D001A86A
:1023900029463C4A3346FEF763FAFEF741F900232B
:1023A00083F3118804E0FEF73BF9002383F31188DF
:1023B000228B202312F0020F03D1208810F4007F1B
:1023C0000CD083F31188FEF70BF9B5F1FF3FEAD08B
:1023D000049B002BE7D14FF0FF3048E083F31188D6
:1023E000FEF7FEF8B5F1FF3F44D1012286F8342014
:1023F000B4F800C00E982CF480710B040F990022E1
:102400001B0C4FEA4808A6F82080B2603264706462
:10241000B164F264C6F83890C6F83CA02380B4F8E2
:1024200004E008F0FE082EF400600204130CA38000
:10243000A4F80880B4F804C0FB691FFA8CF141F4D9
:102440000070A080228802201FFA82FE4EF4806C69
:10245000A4F800C0F361FEF7ABFAB5F1FF3F04D07A
:10246000049810B101A8FEF72BFAFB69986A06B030
:10247000BDE8F08704990029B7D14FF0FF30F6E7A7
:10248000340D0020111C0008AFF30080AFF3008072
:1024900070B51F4EFEF724F9B56840F20F102C8876
:1024A000AA88A4B204EA0003FBB171684FF6FF6288
:1024B0000B692A80CBB114F0080118BF102114F069
:1024C000010F18BF41F0040114F0020F18BF41F0D2
:1024D000080114F0040F18BF41F0200114F4807FAC
:1024E00018BF41F040010A48984714F0400F08D047
:1024F00073684FF6BF7C5B68A5F800C00BB1044859
:102500009847FEF70DF9BDE87040FDF731BF00BFF9
:10251000180E0020AFF30080AFF30080AFF300800F
:1025200010B5064C2046FEF703FF054B054903F1A5
:102530000C02A1602361626110BD00BF180E002073
:102540009C3C000800440040AFF30080AFF30080E3
:102550004369C0681B6840F09200DA6059601860F7
:10256000186840F001021A60704700BFAFF30080A6
:10257000154B30B49A69154D42F07D049C61016899
:10258000134CE960826813496A604368124A2B6001
:10259000C568124BE5604569656005692560846919
:1025A000CC60046A4C60C4690C60416AD160C16A45
:1025B0005160816A1160026BDA60816B5960426B15
:1025C0001A6030BC704700BF001002400008014094
:1025D000000C0140001001400014014000180140AF
:1025E000032AF0B400F09A80042A08BF41614C4BE2
:1025F00011F080079B5C40F088800F2411F40045A7
:1026000040F089800F264A002401360139012D014E
:1026100012F0800F14BF194344F00F0412F4004F5E
:1026200014BF1D4346F00F06520024013601090174
:102630002D0112F0800F14BF194344F00F0412F45F
:10264000004F14BF1D4346F00F065200240136010F
:1026500009012D0112F0800F14BF194344F00F043B
:1026600012F4004F14BF1D4346F00F065200240120
:10267000360109012D0112F0800F14BF194344F0F7
:102680000F0412F4004F14BF1D4346F00F06520012
:102690002401360109012D0112F0800F14BF1943E6
:1026A00044F00F0412F4004F14BF1D4346F00F0610
:1026B00052002401360109012D0112F0800F14BFD0
:1026C000194344F00F0412F4004F14BF1D4346F0A9
:1026D0000F0652002401360109012D0112F0800F6E
:1026E00014BF194344F00F0412F4004F18BF1D43E8
:1026F000436808BF46F00F061E4035434560026838
:10270000144021430160F0BC7047002411F40045DF
:102710001F463FF477AF1D46002674E7016166E768
:10272000F03D0008AFF30080AFF30080AFF300800E
:10273000FFF70EB8AFF30080AFF30080AFF3008077
:10274000704700BFAFF30080AFF30080AFF30080AD
:1027500008B5FEF72DFDFDF7C3FE00F0C9F9032013
:1027600000F0F6F900F0E4FD00F05AFE00F090F9F8
:1027700000F0FEF900F0C4F84FF4FA70FEF790FA9A
:10278000FAE700BFAFF30080AFF30080AFF3008043
:102790002DE9F04F5049DFF86491C8694F4A7D2315
:1027A00089B0DFF84081DFF84CA1DFF844B14C4D2F
:1027B0008261C9F8003040F2FF1404E0DBF80860E1
:1027C000002E40F084800020AB68AB68AB6800F05E
:1027D00057FE44490D260860012000F051FE424A90
:1027E0004FF40067106000F0CBFD404B186000F024
:1027F000FFFCD9F800E04FF0000C88F80C004021F5
:102800006F6133463A483B4A8AF800C00196CDF8DA
:1028100014C0CDF80080CDF808E0FEF751FD9AF81D
:102820000360DDF814C0702E2F61C7D1CDF81CC035
:102830000798A04206D800BF079B5E1C0796079F1B
:10284000A742F8D9EF68002187F48060E86007911B
:10285000079AA24206D800BF079A531C0793079E07
:10286000A642F8D9EE68002086F48067EF600790F2
:102870000799A14206D800BF07994A1C0792079BF7
:10288000A342F8D9EB68002783F48066EE600797CF
:102890000798A04206D800BF0798411C0791079AE5
:1028A000A242F8D9EA68002682F48063EB600796BA
:1028B000079FA74282D800BF079F781C07900799FF
:1028C000A142F8D9DBF80860002E3FF47CAF08483D
:1028D0000949FEF7CDFC76E7340D0020503E000894
:1028E000000C014004100020081000200C100020F3
:1028F000C80D0020340E0020603E000800100020AB
:1029000070B5234B234D0024234E82B01C705C70A5
:102910009C70DC701C715C719C71DC711C725C724F
:102920009C72DC721C73022228464FF48051347072
:102930007470B470F47034717471FFF751FE2846EE
:1029400002224FF40051FFF74BFE284602224FF4BB
:102950008041FFF745FE284640211122FFF740FE47
:10296000112228468021FFF73BFEFEF771FC0B4940
:102970000B48FEF77DFC0B48FEF76AFA4FF4D8715E
:102980004022094B09480094FEF742F902B070BD9D
:1029900004100020000C0140340E0020603E0008AE
:1029A000C80D0020F00F002091270008400E0020E5
:1029B0002C482D4AC3692DE9F0412C4D2C4C2D4E4D
:1029C0002D4F9A612D48FEF7DBFA2B4900222C4847
:1029D000FEF77EFB2860FEF7E3FA29680120002954
:1029E0003DD13A6802EB420106EB410316F8112093
:1029F00093F8018093F802C093F803E018795979AD
:102A0000531E84F8018084F802C084F803E020712A
:102A100022706171052BD5D8DFE803F01C17110B6C
:102A20000703607800F094F8CCE7164800F0F0FB5C
:102A3000C8E70120D4F8011000F0FAFCC2E700203A
:102A4000D4F8011000F0F4FCBCE70120617800F03C
:102A5000C7F8B7E70020617800F0C2F8B2E7FEF7E8
:102A60001FF9AFE7340D0020703E0008DC11002094
:102A700000120020E0110020D811002014100020C6
:102A80000812002001120020AFF30080AFF3008095
:102A900010B50A4882B0FEF7DBF90522084809495B
:102AA000FEF7CEFA00244FF4D8714022064B0748B7
:102AB0000094FEF7ADF802B010BD00BF1410002066
:102AC0000812002030120020B12900082810002030
:102AD000044808B5044AC3699A617D20FEF7E0F80E
:102AE000FBE700BF340D0020803E0008AFF30080FC
:102AF00030B5104C4FF400634FF48065236183B010
:102B00001946062220462561FFF76AFD294606225E
:102B10002046FFF765FD0848FEF79AF900244FF4B8
:102B2000D8714022054B06480094FEF771F803B0B7
:102B300030BD00BF000C014044120020D12A000823
:102B400058120020AFF30080AFF30080AFF3008095
:102B500010B504460448FEF713FA044B1C60BDE8A8
:102B60001040FEF71DBA00BF44120020541200208E
:102B700038B5164D164C012106222846FFF730FDC8
:102B8000284602210622FFF72BFD4FF48041062242
:102B90002046FFF725FD20464FF400410622FFF7AF
:102BA0001FFD20464FF400510622FFF719FD0123B7
:102BB0006B6102224FF480414FF400404FF4005308
:102BC0006A6121612061236138BD00BF00080140B6
:102BD00000100140AFF30080AFF30080AFF300803E
:102BE0000128F0B452D94FF400572B4B2B4E00253F
:102BF00077611D801C880D01A0B22949FF280D8036
:102C000008D81988481C18801A881FFA82FCBCF161
:102C1000FF0FF6D9DFF894C00F2122488CF800107E
:102C20000124022655FA01F212F0010F046114BFCB
:102C300006614661002201E01A8801321A801A8872
:102C400092B2FF2AF8D94461002201E01A880132C9
:102C50001A801A8892B2FF2AF8D90139E2D20022EA
:102C60001A8018888CF800101FFA80FCBCF1FF0F46
:102C700008D81A88501C1880B3F800C01FFA8CF1CD
:102C8000FF29F6D9054B1F61F0BC7047064A0127A2
:102C900032F810309F40A8E70A14002000100140CD
:102CA0000C14002000080140903E00080814002089
:102CB00010B5C54B1A78197981EA020010F0010F9E
:102CC00000F08C8181F018014C08520844F0800417
:102CD00084EA020C1CF0010F00F0888184F01804D3
:102CE0006008520840F0800484EA020E1EF0010FD2
:102CF00000F0848184F018004108520841F08004FB
:102D000084EA020C1CF0010F00F0808184F01801AD
:102D10004C08520844F0800484EA020E1EF0010FB1
:102D200000F07C8184F018046008520840F08004B0
:102D300084EA020C1CF0010F00F0788184F0180086
:102D40004108520841F0800484EA020E1EF0010F8F
:102D500000F0748184F018014C0844F0800484EA87
:102D6000520212F0010F40F070815A78640882EA32
:102D7000040C1CF0010F00F0748184F0180041086D
:102D8000520841F0800484EA020E1EF0010F00F0A8
:102D9000708184F018014C08520844F0800484EAE1
:102DA000020C1CF0010F00F06C8184F01804600824
:102DB000520840F0800484EA020E1EF0010F00F079
:102DC000688184F018004108520841F0800484EAC8
:102DD000020C1CF0010F00F0648184F018014C0813
:102DE000520844F0800484EA020E1EF0010F00F045
:102DF000608184F018046008520840F0800484EA7E
:102E0000020C1CF0010F00F05C8184F018004108F6
:102E100041F0800484EA520212F0010F40F0588120
:102E20009A78640882EA040E1EF0010F00F05C81BB
:102E300084F018046008520840F0800484EA020C10
:102E40001CF0010F00F0588184F01800410852086E
:102E500041F0800484EA020E1EF0010F00F054815C
:102E600084F018014C08520844F0800484EA020CF3
:102E70001CF0010F00F0508184F018046008520823
:102E800040F0800484EA020E1EF0010F00F04C8135
:102E900084F018004108520841F0800484EA020CD2
:102EA0001CF0010F00F0488184F018014C08520812
:102EB00044F0800484EA020E1EF0010F00F0448109
:102EC00084F01804600840F0800484EA520212F092
:102ED000010F40F04081DA78640882EA040C1CF0AB
:102EE000010F00F0448184F018014C08520844F0AE
:102EF000800484EA020E1EF0010F00F0408184F08D
:102F000018046008520840F0800484EA020C1CF0A7
:102F1000010F00F03C8184F018004108520841F094
:102F2000800484EA020E1EF0010F00F0388184F064
:102F300018014C08520844F0800484EA020C1CF08A
:102F4000010F00F0348184F018046008520840F04A
:102F5000800484EA020E1EF0010F00F0308184F03C
:102F600018004108520841F0800484EA020C1CF069
:102F7000010F00F02C8184F018014C0844F080040B
:102F800084EA520212F0010F40F0288164081C719B
:102F90000E4B4FF400441C610D4805210A4AFEF710
:102FA000CFF9202383F31188FDF71AFB094A0A4B56
:102FB000D16902201960FDF7FBFCFDF731FB00230E
:102FC00083F3118810BD00BF14140020000C0140D1
:102FD000180E0020340D0020101400204C08520858
:102FE00084EA020C1CF0010F7FF478AE64085208EA
:102FF00084EA020E1EF0010F7FF47CAE64085208D2
:1030000084EA020C1CF0010F7FF480AE64085208C1
:1030100084EA020E1EF0010F7FF484AE64085208A9
:1030200084EA020C1CF0010F7FF488AE6408520899
:1030300084EA020E1EF0010F7FF48CAE640884EA6D
:10304000520212F0010F3FF490AE84F018046008B1
:103050005A7840F0800482EA040C1CF0010F7FF4DF
:103060008CAE6408520884EA020E1EF0010F7FF451
:1030700090AE6408520884EA020C1CF0010F7FF441
:1030800094AE6408520884EA020E1EF0010F7FF429
:1030900098AE6408520884EA020C1CF0010F7FF419
:1030A0009CAE6408520884EA020E1EF0010F7FF401
:1030B000A0AE6408520884EA020C1CF0010F7FF4F1
:1030C000A4AE640884EA520212F0010F3FF4A8AEE5
:1030D00084F018014C089A7844F0800482EA040EC7
:1030E0001EF0010F7FF4A4AE6408520884EA020CBB
:1030F0001CF0010F7FF4A8AE6408520884EA020EA7
:103100001EF0010F7FF4ACAE6408520884EA020C92
:103110001CF0010F7FF4B0AE6408520884EA020E7E
:103120001EF0010F7FF4B4AE6408520884EA020C6A
:103130001CF0010F7FF4B8AE6408520884EA020E56
:103140001EF0010F7FF4BCAE640884EA520212F054
:10315000010F3FF4C0AE84F018004108DA7841F066
:10316000800482EA040C1CF0010F7FF4BCAE6408FA
:10317000520884EA020E1EF0010F7FF4C0AE64080C
:10318000520884EA020C1CF0010F7FF4C4AE6408FC
:10319000520884EA020E1EF0010F7FF4C8AE6408E4
:1031A000520884EA020C1CF0010F7FF4CCAE6408D4
:1031B000520884EA020E1EF0010F7FF4D0AE6408BC
:1031C000520884EA020C1CF0010F7FF4D4AE6408AC
:1031D00084EA520212F0010F3FF4D8AE84F01804D2
:1031E000600840F08004D2E6AFF30080AFF30080C7
:1031F00008B5202383F31188FDF7F2F9FDF710FAE3
:10320000002383F31188012008BD00BFAFF30080C5
:103210000178074B197042785A7090F802C083F811
:1032200002C0C178D97002791A71FFF741BD00BFA1
:1032300014140020AFF30080AFF30080AFF30080E0
:1032400030482DE9F84F304AC369DFF8D0902F4C51
:10325000DFF8CCB0DFF8CCA02D4E9A61402740F2C9
:10326000FF354FF00108002277612280B4F800C0DA
:10327000C9F800201FFA8CF1A94207D82188481C00
:10328000208023881FFA83FEAE45F7D90C23D9F896
:103290000020ABF800300C233761002101E02088CA
:1032A000411C2180B4F800E01FFA8EFCAC45F6D931
:1032B000B168776111F0800F1CBF08FA03F1521852
:1032C000002101E02088411C2180B4F800E01FFAB1
:1032D0008EFCAC45F6D9013BDED24021C9F8002076
:1032E000ABF800300B483161CAF80020FDF748FE0A
:1032F000DAF80030084A1360FDF752FE1920FDF796
:10330000CFFCB0E7340D0020A03E0008E8150020F7
:10331000000801401C140020E0150020E4150020E6
:10332000EA1500202C140020AFF30080AFF30080DA
:1033300030B50E4C83B04021204606224025FFF7D1
:103340004FF98021022220462561FFF749F90848FC
:10335000FDF77EFD00244FF4D8712A46054B064840
:103360000094FDF755FC03B030BD00BF00080140DC
:103370001C1400204132000830140020AFF30080FC
:1033800010B50448FDF7FCFD034B1C68FDF708FE73
:10339000204610BD1C140020E0150020AFF3008073
:1033A0000A488268836812F0010FC3F3400305D016
:1033B00033B107490B68581E08607047002BF8D0DE
:1033C000034B1A68511C1960704700BF000C014084
:1033D000F0150020AFF30080AFF30080AFF3008062
:1033E0000A488268836812F4807FC3F3402305D0C3
:1033F00033B107490B68581E08607047002BF8D09E
:10340000034B1A68511C1960704700BF000C014043
:10341000F4150020AFF30080AFF30080AFF300801D
:1034200001480249FDF7ECBEC00D0020B03E000887
:1034300038B504460D4660B1202383F31188FDF7AB
:10344000CFF80A480560FDF7EBF8002383F31188F5
:1034500038BD202383F31188FDF7C2F8044B1D60AB
:10346000FDF7DEF8234683F3118838BDF4150020FC
:10347000F0150020AFF30080AFF30080AFF30080C1
:1034800038B5054678B1202383F31188FDF7A8F8F5
:103490000D4A0E4C11682160FDF7C2F8002383F33A
:1034A0001188206838BD202383F31188FDF798F830
:1034B0000748064C03682360FDF7B2F82B4683F3F8
:1034C0001188206838BD00BFF4150020EC150020DD
:1034D000F0150020AFF30080AFF30080AFF3008061
:1034E00069646C65000000006D61696E0000000099
:1034F00053562331000000005356233200000000D1
:1035000053562333000000005356233400000000BC
:1035100053562335000000005356233600000000A8
:103520005356233700000000535623380000000094
:103530005356233900000000535623313000000059
:10354000535623313100000000000000000000004D
:1035500022636856545365744922282900000000EC
:103560002263685654526573657449222829000005
:103570006368565452657365744928292C20233199
:10358000000000000000000000000000000000003B
:10359000636853636852656164794928292C202344
:1035A00031000000737461636B206F766572666C26
:1035B0006F77000000000000000000000000000025
:1035C00022636854686443726561746549222829DE
:1035D0000000000022636854686453657450726987
:1035E0006F726974792228290000000063685468AA
:1035F00064526573756D6528292C20233100000005
:10360000226368546864536C656570222829000041
:103610006368546864457869745328292C202331E1
:1036200000000000226368546864576169742228AE
:103630002900000063685468645761697428292C64
:103640002023310063685468645761697428292C09
:1036500020233200000000000000000000000000F5
:1036600022636853656D496E697422282900000041
:1036700022636853656D5265736574492228290079
:10368000636853656D52657365744928292C20233E
:103690003100000022636853656D576169745322DD
:1036A00028290000636853656D57616974532829A0
:1036B0002C2023310000000022636853656D5761A0
:1036C000697454696D656F75745322282900000070
:1036D000636853656D5761697454696D656F75747E
:1036E0005328292C2023310022636853656D5369C8
:1036F000676E616C22282900636853656D536967A2
:103700006E616C28292C202331000000226368534D
:10371000656D5369676E616C4922282900000000BD
:10372000636853656D5369676E616C4928292C2065
:103730002331000022636853656D416464436F75F3
:103740006E74657249222829000000006368536581
:103750006D416464436F756E7465724928292C202D
:103760002331000022636853656D5369676E616C95
:103770005761697422282900636853656D5369672E
:103780006E616C5761697428292C20233100000078
:10379000636853656D5369676E616C57616974281E
:1037A000292C20233200000000000000000000004F
:1037B0002263684D7478496E6974222829000000DC
:1037C0002263684D74784C6F636B53222829000084
:1037D00063684D74784C6F636B5328292C20233118
:1037E0000000000063684D74784C6F636B532829A8
:1037F0002C202332000000002263684D747854723C
:10380000794C6F636B5322282900000063684D7464
:1038100078556E6C6F636B28292C202331000000D3
:1038200063684D7478556E6C6F636B28292C202368
:103830003200000063684D7478556E6C6F636B5393
:1038400028292C202331000063684D7478556E6C54
:103850006F636B5328292C202332000000000000E6
:103860002263684D42496E697422282900000000D5
:103870002263684D42526573657422282900000056
:103880002263684D42506F73745322282900000050
:103890002263684D42506F7374492228290000004A
:1038A0002263684D42506F737441686561645322AE
:1038B000282900002263684D42506F737441686587
:1038C00061644922282900002263684D42466574DC
:1038D00063685322282900002263684D42466574BC
:1038E0006368492228290000000000000000000051
:1038F00022657874537461727422282900000000D4
:10390000657874537461727428292C202331000067
:103910002265787453746F70222829006578745377
:10392000746F7028292C20233100000022657874E0
:103930004368616E6E656C456E61626C6522282914
:10394000000000006578744368616E6E656C456EBA
:1039500061626C6528292C2023310000226578746F
:103960004368616E6E656C44697361626C652228A0
:10397000290000006578744368616E6E656C446967
:103980007361626C6528292C20233100000000003F
:103990002269326353746172742228290000000086
:1039A000693263537461727428292C20233100001A
:1039B0002269326353746F7022282900693263537D
:1039C000746F7028292C2023310000002269326393
:1039D0004765744572726F727322282900000000D7
:1039E000226932634D61737465725472616E736DD6
:1039F000697454696D656F75742228290000000090
:103A00006932634D61737465725472616E736D696E
:103A10007454696D656F757428292C20233100005A
:103A2000226932634D6173746572526563656976AC
:103A30006554696D656F7574222829006932634D7C
:103A400061737465725265636569766528292C20F7
:103A500023310000226932634163717569726542E6
:103A600075732228290000002269326352656C6553
:103A70006173654275732228290000000000000070
:103A800022756172745374617274222829000000D7
:103A900075617274537461727428292C202331006B
:103AA000227561727453746F70222829000000001F
:103AB0007561727453746F7028292C2023310000B3
:103AC0002275617274537461727453656E64222836
:103AD0002900000075617274537461727453656ECD
:103AE0006428292C2023310022756172745374617B
:103AF000727453656E6449222829000075617274DE
:103B0000537461727453656E644928292C202331E3
:103B100000000000227561727453746F7053656EFB
:103B200064222829000000007561727453746F705C
:103B300053656E6428292C202331000022756172A0
:103B40007453746F7053656E644922282900000015
:103B50007561727453746F7053656E644928292CB3
:103B6000202331002275617274537461727452653E
:103B7000636569766522282900000000756172740A
:103B800053746172745265636569766528292C20C7
:103B9000233100002275617274537461727452652E
:103BA0006365697665492228290000007561727491
:103BB0005374617274526563656976654928292C6E
:103BC00020233100227561727453746F70526563E3
:103BD00065697665222829007561727453746F7067
:103BE0005265636569766528292C20233100000021
:103BF000227561727453746F70526563656976657E
:103C000049222829000000007561727453746F7096
:103C1000526563656976654928292C2023310000A7
:103C200022646D61416C6C6F6361746522282900A8
:103C300022646D6152656C656173652228290000FC
:103C4000646D6152656C6561736528292C20233190
:103C50000000000000000000000000000000000064
:103C6000080002400400024000000B001C0002405B
:103C70000400024004010C00300002400400024035
:103C800008020D0044000240040002400C030E0034
:103C9000580002400400024010040F006C00024073
:103CA000040002401405100080000240040002409D
:103CB00018061100000000000000000000000000D5
:103CC0006932635F6C6C645F737461727428292C51
:103CD000202331006932635F6C6C645F73746172BE
:103CE0007428292C20233200226932635F6C6C64B3
:103CF0005F7365745F636C6F636B2228290000003B
:103D00006932635F6C6C645F7365745F636C6F636F
:103D10006B28292C202331006932635F6C6C645F4F
:103D20007365745F636C6F636B28292C20233200EA
:103D30006932635F6C6C645F7365745F636C6F633F
:103D40006B28292C202333006932635F6C6C645F1D
:103D50007365745F636C6F636B28292C20233400B8
:103D60006932635F6C6C645F7365745F636C6F630F
:103D70006B28292C202335006932635F6C6C645FEB
:103D80007365745F636C6F636B28292C2023360086
:103D90006932635F6C6C645F7365745F636C6F63DF
:103DA0006B28292C20233800226932635F6C6C64F5
:103DB0005F6D61737465725F726563656976655F77
:103DC00074696D656F757422282900002269326359
:103DD0005F6C6C645F6D61737465725F7472616E49
:103DE000736D69745F74696D656F7574222829003D
:103DF000040204080800030708080808080808085F
:103E00000B0F000000000000000000000000000098
:103E1000FFFFFFFF844B888888888888FFFFFFFFAB
:103E2000888888888888B8B4FFFFFFFF8888844422
:103E300088338388FFFFFFFF4488888888888888C4
:103E4000FFFFFFFF88888888888888880000000036
:103E500069000000000000000000000000000000F9
:103E600001000000A0860100010000000000000029
:103E700065000000000000000000000000000000DD
:103E80006C64000000000000000000000000000062
:103E90000E000F0000000000000000000000000005
:103EA000656100000000000000000000000000004C
:103EB00007000000A133000807000000A13300083C
:103EC00000000000000000000000000000000000F2
:103ED00000000000000000000000000000000000E2
:103EE00000000000000000000000000000000000D2
:103EF00007000000E133000807000000E13300087C
:103F000000000000000000000000000000000000B1
:103F100000000000000000000000000000000000A1
:103F20000000000000000000000000000000000091
:103F30000000000000000000000000000000000081
:103F4000000000000000000011000000110000004F
:04000005080000F0FF
:00000001FF
