:020000040800F2
:100000000004002011010008E1010008E1010008DE
:10001000E1010008E1010008E1010008E101000838
:10002000E1010008E1010008E101000831020008D7
:10003000E1010008E1010008E101000801020008F7
:10004000E1010008E1010008E1010008E101000808
:10005000E1010008E1010008E1010008E1010008F8
:10006000E1010008E1010008E10100084116000873
:1000700091160008E11600083117000881170008E2
:10008000D117000821180008E1010008E10100086B
:10009000E1010008E1010008E1010008E1010008B8
:1000A000E1010008E1010008E1010008E1010008A8
:1000B000E1010008E1010008E10100080120000859
:1000C00021200008E1010008E1010008E101000829
:1000D000E1010008E101000831240008E101000805
:0C00E000E1010008E1010008E101000856
:1000F000704700BFAFF30080AFF30080AFF3008024
:10010000FEE700BFAFF30080AFF30080AFF30080E5
:1001100072B6264C84F309884FF0020484F31488E5
:10012000BFF36F8F224C234D04E04FF05533236013
:1001300004F10404AC42F8D31F4C1C4D04E04FF012
:100140005533236004F10404AC42F8D302F008FBF9
:100150001A4D1B4C05E02B68236004F1040405F1E3
:100160000405184B9C42F6D3174C184D04E04FF091
:100170000003236004F10404AC42F8D3FFF7B8FF96
:10018000134C03E02368984704F10404114B9C428C
:10019000F8D302F00DFB104C03E02368984704F1FC
:1001A00004040E4B9C42F8D3FFF7AAFF000800207E
:1001B000000000200004002000040020C0310008DE
:1001C000000800202408002028080020F81400203F
:1001D000EC000008EC000008EC000008EC0000084F
:1001E000FEE700BFAFF30080AFF30080AFF3008005
:1001F00072B6FEE7AFF30080AFF30080AFF300808C
:1002000008B500F05DFA4FF0200383F3118800F089
:1002100027FA00F095F900F03BFA4FF0000383F362
:10022000118800F075FA00F03BF808BDAFF30080CC
:1002300010B483B0EFF309840194019B03F1200310
:100240000193019B83F309884FF0000383F3118826
:1002500003B010BC704700BFAFF30080AFF3008065
:1002600008B50D4B4FF000029A600B4B0B4ADA6059
:100270004FF007004FF0100100F0DAF84FF00A00DD
:100280004FF4007100F0D4F84FF00B004FF08001F4
:1002900000F0CEF808BD00BF00ED00E00000FA0558
:1002A00010B483B04FF0200383F311881F4B5B68B9
:1002B00003F40063002B32D0EFF309840194019B17
:1002C000A3F120030193019B83F30988019B4FF065
:1002D0008072DA61164B9B69002B0BD0144B1B68A4
:1002E0009A68134BDB699B689A4294BF00230123F1
:1002F000DBB20AE00E4B1B689A680D4BDB699B680A
:100300009A4234BF00230123DBB2002B03D0019BB0
:10031000084A9A6107E0019B074A9A6103E04FF09F
:10032000000383F3118803B010BC704700ED00E0B8
:10033000580D0020410300084C030008AFF3008073
:1003400000F05EF900F09CFC00F072F900DF00BFE5
:1003500003460A462DE9F04FC2F80CD0D3F80CD072
:10036000BDE8F08FAFF30080AFF30080AFF3008003
:1003700008B500F05DF94FF0000383F311882846BB
:10038000A04700F0CDFD08BDAFF30080AFF30080C3
:1003900010B485B001900091019B03F003034FEA74
:1003A000C30303931E4B019A4FEA92021C49019822
:1003B0004FEA900000F1C00051F8200003994FF07F
:1003C000FF0404FA01F16FEA010108400399009C5F
:1003D00004FA01F140EA010102F1C00243F82210DF
:1003E0000F4B019A4FEA5212019901F01F014FF091
:1003F000010000FA01F102F1600243F82210084BFB
:10040000019A4FEA5212019901F01F014FF00100C9
:1004100000FA01F143F8221005B010BC704700BF8C
:1004200000E100E0AFF30080AFF30080AFF30080A5
:1004300010B485B001900091019B03F003034FEAD3
:10044000C3030393104B019A4FEA92020E4901989D
:100450004FEA900000F1060051F8200003994FF098
:10046000FF0404FA01F16FEA010108400399009CBE
:1004700004FA01F140EA010102F1060243F82210F8
:1004800005B010BC704700BF00ED00E0AFF3008086
:1004900082B00190024BDB69024A9A61FEE700BF1D
:1004A000580D0020A02C0008AFF30080AFF30080AF
:1004B00000B583B0FFF7D4FE00F0A2FA00F0D8F93F
:1004C00000F0FEFE00F05CFF00F07AF914484FF0F7
:1004D000400100F01DFC0246124BDA61114BDB6952
:1004E0004FF0010283F820200E4BDB690E4ADA61DF
:1004F00000F06EF84FF0000383F3118862B6094BE9
:10050000DB690A4A9A610A4B4FF0000200920948DF
:100510004FF0C0014FF0010200F0A2FC03B000BD9B
:10052000E8080020580D002000040020A82C000836
:100530009104000828080020AFF30080AFF300808A
:1005400000B583B000F00CF91F4B9B69002B05DD53
:100550001D4B9B6903F1FF321B4B9A611A4BDB6900
:100560005A6A02F101025A62184BDB6803F1010278
:10057000164BDA60154B1B681A46144B9A4221D071
:10058000124B1B689A6802F1FF329A6013E0019BDC
:10059000DB680093019B4FF00002DA60019B1B684F
:1005A0000A4A5A60019B1A68084B1A60019B1A6933
:1005B000009B10469847054B1B680193019B9B6865
:1005C000002BE4D003B000BD580D0020480D0020E2
:1005D00008B5064B1B68002B03D1054B1B68002B8D
:1005E00002D0044800F034F908BD00BF34090020EF
:1005F00038090020C02C0008AFF30080AFF3008062
:1006000008B5084B1B68002B03D1074B1B68002B58
:1006100002D0064800F01CF9034B4FF001021A60AB
:1006200008BD00BF3409002038090020C82C00088C
:1006300008B5084B1B68002B03D1074B1B68002B28
:1006400002DC064800F004F9034B4FF000021A6088
:1006500008BD00BF3409002038090020D02C000854
:1006600008B5084B1B68002B03DD074B1B68002BEC
:1006700002D0064800F0ECF8034B4FF001021A607C
:1006800008BD00BF3409002038090020D82C00081C
:1006900008B5084B1B68002B03DD074B1B68002BBC
:1006A00002DC064800F0D4F8034B4FF000021A6059
:1006B00008BD00BF3409002038090020E02C0008E4
:1006C00008B54FF0200383F311880B4B1B68002BF8
:1006D00003DB0A4B1B68002B02D0094800F0B8F876
:1006E000054B1B6803F10102034B1A604FF0000336
:1006F00083F3118808BD00BF3409002038090020A9
:10070000E82C0008AFF30080AFF30080AFF3008067
:1007100008B54FF0200383F311880B4B1B68002BA7
:1007200003DD0A4B1B68002B02D0094800F090F84B
:10073000054B1B6803F1FF32034B1A604FF00003B7
:1007400083F3118808BD00BF340900203809002058
:10075000F02C0008AFF30080AFF30080AFF300800F
:1007600008B5064B1B68002B03DB054B1B68002BF1
:1007700002DC044800F06CF808BD00BF340900201A
:1007800038090020F82C0008AFF30080AFF3008098
:1007900008B5064B1B68002B03D1054B1B68002BCB
:1007A00002DC044800F054F808BD00BF3409002002
:1007B00038090020002D0008AFF30080AFF300805F
:1007C000034B4FF040021A60014B024A5A607047D7
:1007D0003C09002044090020AFF30080AFF3008003
:1007E00082B00190124B5B68124AD2681A60104BBB
:1007F0005B68114AD2695A600D4B5B68019A926A34
:100800009A600B4B5B68019A92F820201A73084B90
:100810005B6803F11002064B5A60054B5A68074BA0
:100820009A4202D3024B064A5A6002B0704700BF98
:100830003C090020480D0020580D0020440D0020E8
:1008400044090020AFF30080AFF30080AFF30080D5
:1008500000B583B00190034B019A1A60FFF7C8FC02
:1008600003B000BD440D0020AFF30080AFF3008063
:10087000074A074B5A60064B5A68054B1A60044BEF
:100880004FF0FF329A60024B4FF00002DA6070477F
:10089000480D0020AFF30080AFF30080AFF300807D
:1008A00000B587B00390029101920093FFF758FFC3
:1008B000039B002B05D0019B002B02D0029B002B39
:1008C00002D11C48FFF7C4FF039B009A1A61039BE7
:1008D000019ADA60184B1B68059307E0059B9B683B
:1008E000029AD31A0293059B1B680593059B9A688D
:1008F000029B9A42F2D3039B059A1A60039B1B68E2
:100900005A68039B5A60039B5B68059A0399516080
:10091000059A52681A60039B029A9A60059A064BE0
:100920009A4205D0059B9A68029BD21A059B9A6051
:1009300007B000BD102D0008480D0020AFF3008067
:1009400000B583B00190FFF70BFF019B002B02D194
:100950001348FFF77DFF019BDB68002B02D1114894
:10096000FFF776FF019B1A680F4B9A4208D0019B54
:100970001B68019A12689168019A92688A189A60B5
:10098000019B5B68019A12681A60019B1B68019ABF
:1009900052685A60019B4FF00002DA6003B000BD5C
:1009A000202D0008302D0008480D0020AFF30080F6
:1009B00084B00190019B1B680393039B1A68019B01
:1009C0001A60019B1B68019A5A60039B184604B089
:1009D000704700BFAFF30080AFF30080AFF300803B
:1009E00082B00190019B5B68019A12681A60019BBA
:1009F0001B68019A52685A60019B184602B0704702
:100A00000B4A0B4B5A600A4B5A68094B1A60084B49
:100A10004FF000029A60064B4FF014029A61044AAC
:100A2000034B5A61024B5A69014B1A61704700BF70
:100A3000580D0020AFF30080AFF30080AFF30080CB
:100A400000B585B00190019B93F82030002B04D0B5
:100A5000019B93F820300E2B02D11348FFF7F8FECC
:100A6000019B4FF0000283F82020104B0393039B5F
:100A70001B680393039B9A68019B9B689A42F6D27A
:100A8000019B039A1A60039B5A68019B5A60019B61
:100A90005B68039A01995160039A52681A60019B3E
:100AA000184605B000BD00BF502D0008580D0020AD
:100AB00000B585B003468DF80730FFF769FE164B89
:100AC000DB690393039B9DF8072083F82020124BDA
:100AD0004FF014029A611048FFF76AFF02460E4B6E
:100AE000DA610D4BDB694FF0010283F82020039897
:100AF000FFF776FE6B46A3F12402039BDB699A4263
:100B000002D20648FFF7A4FE034BDB69184603999F
:100B1000FFF71EFC05B000BD580D0020642D000835
:100B200000B585B00190019B0393039B93F820309F
:100B30000D2B28D801A252F823F000BF970B000814
:100B4000870B0008870B0008750B0008870B00084F
:100B5000810B0008870B0008870B0008870B000833
:100B6000870B0008870B0008870B0008870B00081D
:100B7000810B0008039B9B6A9A6802F101029A604C
:100B80000398FFF72DFF039B4FF0FF329A62039803
:100B9000FFF756FF00E000BF05B000BDAFF30080D7
:100BA00000B589B0034600918DF80730FFF7F0FDDE
:100BB000009BB3F1FF3F14D00F4BDB6903AA104633
:100BC00000990E4AFFF76CFE9DF807301846FFF7B4
:100BD0006FFF069B002B09D003AB1846FFF7B0FE52
:100BE00004E09DF807301846FFF762FF024BDB690F
:100BF0009B6A184609B000BD580D0020210B000863
:100C000000B585B001900091FFF7C2FD019B009AED
:100C10009A62019B9A68174BDB699B689A4203D8DA
:100C20000198FFF70DFF22E0124BDB691846FFF732
:100C300007FF03900F4B4FF014029A610D4B019A7E
:100C4000DA61019B4FF0010283F820200398FFF73F
:100C5000C7FD6B46A3F12402039BDB699A4202D2D3
:100C60000548FFF7F5FD01980399FFF771FB05B003
:100C700000BD00BF580D0020642D0008AFF30080B8
:100C800000B583B0154B4FF014029A61134BDB692A
:100C900001931248FFF78CFE0246104BDA610F4BAE
:100CA000DB694FF0010283F820200198FFF7C8FEAE
:100CB0000198FFF795FD6B46A3F12402019BDB69C8
:100CC0009A4202D20648FFF7C3FD044BDB6918467F
:100CD0000199FFF73DFB03B000BD00BF580D002098
:100CE000642D0008AFF30080AFF30080AFF3008005
:100CF00084B00190019B1B680393039B1A68019BBE
:100D00001A60039B184604B0704700BFAFF3008021
:100D100082B001900091019B009A9A60019B4FF074
:100D2000020283F82020019B4FF0000283F821206B
:100D3000019B009A5A64019B4FF000021A64019BC8
:100D40004FF00002DA63019B4FF000025A62019BF0
:100D50004FF0010283F82220019B4FF000029A61BC
:100D6000134A019B1A61124B5A69019B5A61019BFC
:100D70005B690F4A019951610D4A52691A61019BE1
:100D800003F12C031A46019BDA62019B03F1300345
:100D90001A46019B5A63019B5A6B019B1A63019B84
:100DA00003F14C02019BDA61019B184602B07047C7
:100DB000580D0020AFF30080AFF30080AFF3008048
:100DC00084B00390029113468DF8073007E0039B2F
:100DD0009DF807201A70039B03F101030393039A04
:100DE000029B9A42F3D304B0704700BFAFF3008078
:100DF00000B587B00390029101920093039B059385
:100E0000FFF7AEFC039B002B08D0029BAF2B05D94C
:100E1000019B7F2B02D8009B002B02D10E48FFF7CD
:100E200017FD039A029BA3F12403D218059BDA60F5
:100E3000059BDB68009A1A60059BDB68089A5A607C
:100E4000059BDB68054A1A6205980199FFF760FF68
:100E50000346184607B000BD802D00087103000846
:100E600000B589B00590049103920293059A059B01
:100E700003F14C03104619464FF0FF02FFF7A0FFA5
:100E8000059B03F14C020599049BCB1810461946AB
:100E90004FF05502FFF794FF4FF0200383F31188C2
:100EA000FFF7AEFB0A9B009305980499039A029BF7
:100EB000FFF79EFF079007984FF00001FFF7A0FE95
:100EC000FFF7B6FB4FF0000383F31188079B18462A
:100ED00009B000BDAFF30080AFF30080AFF3008036
:100EE00000B583B00190019B002B02D10A48FFF7A7
:100EF000AFFC4FF0200383F31188FFF781FB4FF025
:100F000006000199FFF74CFEFFF792FB4FF000033C
:100F100083F3118803B000BDC02D0008AFF300803B
:100F200000B583B001904FF0200383F31188FFF7E1
:100F300067FB019800F004F803B000BDAFF3008038
:100F400000B585B00190194BDB690393039B019AAF
:100F50009A6209E0039B03F12C031846FFF7C8FED1
:100F600003461846FFF76CFD039BDA6A039B03F107
:100F70002C039A42EED1039B93F8213003F0030334
:100F8000002B09D1039B5B69039A12691A61039BC9
:100F90001B69039A52695A614FF00E00FFF788FDF2
:100FA0000348FFF755FC05B000BD00BF580D0020F9
:100FB000D02D0008AFF30080AFF30080AFF30080C6
:100FC00084B001900091009B0393039B1B680393E3
:100FD000009B039A9A4205D0039B9A68019B9B68E9
:100FE0009A42F2D2019B039A1A60039B5A68019BB2
:100FF0005A60019B5B68039A01995160039A526899
:101000001A6004B0704700BFAFF30080AFF30080F8
:1010100084B00190019B1B680393039B1A68019B9A
:101020001A60019B1B68019A5A60039B184604B022
:10103000704700BFAFF30080AFF30080AFF30080D4
:1010400082B00190019B5B68019A12681A60019B53
:101050001B68019A52685A60019B184602B070479B
:1010600000B583B00190019B002B02D10848FFF727
:10107000EFFB019B1A46019B5A60019B5A68019B3A
:101080001A60019B4FF000029A6003B000BD00BFE0
:10109000202E0008AFF30080AFF30080AFF3008094
:1010A00000B583B001904FF0200383F31188FFF760
:1010B000A7FA019800F00CF8FFF7BAFA4FF0000316
:1010C00083F3118803B000BDAFF30080AFF300805D
:1010D00000B585B001903C4BDB690293FFF758FBEC
:1010E000019B002B02D13948FFF7B2FB019B9B68A3
:1010F000002B5CD0019B9B68039335E0029B9A68B0
:10110000039B9A60039B93F82030042B04D0052B9B
:1011100011D0002B1AD02DE00398FFF791FF024663
:10112000039B9B6A10461946FFF74AFF039B9B6A85
:101130009B68039318E00398FFF782FF0246039B26
:101140009B6A10461946FFF73BFF0CE0039B4FF0EC
:10115000010283F820200398FFF772FF0346184628
:10116000FFF76EFC00BF05E0039B9A68029B9B683B
:101170009A42C3D3019B02981946FFF721FF029BB5
:10118000019A9A624FF00400FFF792FC019B9A6863
:10119000029B9A4202D00E48FFF75AFB029B1A6C40
:1011A000019B9A420DD00B48FFF752FB09E0019BCF
:1011B000029A9A60029B1A6C019BDA60029B019A68
:1011C0001A6405B000BD00BF580D0020302E000885
:1011D000402E0008542E0008AFF30080AFF30080CB
:1011E00000B587B0334BDB6903934FF0200383F3E3
:1011F0001188FFF705FA039B1B6C002B02D12E48C8
:10120000FFF726FB039B1B6C9A68039B9A4202D054
:101210002A48FFF71DFB039B1B6C0293029BDA68B5
:10122000039B1A64029B1A68029B9A4233D0039B69
:101230005B6C0493039B1B6C059311E0059B1A6880
:10124000059B9A4209D0059B1B689A68049B9A42A9
:1012500003D9059B1B689B680493059BDB6805937A
:10126000059B002BEAD1039B049A9A60029B1846C7
:10127000FFF7CEFE0190029B019A9A60019B1A6CC7
:10128000029BDA60019B029A1A6401984FF00001F8
:10129000FFF7B6FC03E0029B4FF000029A60FFF7F5
:1012A000C7F94FF0000383F31188029B184607B07B
:1012B00000BD00BF580D00207C2E0008902E0008B5
:1012C000074B03F1070323F007031A46054B1A6087
:1012D000054B23F007031A46044B1A60704700BF02
:1012E000F8140020780D0020005000207C0D002014
:1012F00000B585B001904FF0200383F31188FFF70C
:101300007FF9019800F00CF80390FFF791F94FF086
:10131000000383F31188039B184605B000BD00BF8E
:1013200000B585B00190FFF71BFA019B03F107039D
:1013300023F0070301930D4B1B681A460C4B1B68E7
:10134000D31A1A46019B9A4202D24FF0000309E0D9
:10135000074B1B680393064B1A68019BD218044B7A
:101360001A60039B184605B000BD00BF7C0D00202D
:10137000780D0020AFF30080AFF30080AFF3008062
:1013800008B5074B074A1A60054B4FF000029A60F8
:10139000034B4FF00002DA600348FFF761FE08BD1F
:1013A000800D0020F1120008900D0020AFF30080A6
:1013B00008B500F03DFB00F003F9054801F008F91D
:1013C00000F00EF800F02CF801F0D2F908BD00BFD3
:1013D00080310008AFF30080AFF30080AFF30080EE
:1013E00008B500F02DFE08BDAFF30080AFF300801C
:1013F00000B583B00190019B4FF001021A70019B70
:101400004FF000025A60019B03F10C031846FFF7EE
:1014100027FE03B000BD00BFAFF30080AFF3008034
:1014200008B501F015F808BDAFF30080AFF30080F8
:1014300082B00190019B4FF001021A70019B4FF0A6
:1014400000025A70019B4FF000029A70019B4FF00E
:1014500000025A6002B07047AFF30080AFF3008023
:1014600000B583B001900091019B002B02D0009B3E
:10147000002B02D11248FFF7EBF94FF0200383F362
:101480001188FFF7BDF8019B1B78012B06D0019B4B
:101490001B78022B02D00B48FFF7DAF9019B009A68
:1014A0005A60019800F0ECFF019B4FF002021A70A5
:1014B000FFF7BEF84FF0000383F3118803B000BDBF
:1014C000D02E0008E02E0008AFF30080AFF30080BC
:1014D00000B585B0039002910192039B002B05D0CB
:1014E000029B002B02D0019B002B02D11248FFF778
:1014F000AFF94FF0200383F31188FFF781F8039BC6
:101500001B78022B03D1039B5B78002B02D00B4886
:10151000FFF79EF903980299019A01F031F8039BB5
:101520004FF001025A70FFF783F84FF0000383F386
:10153000118805B000BD00BF102F0008242F00083F
:1015400082B00190024B5A68019B9A6002B07047CA
:10155000001000E0AFF30080AFF30080AFF3008035
:1015600084B00190114B5B680393019B9B68039AC5
:10157000D21A0F4B1B68D21A019B9A60019B9A6882
:10158000019BDB689A4204D9019B9A68019BDA604F
:1015900009E0019B9A68019B1B699A4203D2019B57
:1015A0009A68019B1A6104B0704700BF001000E008
:1015B000A00D0020AFF30080AFF30080AFF30080F8
:1015C00000B587B00A4B4FF000021A6001AB184615
:1015D00000F016F8019B01AA10469847029B01AA49
:1015E00010469847039A024B1A6007B000BD00BF2F
:1015F000A00D0020AFF30080AFF30080AFF30080B8
:1016000082B00190019B094A1A60019B084A5A6006
:10161000019B4FF000029A60019B4FF00002DA60DC
:10162000019B4FF0FF321A6102B07047411500086C
:1016300061150008AFF30080AFF30080AFF30080C6
:1016400000B583B0FFF73CF80C4B1B6803F00F03A9
:1016500001930A4B4FF00F025A60094B1B68002B95
:1016600006D0074B1B68064A5268104601999847F6
:10167000FFF74EF8FEF714FE03B000BD0000024075
:10168000A80D0020AFF30080AFF30080AFF300801F
:1016900000B583B0FFF714F80D4B1B684FEA131326
:1016A00003F00F0301930A4B4FF0F0025A60094B0D
:1016B0009B68002B06D0074B9B68064AD2681046F1
:1016C00001999847FFF724F8FEF7EAFD03B000BD43
:1016D00000000240A80D0020AFF30080AFF30080AF
:1016E00000B583B0FEF7ECFF0D4B1B684FEA1323E8
:1016F00003F00F0301930A4B4FF470625A60094BD9
:101700001B69002B06D0074B1B69064A526910461D
:1017100001999847FEF7FCFFFEF7C2FD03B000BD3C
:1017200000000240A80D0020AFF30080AFF300805E
:1017300000B583B0FEF7C4FF0D4B1B684FEA1333AF
:1017400003F00F0301930A4B4FF470425A60094BA8
:101750009B69002B06D0074B9B69064AD26910464D
:1017600001999847FEF7D4FFFEF79AFD03B000BD3C
:1017700000000240A80D0020AFF30080AFF300800E
:1017800000B583B0FEF79CFF0D4B1B684FEA134377
:1017900003F00F0301930A4B4FF470225A60094B78
:1017A0001B6A002B06D0074B1B6A064A526A10467A
:1017B00001999847FEF7ACFFFEF772FD03B000BD3C
:1017C00000000240A80D0020AFF30080AFF30080BE
:1017D00000B583B0FEF774FF0D4B1B684FEA13533F
:1017E00003F00F0301930A4B4FF470025A60094B48
:1017F0009B6A002B06D0074B9B6A064AD26A1046AA
:1018000001999847FEF784FFFEF74AFD03B000BD3B
:1018100000000240A80D0020AFF30080AFF300806D
:1018200000B583B0FEF74CFF0D4B1B684FEA136306
:1018300003F00F0301930A4B4FF070625A60094B9B
:101840001B6B002B06D0074B1B6B064A526B1046D6
:1018500001999847FEF75CFFFEF722FD03B000BD3B
:1018600000000240A80D0020AFF30080AFF300801D
:1018700082B0144B4FF000021A604FF00003019346
:1018800016E01149019A13464FEA43039B184FEAA9
:101890008303CB181B684FF000021A600B4B019AB0
:1018A0004FF0000143F83210019B03F10103019353
:1018B000019B062BE5DD064B4FF0FF325A6002B06C
:1018C000704700BFA40D002000310008A80D0020C3
:1018D00000000240AFF30080AFF30080AFF3008060
:1018E00000B585B00390029101920093039B002BF9
:1018F00002D13148FEF7ACFF039B5B7A4FF0010247
:1019000002FA03F31A462D4B1B6802EA0303002B6D
:1019100002D04FF001034BE0039B5B7A1A46284B41
:10192000019943F83210039B5B7A254A4FEAC303BF
:10193000D318009A5A60039B5B7A4FF0010202FAB7
:1019400003F31A461D4B1B681A431C4B1A601B4BB2
:101950001B6803F07F03002B05D01A4B194A52690C
:1019600042F001025A61039B1B68039A12681268D5
:1019700022F001021A60039B5B68039A127A4FF00F
:101980000F0101FA02F21A60039B1B684FF000027C
:101990001A60019B002B09D0039B9B7A1A46029B7D
:1019A0004FEA031310461946FEF7F2FC4FF000030E
:1019B000184605B000BD00BF70300008A40D00201F
:1019C000A80D002000100240AFF30080AFF30080AC
:1019D000134B134A126842F480721A60114B1B6A4F
:1019E00003F44073B3F5407F07D00E4B4FF48032C1
:1019F0001A620C4B4FF000021A620A4B1B6A03F486
:101A00000043002B0BD1074B064A126A42F4407286
:101A10001A62044B034A126A42F400421A62704787
:101A20000070004000100240AFF30080AFF3008070
:101A300008B51E4B1B691D4B4FF0FF321A611B4B43
:101A40004FF000021A61194BDB68184B4FF0FF3260
:101A5000DA60164B4FF00002DA60154B154A5A60F7
:101A6000134B4FF000029A60114B4FF007021A60BF
:101A7000114B114AD26842F08072DA600F4B0F4A64
:101A8000126842F001021A60084B084AD26942F01B
:101A90008052DA61054B054AD26942F00062DA6190
:101AA000FFF796FFFFF7E4FE08BD00BF00100240FD
:101AB00010E000E07F320200F0ED00E0001000E0F6
:101AC000294B294A126842F001021A6000BF264BD6
:101AD0001B6803F00203002BF9D0234B224A126843
:101AE00002F0F9021A60204B4FF000025A6000BF6A
:101AF0001D4B5B6803F00C03002BF9D11A4B1A4AFB
:101B0000126842F480321A6000BF174B1B6803F45E
:101B10000033002BF9D0144B134A526842F4E812F8
:101B20005A60114B104A126842F080721A6000BF6E
:101B30000D4B1B6803F00073002BF9D00A4B0B4AC6
:101B40005A600B4B4FF012021A60074B064A52685C
:101B500042F002025A6000BF034B5B6803F00C03C3
:101B6000082BF9D1704700BF0010024000641D002F
:101B700000200240AFF30080AFF30080AFF300809D
:101B800000B587B00190019B1B6B0593059B1B8BD8
:101B90009BB20493059B9B8A9BB20393049B4FEAE1
:101BA0000342039B42EA030323F07F434B4A9342E1
:101BB00012D04A4A934203D8494A934207D096E04A
:101BC000484A934231D0484A934241D08FE0019B2A
:101BD0001A8C059B1A828AE0059B9B889BB223F492
:101BE00000739AB2059B9A80019B9B6A1B68019ABD
:101BF000926A1268126842F001021A60059B9B8883
:101C00009BB243F480539AB2059B9A80019B9B6AD6
:101C10001B685B68012B69D8059B1B889BB223F46A
:101C200080639AB2059B1A8061E0059B9B889BB2FA
:101C300023F400739AB2059B9A80019BDB6A1B68B0
:101C4000019AD26A1268126842F001021A604EE0EC
:101C5000019B9B6A1B685B68002B0FD0019B1B8C50
:101C600043F001039AB2019B1A84059B1B889BB227
:101C700043F4A0639AB2059B1A80B8E0059B9B8849
:101C80009BB223F400739AB2059B9A80059B1B8834
:101C90009BB243F400739AB2059B1A804FF0200365
:101CA00083F31188FEF7DCFC019BDB69002B0DD070
:101CB000019BDB690293019B4FF00002DA61029BFA
:101CC0004FF000029A620298FEF7BAFEFEF7E0FCBF
:101CD0004FF0000383F3118809E000BF0200030006
:101CE00001000300820007008400070000BF039B7F
:101CF00003F00A03002B5CD0019B93F83430002BD7
:101D000055D0019B9B6A1B68019A926A12681268FF
:101D100022F001021A60019B9B6A5B68019A926A39
:101D2000127A4FF00F0101FA02F21A60019BDB6A8E
:101D30001B68019AD26A1268126822F001021A60C6
:101D4000019BDB6A5B68019AD26A127A4FF00F013D
:101D500001FA02F21A60019B9B6A1B68019A926B5E
:101D6000DA60019B9B6A1B68019AD26B5A60019BE7
:101D7000DB6A1B68019A126CDA60019BDB6A1B68E4
:101D8000019A526C5A60019B9B6A1B68019A926A85
:101D90001268126842F001021A60019BDB6A1B683C
:101DA000019AD26A1268126842F001021A60059B19
:101DB0001B8B039B03F01003002B18D0059B1B8B80
:101DC000019B1B7843F00803DAB2019B1A70059B54
:101DD0009B889BB243F400739AB2059B9A80059B43
:101DE0001B889BB243F480639AB2059B1A8007B0AC
:101DF00000BD00BFAFF30080AFF30080AFF3008001
:101E000000B587B00190019B1B6B04934FF020033A
:101E100083F31188FEF724FC019BDB6A1B68019A9F
:101E2000D26A1268126822F001021A60019BDB6A12
:101E30005B68019AD26A127A4FF00F0101FA02F23E
:101E40001A60019B9B6A1B68019A926A1268126869
:101E500022F001021A60019B9B6A5B68019A926AF8
:101E6000127A4FF00F0101FA02F21A60FEF710FC2D
:101E70004FF0000383F311884FF000030593049B98
:101E80009B8A9BB203F48073002B0BD0049B9B8A2C
:101E90009BB223F480739AB2049B9A82059B43F011
:101EA00001030593049B9B8A9BB203F40073002BF0
:101EB0000BD0049B9B8A9BB223F400739AB2049BC1
:101EC0009A82059B43F002030593049B9B8A9BB275
:101ED00003F48063002B1BD0049B9B8A9BB223F4EA
:101EE00080639AB2049B9A82049B9B889BB223F4E2
:101EF00000739AB2049B9A80049B1B889BB243F4A4
:101F000000739AB2049B1A80059B43F00403059367
:101F1000049B9B8A9BB203F40063002B0BD0049BB1
:101F20009B8A9BB223F400639AB2049B9A82059B1E
:101F300043F008030593049B9B8A9BB203F48053F0
:101F4000002B0BD0049B9B8A9BB223F480539AB244
:101F5000049B9A82059B43F010030593049B9B8A84
:101F60009BB203F48043002B0BD0049B9B8A9BB253
:101F700023F480439AB2049B9A82059B43F020038A
:101F80000593049B9B8A9BB29BB21BB2002B0DDA7C
:101F9000049B9B8A9BB24FEA43434FEA53439AB256
:101FA000049B9A82059B43F040030593059B002BFD
:101FB00020D0019B059A9A604FF0200383F311888B
:101FC000FEF74EFB019BDB69002B0DD0019BDB690B
:101FD0000393019B4FF00002DA61039B6FF0010253
:101FE0009A620398FEF72CFDFEF752FB4FF00003B8
:101FF00083F3118807B000BDAFF30080AFF300801A
:1020000008B5FEF75DFB0448FFF7BAFDFEF780FB5D
:10201000FEF746F908BD00BFE00D0020AFF30080D9
:1020200008B5FEF74DFB0448FFF7EAFEFEF770FB2C
:10203000FEF736F908BD00BFE00D0020AFF30080C9
:1020400008B50848FFF7D4F9064B4FF00002DA61F3
:10205000044B054A1A63034B044A9A62014B044A33
:10206000DA6208BDE00D002000540040483100084D
:102070003C310008AFF30080AFF30080AFF3008085
:1020800084B00346ADF806304FF000030393BDF86B
:10209000063003F00803002B03D0039B43F010032A
:1020A0000393BDF8063003F00103DBB2002B03D02D
:1020B000039B43F004030393BDF8063003F00203CF
:1020C000002B03D0039B43F008030393BDF80630B5
:1020D00003F00403002B03D0039B43F0200303937E
:1020E000BDF8063003F48073002B03D0039B43F04C
:1020F00040030393039B184604B07047AFF300807E
:1021000084B00190019B5B68DB68002B03D14FF02A
:102110002003039302E04FF022030393019B1B690A
:102120001B68019A02F11802DA60019B1B691B68A7
:102130004FF001025A60019B1B691B68019AD1682C
:10214000039A41EA02021A60019B1B691B68019A0B
:1021500012691268126842F001021A6004B07047F6
:1021600082B00190019B1B691B68019A1269126879
:10217000126822F001021A60019B1B695B68019AD8
:102180001269127A4FF00F0101FA02F21A60019BF4
:102190005B691B68019A52691268126822F0010299
:1021A0001A60019B5B695B68019A5269127A4FF071
:1021B0000F0101FA02F21A60019B9B684FF00002C6
:1021C0009A81019B9B684FF000021A82019B9B68D9
:1021D0004FF000029A8202B0704700BFAFF3008058
:1021E00000B585B00190019B9B6802930198FFF7B1
:1021F000B7FF019B9A68254B9A4209D1019B5B6806
:102200005B69234AB2FBF3F39AB2029B1A8108E09E
:10221000019B5B685B691E4AB2FBF3F39AB2029BB7
:102220001A81029B1B88029B9B88029B4FF0000235
:102230001A80019B5B685B68002B04D142F20C138F
:10224000ADF80E3003E042F24C13ADF80E30019BB6
:102250005B681A8BBDF80E3042EA03039AB2029B08
:102260009A81019B5B685B8B43F040039AB2029BAF
:102270001A82019B5B689B8B43F0C1039AB2029B5D
:102280009A820198FFF73CFF05B000BD003801407D
:1022900000512502AFF30080AFF30080AFF3008060
:1022A00000B583B001900091009B03F00803002B60
:1022B00001D0FDF79DFF019B9B78002B0ED1019B68
:1022C0005B68DB68002B37D0019B5B68DB68019A99
:1022D000128B92B20198114698472DE0019B1B6921
:1022E0001B68019A12691268126822F001021A60D2
:1022F000019B1B695B68019A1269127A4FF00F010A
:1023000001FA02F21A60019B4FF002029A70019BDF
:102310005B689B68002B04D0019B5B689B680198FD
:102320009847019B9B78022B06D1019B4FF000023E
:102330009A700198FFF7E4FE03B000BDAFF3008090
:1023400000B583B001900091009B03F00803002BBF
:1023500001D0FDF74DFF019B5B691B68019A526933
:102360001268126822F001021A60019B5B695B68C7
:10237000019A5269127A4FF00F0101FA02F21A60C3
:10238000019B4FF002025A70019B5B681B68002B97
:1023900004D0019B5B681B6801989847019B5B78A0
:1023A000022B03D1019B4FF000025A7003B000BD15
:1023B00010B584B00190019B9B680393039B1B881D
:1023C000ADF80A30039B9B88BDF80A2040F20F133A
:1023D00002EA0303002B14D0039B4FF6FF621A801E
:1023E000019B5B681B69002B0BD0019B5B681C6920
:1023F000BDF80A301846FFF743FE03460198194618
:10240000A047BDF80A3003F04003002B0DD0039B1A
:102410004FF6BF721A80019B5B685B68002B04D08B
:10242000019B5B685B680198984704B010BD00BFD2
:1024300008B5FEF745F90448FFF7BAFFFEF768F95B
:10244000FDF72EFF08BD00BF280E0020AFF300806F
:1024500008B50648FEF7ECFF044B054A9A60034BAB
:10246000044A1A61014B044A5A6108BD280E002033
:10247000004400403C31000848310008AFF30080C0
:1024800000B585B00190019B4FF00802DA60019B16
:102490001B78012B57D1019A314B9A4231D1019BC4
:1024A0001A69304B10464FF00C011A46019BFFF79A
:1024B00017FA0390039B002B02D02B48FEF7C8F9B4
:1024C000019B5A69294B10464FF00C011A46019B9B
:1024D000FFF706FA0390039B002B02D02448FEF777
:1024E000B7F9244B234AD26942F40032DA614FF043
:1024F00026004FF0C001FDF74BFF019BDA68019BFE
:10250000DA60019B5B681B8B03F4A053B3F5805F1B
:1025100005D1019BDB6843F4A062019BDA60019B5B
:102520001B691B68019A926802F104029A60019B80
:102530005B691B68019A926802F104029A60019B30
:102540004FF000021A83019B4FF000029A70019B2A
:102550004FF000025A700198FFF742FE05B000BD2F
:10256000280E0020A1220008B030000841230008F6
:10257000C830000800100240AFF30080AFF30080C5
:1025800084B0039002910192039B5B691B68019ADE
:10259000DA60039B5B691B68029A5A60039B5B6964
:1025A0001B68039AD26842F092021A60039B5B692F
:1025B0001B68039A52691268126842F001021A609D
:1025C00004B07047AFF30080AFF30080AFF300803A
:1025D00082B00190214B214A926942F07D029A61BA
:1025E0001F4B019A1268DA601D4B019A92685A607B
:1025F0001B4B019A52681A601A4B019AD268DA6032
:10260000184B019A52695A60164B019A12691A6066
:10261000154B019A9269DA60134B019A126A5A605B
:10262000114B019AD2691A60104B019A526ADA6012
:102630000E4B019AD26A5A600C4B019A926A1A6048
:102640000B4B019A126BDA60094B019A926B5A603C
:10265000074B019A526B1A6002B07047001002409B
:1026600000080140000C014000100140001401402E
:1026700000180140AFF30080AFF30080AFF300809B
:102680008AB0039002910192019B032B03D1039B1B
:10269000029A1A6105E0019B042B02D1039B029A66
:1026A0005A612E4A019BD3181B7804934FF0000304
:1026B0000693069B0793079B0893089B09934FF08B
:1026C0000003059335E0089B4FEA03130893099B29
:1026D0004FEA03130993069B4FEA03130693079BE4
:1026E0004FEA03130793029B03F08003002B04D1EE
:1026F000089B43F00F03089304E0069A049B42EA08
:1027000003030693029B03F40043002B04D1099BAF
:1027100043F00F03099304E0079A049B42EA030382
:102720000793029B4FEA43030293059B03F10103C6
:102730000593059B072BC6D9039B5A68099B1A4032
:10274000079B1A43039B5A60039B1A68089B1A4015
:10275000069B1A43039B1A600AB070476031000859
:1027600008B5FFF7ADF908BDAFF30080AFF3008007
:10277000704700BFAFF30080AFF30080AFF300807D
:1027800000B583B00190054BDB69054A9A6100F002
:1027900067FA4FF4FA70FEF7A3FBF8E7580D002034
:1027A000E0300008AFF30080AFF30080AFF30080AB
:1027B00000B583B0FEF7FCFDFDF77AFE00F070F87F
:1027C0004FF0030000F09CF800F0B2F840F6C4109F
:1027D000FEF786FB00F02CFA4FF00003009306484A
:1027E0004FF496614FF04002044BFEF739FB4FF473
:1027F000FA70FEF775FBFAE7480E00208127000803
:1028000000B583B001901E4BDB691E4A9A611E4BD6
:102810004FF400625A611C4B4FF480625A614FF0D2
:102820007D00FEF75DFB1948FEF73AFC184B1A686D
:10283000184B1A60FEF7D4FC164B1B6803F001031B
:10284000DBB2002B04D0104B4FF400621A6103E09E
:102850000D4B4FF400625A610E4B1B6803F00203EC
:10286000002B04D0084B4FF480621A6103E0064B42
:102870004FF480625A614FF07D00FEF731FBC6E7EE
:10288000580D0020F0300008000C0140F812002024
:1028900008130020C0140020AFF30080AFF30080C5
:1028A00000B583B0124B4FF400621A61104B4FF425
:1028B00080621A610E484FF400614FF00602FFF784
:1028C000DFFE0B484FF480614FF00602FFF7D8FEA1
:1028D0000848FEF7C5FB4FF00003009306484FF48D
:1028E000D8714FF04002054BFEF7BAFA03B000BDB5
:1028F000000C0140F81200201013002001280008ED
:1029000000B583B001900548FEF7CAFB044B019A5D
:102910001A60FEF765FC03B000BD00BFF81200208E
:1029200008130020AFF30080AFF30080AFF3008006
:1029300008B51C484FF001014FF00602FFF7A0FE5A
:1029400018484FF002014FF00602FFF799FE1648B3
:102950004FF480414FF00602FFF792FE12484FF409
:1029600000414FF00602FFF78BFE0F484FF4005175
:102970004FF00602FFF784FE0A4B4FF001025A6146
:10298000084B4FF002025A61074B4FF480421A6124
:10299000054B4FF400421A61034B4FF400521A6189
:1029A00008BD00BF0008014000100140AFF30080E7
:1029B00084B002460B468DF807208DF806304FF0A4
:1029C00008038DF80F3033E09DF806209DF807309E
:1029D00082EA0303DBB203F001038DF80E309DF8A9
:1029E0000E30002B06D19DF806304FEA53038DF8C8
:1029F000063011E09DF8063083F018038DF806309C
:102A00009DF806304FEA53038DF806309DF80630E6
:102A100063F07F038DF806309DF807304FEA5303CB
:102A20008DF807309DF80F3003F1FF338DF80F302C
:102A30009DF80F30002BC7D19DF80630184604B022
:102A4000704700BFAFF30080AFF30080AFF30080AA
:102A500082B0019002B07047AFF30080AFF3008006
:102A600000B583B00190034B1B681846FDF7E8FFE3
:102A700003B000BDF4140020AFF30080AFF300807A
:102A800000B583B00190124B4FF400425A614FF0F1
:102A9000200383F31188FDF7E3FD0E4B4FF0000296
:102AA0001A700D4BDB68002B02D00B48FDF748FF76
:102AB00009484FF00101094A4FF00003FDF7F0FE0D
:102AC000FDF7E6FD4FF0000383F3118803B000BD6E
:102AD000000C014000080020E0140020612A0008DA
:102AE00082B0019002B07047AFF30080AFF3008076
:102AF00000B583B001900B46ADF802304FF02003D3
:102B000083F31188FDF7ACFD0F4B1B7803F1010334
:102B1000DAB20D4B1A700C4B1B78042B0BD90B4BF4
:102B2000DB68002B02D00948FDF70AFF084B1B6841
:102B30001846FDF785FFFDF7ABFD4FF0000383F36B
:102B4000118803B000BD00BF00080020CC14002095
:102B5000F4140020AFF30080AFF30080AFF30080E7
:102B600082B00190009102B0704700BFAFF30080C7
:102B700008B5274B1A78264B1B7910461946FFF7E4
:102B800017FF03461A46224B1A71214B5A78204BE5
:102B90001B7910461946FFF70BFF03461A461C4BDC
:102BA0001A711B4B9A781A4B1B7910461946FFF77E
:102BB000FFFE03461A46164B1A71154BDA78144B72
:102BC0001B7910461946FFF7F3FE03461A46104BD1
:102BD0001A71104B4FF400421A610F484FF0050173
:102BE0000B4AFEF775FC4FF0200383F31188FDF7C5
:102BF00007FD0A4BDA690A4B1A604FF00200FDF735
:102C000057FFFDF715FD4FF0000383F3118808BD52
:102C1000C4140020000C0140280E0020580D002094
:102C2000F4140020AFF30080AFF30080AFF3008016
:102C300008B508484FF400414FF00602FFF720FDA9
:102C4000044B4FF400425A6103480449FEF708FC64
:102C500008BD00BF000C0140280E00200408002021
:102C600008B50B4B4FF0E6021A70094B4FF0FF020C
:102C70005A70074B4FF051029A70054B4FF000020B
:102C8000DA70034B4FF000021A71FFF771FF08BDB5
:102C9000C4140020AFF30080AFF30080AFF30080D6
:102CA00069646C65000000006D61696E00000000E1
:102CB0005356233100000000535623320000000019
:102CC0005356233300000000535623340000000005
:102CD00053562335000000005356233600000000F1
:102CE00053562337000000005356233800000000DD
:102CF00053562339000000005356233130000000A2
:102D00005356233131000000000000000000000095
:102D10002263685654536574492228290000000034
:102D2000226368565452657365744922282900004D
:102D30006368565452657365744928292C202331E1
:102D40000000000000000000000000000000000083
:102D5000636853636852656164794928292C20238C
:102D600031000000737461636B206F766572666C6E
:102D70006F7700000000000000000000000000006D
:102D80002263685468644372656174654922282926
:102D900000000000226368546864536574507269CF
:102DA0006F726974792228290000000063685468F2
:102DB00064526573756D6528292C2023310000004D
:102DC000226368546864536C65657022282900008A
:102DD0006368546864457869745328292C2023312A
:102DE00000000000226368546864576169742228F7
:102DF0002900000063685468645761697428292CAD
:102E00002023310063685468645761697428292C51
:102E1000202332000000000000000000000000003D
:102E20002263684D7478496E697422282900000075
:102E30002263684D74784C6F636B5322282900001D
:102E400063684D74784C6F636B5328292C202331B1
:102E50000000000063684D74784C6F636B53282941
:102E60002C202332000000002263684D74785472D5
:102E7000794C6F636B5322282900000063684D74FE
:102E800078556E6C6F636B28292C2023310000006D
:102E900063684D7478556E6C6F636B28292C202302
:102EA0003200000063684D7478556E6C6F636B532D
:102EB00028292C202331000063684D7478556E6CEE
:102EC0006F636B5328292C20233200000000000080
:102ED0002275617274537461727422282900000093
:102EE00075617274537461727428292C2023310027
:102EF000227561727453746F7022282900000000DB
:102F00007561727453746F7028292C20233100006E
:102F10002275617274537461727453656E642228F1
:102F20002900000075617274537461727453656E88
:102F30006428292C20233100227561727453746136
:102F4000727453656E644922282900007561727499
:102F5000537461727453656E644928292C2023319F
:102F600000000000227561727453746F7053656EB7
:102F700064222829000000007561727453746F7018
:102F800053656E6428292C2023310000227561725C
:102F90007453746F7053656E6449222829000000D1
:102FA0007561727453746F7053656E644928292C6F
:102FB00020233100227561727453746172745265FA
:102FC00063656976652228290000000075617274C6
:102FD00053746172745265636569766528292C2083
:102FE00023310000227561727453746172745265EA
:102FF000636569766549222829000000756172744D
:103000005374617274526563656976654928292C29
:1030100020233100227561727453746F705265639E
:1030200065697665222829007561727453746F7022
:103030005265636569766528292C202331000000DC
:10304000227561727453746F705265636569766539
:1030500049222829000000007561727453746F7052
:10306000526563656976654928292C202331000063
:1030700022646D61416C6C6F636174652228290064
:1030800022646D6152656C656173652228290000B8
:10309000646D6152656C6561736528292C2023314C
:1030A0000000000000000000000000000000000020
:1030B000756172745F6C6C645F73746172742829DB
:1030C0002C20233300000000756172745F6C6C6407
:1030D0005F737461727428292C202334000000006F
:1030E000756100000000000000000000000000000A
:1030F0006C64000000000000000000000000000000
:10310000080002400400024000000B001C000240C6
:103110000400024004010C003000024004000240A0
:1031200008020D0044000240040002400C030E009F
:10313000580002400400024010040F006C000240DE
:103140000400024014051000800002400400024008
:103150001806110000000000000000000000000040
:1031600004020408080003070808080808080808FB
:103170000B0F000000000000000000000000000035
:10318000FFFFFFFF844B888888888888FFFFFFFF48
:10319000888888888888B8B4FFFFFFFF88888444BF
:1031A00088338388FFFFFFFF448888888888888861
:0C31B000FFFFFFFF8888888888888888D7
:1031C00005000000512A0008812A0008E12A0008B1
:1031D000F12A0008612B0008802500000000004053
:0431E00000000000EB
:04000005080000F0FF
:00000001FF
