:020000040800F2
:100000000004002011010008E1010008E1010008DE
:10001000E1010008E1010008E1010008E101000838
:10002000E1010008E1010008E101000831020008D7
:10003000E1010008E1010008E101000801020008F7
:10004000E1010008D1220008E1010008E1010008F7
:10005000E1010008E101000871200008A12000086A
:10006000D12000080121000831210008311B0008BF
:10007000811B0008D11B0008211C0008711C00080E
:10008000C11C0008111D0008E1010008E101000881
:10009000E1010008E1010008E10100086121000818
:1000A000E1010008E1010008E1010008E1010008A8
:1000B000E1010008E1010008E1010008512E0008FB
:1000C000712E0008E1010008E1010008E1010008CB
:1000D000E1010008E101000891320008E101000897
:0C00E00011220008E101000801230008C3
:1000F000704700BFAFF30080AFF30080AFF3008024
:10010000FEE700BFAFF30080AFF30080AFF30080E5
:1001100072B6264C84F309884FF0020484F31488E5
:10012000BFF36F8F224C234D04E04FF05533236013
:1001300004F10404AC42F8D31F4C1C4D04E04FF012
:100140005533236004F10404AC42F8D303F0B8F94A
:100150001A4D1B4C05E02B68236004F1040405F1E3
:100160000405184B9C42F6D3174C184D04E04FF091
:100170000003236004F10404AC42F8D3FFF7B8FF96
:10018000134C03E02368984704F10404114B9C428C
:10019000F8D303F0A5F9104C03E02368984704F165
:1001A00004040E4B9C42F8D3FFF7AAFF000800207E
:1001B000000000200004002000040020A04C0008E3
:1001C0000008002004080020080800201C1B002054
:1001D000EC000008EC000008EC000008EC0000084F
:1001E000FEE700BFAFF30080AFF30080AFF3008005
:1001F00072B6FEE7AFF30080AFF30080AFF300808C
:1002000008B500F05DFA4FF0200383F3118800F089
:1002100027FA00F095F900F03BFA4FF0000383F362
:10022000118800F075FA00F03BF808BDAFF30080CC
:1002300010B483B0EFF309840194019B03F1200310
:100240000193019B83F309884FF0000383F3118826
:1002500003B010BC704700BFAFF30080AFF3008065
:1002600008B50D4B4FF000029A600B4B0B4ADA6059
:100270004FF007004FF0100100F0DAF84FF00A00DD
:100280004FF4007100F0D4F84FF00B004FF08001F4
:1002900000F0CEF808BD00BF00ED00E00000FA0558
:1002A00010B483B04FF0200383F311881F4B5B68B9
:1002B00003F40063002B32D0EFF309840194019B17
:1002C000A3F120030193019B83F30988019B4FF065
:1002D0008072DA61164B9B69002B0BD0144B1B68A4
:1002E0009A68134BDB699B689A4294BF00230123F1
:1002F000DBB20AE00E4B1B689A680D4BDB699B680A
:100300009A4234BF00230123DBB2002B03D0019BB0
:10031000084A9A6107E0019B074A9A6103E04FF09F
:10032000000383F3118803B010BC704700ED00E0B8
:10033000380D0020410300084C030008AFF3008093
:1003400000F05EF900F0ACFC00F072F900DF00BFD5
:1003500003460A462DE9F04FC2F80CD0D3F80CD072
:10036000BDE8F08FAFF30080AFF30080AFF3008003
:1003700008B500F05DF94FF0000383F311882846BB
:10038000A04700F0DDFD08BDAFF30080AFF30080B3
:1003900010B485B001900091019B03F003034FEA74
:1003A000C30303931E4B019A4FEA92021C49019822
:1003B0004FEA900000F1C00051F8200003994FF07F
:1003C000FF0404FA01F16FEA010108400399009C5F
:1003D00004FA01F140EA010102F1C00243F82210DF
:1003E0000F4B019A4FEA5212019901F01F014FF091
:1003F000010000FA01F102F1600243F82210084BFB
:10040000019A4FEA5212019901F01F014FF00100C9
:1004100000FA01F143F8221005B010BC704700BF8C
:1004200000E100E0AFF30080AFF30080AFF30080A5
:1004300010B485B001900091019B03F003034FEAD3
:10044000C3030393104B019A4FEA92020E4901989D
:100450004FEA900000F1060051F8200003994FF098
:10046000FF0404FA01F16FEA010108400399009CBE
:1004700004FA01F140EA010102F1060243F82210F8
:1004800005B010BC704700BF00ED00E0AFF3008086
:1004900082B00190024BDB69024A9A61FEE700BF1D
:1004A000380D002020420008AFF30080AFF3008039
:1004B00000B583B0FFF7D4FE00F0A2FA00F0D8F93F
:1004C00001F0E6F801F044F900F07AF914484FF031
:1004D000400100F02DFC0246124BDA61114BDB6942
:1004E0004FF0010283F820200E4BDB690E4ADA61DF
:1004F00000F06EF84FF0000383F3118862B6094BE9
:10050000DB690A4A9A610A4B4FF0000200920948DF
:100510004FF0C0014FF0010200F0B2FC03B000BD8B
:10052000C8080020380D00200004002028420008E0
:100530009104000808080020AFF30080AFF30080AA
:1005400000B583B000F00CF91F4B9B69002B05DD53
:100550001D4B9B6903F1FF321B4B9A611A4BDB6900
:100560005A6A02F101025A62184BDB6803F1010278
:10057000164BDA60154B1B681A46144B9A4221D071
:10058000124B1B689A6802F1FF329A6013E0019BDC
:10059000DB680093019B4FF00002DA60019B1B684F
:1005A0000A4A5A60019B1A68084B1A60019B1A6933
:1005B000009B10469847054B1B680193019B9B6865
:1005C000002BE4D003B000BD380D0020280D002022
:1005D00008B5064B1B68002B03D1054B1B68002B8D
:1005E00002D0044800F034F908BD00BF140900200F
:1005F0001809002040420008AFF30080AFF30080EC
:1006000008B5084B1B68002B03D1074B1B68002B58
:1006100002D0064800F01CF9034B4FF001021A60AB
:1006200008BD00BF14090020180900204842000836
:1006300008B5084B1B68002B03D1074B1B68002B28
:1006400002DC064800F004F9034B4FF000021A6088
:1006500008BD00BF140900201809002050420008FE
:1006600008B5084B1B68002B03DD074B1B68002BEC
:1006700002D0064800F0ECF8034B4FF001021A607C
:1006800008BD00BF140900201809002058420008C6
:1006900008B5084B1B68002B03DD074B1B68002BBC
:1006A00002DC064800F0D4F8034B4FF000021A6059
:1006B00008BD00BF1409002018090020604200088E
:1006C00008B54FF0200383F311880B4B1B68002BF8
:1006D00003DB0A4B1B68002B02D0094800F0B8F876
:1006E000054B1B6803F10102034B1A604FF0000336
:1006F00083F3118808BD00BF1409002018090020E9
:1007000068420008AFF30080AFF30080AFF30080D1
:1007100008B54FF0200383F311880B4B1B68002BA7
:1007200003DD0A4B1B68002B02D0094800F090F84B
:10073000054B1B6803F1FF32034B1A604FF00003B7
:1007400083F3118808BD00BF140900201809002098
:1007500070420008AFF30080AFF30080AFF3008079
:1007600008B5064B1B68002B03DB054B1B68002BF1
:1007700002DC044800F06CF808BD00BF140900203A
:100780001809002078420008AFF30080AFF3008022
:1007900008B5064B1B68002B03D1054B1B68002BCB
:1007A00002DC044800F054F808BD00BF1409002022
:1007B0001809002080420008AFF30080AFF30080EA
:1007C000034B4FF040021A60014B024A5A607047D7
:1007D0001C09002024090020AFF30080AFF3008043
:1007E00082B00190124B5B68124AD2681A60104BBB
:1007F0005B68114AD2695A600D4B5B68019A926A34
:100800009A600B4B5B68019A92F820201A73084B90
:100810005B6803F11002064B5A60054B5A68074BA0
:100820009A4202D3024B064A5A6002B0704700BF98
:100830001C090020280D0020380D0020240D002068
:1008400024090020AFF30080AFF30080AFF30080F5
:1008500000B583B00190034B019A1A60FFF7C8FC02
:1008600003B000BD240D0020AFF30080AFF3008083
:10087000074A074B5A60064B5A68054B1A60044BEF
:100880004FF0FF329A60024B4FF00002DA6070477F
:10089000280D0020AFF30080AFF30080AFF300809D
:1008A00000B587B00390029101920093FFF758FFC3
:1008B000039B002B05D0019B002B02D0029B002B39
:1008C00002D11C48FFF7C4FF039B009A1A61039BE7
:1008D000019ADA60184B1B68059307E0059B9B683B
:1008E000029AD31A0293059B1B680593059B9A688D
:1008F000029B9A42F2D3039B059A1A60039B1B68E2
:100900005A68039B5A60039B5B68059A0399516080
:10091000059A52681A60039B029A9A60059A064BE0
:100920009A4205D0059B9A68029BD21A059B9A6051
:1009300007B000BD90420008280D0020AFF30080F2
:1009400000B583B00190FFF70BFF019B002B02D194
:100950001348FFF77DFF019BDB68002B02D1114894
:10096000FFF776FF019B1A680F4B9A4208D0019B54
:100970001B68019A12689168019A92688A189A60B5
:10098000019B5B68019A12681A60019B1B68019ABF
:1009900052685A60019B4FF00002DA6003B000BD5C
:1009A000A0420008B0420008280D0020AFF30080EC
:1009B00084B00190019B1B680393039B1A68019B01
:1009C0001A60019B1B68019A5A60039B184604B089
:1009D000704700BFAFF30080AFF30080AFF300803B
:1009E00082B00190019B5B68019A12681A60019BBA
:1009F0001B68019A52685A60019B184602B0704702
:100A00000B4A0B4B5A600A4B5A68094B1A60084B49
:100A10004FF000029A60064B4FF014029A61044AAC
:100A2000034B5A61024B5A69014B1A61704700BF70
:100A3000380D0020AFF30080AFF30080AFF30080EB
:100A400000B585B00190019B93F82030002B04D0B5
:100A5000019B93F820300E2B02D11348FFF7F8FECC
:100A6000019B4FF0000283F82020104B0393039B5F
:100A70001B680393039B9A68019B9B689A42F6D27A
:100A8000019B039A1A60039B5A68019B5A60019B61
:100A90005B68039A01995160039A52681A60019B3E
:100AA000184605B000BD00BFD0420008380D002038
:100AB00000B585B003468DF80730FFF769FE164B89
:100AC000DB690393039B9DF8072083F82020124BDA
:100AD0004FF014029A611048FFF76AFF02460E4B6E
:100AE000DA610D4BDB694FF0010283F82020039897
:100AF000FFF776FE6B46A3F12402039BDB699A4263
:100B000002D20648FFF7A4FE034BDB69184603999F
:100B1000FFF71EFC05B000BD380D0020E4420008C0
:100B200000B585B00190019B0393039B93F820309F
:100B30000D2B28D801A252F823F000BF970B000814
:100B4000870B0008870B0008750B0008870B00084F
:100B5000810B0008870B0008870B0008870B000833
:100B6000870B0008870B0008870B0008870B00081D
:100B7000810B0008039B9B6A9A6802F101029A604C
:100B80000398FFF72DFF039B4FF0FF329A62039803
:100B9000FFF756FF00E000BF05B000BDAFF30080D7
:100BA00000B589B0034600918DF80730FFF7F0FDDE
:100BB000009BB3F1FF3F14D00F4BDB6903AA104633
:100BC00000990E4AFFF76CFE9DF807301846FFF7B4
:100BD0006FFF069B002B09D003AB1846FFF7B0FE52
:100BE00004E09DF807301846FFF762FF024BDB690F
:100BF0009B6A184609B000BD380D0020210B000883
:100C000000B585B001900091FFF7C2FD019B009AED
:100C10009A62019B9A68174BDB699B689A4203D8DA
:100C20000198FFF70DFF22E0124BDB691846FFF732
:100C300007FF03900F4B4FF014029A610D4B019A7E
:100C4000DA61019B4FF0010283F820200398FFF73F
:100C5000C7FD6B46A3F12402039BDB699A4202D2D3
:100C60000548FFF7F5FD01980399FFF771FB05B003
:100C700000BD00BF380D0020E4420008AFF3008043
:100C800008B5FFF785FD054B1B689A68034BDB69C8
:100C90009B689A4201D900F003F808BD380D002086
:100CA00000B583B0154B4FF014029A61134BDB690A
:100CB00001931248FFF77CFE0246104BDA610F4B9E
:100CC000DB694FF0010283F820200198FFF7B8FE9E
:100CD0000198FFF785FD6B46A3F12402019BDB69B8
:100CE0009A4202D20648FFF7B3FD044BDB6918466F
:100CF0000199FFF72DFB03B000BD00BF380D0020A8
:100D0000E4420008AFF30080AFF30080AFF300804F
:100D100084B00190019B1B680393039B1A68019B9D
:100D20001A60039B184604B0704700BFAFF3008001
:100D300082B001900091019B009A9A60019B4FF054
:100D4000020283F82020019B4FF0000283F821204B
:100D5000019B009A5A64019B4FF000021A64019BA8
:100D60004FF00002DA63019B4FF000025A62019BD0
:100D70004FF0010283F82220019B4FF000029A619C
:100D8000134A019B1A61124B5A69019B5A61019BDC
:100D90005B690F4A019951610D4A52691A61019BC1
:100DA00003F12C031A46019BDA62019B03F1300325
:100DB0001A46019B5A63019B5A6B019B1A63019B64
:100DC00003F14C02019BDA61019B184602B07047A7
:100DD000380D0020AFF30080AFF30080AFF3008048
:100DE00084B00390029113468DF8073007E0039B0F
:100DF0009DF807201A70039B03F101030393039AE4
:100E0000029B9A42F3D304B0704700BFAFF3008057
:100E100000B587B00390029101920093039B059364
:100E2000FFF79EFC039B002B08D0029BAF2B05D93C
:100E3000019B7F2B02D8009B002B02D10E48FFF7AD
:100E400007FD039A029BA3F12403D218059BDA60E5
:100E5000059BDB68009A1A60059BDB68089A5A605C
:100E6000059BDB68054A1A6205980199FFF760FF48
:100E70000346184607B000BD004300087103000890
:100E800000B589B00590049103920293059A059BE1
:100E900003F14C03104619464FF0FF02FFF7A0FF85
:100EA000059B03F14C020599049BCB18104619468B
:100EB0004FF05502FFF794FF4FF0200383F31188A2
:100EC000FFF79EFB0A9B009305980499039A029BE7
:100ED000FFF79EFF079007984FF00001FFF790FE85
:100EE000FFF7A6FB4FF0000383F31188079B18461A
:100EF00009B000BDAFF30080AFF30080AFF3008016
:100F000000B583B00190019B002B02D10A48FFF786
:100F10009FFC4FF0200383F31188FFF771FB4FF024
:100F200006000199FFF73CFEFFF782FB4FF000033C
:100F300083F3118803B000BD40430008AFF3008085
:100F400000B583B001904FF0200383F31188FFF7C1
:100F500057FB019800F004F803B000BDAFF3008028
:100F600000B585B00190194BDB690393039B019A8F
:100F70009A6209E0039B03F12C031846FFF7C8FEB1
:100F800003461846FFF75CFD039BDA6A039B03F1F7
:100F90002C039A42EED1039B93F8213003F0030314
:100FA000002B09D1039B5B69039A12691A61039BA9
:100FB0001B69039A52695A614FF00E00FFF778FDE2
:100FC0000348FFF745FC05B000BD00BF380D002009
:100FD00050430008AFF30080AFF30080AFF3008010
:100FE00082B001900091009A019B1A60009B5A68A0
:100FF000019B5A60019B5B68009A01995160009ABD
:1010000052681A6002B07047AFF30080AFF30080FF
:1010100084B00190019B1B680393039B1A68019B9A
:101020001A60019B1B68019A5A60039B184604B022
:10103000704700BFAFF30080AFF30080AFF30080D4
:1010400000B583B001900091019B002B02D0009B62
:10105000002B02DA0748FFF7FBFB019B1A46019BB6
:101060005A60019B5A68019B1A60019B009A9A6022
:1010700003B000BDA0430008AFF30080AFF30080D1
:1010800000B583B001900091FFF782FB019B002B1C
:1010900002D12248FFF7DCFB019B9B68002B04DB9D
:1010A000019B1A68019B9A420BD0019B9B68002B05
:1010B00004DA019B1A68019B9A4202D11848FFF793
:1010C000C7FB019B9B6803F1FF32019B9A60019B68
:1010D0009B68002B1DDA009B002B08D1019B9B68AD
:1010E00003F10102019B9A604FF0FF3313E00D4BB7
:1010F000DB69019A9A620B4BDA69019B104619462B
:10110000FFF76EFF4FF003000099FFF749FD03461C
:1011100001E04FF00003184603B000BDF84300089B
:1011200010440008380D0020AFF30080AFF30080BA
:1011300000B585B00190FFF713FB019B002B02D196
:101140001748FFF785FB019B9B68002B04DB019B85
:101150001A68019B9A420BD0019B9B68002B04DA12
:10116000019B1A68019B9A4202D10E48FFF770FB5F
:10117000019B9B6803F10102019B9A60019B9B68A4
:10118000002B0BDC019B1846FFF742FF0390039BEB
:101190004FF000029A620398FFF752FC05B000BDC1
:1011A0004C44000860440008AFF30080AFF30080B7
:1011B00084B001900091009B0393039B1B680393F1
:1011C000009B039A9A4205D0039B9A68019B9B68F7
:1011D0009A42F2D2019B039A1A60039B5A68019BC0
:1011E0005A60019B5B68039A01995160039A5268A7
:1011F0001A6004B0704700BFAFF30080AFF3008007
:1012000084B00190019B1B680393039B1A68019BA8
:101210001A60019B1B68019A5A60039B184604B030
:10122000704700BFAFF30080AFF30080AFF30080E2
:1012300082B00190019B5B68019A12681A60019B61
:101240001B68019A52685A60019B184602B07047A9
:1012500000B583B00190019B002B02D10848FFF735
:10126000F7FA019B1A46019B5A60019B5A68019B41
:101270001A60019B4FF000029A6003B000BD00BFEE
:10128000F0440008AFF30080AFF30080AFF30080BC
:1012900000B583B001904FF0200383F31188FFF76E
:1012A000AFF9019800F00CF8FFF7C2F94FF0000316
:1012B00083F3118803B000BDAFF30080AFF300806B
:1012C00000B585B001903C4BDB690293FFF760FAF3
:1012D000019B002B02D13948FFF7BAFA019B9B68AA
:1012E000002B5CD0019B9B68039335E0029B9A68BE
:1012F000039B9A60039B93F82030042B04D0052BAA
:1013000011D0002B1AD02DE00398FFF791FF024671
:10131000039B9B6A10461946FFF74AFF039B9B6A93
:101320009B68039318E00398FFF782FF0246039B34
:101330009B6A10461946FFF73BFF0CE0039B4FF0FA
:10134000010283F820200398FFF772FF0346184636
:10135000FFF776FB00BF05E0039B9A68029B9B6842
:101360009A42C3D3019B02981946FFF721FF029BC3
:10137000019A9A624FF00400FFF79AFB019B9A686A
:10138000029B9A4202D00E48FFF762FA029B1A6C47
:10139000019B9A420DD00B48FFF75AFA09E0019BD6
:1013A000029A9A60029B1A6C019BDA60029B019A76
:1013B0001A6405B000BD00BF380D002000450008CC
:1013C0001045000824450008AFF30080AFF300800B
:1013D00000B587B0334BDB6903934FF0200383F3F1
:1013E0001188FFF70DF9039B1B6C002B02D12E48CF
:1013F000FFF72EFA039B1B6C9A68039B9A4202D05C
:101400002A48FFF725FA039B1B6C0293029BDA68BC
:10141000039B1A64029B1A68029B9A4233D0039B77
:101420005B6C0493039B1B6C059311E0059B1A688E
:10143000059B9A4209D0059B1B689A68049B9A42B7
:1014400003D9059B1B689B680493059BDB68059388
:10145000059B002BEAD1039B049A9A60029B1846D5
:10146000FFF7CEFE0190029B019A9A60019B1A6CD5
:10147000029BDA60019B029A1A6401984FF0000106
:10148000FFF7BEFB03E0029B4FF000029A60FFF7FC
:10149000CFF84FF0000383F31188029B184607B082
:1014A00000BD00BF380D00204C4500086045000815
:1014B00000B585B0039002910192039B002B05D0EB
:1014C000029B002B02D0019B002B02DC1248FFF78D
:1014D000BFF9039B029ADA60039BDA68039B9A6068
:1014E000039B9A68039B1A60019B4FEA8303029A4D
:1014F000D218039B5A60039B03F11C031846019901
:10150000FFF79EFD039B03F1100318464FF0000107
:10151000FFF796FD05B000BDA0450008AFF30080C1
:1015200000B587B00390029101924FF0200383F33E
:101530001188FFF765F803980299019A00F010F8F6
:101540000590FFF775F84FF0000383F31188059BB2
:10155000184607B000BD00BFAFF30080AFF30080B6
:1015600000B587B0039002910192FFF711F9039B38
:10157000002B02D11548FFF76BF9039B03F11C0305
:1015800018460199FFF77CFD0590059B002B19D1AA
:10159000039B9B68029A1A6003F10402039B9A6002
:1015A000039B9A68039B5B689A4203D3039B1A6868
:1015B000039B9A60039B03F110031846FFF7B8FDE5
:1015C000FFF75EFB059B184607B000BDC04500084D
:1015D00000B587B00390029101924FF0200383F38E
:1015E0001188FFF70DF803980299019A00F010F89E
:1015F0000590FFF71DF84FF0000383F31188059B5A
:10160000184607B000BD00BFAFF30080AFF3008005
:1016100000B587B0039002910192FFF7B9F8039BE0
:10162000002B02D0029B002B02D11648FFF710F9C5
:10163000039B03F1100318460199FFF721FD059064
:10164000059B002B1AD1039BDB681968029A116075
:1016500003F10402039BDA60039BDA68039B5B6877
:101660009A4203D3039B1A68039BDA60039B03F13E
:101670001C031846FFF75CFDFFF702FB059B1846AD
:1016800007B000BD08460008AFF30080AFF300804C
:10169000074B03F1070323F007031A46054B1A60B3
:1016A000054B23F007031A46044B1A60704700BF2E
:1016B0001C1B0020580D0020005000205C0D002055
:1016C00000B585B001904FF0200383F31188FEF739
:1016D00097FF019800F00CF80390FEF7A9FF4FF078
:1016E000000383F31188039B184605B000BD00BFBB
:1016F00000B585B00190FFF733F8019B03F10703B4
:1017000023F0070301930D4B1B681A460C4B1B6813
:10171000D31A1A46019B9A4202D24FF0000309E005
:10172000074B1B680393064B1A68019BD218044BA6
:101730001A60039B184605B000BD00BF5C0D002079
:10174000580D0020AFF30080AFF30080AFF30080AE
:1017500008B5074B074A1A60054B4FF000029A6024
:10176000034B4FF00002DA600348FFF771FD08BD3C
:10177000600D0020C1160008700D0020AFF300803E
:1017800008B500F0CDFB00F093F9064801F0D0FD5C
:1017900000F00EF800F05CF800F0F2F801F098FEAE
:1017A00008BD00BFB04B0008AFF30080AFF300806E
:1017B00008B500F0BDFD08BDAFF30080AFF30080B9
:1017C00082B00190019B4FF001021A70019B4FF013
:1017D00000025A6002B07047AFF30080AFF30080A0
:1017E00000B583B001900091019B002B02D0009BBB
:1017F000002B02D11248FFF72BF84FF0200383F3A0
:101800001188FEF7FDFE019B1B78012B06D0019B82
:101810001B78022B02D00B48FFF71AF8019B009AA5
:101820005A60019800F08CFD019B4FF002021A7083
:10183000FEF7FEFE4FF0000383F3118803B000BDF6
:101840003046000840460008AFF30080AFF3008048
:1018500008B501F01DFB08BDAFF30080AFF30080B9
:1018600000B583B00190019B4FF001021A70019BFB
:101870004FF000025A60019B03F10C031846FFF77A
:10188000E7FC03B000BD00BFAFF30080AFF3008002
:1018900000B583B001900091019B002B02D0009B0A
:1018A000002B02D11448FEF7D3FF019B1B78012BBC
:1018B0000AD0019B1B78022B06D0019B1B78052BBD
:1018C00002D00E48FEF7C4FF4FF0200383F31188C7
:1018D000FEF796FE019B009A5A60019801F0F8FA13
:1018E000019B4FF002021A70FEF7A2FE4FF00003B8
:1018F00083F3118803B000BDD0460008E04600081D
:1019000000B58BB00790059204930B46ADF81A30E2
:101910004FF0200383F31188FEF772FE079B4FF010
:1019200000029A60079B4FF000021A70BDF81A304F
:101930000C9A00920D9A01920E9A029207981946FB
:10194000059A049B01F064FB0990099BB3F1FF3FEA
:1019500004D1079B4FF005021A7003E0079B4FF07C
:1019600002021A70FEF764FE4FF0000383F3118841
:10197000099B18460BB000BDAFF30080AFF30080A9
:1019800008B501F095FC08BDAFF30080AFF300800F
:1019900082B00190019B4FF001021A70019B4FF041
:1019A00000025A70019B4FF000029A70019B4FF0A9
:1019B00000025A6002B07047AFF30080AFF30080BE
:1019C00000B585B0039002910192039B002B05D0D6
:1019D000029B002B02D0019B002B02D11248FEF784
:1019E00037FF4FF0200383F31188FEF709FE039BB6
:1019F0001B78022B03D1039B5B78002B02D00B4892
:101A0000FEF726FF03980299019A01F069FC039BF7
:101A10004FF001025A70FEF70BFE4FF0000383F304
:101A2000118805B000BD00BF004800081448000838
:101A300082B00190024B5A68019B9A6002B07047D5
:101A4000001000E0AFF30080AFF30080AFF3008040
:101A500084B00190114B5B680393019B9B68039AD0
:101A6000D21A0F4B1B68D21A019B9A60019B9A688D
:101A7000019BDB689A4204D9019B9A68019BDA605A
:101A800009E0019B9A68019B1B699A4203D2019B62
:101A90009A68019B1A6104B0704700BF001000E013
:101AA000800D0020AFF30080AFF30080AFF3008023
:101AB00000B587B00A4B4FF000021A6001AB184620
:101AC00000F016F8019B01AA10469847029B01AA54
:101AD00010469847039A024B1A6007B000BD00BF3A
:101AE000800D0020AFF30080AFF30080AFF30080E3
:101AF00082B00190019B094A1A60019B084A5A6012
:101B0000019B4FF000029A60019B4FF00002DA60E7
:101B1000019B4FF0FF321A6102B07047311A000882
:101B2000511A0008AFF30080AFF30080AFF30080DC
:101B300000B583B0FEF7C4FD0C4B1B6803F00F0328
:101B400001930A4B4FF00F025A60094B1B68002BA0
:101B500006D0074B1B68064A526810460199984701
:101B6000FEF7D6FDFEF79CFB03B000BD000002406F
:101B7000880D0020AFF30080AFF30080AFF300804A
:101B800000B583B0FEF79CFD0D4B1B684FEA1313A5
:101B900003F00F0301930A4B4FF0F0025A60094B18
:101BA0009B68002B06D0074B9B68064AD2681046FC
:101BB00001999847FEF7ACFDFEF772FB03B000BD3C
:101BC00000000240880D0020AFF30080AFF30080DA
:101BD00000B583B0FEF774FD0D4B1B684FEA13236D
:101BE00003F00F0301930A4B4FF470625A60094BE4
:101BF0001B69002B06D0074B1B69064A5269104629
:101C000001999847FEF784FDFEF74AFB03B000BD3B
:101C100000000240880D0020AFF30080AFF3008089
:101C200000B583B0FEF74CFD0D4B1B684FEA133334
:101C300003F00F0301930A4B4FF470425A60094BB3
:101C40009B69002B06D0074B9B69064AD269104658
:101C500001999847FEF75CFDFEF722FB03B000BD3B
:101C600000000240880D0020AFF30080AFF3008039
:101C700000B583B0FEF724FD0D4B1B684FEA1343FC
:101C800003F00F0301930A4B4FF470225A60094B83
:101C90001B6A002B06D0074B1B6A064A526A104685
:101CA00001999847FEF734FDFEF7FAFA03B000BD3C
:101CB00000000240880D0020AFF30080AFF30080E9
:101CC00000B583B0FEF7FCFC0D4B1B684FEA1353C5
:101CD00003F00F0301930A4B4FF470025A60094B53
:101CE0009B6A002B06D0074B9B6A064AD26A1046B5
:101CF00001999847FEF70CFDFEF7D2FA03B000BD3C
:101D000000000240880D0020AFF30080AFF3008098
:101D100000B583B0FEF7D4FC0D4B1B684FEA13638C
:101D200003F00F0301930A4B4FF070625A60094BA6
:101D30001B6B002B06D0074B1B6B064A526B1046E1
:101D400001999847FEF7E4FCFEF7AAFA03B000BD3C
:101D500000000240880D0020AFF30080AFF3008048
:101D600082B0144B4FF000021A604FF00003019351
:101D700016E01149019A13464FEA43039B184FEAB4
:101D80008303CB181B684FF000021A600B4B019ABB
:101D90004FF0000143F83210019B03F1010301935E
:101DA000019B062BE5DD064B4FF0FF325A6002B077
:101DB000704700BF840D0020304B0008880D0020C4
:101DC00000000240AFF30080AFF30080AFF300806B
:101DD00000B585B00390029101920093039B002B04
:101DE00002D13148FEF734FD039B5B7A4FF00102CC
:101DF00002FA03F31A462D4B1B6802EA0303002B79
:101E000002D04FF001034BE0039B5B7A1A46284B4C
:101E1000019943F83210039B5B7A254A4FEAC303CA
:101E2000D318009A5A60039B5B7A4FF0010202FAC2
:101E300003F31A461D4B1B681A431C4B1A601B4BBD
:101E40001B6803F07F03002B05D01A4B194A526917
:101E500042F001025A61039B1B68039A12681268E0
:101E600022F001021A60039B5B68039A127A4FF01A
:101E70000F0101FA02F21A60039B1B684FF0000287
:101E80001A60019B002B09D0039B9B7A1A46029B88
:101E90004FEA031310461946FEF77AFA4FF0000393
:101EA000184605B000BD00BF60490008840D002041
:101EB000880D002000100240AFF30080AFF30080D7
:101EC000134B134A126842F480721A60114B1B6A5A
:101ED00003F44073B3F5407F07D00E4B4FF48032CC
:101EE0001A620C4B4FF000021A620A4B1B6A03F491
:101EF0000043002B0BD1074B064A126A42F4407292
:101F00001A62044B034A126A42F400421A62704792
:101F10000070004000100240AFF30080AFF300807B
:101F200008B51E4B1B691D4B4FF0FF321A611B4B4E
:101F30004FF000021A61194BDB68184B4FF0FF326B
:101F4000DA60164B4FF00002DA60154B154A5A6002
:101F5000134B4FF000029A60114B4FF007021A60CA
:101F6000114B114AD26842F08072DA600F4B0F4A6F
:101F7000126842F001021A60084B084AD26942F026
:101F80008052DA61054B054AD26942F00062DA619B
:101F9000FFF796FFFFF7E4FE08BD00BF0010024008
:101FA00010E000E07F320200F0ED00E0001000E001
:101FB000294B294A126842F001021A6000BF264BE1
:101FC0001B6803F00203002BF9D0234B224A12684E
:101FD00002F0F9021A60204B4FF000025A6000BF75
:101FE0001D4B5B6803F00C03002BF9D11A4B1A4A06
:101FF000126842F480321A6000BF174B1B6803F46A
:102000000033002BF9D0144B134A526842F4E81203
:102010005A60114B104A126842F080721A6000BF79
:102020000D4B1B6803F00073002BF9D00A4B0B4AD1
:102030005A600B4B4FF012021A60074B064A526867
:1020400042F002025A6000BF034B5B6803F00C03CE
:10205000082BF9D1704700BF0010024000641D003A
:1020600000200240AFF30080AFF30080AFF30080A8
:1020700008B5FEF725FB084B4FF001025A61074BEC
:102080005B685B6805484FF000019847FEF740FB2E
:10209000FEF706F908BD00BF00040140C00D002096
:1020A00008B5FEF70DFB084B4FF002025A61074BD3
:1020B0005B68DB6805484FF001019847FEF728FB95
:1020C000FEF7EEF808BD00BF00040140C00D00207F
:1020D00008B5FEF7F5FA084B4FF004025A61074BBA
:1020E0005B685B6905484FF002019847FEF710FBFB
:1020F000FEF7D6F808BD00BF00040140C00D002067
:1021000008B5FEF7DDFA084B4FF008025A61074B9D
:102110005B68DB6905484FF003019847FEF7F8FA62
:10212000FEF7BEF808BD00BF00040140C00D00204E
:1021300008B5FEF7C5FA084B4FF010025A61074B7D
:102140005B685B6A05484FF004019847FEF7E0FAC8
:10215000FEF7A6F808BD00BF00040140C00D002036
:1021600000B583B0FEF7ACFA244B5B6903F47873D7
:102170000193224B019A5A61019B03F02003002B2B
:1021800006D01F4B5B68DB6A1D484FF0050198477E
:10219000019B03F04003002B06D0194B5B685B6B7F
:1021A00017484FF006019847019B03F08003002B6E
:1021B00006D0134B5B68DB6B11484FF00701984763
:1021C000019B03F48073002B06D00D4B5B685B6CA6
:1021D0000B484FF008019847019B03F40073002B54
:1021E00006D0074B5B68DB6C05484FF00901984748
:1021F000FEF78EFAFEF754F803B000BD000401406C
:10220000C00D0020AFF30080AFF30080AFF300807B
:1022100000B583B0FEF754FA2A4B5B6903F47C43A4
:102220000193284B019A5A61019B03F48063002BB0
:1022300006D0254B5B685B6D23484FF00A01984739
:10224000019B03F40063002B06D01F4B5B68DB6D22
:102250001D484FF00B019847019B03F48053002B5E
:1022600006D0194B5B685B6E17484FF00C0198471E
:10227000019B03F40053002B06D0134B5B68DB6E0D
:1022800011484FF00D019847019B03F48043002B48
:1022900006D00D4B5B685B6F0B484FF00E01984703
:1022A000019B03F40043002B06D0074B5B68DB6FF8
:1022B00005484FF00F019847FEF72AFAFDF7F0FFA7
:1022C00003B000BD00040140C00D0020AFF300804A
:1022D00008B5FEF7F5F9084B4FF480325A61074B09
:1022E0005B68D3F8843005484FF010019847FEF73B
:1022F0000FFAFDF7D5FF08BD00040140C00D002016
:1023000008B5FEF7DDF9084B4FF480225A61074B00
:102310005B68D3F8943005484FF012019847FEF7F8
:10232000F7F9FDF7BDFF08BD00040140C00D002016
:1023300008B50248FFF744FA08BD00BFC00D0020F1
:1023400000B589B00190019B1B78012B3BD14FF068
:1023500006004FF06001FEF71BF84FF007004FF04A
:102360006001FEF715F84FF008004FF06001FEF72E
:102370000FF84FF009004FF06001FEF709F84FF039
:102380000A004FF06001FEF703F84FF017004FF01E
:102390006001FDF7FDFF4FF028004FF06001FDF7F1
:1023A000F7FF4FF001004FF06001FDF7F1FF4FF034
:1023B00029004FF06001FDF7EBFF4FF02A004FF0CE
:1023C0006001FDF7E5FF4FF000030393039B0493C7
:1023D000049B0593059B06934FF0000307934DE084
:1023E000019B5B68079A53F8323003F00403002B1B
:1023F00040D0019B5A68079B4FEAC303D3185B6820
:10240000002B09D0079B4FF0010202FA03F3069A52
:1024100042EA0303069308E0079B4FF0010202FA29
:1024200003F3059A42EA03030593019B5B68079A4D
:1024300053F8323003F00103DBB2002B08D0079BC6
:102440004FF0010202FA03F3049A42EA03030493F1
:10245000019B5B68079A53F8323003F00203002BAC
:1024600008D0079B4FF0010202FA03F3039A42EAF5
:1024700003030393079B03F101030793079B122BAD
:10248000AED9164B019A5268B2F898209A60134B55
:10249000019A5268B2F89A20DA60104B019A526899
:1024A000B2F89C201A610D4B019A5268B2F89E2036
:1024B0005A610B4B4FF000021A61094B049A9A6063
:1024C000074B039ADA60064B064A5A61044B059A99
:1024D0005A60034B069A1A6009B000BD0000014023
:1024E00000040140FFFF0700AFF30080AFF300805E
:1024F00084B00190019B1B6B0393039B4FF400423C
:102500001A80039B4FF000021A80039B4FF00002D9
:102510009A80039B4FF000029A82019BDB6A1B6842
:10252000019AD26A1268126822F001021A60019BB5
:10253000DB6A5B68019AD26A127A4FF00F0101FAE6
:1025400002F21A60019B9B6A1B68019A926A1268E8
:10255000126822F001021A60019B9B6A5B68019A73
:10256000926A127A4FF00F0101FA02F21A6004B077
:10257000704700BFAFF30080AFF30080AFF300807F
:1025800000B585B00190019B0393039BDB69002B91
:1025900010D0039BDB6902930398FFF7A9FF039B0D
:1025A0004FF00002DA61029B4FF0FF329A6202980C
:1025B000FEF746FA05B000BDAFF30080AFF3008030
:1025C00000B587B00190019B1B6B0493019B5B6876
:1025D0005B680393019B5B681B7A8DF80B30019B52
:1025E000002B06D0039B002B03DD039A6E4B9A420F
:1025F00002DD6E48FEF72CF9049B9B889BB223F00A
:102600003F039AB2049B9A80049B9B889BB243F041
:1026100024039AB2049B9A804FF00003ADF8163061
:1026200040F6FF73ADF81430039A614B9A4236DCE2
:102630009DF80B30012B02D05E48FEF709F9039B91
:102640004FEA43025C4B93FBF2F102FB01F29B1A4F
:10265000002B02D05948FEF7FBF8039B4FEA4303D7
:10266000554A92FBF3F3ADF81430BDF81430032B48
:1026700002D85348FEF7ECF8BDF814304FEA035384
:102680004FEA13539AB2BDF8163042EA03039BB2E5
:10269000ADF81630049B4FF025021A8475E0039ABA
:1026A000484B9A4271DC9DF80B30022B06D09DF806
:1026B0000B30032B02D04448FEF7CAF89DF80B30CC
:1026C000022B1AD1039A13464FEA43039A183A4B46
:1026D00093FBF2F102FB01F29B1A002B02D03B4864
:1026E000FEF7B6F8039A13464FEA43039B18324AA3
:1026F00092FBF3F3ADF8143029E09DF80B30032B77
:1027000025D1039A13464FEA83039B184FEA8302AD
:102710009A18294B93FBF2F102FB01F29B1A002B52
:1027200002D02B48FEF794F8039A13464FEA83032E
:102730009B184FEA83029B181F4A92FBF3F3ADF8F4
:102740001430BDF8163043F48043ADF81630BDF8B0
:102750001430002B02D11F48FEF77AF8BDF8143070
:102760004FEA03534FEA13539BB26FEA43436FEAB6
:1027700053439AB2BDF8163042EA03039BB2ADF858
:102780001630049B4FF00B021A84BDF8142040F65B
:10279000FF739A4202D91048FEF75AF8049BBDF81D
:1027A00016209A8307B000BD00093D00A04900082B
:1027B000A0860100B849000800512502D049000850
:1027C000E8490008801A0600004A0008184A000874
:1027D000304A0008484A0008604A0008AFF3008009
:1027E00086B00190019B1B6B0493019B5B681B7877
:1027F0008DF80F30049B1B88ADF816309DF80F3014
:10280000022B0AD0032B15D0012B1AD1BDF816309C
:1028100023F00A03ADF8163013E0BDF8163043F08C
:102820000203ADF81630BDF8163023F00803ADF8FA
:10283000163006E0BDF8163043F00A03ADF8163046
:1028400000BF049BBDF816201A8006B0704700BF79
:1028500000B589B00190019B1B6B0693069B1B8BF7
:102860009BB20593069B9B8A9BB20793019B93F8AF
:102870003430002B40F0B280059B4FEA0342079BA7
:1028800042EA030323F07F43504A934212D04F4A57
:10289000934203D84E4A934207D08DE04D4A93426B
:1028A00031D04D4A934241D086E0019B1A8C069B61
:1028B0001A8281E0069B9B889BB223F400739AB234
:1028C000069B9A80019B9B6A1B68019A926A126818
:1028D000126842F001021A60069B9B889BB243F487
:1028E00080539AB2069B9A80019B9B6A1B685B6827
:1028F000012B60D8069B1B889BB223F480639AB29D
:10290000069B1A8058E0069B9B889BB223F40073B9
:102910009AB2069B9A80019BDB6A1B68019AD26A75
:102920001268126842F001021A6045E0019B9B6A3E
:102930001B685B68002B0FD0019B1B8C43F00103CD
:102940009AB2019B1A84069B1B889BB243F4A06336
:102950009AB2069B1A80E9E0069B9B889BB223F4FF
:1029600000739AB2069B9A80069B1B889BB243F425
:1029700000739AB2069B1A804FF0200383F31188EC
:10298000FDF76EFE019BDB69002B0DD0019BDB691F
:102990000493019B4FF00002DA61049B4FF00002A8
:1029A0009A620498FEF74CF8FDF772FE4FF00003B0
:1029B00083F3118800E000BF079B03F00A03002B9C
:1029C00000F0B480069B1B8BB0E000BF0200030048
:1029D000010003008200070084000700079B03F04A
:1029E0000A03002B0FD0019B4FF000021A64019BD9
:1029F0004FF00002DA64069B9B8A9BB20793069B0A
:102A00001B8B9BB20593079B03F08003002B16D012
:102A1000019B5A6C019BDB6CD21812781146069A06
:102A2000118203F10102019BDA64019B1A6C019B84
:102A30009B6C9A4203D3019B4FF00002DA64079B20
:102A400003F04003002B17D0019B9A6B019B1B6C7A
:102A5000D2180699098A89B2C9B2117003F101022C
:102A6000019B1A64019B1A6C019BDB6B9A4203D396
:102A7000019B4FF000021A64079B03F01003002B28
:102A800029D0069B9B8A9BB20793069B1B889BB20F
:102A900043F001039AB2069B1A804FF0200383F3A0
:102AA0001188FDF7DDFD019BDB69002B0DD0019B3B
:102AB000DB690393019B4FF00002DA61039B4FF047
:102AC00000029A620398FDF7BBFFFDF7E1FD4FF0AE
:102AD000000383F31188079B03F48063002B25D048
:102AE000069B9B8A9BB223F480639AB2069B9A82D0
:102AF0004FF0200383F31188FDF7B2FD019BDB69E2
:102B0000002B0DD0019BDB690293019B4FF000026B
:102B1000DA61029B4FF000029A620298FDF790FF83
:102B2000FDF7B6FD4FF0000383F3118809B000BD37
:102B300000B585B001900091019B1B6B0393009B36
:102B400003F00803002B01D0FDF752FB019B9B6AA9
:102B50001B68019A926A1268126822F001021A60D8
:102B6000019B9B6A5B68019A926A127A4FF00F018F
:102B700001FA02F21A60019B93F83430002B35D130
:102B8000039B9B889BB223F480539AB2039B9A8049
:102B9000039B1B889BB223F480639AB2039B1A8029
:102BA000039B1B889BB243F400739AB2039B1A8069
:102BB0004FF0200383F31188FDF752FD019BDB6981
:102BC000002B0DD0019BDB690293019B4FF00002AB
:102BD000DA61029B4FF000029A620298FDF730FF23
:102BE000FDF756FD4FF0000383F3118805B000BDDB
:102BF00000B585B001900091019B1B6B0393009B76
:102C000003F00803002B01D0FDF7F2FA019BDB6A09
:102C10001B68019AD26A1268126822F001021A60D7
:102C2000019BDB6A5B68019AD26A127A4FF00F014E
:102C300001FA02F21A60039B9B889BB243F4007373
:102C40009AB2039B9A8005B000BD00BFAFF300802D
:102C500000B587B00190019B1B6B04934FF02003DC
:102C600083F31188FDF7FCFC019BDB6A1B68019A6A
:102C7000D26A1268126822F001021A60019BDB6AB4
:102C80005B68019AD26A127A4FF00F0101FA02F2E0
:102C90001A60019B9B6A1B68019A926A126812680B
:102CA00022F001021A60019B9B6A5B68019A926A9A
:102CB000127A4FF00F0101FA02F21A60FDF7E8FCF8
:102CC0004FF0000383F311884FF000030593049B3A
:102CD0009B8A9BB203F48073002B0BD0049B9B8ACE
:102CE0009BB223F480739AB2049B9A82059B43F0B3
:102CF00001030593049B9B8A9BB203F40073002B92
:102D00000BD0049B9B8A9BB223F400739AB2049B62
:102D10009A82059B43F002030593049B9B8A9BB216
:102D200003F48063002B1BD0049B9B8A9BB223F48B
:102D300080639AB2049B9A82049B9B889BB223F483
:102D400000739AB2049B9A80049B1B889BB243F445
:102D500000739AB2049B1A80059B43F00403059309
:102D6000049B9B8A9BB203F40063002B0BD0049B53
:102D70009B8A9BB223F400639AB2049B9A82059BC0
:102D800043F008030593049B9B8A9BB203F4805392
:102D9000002B0BD0049B9B8A9BB223F480539AB2E6
:102DA000049B9A82059B43F010030593049B9B8A26
:102DB0009BB203F48043002B0BD0049B9B8A9BB2F5
:102DC00023F480439AB2049B9A82059B43F020032C
:102DD0000593049B9B8A9BB29BB21BB2002B0DDA1E
:102DE000049B9B8A9BB24FEA43434FEA53439AB2F8
:102DF000049B9A82059B43F040030593059B002B9F
:102E000020D0019B059A9A604FF0200383F311882C
:102E1000FDF726FC019BDB69002B0DD0019BDB69D4
:102E20000393019B4FF00002DA61039B6FF00102F4
:102E30009A620398FDF704FEFDF72AFC4FF00003A9
:102E400083F3118807B000BDAFF30080AFF30080BB
:102E500008B5FDF735FC0448FFF7FAFCFDF758FC10
:102E6000FDF71EFA08BD00BFC80D0020AFF30080BB
:102E700008B5FDF725FC0448FFF7EAFEFDF748FC1E
:102E8000FDF70EFA08BD00BFC80D0020AFF30080AB
:102E900008B50848FEF7E4FC064B4FF00002DA6183
:102EA000044B054A1A63034B044A9A62014B044AD5
:102EB000DA6208BDC80D002000540040784B0008BD
:102EC0006C4B0008AFF30080AFF30080AFF30080DD
:102ED00000B585B00190019B1B6B0393019B4FF0E4
:102EE0008A025A62019B1B78012B47D1019A3F4B02
:102EF0009A4243D13E4B3E4A126942F400121A6193
:102F00003B4B4FF000021A61019B9A6A394B104605
:102F10004FF00A011A46019BFEF75AFF0290029BEE
:102F2000002B02D03448FDF793FC019BDA6A334B47
:102F300010464FF00A011A46019BFEF749FF029026
:102F4000029B002B02D02E48FDF782FC284B284A1A
:102F5000D26942F40012DA614FF01F004FF0A00175
:102F6000FDF716FA4FF020004FF0A001FDF710FA20
:102F7000019B5B6A43F48052019B5A62019BDB6AAE
:102F80001B68019A526A42F010021A60019B9B6A08
:102F90001B68019A526A1A60019B9B6A1B68039A1C
:102FA00002F110029A60019BDB6A1B68039A02F12E
:102FB00010029A60039B4FF400421A80039B4FF06B
:102FC00000021A80039B4FF410629A800198FFF769
:102FD000F7FA0198FFF704FC039B1B889BB243F0B0
:102FE00001039AB2039B1A8005B000BDC80D0020F2
:102FF00000100240312B0008784A0008F12B00082D
:103000008C4A0008AFF30080AFF30080AFF300807C
:1030100000B58BB00390019200930B46ADF80A30D7
:10302000039B1B6B0993584BDA69039BDA610E9B78
:10303000B3F1FF3F06D004AB18460E99534A039BE9
:10304000FDF72EFCFDF7F4FA4FF0000383F311882F
:1030500015E04FF0200383F31188FDF7D1FA0E9BA2
:10306000B3F1FF3F05D0079B002B02D14FF0FF3398
:1030700087E0FDF7DDFA4FF0000383F31188099B29
:103080001B8B9BB203F00203002BE2D1099B1B8830
:103090009BB203F40073002BDBD14FF0200383F3CA
:1030A0001188FDF7ADFA0E9BB3F1FF3F05D0079BEA
:1030B000002B02D14FF0FF3363E0BDF80A304FEA36
:1030C00043039AB2039B1A84039B4FF000029A6059
:1030D000039B019A9A63039B009ADA63039B4FF068
:1030E00000021A64039B0C9A5A64039B0D9A9A641B
:1030F000039B4FF00002DA64039B4FF0010283F858
:103100003420099B1B889BB223F480739AB2099BDD
:103110001A80099B9B889BB223F400639AB2099B97
:103120009A80BDF80A304FEA43039BB203F0FF03D5
:103130009AB2099B1A81099B9B889BB243F4007346
:103140009AB2099B9A80099B1B889BB243F48063C7
:103150009AB2099B1A800C4BDA69039BDA614FF033
:103160000200FDF7A5FC0E9BB3F1FF3F06D0079BC5
:10317000002B03D004AB1846FDF7E2FB024BDB69E2
:103180009B6A18460BB000BD380D00208125000851
:1031900084B00346ADF806304FF000030393BDF84A
:1031A000063003F00803002B03D0039B43F0100309
:1031B0000393BDF8063003F00103DBB2002B03D00C
:1031C000039B43F004030393BDF8063003F00203AE
:1031D000002B03D0039B43F008030393BDF8063094
:1031E00003F00403002B03D0039B43F0200303935D
:1031F000BDF8063003F48073002B03D0039B43F02B
:1032000040030393039B184604B07047AFF300805C
:1032100010B584B00190019B9B680393039B1B88AE
:10322000ADF80A30039B9B88BDF80A2040F20F13CB
:1032300002EA0303002B14D0039B4FF6FF621A80AF
:10324000019B5B681B69002B0BD0019B5B681C69B1
:10325000BDF80A301846FFF79BFF03460198194650
:10326000A047BDF80A3003F04003002B0DD0039BAC
:103270004FF6BF721A80019B5B685B68002B04D01D
:10328000019B5B685B680198984704B010BD00BF64
:1032900008B5FDF715FA0448FFF7BAFFFDF738FA4D
:1032A000FCF7FEFF08BD00BF180E0020AFF3008042
:1032B00008B50648FEF76CFB044B054A9A60034BC1
:1032C000044A1A61014B044A5A6108BD180E0020D5
:1032D000004400406C4B0008784B0008AFF30080BE
:1032E00084B0039002910192039B5B691B68019A71
:1032F000DA60039B5B691B68029A5A60039B5B69F7
:103300001B68039AD26842F092021A60039B5B69C1
:103310001B68039A52691268126842F001021A602F
:1033200004B07047AFF30080AFF30080AFF30080CC
:1033300082B00190214B214A926942F07D029A614C
:103340001F4B019A1268DA601D4B019A92685A600D
:103350001B4B019A52681A601A4B019AD268DA60C4
:10336000184B019A52695A60164B019A12691A60F9
:10337000154B019A9269DA60134B019A126A5A60EE
:10338000114B019AD2691A60104B019A526ADA60A5
:103390000E4B019AD26A5A600C4B019A926A1A60DB
:1033A0000B4B019A126BDA60094B019A926B5A60CF
:1033B000074B019A526B1A6002B07047001002402E
:1033C00000080140000C01400010014000140140C1
:1033D00000180140AFF30080AFF30080AFF300802E
:1033E0008AB0039002910192019B032B03D1039BAE
:1033F000029A1A6105E0019B042B02D1039B029AF9
:103400005A612E4A019BD3181B7804934FF0000396
:103410000693069B0793079B0893089B09934FF01D
:103420000003059335E0089B4FEA03130893099BBB
:103430004FEA03130993069B4FEA03130693079B76
:103440004FEA03130793029B03F08003002B04D180
:10345000089B43F00F03089304E0069A049B42EA9A
:1034600003030693029B03F40043002B04D1099B42
:1034700043F00F03099304E0079A049B42EA030315
:103480000793029B4FEA43030293059B03F1010359
:103490000593059B072BC6D9039B5A68099B1A40C5
:1034A000079B1A43039B5A60039B1A68089B1A40A8
:1034B000069B1A43039B1A600AB07047904B0008A2
:1034C00008B5FEF775FD08BDAFF30080AFF30080CF
:1034D000704700BFAFF30080AFF30080AFF3008010
:1034E00008B5FEF74DF9FCF7E3FF00F0A1FA4FF045
:1034F000030000F0CDFA00F043FD00F019FE00F0EB
:10350000F7FA00F0C5F900F0A3F84FF4FA70FDF7F0
:10351000F7FCFAE7AFF30080AFF30080AFF3008071
:1035200010B58AB00590404BDB69404A9A61404B28
:103530004FF07D021A603F4B9B684FEA13339BB2FA
:1035400003F001039AB23B4B9B684FEA53339BB2A3
:1035500003F001039BB24FEA43039BB242EA030329
:103560009AB2344B9B684FEA93339BB203F001034A
:103570009BB24FEA83039BB242EA0303ADF82630C5
:10358000BDF826306FEA03039BB203F00703ADF8E2
:103590002630294B08934FF0000000F009FE024648
:1035A000089B1A60089B03F104044FF0010000F02F
:1035B000FFFD03462360204B0793079B03F108049C
:1035C00000F00EFD0346236000F002FC03461A469D
:1035D000194B1A73194B4FF000021A70184B4FF029
:1035E00040021A70164B1B78114A1268124900915A
:1035F0004FF00D0101910292124819460F4A4FF007
:103600000D03FEF77DF902460F4B1A600D4B9B68C8
:10361000002B05D00B480D49FEF73AF900BF8AE7A9
:10362000064800F05DF986E7380D0020F04A0008F2
:1036300010110020000C0140340E0020440E002028
:1036400014110020C80D002018110020F04B0008B4
:1036500000B585B04FF000038DF80F300BE09DF8FA
:103660000F302D4A4FF00001D1549DF80F3003F177
:1036700001038DF80F309DF80F300C2BEFD94FF070
:1036800000038DF80F300BE09DF80F30234A4FF008
:103690000001D1549DF80F3003F101038DF80F3074
:1036A0009DF80F30052BEFD91D484FF480514FF096
:1036B0000202FFF795FE1A484FF400514FF0020244
:1036C000FFF78EFE16484FF480414FF00202FFF7DD
:1036D00087FE13484FF040014FF01102FFF780FEC4
:1036E0000F484FF080014FF01102FFF779FE0D48AF
:1036F0000D49FEF7CDF80D48FDF7AAFD4FF0000388
:1037000000930B484FF42C714FF04002094BFDF72A
:10371000B7FB05B000BD00BF340E0020440E0020F2
:10372000000C0140C80D0020F04B00084C0E00209A
:10373000600E002021350008AFF30080AFF3008059
:1037400000B583B00190464BDB69464A9A6100E0C0
:1037500000BF4548FDF79CFD444845494FF0000235
:10376000FDF736FF0246434B1A60FDF731FE414B31
:103770001B68002B6FD1404B4FF000021A7019E00C
:103780003D4B1B7819463A4B1A6813464FEA4303E0
:103790009B184FEA43031A46374B1B78D318374A16
:1037A000D25C374B5A54344B1B7803F10103DAB225
:1037B000314B1A70304B1B78052BE1D9304B1B78FD
:1037C00003F1FF33052BC3D801A252F823F000BF49
:1037D000E9370008F93700080938000825380008DB
:1037E0004138000849380008254B5B784FF000004D
:1037F000194600F0BDF92DE0214B5B784FF0010038
:10380000194600F0B5F925E01D4B03F101031A68D4
:103810001C4B1A601B4B1B684FF00000194600F050
:1038200097FC17E0164B03F101031A68154B1A6059
:10383000144B1B684FF00100194600F089FC09E0A9
:10384000114800F0E5FA05E00D4B5B78184600F0F2
:103850001FF900BF7DE74FF00100FDF751FB78E74E
:10386000380D0020004B00081C1100202C110020F6
:1038700044160020481600204C1600206C11002031
:10388000501600205816002051160020AFF300807B
:1038900000B583B00A48FDF7DBFC0A480A494FF03F
:1038A0000502FDF705FE4FF00003009307484FF4B3
:1038B00096614FF04002064BFDF7E2FA03B000BDFF
:1038C0001C1100202C110020581100209011002004
:1038D00041370008AFF30080AFF30080AFF3008002
:1038E00000B583B001902348FDF7D2FC224B4FF086
:1038F00000021A701AE0214B1B781A4613464FEA51
:1039000043039B184FEA43031A461B4B1B78D318FB
:10391000194A127801998A181178194AD154164B0C
:103920001B7803F10103DAB2134B1A70124B1B78A8
:10393000052BE0D9114B1B78124819464FF00002B5
:10394000FDF7EEFD0D4B1B7803F101010E4B83FBE0
:1039500001234FEA63024FEAE173D21A13464FEA9A
:1039600083039B18CA1AD2B2044B1A70FDF730FDBC
:1039700003B000BD1C11002040160020541100208F
:103980006C1100202C11002067666666AFF3008082
:1039900000B583B001901E4BDB691E4A9A611E4B35
:1039A0004FF400625A611C4B4FF480625A614FF031
:1039B0007D00FDF7A5FA1948FDF76AFC184B1A6857
:1039C000184B1A60FDF704FD164B1B6803F001034A
:1039D000DBB2002B04D0104B4FF400621A6103E0FD
:1039E0000D4B4FF400625A610E4B1B6803F002034B
:1039F000002B04D0084B4FF480621A6103E0064BA1
:103A00004FF480625A614FF07D00FDF779FAC6E706
:103A1000380D0020104B0008000C01405C160020FF
:103A20006C16002020180020AFF30080AFF3008058
:103A300000B583B0124B4FF400621A61104B4FF483
:103A400080621A610E484FF400614FF00602FFF7E2
:103A5000C7FC0B484FF480614FF00602FFF7C0FC33
:103A60000848FDF7F5FB4FF00003009306484FF4BC
:103A7000D8714FF04002054BFDF702FA03B000BDCC
:103A8000000C01405C1600207016002091390008DF
:103A900000B583B001900548FDF7FAFB044B019A8D
:103AA0001A60FDF795FC03B000BD00BF5C16002056
:103AB0006C160020AFF30080AFF30080AFF30080FE
:103AC000094B4FF000021A8007E0074B1B889BB29E
:103AD00003F101039AB2044B1A80034B1B889BB27B
:103AE000FF2BF2D9704700BF28180020AFF30080E9
:103AF00008B51C484FF001014FF00602FFF770FCBB
:103B000018484FF002014FF00602FFF769FC164813
:103B10004FF480414FF00602FFF762FC12484FF469
:103B200000414FF00602FFF75BFC0F484FF40051D5
:103B30004FF00602FFF754FC0A4B4FF001025A61A6
:103B4000084B4FF002025A61074B4FF480421A6152
:103B5000054B4FF400421A61034B4FF400521A61B7
:103B600008BD00BF0008014000100140AFF3008015
:103B700000B585B002460B468DF807208DF806305B
:103B80009DF80730002B02D0012B07D00DE0344BFD
:103B900003934FF00E03ADF80A300DE0304B039362
:103BA0004FF00F03ADF80A3006E02D4B03934FF0B2
:103BB0000D03ADF80A3000BFBDF80A304FF0010226
:103BC00002FA03F31A46039B5A619DF806309BB232
:103BD0004FEA03139AB2234B1A80FFF771FF224B6F
:103BE0004FF00F021A7028E0204B4FF001021A61CB
:103BF0001C4B1B881A461C4B1B785BB242FA03F322
:103C000003F00103DBB2002B04D0184B4FF002028B
:103C10001A6103E0154B4FF002025A61FFF750FFA3
:103C2000124B4FF001025A61FFF74AFF0E4B1B780F
:103C300003F1FF33DAB20C4B1A700B4B1B785BB2FB
:103C4000002BD1DAFFF73CFFBDF80A304FF001023C
:103C500002FA03F31A46039B1A6105B000BD00BFC8
:103C60000010014024180020261800200008014000
:103C700084B002460B468DF807208DF806304FF0D1
:103C800008038DF80F3033E09DF806209DF80730CB
:103C900082EA0303DBB203F001038DF80E309DF8D6
:103CA0000E30002B06D19DF806304FEA53038DF8F5
:103CB000063011E09DF8063083F018038DF80630C9
:103CC0009DF806304FEA53038DF806309DF8063014
:103CD00063F07F038DF806309DF807304FEA5303F9
:103CE0008DF807309DF80F3003F1FF338DF80F305A
:103CF0009DF80F30002BC7D19DF80630184604B050
:103D0000704700BFAFF30080AFF30080AFF30080D7
:103D100008B5274B1A78264B1B7910461946FFF732
:103D2000A7FF03461A46224B1A71214B5A78204BA3
:103D30001B7910461946FFF79BFF03461A461C4B9A
:103D40001A711B4B9A781A4B1B7910461946FFF7CC
:103D50008FFF03461A46164B1A71154BDA78144B2F
:103D60001B7910461946FFF783FF03461A46104B8E
:103D70001A71104B4FF400421A610F484FF00501C1
:103D80000B4AFDF71DFE4FF0200383F31188FCF76B
:103D900037FC0A4BDA690A4B1A604FF00200FCF755
:103DA00087FEFCF745FC4FF0000383F3118808BD44
:103DB0002C180020000C0140180E0020380D0020A7
:103DC00034180020AFF30080AFF30080AFF3008021
:103DD00000B583B04FF0200383F31188FCF710FC8B
:103DE000094B1B78042B94BF002301238DF8073067
:103DF000FCF71EFC4FF0000383F311889DF8073099
:103E0000184603B000BD00BF00080020AFF30080DB
:103E100000B583B00190019B1A780F4B1A70019B7B
:103E200003F101031A780C4B5A70019B03F1020352
:103E30001A78094B9A70019B03F103031A78064B19
:103E4000DA70019B03F104031A78034B1A71FFF730
:103E50005FFF03B000BD00BF2C180020AFF300804F
:103E60000A4B4FF000021A8007E0084B1B889BB2F8
:103E700003F101039AB2054B1A80044B1B889AB2D6
:103E800040F2FF339A42F0D9704700BF0A1B00206E
:103E900008B5224B4FF000021A60214B4FF0400250
:103EA0005A61FFF7DDFF1F4B4FF00C021A8028E02C
:103EB0001B4B4FF040021A61FFF7D2FF184B9B6873
:103EC0004FEAD31303F00103DBB2002B0CD0154BE8
:103ED0001B881BB24FF0010202FA03F31A460F4B84
:103EE0001B68D2180D4B1A600D4B4FF040025A61FF
:103EF000FFF7B6FF0B4B1B8803F1FF339AB2094B58
:103F00001A80084B1B881BB2002BD1DA044B4FF0F0
:103F100040021A61014B1B68184608BD041B0020B3
:103F200000080140081B0020AFF30080AFF30080C1
:103F300000B583B001900B4BDB690B4A9A61FFF728
:103F4000A7FF0246094B1A600948FDF7A1F9074B84
:103F50001A68084B1A60FDF73BFA4FF01900FCF79E
:103F6000CFFFECE7380D0020204B0008001B00209D
:103F70003818002048180020AFF30080AFF300800D
:103F800000B583B010484FF040014FF00602FFF734
:103F900027FA0D4B4FF040021A610B484FF0800199
:103FA0004FF00202FFF71CFA0848FDF751F94FF0F5
:103FB0000003009306484FF42C714FF04002054B6C
:103FC000FCF75EFF03B000BD000801403818002078
:103FD00050180020313F0008AFF30080AFF300809D
:103FE00000B583B00548FDF753F9054B1B680193F5
:103FF000FDF7EEF9019B184603B000BD381800200C
:1040000048180020AFF30080AFF30080AFF30080CA
:1040100082B0019000911D4B9B68DBB203F001035D
:10402000DAB21B4B1A70194B9B684FEA5303DBB291
:1040300003F00103DAB2174B1A70154B1B78002BF3
:1040400011D0144B1B78002B06D0134B1B6803F1C7
:10405000FF32114B1A6017E00F4B1B6803F101028E
:104060000D4B1A6010E00B4B1B78002B06D00A4B4F
:104070001B6803F10102084B1A6005E0064B1B6840
:1040800003F1FF32044B1A6002B07047000C01408C
:104090001A1B00201B1B00200C1B0020AFF300800C
:1040A00082B0019000911E4B9B684FEA1323DBB254
:1040B00003F00103DAB21B4B1A70194B9B684FEAED
:1040C0005323DBB203F00103DAB2174B1A70154B1E
:1040D0001B78002B11D0144B1B78002B06D0134BF0
:1040E0001B6803F1FF32114B1A6017E00F4B1B687E
:1040F00003F101020D4B1A6010E00B4B1B78002BF3
:1041000006D00A4B1B6803F10102084B1A6005E058
:10411000064B1B6803F1FF32044B1A6002B0704774
:10412000000C0140181B0020191B0020101B002050
:1041300008B502480249FDF753FB08BDC00D002039
:10414000004C0008AFF30080AFF30080AFF30080B5
:1041500000B583B0034600918DF807309DF8073015
:10416000002B0FD14FF0200383F31188FCF748FA9E
:104170000D4B009A1A60FCF75BFA4FF0000383F3D3
:1041800011880EE04FF0200383F31188FCF738FA12
:10419000064B009A1A60FCF74BFA4FF0000383F3CA
:1041A000118803B000BD00BF0C1B0020101B0020B5
:1041B00000B583B003468DF807309DF80730002B1B
:1041C00010D14FF0200383F31188FCF719FA104B3C
:1041D0001A68104B1A60FCF72BFA4FF0000383F3B8
:1041E00011880FE04FF0200383F31188FCF708FAE1
:1041F000094B1A68074B1A60FCF71AFA4FF00003D4
:1042000083F31188034B1B68184603B000BD00BF41
:104210000C1B0020141B0020101B0020AFF300809B
:1042200069646C65000000006D61696E000000004B
:104230005356233100000000535623320000000083
:10424000535623330000000053562334000000006F
:10425000535623350000000053562336000000005B
:104260005356233700000000535623380000000047
:10427000535623390000000053562331300000000C
:104280005356233131000000000000000000000000
:10429000226368565453657449222829000000009F
:1042A00022636856545265736574492228290000B8
:1042B0006368565452657365744928292C2023314C
:1042C00000000000000000000000000000000000EE
:1042D000636853636852656164794928292C2023F7
:1042E00031000000737461636B206F766572666CD9
:1042F0006F770000000000000000000000000000D8
:104300002263685468644372656174654922282990
:104310000000000022636854686453657450726939
:104320006F7269747922282900000000636854685C
:1043300064526573756D6528292C202331000000B7
:10434000226368546864536C6565702228290000F4
:104350006368546864457869745328292C20233194
:104360000000000022636854686457616974222861
:104370002900000063685468645761697428292C17
:104380002023310063685468645761697428292CBC
:1043900020233200000000000000000000000000A8
:1043A00022636853656D496E6974222829000000F4
:1043B00022636853656D526573657449222829002C
:1043C000636853656D52657365744928292C2023F1
:1043D0003100000022636853656D57616974532290
:1043E00028290000636853656D5761697453282953
:1043F0002C2023310000000022636853656D576153
:10440000697454696D656F75745322282900000022
:10441000636853656D5761697454696D656F757430
:104420005328292C2023310022636853656D53697A
:10443000676E616C22282900636853656D53696754
:104440006E616C28292C2023310000002263685300
:10445000656D5369676E616C492228290000000070
:10446000636853656D5369676E616C4928292C2018
:104470002331000022636853656D416464436F75A6
:104480006E74657249222829000000006368536534
:104490006D416464436F756E7465724928292C20E0
:1044A0002331000022636853656D5369676E616C48
:1044B0005761697422282900636853656D536967E1
:1044C0006E616C5761697428292C2023310000002B
:1044D000636853656D5369676E616C5761697428D1
:1044E000292C202332000000000000000000000002
:1044F0002263684D7478496E69742228290000008F
:104500002263684D74784C6F636B53222829000036
:1045100063684D74784C6F636B5328292C202331CA
:104520000000000063684D74784C6F636B5328295A
:104530002C202332000000002263684D74785472EE
:10454000794C6F636B5322282900000063684D7417
:1045500078556E6C6F636B28292C20233100000086
:1045600063684D7478556E6C6F636B28292C20231B
:104570003200000063684D7478556E6C6F636B5346
:1045800028292C202331000063684D7478556E6C07
:104590006F636B5328292C20233200000000000099
:1045A0002263684D42496E69742228290000000088
:1045B0002263684D42526573657422282900000009
:1045C0002263684D42506F73745322282900000003
:1045D0002263684D42506F737449222829000000FD
:1045E0002263684D42506F73744168656164532261
:1045F000282900002263684D42506F73744168653A
:1046000061644922282900002263684D424665748E
:1046100063685322282900002263684D424665746E
:104620006368492228290000000000000000000003
:104630002265787453746172742228290000000086
:10464000657874537461727428292C20233100001A
:104650002265787453746F7022282900657874532A
:10466000746F7028292C2023310000002265787493
:104670004368616E6E656C456E61626C65222829C7
:10468000000000006578744368616E6E656C456E6D
:1046900061626C6528292C20233100002265787422
:1046A0004368616E6E656C44697361626C65222853
:1046B000290000006578744368616E6E656C44691A
:1046C0007361626C6528292C2023310000000000F2
:1046D0002269326353746172742228290000000039
:1046E000693263537461727428292C2023310000CD
:1046F0002269326353746F70222829006932635330
:10470000746F7028292C2023310000002269326345
:104710004765744572726F72732228290000000089
:10472000226932634D61737465725472616E736D88
:10473000697454696D656F75742228290000000042
:104740006932634D61737465725472616E736D6921
:104750007454696D656F757428292C20233100000D
:10476000226932634D61737465725265636569765F
:104770006554696D656F7574222829006932634D2F
:1047800061737465725265636569766528292C20AA
:104790002331000022693263416371756972654299
:1047A00075732228290000002269326352656C6506
:1047B0006173654275732228290000000000000023
:1047C000227561727453746172742228290000008A
:1047D00075617274537461727428292C202331001E
:1047E000227561727453746F7022282900000000D2
:1047F0007561727453746F7028292C202331000066
:104800002275617274537461727453656E642228E8
:104810002900000075617274537461727453656E7F
:104820006428292C2023310022756172745374612D
:10483000727453656E644922282900007561727490
:10484000537461727453656E644928292C20233196
:1048500000000000227561727453746F7053656EAE
:1048600064222829000000007561727453746F700F
:1048700053656E6428292C20233100002275617253
:104880007453746F7053656E6449222829000000C8
:104890007561727453746F7053656E644928292C66
:1048A00020233100227561727453746172745265F1
:1048B00063656976652228290000000075617274BD
:1048C00053746172745265636569766528292C207A
:1048D00023310000227561727453746172745265E1
:1048E0006365697665492228290000007561727444
:1048F0005374617274526563656976654928292C21
:1049000020233100227561727453746F7052656395
:1049100065697665222829007561727453746F7019
:104920005265636569766528292C202331000000D3
:10493000227561727453746F705265636569766530
:1049400049222829000000007561727453746F7049
:10495000526563656976654928292C20233100005A
:1049600022646D61416C6C6F63617465222829005B
:1049700022646D6152656C656173652228290000AF
:10498000646D6152656C6561736528292C20233143
:104990000000000000000000000000000000000017
:1049A000226932635F6C6C645F7365745F636C6F04
:1049B000636B2228290000006932635F6C6C645FBE
:1049C0007365745F636C6F636B28292C202331003F
:1049D0006932635F6C6C645F7365745F636C6F6393
:1049E0006B28292C202332006932635F6C6C645F72
:1049F0007365745F636C6F636B28292C202333000D
:104A00006932635F6C6C645F7365745F636C6F6362
:104A10006B28292C202334006932635F6C6C645F3F
:104A20007365745F636C6F636B28292C20233500DA
:104A30006932635F6C6C645F7365745F636C6F6332
:104A40006B28292C202336006932635F6C6C645F0D
:104A50007365745F636C6F636B28292C20233700A8
:104A60006932635F6C6C645F7365745F636C6F6302
:104A70006B28292C202338006932635F6C6C645FDB
:104A8000737461727428292C202331006932635FAA
:104A90006C6C645F737461727428292C202332005B
:104AA000226932635F6C6C645F6D61737465725F01
:104AB000726563656976655F74696D656F7574228B
:104AC00028290000226932635F6C6C645F6D61733A
:104AD0007465725F7472616E736D69745F74696D11
:104AE000656F757422282900000000000000000096
:104AF000690000000000000000000000000000004D
:104B00006500000000000000000000000000000040
:104B10006C640000000000000000000000000000C5
:104B200065610000000000000000000000000000BF
:104B3000080002400400024000000B001C0002407C
:104B40000400024004010C00300002400400024056
:104B500008020D0044000240040002400C030E0055
:104B6000580002400400024010040F006C00024094
:104B700004000240140510008000024004000240BE
:104B800018061100000000000000000000000000F6
:104B900004020408080003070808080808080808B1
:104BA0000B0F0000000000000000000000000000EB
:104BB000FFFFFFFF844B888888888888FFFFFFFFFE
:104BC000888888888888B8B4FFFFFFFF8888844475
:104BD00088338388FFFFFFFF448888888888888817
:104BE000FFFFFFFF88888888888888880000000089
:104BF00001000000A086010001000000000000008C
:104C000007000000114000080700000011400008E4
:104C10000000000000000000000000000000000094
:104C20000000000000000000000000000000000084
:104C30000000000000000000000000000000000074
:104C400007000000A140000807000000A140000884
:104C50000000000000000000000000000000000054
:104C60000000000000000000000000000000000044
:104C70000000000000000000000000000000000034
:104C80000000000000000000000000000000000024
:104C900000000000000000001100000011000000F2
:044CA000050000000B
:04000005080000F0FF
:00000001FF
