:020000040800F2
:100000000004002011010008E1020008E1020008DC
:10001000E1020008E1020008E1020008E102000834
:10002000E1020008E1020008E102000811030008F3
:10003000E1020008E1020008E1020008E103000813
:10004000E1020008E1020008E1020008E102000804
:10005000E1020008E1020008E1020008E1020008F4
:10006000E1020008E1020008E10200085116000860
:1000700081160008B1160008F116000831170008B3
:1000800071170008B1170008E102000831250008C7
:1000900041280008E1020008E1020008E10200082E
:1000A000E1020008E1020008E1020008E1020008A4
:1000B000E1020008E1020008E1020008C11B00089B
:1000C000D11D0008E1020008E1020008E102000879
:1000D000E1020008E1020008E1020008E102000874
:0C00E000E1020008E1020008E102000853
:1000F000704700BFAFF30080AFF30080AFF3008024
:10010000FEE700BFAFF30080AFF30080AFF30080E5
:1001100072B6634880F30988022383F31488BFF31F
:100120006F8F604A604CA24217D213464FF0553190
:10013000D64343F8041BA519A342C5F380050CD28E
:1001400025B1196002F10803A34206D21A4642F80B
:10015000041B5960131DA342F8D3544A824217D29C
:1001600013464FF05531D54343F8041B44198342DD
:10017000C4F380040CD224B1196002F10803834255
:1001800006D21E4646F8041B5960331D8342F8D33D
:1001900002F01EFD464C4749A14222D246480B467A
:1001A000024652F8046BCD4343F8046B04EB050C94
:1001B000A342CCF3800514D23DB1166800F10802C9
:1001C0001E6001F10803A3420BD2104650F8045BF5
:1001D000194641F8045B5668021D5E600B1DA34280
:1001E000F3D3364A3648824217D200211346D4430D
:1001F00043F8041B00EB040E8342CEF380040CD2C0
:1002000024B1196002F10803834206D21A4642F86B
:10021000041B5960131D8342F8D32A4D2A4EFFF761
:1002200067FFB54219D22C4654F8043BE9437718CE
:100230009847B442C7F380070FD22FB1236805F166
:1002400008049847B44208D2254655F8042B904735
:1002500060682C1D8047B442F6D31C4D1C4E02F042
:10026000C7FCB5421AD22C46EF4354F8043B06EBC8
:10027000070CCCF380079847B4420FD22FB1226805
:1002800005F108049047B44208D2254655F8040BFE
:10029000804761682C1D8847B442F6D3FFF730BF12
:1002A00000080020000000200004002000040020BE
:1002B00000080020000800209036000800080020F8
:1002C000D8130020EC000008EC000008EC00000847
:1002D000EC000008AFF30080AFF30080AFF30080C4
:1002E000FEE700BFAFF30080AFF30080AFF3008004
:1002F00072B6FEE7AFF30080AFF30080AFF300808B
:1003000000F08EF900F0F4FB00F0AAF900DF00BF66
:10031000EFF30983203383F30988002383F31188E3
:10032000704700BFAFF30080AFF30080AFF30080F1
:100330000A4B002210B59A60094A07201021DA60A2
:1003400000F0C6F80A204FF4007100F0C1F80B204D
:100350008021BDE8104000F0BBB800BF00ED00E018
:100360000000FA05AFF30080AFF30080AFF3008028
:10037000202383F311881648436813F4006316D0D2
:10038000EFF30983203B83F30988124A4FF0807012
:100390009169D86171B11068D2698168926891429F
:1003A00094BF002201227AB10B499961704783F30F
:1003B000118870471068D26981689268914234BF91
:1003C00000220122002AEFD1044A9A61704700BF3F
:1003D00000ED00E0340D0020010300080C030008CC
:1003E00010B500F09DF9202383F3118800F058F92F
:1003F00000F0CEF800F074F9002383F3118800F0C8
:10040000AFF9BDE81040FFF7B3BF00BFAFF3008006
:100410002DE9F04FC1F80CD0D0F80CD0BDE8F08F2A
:1004200008B500F01DF9002383F311882846A04782
:1004300000F07EFC08BD00BFAFF30080AFF300808A
:10044000F0B400F00307FE00FF2313FA06F200F0F9
:100450001F04B1400125A5408608094CC03654F858
:100460002670400927EA020242EA010300F1600710
:1004700044F8263044F8275044F82050F0BC704728
:1004800000E100E0AFF30080AFF30080AFF3008045
:1004900010B400F01F020124944000F00301CA00D0
:1004A000FF2313FA02F24109064B2031800843F87A
:1004B0002140C03053F8201021EA020243F82020E6
:1004C00010BC704700E100E0AFF30080AFF30080A4
:1004D00000F0030210B4FF23D40013FA04F2A14089
:1004E0008008064C063054F8203023EA020242EA23
:1004F000010344F8203010BC704700BF00ED00E05D
:100500000248034AC3699A61FEE700BF340D002028
:1005100050300008AFF30080AFF30080AFF30080ED
:1005200030B583B0FFF704FF00F012FA00F0A8F92D
:1005300000F006FD00F04CFD00F062F940210E488D
:1005400000F0FEFA0D4D0E490124E86180F82040CC
:10055000C16100F04DF8002383F3118862B6EA69A7
:100560001D46084BC021936107482246074B009562
:1005700000F056FB03B030BD00080020340D002011
:100580000004002058300008500800200105000831
:1005900070B500F005F9114B9A69002A01DD013AA6
:1005A0009A61DA690E4C516A2368481C5062E1680E
:1005B000481CA342E0600FD09D68013D9D605DB97D
:1005C00026461968DA681869DD604E602160904738
:1005D000236898680028F4D070BD00BF340D002057
:1005E000240D0020AFF30080AFF30080AFF3008054
:1005F0000548036813B9054A116821B10448054B41
:100600001860FFF775BE7047100900201C0D002010
:1006100070300008200D0020AFF30080AFF30080A1
:10062000084810B5036853B9074C216821B1074A3F
:10063000074B1A60FFF75CFE0120206010BD024CE2
:10064000F5E700BF100900201C0D002078300008DD
:10065000200D0020AFF30080AFF30080AFF30080E7
:10066000094810B5036833B9084C2168002903DD37
:100670000020206010BD054C054A064B1A60FFF7AC
:1006800037FE0020206010BD100900201C0D002046
:1006900080300008200D0020AFF30080AFF3008011
:1006A000084810B50368002B0ADD074C216821B10A
:1006B000064A074B1A60FFF71BFE0120206010BDA1
:1006C000014CF5E7100900201C0D002088300008BF
:1006D000200D0020AFF30080AFF30080AFF3008067
:1006E0000A4810B50368002B06DD094C2168002973
:1006F00003DD0020206010BD054C064A064B1A6041
:10070000FFF7F6FD0020206010BD00BF100900209B
:100710001C0D002090300008200D0020AFF3008059
:1007200010B5202383F31188094C2368002B02DBCA
:10073000084802682AB1084B08491960FFF7D8FD3C
:1007400023685A1C2260002383F3118810BD00BF68
:10075000100900201C0D0020200D002098300008FA
:1007600010B5202383F31188094C2368002B02DD88
:10077000084802682AB1084B08491960FFF7B8FD1C
:1007800023685A1E2260002383F3118810BD00BF26
:10079000100900201C0D0020200D0020A0300008B2
:1007A00006480368002B04DB054A1168002900DDB8
:1007B00070470448044B1860FFF79ABD10090020E9
:1007C0001C0D0020A8300008200D0020AFF3008091
:1007D0000648036823B9064A1168002900DD7047FE
:1007E0000448054B1860FFF783BD00BF10090020C7
:1007F0001C0D0020B0300008200D0020AFF3008059
:10080000034A4021134643F8081B5360704700BF5A
:1008100014090020AFF30080AFF30080AFF3008035
:1008200010B40D4A0D4C0E495368E468C9691C6048
:100830005960846A03F110019C6090F8204002F531
:10084000816081421C7328BF02F10803516028BFF8
:10085000536010BC704700BF14090020240D002015
:10086000340D0020AFF30080AFF30080AFF30080C1
:10087000014B1860FFF73CBD200D0020AFF3008056
:10088000044B4FF0FF3000225B601B609860DA6021
:10089000704700BF240D0020AFF30080AFF300804D
:1008A000F8B504460D4616461F46FFF779FFCCB152
:1008B000C6B1BDB10D4927610B68E6609A689542E3
:1008C00004D91B68AD1A9A68AA42FAD35A688B42B7
:1008D0002360626014605C60A56002D09868451B6C
:1008E0009D60F8BD0248FFF7C3FFE3E7240D002039
:1008F000C0300008AFF30080AFF30080AFF300809A
:1009000010B50446FFF74CFF84B1E36893B1236848
:100910000A4A934203D09968A26888189860606870
:10092000002203602368E260586010BD0448FFF7AE
:100930009FFFEAE70348FFF79BFFE8E7240D00204D
:10094000D0300008E0300008AFF30080AFF3008043
:10095000044B002014225B601B6098609A615B610D
:100960001B617047340D0020AFF30080AFF30080AF
:1009700010B590F8203004468BB10E2B0FD000221A
:10098000094BA16884F820201B6898688842FBD234
:100990005968236061600C605C60204610BD0348AC
:1009A000FFF766FFEBE700BF340D002000310008C1
:1009B00090F820300D2B11D8DFE803F01510100748
:1009C000100B101010101010100B816A8B685A1C3D
:1009D0008A60416803680B60026851604FF0FF3223
:1009E0008262FFF7C5BF7047AFF30080AFF30080AE
:1009F00070B5114C0646FFF7EBFEE569142085F84B
:100A00002060236801211A6883F82010A0615460D7
:100A100028462260E361FFF703FFEA69ADF1240392
:100A20009A4202D90548FFF723FFE0692946BDE84D
:100A30007040FFF7EDBC00BF340D002014310008FA
:100A400070B50E4686B00546FFF7C2FEB6F1FF3F11
:100A500012D00C4C3146E3690B4A01A8FFF720FF86
:100A60002846FFF7C5FF049B13B101A8FFF748FF15
:100A7000E069806A06B070BD2846FFF7B9FF014CF7
:100A8000F6E700BF340D0020B1090008AFF3008085
:100A900070B5154D04460E46FFF79AFEE869A26848
:100AA0008368A6629A4215D9FFF762FF01231422D8
:100AB000064684F82030AA61EC61FFF7B1FEF069C8
:100AC000ADF1240188420AD820463146BDE8704085
:100AD000FFF79EBC2046BDE87040FFF749BF0348C2
:100AE000FFF7C6FEF0E700BF340D00201431000808
:100AF00070B5104C01212368E5691A681420A061C3
:100B000083F82010546028462260E361FFF730FF2D
:100B10002846FFF785FEEA69ADF124039A4202D91F
:100B20000548FFF7A5FEE0692946BDE87040FFF7DC
:100B30006FBC00BF340D002014310008AFF30080FB
:100B4000F0B40022104C0125022380F8203080F8F8
:100B5000212080F82250656900F1300600F12C0C4C
:100B600000F14C0704618160456141646061026489
:100B7000C263426282612861C0F82CC0466306638A
:100B8000C761F0BC704700BF340D0020AFF3008098
:100B9000F8B504460D4616461F46FFF701FE0CB198
:100BA000AF2D2BD81848FFF763FE243D6119E16093
:100BB0006751069D15484D600023154A02270125FF
:100BC000086284F8207084F8225084F8213050693B
:100BD00004F1300104F12C0704F14C05226160613D
:100BE000A6606664546123640461E3636362A36185
:100BF000E76261632163E5612046F8BD7F2ED1D8AD
:100C0000002FD2D1CEE700BF303100082104000808
:100C1000340D0020AFF30080AFF30080AFF300800D
:100C2000F0B504460D461F4683B016464C302346A9
:100C3000FF211A4602F8011B5970531C8342F8D158
:100C40006019834215D25521DA4303F8011B00EBEA
:100C5000020C83420CF001020BD01AB103F8011B05
:100C6000834206D01A4602F8011B5970531C834276
:100C7000F8D1202383F31188FFF7D2FC2046089C8B
:100C80003B46324629460094FFF782FF0021044686
:100C9000FFF7FEFEFFF7E4FC002383F311882046F4
:100CA00003B0F0BDAFF30080AFF30080AFF300807E
:100CB00010B5044610B90948FFF7DAFD202383F385
:100CC0001188FFF7ADFC21460620FFF7B9FEFFF7BC
:100CD000C7FC002383F3118810BD00BF70310008EA
:100CE000114B70B5DC69254655F82C3FA062AB422C
:100CF00007D01A681846E262FFF73AFEE36AAB4291
:100D0000F7D194F8210010F0030F04D16369226930
:100D10001A6121694B610E20FFF76AFE0348BDE8A6
:100D20007040FFF7A5BD00BF340D002080310008E2
:100D300010B52023044683F31188FFF771FC204689
:100D4000BDE81040FFF7CCBFAFF30080AFF30080E9
:100D500010B5044620B1002364602460A36010BD78
:100D60000348FFF785FD002364602460A36010BD85
:100D7000D0310008AFF30080AFF30080AFF3008004
:100D80003B4B2DE9F0410546DC69FFF721FD002DC5
:100D90006AD0A868002836D0A2688168914208D23B
:100DA00090F820308260042B46D0052B31D0002BE8
:100DB0001ED02B461B689D4203D09868A1688842CC
:100DC000F8D25A682360626004205C601460A562F7
:100DD000FFF70EFEAB68A34202D02648FFF748FD9E
:100DE000206CA84213D02448BDE8F041FFF740BD75
:100DF0004368026801211A60026880F8201053607D
:100E0000FFF7B6FDD5E7216CAC60E9602564BDE86D
:100E1000F08141680768866A0F6007683346796029
:100E20001B689E4202D099689142F9D25A680360C9
:100E3000426010605860BCE741680768866A0F60CE
:100E40000768334679601B689E4202D099689142D8
:100E5000F9D25A680360426010605860B068A268B6
:100E6000836893429CD3A4E70448FFF701FD90E711
:100E7000340D0020F031000804320008E031000891
:100E800010B52023044683F31188FFF7C9FB2046E1
:100E9000FFF776FFFFF7E4FB002383F3118810BD13
:100EA000214A70B52023D56983F31188FFF7B8FB79
:100EB0002C6C002C33D0A368AB4203D01B48FFF747
:100EC000D7FC2C6C2368E268A3422A641ED0686CAD
:100ED0004AB11168914203D08968884238BF0846F8
:100EE000D268002AF5D11A681E6CA8600021226021
:100EF00018465460A360E6601C64FFF7C9FDFFF765
:100F0000AFFB002383F31188204670BD0020A06052
:100F1000FFF7A6FB002383F31188204670BD044829
:100F2000FFF7A6FC2C6CC6E7340D00204032000809
:100F30002C320008AFF30080AFF30080AFF30080E5
:100F4000054B064A064823F00701064B116020F0C6
:100F500007021A60704700BFDF130020580D002001
:100F600000500020540D0020AFF30080AFF300804C
:100F700010B50446FFF714FC074A084913680968CE
:100F8000E01D20F00700C91A884203D81818106025
:100F9000184610BD002010BD580D0020540D002033
:100FA00010B52023044683F31188FFF739FB204650
:100FB000FFF7DEFF0446FFF753FB002383F311889E
:100FC000204610BDAFF30080AFF30080AFF3008088
:100FD000044B0549002203F1100019609A60DA60A1
:100FE000FFF7B6BE600D0020A10F0008AFF3008030
:100FF00010B500F0ADFC00F003FB064801F0B8F9B5
:1010000000F00EF800F0B4F800F01AFBBDE8104054
:1010100001F0E6BDF0350008AFF30080AFF30080CB
:1010200000F086BFAFF30080AFF30080AFF3008025
:1010300001210023017043600C30FFF789BE00BF1F
:1010400038B504460D46D8B1D1B12378581EC2B286
:10105000012A04D9052B02D00B48FFF709FC2023F5
:1010600083F31188FFF7DCFA2046656000F078FF13
:1010700002232370FFF7F4FA002383F3118838BDAD
:101080000248FFF7F5FBE0E79032000880320008E5
:1010900010B50446C8B12378581EC2B2012A04D93B
:1010A000052B02D00B48FFF7E3FB202383F31188C5
:1010B000FFF7B6FA204601F0BBF801232370FFF7D3
:1010C000CFFA002383F3118810BD0348FFF7D0FB4C
:1010D000E1E700BFAC320008A0320008AFF30080A7
:1010E000F0B51D4685B004460F461646202383F30F
:1010F0001188FFF795FA0023A36023702B460A9D01
:10110000204600950B9D394601950C9D324602956F
:1011100001F0B6F8B0F1FF3F054609D00221217079
:10112000FFF79EFA002383F31188284605B0F0BD2F
:1011300005202070F4E700BFAFF30080AFF300801C
:1011400010B590F84210044680F84A1001F008FAF1
:1011500063681B6813B12046012198470320207063
:1011600010BD00BFAFF30080AFF30080AFF300808D
:1011700001F0EEB9AFF30080AFF30080AFF3008071
:10118000002301220270436083608381C381704722
:1011900010B4002202240470A0F8482080F84A20ED
:1011A00080F84B208281C281026142618261C2610A
:1011B000026242628262C26280F8302010BC01F09A
:1011C0005FBA00BFAFF30080AFF30080AFF30080E1
:1011D00000222DE9F041044680F8302000F1400261
:1011E00001F08EFA63689B68002B1FD02046984759
:1011F000E0B1A56B94F84030B4F84600A8423CBF7B
:10120000A063054613F0800F7BD1002D6AD1042026
:1012100084F83000294620462A462B4601F058FC27
:1012200020462946BDE8F04101F072BC94F84030F8
:1012300013F060061A4612D00021204601F088FC07
:101240002046002101F074FC6268136813B1204647
:1012500005219847052384F83030BDE8F08194F8E3
:10126000417003F07F0141EA0727B7F5407F00F0A6
:10127000A98016DDB7F5C06F00F0CE8060DDB7F550
:10128000106F00F0B68040F6024C67456BD0B7F5A2
:10129000006FD1D1012504F14B006063A563E663C3
:1012A000AAE7022F77D059DDB7F5807F62D0B7F576
:1012B000817FC1D194F842000028BDD194F8443018
:1012C00013F00F0108D013F0800F40F0E0802046AB
:1012D00001F04EFC94F8402000256563A563E563AA
:1012E000134689E70323002184F830302046626BDF
:1012F0002B4601F0D5FB20460021BDE8F04101F06E
:10130000F7BB75B10122002184F830202046626BC2
:101310002B4601F0DDFB20460021BDE8F04101F045
:10132000F7BB022184F83010204629462A462B4676
:1013300001F0B6FB20462946BDE8F04101F0D8BBDC
:1013400040F2023087427CD0B7F5A06F7FF474AFD3
:10135000554D6663E563A66335464DE7002F41D0E2
:10136000012F7FF469AF5149022500226163A56313
:10137000E26341E794F842E0BEF1010F7FF45CAF15
:10138000B4F84810666321F00205A4F84850A6633B
:10139000E663354630E794F8441011F0800F67D1CA
:1013A000204601F00F0101F08BF9012867D00228D7
:1013B0007FF442AF3E4BA0636363E66394F8403032
:1013C000054619E794F8420001287FF435AFB4F8D8
:1013D0004820666342F0020CA4F848C0A663E663A6
:1013E000354609E7022504F148026263A563E76315
:1013F00002E794F8425084F84B50002D35D1032376
:10140000237060680368002B3FF466AF204602211A
:10141000984794F840205FE7636820465D6894F839
:10142000431094F84220B4F84430A84700283FF411
:1014300003AF4168056894F840306163A563E663D3
:10144000DAE694F8421000297FF4F6AE94F84430BE
:1014500013F00F013FF440AF13F0800F1DD1204671
:1014600001F066FB94F8402036E704212170C8E7BC
:10147000204601F00F0101F033F9012897D10D4DFD
:10148000A7636563E66394F840303D46B4E62046C2
:1014900001F086FB94F840201EE7204601F058FB3F
:1014A00094F8402018E700BF41110008703300088D
:1014B0008033000890330008AFF30080AFF3008062
:1014C00090F8303070B5012B044619D0042B10D0A1
:1014D000002101F03DFB0021204601F029FB61685D
:1014E0000B6813B1204605219847052284F8302067
:1014F00070BDC36B03B19847002384F8303070BDD2
:10150000836BB0F846209A4206D90269118AB3FB70
:10151000F1F501FB153575B1002102200A460B4695
:1015200084F83000204601F0BBFA20460021BDE8D7
:10153000704001F0DDBA29462A462B4601F0C8FA70
:1015400020462946BDE8704001F0E2BAAFF30080C2
:1015500090F8303070B5022B044621D0032B11D007
:101560000021204601F0F4FA2046002101F0E0FAC3
:1015700063681B6813B1204605219847052184F84C
:10158000301070BD002104250A460B4680F830500B
:1015900001F09EFA20460021BDE8704001F0B8BA83
:1015A00002699169CB68002BDAD1C36B03B198470C
:1015B000002084F8300070BDAFF30080AFF30080EE
:1015C00001494B6883607047001000E0AFF3008072
:1015D000084B09495A6883680968D31AC2685B1ABC
:1015E0009342836004D80269934238BF0361704715
:1015F000C3607047001000E0800D0020AFF3008052
:1016000010B50B4A86B00B490B4C002301A8019280
:101610004FF0FF3223600393049302910592FFF78A
:10162000CFFF01A802998847039B236006B010BD35
:10163000C1150008D1150008800D0020AFF300800F
:10164000704700BFAFF30080AFF30080AFF30080BE
:1016500010B5FFF765F80848084A03680F241168B9
:10166000546013B1406821409847FFF779F8BDE80E
:101670001040FEF77DBE00BF840D00200000024038
:1016800010B5FFF74DF80848084A8368F024116840
:1016900054601BB1C068C1F303119847FFF760F8AD
:1016A000BDE81040FEF764BE840D0020000002403B
:1016B00010B5FFF735F80948094A03694FF470641B
:1016C000116854601BB14069C1F303219847FFF7CB
:1016D00047F8BDE81040FEF74BBE00BF840D002068
:1016E00000000240AFF30080AFF30080AFF3008052
:1016F00010B5FFF715F80948094A83694FF470449B
:10170000116854601BB1C069C1F303319847FFF7FA
:1017100027F8BDE81040FEF72BBE00BF840D002067
:1017200000000240AFF30080AFF30080AFF3008011
:1017300010B5FEF7F5FF0948094A036A4FF4702413
:10174000116854601BB1406AC1F303419847FFF729
:1017500007F8BDE81040FEF70BBE00BF840D002067
:1017600000000240AFF30080AFF30080AFF30080D1
:1017700010B5FEF7D5FF0948094A836A4FF4700493
:10178000116854601BB1C06AC1F303519847FEF75A
:10179000E7FFBDE81040FEF7EBBD00BF840D002061
:1017A00000000240AFF30080AFF30080AFF3008091
:1017B00010B5FEF7B5FF0948094A036B4FF0706496
:1017C000116854601BB1406BC1F303619847FEF789
:1017D000C7FFBDE81040FEF7CBBD00BF840D002061
:1017E00000000240AFF30080AFF30080AFF3008051
:1017F000124BF0B4D3F800C0DF689E695D6A1C6BC1
:10180000D86B996C0023CCF800300D4ADFF838C053
:101810003B601360336093602B60136123609361BE
:101820000360136293621363CCF800300B60054BC6
:101830004FF0FF325A60F0BC704700BFE033000841
:10184000840D002000000240BC0D0020AFF300809A
:10185000F0B5044685B0002833D0667A012505FA34
:1018600006FC1D4F38681CEA000F26D11B4D4CEAC0
:10187000000010F07F0F05EBC60C45F83620CCF8C1
:101880000430386004D0164B5F6947F001065E6192
:10189000236860681F6827F001051D60267A0F27FE
:1018A00017FA06F6002506601D6042B1A07A09010C
:1018B000FEF7C6FD284605B0F0BD2846FBE71046FA
:1018C000F9E70848039102920193FEF7D1FF019BCB
:1018D000029A0399C1E700BFBC0D0020840D0020CF
:1018E00000100240A0330008AFF30080AFF3008087
:1018F00038B50446F8B1617A012010FA01F2104DB2
:101900002B681A4213D0A07AFEF7C2FD617A012239
:1019100012FA01F3286820EA030212F07F0F2A600E
:1019200004D1084B596921F00100586138BD0648BF
:10193000FEF79EFFE7E70548FEF79AFFDBE700BFEB
:10194000BC0D002000100240C0330008B033000876
:10195000224B00224FF0FF3030B421491C6900F5C2
:101960000C3C18611A61DD68D8600CF52070DA60F3
:101970001C4C486007208A600860E1681A4841F002
:101980008071E1600468194944F001040460D86979
:1019900040F08050D861D86940F00060D861086894
:1019A00040F480700860186A00F44071B1F5407F1F
:1019B00003D04FF4803119621A62084B1A6A12F48C
:1019C000004F07D1186A40F440721A62196A41F454
:1019D0000040186230BCFFF70BBF00BF0010024090
:1019E00010E000E0F0ED00E0001000E000700040CA
:1019F0001F4B1868194640F001021A600B681C4A18
:101A000013F0020FFAD01368002003F0F9011160FF
:101A1000114650604868164A10F00C0FFAD1106851
:101A2000114640F4803313600B68114A13F4003FF1
:101A3000FAD05368114643F4E8105060136843F03D
:101A40008070106008680A4A10F0007FFAD00948D8
:101A5000094B1221506019605068114640F0020392
:101A600053604A6802F00C0CBCF1080FF9D17047C2
:101A70000010024000641D0000200240AFF300800F
:101A8000C26A036B30B40021146848F200051D805F
:101A900019809980998223680F2123F00103236024
:101AA000147A836A11FA04F450681A68046014689E
:101AB000586824F0010414601B7A9940016030BC1E
:101AC000704700BFAFF30080AFF30080AFF300803A
:101AD00070B5C46905465CB1FFF7D2FF0020E8612C
:101AE0004FF0FF332046A362BDE87040FEF740BFD1
:101AF00070BD00BFAFF30080AFF30080AFF3008094
:101B000011F0080F38B50546046B01D0FEF7F0FB65
:101B1000EB6A1A685968106820F0010010601B7A9F
:101B20000F2010FA03F20A60A18888B240F4007313
:101B3000A38038BDAFF30080AFF30080AFF3008027
:101B400011F0080F70B50446056B36D1A66A3268ED
:101B50007168106820F001031360307A0F2212FAC6
:101B600000F30B6094F8346006B170BDB5F804E082
:101B700020232EF480510804020CAA80B5F800C07E
:101B80002CF480610804020C2A8029881FFA81FE47
:101B90004EF4007CA5F800C083F31188FEF780FDA9
:101BA000E36923B1E66118469E62FEF7E1FEFEF7A7
:101BB00097FD002383F3118870BDFEF799FBC5E7FD
:101BC0002DE9F0417D4C7E4DFEF7AAFDA76895F802
:101BD00000C017F4804F4FF480424CF0010129708F
:101BE00014BF626122612C6B764A208BA68A744FE7
:101BF000B6B246EA004323F07F43934200F0908060
:101C000075D8501E83420CD16C4BB5F820E0986813
:101C10004FF4005110F4005F14BF59611961A4F82A
:101C200010E016F00A0F47D0644B95F800C0986892
:101C30004FF4805210F4805F4CF0040E85F800E001
:101C400014BF5A611A6195F834105D4B002932D0E7
:101C50009A6AD86A1168D2F804E0D1F800800F2798
:101C600028F0010CC1F800C092F80880026807FA59
:101C700008FCCEF800C0D2F80080D0F804C028F0EC
:101C8000010EC2F800E090F80880D3F838E007FAB7
:101C900008F8186CDF6B5B6CCCF80080C1F80CE0C6
:101CA0004F60D06053600B6843F001000860136818
:101CB00043F001011160238B16F0100F11D0238B1C
:101CC000A0882A7881B241F4007CA4F804C0B4F85A
:101CD00000E042F008001FFA8EF343F480612870A0
:101CE0002180FEF73DFDBDE8F041FEF741BB364ADD
:101CF000934235D00232934293D1BB6A1968D1F82E
:101D00000480B8F1000F39D02188B7F820C088B21C
:101D10004CF0010240F4A06E3A84A4F800E0E0E741
:101D2000B4F804C0B96A2CF4007210040968030CFA
:101D3000A3800A6842F001000860A3881FFA83FEAE
:101D40004EF4805CA4F804C04A68012A3FF669AFEB
:101D5000B4F800E02EF480610804030C238060E7EF
:101D6000B4F804C0FA6A2CF4007003041268190C69
:101D7000A180106840F00103136052E7B4F804C07A
:101D800020232CF400700204110CA180208882B260
:101D900042F4007EA4F800E083F31188FEF780FC93
:101DA000F86928B1C0F82880C7F81C80FEF7E0FD6C
:101DB000FEF796FC002383F3118832E7000C014004
:101DC000C00D00200200030082000700AFF3008076
:101DD0002DE9F041554DFEF7A3FC2C6B202383F336
:101DE0001188FEF75DFCEA6AAB6A106856680768FE
:101DF0000F2127F001070760107A1A6811FA00F026
:101E000030601668586826F0010616601A7A91400C
:101E10000160FEF765FC002383F31188A38A13F4A5
:101E2000807307D0B4F814C001232CF4807002042E
:101E3000110CA182B4F814E01EF4007F08D0B4F8AD
:101E400014C043F002032CF400700204110CA182B0
:101E5000B4F814E01EF4806F14D0B4F814E043F02A
:101E600004032EF480600204110CA182B4F804C0B3
:101E70002CF400700204110CA180208882B242F47C
:101E800000712180B4F814C01CF4006F08D0B4F8BD
:101E900014E043F008032EF400600204110CA18248
:101EA000B4F814C01CF4805F08D0B4F814E043F018
:101EB00010032EF480500204110CA182B4F814C057
:101EC0001CF4804F08D0B4F814E043F020032EF443
:101ED00080400204110CA182A18A0FFA81FCBCF19E
:101EE000000F06DB5BB9FEF73BFCBDE8F041FEF7F7
:101EF0003FBAA18A43F040034804420CA282AB607F
:101F0000202383F31188FEF7CBFBE86938B1074B38
:101F10006FF0010100228162DA61FEF729FDFEF710
:101F2000DFFB002383F31188DDE700BFC00D002035
:101F300010B5074C2046FFF77BF8064B0649A3F186
:101F40000C020020E0612163A362E26210BD00BFC9
:101F5000C00D00202834000800540040AFF300807A
:101F600002788A23012A2DE9F04104464362056B79
:101F700000F0A1802F464FF09A089C466068E26A04
:101F8000A66A13683168466805F11002C3F800803C
:101F900090F80880C1F800C000208A6048F2000C68
:101FA0004FF41061002E9A60A5F800C02880A98027
:101FB00052DD8B4B9E424FDCB7F804C02CF03F0043
:101FC00001040B0CBB80BA88864990B240F0240C07
:101FD0008E42A7F804C043DCB8F1010F02D082485A
:101FE000FEF746FC8148760090FBF6F106FB01F80F
:101FF0007E4BC8EB0302002A40F0A5807B4A92FB8F
:10200000F6F6B6B2032E40F2948025214FEA065C24
:10201000B6F5805F39844FEA1C5802D37448FEF746
:1020200027FC6268216B1278A7F81C80B1F800C009
:10203000022A1FFA8CF32DD0032A70D0012A03D173
:1020400023F00A0003041B0C0B80288883B243F0A2
:1020500001012980BDE8F0816648FEF709FCABE785
:102060006548864224DCA8F10203DAB2012A75D958
:102070006248FEF7FDFB48F6FF7862680B20216B93
:1020800038841278A7F81C80B1F800C0022A1FFA21
:102090008CF3D1D143F002024FF6F77C02EA0C0335
:1020A0000B80288883B243F001012980BDE8F081CC
:1020B0004FF00008B5E7524EB0427FF45BAF514F8E
:1020C0004FF0000E3B69806A43F40018C7F8108097
:1020D0000A214D4A2346C7F810E0FFF7B9FB002854
:1020E00076D1F06A0A21494A454BFFF7B1FB002837
:1020F0006AD1444F1F20FB69A02143F40012FA610A
:10210000FEF79EF92020A021FEF79AF9706A376B3E
:1021100040F4805CC6F824C04CF010082EE743F071
:102120000A030B80288883B243F001012980BDE8AF
:10213000F0813748FEF79CFB4FEA065825234FEA0B
:1021400018583B846DE73348FEF792FB274A92FB11
:10215000F6F6B6B2032E3FF658AFEAE7B8F1020F33
:1021600016D1224A06EB460692FBF6FC06FB0CF85B
:102170001E48C8EB000139B91C4890FBF6F6310542
:102180000B0D43F4004878E72348FEF771FBF3E7B3
:10219000B8F1030F20D106EB8606144906EB86063C
:1021A00091FBF6FC06FB0CF8104BC8EB03023AB9A6
:1021B0000E4991FBF6F31A05100D40F440485CE718
:1021C0001648FEF755FBF3E71548FEF751FB90E77D
:1021D0001448FEF74DFB84E748F6FF784DE700BF53
:1021E00000093D00A086010080340008005125024E
:1021F0001035000868340008801A0600C83400084A
:10220000C00D002000100240411B0008011B000807
:10221000B034000898340008E0340008F8340008AE
:102220005434000840340008AFF30080AFF300805E
:10223000037810B5012B04460AD0FFF721FCE06AB1
:10224000FFF756FBA06AFFF753FB0848844200D013
:1022500010BD1F20FEF71CF92020FEF719F90449D4
:10226000CB6923F40012CA61F2E700BFC00D002061
:1022700000100240AFF30080AFF30080AFF30080A6
:102280002DE9F047364E86B0109DF469B5F1FF3F59
:10229000C46106460F4690469946046B05D001A8D6
:1022A0002946304A3346FEF7FBFAFEF7D9F90023F8
:1022B00083F3118804E0FEF7D3F9002383F3118838
:1022C000228B202312F0020F04D1B4F800A01AF4DC
:1022D000007A0ED083F31188FEF7A2F9B5F1FF3F23
:1022E000E9D0049B002BE6D14FF0FF3006B0BDE8EB
:1022F000F08783F31188FEF793F9012186F83410F3
:10230000B4F800C07F002CF4807318040E9A0F9963
:10231000030C07F0FE0C326471643784C6F808A021
:10232000C6F83880C6F83C902380A4F808C0A0887E
:10233000B5F1FF3F82B242F42063A380B4F800C03D
:102340001FFA8CF141F48060208007D004980028A7
:10235000CCD001A8FEF7D4FA5046C7E75046C5E7EF
:10236000340D0020D11A0008AFF30080AFF30080D5
:10237000154B30B49A69154D42F07D049C6101689B
:10238000134CE960826813496A604368124A2B6003
:10239000C568124BE560456965600569256084691B
:1023A000CC60046A4C60C4690C60416AD160C16A47
:1023B0005160816A1160026BDA60816B5960426B17
:1023C0001A6030BC704700BF001002400008014096
:1023D000000C0140001001400014014000180140B1
:1023E000032AF0B400F09A80042A08BF41614C4BE4
:1023F00011F080079B5C40F088800F2411F40045A9
:1024000040F089800F264A002401360139012D0150
:1024100012F0800F14BF194344F00F0412F4004F60
:1024200014BF1D4346F00F06520024013601090176
:102430002D0112F0800F14BF194344F00F0412F461
:10244000004F14BF1D4346F00F0652002401360111
:1024500009012D0112F0800F14BF194344F00F043D
:1024600012F4004F14BF1D4346F00F065200240122
:10247000360109012D0112F0800F14BF194344F0F9
:102480000F0412F4004F14BF1D4346F00F06520014
:102490002401360109012D0112F0800F14BF1943E8
:1024A00044F00F0412F4004F14BF1D4346F00F0612
:1024B00052002401360109012D0112F0800F14BFD2
:1024C000194344F00F0412F4004F14BF1D4346F0AB
:1024D0000F0652002401360109012D0112F0800F70
:1024E00014BF194344F00F0412F4004F18BF1D43EA
:1024F000436808BF46F00F061E403543456002683A
:10250000144021430160F0BC7047002411F40045E1
:102510001F463FF477AF1D46002674E7016166E76A
:1025200070350008AFF30080AFF30080AFF3008098
:1025300010B5FEF7F5F8FEF713F9BDE81040FDF70A
:1025400017BF00BFAFF30080AFF30080AFF3008090
:102550000148FEF715BE00BF080E0020AFF3008053
:1025600090F84A00024B40F08002DA64704700BFE6
:10257000005C0040AFF30080AFF30080AFF3008059
:102580000A1D2DE9F04150F822400546226802F06C
:102590000303013B022B96BF36484FF4007330F81B
:1025A0001330A06808B143F02003E66866B112F06A
:1025B000100F55D0012010FA01F2B5F80E8043F447
:1025C000405342EA0807EF8143EA010C2A4F2CF4FA
:1025D000F04626F0700047F8210047F6700857F8DB
:1025E000212003EA080C638A8CEA02063E2B47F896
:1025F00021602BD95F1E47F01F06701C42116FEA45
:10260000C2676FEA57421C4ED5F84C80306DB4F863
:1026100010C000F1005707F5405606EBC1000CEB67
:10262000080647000021B6F5007FB980BA81EE6444
:1026300019D89B19B3F5007FC7F80080EB6402D965
:102640000E48FEF715F9BE60BDE8F0815A1E42F053
:1026500001077E1C06EBD670420202F47C42D2E7F0
:1026600043F40053B0E70548FEF702F9638AEE6CC5
:10267000DFE700BF90350008005C0040C03500086F
:10268000416830B40A4BCD6800241C65A54214BFD4
:102690004FF41E454FF41C455C6421468024DC64E5
:1026A0001D64044B4022C264036130BCFFF768BF65
:1026B000005C0040D0350008AFF30080AFF300802D
:1026C000054B53F8210010F4405004D0B0F5805F62
:1026D0000CBF012002207047005C0040AFF3008077
:1026E000054B53F8211001F03003102B9ABF034A19
:1026F000D05C0220704700BF005C0040A03500089D
:102700000F4B10B41C6D134604F1005000F5405CF3
:102710000CEBC1046100886800F1005C0CF54054CA
:1027200061008C465CF8044B888823F8024BBCF8A7
:1027300008105080BCF8042099805A8010BC704763
:10274000005C0040AFF30080AFF30080AFF3008087
:102750001B48F0B4006D00F1005000F5405C0CEB3C
:10276000C1014800816880898005800D834228BFAF
:10277000034601335B0820D001F1005101F54055BB
:1027800069005C1E51F8045B234622F8025B04F0EA
:10279000010493B12CB151F8044B013B22F8024BD8
:1027A0000BD00D4655F8047B4E68144624F8027B86
:1027B000291D5680A21C023BF3D1F0BC704700BF1C
:1027C000005C0040AFF30080AFF30080AFF3008007
:1027D000184870B4046D04F1005000F5405C0CEB37
:1027E000C104591C600049080468838020D004F1AA
:1027F000005C01390CF5405332F8020B5C000B46CB
:1028000044F8040B01F0010193B129B132F8021B25
:10281000013B44F8041B0BD0104630F8026B55887E
:10282000214641F8046B821C65600C1D023BF3D10C
:1028300070BC7047005C0040AFF30080AFF30080D5
:102840002DE9F04F81B0FDF76BFF904B5C6C14F4F9
:10285000806F40F00C8114F4006F0ED08C488B4ACE
:102860004368116C1B6841F0080111640BB103212E
:102870009847864A6FF40060506414F4805F09D072
:10288000824A916C11F4004F00F0E4807F4A6FF4AB
:102890008050506414F4007F08D07D484368DB68A2
:1028A00003B1984779486FF40071416414F4004F04
:1028B00000F0A480DFF8D891744DCA4613E00120DF
:1028C00010FA04F1B9F80EE059F828302EEA010C9C
:1028D000A9F80EC0DA686E48214690476C6C14F473
:1028E000004F00F08B8004F00F0455F8246004F1D1
:1028F000040816F0800F59F828703AD055F82410C3
:1029000021F4F04C2CF0F00345F824303A6812F032
:10291000100F7AD12B6D796903F1005202F5405EF8
:102920000EEBC4004300B3F804C00A688868D1F80D
:1029300004E01FFA8CF3D218C018C3EB0E030A6030
:1029400088604B60002B60D0B7F810E05FFA84FB22
:102950004F485946734528BF7346FFF739FF55F86E
:102960002B2022F4F04020F0400C8CF0300145F890
:102970002B1016F4004FB1D055F8241016F4006F48
:1029800021F4784E2EF0700345F824304BD138688E
:1029900010F0100F93D1BB69E6B25A6831469B68BC
:1029A0003B48FFF7D5FEBB6955F826E01A885F68FB
:1029B000D968D3F808C02EF4904E2EF0700E013A6C
:1029C0003F1809188EF4405EC0EB0C0092B245F837
:1029D00026E05F60D96098601A80002A2AD055F8F6
:1029E000242022F4904121F0700C8CF4405045F8E2
:1029F00024006C6C14F4004F7FF475AFFDF7B0FE4B
:102A000001B0BDE8F04FFDF7B3BC012212FA04F0AB
:102A1000BAF80CC0BB682CEA0001AAF80C101C48DC
:102A200021469847A5E759F8283019485A682146A1
:102A3000904753E7012111FA04F0BAF80EC05AF892
:102A400028302CEA000EAAF80EE0DC681048314667
:102A5000A04743E70E48116C436821F008011B684A
:102A60001164002B3FF412AF042198470EE7084D84
:102A70002846FEF78DFB6868036813B128460021DD
:102A8000984702496FF480624A64E4E6005C0040C3
:102A9000080E0020AFF30080AFF30080AFF300809A
:102AA000043150F821108869426000228360C260BE
:102AB0003BB14A8A511EC918B1FBF2FCA0F800C014
:102AC0007047012303807047AFF30080AFF30080AD
:102AD00070B40D1D50F8254000266569248A6B608E
:102AE000A34228BF23462A60AE6070BCFFF770BEC9
:102AF000054B53F8212022F4904C2CF0700080F408
:102B0000405243F821207047005C0040AFF3008042
:102B1000054B53F8212022F4F04C2CF0400080F0BB
:102B2000300243F821207047005C0040AFF3008082
:102B3000054B53F8212022F4904C2CF0700080F4C7
:102B4000805243F821207047005C0040AFF30080C2
:102B5000054B53F8212022F4F04C2CF0400080F07B
:102B6000100243F821207047005C0040AFF3008062
:102B7000094B53F8210000F44052B2F5405F09D0F0
:102B800053F8212022F4F04020F0400C8CF4005245
:102B900043F82120704700BF005C0040AFF3008085
:102BA000084B53F8210000F03002302A09D053F8C6
:102BB000212022F4F04020F0400C8CF0200243F859
:102BC00021207047005C0040AFF30080AFF300802D
:102BD000FEF70EBFAFF30080AFF30080AFF30080CD
:102BE000704700BFAFF30080AFF30080AFF3008009
:102BF00010B582B0FEF7FCF902ACFDF791FC4E2057
:102C0000062324F8040D8DF8063000F0B1F92146B2
:102C1000084800F0B5F9074800F0D2F900F040F894
:102C200000F0BEF800F05CF94FF4FA70FEF740F8DF
:102C3000FAE700BFD0130020AFF30080AFF30080AD
:102C40000E480F4AC36970B50E4D0F4E0F4C9A6176
:102C50000520FEF72DF8A168A068C1F38032C0F30B
:102C6000C03342EA430C0A48A5F800C0FEF708F951
:102C700029883180FEF714F9EAE700BF340D0020FF
:102C80003036000830100020780E0020001001407F
:102C9000680E0020AFF30080AFF30080AFF3008038
:102CA00010B50E4C82B0022220464FF48041FFF74F
:102CB00097FB022220464FF40041FFF791FB0848A2
:102CC000FEF746F800244FF4D8714022054B064821
:102CD0000094FDF7A5FF02B010BD00BF0010014039
:102CE000680E0020412C0008800E0020AFF3008009
:102CF00010B50548FEF7C4F80448054C0388236066
:102D0000FEF7CEF8208810BD680E0020780E002057
:102D10007C0E0020AFF30080AFF30080AFF30080A3
:102D200016482DE9F843164AC369164D164C174E3E
:102D3000174F9A61A9464FF040080120FDF7B8FFF0
:102D40001448FEF79DF832682260FEF7A9F8236860
:102D500029688B42F1D013F0010FC9F8003009D077
:102D60000220386113F0020F14BFC7F81080C7F8B3
:102D70001480E2E702217961F4E700BF340D0020FE
:102D800040360008481000204410002000120020A7
:102D90000008014034100020AFF30080AFF3008042
:102DA00070B50F4C0225402682B065610622204690
:102DB00029466661FFF714FB294606222046FFF7E5
:102DC0000FFB0848FDF7C4FF00244FF4D8713246CA
:102DD000054B06480094FDF723FF02B070BD00BF0D
:102DE0000008014034100020212D00085010002060
:102DF00010B504460448FEF743F8044B1C60BDE8D8
:102E00001040FEF74DB800BF341000200012002023
:102E10002DE9F04F2748DFF8C090C369264ADFF854
:102E2000ACB0264F264E274C87B09A61CA464FF069
:102E300032080225A268A168A368C1F34031C3F338
:102E40008030830043EA410CC2F3003E4CEA0E009E
:102E5000C343C7F800801C48059300F0B1F8059AF9
:102E600002F0070120313170FFF742FFD7F800E090
:102E7000A9F800003178154A2B461548CDF800A076
:102E80000195CDF808E0FEF72BF938B90A20FDF7D7
:102E90000FFFBBF80000FFF7ABFFCBE70C48FEF7D6
:102EA000F7F84046FDF704FF09480A49FEF7C8F85D
:102EB000C0E700BF340D0020503600081412002077
:102EC0001C120020000C0140D0130020181200201A
:102ED000C00D0020603600081A120020AFF30080F9
:102EE00010B51A4C82B0022220464FF48051FFF7F1
:102EF00077FA204602224FF40051FFF771FA20467C
:102F000002224FF48041FFF76BFA20464021112244
:102F1000FFF766FA112280212046FFF761FA32207E
:102F2000FDF7C6FEFEF77CF809490A48FEF788F867
:102F30000948FDF70DFF00244FF4D8714022074BDC
:102F400007480094FDF76CFE02B010BD000C014074
:102F500060360008C00D002004120020112E000869
:102F600020120020AFF30080AFF30080AFF30080A9
:102F700000F03EB8AFF30080AFF30080AFF3008005
:102F800038B504460D4688B181B1202383F31188FA
:102F9000FDF746FB2046294600F03AF8022323704D
:102FA000FDF75EFB002383F3118838BD0148FDF770
:102FB0005FFCEAE770360008AFF30080AFF30080F3
:102FC00010B5044668B1202383F31188FDF728FB70
:102FD000204600F035F8FDF743FB002383F311880A
:102FE00010BD0248FDF744FCEDE700BF8036000845
:102FF000024B034A012018705A607047D01300201A
:1030000000300040AFF30080AFF30080AFF30080EA
:10301000436845F255501860B1F800C040F6FF72A1
:103020008978944538BF624659604AF6AA209A606A
:103030004CF6CC4218601A60704700BFAFF30080B6
:1030400043684AF6AA221A60704700BFAFF30080B7
:1030500069646C65000000006D61696E000000002D
:103060005356233100000000535623320000000065
:103070005356233300000000535623340000000051
:10308000535623350000000053562336000000003D
:103090005356233700000000535623380000000029
:1030A00053562339000000005356233130000000EE
:1030B00053562331310000000000000000000000E2
:1030C0002263685654536574492228290000000081
:1030D000226368565452657365744922282900009A
:1030E0006368565452657365744928292C2023312E
:1030F00000000000000000000000000000000000D0
:10310000636853636852656164794928292C2023D8
:1031100031000000737461636B206F766572666CBA
:103120006F770000000000000000000000000000B9
:103130002263685468644372656174654922282972
:10314000000000002263685468645365745072691B
:103150006F7269747922282900000000636854683E
:1031600064526573756D6528292C20233100000099
:10317000226368546864536C6565702228290000D6
:103180006368546864457869745328292C20233176
:103190000000000022636854686457616974222843
:1031A0002900000063685468645761697428292CF9
:1031B0002023310063685468645761697428292C9E
:1031C000202332000000000000000000000000008A
:1031D0002263684D7478496E6974222829000000C2
:1031E0002263684D74784C6F636B5322282900006A
:1031F00063684D74784C6F636B5328292C202331FE
:103200000000000063684D74784C6F636B5328298D
:103210002C202332000000002263684D7478547221
:10322000794C6F636B5322282900000063684D744A
:1032300078556E6C6F636B28292C202331000000B9
:1032400063684D7478556E6C6F636B28292C20234E
:103250003200000063684D7478556E6C6F636B5379
:1032600028292C202331000063684D7478556E6C3A
:103270006F636B5328292C202332000000000000CC
:10328000226932635374617274222829000000009D
:10329000693263537461727428292C202331000031
:1032A0002269326353746F70222829006932635394
:1032B000746F7028292C20233100000022693263AA
:1032C0004765744572726F727322282900000000EE
:1032D000226932634D61737465725472616E736DED
:1032E000697454696D656F757422282900000000A7
:1032F0006932634D61737465725472616E736D6986
:103300007454696D656F757428292C202331000071
:10331000226932634D6173746572526563656976C3
:103320006554696D656F7574222829006932634D93
:1033300061737465725265636569766528292C200E
:1033400023310000226932634163717569726542FD
:1033500075732228290000002269326352656C656A
:103360006173654275732228290000000000000087
:10337000000000000000000000000000000000004D
:10338000000000000000000000000000000000003D
:10339000010000000000000000000000000000002C
:1033A00022646D61416C6C6F636174652228290031
:1033B00022646D6152656C65617365222829000085
:1033C000646D6152656C6561736528292C20233119
:1033D00000000000000000000000000000000000ED
:1033E000080002400400024000000B001C000240E4
:1033F0000400024004010C003000024004000240BE
:1034000008020D0044000240040002400C030E00BC
:10341000580002400400024010040F006C000240FB
:103420000400024014051000800002400400024025
:10343000180611000000000000000000000000005D
:103440006932635F6C6C645F737461727428292CD9
:10345000202331006932635F6C6C645F7374617246
:103460007428292C20233200226932635F6C6C643B
:103470005F7365745F636C6F636B222829000000C3
:103480006932635F6C6C645F7365745F636C6F63F8
:103490006B28292C202331006932635F6C6C645FD8
:1034A0007365745F636C6F636B28292C2023320073
:1034B0006932635F6C6C645F7365745F636C6F63C8
:1034C0006B28292C202333006932635F6C6C645FA6
:1034D0007365745F636C6F636B28292C2023340041
:1034E0006932635F6C6C645F7365745F636C6F6398
:1034F0006B28292C202335006932635F6C6C645F74
:103500007365745F636C6F636B28292C202336000E
:103510006932635F6C6C645F7365745F636C6F6367
:103520006B28292C20233800226932635F6C6C647D
:103530005F6D61737465725F726563656976655FFF
:1035400074696D656F7574222829000022693263E1
:103550005F6C6C645F6D61737465725F7472616ED1
:10356000736D69745F74696D656F757422282900C5
:1035700004020408080003070808080808080808E7
:103580000B0F000000000000000000000000000021
:103590000004000000060000000000000000000021
:1035A00000020202020202020202020202020202FD
:1035B000010000000000000000000000000000000A
:1035C000706D5F616C6C6F6328292C2023310000C3
:1035D00000000000D1110008C114000851150008B6
:1035E00040004000580E0020580E0020000000004F
:1035F000FFFFFFFF844B888888888888FFFFFFFFD4
:10360000888888888888B8B4FFFFFFFF888884444A
:1036100088338388FFFFFFFF4488888888888888EC
:10362000FFFFFFFF8888888888888888000000005E
:1036300072656164000000000000000000000000EE
:103640007772000000000000000000000000000091
:103650006900000000000000000000000000000001
:1036600001000000A0860100010000000000000031
:1036700022697764675374617274222829000000FC
:1036800022697764675265736574222829000000F7
:04000005080000F0FF
:00000001FF
